{
  "contractName": "FixedReputationAllocation",
  "abi": [
    {
      "constant": true,
      "inputs": [
        {
          "name": "",
          "type": "address"
        }
      ],
      "name": "beneficiaries",
      "outputs": [
        {
          "name": "",
          "type": "bool"
        }
      ],
      "payable": false,
      "stateMutability": "view",
      "type": "function"
    },
    {
      "constant": true,
      "inputs": [],
      "name": "numberOfBeneficiaries",
      "outputs": [
        {
          "name": "",
          "type": "uint256"
        }
      ],
      "payable": false,
      "stateMutability": "view",
      "type": "function"
    },
    {
      "constant": true,
      "inputs": [],
      "name": "redeemEnableTime",
      "outputs": [
        {
          "name": "",
          "type": "uint256"
        }
      ],
      "payable": false,
      "stateMutability": "view",
      "type": "function"
    },
    {
      "constant": true,
      "inputs": [],
      "name": "isEnable",
      "outputs": [
        {
          "name": "",
          "type": "bool"
        }
      ],
      "payable": false,
      "stateMutability": "view",
      "type": "function"
    },
    {
      "constant": true,
      "inputs": [],
      "name": "avatar",
      "outputs": [
        {
          "name": "",
          "type": "address"
        }
      ],
      "payable": false,
      "stateMutability": "view",
      "type": "function"
    },
    {
      "constant": false,
      "inputs": [],
      "name": "renounceOwnership",
      "outputs": [],
      "payable": false,
      "stateMutability": "nonpayable",
      "type": "function"
    },
    {
      "constant": true,
      "inputs": [],
      "name": "owner",
      "outputs": [
        {
          "name": "",
          "type": "address"
        }
      ],
      "payable": false,
      "stateMutability": "view",
      "type": "function"
    },
    {
      "constant": true,
      "inputs": [],
      "name": "isOwner",
      "outputs": [
        {
          "name": "",
          "type": "bool"
        }
      ],
      "payable": false,
      "stateMutability": "view",
      "type": "function"
    },
    {
      "constant": true,
      "inputs": [],
      "name": "beneficiaryReward",
      "outputs": [
        {
          "name": "",
          "type": "uint256"
        }
      ],
      "payable": false,
      "stateMutability": "view",
      "type": "function"
    },
    {
      "constant": true,
      "inputs": [],
      "name": "reputationReward",
      "outputs": [
        {
          "name": "",
          "type": "uint256"
        }
      ],
      "payable": false,
      "stateMutability": "view",
      "type": "function"
    },
    {
      "constant": false,
      "inputs": [
        {
          "name": "newOwner",
          "type": "address"
        }
      ],
      "name": "transferOwnership",
      "outputs": [],
      "payable": false,
      "stateMutability": "nonpayable",
      "type": "function"
    },
    {
      "anonymous": false,
      "inputs": [
        {
          "indexed": true,
          "name": "_beneficiary",
          "type": "address"
        },
        {
          "indexed": false,
          "name": "_amount",
          "type": "uint256"
        }
      ],
      "name": "Redeem",
      "type": "event"
    },
    {
      "anonymous": false,
      "inputs": [
        {
          "indexed": true,
          "name": "_beneficiary",
          "type": "address"
        }
      ],
      "name": "BeneficiaryAddressAdded",
      "type": "event"
    },
    {
      "anonymous": false,
      "inputs": [
        {
          "indexed": true,
          "name": "previousOwner",
          "type": "address"
        },
        {
          "indexed": true,
          "name": "newOwner",
          "type": "address"
        }
      ],
      "name": "OwnershipTransferred",
      "type": "event"
    },
    {
      "constant": false,
      "inputs": [
        {
          "name": "_avatar",
          "type": "address"
        },
        {
          "name": "_reputationReward",
          "type": "uint256"
        },
        {
          "name": "_redeemEnableTime",
          "type": "uint256"
        }
      ],
      "name": "initialize",
      "outputs": [],
      "payable": false,
      "stateMutability": "nonpayable",
      "type": "function"
    },
    {
      "constant": false,
      "inputs": [
        {
          "name": "_beneficiary",
          "type": "address"
        }
      ],
      "name": "redeem",
      "outputs": [
        {
          "name": "",
          "type": "bool"
        }
      ],
      "payable": false,
      "stateMutability": "nonpayable",
      "type": "function"
    },
    {
      "constant": false,
      "inputs": [
        {
          "name": "_beneficiary",
          "type": "address"
        }
      ],
      "name": "addBeneficiary",
      "outputs": [],
      "payable": false,
      "stateMutability": "nonpayable",
      "type": "function"
    },
    {
      "constant": false,
      "inputs": [
        {
          "name": "_beneficiaries",
          "type": "address[]"
        }
      ],
      "name": "addBeneficiaries",
      "outputs": [],
      "payable": false,
      "stateMutability": "nonpayable",
      "type": "function"
    },
    {
      "constant": false,
      "inputs": [],
      "name": "enable",
      "outputs": [],
      "payable": false,
      "stateMutability": "nonpayable",
      "type": "function"
    }
  ],
  "bytecode": "0x6080604081905260008054600160a060020a0319163317808255600160a060020a0316917f8be0079c531659141344cd1fd0a4f28419497f9722a3daafe3b4186f6b6457e0908290a3610ab0806100576000396000f3fe608060405234801561001057600080fd5b506004361061011d576000357c0100000000000000000000000000000000000000000000000000000000900480637a1ac61e116100b4578063a3907d7111610083578063a3907d71146102e5578063d044de63146102ed578063ed1ff6d8146102f5578063f2fde38b146102fd5761011d565b80637a1ac61e1461027d5780638da5cb5b146102af5780638f32d59b146102b757806395a2251f146102bf5761011d565b8063590411da116100f0578063590411da146101865780635926651d1461022b5780635aef7de614610251578063715018a6146102755761011d565b8063015677391461012257806326e9a57e1461015c5780633d1678f4146101765780634bb77d681461017e575b600080fd5b6101486004803603602081101561013857600080fd5b5035600160a060020a0316610323565b604080519115158252519081900360200190f35b610164610338565b60408051918252519081900360200190f35b61016461033e565b610148610344565b6102296004803603602081101561019c57600080fd5b8101906020810181356401000000008111156101b757600080fd5b8201836020820111156101c957600080fd5b803590602001918460208302840111640100000000831117156101eb57600080fd5b91908080602002602001604051908101604052809392919081815260200183836020028082843760009201919091525092955061034d945050505050565b005b6102296004803603602081101561024157600080fd5b5035600160a060020a0316610398565b61025961046a565b60408051600160a060020a039092168252519081900360200190f35b610229610479565b6102296004803603606081101561029357600080fd5b50600160a060020a0381351690602081013590604001356104e3565b6102596105ef565b6101486105fe565b610148600480360360208110156102d557600080fd5b5035600160a060020a031661060f565b61022961091d565b610164610957565b61016461095d565b6102296004803603602081101561031357600080fd5b5035600160a060020a0316610963565b60016020526000908152604090205460ff1681565b60055481565b60075481565b60045460ff1681565b6103556105fe565b151561036057600080fd5b60005b81518110156103945761038c828281518110151561037d57fe5b90602001906020020151610398565b600101610363565b5050565b6103a06105fe565b15156103ab57600080fd5b60045460ff16156103f05760405160e560020a62461bcd02815260040180806020018281038252602e815260200180610a21602e913960400191505060405180910390fd5b600160a060020a03811660009081526001602052604090205460ff16151561046757600160a060020a0381166000818152600160208190526040808320805460ff19168317905560058054909201909155517f95b0b3bbe2a97e90a67cbf83ff77fbde1eb5b70051247f9d1a62822ccdc919979190a25b50565b600254600160a060020a031681565b6104816105fe565b151561048c57600080fd5b60008054604051600160a060020a03909116907f8be0079c531659141344cd1fd0a4f28419497f9722a3daafe3b4186f6b6457e0908390a36000805473ffffffffffffffffffffffffffffffffffffffff19169055565b6104eb6105fe565b15156104f657600080fd5b600254600160a060020a031615610557576040805160e560020a62461bcd02815260206004820152601b60248201527f63616e2062652063616c6c6564206f6e6c79206f6e652074696d650000000000604482015290519081900360640190fd5b600160a060020a03831615156105b7576040805160e560020a62461bcd02815260206004820152601560248201527f6176617461722063616e6e6f74206265207a65726f0000000000000000000000604482015290519081900360640190fd5b6003919091556007556002805473ffffffffffffffffffffffffffffffffffffffff1916600160a060020a0392909216919091179055565b600054600160a060020a031690565b600054600160a060020a0316331490565b60045460009060ff16151561066e576040805160e560020a62461bcd02815260206004820152601460248201527f7265717569726520746f20626520656e61626c65000000000000000000000000604482015290519081900360640190fd5b600160a060020a03821660009081526001602052604090205460ff1615156106ca5760405160e560020a62461bcd028152600401808060200182810382526036815260200180610a4f6036913960400191505060405180910390fd5b600160a060020a0382166000908152600160205260409020805460ff191690556007544211610743576040805160e560020a62461bcd02815260206004820152601e60248201527f72657175697265206e6f77203e2072656465656d456e61626c6554696d650000604482015290519081900360640190fd5b600260009054906101000a9004600160a060020a0316600160a060020a0316638da5cb5b6040518163ffffffff167c010000000000000000000000000000000000000000000000000000000002815260040160206040518083038186803b1580156107ad57600080fd5b505afa1580156107c1573d6000803e3d6000fd5b505050506040513d60208110156107d757600080fd5b5051600654600254604080517feaf994b20000000000000000000000000000000000000000000000000000000081526004810193909352600160a060020a03868116602485015291821660448401525192169163eaf994b2916064808201926020929091908290030181600087803b15801561085257600080fd5b505af1158015610866573d6000803e3d6000fd5b505050506040513d602081101561087c57600080fd5b505115156108d4576040805160e560020a62461bcd02815260206004820152601660248201527f6d696e742072657075746174696f6e206661696c656400000000000000000000604482015290519081900360640190fd5b6006546040805191825251600160a060020a038416917f222838db2794d11532d940e8dec38ae307ed0b63cd97c233322e221f998767a6919081900360200190a2506001919050565b6109256105fe565b151561093057600080fd5b6004805460ff191660011790556005546003546109529163ffffffff61097f16565b600655565b60065481565b60035481565b61096b6105fe565b151561097657600080fd5b610467816109a3565b600080821161098d57600080fd5b6000828481151561099a57fe5b04949350505050565b600160a060020a03811615156109b857600080fd5b60008054604051600160a060020a03808516939216917f8be0079c531659141344cd1fd0a4f28419497f9722a3daafe3b4186f6b6457e091a36000805473ffffffffffffffffffffffffffffffffffffffff1916600160a060020a039290921691909117905556fe63616e206164642062656e6566696369617279206f6e6c79206966206e6f7420616c726561647920656e61626c6572657175697265205f62656e656669636961727920746f20657869737420696e207468652062656e65666963696172696573206d6170a165627a7a7230582011477c0b7f6edccf2984bddc81c486186b0a1c9d57cbc40af1f8f7503c5c54f90029",
  "source": "pragma solidity ^0.5.4;\n\nimport \"../controller/ControllerInterface.sol\";\nimport \"openzeppelin-solidity/contracts/ownership/Ownable.sol\";\n\n\n/**\n * @title A fixed reputation allocation contract\n * This scheme can be used to allocate a pre define amount of reputation to whitelisted\n * beneficiaries.\n */\ncontract FixedReputationAllocation is Ownable {\n    using SafeMath for uint256;\n\n    event Redeem(address indexed _beneficiary, uint256 _amount);\n    event BeneficiaryAddressAdded(address indexed _beneficiary);\n\n    // beneficiary -> exist\n    mapping(address => bool) public beneficiaries;\n\n    Avatar public avatar;\n    uint256 public reputationReward;\n    bool public isEnable;\n    uint256 public numberOfBeneficiaries;\n    uint256 public beneficiaryReward;\n    uint256 public redeemEnableTime;\n\n    /**\n     * @dev initialize\n     * @param _avatar the avatar to mint reputation from\n     * @param _reputationReward the total reputation this contract will reward\n     * @param _redeemEnableTime time to enable redeem\n     */\n    function initialize(Avatar _avatar, uint256 _reputationReward, uint256 _redeemEnableTime) external onlyOwner {\n        require(avatar == Avatar(0), \"can be called only one time\");\n        require(_avatar != Avatar(0), \"avatar cannot be zero\");\n        reputationReward = _reputationReward;\n        redeemEnableTime = _redeemEnableTime;\n        avatar = _avatar;\n    }\n\n    /**\n     * @dev redeem reputation function\n     * @param _beneficiary the beneficiary for the release\n     * @return bool\n     */\n    function redeem(address _beneficiary) public returns(bool) {\n        require(isEnable, \"require to be enable\");\n        require(beneficiaries[_beneficiary], \"require _beneficiary to exist in the beneficiaries map\");\n        beneficiaries[_beneficiary] = false;\n        // solhint-disable-next-line not-rely-on-time\n        require(now > redeemEnableTime, \"require now > redeemEnableTime\");\n        require(\n        ControllerInterface(\n        avatar.owner())\n        .mintReputation(beneficiaryReward, _beneficiary, address(avatar)), \"mint reputation failed\");\n\n        emit Redeem(_beneficiary, beneficiaryReward);\n\n        return true;\n    }\n\n    /**\n     * @dev addBeneficiary function\n     * @param _beneficiary to be whitelisted\n     */\n    function addBeneficiary(address _beneficiary) public onlyOwner {\n        require(!isEnable, \"can add beneficiary only if not already enable\");\n\n        if (!beneficiaries[_beneficiary]) {\n            beneficiaries[_beneficiary] = true;\n            numberOfBeneficiaries++;\n\n            emit BeneficiaryAddressAdded(_beneficiary);\n        }\n    }\n\n    /**\n     * @dev add addBeneficiaries function\n     * @param _beneficiaries addresses\n     */\n    function addBeneficiaries(address[] memory _beneficiaries) public onlyOwner {\n        for (uint256 i = 0; i < _beneficiaries.length; i++) {\n            addBeneficiary(_beneficiaries[i]);\n        }\n    }\n\n    /**\n     * @dev enable function\n     */\n    function enable() public onlyOwner {\n        isEnable = true;\n        // Calculate beneficiary reward\n        beneficiaryReward = reputationReward.div(numberOfBeneficiaries);\n    }\n}\n",
  "sourcePath": "/Users/oren/daostack/arc/contracts/schemes/FixedReputationAllocation.sol",
  "compiler": {
    "name": "solc",
    "version": "0.5.4+commit.9549d8ff.Emscripten.clang"
  },
  "schemaVersion": "3.0.9",
  "updatedAt": "2019-05-19T13:02:45.959Z",
  "devdoc": {
    "methods": {
      "addBeneficiaries(address[])": {
        "details": "add addBeneficiaries function",
        "params": {
          "_beneficiaries": "addresses"
        }
      },
      "addBeneficiary(address)": {
        "details": "addBeneficiary function",
        "params": {
          "_beneficiary": "to be whitelisted"
        }
      },
      "enable()": {
        "details": "enable function"
      },
      "initialize(address,uint256,uint256)": {
        "details": "initialize",
        "params": {
          "_avatar": "the avatar to mint reputation from",
          "_redeemEnableTime": "time to enable redeem",
          "_reputationReward": "the total reputation this contract will reward"
        }
      },
      "isOwner()": {
        "return": "true if `msg.sender` is the owner of the contract."
      },
      "owner()": {
        "return": "the address of the owner."
      },
      "redeem(address)": {
        "details": "redeem reputation function",
        "params": {
          "_beneficiary": "the beneficiary for the release"
        },
        "return": "bool"
      },
      "renounceOwnership()": {
        "details": "Allows the current owner to relinquish control of the contract."
      },
      "transferOwnership(address)": {
        "details": "Allows the current owner to transfer control of the contract to a newOwner.",
        "params": {
          "newOwner": "The address to transfer ownership to."
        }
      }
    },
    "title": "A fixed reputation allocation contract This scheme can be used to allocate a pre define amount of reputation to whitelisted beneficiaries."
  },
  "userdoc": {
    "methods": {
      "renounceOwnership()": {
        "notice": "Renouncing to ownership will leave the contract without an owner. It will not be possible to call the functions with the `onlyOwner` modifier anymore."
      }
    }
  }
}