{
  "contractName": "ReputationFromToken",
  "abi": [
    {
      "constant": true,
      "inputs": [
        {
          "name": "",
          "type": "address"
        }
      ],
      "name": "redeems",
      "outputs": [
        {
          "name": "",
          "type": "bool"
        }
      ],
      "payable": false,
      "stateMutability": "view",
      "type": "function"
    },
    {
      "constant": true,
      "inputs": [],
      "name": "tokenContract",
      "outputs": [
        {
          "name": "",
          "type": "address"
        }
      ],
      "payable": false,
      "stateMutability": "view",
      "type": "function"
    },
    {
      "constant": true,
      "inputs": [],
      "name": "avatar",
      "outputs": [
        {
          "name": "",
          "type": "address"
        }
      ],
      "payable": false,
      "stateMutability": "view",
      "type": "function"
    },
    {
      "anonymous": false,
      "inputs": [
        {
          "indexed": true,
          "name": "_beneficiary",
          "type": "address"
        },
        {
          "indexed": true,
          "name": "_sender",
          "type": "address"
        },
        {
          "indexed": false,
          "name": "_amount",
          "type": "uint256"
        }
      ],
      "name": "Redeem",
      "type": "event"
    },
    {
      "constant": false,
      "inputs": [
        {
          "name": "_avatar",
          "type": "address"
        },
        {
          "name": "_tokenContract",
          "type": "address"
        }
      ],
      "name": "initialize",
      "outputs": [],
      "payable": false,
      "stateMutability": "nonpayable",
      "type": "function"
    },
    {
      "constant": false,
      "inputs": [
        {
          "name": "_beneficiary",
          "type": "address"
        }
      ],
      "name": "redeem",
      "outputs": [],
      "payable": false,
      "stateMutability": "nonpayable",
      "type": "function"
    }
  ],
  "bytecode": "0x608060405234801561001057600080fd5b5061060e806100206000396000f3fe608060405234801561001057600080fd5b5060043610610073577c01000000000000000000000000000000000000000000000000000000006000350463485cc9558114610078578063511ffbff146100a857806355a373d6146100e25780635aef7de61461010657806395a2251f1461010e575b600080fd5b6100a66004803603604081101561008e57600080fd5b50600160a060020a0381358116916020013516610134565b005b6100ce600480360360208110156100be57600080fd5b5035600160a060020a0316610233565b604080519115158252519081900360200190f35b6100ea610248565b60408051600160a060020a039092168252519081900360200190f35b6100ea610257565b6100a66004803603602081101561012457600080fd5b5035600160a060020a0316610266565b600254600160a060020a031615610195576040805160e560020a62461bcd02815260206004820152601b60248201527f63616e2062652063616c6c6564206f6e6c79206f6e652074696d650000000000604482015290519081900360640190fd5b600160a060020a03821615156101f5576040805160e560020a62461bcd02815260206004820152601560248201527f6176617461722063616e6e6f74206265207a65726f0000000000000000000000604482015290519081900360640190fd5b60008054600160a060020a0392831673ffffffffffffffffffffffffffffffffffffffff199182161790915560028054939092169216919091179055565b60016020526000908152604090205460ff1681565b600054600160a060020a031681565b600254600160a060020a031681565b600254600160a060020a031615156102c8576040805160e560020a62461bcd02815260206004820152601760248201527f73686f756c6420696e697469616c697a65206669727374000000000000000000604482015290519081900360640190fd5b3360009081526001602052604090205460ff161561031a5760405160e560020a62461bcd0281526004018080602001828103825260348152602001806105af6034913960400191505060405180910390fd5b336000818152600160208181526040808420805460ff1916909317909255825482517f70a08231000000000000000000000000000000000000000000000000000000008152600481019590955291519293600160a060020a03909216926370a08231926024808201939291829003018186803b15801561039957600080fd5b505afa1580156103ad573d6000803e3d6000fd5b505050506040513d60208110156103c357600080fd5b50519050600160a060020a03821615156103db573391505b600260009054906101000a9004600160a060020a0316600160a060020a0316638da5cb5b6040518163ffffffff167c010000000000000000000000000000000000000000000000000000000002815260040160206040518083038186803b15801561044557600080fd5b505afa158015610459573d6000803e3d6000fd5b505050506040513d602081101561046f57600080fd5b5051600254604080517feaf994b200000000000000000000000000000000000000000000000000000000815260048101859052600160a060020a03868116602483015292831660448201529051919092169163eaf994b29160648083019260209291908290030181600087803b1580156104e857600080fd5b505af11580156104fc573d6000803e3d6000fd5b505050506040513d602081101561051257600080fd5b5051151561056a576040805160e560020a62461bcd02815260206004820152601e60248201527f6d696e742072657075746174696f6e2073686f756c6420737563636565640000604482015290519081900360640190fd5b6040805182815290513391600160a060020a038516917fd12200efa34901b99367694174c3b0d32c99585fdf37c7c26892136ddd0836d99181900360200190a3505056fe72656465656d696e672074776963652066726f6d207468652073616d65206163636f756e74206973206e6f7420616c6c6f776564a165627a7a723058206ad000c06026998392599222643b09d7a78d80613bf662271ed4415a4a061a820029",
  "source": "pragma solidity ^0.5.4;\n\nimport \"../controller/ControllerInterface.sol\";\nimport \"openzeppelin-solidity/contracts/token/ERC20/IERC20.sol\";\n\n/**\n * @title A scheme for reputation allocation according to token balances\n *        This contract is assuming that the token contract is paused, and one cannot transfer its tokens.\n */\n\ncontract ReputationFromToken {\n\n    IERC20 public tokenContract;\n    //      beneficiary -> bool\n    mapping(address     => bool) public redeems;\n    Avatar public avatar;\n\n    event Redeem(address indexed _beneficiary, address indexed _sender, uint256 _amount);\n\n    /**\n     * @dev initialize\n     * @param _avatar the avatar to mint reputation from\n     * @param _tokenContract the token contract\n     */\n    function initialize(Avatar _avatar, IERC20 _tokenContract) external\n    {\n        require(avatar == Avatar(0), \"can be called only one time\");\n        require(_avatar != Avatar(0), \"avatar cannot be zero\");\n        tokenContract = _tokenContract;\n        avatar = _avatar;\n    }\n\n    /**\n     * @dev redeem function\n     * @param _beneficiary the beneficiary address to redeem for\n     */\n    function redeem(address _beneficiary) public {\n        require(avatar != Avatar(0), \"should initialize first\");\n        require(redeems[msg.sender] == false, \"redeeming twice from the same account is not allowed\");\n        redeems[msg.sender] = true;\n        uint256 tokenAmount = tokenContract.balanceOf(msg.sender);\n        if (_beneficiary == address(0)) {\n            _beneficiary = msg.sender;\n        }\n        require(\n        ControllerInterface(\n        avatar.owner())\n        .mintReputation(tokenAmount, _beneficiary, address(avatar)), \"mint reputation should succeed\");\n        emit Redeem(_beneficiary, msg.sender, tokenAmount);\n    }\n}\n",
  "sourcePath": "/Users/oren/daostack/arc/contracts/schemes/ReputationFromToken.sol",
  "compiler": {
    "name": "solc",
    "version": "0.5.4+commit.9549d8ff.Emscripten.clang"
  },
  "schemaVersion": "3.0.9",
  "updatedAt": "2019-05-19T13:02:45.970Z",
  "devdoc": {
    "methods": {
      "initialize(address,address)": {
        "details": "initialize",
        "params": {
          "_avatar": "the avatar to mint reputation from",
          "_tokenContract": "the token contract"
        }
      },
      "redeem(address)": {
        "details": "redeem function",
        "params": {
          "_beneficiary": "the beneficiary address to redeem for"
        }
      }
    },
    "title": "A scheme for reputation allocation according to token balances       This contract is assuming that the token contract is paused, and one cannot transfer its tokens."
  },
  "userdoc": {
    "methods": {}
  }
}