{
  "contractName": "UController",
  "abi": [
    {
      "constant": true,
      "inputs": [
        {
          "name": "",
          "type": "address"
        }
      ],
      "name": "newControllers",
      "outputs": [
        {
          "name": "",
          "type": "address"
        }
      ],
      "payable": false,
      "stateMutability": "view",
      "type": "function"
    },
    {
      "constant": true,
      "inputs": [
        {
          "name": "",
          "type": "address"
        }
      ],
      "name": "organizations",
      "outputs": [
        {
          "name": "nativeToken",
          "type": "address"
        },
        {
          "name": "nativeReputation",
          "type": "address"
        }
      ],
      "payable": false,
      "stateMutability": "view",
      "type": "function"
    },
    {
      "constant": true,
      "inputs": [
        {
          "name": "",
          "type": "address"
        }
      ],
      "name": "actors",
      "outputs": [
        {
          "name": "",
          "type": "bool"
        }
      ],
      "payable": false,
      "stateMutability": "view",
      "type": "function"
    },
    {
      "anonymous": false,
      "inputs": [
        {
          "indexed": true,
          "name": "_sender",
          "type": "address"
        },
        {
          "indexed": true,
          "name": "_to",
          "type": "address"
        },
        {
          "indexed": false,
          "name": "_amount",
          "type": "uint256"
        },
        {
          "indexed": true,
          "name": "_avatar",
          "type": "address"
        }
      ],
      "name": "MintReputation",
      "type": "event"
    },
    {
      "anonymous": false,
      "inputs": [
        {
          "indexed": true,
          "name": "_sender",
          "type": "address"
        },
        {
          "indexed": true,
          "name": "_from",
          "type": "address"
        },
        {
          "indexed": false,
          "name": "_amount",
          "type": "uint256"
        },
        {
          "indexed": true,
          "name": "_avatar",
          "type": "address"
        }
      ],
      "name": "BurnReputation",
      "type": "event"
    },
    {
      "anonymous": false,
      "inputs": [
        {
          "indexed": true,
          "name": "_sender",
          "type": "address"
        },
        {
          "indexed": true,
          "name": "_beneficiary",
          "type": "address"
        },
        {
          "indexed": false,
          "name": "_amount",
          "type": "uint256"
        },
        {
          "indexed": true,
          "name": "_avatar",
          "type": "address"
        }
      ],
      "name": "MintTokens",
      "type": "event"
    },
    {
      "anonymous": false,
      "inputs": [
        {
          "indexed": true,
          "name": "_sender",
          "type": "address"
        },
        {
          "indexed": true,
          "name": "_scheme",
          "type": "address"
        },
        {
          "indexed": true,
          "name": "_avatar",
          "type": "address"
        }
      ],
      "name": "RegisterScheme",
      "type": "event"
    },
    {
      "anonymous": false,
      "inputs": [
        {
          "indexed": true,
          "name": "_sender",
          "type": "address"
        },
        {
          "indexed": true,
          "name": "_scheme",
          "type": "address"
        },
        {
          "indexed": true,
          "name": "_avatar",
          "type": "address"
        }
      ],
      "name": "UnregisterScheme",
      "type": "event"
    },
    {
      "anonymous": false,
      "inputs": [
        {
          "indexed": true,
          "name": "_oldController",
          "type": "address"
        },
        {
          "indexed": false,
          "name": "_newController",
          "type": "address"
        },
        {
          "indexed": false,
          "name": "_avatar",
          "type": "address"
        }
      ],
      "name": "UpgradeController",
      "type": "event"
    },
    {
      "anonymous": false,
      "inputs": [
        {
          "indexed": true,
          "name": "_globalConstraint",
          "type": "address"
        },
        {
          "indexed": false,
          "name": "_params",
          "type": "bytes32"
        },
        {
          "indexed": false,
          "name": "_when",
          "type": "uint8"
        },
        {
          "indexed": true,
          "name": "_avatar",
          "type": "address"
        }
      ],
      "name": "AddGlobalConstraint",
      "type": "event"
    },
    {
      "anonymous": false,
      "inputs": [
        {
          "indexed": true,
          "name": "_globalConstraint",
          "type": "address"
        },
        {
          "indexed": false,
          "name": "_index",
          "type": "uint256"
        },
        {
          "indexed": false,
          "name": "_isPre",
          "type": "bool"
        },
        {
          "indexed": true,
          "name": "_avatar",
          "type": "address"
        }
      ],
      "name": "RemoveGlobalConstraint",
      "type": "event"
    },
    {
      "constant": false,
      "inputs": [
        {
          "name": "_avatar",
          "type": "address"
        }
      ],
      "name": "newOrganization",
      "outputs": [],
      "payable": false,
      "stateMutability": "nonpayable",
      "type": "function"
    },
    {
      "constant": false,
      "inputs": [
        {
          "name": "_amount",
          "type": "uint256"
        },
        {
          "name": "_to",
          "type": "address"
        },
        {
          "name": "_avatar",
          "type": "address"
        }
      ],
      "name": "mintReputation",
      "outputs": [
        {
          "name": "",
          "type": "bool"
        }
      ],
      "payable": false,
      "stateMutability": "nonpayable",
      "type": "function"
    },
    {
      "constant": false,
      "inputs": [
        {
          "name": "_amount",
          "type": "uint256"
        },
        {
          "name": "_from",
          "type": "address"
        },
        {
          "name": "_avatar",
          "type": "address"
        }
      ],
      "name": "burnReputation",
      "outputs": [
        {
          "name": "",
          "type": "bool"
        }
      ],
      "payable": false,
      "stateMutability": "nonpayable",
      "type": "function"
    },
    {
      "constant": false,
      "inputs": [
        {
          "name": "_amount",
          "type": "uint256"
        },
        {
          "name": "_beneficiary",
          "type": "address"
        },
        {
          "name": "_avatar",
          "type": "address"
        }
      ],
      "name": "mintTokens",
      "outputs": [
        {
          "name": "",
          "type": "bool"
        }
      ],
      "payable": false,
      "stateMutability": "nonpayable",
      "type": "function"
    },
    {
      "constant": false,
      "inputs": [
        {
          "name": "_scheme",
          "type": "address"
        },
        {
          "name": "_paramsHash",
          "type": "bytes32"
        },
        {
          "name": "_permissions",
          "type": "bytes4"
        },
        {
          "name": "_avatar",
          "type": "address"
        }
      ],
      "name": "registerScheme",
      "outputs": [
        {
          "name": "",
          "type": "bool"
        }
      ],
      "payable": false,
      "stateMutability": "nonpayable",
      "type": "function"
    },
    {
      "constant": false,
      "inputs": [
        {
          "name": "_scheme",
          "type": "address"
        },
        {
          "name": "_avatar",
          "type": "address"
        }
      ],
      "name": "unregisterScheme",
      "outputs": [
        {
          "name": "",
          "type": "bool"
        }
      ],
      "payable": false,
      "stateMutability": "nonpayable",
      "type": "function"
    },
    {
      "constant": false,
      "inputs": [
        {
          "name": "_avatar",
          "type": "address"
        }
      ],
      "name": "unregisterSelf",
      "outputs": [
        {
          "name": "",
          "type": "bool"
        }
      ],
      "payable": false,
      "stateMutability": "nonpayable",
      "type": "function"
    },
    {
      "constant": false,
      "inputs": [
        {
          "name": "_globalConstraint",
          "type": "address"
        },
        {
          "name": "_params",
          "type": "bytes32"
        },
        {
          "name": "_avatar",
          "type": "address"
        }
      ],
      "name": "addGlobalConstraint",
      "outputs": [
        {
          "name": "",
          "type": "bool"
        }
      ],
      "payable": false,
      "stateMutability": "nonpayable",
      "type": "function"
    },
    {
      "constant": false,
      "inputs": [
        {
          "name": "_globalConstraint",
          "type": "address"
        },
        {
          "name": "_avatar",
          "type": "address"
        }
      ],
      "name": "removeGlobalConstraint",
      "outputs": [
        {
          "name": "",
          "type": "bool"
        }
      ],
      "payable": false,
      "stateMutability": "nonpayable",
      "type": "function"
    },
    {
      "constant": false,
      "inputs": [
        {
          "name": "_newController",
          "type": "address"
        },
        {
          "name": "_avatar",
          "type": "address"
        }
      ],
      "name": "upgradeController",
      "outputs": [
        {
          "name": "",
          "type": "bool"
        }
      ],
      "payable": false,
      "stateMutability": "nonpayable",
      "type": "function"
    },
    {
      "constant": false,
      "inputs": [
        {
          "name": "_contract",
          "type": "address"
        },
        {
          "name": "_data",
          "type": "bytes"
        },
        {
          "name": "_avatar",
          "type": "address"
        },
        {
          "name": "_value",
          "type": "uint256"
        }
      ],
      "name": "genericCall",
      "outputs": [
        {
          "name": "",
          "type": "bool"
        },
        {
          "name": "",
          "type": "bytes"
        }
      ],
      "payable": false,
      "stateMutability": "nonpayable",
      "type": "function"
    },
    {
      "constant": false,
      "inputs": [
        {
          "name": "_amountInWei",
          "type": "uint256"
        },
        {
          "name": "_to",
          "type": "address"
        },
        {
          "name": "_avatar",
          "type": "address"
        }
      ],
      "name": "sendEther",
      "outputs": [
        {
          "name": "",
          "type": "bool"
        }
      ],
      "payable": false,
      "stateMutability": "nonpayable",
      "type": "function"
    },
    {
      "constant": false,
      "inputs": [
        {
          "name": "_externalToken",
          "type": "address"
        },
        {
          "name": "_to",
          "type": "address"
        },
        {
          "name": "_value",
          "type": "uint256"
        },
        {
          "name": "_avatar",
          "type": "address"
        }
      ],
      "name": "externalTokenTransfer",
      "outputs": [
        {
          "name": "",
          "type": "bool"
        }
      ],
      "payable": false,
      "stateMutability": "nonpayable",
      "type": "function"
    },
    {
      "constant": false,
      "inputs": [
        {
          "name": "_externalToken",
          "type": "address"
        },
        {
          "name": "_from",
          "type": "address"
        },
        {
          "name": "_to",
          "type": "address"
        },
        {
          "name": "_value",
          "type": "uint256"
        },
        {
          "name": "_avatar",
          "type": "address"
        }
      ],
      "name": "externalTokenTransferFrom",
      "outputs": [
        {
          "name": "",
          "type": "bool"
        }
      ],
      "payable": false,
      "stateMutability": "nonpayable",
      "type": "function"
    },
    {
      "constant": false,
      "inputs": [
        {
          "name": "_externalToken",
          "type": "address"
        },
        {
          "name": "_spender",
          "type": "address"
        },
        {
          "name": "_value",
          "type": "uint256"
        },
        {
          "name": "_avatar",
          "type": "address"
        }
      ],
      "name": "externalTokenApproval",
      "outputs": [
        {
          "name": "",
          "type": "bool"
        }
      ],
      "payable": false,
      "stateMutability": "nonpayable",
      "type": "function"
    },
    {
      "constant": false,
      "inputs": [
        {
          "name": "_metaData",
          "type": "string"
        },
        {
          "name": "_avatar",
          "type": "address"
        }
      ],
      "name": "metaData",
      "outputs": [
        {
          "name": "",
          "type": "bool"
        }
      ],
      "payable": false,
      "stateMutability": "nonpayable",
      "type": "function"
    },
    {
      "constant": true,
      "inputs": [
        {
          "name": "_scheme",
          "type": "address"
        },
        {
          "name": "_avatar",
          "type": "address"
        }
      ],
      "name": "isSchemeRegistered",
      "outputs": [
        {
          "name": "",
          "type": "bool"
        }
      ],
      "payable": false,
      "stateMutability": "view",
      "type": "function"
    },
    {
      "constant": true,
      "inputs": [
        {
          "name": "_scheme",
          "type": "address"
        },
        {
          "name": "_avatar",
          "type": "address"
        }
      ],
      "name": "getSchemeParameters",
      "outputs": [
        {
          "name": "",
          "type": "bytes32"
        }
      ],
      "payable": false,
      "stateMutability": "view",
      "type": "function"
    },
    {
      "constant": true,
      "inputs": [
        {
          "name": "_scheme",
          "type": "address"
        },
        {
          "name": "_avatar",
          "type": "address"
        }
      ],
      "name": "getSchemePermissions",
      "outputs": [
        {
          "name": "",
          "type": "bytes4"
        }
      ],
      "payable": false,
      "stateMutability": "view",
      "type": "function"
    },
    {
      "constant": true,
      "inputs": [
        {
          "name": "_globalConstraint",
          "type": "address"
        },
        {
          "name": "_avatar",
          "type": "address"
        }
      ],
      "name": "getGlobalConstraintParameters",
      "outputs": [
        {
          "name": "",
          "type": "bytes32"
        }
      ],
      "payable": false,
      "stateMutability": "view",
      "type": "function"
    },
    {
      "constant": true,
      "inputs": [
        {
          "name": "_avatar",
          "type": "address"
        }
      ],
      "name": "globalConstraintsCount",
      "outputs": [
        {
          "name": "",
          "type": "uint256"
        },
        {
          "name": "",
          "type": "uint256"
        }
      ],
      "payable": false,
      "stateMutability": "view",
      "type": "function"
    },
    {
      "constant": true,
      "inputs": [
        {
          "name": "_globalConstraint",
          "type": "address"
        },
        {
          "name": "_avatar",
          "type": "address"
        }
      ],
      "name": "isGlobalConstraintRegistered",
      "outputs": [
        {
          "name": "",
          "type": "bool"
        }
      ],
      "payable": false,
      "stateMutability": "view",
      "type": "function"
    },
    {
      "constant": true,
      "inputs": [
        {
          "name": "_avatar",
          "type": "address"
        }
      ],
      "name": "getNativeReputation",
      "outputs": [
        {
          "name": "",
          "type": "address"
        }
      ],
      "payable": false,
      "stateMutability": "view",
      "type": "function"
    }
  ],
  "bytecode": "0x608060405234801561001057600080fd5b50614b37806100206000396000f3fe608060405234801561001057600080fd5b50600436106101925760003560e060020a900480639b51e35a116100e2578063e08738da1161009b578063eaa66a3c11610075578063eaa66a3c146107a0578063eaf994b2146107c6578063f76488be146107fa578063fb4856a21461082857610192565b8063e08738da146106e3578063e4537a7414610711578063e869d45f1461074757610192565b80639b51e35a146104665780639be2faed146104c6578063b9981364146104f4578063b9a04cdd1461051c578063c9b62eb114610558578063d1b7089a146105d157610192565b80635a1f74061161014f5780636c525b13116101295780636c525b13146103a75780636e94d278146103cd578063824f2f1f146104015780638da039971461044057610192565b80635a1f7406146102f3578063634965da1461033f5780636407e4321461037357610192565b8063039de01d146101975780631c4d5608146101d957806342427bf8146102195780634f52b5be146102475780634fe125a31461027557806351803cd8146102b7575b600080fd5b6101c5600480360360408110156101ad57600080fd5b50600160a060020a038135811691602001351661086e565b604080519115158252519081900360200190f35b610207600480360360408110156101ef57600080fd5b50600160a060020a0381358116916020013516610cfd565b60408051918252519081900360200190f35b6101c56004803603604081101561022f57600080fd5b50600160a060020a0381358116916020013516610d2c565b6101c56004803603604081101561025d57600080fd5b50600160a060020a0381358116916020013516611297565b61029b6004803603602081101561028b57600080fd5b5035600160a060020a03166113d7565b60408051600160a060020a039092168252519081900360200190f35b6101c5600480360360808110156102cd57600080fd5b50600160a060020a038135811691602081013582169160408201359160600135166113f2565b6103196004803603602081101561030957600080fd5b5035600160a060020a0316611803565b60408051600160a060020a03938416815291909216602082015281519081900390910190f35b6101c56004803603606081101561035557600080fd5b50803590600160a060020a0360208201358116916040013516611829565b6101c56004803603606081101561038957600080fd5b50803590600160a060020a0360208201358116916040013516611c28565b6101c5600480360360208110156103bd57600080fd5b5035600160a060020a03166120a9565b6101c5600480360360608110156103e357600080fd5b50803590600160a060020a036020820135811691604001351661212e565b6104276004803603602081101561041757600080fd5b5035600160a060020a03166125af565b6040805192835260208301919091528051918290030190f35b61029b6004803603602081101561045657600080fd5b5035600160a060020a03166125d5565b6104946004803603604081101561047c57600080fd5b50600160a060020a03813581169160200135166125f6565b604080517bffffffffffffffffffffffffffffffffffffffffffffffffffffffff199092168252519081900360200190f35b6101c5600480360360408110156104dc57600080fd5b50600160a060020a038135811691602001351661262d565b61051a6004803603602081101561050a57600080fd5b5035600160a060020a0316612640565b005b6101c56004803603608081101561053257600080fd5b50600160a060020a03813581169160208101358216916040820135916060013516612a33565b6101c56004803603604081101561056e57600080fd5b81019060208101813564010000000081111561058957600080fd5b82018360208201111561059b57600080fd5b803590602001918460018302840111640100000000831117156105bd57600080fd5b919350915035600160a060020a0316612e36565b610660600480360360808110156105e757600080fd5b600160a060020a03823516919081019060408101602082013564010000000081111561061257600080fd5b82018360208201111561062457600080fd5b8035906020019184600183028401116401000000008311171561064657600080fd5b9193509150600160a060020a038135169060200135612f53565b604051808315151515815260200180602001828103825283818151815260200191508051906020019080838360005b838110156106a757818101518382015260200161068f565b50505050905090810190601f1680156106d45780820380516001836020036101000a031916815260200191505b50935050505060405180910390f35b610207600480360360408110156106f957600080fd5b50600160a060020a0381358116916020013516613410565b6101c56004803603606081101561072757600080fd5b50600160a060020a03813581169160208101359160409091013516613501565b6101c56004803603608081101561075d57600080fd5b50600160a060020a0381358116916020810135917bffffffffffffffffffffffffffffffffffffffffffffffffffffffff196040830135169160600135166138b8565b6101c5600480360360208110156107b657600080fd5b5035600160a060020a0316613db4565b6101c5600480360360608110156107dc57600080fd5b50803590600160a060020a0360208201358116916040013516613dc9565b6101c56004803603604081101561081057600080fd5b50600160a060020a038135811691602001351661424a565b6101c5600480360360a081101561083e57600080fd5b50600160a060020a03813581169160208101358216916040820135811691606081013591608090910135166142af565b600160a060020a038116600090815260208181526040808320338452600201909152812060010154829060e060020a027c0200000000000000000000000000000000000000000000000000000000908116146108c957600080fd5b7f756e7265676973746572536368656d6500000000000000000000000000000000836000606060008084600160a060020a0316600160a060020a03168152602001908152602001600020600301805480602002602001604051908101604052809291908181526020016000905b8282101561097e57600084815260209081902060408051808201909152600285029091018054600160a060020a03168252600190810154828401529083529092019101610936565b50505050600160a060020a03841660009081526020818152604080832060040180548251818502810185019093528083529495506060949193909284015b82821015610a0457600084815260209081902060408051808201909152600285029091018054600160a060020a031682526001908101548284015290835290920191016109bc565b505050509050600092505b8151831015610afb578183815181101515610a2657fe5b9060200190602002015160000151600160a060020a031663c1786ab2338486815181101515610a5157fe5b9060200190602002015160200151886040518463ffffffff1660e060020a0281526004018084600160a060020a0316600160a060020a031681526020018381526020018281526020019350505050602060405180830381600087803b158015610ab957600080fd5b505af1158015610acd573d6000803e3d6000fd5b505050506040513d6020811015610ae357600080fd5b50511515610af057600080fd5b600190920191610a0f565b600160a060020a03808916600090815260208181526040808320938d16835260029093019052206001015460e060020a9081029081161515610b41576000975050610c00565b600160a060020a03891660009081526020818152604080832033845260020190915290206001015460e060020a0219811660e060020a601f021615610b8557600080fd5b604051600160a060020a03808b1691908c169033907f6c6acccb2a8bdecd133efe43bc929b25f75255a88da20af641c9ba4acc0e0e5b90600090a450600160a060020a03808916600090815260208181526040808320938d168352600290930190529081209081556001908101805463ffffffff1916905596505b600092505b8051831015610cf1578083815181101515610c1c57fe5b9060200190602002015160000151600160a060020a0316638043154d338386815181101515610c4757fe5b9060200190602002015160200151886040518463ffffffff1660e060020a0281526004018084600160a060020a0316600160a060020a031681526020018381526020018281526020019350505050602060405180830381600087803b158015610caf57600080fd5b505af1158015610cc3573d6000803e3d6000fd5b505050506040513d6020811015610cd957600080fd5b50511515610ce657600080fd5b600190920191610c05565b50505050505092915050565b600160a060020a0380821660009081526020818152604080832093861683526002909301905220545b92915050565b600160a060020a038116600090815260208181526040808320338452600201909152812060010154829060e060020a027c080000000000000000000000000000000000000000000000000000000090811614610d8757600080fd5b600160a060020a038381166000908152600160205260409020541615610dac57600080fd5b600160a060020a0384161515610dc157600080fd5b600160a060020a038381166000818152600160205260408082208054600160a060020a031916948916948517905580517ff2fde38b000000000000000000000000000000000000000000000000000000008152600481019490945251919263f2fde38b926024808301939282900301818387803b158015610e4157600080fd5b505af1158015610e55573d6000803e3d6000fd5b5050505083600160a060020a031683600160a060020a0316638da5cb5b6040518163ffffffff1660e060020a02815260040160206040518083038186803b158015610e9f57600080fd5b505afa158015610eb3573d6000803e3d6000fd5b505050506040513d6020811015610ec957600080fd5b5051600160a060020a031614610ede57600080fd5b600160a060020a038381166000908152602081815260409182902054825160e060020a638da5cb5b028152925130949190911692638da5cb5b926004808301939192829003018186803b158015610f3457600080fd5b505afa158015610f48573d6000803e3d6000fd5b505050506040513d6020811015610f5e57600080fd5b5051600160a060020a0316141561108f57600160a060020a038084166000908152602081905260408082205481517ff2fde38b0000000000000000000000000000000000000000000000000000000081528885166004820152915193169263f2fde38b9260248084019391929182900301818387803b158015610fe057600080fd5b505af1158015610ff4573d6000803e3d6000fd5b50505050600160a060020a038381166000908152602081815260409182902054825160e060020a638da5cb5b0281529251848916949190911692638da5cb5b926004808301939192829003018186803b15801561105057600080fd5b505afa158015611064573d6000803e3d6000fd5b505050506040513d602081101561107a57600080fd5b5051600160a060020a03161461108f57600080fd5b600160a060020a038381166000908152602081815260409182902060010154825160e060020a638da5cb5b028152925130949190911692638da5cb5b926004808301939192829003018186803b1580156110e857600080fd5b505afa1580156110fc573d6000803e3d6000fd5b505050506040513d602081101561111257600080fd5b5051600160a060020a0316141561124957600160a060020a038084166000908152602081905260408082206001015481517ff2fde38b0000000000000000000000000000000000000000000000000000000081528885166004820152915193169263f2fde38b9260248084019391929182900301818387803b15801561119757600080fd5b505af11580156111ab573d6000803e3d6000fd5b50505050600160a060020a038381166000908152602081815260409182902060010154825160e060020a638da5cb5b0281529251848916949190911692638da5cb5b926004808301939192829003018186803b15801561120a57600080fd5b505afa15801561121e573d6000803e3d6000fd5b505050506040513d602081101561123457600080fd5b5051600160a060020a03161461124957600080fd5b60408051600160a060020a03868116825285166020820152815130927f8206909fdb23a8ad42188f753026bc9082758d85e20dce9bc8c4b34f2ec3db32928290030190a25060019392505050565b600160a060020a038116600090815260208181526040808320338452600201909152812060010154829060e060020a027c0400000000000000000000000000000000000000000000000000000000908116146112f257600080fd5b600084600160a060020a031663e2b0caef6040518163ffffffff1660e060020a028152600401602060405180830381600087803b15801561133257600080fd5b505af1158015611346573d6000803e3d6000fd5b505050506040513d602081101561135c57600080fd5b50519050600081600281111561136e57fe5b14806113855750600281600281111561138357fe5b145b156113965761139485856146c9565b505b60018160028111156113a457fe5b14806113bb575060028160028111156113b957fe5b145b156113cc576113ca8585614896565b505b506001949350505050565b600160205260009081526040902054600160a060020a031681565b600160a060020a038116600090815260208181526040808320338452600201909152812060010154829060e060020a90810281161461143057600080fd5b7f65787465726e616c546f6b656e417070726f76616c0000000000000000000000836000606060008084600160a060020a0316600160a060020a03168152602001908152602001600020600301805480602002602001604051908101604052809291908181526020016000905b828210156114e557600084815260209081902060408051808201909152600285029091018054600160a060020a0316825260019081015482840152908352909201910161149d565b50505050600160a060020a03841660009081526020818152604080832060040180548251818502810185019093528083529495506060949193909284015b8282101561156b57600084815260209081902060408051808201909152600285029091018054600160a060020a03168252600190810154828401529083529092019101611523565b505050509050600092505b815183101561166257818381518110151561158d57fe5b9060200190602002015160000151600160a060020a031663c1786ab23384868151811015156115b857fe5b9060200190602002015160200151886040518463ffffffff1660e060020a0281526004018084600160a060020a0316600160a060020a031681526020018381526020018281526020019350505050602060405180830381600087803b15801561162057600080fd5b505af1158015611634573d6000803e3d6000fd5b505050506040513d602081101561164a57600080fd5b5051151561165757600080fd5b600190920191611576565b604080517fab751f71000000000000000000000000000000000000000000000000000000008152600160a060020a038d811660048301528c81166024830152604482018c90529151918a169163ab751f71916064808201926020929091908290030181600087803b1580156116d657600080fd5b505af11580156116ea573d6000803e3d6000fd5b505050506040513d602081101561170057600080fd5b50519650600092505b80518310156117f557808381518110151561172057fe5b9060200190602002015160000151600160a060020a0316638043154d33838681518110151561174b57fe5b9060200190602002015160200151886040518463ffffffff1660e060020a0281526004018084600160a060020a0316600160a060020a031681526020018381526020018281526020019350505050602060405180830381600087803b1580156117b357600080fd5b505af11580156117c7573d6000803e3d6000fd5b505050506040513d60208110156117dd57600080fd5b505115156117ea57600080fd5b600190920191611709565b505050505050949350505050565b60006020819052908152604090208054600190910154600160a060020a03918216911682565b600160a060020a038116600090815260208181526040808320338452600201909152812060010154829060e060020a90810281161461186757600080fd5b7f73656e6445746865720000000000000000000000000000000000000000000000836000606060008084600160a060020a0316600160a060020a03168152602001908152602001600020600301805480602002602001604051908101604052809291908181526020016000905b8282101561191c57600084815260209081902060408051808201909152600285029091018054600160a060020a031682526001908101548284015290835290920191016118d4565b50505050600160a060020a03841660009081526020818152604080832060040180548251818502810185019093528083529495506060949193909284015b828210156119a257600084815260209081902060408051808201909152600285029091018054600160a060020a0316825260019081015482840152908352909201910161195a565b505050509050600092505b8151831015611a995781838151811015156119c457fe5b9060200190602002015160000151600160a060020a031663c1786ab23384868151811015156119ef57fe5b9060200190602002015160200151886040518463ffffffff1660e060020a0281526004018084600160a060020a0316600160a060020a031681526020018381526020018281526020019350505050602060405180830381600087803b158015611a5757600080fd5b505af1158015611a6b573d6000803e3d6000fd5b505050506040513d6020811015611a8157600080fd5b50511515611a8e57600080fd5b6001909201916119ad565b87600160a060020a031663cb16d4a28b8b6040518363ffffffff1660e060020a0281526004018083815260200182600160a060020a0316600160a060020a0316815260200192505050602060405180830381600087803b158015611afc57600080fd5b505af1158015611b10573d6000803e3d6000fd5b505050506040513d6020811015611b2657600080fd5b50519650600092505b8051831015611c1b578083815181101515611b4657fe5b9060200190602002015160000151600160a060020a0316638043154d338386815181101515611b7157fe5b9060200190602002015160200151886040518463ffffffff1660e060020a0281526004018084600160a060020a0316600160a060020a031681526020018381526020018281526020019350505050602060405180830381600087803b158015611bd957600080fd5b505af1158015611bed573d6000803e3d6000fd5b505050506040513d6020811015611c0357600080fd5b50511515611c1057600080fd5b600190920191611b2f565b5050505050509392505050565b600160a060020a038116600090815260208181526040808320338452600201909152812060010154829060e060020a908102811614611c6657600080fd5b7f6d696e74546f6b656e7300000000000000000000000000000000000000000000836000606060008084600160a060020a0316600160a060020a03168152602001908152602001600020600301805480602002602001604051908101604052809291908181526020016000905b82821015611d1b57600084815260209081902060408051808201909152600285029091018054600160a060020a03168252600190810154828401529083529092019101611cd3565b50505050600160a060020a03841660009081526020818152604080832060040180548251818502810185019093528083529495506060949193909284015b82821015611da157600084815260209081902060408051808201909152600285029091018054600160a060020a03168252600190810154828401529083529092019101611d59565b505050509050600092505b8151831015611e98578183815181101515611dc357fe5b9060200190602002015160000151600160a060020a031663c1786ab2338486815181101515611dee57fe5b9060200190602002015160200151886040518463ffffffff1660e060020a0281526004018084600160a060020a0316600160a060020a031681526020018381526020018281526020019350505050602060405180830381600087803b158015611e5657600080fd5b505af1158015611e6a573d6000803e3d6000fd5b505050506040513d6020811015611e8057600080fd5b50511515611e8d57600080fd5b600190920191611dac565b87600160a060020a031689600160a060020a031633600160a060020a03167f5f31335b49d4d41584177ece651b9e2bb48565b82a1dfbf1b75eec6343215e4c8d6040518082815260200191505060405180910390a460008089600160a060020a0316600160a060020a0316815260200190815260200160002060000160009054906101000a9004600160a060020a0316600160a060020a03166340c10f198a8c6040518363ffffffff1660e060020a0281526004018083600160a060020a0316600160a060020a0316815260200182815260200192505050602060405180830381600087803b158015611f8a57600080fd5b505af1158015611f9e573d6000803e3d6000fd5b505050506040513d6020811015611fb457600080fd5b50519650600092505b8051831015611c1b578083815181101515611fd457fe5b9060200190602002015160000151600160a060020a0316638043154d338386815181101515611fff57fe5b9060200190602002015160200151886040518463ffffffff1660e060020a0281526004018084600160a060020a0316600160a060020a031681526020018381526020018281526020019350505050602060405180830381600087803b15801561206757600080fd5b505af115801561207b573d6000803e3d6000fd5b505050506040513d602081101561209157600080fd5b5051151561209e57600080fd5b600190920191611fbd565b60006120b53383614a55565b15156120c357506000612129565b600160a060020a038216600081815260208181526040808320338085526002909101909252808320838155600101805463ffffffff1916905551909182917f6c6acccb2a8bdecd133efe43bc929b25f75255a88da20af641c9ba4acc0e0e5b9190a45060015b919050565b600160a060020a038116600090815260208181526040808320338452600201909152812060010154829060e060020a90810281161461216c57600080fd5b7f6275726e52657075746174696f6e000000000000000000000000000000000000836000606060008084600160a060020a0316600160a060020a03168152602001908152602001600020600301805480602002602001604051908101604052809291908181526020016000905b8282101561222157600084815260209081902060408051808201909152600285029091018054600160a060020a031682526001908101548284015290835290920191016121d9565b50505050600160a060020a03841660009081526020818152604080832060040180548251818502810185019093528083529495506060949193909284015b828210156122a757600084815260209081902060408051808201909152600285029091018054600160a060020a0316825260019081015482840152908352909201910161225f565b505050509050600092505b815183101561239e5781838151811015156122c957fe5b9060200190602002015160000151600160a060020a031663c1786ab23384868151811015156122f457fe5b9060200190602002015160200151886040518463ffffffff1660e060020a0281526004018084600160a060020a0316600160a060020a031681526020018381526020018281526020019350505050602060405180830381600087803b15801561235c57600080fd5b505af1158015612370573d6000803e3d6000fd5b505050506040513d602081101561238657600080fd5b5051151561239357600080fd5b6001909201916122b2565b87600160a060020a031689600160a060020a031633600160a060020a03167fc9d509efc43bbd833bfbc3d7031bf2c4b4a7c30c53ba374bc9d5ec44661dbf878d6040518082815260200191505060405180910390a460008089600160a060020a0316600160a060020a0316815260200190815260200160002060010160009054906101000a9004600160a060020a0316600160a060020a0316639dc29fac8a8c6040518363ffffffff1660e060020a0281526004018083600160a060020a0316600160a060020a0316815260200182815260200192505050602060405180830381600087803b15801561249057600080fd5b505af11580156124a4573d6000803e3d6000fd5b505050506040513d60208110156124ba57600080fd5b50519650600092505b8051831015611c1b5780838151811015156124da57fe5b9060200190602002015160000151600160a060020a0316638043154d33838681518110151561250557fe5b9060200190602002015160200151886040518463ffffffff1660e060020a0281526004018084600160a060020a0316600160a060020a031681526020018381526020018281526020019350505050602060405180830381600087803b15801561256d57600080fd5b505af1158015612581573d6000803e3d6000fd5b505050506040513d602081101561259757600080fd5b505115156125a457600080fd5b6001909201916124c3565b600160a060020a0316600090815260208190526040902060038101546004909101549091565b600160a060020a039081166000908152602081905260409020600101541690565b600160a060020a03808216600090815260208181526040808320938616835260029093019052206001015460e060020a0292915050565b60006126398383614a55565b9392505050565b600160a060020a03811660009081526002602052604090205460ff161561266657600080fd5b600160a060020a038116600081815260026020908152604091829020805460ff19166001179055815160e060020a638da5cb5b0281529151309392638da5cb5b926004808301939192829003018186803b1580156126c357600080fd5b505afa1580156126d7573d6000803e3d6000fd5b505050506040513d60208110156126ed57600080fd5b5051600160a060020a03161461270257600080fd5b600081600160a060020a031663e1758bd86040518163ffffffff1660e060020a02815260040160206040518083038186803b15801561274057600080fd5b505afa158015612754573d6000803e3d6000fd5b505050506040513d602081101561276a57600080fd5b5051604080517f89ae1c900000000000000000000000000000000000000000000000000000000081529051919250600091600160a060020a038516916389ae1c90916004808301926020929190829003018186803b1580156127cb57600080fd5b505afa1580156127df573d6000803e3d6000fd5b505050506040513d60208110156127f557600080fd5b50516040805160e060020a638da5cb5b02815290519192503091600160a060020a03851691638da5cb5b916004808301926020929190829003018186803b15801561283f57600080fd5b505afa158015612853573d6000803e3d6000fd5b505050506040513d602081101561286957600080fd5b5051600160a060020a03161461287e57600080fd5b30600160a060020a031681600160a060020a0316638da5cb5b6040518163ffffffff1660e060020a02815260040160206040518083038186803b1580156128c457600080fd5b505afa1580156128d8573d6000803e3d6000fd5b505050506040513d60208110156128ee57600080fd5b5051600160a060020a03161461290357600080fd5b600160a060020a03811660009081526002602052604090205460ff161561292957600080fd5b600160a060020a03808216600090815260026020526040808220805460ff191660011790559184168152205460ff161561296257600080fd5b600160a060020a0382811660008181526002602081815260408084208054600160ff1990911681179091558987168086528584528286208054600160a060020a031990811690981781558083018054909816988a16989098179096558151808301835285815260e060020a601f02818501908152338088529890950190935281852092518355925191909201805463ffffffff191660e060020a9092049190911790555191929182917f521230fe5fa463e77907aa7d9653b8cf93661e82561e966af8aa0a99910554c191a4505050565b600160a060020a038116600090815260208181526040808320338452600201909152812060010154829060e060020a908102811614612a7157600080fd5b7f65787465726e616c546f6b656e5472616e736665720000000000000000000000836000606060008084600160a060020a0316600160a060020a03168152602001908152602001600020600301805480602002602001604051908101604052809291908181526020016000905b82821015612b2657600084815260209081902060408051808201909152600285029091018054600160a060020a03168252600190810154828401529083529092019101612ade565b50505050600160a060020a03841660009081526020818152604080832060040180548251818502810185019093528083529495506060949193909284015b82821015612bac57600084815260209081902060408051808201909152600285029091018054600160a060020a03168252600190810154828401529083529092019101612b64565b505050509050600092505b8151831015612ca3578183815181101515612bce57fe5b9060200190602002015160000151600160a060020a031663c1786ab2338486815181101515612bf957fe5b9060200190602002015160200151886040518463ffffffff1660e060020a0281526004018084600160a060020a0316600160a060020a031681526020018381526020018281526020019350505050602060405180830381600087803b158015612c6157600080fd5b505af1158015612c75573d6000803e3d6000fd5b505050506040513d6020811015612c8b57600080fd5b50511515612c9857600080fd5b600190920191612bb7565b604080517fdab0efff000000000000000000000000000000000000000000000000000000008152600160a060020a038d811660048301528c81166024830152604482018c90529151918a169163dab0efff916064808201926020929091908290030181600087803b158015612d1757600080fd5b505af1158015612d2b573d6000803e3d6000fd5b505050506040513d6020811015612d4157600080fd5b50519650600092505b80518310156117f5578083815181101515612d6157fe5b9060200190602002015160000151600160a060020a0316638043154d338386815181101515612d8c57fe5b9060200190602002015160200151886040518463ffffffff1660e060020a0281526004018084600160a060020a0316600160a060020a031681526020018381526020018281526020019350505050602060405180830381600087803b158015612df457600080fd5b505af1158015612e08573d6000803e3d6000fd5b505050506040513d6020811015612e1e57600080fd5b50511515612e2b57600080fd5b600190920191612d4a565b600160a060020a038116600090815260208181526040808320338452600201909152812060010154829060e060020a027c100000000000000000000000000000000000000000000000000000000090811614612e9157600080fd5b6040517f890ac46c00000000000000000000000000000000000000000000000000000000815260206004820190815260248201869052600160a060020a0385169163890ac46c9188918891908190604401848480828437600081840152601f19601f8201169050808301925050509350505050602060405180830381600087803b158015612f1e57600080fd5b505af1158015612f32573d6000803e3d6000fd5b505050506040513d6020811015612f4857600080fd5b505195945050505050565b600160a060020a038216600090815260208181526040808320338452600201909152812060010154606090849060e060020a027c100000000000000000000000000000000000000000000000000000000090811614612fb157600080fd5b7f67656e6572696343616c6c000000000000000000000000000000000000000000856000606060008084600160a060020a0316600160a060020a03168152602001908152602001600020600301805480602002602001604051908101604052809291908181526020016000905b8282101561306657600084815260209081902060408051808201909152600285029091018054600160a060020a0316825260019081015482840152908352909201910161301e565b50505050600160a060020a03841660009081526020818152604080832060040180548251818502810185019093528083529495506060949193909284015b828210156130ec57600084815260209081902060408051808201909152600285029091018054600160a060020a031682526001908101548284015290835290920191016130a4565b505050509050600092505b81518310156131e357818381518110151561310e57fe5b9060200190602002015160000151600160a060020a031663c1786ab233848681518110151561313957fe5b9060200190602002015160200151886040518463ffffffff1660e060020a0281526004018084600160a060020a0316600160a060020a031681526020018381526020018281526020019350505050602060405180830381600087803b1580156131a157600080fd5b505af11580156131b5573d6000803e3d6000fd5b505050506040513d60208110156131cb57600080fd5b505115156131d857600080fd5b6001909201916130f7565b89600160a060020a0316632bf164588e8e8e8d6040518563ffffffff1660e060020a0281526004018085600160a060020a0316600160a060020a03168152602001806020018381526020018281038252858582818152602001925080828437600081840152601f19601f82011690508083019250505095505050505050600060405180830381600087803b15801561327a57600080fd5b505af115801561328e573d6000803e3d6000fd5b505050506040513d6000823e601f3d908101601f1916820160409081528110156132b757600080fd5b8151602083018051919392830192916401000000008111156132d857600080fd5b820160208101848111156132eb57600080fd5b815164010000000081118282018710171561330557600080fd5b50949c509a5050505050600092505b805183101561340057808381518110151561332b57fe5b9060200190602002015160000151600160a060020a0316638043154d33838681518110151561335657fe5b9060200190602002015160200151886040518463ffffffff1660e060020a0281526004018084600160a060020a0316600160a060020a031681526020018381526020018281526020019350505050602060405180830381600087803b1580156133be57600080fd5b505af11580156133d2573d6000803e3d6000fd5b505050506040513d60208110156133e857600080fd5b505115156133f557600080fd5b600190920191613314565b5050505050509550959350505050565b600160a060020a0381166000908152602081905260408120613430614a91565b50600160a060020a03841660009081526005820160209081526040918290208251808401909352805460ff161580158452600190910154918301919091526134a25781600301816020015181548110151561348757fe5b90600052602060002090600202016001015492505050610d26565b50600160a060020a03841660009081526006820160209081526040918290208251808401909352805460ff161580158452600190910154918301919091526134f95781600401816020015181548110151561348757fe5b505092915050565b600160a060020a038116600090815260208181526040808320338452600201909152812060010154829060e060020a027c04000000000000000000000000000000000000000000000000000000009081161461355c57600080fd5b600160a060020a0380841660009081526020818152604080832081517fe2b0caef000000000000000000000000000000000000000000000000000000008152915190948a169263e2b0caef926004808201939182900301818787803b1580156135c457600080fd5b505af11580156135d8573d6000803e3d6000fd5b505050506040513d60208110156135ee57600080fd5b50519050600081600281111561360057fe5b14806136175750600281600281111561361557fe5b145b1561371e57600160a060020a038716600090815260058301602052604090205460ff1615156136d957604080518082018252600160a060020a0389811680835260208084018b8152600388018054600180820183556000838152858120985160029093029098018054600160a060020a031916929097169190911786559151948201949094558551808701875281815293546000190184830190815292855260058801909152939092209051815460ff1916901515178155905191015561371e565b600160a060020a0387166000908152600583016020526040902060010154600383018054889290811061370857fe5b9060005260206000209060020201600101819055505b600181600281111561372c57fe5b14806137435750600281600281111561374157fe5b145b1561384a57600160a060020a038716600090815260068301602052604090205460ff16151561380557604080518082018252600160a060020a0389811680835260208084018b8152600488018054600180820183556000838152858120985160029093029098018054600160a060020a031916929097169190911786559151948201949094558551808701875281815293546000190184830190815292855260068801909152939092209051815460ff1916901515178155905191015561384a565b600160a060020a0387166000908152600683016020526040902060010154600483018054889290811061383457fe5b9060005260206000209060020201600101819055505b84600160a060020a031687600160a060020a03167ffc47a21fc3b2a989787e5778a52ac976fa54ccfecf6fda51089ffa95b699b90a88846040518083815260200182600281111561389757fe5b60ff1681526020019250505060405180910390a35060019695505050505050565b600160a060020a038116600090815260208181526040808320338452600201909152812060010154829060e060020a027c02000000000000000000000000000000000000000000000000000000009081161461391357600080fd5b7f7265676973746572536368656d65000000000000000000000000000000000000836000606060008084600160a060020a0316600160a060020a03168152602001908152602001600020600301805480602002602001604051908101604052809291908181526020016000905b828210156139c857600084815260209081902060408051808201909152600285029091018054600160a060020a03168252600190810154828401529083529092019101613980565b50505050600160a060020a03841660009081526020818152604080832060040180548251818502810185019093528083529495506060949193909284015b82821015613a4e57600084815260209081902060408051808201909152600285029091018054600160a060020a03168252600190810154828401529083529092019101613a06565b505050509050600092505b8151831015613b45578183815181101515613a7057fe5b9060200190602002015160000151600160a060020a031663c1786ab2338486815181101515613a9b57fe5b9060200190602002015160200151886040518463ffffffff1660e060020a0281526004018084600160a060020a0316600160a060020a031681526020018381526020018281526020019350505050602060405180830381600087803b158015613b0357600080fd5b505af1158015613b17573d6000803e3d6000fd5b505050506040513d6020811015613b2d57600080fd5b50511515613b3a57600080fd5b600190920191613a59565b600160a060020a03888116600090815260208181526040808320938f1683526002909301905281812060019081015433835292909120015460e060020a918202910260e060020a601f0281198c8418161615613ba057600080fd5b60e060020a601f02811983161615613bb757600080fd5b60408051908101604052808d8152602001600160e060020a028d177bffffffffffffffffffffffffffffffffffffffffffffffffffffffff19168152506000808c600160a060020a0316600160a060020a0316815260200190815260200160002060020160008f600160a060020a0316600160a060020a031681526020019081526020016000206000820151816000015560208201518160010160006101000a81548163ffffffff021916908360e060020a9004021790555090505089600160a060020a03168d600160a060020a031633600160a060020a03167f521230fe5fa463e77907aa7d9653b8cf93661e82561e966af8aa0a99910554c160405160405180910390a4600198505050600092505b80518310156117f5578083815181101515613cdf57fe5b9060200190602002015160000151600160a060020a0316638043154d338386815181101515613d0a57fe5b9060200190602002015160200151886040518463ffffffff1660e060020a0281526004018084600160a060020a0316600160a060020a031681526020018381526020018281526020019350505050602060405180830381600087803b158015613d7257600080fd5b505af1158015613d86573d6000803e3d6000fd5b505050506040513d6020811015613d9c57600080fd5b50511515613da957600080fd5b600190920191613cc8565b60026020526000908152604090205460ff1681565b600160a060020a038116600090815260208181526040808320338452600201909152812060010154829060e060020a908102811614613e0757600080fd5b7f6d696e7452657075746174696f6e000000000000000000000000000000000000836000606060008084600160a060020a0316600160a060020a03168152602001908152602001600020600301805480602002602001604051908101604052809291908181526020016000905b82821015613ebc57600084815260209081902060408051808201909152600285029091018054600160a060020a03168252600190810154828401529083529092019101613e74565b50505050600160a060020a03841660009081526020818152604080832060040180548251818502810185019093528083529495506060949193909284015b82821015613f4257600084815260209081902060408051808201909152600285029091018054600160a060020a03168252600190810154828401529083529092019101613efa565b505050509050600092505b8151831015614039578183815181101515613f6457fe5b9060200190602002015160000151600160a060020a031663c1786ab2338486815181101515613f8f57fe5b9060200190602002015160200151886040518463ffffffff1660e060020a0281526004018084600160a060020a0316600160a060020a031681526020018381526020018281526020019350505050602060405180830381600087803b158015613ff757600080fd5b505af115801561400b573d6000803e3d6000fd5b505050506040513d602081101561402157600080fd5b5051151561402e57600080fd5b600190920191613f4d565b87600160a060020a031689600160a060020a031633600160a060020a03167feb0f295d539be95eb3777b524f7bff44ed3505db2e2795382482bb1a9cd1dae08d6040518082815260200191505060405180910390a460008089600160a060020a0316600160a060020a0316815260200190815260200160002060010160009054906101000a9004600160a060020a0316600160a060020a03166340c10f198a8c6040518363ffffffff1660e060020a0281526004018083600160a060020a0316600160a060020a0316815260200182815260200192505050602060405180830381600087803b15801561412b57600080fd5b505af115801561413f573d6000803e3d6000fd5b505050506040513d602081101561415557600080fd5b50519650600092505b8051831015611c1b57808381518110151561417557fe5b9060200190602002015160000151600160a060020a0316638043154d3383868151811015156141a057fe5b9060200190602002015160200151886040518463ffffffff1660e060020a0281526004018084600160a060020a0316600160a060020a031681526020018381526020018281526020019350505050602060405180830381600087803b15801561420857600080fd5b505af115801561421c573d6000803e3d6000fd5b505050506040513d602081101561423257600080fd5b5051151561423f57600080fd5b60019092019161415e565b600160a060020a038082166000908152602081815260408083209386168352600590930190529081205460ff1680612639575050600160a060020a03908116600090815260208181526040808320949093168252600690930190925290205460ff1690565b600160a060020a038116600090815260208181526040808320338452600201909152812060010154829060e060020a9081028116146142ed57600080fd5b7f65787465726e616c546f6b656e5472616e7366657246726f6d00000000000000836000606060008084600160a060020a0316600160a060020a03168152602001908152602001600020600301805480602002602001604051908101604052809291908181526020016000905b828210156143a257600084815260209081902060408051808201909152600285029091018054600160a060020a0316825260019081015482840152908352909201910161435a565b50505050600160a060020a03841660009081526020818152604080832060040180548251818502810185019093528083529495506060949193909284015b8282101561442857600084815260209081902060408051808201909152600285029091018054600160a060020a031682526001908101548284015290835290920191016143e0565b505050509050600092505b815183101561451f57818381518110151561444a57fe5b9060200190602002015160000151600160a060020a031663c1786ab233848681518110151561447557fe5b9060200190602002015160200151886040518463ffffffff1660e060020a0281526004018084600160a060020a0316600160a060020a031681526020018381526020018281526020019350505050602060405180830381600087803b1580156144dd57600080fd5b505af11580156144f1573d6000803e3d6000fd5b505050506040513d602081101561450757600080fd5b5051151561451457600080fd5b600190920191614433565b604080517fb756d5a2000000000000000000000000000000000000000000000000000000008152600160a060020a038e811660048301528d811660248301528c81166044830152606482018c90529151918a169163b756d5a2916084808201926020929091908290030181600087803b15801561459b57600080fd5b505af11580156145af573d6000803e3d6000fd5b505050506040513d60208110156145c557600080fd5b50519650600092505b80518310156146ba5780838151811015156145e557fe5b9060200190602002015160000151600160a060020a0316638043154d33838681518110151561461057fe5b9060200190602002015160200151886040518463ffffffff1660e060020a0281526004018084600160a060020a0316600160a060020a031681526020018381526020018281526020019350505050602060405180830381600087803b15801561467857600080fd5b505af115801561468c573d6000803e3d6000fd5b505050506040513d60208110156146a257600080fd5b505115156146af57600080fd5b6001909201916145ce565b50505050505095945050505050565b60006146d3614a91565b50600160a060020a0380831660008181526020818152604080832094881683526005850182528083208151808301909252805460ff161515825260010154818301529282525280519091600301901561488b576001818054905003826020015110156147f457614741614a91565b81548290600019810190811061475357fe5b6000918252602091829020604080518082019091526002909202018054600160a060020a0316825260010154818301529084015183549192508291849190811061479957fe5b600091825260208083208451600293909302018054600160a060020a031916600160a060020a039384161781559381015160019485015586810151898316845283825260408085209651909316845260059095019052902001555b8054614804826000198301614aa8565b50600160a060020a03808516600081815260208181526040808320948a1680845260059095018252808320805460ff191681556001908101939093558682015181519081529182019290925281519293927f16e52dc226f9b9f6729d31340ecff10d85e6f9c0a8f21b07ec74a2c58c485a22929181900390910190a3600192505050610d26565b506000949350505050565b60006148a0614a91565b50600160a060020a0380831660008181526020818152604080832094881683526006850182528083208151808301909252805460ff161515825260010154818301529282525280519091600401901561488b576001818054905003826020015110156149c15761490e614a91565b81548290600019810190811061492057fe5b6000918252602091829020604080518082019091526002909202018054600160a060020a0316825260010154818301529084015183549192508291849190811061496657fe5b600091825260208083208451600293909302018054600160a060020a031916600160a060020a039384161781559381015160019485015586810151898316845283825260408085209651909316845260069095019052902001555b80546149d1826000198301614aa8565b50600160a060020a03808516600081815260208181526040808320948a1680845260069095018252808320805460ff191681556001018390558682015181519081529182019290925281519293927f16e52dc226f9b9f6729d31340ecff10d85e6f9c0a8f21b07ec74a2c58c485a22929181900390910190a3600192505050610d26565b600160a060020a03808216600090815260208181526040808320938616835260029093019052206001015460e060020a90810216151592915050565b604080518082019091526000808252602082015290565b815481835581811115614ad457600202816002028360005260206000209182019101614ad49190614ad9565b505050565b614b0891905b80821115614b04578054600160a060020a031916815560006001820155600201614adf565b5090565b9056fea165627a7a723058205116e725217fd50b0c665bb05d968ee66127e06458952c4a0bbfcc08e2cd3ce10029",
  "source": "pragma solidity ^0.5.4;\n\nimport \"./Avatar.sol\";\nimport \"../globalConstraints/GlobalConstraintInterface.sol\";\nimport \"./ControllerInterface.sol\";\n\n\n/**\n * @title Universal Controller contract\n * @dev A universal controller hold organizations and controls their tokens ,reputations\n *       and avatar.\n * It is subject to a set of schemes and constraints that determine its behavior.\n * Each scheme has it own parameters and operation permissions.\n */\ncontract UController is ControllerInterface {\n\n    struct Scheme {\n        bytes32 paramsHash;  // a hash \"configuration\" of the scheme\n        bytes4  permissions; // A bitwise flags of permissions,\n                            // All 0: Not registered,\n                            // 1st bit: Flag if the scheme is registered,\n                            // 2nd bit: Scheme can register other schemes\n                            // 3th bit: Scheme can add/remove global constraints\n                            // 4rd bit: Scheme can upgrade the controller\n                            // 5th bit: Scheme can call delegatecall\n    }\n\n    struct GlobalConstraint {\n        address gcAddress;\n        bytes32 params;\n    }\n\n    struct GlobalConstraintRegister {\n        bool isRegistered; //is registered\n        uint256 index;    //index at globalConstraints\n    }\n\n    struct Organization {\n        DAOToken                  nativeToken;\n        Reputation                nativeReputation;\n        mapping(address=>Scheme)  schemes;\n      // globalConstraintsPre that determine pre- conditions for all actions on the controller\n        GlobalConstraint[] globalConstraintsPre;\n        // globalConstraintsPost that determine post-conditions for all actions on the controller\n        GlobalConstraint[] globalConstraintsPost;\n      // globalConstraintsRegisterPre indicate if a globalConstraints is registered as a Pre global constraint.\n        mapping(address=>GlobalConstraintRegister) globalConstraintsRegisterPre;\n      // globalConstraintsRegisterPost indicate if a globalConstraints is registered as a Post global constraint.\n        mapping(address=>GlobalConstraintRegister) globalConstraintsRegisterPost;\n    }\n\n    //mapping between organization's avatar address to Organization\n    mapping(address=>Organization) public organizations;\n    // newController will point to the new controller after the present controller is upgraded\n    //  address external newController;\n    mapping(address=>address) public newControllers;//mapping between avatar address and newController address\n    //mapping for all reputation system and tokens addresses registered.\n    mapping(address=>bool) public actors;\n\n    event MintReputation (address indexed _sender, address indexed _to, uint256 _amount, address indexed _avatar);\n    event BurnReputation (address indexed _sender, address indexed _from, uint256 _amount, address indexed _avatar);\n    event MintTokens (address indexed _sender, address indexed _beneficiary, uint256 _amount, address indexed _avatar);\n    event RegisterScheme (address indexed _sender, address indexed _scheme, address indexed _avatar);\n    event UnregisterScheme (address indexed _sender, address indexed _scheme, address indexed _avatar);\n    event UpgradeController(address indexed _oldController, address _newController, address _avatar);\n\n    event AddGlobalConstraint(\n        address indexed _globalConstraint,\n        bytes32 _params,\n        GlobalConstraintInterface.CallPhase _when,\n        address indexed _avatar\n    );\n\n    event RemoveGlobalConstraint(\n        address indexed _globalConstraint,\n        uint256 _index,\n        bool _isPre,\n        address indexed _avatar\n    );\n\n   /**\n    * @dev newOrganization set up a new organization with default daoCreator.\n    * @param _avatar the organization avatar\n    */\n    function newOrganization(\n        Avatar _avatar\n    ) external\n    {\n        require(!actors[address(_avatar)]);\n        actors[address(_avatar)] = true;\n        require(_avatar.owner() == address(this));\n        DAOToken nativeToken = _avatar.nativeToken();\n        Reputation nativeReputation = _avatar.nativeReputation();\n        require(nativeToken.owner() == address(this));\n        require(nativeReputation.owner() == address(this));\n        //To guaranty uniqueness for the reputation systems.\n        require(!actors[address(nativeReputation)]);\n        actors[address(nativeReputation)] = true;\n        //To guaranty uniqueness for the nativeToken.\n        require(!actors[address(nativeToken)]);\n        actors[address(nativeToken)] = true;\n        organizations[address(_avatar)].nativeToken = nativeToken;\n        organizations[address(_avatar)].nativeReputation = nativeReputation;\n        organizations[address(_avatar)].schemes[msg.sender] =\n        Scheme({paramsHash: bytes32(0), permissions: bytes4(0x0000001f)});\n        emit RegisterScheme(msg.sender, msg.sender, address(_avatar));\n    }\n\n  // Modifiers:\n    modifier onlyRegisteredScheme(address avatar) {\n        require(organizations[avatar].schemes[msg.sender].permissions&bytes4(0x00000001) == bytes4(0x00000001));\n        _;\n    }\n\n    modifier onlyRegisteringSchemes(address avatar) {\n        require(organizations[avatar].schemes[msg.sender].permissions&bytes4(0x00000002) == bytes4(0x00000002));\n        _;\n    }\n\n    modifier onlyGlobalConstraintsScheme(address avatar) {\n        require(organizations[avatar].schemes[msg.sender].permissions&bytes4(0x00000004) == bytes4(0x00000004));\n        _;\n    }\n\n    modifier onlyUpgradingScheme(address _avatar) {\n        require(organizations[_avatar].schemes[msg.sender].permissions&bytes4(0x00000008) == bytes4(0x00000008));\n        _;\n    }\n\n    modifier onlyGenericCallScheme(address _avatar) {\n        require(organizations[_avatar].schemes[msg.sender].permissions&bytes4(0x00000010) == bytes4(0x00000010));\n        _;\n    }\n\n    modifier onlyMetaDataScheme(address _avatar) {\n        require(organizations[_avatar].schemes[msg.sender].permissions&bytes4(0x00000010) == bytes4(0x00000010));\n        _;\n    }\n\n    modifier onlySubjectToConstraint(bytes32 func, address _avatar) {\n        uint256 idx;\n        GlobalConstraint[] memory globalConstraintsPre = organizations[_avatar].globalConstraintsPre;\n        GlobalConstraint[] memory globalConstraintsPost = organizations[_avatar].globalConstraintsPost;\n        for (idx = 0; idx < globalConstraintsPre.length; idx++) {\n            require(\n            (GlobalConstraintInterface(globalConstraintsPre[idx].gcAddress))\n            .pre(msg.sender, globalConstraintsPre[idx].params, func));\n        }\n        _;\n        for (idx = 0; idx < globalConstraintsPost.length; idx++) {\n            require(\n            (GlobalConstraintInterface(globalConstraintsPost[idx].gcAddress))\n            .post(msg.sender, globalConstraintsPost[idx].params, func));\n        }\n    }\n\n    /**\n     * @dev Mint `_amount` of reputation that are assigned to `_to` .\n     * @param  _amount amount of reputation to mint\n     * @param _to beneficiary address\n     * @param _avatar the address of the organization's avatar\n     * @return bool which represents a success\n     */\n    function mintReputation(uint256 _amount, address _to, address _avatar)\n    external\n    onlyRegisteredScheme(_avatar)\n    onlySubjectToConstraint(\"mintReputation\", _avatar)\n    returns(bool)\n    {\n        emit MintReputation(msg.sender, _to, _amount, _avatar);\n        return organizations[_avatar].nativeReputation.mint(_to, _amount);\n    }\n\n    /**\n     * @dev Burns `_amount` of reputation from `_from`\n     * @param _amount amount of reputation to burn\n     * @param _from The address that will lose the reputation\n     * @return bool which represents a success\n     */\n    function burnReputation(uint256 _amount, address _from, address _avatar)\n    external\n    onlyRegisteredScheme(_avatar)\n    onlySubjectToConstraint(\"burnReputation\", _avatar)\n    returns(bool)\n    {\n        emit BurnReputation(msg.sender, _from, _amount, _avatar);\n        return organizations[_avatar].nativeReputation.burn(_from, _amount);\n    }\n\n    /**\n     * @dev mint tokens .\n     * @param  _amount amount of token to mint\n     * @param _beneficiary beneficiary address\n     * @param _avatar the organization avatar.\n     * @return bool which represents a success\n     */\n    function mintTokens(uint256 _amount, address _beneficiary, address _avatar)\n    external\n    onlyRegisteredScheme(_avatar)\n    onlySubjectToConstraint(\"mintTokens\", _avatar)\n    returns(bool)\n    {\n        emit MintTokens(msg.sender, _beneficiary, _amount, _avatar);\n        return organizations[_avatar].nativeToken.mint(_beneficiary, _amount);\n    }\n\n  /**\n   * @dev register or update a scheme\n   * @param _scheme the address of the scheme\n   * @param _paramsHash a hashed configuration of the usage of the scheme\n   * @param _permissions the permissions the new scheme will have\n   * @param _avatar the organization avatar.\n   * @return bool which represents a success\n   */\n    function registerScheme(address _scheme, bytes32 _paramsHash, bytes4 _permissions, address _avatar)\n    external\n    onlyRegisteringSchemes(_avatar)\n    onlySubjectToConstraint(\"registerScheme\", _avatar)\n    returns(bool)\n    {\n        bytes4 schemePermission = organizations[_avatar].schemes[_scheme].permissions;\n        bytes4 senderPermission = organizations[_avatar].schemes[msg.sender].permissions;\n    // Check scheme has at least the permissions it is changing, and at least the current permissions:\n    // Implementation is a bit messy. One must recall logic-circuits ^^\n\n    // produces non-zero if sender does not have all of the perms that are changing between old and new\n        require(bytes4(0x0000001f)&(_permissions^schemePermission)&(~senderPermission) == bytes4(0));\n\n    // produces non-zero if sender does not have all of the perms in the old scheme\n        require(bytes4(0x0000001f)&(schemePermission&(~senderPermission)) == bytes4(0));\n\n    // Add or change the scheme:\n        organizations[_avatar].schemes[_scheme] =\n        Scheme({paramsHash:_paramsHash, permissions:_permissions|bytes4(0x00000001)});\n        emit RegisterScheme(msg.sender, _scheme, _avatar);\n        return true;\n    }\n\n    /**\n     * @dev unregister a scheme\n     * @param _scheme the address of the scheme\n     * @param _avatar the organization avatar.\n     * @return bool which represents a success\n     */\n    function unregisterScheme(address _scheme, address _avatar)\n    external\n    onlyRegisteringSchemes(_avatar)\n    onlySubjectToConstraint(\"unregisterScheme\", _avatar)\n    returns(bool)\n    {\n        bytes4 schemePermission = organizations[_avatar].schemes[_scheme].permissions;\n    //check if the scheme is registered\n        if (schemePermission&bytes4(0x00000001) == bytes4(0)) {\n            return false;\n        }\n    // Check the unregistering scheme has enough permissions:\n        require(\n        bytes4(0x0000001f)&(schemePermission&(~organizations[_avatar].schemes[msg.sender].permissions)) == bytes4(0));\n\n    // Unregister:\n        emit UnregisterScheme(msg.sender, _scheme, _avatar);\n        delete organizations[_avatar].schemes[_scheme];\n        return true;\n    }\n\n    /**\n     * @dev unregister the caller's scheme\n     * @param _avatar the organization avatar.\n     * @return bool which represents a success\n     */\n    function unregisterSelf(address _avatar) external returns(bool) {\n        if (_isSchemeRegistered(msg.sender, _avatar) == false) {\n            return false;\n        }\n        delete organizations[_avatar].schemes[msg.sender];\n        emit UnregisterScheme(msg.sender, msg.sender, _avatar);\n        return true;\n    }\n\n    /**\n     * @dev add or update Global Constraint\n     * @param _globalConstraint the address of the global constraint to be added.\n     * @param _params the constraint parameters hash.\n     * @param _avatar the avatar of the organization\n     * @return bool which represents a success\n     */\n    function addGlobalConstraint(address _globalConstraint, bytes32 _params, address _avatar)\n    external onlyGlobalConstraintsScheme(_avatar) returns(bool)\n    {\n        Organization storage organization = organizations[_avatar];\n        GlobalConstraintInterface.CallPhase when = GlobalConstraintInterface(_globalConstraint).when();\n        if ((when == GlobalConstraintInterface.CallPhase.Pre)||\n            (when == GlobalConstraintInterface.CallPhase.PreAndPost)) {\n            if (!organization.globalConstraintsRegisterPre[_globalConstraint].isRegistered) {\n                organization.globalConstraintsPre.push(GlobalConstraint(_globalConstraint, _params));\n                organization.globalConstraintsRegisterPre[_globalConstraint] =\n                GlobalConstraintRegister(true, organization.globalConstraintsPre.length-1);\n            }else {\n                organization\n                .globalConstraintsPre[organization.globalConstraintsRegisterPre[_globalConstraint].index]\n                .params = _params;\n            }\n        }\n\n        if ((when == GlobalConstraintInterface.CallPhase.Post)||\n            (when == GlobalConstraintInterface.CallPhase.PreAndPost)) {\n            if (!organization.globalConstraintsRegisterPost[_globalConstraint].isRegistered) {\n                organization.globalConstraintsPost.push(GlobalConstraint(_globalConstraint, _params));\n                organization.globalConstraintsRegisterPost[_globalConstraint] =\n                GlobalConstraintRegister(true, organization.globalConstraintsPost.length-1);\n            } else {\n                organization\n                .globalConstraintsPost[organization.globalConstraintsRegisterPost[_globalConstraint].index]\n                .params = _params;\n            }\n        }\n        emit AddGlobalConstraint(_globalConstraint, _params, when, _avatar);\n        return true;\n    }\n\n    /**\n     * @dev remove Global Constraint\n     * @param _globalConstraint the address of the global constraint to be remove.\n     * @param _avatar the organization avatar.\n     * @return bool which represents a success\n     */\n    function removeGlobalConstraint (address _globalConstraint, address _avatar)\n    external onlyGlobalConstraintsScheme(_avatar) returns(bool)\n    {\n        GlobalConstraintInterface.CallPhase when = GlobalConstraintInterface(_globalConstraint).when();\n        if ((when == GlobalConstraintInterface.CallPhase.Pre)||\n            (when == GlobalConstraintInterface.CallPhase.PreAndPost)) {\n            removeGlobalConstraintPre(_globalConstraint, _avatar);\n        }\n        if ((when == GlobalConstraintInterface.CallPhase.Post)||\n            (when == GlobalConstraintInterface.CallPhase.PreAndPost)) {\n            removeGlobalConstraintPost(_globalConstraint, _avatar);\n        }\n        return true;\n    }\n\n  /**\n    * @dev upgrade the Controller\n    *      The function will trigger an event 'UpgradeController'.\n    * @param  _newController the address of the new controller.\n    * @param _avatar the organization avatar.\n    * @return bool which represents a success\n    */\n    function upgradeController(address _newController, Avatar _avatar)\n    external onlyUpgradingScheme(address(_avatar)) returns(bool)\n    {\n        require(newControllers[address(_avatar)] == address(0));   // so the upgrade could be done once for a contract.\n        require(_newController != address(0));\n        newControllers[address(_avatar)] = _newController;\n        _avatar.transferOwnership(_newController);\n        require(_avatar.owner() == _newController);\n        if (organizations[address(_avatar)].nativeToken.owner() == address(this)) {\n            organizations[address(_avatar)].nativeToken.transferOwnership(_newController);\n            require(organizations[address(_avatar)].nativeToken.owner() == _newController);\n        }\n        if (organizations[address(_avatar)].nativeReputation.owner() == address(this)) {\n            organizations[address(_avatar)].nativeReputation.transferOwnership(_newController);\n            require(organizations[address(_avatar)].nativeReputation.owner() == _newController);\n        }\n        emit UpgradeController(address(this), _newController, address(_avatar));\n        return true;\n    }\n\n    /**\n    * @dev perform a generic call to an arbitrary contract\n    * @param _contract  the contract's address to call\n    * @param _data ABI-encoded contract call to call `_contract` address.\n    * @param _avatar the controller's avatar address\n    * @param _value value (ETH) to transfer with the transaction\n    * @return bool -success\n    *         bytes  - the return value of the called _contract's function.\n    */\n    function genericCall(address _contract, bytes calldata _data, Avatar _avatar, uint256 _value)\n    external\n    onlyGenericCallScheme(address(_avatar))\n    onlySubjectToConstraint(\"genericCall\", address(_avatar))\n    returns (bool, bytes memory)\n    {\n        return _avatar.genericCall(_contract, _data, _value);\n    }\n\n  /**\n   * @dev send some ether\n   * @param _amountInWei the amount of ether (in Wei) to send\n   * @param _to address of the beneficiary\n   * @param _avatar the organization avatar.\n   * @return bool which represents a success\n   */\n    function sendEther(uint256 _amountInWei, address payable _to, Avatar _avatar)\n    external\n    onlyRegisteredScheme(address(_avatar))\n    onlySubjectToConstraint(\"sendEther\", address(_avatar))\n    returns(bool)\n    {\n        return _avatar.sendEther(_amountInWei, _to);\n    }\n\n    /**\n    * @dev send some amount of arbitrary ERC20 Tokens\n    * @param _externalToken the address of the Token Contract\n    * @param _to address of the beneficiary\n    * @param _value the amount of ether (in Wei) to send\n    * @param _avatar the organization avatar.\n    * @return bool which represents a success\n    */\n    function externalTokenTransfer(IERC20 _externalToken, address _to, uint256 _value, Avatar _avatar)\n    external\n    onlyRegisteredScheme(address(_avatar))\n    onlySubjectToConstraint(\"externalTokenTransfer\", address(_avatar))\n    returns(bool)\n    {\n        return _avatar.externalTokenTransfer(_externalToken, _to, _value);\n    }\n\n    /**\n    * @dev transfer token \"from\" address \"to\" address\n    *      One must to approve the amount of tokens which can be spend from the\n    *      \"from\" account.This can be done using externalTokenApprove.\n    * @param _externalToken the address of the Token Contract\n    * @param _from address of the account to send from\n    * @param _to address of the beneficiary\n    * @param _value the amount of ether (in Wei) to send\n    * @param _avatar the organization avatar.\n    * @return bool which represents a success\n    */\n    function externalTokenTransferFrom(\n    IERC20 _externalToken,\n    address _from,\n    address _to,\n    uint256 _value,\n    Avatar _avatar)\n    external\n    onlyRegisteredScheme(address(_avatar))\n    onlySubjectToConstraint(\"externalTokenTransferFrom\", address(_avatar))\n    returns(bool)\n    {\n        return _avatar.externalTokenTransferFrom(_externalToken, _from, _to, _value);\n    }\n\n    /**\n    * @dev externalTokenApproval approve the spender address to spend a specified amount of tokens\n    *      on behalf of msg.sender.\n    * @param _externalToken the address of the Token Contract\n    * @param _spender address\n    * @param _value the amount of ether (in Wei) which the approval is referring to.\n    * @return bool which represents a success\n    */\n    function externalTokenApproval(IERC20 _externalToken, address _spender, uint256 _value, Avatar _avatar)\n    external\n    onlyRegisteredScheme(address(_avatar))\n    onlySubjectToConstraint(\"externalTokenApproval\", address(_avatar))\n    returns(bool)\n    {\n        return _avatar.externalTokenApproval(_externalToken, _spender, _value);\n    }\n\n    /**\n    * @dev metaData emits an event with a string, should contain the hash of some meta data.\n    * @param _metaData a string representing a hash of the meta data\n    * @param _avatar Avatar\n    * @return bool which represents a success\n    */\n    function metaData(string calldata _metaData, Avatar _avatar)\n        external\n        onlyMetaDataScheme(address(_avatar))\n        returns(bool)\n        {\n        return _avatar.metaData(_metaData);\n    }\n\n    function isSchemeRegistered( address _scheme, address _avatar) external view returns(bool) {\n        return _isSchemeRegistered(_scheme, _avatar);\n    }\n\n    function getSchemeParameters(address _scheme, address _avatar) external view returns(bytes32) {\n        return organizations[_avatar].schemes[_scheme].paramsHash;\n    }\n\n    function getSchemePermissions(address _scheme, address _avatar) external view returns(bytes4) {\n        return organizations[_avatar].schemes[_scheme].permissions;\n    }\n\n    function getGlobalConstraintParameters(address _globalConstraint, address _avatar) external view returns(bytes32) {\n\n        Organization storage organization = organizations[_avatar];\n\n        GlobalConstraintRegister memory register = organization.globalConstraintsRegisterPre[_globalConstraint];\n\n        if (register.isRegistered) {\n            return organization.globalConstraintsPre[register.index].params;\n        }\n\n        register = organization.globalConstraintsRegisterPost[_globalConstraint];\n\n        if (register.isRegistered) {\n            return organization.globalConstraintsPost[register.index].params;\n        }\n    }\n\n   /**\n   * @dev globalConstraintsCount return the global constraint pre and post count\n   * @return uint256 globalConstraintsPre count.\n   * @return uint256 globalConstraintsPost count.\n   */\n    function globalConstraintsCount(address _avatar) external view returns(uint, uint) {\n        return (\n        organizations[_avatar].globalConstraintsPre.length,\n        organizations[_avatar].globalConstraintsPost.length\n        );\n    }\n\n    function isGlobalConstraintRegistered(address _globalConstraint, address _avatar) external view returns(bool) {\n        return (organizations[_avatar].globalConstraintsRegisterPre[_globalConstraint].isRegistered ||\n        organizations[_avatar].globalConstraintsRegisterPost[_globalConstraint].isRegistered);\n    }\n\n    /**\n     * @dev getNativeReputation\n     * @param _avatar the organization avatar.\n     * @return organization native reputation\n     */\n    function getNativeReputation(address _avatar) external view returns(address) {\n        return address(organizations[_avatar].nativeReputation);\n    }\n\n    /**\n     * @dev removeGlobalConstraintPre\n     * @param _globalConstraint the address of the global constraint to be remove.\n     * @param _avatar the organization avatar.\n     * @return bool which represents a success\n     */\n    function removeGlobalConstraintPre(address _globalConstraint, address _avatar)\n    private returns(bool)\n    {\n        GlobalConstraintRegister memory globalConstraintRegister =\n        organizations[_avatar].globalConstraintsRegisterPre[_globalConstraint];\n        GlobalConstraint[] storage globalConstraints = organizations[_avatar].globalConstraintsPre;\n\n        if (globalConstraintRegister.isRegistered) {\n            if (globalConstraintRegister.index < globalConstraints.length-1) {\n                GlobalConstraint memory globalConstraint = globalConstraints[globalConstraints.length-1];\n                globalConstraints[globalConstraintRegister.index] = globalConstraint;\n                organizations[_avatar].globalConstraintsRegisterPre[globalConstraint.gcAddress].index =\n                globalConstraintRegister.index;\n            }\n            globalConstraints.length--;\n            delete organizations[_avatar].globalConstraintsRegisterPre[_globalConstraint];\n            emit RemoveGlobalConstraint(_globalConstraint, globalConstraintRegister.index, true, _avatar);\n            return true;\n        }\n        return false;\n    }\n\n    /**\n     * @dev removeGlobalConstraintPost\n     * @param _globalConstraint the address of the global constraint to be remove.\n     * @param _avatar the organization avatar.\n     * @return bool which represents a success\n     */\n    function removeGlobalConstraintPost(address _globalConstraint, address _avatar)\n    private returns(bool)\n    {\n        GlobalConstraintRegister memory globalConstraintRegister =\n        organizations[_avatar].globalConstraintsRegisterPost[_globalConstraint];\n        GlobalConstraint[] storage globalConstraints = organizations[_avatar].globalConstraintsPost;\n\n        if (globalConstraintRegister.isRegistered) {\n            if (globalConstraintRegister.index < globalConstraints.length-1) {\n                GlobalConstraint memory globalConstraint = globalConstraints[globalConstraints.length-1];\n                globalConstraints[globalConstraintRegister.index] = globalConstraint;\n                organizations[_avatar].globalConstraintsRegisterPost[globalConstraint.gcAddress].index =\n                globalConstraintRegister.index;\n            }\n            globalConstraints.length--;\n            delete organizations[_avatar].globalConstraintsRegisterPost[_globalConstraint];\n            emit RemoveGlobalConstraint(_globalConstraint, globalConstraintRegister.index, false, _avatar);\n            return true;\n        }\n        return false;\n    }\n\n    function _isSchemeRegistered( address _scheme, address _avatar) private view returns(bool) {\n        return (organizations[_avatar].schemes[_scheme].permissions&bytes4(0x00000001) != bytes4(0));\n    }\n}\n",
  "sourcePath": "/Users/oren/daostack/arc/contracts/controller/UController.sol",
  "compiler": {
    "name": "solc",
    "version": "0.5.4+commit.9549d8ff.Emscripten.clang"
  },
  "schemaVersion": "3.0.9",
  "updatedAt": "2019-05-19T13:02:45.929Z",
  "devdoc": {
    "details": "A universal controller hold organizations and controls their tokens ,reputations      and avatar. It is subject to a set of schemes and constraints that determine its behavior. Each scheme has it own parameters and operation permissions.",
    "methods": {
      "addGlobalConstraint(address,bytes32,address)": {
        "details": "add or update Global Constraint",
        "params": {
          "_avatar": "the avatar of the organization",
          "_globalConstraint": "the address of the global constraint to be added.",
          "_params": "the constraint parameters hash."
        },
        "return": "bool which represents a success"
      },
      "burnReputation(uint256,address,address)": {
        "details": "Burns `_amount` of reputation from `_from`",
        "params": {
          "_amount": "amount of reputation to burn",
          "_from": "The address that will lose the reputation"
        },
        "return": "bool which represents a success"
      },
      "externalTokenApproval(address,address,uint256,address)": {
        "details": "externalTokenApproval approve the spender address to spend a specified amount of tokens     on behalf of msg.sender.",
        "params": {
          "_externalToken": "the address of the Token Contract",
          "_spender": "address",
          "_value": "the amount of ether (in Wei) which the approval is referring to."
        },
        "return": "bool which represents a success"
      },
      "externalTokenTransfer(address,address,uint256,address)": {
        "details": "send some amount of arbitrary ERC20 Tokens",
        "params": {
          "_avatar": "the organization avatar.",
          "_externalToken": "the address of the Token Contract",
          "_to": "address of the beneficiary",
          "_value": "the amount of ether (in Wei) to send"
        },
        "return": "bool which represents a success"
      },
      "externalTokenTransferFrom(address,address,address,uint256,address)": {
        "details": "transfer token \"from\" address \"to\" address     One must to approve the amount of tokens which can be spend from the     \"from\" account.This can be done using externalTokenApprove.",
        "params": {
          "_avatar": "the organization avatar.",
          "_externalToken": "the address of the Token Contract",
          "_from": "address of the account to send from",
          "_to": "address of the beneficiary",
          "_value": "the amount of ether (in Wei) to send"
        },
        "return": "bool which represents a success"
      },
      "genericCall(address,bytes,address,uint256)": {
        "details": "perform a generic call to an arbitrary contract",
        "params": {
          "_avatar": "the controller's avatar address",
          "_contract": "the contract's address to call",
          "_data": "ABI-encoded contract call to call `_contract` address.",
          "_value": "value (ETH) to transfer with the transaction"
        },
        "return": "bool -success        bytes  - the return value of the called _contract's function."
      },
      "getNativeReputation(address)": {
        "details": "getNativeReputation",
        "params": {
          "_avatar": "the organization avatar."
        },
        "return": "organization native reputation"
      },
      "globalConstraintsCount(address)": {
        "details": "globalConstraintsCount return the global constraint pre and post count",
        "return": "uint256 globalConstraintsPre count.uint256 globalConstraintsPost count."
      },
      "metaData(string,address)": {
        "details": "metaData emits an event with a string, should contain the hash of some meta data.",
        "params": {
          "_avatar": "Avatar",
          "_metaData": "a string representing a hash of the meta data"
        },
        "return": "bool which represents a success"
      },
      "mintReputation(uint256,address,address)": {
        "details": "Mint `_amount` of reputation that are assigned to `_to` .",
        "params": {
          "_amount": "amount of reputation to mint",
          "_avatar": "the address of the organization's avatar",
          "_to": "beneficiary address"
        },
        "return": "bool which represents a success"
      },
      "mintTokens(uint256,address,address)": {
        "details": "mint tokens .",
        "params": {
          "_amount": "amount of token to mint",
          "_avatar": "the organization avatar.",
          "_beneficiary": "beneficiary address"
        },
        "return": "bool which represents a success"
      },
      "newOrganization(address)": {
        "details": "newOrganization set up a new organization with default daoCreator.",
        "params": {
          "_avatar": "the organization avatar"
        }
      },
      "registerScheme(address,bytes32,bytes4,address)": {
        "details": "register or update a scheme",
        "params": {
          "_avatar": "the organization avatar.",
          "_paramsHash": "a hashed configuration of the usage of the scheme",
          "_permissions": "the permissions the new scheme will have",
          "_scheme": "the address of the scheme"
        },
        "return": "bool which represents a success"
      },
      "removeGlobalConstraint(address,address)": {
        "details": "remove Global Constraint",
        "params": {
          "_avatar": "the organization avatar.",
          "_globalConstraint": "the address of the global constraint to be remove."
        },
        "return": "bool which represents a success"
      },
      "sendEther(uint256,address,address)": {
        "details": "send some ether",
        "params": {
          "_amountInWei": "the amount of ether (in Wei) to send",
          "_avatar": "the organization avatar.",
          "_to": "address of the beneficiary"
        },
        "return": "bool which represents a success"
      },
      "unregisterScheme(address,address)": {
        "details": "unregister a scheme",
        "params": {
          "_avatar": "the organization avatar.",
          "_scheme": "the address of the scheme"
        },
        "return": "bool which represents a success"
      },
      "unregisterSelf(address)": {
        "details": "unregister the caller's scheme",
        "params": {
          "_avatar": "the organization avatar."
        },
        "return": "bool which represents a success"
      },
      "upgradeController(address,address)": {
        "details": "upgrade the Controller     The function will trigger an event 'UpgradeController'.",
        "params": {
          "_avatar": "the organization avatar.",
          "_newController": "the address of the new controller."
        },
        "return": "bool which represents a success"
      }
    },
    "title": "Universal Controller contract"
  },
  "userdoc": {
    "methods": {}
  }
}