{
  "contractName": "LockingEth4Reputation",
  "abi": [
    {
      "constant": true,
      "inputs": [],
      "name": "redeemEnableTime",
      "outputs": [
        {
          "name": "",
          "type": "uint256"
        }
      ],
      "payable": false,
      "stateMutability": "view",
      "type": "function"
    },
    {
      "constant": true,
      "inputs": [],
      "name": "lockingStartTime",
      "outputs": [
        {
          "name": "",
          "type": "uint256"
        }
      ],
      "payable": false,
      "stateMutability": "view",
      "type": "function"
    },
    {
      "constant": true,
      "inputs": [],
      "name": "totalLocked",
      "outputs": [
        {
          "name": "",
          "type": "uint256"
        }
      ],
      "payable": false,
      "stateMutability": "view",
      "type": "function"
    },
    {
      "constant": true,
      "inputs": [],
      "name": "avatar",
      "outputs": [
        {
          "name": "",
          "type": "address"
        }
      ],
      "payable": false,
      "stateMutability": "view",
      "type": "function"
    },
    {
      "constant": true,
      "inputs": [],
      "name": "getAgreementHash",
      "outputs": [
        {
          "name": "",
          "type": "bytes32"
        }
      ],
      "payable": false,
      "stateMutability": "view",
      "type": "function"
    },
    {
      "constant": true,
      "inputs": [
        {
          "name": "",
          "type": "address"
        }
      ],
      "name": "scores",
      "outputs": [
        {
          "name": "",
          "type": "uint256"
        }
      ],
      "payable": false,
      "stateMutability": "view",
      "type": "function"
    },
    {
      "constant": true,
      "inputs": [
        {
          "name": "",
          "type": "address"
        },
        {
          "name": "",
          "type": "bytes32"
        }
      ],
      "name": "lockers",
      "outputs": [
        {
          "name": "amount",
          "type": "uint256"
        },
        {
          "name": "releaseTime",
          "type": "uint256"
        }
      ],
      "payable": false,
      "stateMutability": "view",
      "type": "function"
    },
    {
      "constant": false,
      "inputs": [
        {
          "name": "_beneficiary",
          "type": "address"
        }
      ],
      "name": "redeem",
      "outputs": [
        {
          "name": "reputation",
          "type": "uint256"
        }
      ],
      "payable": false,
      "stateMutability": "nonpayable",
      "type": "function"
    },
    {
      "constant": true,
      "inputs": [],
      "name": "lockingEndTime",
      "outputs": [
        {
          "name": "",
          "type": "uint256"
        }
      ],
      "payable": false,
      "stateMutability": "view",
      "type": "function"
    },
    {
      "constant": true,
      "inputs": [],
      "name": "reputationRewardLeft",
      "outputs": [
        {
          "name": "",
          "type": "uint256"
        }
      ],
      "payable": false,
      "stateMutability": "view",
      "type": "function"
    },
    {
      "constant": true,
      "inputs": [],
      "name": "maxLockingPeriod",
      "outputs": [
        {
          "name": "",
          "type": "uint256"
        }
      ],
      "payable": false,
      "stateMutability": "view",
      "type": "function"
    },
    {
      "constant": true,
      "inputs": [],
      "name": "totalScore",
      "outputs": [
        {
          "name": "",
          "type": "uint256"
        }
      ],
      "payable": false,
      "stateMutability": "view",
      "type": "function"
    },
    {
      "constant": true,
      "inputs": [],
      "name": "lockingsCounter",
      "outputs": [
        {
          "name": "",
          "type": "uint256"
        }
      ],
      "payable": false,
      "stateMutability": "view",
      "type": "function"
    },
    {
      "constant": true,
      "inputs": [],
      "name": "totalLockedLeft",
      "outputs": [
        {
          "name": "",
          "type": "uint256"
        }
      ],
      "payable": false,
      "stateMutability": "view",
      "type": "function"
    },
    {
      "constant": true,
      "inputs": [],
      "name": "reputationReward",
      "outputs": [
        {
          "name": "",
          "type": "uint256"
        }
      ],
      "payable": false,
      "stateMutability": "view",
      "type": "function"
    },
    {
      "anonymous": false,
      "inputs": [
        {
          "indexed": true,
          "name": "_beneficiary",
          "type": "address"
        },
        {
          "indexed": false,
          "name": "_amount",
          "type": "uint256"
        }
      ],
      "name": "Redeem",
      "type": "event"
    },
    {
      "anonymous": false,
      "inputs": [
        {
          "indexed": true,
          "name": "_lockingId",
          "type": "bytes32"
        },
        {
          "indexed": true,
          "name": "_beneficiary",
          "type": "address"
        },
        {
          "indexed": false,
          "name": "_amount",
          "type": "uint256"
        }
      ],
      "name": "Release",
      "type": "event"
    },
    {
      "anonymous": false,
      "inputs": [
        {
          "indexed": true,
          "name": "_locker",
          "type": "address"
        },
        {
          "indexed": true,
          "name": "_lockingId",
          "type": "bytes32"
        },
        {
          "indexed": false,
          "name": "_amount",
          "type": "uint256"
        },
        {
          "indexed": false,
          "name": "_period",
          "type": "uint256"
        }
      ],
      "name": "Lock",
      "type": "event"
    },
    {
      "constant": false,
      "inputs": [
        {
          "name": "_avatar",
          "type": "address"
        },
        {
          "name": "_reputationReward",
          "type": "uint256"
        },
        {
          "name": "_lockingStartTime",
          "type": "uint256"
        },
        {
          "name": "_lockingEndTime",
          "type": "uint256"
        },
        {
          "name": "_redeemEnableTime",
          "type": "uint256"
        },
        {
          "name": "_maxLockingPeriod",
          "type": "uint256"
        },
        {
          "name": "_agreementHash",
          "type": "bytes32"
        }
      ],
      "name": "initialize",
      "outputs": [],
      "payable": false,
      "stateMutability": "nonpayable",
      "type": "function"
    },
    {
      "constant": false,
      "inputs": [
        {
          "name": "_beneficiary",
          "type": "address"
        },
        {
          "name": "_lockingId",
          "type": "bytes32"
        }
      ],
      "name": "release",
      "outputs": [
        {
          "name": "",
          "type": "bool"
        }
      ],
      "payable": false,
      "stateMutability": "nonpayable",
      "type": "function"
    },
    {
      "constant": false,
      "inputs": [
        {
          "name": "_period",
          "type": "uint256"
        },
        {
          "name": "_agreementHash",
          "type": "bytes32"
        }
      ],
      "name": "lock",
      "outputs": [
        {
          "name": "lockingId",
          "type": "bytes32"
        }
      ],
      "payable": true,
      "stateMutability": "payable",
      "type": "function"
    }
  ],
  "bytecode": "0x608060405234801561001057600080fd5b506110c0806100206000396000f3fe608060405260043610610126576000357c01000000000000000000000000000000000000000000000000000000009004806395a2251f116100b2578063c006719f11610081578063c006719f14610335578063c3201add1461034a578063c348a24b1461035f578063d7c2eec714610374578063ed1ff6d8146103c157610126565b806395a2251f146102c3578063a8c33017146102f6578063afe0e33c1461030b578063bf0df4451461032057610126565b80635aef7de6116100f95780635aef7de61461019f578063650e81f2146101d0578063696da9211461022957806376dd110f1461023e578063838057421461027157610126565b80633d1678f41461012b578063496a36f21461015257806355bfec8814610175578063568914121461018a575b600080fd5b34801561013757600080fd5b506101406103d6565b60408051918252519081900360200190f35b6101406004803603604081101561016857600080fd5b50803590602001356103dc565b34801561018157600080fd5b506101406103f6565b34801561019657600080fd5b506101406103fc565b3480156101ab57600080fd5b506101b4610402565b60408051600160a060020a039092168252519081900360200190f35b3480156101dc57600080fd5b50610227600480360360e08110156101f357600080fd5b50600160a060020a038135169060208101359060408101359060608101359060808101359060a08101359060c00135610411565b005b34801561023557600080fd5b50610140610429565b34801561024a57600080fd5b506101406004803603602081101561026157600080fd5b5035600160a060020a031661042f565b34801561027d57600080fd5b506102aa6004803603604081101561029457600080fd5b50600160a060020a038135169060200135610441565b6040805192835260208301919091528051918290030190f35b3480156102cf57600080fd5b50610140600480360360208110156102e657600080fd5b5035600160a060020a0316610465565b34801561030257600080fd5b5061014061075d565b34801561031757600080fd5b50610140610763565b34801561032c57600080fd5b50610140610769565b34801561034157600080fd5b5061014061076f565b34801561035657600080fd5b50610140610775565b34801561036b57600080fd5b5061014061077b565b34801561038057600080fd5b506103ad6004803603604081101561039757600080fd5b50600160a060020a038135169060200135610781565b604080519115158252519081900360200190f35b3480156103cd57600080fd5b506101406107d2565b600d5481565b60006103ed348433600180876107d8565b90505b92915050565b600c5481565b60045481565b600154600160a060020a031681565b61042087878787878787610bea565b50505050505050565b60005490565b60036020526000908152604090205481565b60026020908152600092835260408084209091529082529020805460019091015482565b600d5460009042116104c1576040805160e560020a62461bcd02815260206004820152601660248201527f6e6f77203e2072656465656d456e61626c6554696d6500000000000000000000604482015290519081900360640190fd5b600160a060020a0382166000908152600360205260408120541161052f576040805160e560020a62461bcd02815260206004820152601360248201527f73636f72652073686f756c64206265203e203000000000000000000000000000604482015290519081900360640190fd5b600160a060020a038216600090815260036020526040812080549082905560085490919061056490839063ffffffff610d7d16565b905061057b60065482610da890919063ffffffff16565b600954909350610591908463ffffffff610dcc16565b600955600154604080517f8da5cb5b0000000000000000000000000000000000000000000000000000000081529051600160a060020a0390921691638da5cb5b91600480820192602092909190829003018186803b1580156105f257600080fd5b505afa158015610606573d6000803e3d6000fd5b505050506040513d602081101561061c57600080fd5b5051600154604080517feaf994b200000000000000000000000000000000000000000000000000000000815260048101879052600160a060020a03888116602483015292831660448201529051919092169163eaf994b29160648083019260209291908290030181600087803b15801561069557600080fd5b505af11580156106a9573d6000803e3d6000fd5b505050506040513d60208110156106bf57600080fd5b50511515610717576040805160e560020a62461bcd02815260206004820152601e60248201527f6d696e742072657075746174696f6e2073686f756c6420737563636565640000604482015290519081900360640190fd5b604080518481529051600160a060020a038616917f222838db2794d11532d940e8dec38ae307ed0b63cd97c233322e221f998767a6919081900360200190a25050919050565b600a5481565b60095481565b600b5481565b60065481565b60075481565b60055481565b60008061078e8484610de1565b604051909150600160a060020a0385169082156108fc029083906000818181858888f193505050501580156107c7573d6000803e3d6000fd5b506001949350505050565b60085481565b600080548290811461081e5760405160e560020a62461bcd02815260040180806020018281038252602881526020018061101f6028913960400191505060405180910390fd5b60008811610876576040805160e560020a62461bcd02815260206004820152601c60248201527f6c6f636b696e6720616d6f756e742073686f756c64206265203e203000000000604482015290519081900360640190fd5b600b548711156108ba5760405160e560020a62461bcd02815260040180806020018281038252602c815260200180611047602c913960400191505060405180910390fd5b60008711610912576040805160e560020a62461bcd02815260206004820152601c60248201527f6c6f636b696e6720706572696f642073686f756c64206265203e203000000000604482015290519081900360640190fd5b600a544211156109565760405160e560020a62461bcd028152600401808060200182810382526030815260200180610fb56030913960400191505060405180910390fd5b600c5442101561099a5760405160e560020a62461bcd028152600401808060200182810382526028815260200180610f8d6028913960400191505060405180910390fd5b600754604080516c0100000000000000000000000030026020808301919091526034808301859052835180840390910181526054909201909252805191012092506109ec90600163ffffffff610f1d16565b600755600160a060020a038616600090815260026020908152604080832085845290915290208881554288016001820155600454610a30908a63ffffffff610f1d16565b600455600554610a46908a63ffffffff610f1d16565b6005556000610a7b86610a6f89610a638d8f63ffffffff610d7d16565b9063ffffffff610d7d16565b9063ffffffff610da816565b905060008111610ad5576040805160e560020a62461bcd02815260206004820152601160248201527f73636f7265206d757374206d65203e2030000000000000000000000000000000604482015290519081900360640190fd5b600160a060020a038816600090815260036020526040902054610afe908263ffffffff610f1d16565b600160a060020a038916600090815260036020526040902081905560085490818102811515610b2957fe5b0414610b7f576040805160e560020a62461bcd02815260206004820152601160248201527f73636f726520697320746f6f2068696768000000000000000000000000000000604482015290519081900360640190fd5b600654610b92908263ffffffff610f1d16565b600655604080518b8152602081018b905281518692600160a060020a038c16927fd173f98f4a2080eab40a0bff4d9a575753270cb2401c74efdec1feb0ba31b426929081900390910190a35050509695505050505050565b600154600160a060020a031615610c4b576040805160e560020a62461bcd02815260206004820152601b60248201527f63616e2062652063616c6c6564206f6e6c79206f6e652074696d650000000000604482015290519081900360640190fd5b600160a060020a0387161515610cab576040805160e560020a62461bcd02815260206004820152601560248201527f6176617461722063616e6e6f74206265207a65726f0000000000000000000000604482015290519081900360640190fd5b848411610cec5760405160e560020a62461bcd02815260040180806020018281038252603a815260200180610fe5603a913960400191505060405180910390fd5b83831015610d2e5760405160e560020a62461bcd0281526004018080602001828103825260228152602001806110736022913960400191505060405180910390fd5b60088690556009869055600a849055600b8290556001805473ffffffffffffffffffffffffffffffffffffffff1916600160a060020a038916179055600c859055600d83905561042081610f2f565b6000821515610d8e575060006103f0565b828202828482811515610d9d57fe5b04146103ed57600080fd5b6000808211610db657600080fd5b60008284811515610dc357fe5b04949350505050565b600082821115610ddb57600080fd5b50900390565b600160a060020a0382166000908152600260209081526040808320848452909152812080548210610e5c576040805160e560020a62461bcd02815260206004820152601460248201527f616d6f756e742073686f756c64206265203e2030000000000000000000000000604482015290519081900360640190fd5b80546000825560018201549092504211610ec0576040805160e560020a62461bcd02815260206004820152601a60248201527f636865636b20746865206c6f636b20706572696f642070617373000000000000604482015290519081900360640190fd5b600554610ed3908363ffffffff610dcc16565b600555604080518381529051600160a060020a0386169185917fcb7ab693259d2332e08e7666832578144deb74443e37a762847e848793fc29819181900360200190a35092915050565b6000828201838110156103ed57600080fd5b60005415610f87576040805160e560020a62461bcd02815260206004820152601b60248201527f43616e206e6f74207365742061677265656d656e742074776963650000000000604482015290519081900360640190fd5b60005556fe6c6f636b2073686f756c64207374617274206166746572206c6f636b696e67537461727454696d656c6f636b2073686f756c642062652077697468696e2074686520616c6c6f776564206c6f636b696e6720706572696f646c6f636b696e6720656e642074696d652073686f756c642062652067726561746572207468616e206c6f636b696e672073746172742074696d6553656e646572206d7573742073656e64207468652072696768742061677265656d656e74486173686c6f636b696e6720706572696f642073686f756c64206265203c3d206d61784c6f636b696e67506572696f6472656465656d456e61626c6554696d65203e3d206c6f636b696e67456e6454696d65a165627a7a7230582022762233045dbf9591397426218c19b8a18874c8786afcf1d2389163979961490029",
  "source": "pragma solidity ^0.5.4;\n\nimport \"./Locking4Reputation.sol\";\n\n/**\n * @title A scheme for locking ETH for reputation\n */\n\ncontract LockingEth4Reputation is Locking4Reputation {\n\n    /**\n     * @dev initialize\n     * @param _avatar the avatar to mint reputation from\n     * @param _reputationReward the total reputation this contract will reward\n     *        for eth locking\n     * @param _lockingStartTime locking starting period time.\n     * @param _lockingEndTime the locking end time.\n     *        locking is disable after this time.\n     * @param _redeemEnableTime redeem enable time .\n     *        redeem reputation can be done after this time.\n     * @param _maxLockingPeriod maximum locking period allowed.\n     */\n    function initialize(\n        Avatar _avatar,\n        uint256 _reputationReward,\n        uint256 _lockingStartTime,\n        uint256 _lockingEndTime,\n        uint256 _redeemEnableTime,\n        uint256 _maxLockingPeriod,\n        bytes32 _agreementHash )\n    external\n    {\n        super._initialize(\n        _avatar,\n        _reputationReward,\n        _lockingStartTime,\n        _lockingEndTime,\n        _redeemEnableTime,\n        _maxLockingPeriod,\n        _agreementHash);\n    }\n\n    /**\n     * @dev release locked eth\n     * @param _beneficiary the release _beneficiary\n     * @param _lockingId the locking id\n     * @return bool\n     */\n    function release(address payable _beneficiary, bytes32 _lockingId) public returns(bool) {\n        uint256 amount = super._release(_beneficiary, _lockingId);\n        _beneficiary.transfer(amount);\n\n        return true;\n    }\n\n    /**\n     * @dev lock function\n     * @param _period the locking period\n     * @return lockingId the unique Id\n     */\n    function lock(uint256 _period, bytes32 _agreementHash) public payable returns(bytes32 lockingId) {\n        return super._lock(msg.value, _period, msg.sender, 1, 1, _agreementHash);\n    }\n\n}\n",
  "sourcePath": "/Users/oren/daostack/arc/contracts/schemes/LockingEth4Reputation.sol",
  "compiler": {
    "name": "solc",
    "version": "0.5.4+commit.9549d8ff.Emscripten.clang"
  },
  "schemaVersion": "3.0.6",
  "updatedAt": "2019-04-28T13:42:54.891Z",
  "devdoc": {
    "methods": {
      "getAgreementHash()": {
        "details": "getAgreementHash",
        "return": "bytes32 agreementHash"
      },
      "initialize(address,uint256,uint256,uint256,uint256,uint256,bytes32)": {
        "details": "initialize",
        "params": {
          "_avatar": "the avatar to mint reputation from",
          "_lockingEndTime": "the locking end time.       locking is disable after this time.",
          "_lockingStartTime": "locking starting period time.",
          "_maxLockingPeriod": "maximum locking period allowed.",
          "_redeemEnableTime": "redeem enable time .       redeem reputation can be done after this time.",
          "_reputationReward": "the total reputation this contract will reward       for eth locking"
        }
      },
      "lock(uint256,bytes32)": {
        "details": "lock function",
        "params": {
          "_period": "the locking period"
        },
        "return": "lockingId the unique Id"
      },
      "redeem(address)": {
        "details": "redeem reputation function",
        "params": {
          "_beneficiary": "the beneficiary for the release"
        },
        "return": "uint256 reputation rewarded"
      },
      "release(address,bytes32)": {
        "details": "release locked eth",
        "params": {
          "_beneficiary": "the release _beneficiary",
          "_lockingId": "the locking id"
        },
        "return": "bool"
      }
    },
    "title": "A scheme for locking ETH for reputation"
  },
  "userdoc": {
    "methods": {}
  }
}