{
  "contractName": "LockingToken4Reputation",
  "abi": [
    {
      "constant": true,
      "inputs": [],
      "name": "redeemEnableTime",
      "outputs": [
        {
          "name": "",
          "type": "uint256"
        }
      ],
      "payable": false,
      "stateMutability": "view",
      "type": "function"
    },
    {
      "constant": true,
      "inputs": [],
      "name": "priceOracleContract",
      "outputs": [
        {
          "name": "",
          "type": "address"
        }
      ],
      "payable": false,
      "stateMutability": "view",
      "type": "function"
    },
    {
      "constant": true,
      "inputs": [],
      "name": "lockingStartTime",
      "outputs": [
        {
          "name": "",
          "type": "uint256"
        }
      ],
      "payable": false,
      "stateMutability": "view",
      "type": "function"
    },
    {
      "constant": true,
      "inputs": [],
      "name": "totalLocked",
      "outputs": [
        {
          "name": "",
          "type": "uint256"
        }
      ],
      "payable": false,
      "stateMutability": "view",
      "type": "function"
    },
    {
      "constant": true,
      "inputs": [],
      "name": "avatar",
      "outputs": [
        {
          "name": "",
          "type": "address"
        }
      ],
      "payable": false,
      "stateMutability": "view",
      "type": "function"
    },
    {
      "constant": true,
      "inputs": [],
      "name": "getAgreementHash",
      "outputs": [
        {
          "name": "",
          "type": "bytes32"
        }
      ],
      "payable": false,
      "stateMutability": "view",
      "type": "function"
    },
    {
      "constant": true,
      "inputs": [
        {
          "name": "",
          "type": "address"
        }
      ],
      "name": "scores",
      "outputs": [
        {
          "name": "",
          "type": "uint256"
        }
      ],
      "payable": false,
      "stateMutability": "view",
      "type": "function"
    },
    {
      "constant": true,
      "inputs": [
        {
          "name": "",
          "type": "address"
        },
        {
          "name": "",
          "type": "bytes32"
        }
      ],
      "name": "lockers",
      "outputs": [
        {
          "name": "amount",
          "type": "uint256"
        },
        {
          "name": "releaseTime",
          "type": "uint256"
        }
      ],
      "payable": false,
      "stateMutability": "view",
      "type": "function"
    },
    {
      "constant": false,
      "inputs": [
        {
          "name": "_beneficiary",
          "type": "address"
        }
      ],
      "name": "redeem",
      "outputs": [
        {
          "name": "reputation",
          "type": "uint256"
        }
      ],
      "payable": false,
      "stateMutability": "nonpayable",
      "type": "function"
    },
    {
      "constant": true,
      "inputs": [],
      "name": "lockingEndTime",
      "outputs": [
        {
          "name": "",
          "type": "uint256"
        }
      ],
      "payable": false,
      "stateMutability": "view",
      "type": "function"
    },
    {
      "constant": true,
      "inputs": [],
      "name": "reputationRewardLeft",
      "outputs": [
        {
          "name": "",
          "type": "uint256"
        }
      ],
      "payable": false,
      "stateMutability": "view",
      "type": "function"
    },
    {
      "constant": true,
      "inputs": [],
      "name": "maxLockingPeriod",
      "outputs": [
        {
          "name": "",
          "type": "uint256"
        }
      ],
      "payable": false,
      "stateMutability": "view",
      "type": "function"
    },
    {
      "constant": true,
      "inputs": [],
      "name": "totalScore",
      "outputs": [
        {
          "name": "",
          "type": "uint256"
        }
      ],
      "payable": false,
      "stateMutability": "view",
      "type": "function"
    },
    {
      "constant": true,
      "inputs": [],
      "name": "lockingsCounter",
      "outputs": [
        {
          "name": "",
          "type": "uint256"
        }
      ],
      "payable": false,
      "stateMutability": "view",
      "type": "function"
    },
    {
      "constant": true,
      "inputs": [],
      "name": "totalLockedLeft",
      "outputs": [
        {
          "name": "",
          "type": "uint256"
        }
      ],
      "payable": false,
      "stateMutability": "view",
      "type": "function"
    },
    {
      "constant": true,
      "inputs": [
        {
          "name": "",
          "type": "bytes32"
        }
      ],
      "name": "lockedTokens",
      "outputs": [
        {
          "name": "",
          "type": "address"
        }
      ],
      "payable": false,
      "stateMutability": "view",
      "type": "function"
    },
    {
      "constant": true,
      "inputs": [],
      "name": "reputationReward",
      "outputs": [
        {
          "name": "",
          "type": "uint256"
        }
      ],
      "payable": false,
      "stateMutability": "view",
      "type": "function"
    },
    {
      "anonymous": false,
      "inputs": [
        {
          "indexed": true,
          "name": "_lockingId",
          "type": "bytes32"
        },
        {
          "indexed": true,
          "name": "_token",
          "type": "address"
        },
        {
          "indexed": false,
          "name": "_numerator",
          "type": "uint256"
        },
        {
          "indexed": false,
          "name": "_denominator",
          "type": "uint256"
        }
      ],
      "name": "LockToken",
      "type": "event"
    },
    {
      "anonymous": false,
      "inputs": [
        {
          "indexed": true,
          "name": "_beneficiary",
          "type": "address"
        },
        {
          "indexed": false,
          "name": "_amount",
          "type": "uint256"
        }
      ],
      "name": "Redeem",
      "type": "event"
    },
    {
      "anonymous": false,
      "inputs": [
        {
          "indexed": true,
          "name": "_lockingId",
          "type": "bytes32"
        },
        {
          "indexed": true,
          "name": "_beneficiary",
          "type": "address"
        },
        {
          "indexed": false,
          "name": "_amount",
          "type": "uint256"
        }
      ],
      "name": "Release",
      "type": "event"
    },
    {
      "anonymous": false,
      "inputs": [
        {
          "indexed": true,
          "name": "_locker",
          "type": "address"
        },
        {
          "indexed": true,
          "name": "_lockingId",
          "type": "bytes32"
        },
        {
          "indexed": false,
          "name": "_amount",
          "type": "uint256"
        },
        {
          "indexed": false,
          "name": "_period",
          "type": "uint256"
        }
      ],
      "name": "Lock",
      "type": "event"
    },
    {
      "constant": false,
      "inputs": [
        {
          "name": "_avatar",
          "type": "address"
        },
        {
          "name": "_reputationReward",
          "type": "uint256"
        },
        {
          "name": "_lockingStartTime",
          "type": "uint256"
        },
        {
          "name": "_lockingEndTime",
          "type": "uint256"
        },
        {
          "name": "_redeemEnableTime",
          "type": "uint256"
        },
        {
          "name": "_maxLockingPeriod",
          "type": "uint256"
        },
        {
          "name": "_priceOracleContract",
          "type": "address"
        },
        {
          "name": "_agreementHash",
          "type": "bytes32"
        }
      ],
      "name": "initialize",
      "outputs": [],
      "payable": false,
      "stateMutability": "nonpayable",
      "type": "function"
    },
    {
      "constant": false,
      "inputs": [
        {
          "name": "_beneficiary",
          "type": "address"
        },
        {
          "name": "_lockingId",
          "type": "bytes32"
        }
      ],
      "name": "release",
      "outputs": [
        {
          "name": "",
          "type": "bool"
        }
      ],
      "payable": false,
      "stateMutability": "nonpayable",
      "type": "function"
    },
    {
      "constant": false,
      "inputs": [
        {
          "name": "_amount",
          "type": "uint256"
        },
        {
          "name": "_period",
          "type": "uint256"
        },
        {
          "name": "_token",
          "type": "address"
        },
        {
          "name": "_agreementHash",
          "type": "bytes32"
        }
      ],
      "name": "lock",
      "outputs": [
        {
          "name": "lockingId",
          "type": "bytes32"
        }
      ],
      "payable": false,
      "stateMutability": "nonpayable",
      "type": "function"
    }
  ],
  "bytecode": "0x608060405234801561001057600080fd5b5061169c806100206000396000f3fe608060405234801561001057600080fd5b5060043610610149576000357c01000000000000000000000000000000000000000000000000000000009004806395a2251f116100ca578063c3201add1161008e578063c3201add146102ea578063c348a24b146102f2578063d7c2eec7146102fa578063e8d335881461033a578063ed1ff6d81461035757610149565b806395a2251f146102a4578063a8c33017146102ca578063afe0e33c146102d2578063bf0df445146102da578063c006719f146102e257610149565b8063696da92111610111578063696da921146101a457806376dd110f146101ac5780637ad88799146101d2578063838057421461022757806394d0cb6e1461026c57610149565b80633d1678f41461014e578063457454db1461016857806355bfec881461018c57806356891412146101945780635aef7de61461019c575b600080fd5b61015661035f565b60408051918252519081900360200190f35b610170610365565b60408051600160a060020a039092168252519081900360200190f35b610156610374565b61015661037a565b610170610380565b61015661038f565b610156600480360360208110156101c257600080fd5b5035600160a060020a0316610395565b61022560048036036101008110156101e957600080fd5b50600160a060020a03813581169160208101359160408201359160608101359160808201359160a08101359160c0820135169060e001356103a7565b005b6102536004803603604081101561023d57600080fd5b50600160a060020a0381351690602001356103e8565b6040805192835260208301919091528051918290030190f35b6101566004803603608081101561028257600080fd5b50803590602081013590600160a060020a03604082013516906060013561040c565b610156600480360360208110156102ba57600080fd5b5035600160a060020a0316610606565b6101566108fe565b610156610904565b61015661090a565b610156610910565b610156610916565b61015661091c565b6103266004803603604081101561031057600080fd5b50600160a060020a038135169060200135610922565b604080519115158252519081900360200190f35b6101706004803603602081101561035057600080fd5b5035610967565b610156610982565b600d5481565b600e54600160a060020a031681565b600c5481565b60045481565b600154600160a060020a031681565b60005490565b60036020526000908152604090205481565b600e805473ffffffffffffffffffffffffffffffffffffffff1916600160a060020a0384161790556103de88888888888887610988565b5050505050505050565b60026020908152600092835260408084209091529082529020805460019091015482565b600e54604080517f41976e09000000000000000000000000000000000000000000000000000000008152600160a060020a03858116600483015282516000948594859493909116926341976e099260248083019392829003018186803b15801561047557600080fd5b505afa158015610489573d6000803e3d6000fd5b505050506040513d604081101561049f57600080fd5b508051602090910151909250905060008211610505576040805160e560020a62461bcd02815260206004820152601760248201527f6e756d657261746f722073686f756c64206265203e2030000000000000000000604482015290519081900360640190fd5b6000811161055d576040805160e560020a62461bcd02815260206004820152601960248201527f64656e6f6d696e61746f722073686f756c64206265203e203000000000000000604482015290519081900360640190fd5b610578600160a060020a03861633308a63ffffffff610b2416565b610586878733858589610d1c565b6000818152600f6020908152604091829020805473ffffffffffffffffffffffffffffffffffffffff1916600160a060020a038a16908117909155825186815291820185905282519396509286927f09ae2accb7909b2605e5e74e2584c7f5aa396bc6ab76290633ae3819ff650e9f928290030190a35050949350505050565b600d546000904211610662576040805160e560020a62461bcd02815260206004820152601660248201527f6e6f77203e2072656465656d456e61626c6554696d6500000000000000000000604482015290519081900360640190fd5b600160a060020a038216600090815260036020526040812054116106d0576040805160e560020a62461bcd02815260206004820152601360248201527f73636f72652073686f756c64206265203e203000000000000000000000000000604482015290519081900360640190fd5b600160a060020a038216600090815260036020526040812080549082905560085490919061070590839063ffffffff61112e16565b905061071c6006548261116090919063ffffffff16565b600954909350610732908463ffffffff61118416565b600955600154604080517f8da5cb5b0000000000000000000000000000000000000000000000000000000081529051600160a060020a0390921691638da5cb5b91600480820192602092909190829003018186803b15801561079357600080fd5b505afa1580156107a7573d6000803e3d6000fd5b505050506040513d60208110156107bd57600080fd5b5051600154604080517feaf994b200000000000000000000000000000000000000000000000000000000815260048101879052600160a060020a03888116602483015292831660448201529051919092169163eaf994b29160648083019260209291908290030181600087803b15801561083657600080fd5b505af115801561084a573d6000803e3d6000fd5b505050506040513d602081101561086057600080fd5b505115156108b8576040805160e560020a62461bcd02815260206004820152601e60248201527f6d696e742072657075746174696f6e2073686f756c6420737563636565640000604482015290519081900360640190fd5b604080518481529051600160a060020a038616917f222838db2794d11532d940e8dec38ae307ed0b63cd97c233322e221f998767a6919081900360200190a25050919050565b600a5481565b60095481565b600b5481565b60065481565b60075481565b60055481565b60008061092f8484611199565b6000848152600f602052604090205490915061095b90600160a060020a0316858363ffffffff6112d516565b60019150505b92915050565b600f60205260009081526040902054600160a060020a031681565b60085481565b600154600160a060020a0316156109e9576040805160e560020a62461bcd02815260206004820152601b60248201527f63616e2062652063616c6c6564206f6e6c79206f6e652074696d650000000000604482015290519081900360640190fd5b600160a060020a0387161515610a49576040805160e560020a62461bcd02815260206004820152601560248201527f6176617461722063616e6e6f74206265207a65726f0000000000000000000000604482015290519081900360640190fd5b848411610a8a5760405160e560020a62461bcd02815260040180806020018281038252603a8152602001806115c1603a913960400191505060405180910390fd5b83831015610acc5760405160e560020a62461bcd02815260040180806020018281038252602281526020018061164f6022913960400191505060405180910390fd5b60088690556009869055600a849055600b8290556001805473ffffffffffffffffffffffffffffffffffffffff1916600160a060020a038916179055600c859055600d839055610b1b816114cc565b50505050505050565b610b3684600160a060020a0316611529565b1515610b4157600080fd5b6000606085600160a060020a03166060604051908101604052806025815260200161154460259139805160209182012060408051600160a060020a03808b166024830152891660448201526064808201899052825180830390910181526084909101825292830180517bffffffffffffffffffffffffffffffffffffffffffffffffffffffff167fffffffff00000000000000000000000000000000000000000000000000000000909316929092178252518251909182918083835b60208310610c1c5780518252601f199092019160209182019101610bfd565b6001836020036101000a0380198251168184511680821785525050505050509050019150506000604051808303816000865af19150503d8060008114610c7e576040519150601f19603f3d011682016040523d82523d6000602084013e610c83565b606091505b5091509150811515610c9457600080fd5b80511580610d09575080516020148015610d09575080601f815181101515610cb857fe5b6020910101517f010000000000000000000000000000000000000000000000000000000000000090819004027fff000000000000000000000000000000000000000000000000000000000000001615155b1515610d1457600080fd5b505050505050565b6000805482908114610d625760405160e560020a62461bcd0281526004018080602001828103825260288152602001806115fb6028913960400191505060405180910390fd5b60008811610dba576040805160e560020a62461bcd02815260206004820152601c60248201527f6c6f636b696e6720616d6f756e742073686f756c64206265203e203000000000604482015290519081900360640190fd5b600b54871115610dfe5760405160e560020a62461bcd02815260040180806020018281038252602c815260200180611623602c913960400191505060405180910390fd5b60008711610e56576040805160e560020a62461bcd02815260206004820152601c60248201527f6c6f636b696e6720706572696f642073686f756c64206265203e203000000000604482015290519081900360640190fd5b600a54421115610e9a5760405160e560020a62461bcd0281526004018080602001828103825260308152602001806115916030913960400191505060405180910390fd5b600c54421015610ede5760405160e560020a62461bcd0281526004018080602001828103825260288152602001806115696028913960400191505060405180910390fd5b600754604080516c010000000000000000000000003002602080830191909152603480830185905283518084039091018152605490920190925280519101209250610f3090600163ffffffff61153116565b600755600160a060020a038616600090815260026020908152604080832085845290915290208881554288016001820155600454610f74908a63ffffffff61153116565b600455600554610f8a908a63ffffffff61153116565b6005556000610fbf86610fb389610fa78d8f63ffffffff61112e16565b9063ffffffff61112e16565b9063ffffffff61116016565b905060008111611019576040805160e560020a62461bcd02815260206004820152601160248201527f73636f7265206d757374206d65203e2030000000000000000000000000000000604482015290519081900360640190fd5b600160a060020a038816600090815260036020526040902054611042908263ffffffff61153116565b600160a060020a03891660009081526003602052604090208190556008549081810281151561106d57fe5b04146110c3576040805160e560020a62461bcd02815260206004820152601160248201527f73636f726520697320746f6f2068696768000000000000000000000000000000604482015290519081900360640190fd5b6006546110d6908263ffffffff61153116565b600655604080518b8152602081018b905281518692600160a060020a038c16927fd173f98f4a2080eab40a0bff4d9a575753270cb2401c74efdec1feb0ba31b426929081900390910190a35050509695505050505050565b600082151561113f57506000610961565b82820282848281151561114e57fe5b041461115957600080fd5b9392505050565b600080821161116e57600080fd5b6000828481151561117b57fe5b04949350505050565b60008282111561119357600080fd5b50900390565b600160a060020a0382166000908152600260209081526040808320848452909152812080548210611214576040805160e560020a62461bcd02815260206004820152601460248201527f616d6f756e742073686f756c64206265203e2030000000000000000000000000604482015290519081900360640190fd5b80546000825560018201549092504211611278576040805160e560020a62461bcd02815260206004820152601a60248201527f636865636b20746865206c6f636b20706572696f642070617373000000000000604482015290519081900360640190fd5b60055461128b908363ffffffff61118416565b600555604080518381529051600160a060020a0386169185917fcb7ab693259d2332e08e7666832578144deb74443e37a762847e848793fc29819181900360200190a35092915050565b6112e783600160a060020a0316611529565b15156112f257600080fd5b604080518082018252601981527f7472616e7366657228616464726573732c75696e7432353629000000000000006020918201528151600160a060020a0385811660248301526044808301869052845180840390910181526064909201845291810180517bffffffffffffffffffffffffffffffffffffffffffffffffffffffff167fa9059cbb000000000000000000000000000000000000000000000000000000001781529251815160009460609489169392918291908083835b602083106113cd5780518252601f1990920191602091820191016113ae565b6001836020036101000a0380198251168184511680821785525050505050509050019150506000604051808303816000865af19150503d806000811461142f576040519150601f19603f3d011682016040523d82523d6000602084013e611434565b606091505b509150915081151561144557600080fd5b805115806114ba5750805160201480156114ba575080601f81518110151561146957fe5b6020910101517f010000000000000000000000000000000000000000000000000000000000000090819004027fff000000000000000000000000000000000000000000000000000000000000001615155b15156114c557600080fd5b5050505050565b60005415611524576040805160e560020a62461bcd02815260206004820152601b60248201527f43616e206e6f74207365742061677265656d656e742074776963650000000000604482015290519081900360640190fd5b600055565b6000903b1190565b60008282018381101561115957600080fdfe7472616e7366657246726f6d28616464726573732c616464726573732c75696e74323536296c6f636b2073686f756c64207374617274206166746572206c6f636b696e67537461727454696d656c6f636b2073686f756c642062652077697468696e2074686520616c6c6f776564206c6f636b696e6720706572696f646c6f636b696e6720656e642074696d652073686f756c642062652067726561746572207468616e206c6f636b696e672073746172742074696d6553656e646572206d7573742073656e64207468652072696768742061677265656d656e74486173686c6f636b696e6720706572696f642073686f756c64206265203c3d206d61784c6f636b696e67506572696f6472656465656d456e61626c6554696d65203e3d206c6f636b696e67456e6454696d65a165627a7a72305820f0de6258fb69af63ac960bf491765c3d91966886b585d60b7d452af133583da30029",
  "source": "pragma solidity ^0.5.4;\n\nimport \"./Locking4Reputation.sol\";\nimport \"./PriceOracleInterface.sol\";\nimport \"../libs/SafeERC20.sol\";\n\n\n/**\n * @title A scheme for locking ERC20 Tokens for reputation\n */\n\ncontract LockingToken4Reputation is Locking4Reputation {\n    using SafeERC20 for address;\n\n    PriceOracleInterface public priceOracleContract;\n    //      lockingId => token\n    mapping(bytes32   => address) public lockedTokens;\n\n    event LockToken(bytes32 indexed _lockingId, address indexed _token, uint256 _numerator, uint256 _denominator);\n\n    /**\n     * @dev initialize\n     * @param _avatar the avatar to mint reputation from\n     * @param _reputationReward the total reputation this contract will reward\n     *        for the token locking\n     * @param _lockingStartTime locking starting period time.\n     * @param _lockingEndTime the locking end time.\n     *        locking is disable after this time.\n     * @param _redeemEnableTime redeem enable time .\n     *        redeem reputation can be done after this time.\n     * @param _maxLockingPeriod maximum locking period allowed.\n     * @param _priceOracleContract the price oracle contract which the locked token will be\n     *        validated against\n     */\n    function initialize(\n        Avatar _avatar,\n        uint256 _reputationReward,\n        uint256 _lockingStartTime,\n        uint256 _lockingEndTime,\n        uint256 _redeemEnableTime,\n        uint256 _maxLockingPeriod,\n        PriceOracleInterface _priceOracleContract,\n        bytes32 _agreementHash)\n    external\n    {\n        priceOracleContract = _priceOracleContract;\n        super._initialize(\n        _avatar,\n        _reputationReward,\n        _lockingStartTime,\n        _lockingEndTime,\n        _redeemEnableTime,\n        _maxLockingPeriod,\n        _agreementHash);\n    }\n\n    /**\n     * @dev release locked tokens\n     * @param _beneficiary the release _beneficiary\n     * @param _lockingId the locking id\n     * @return bool\n     */\n    function release(address _beneficiary, bytes32 _lockingId) public returns(bool) {\n        uint256 amount = super._release(_beneficiary, _lockingId);\n        lockedTokens[_lockingId].safeTransfer(_beneficiary, amount);\n\n        return true;\n    }\n\n    /**\n     * @dev lock function\n     * @param _amount the amount to lock\n     * @param _period the locking period\n     * @param _token the token to lock - this should be whitelisted at the priceOracleContract\n     * @return lockingId\n     */\n    function lock(uint256 _amount,\n        uint256 _period,\n        address _token,\n        bytes32 _agreementHash)\n    public returns(bytes32 lockingId) {\n\n        uint256 numerator;\n        uint256 denominator;\n\n        (numerator, denominator) = priceOracleContract.getPrice(_token);\n\n        require(numerator > 0, \"numerator should be > 0\");\n        require(denominator > 0, \"denominator should be > 0\");\n\n        _token.safeTransferFrom(msg.sender, address(this), _amount);\n\n        lockingId = super._lock(_amount, _period, msg.sender, numerator, denominator, _agreementHash);\n\n        lockedTokens[lockingId] = _token;\n\n        emit LockToken(lockingId, _token, numerator, denominator);\n    }\n}\n",
  "sourcePath": "/Users/oren/daostack/arc/contracts/schemes/LockingToken4Reputation.sol",
  "compiler": {
    "name": "solc",
    "version": "0.5.4+commit.9549d8ff.Emscripten.clang"
  },
  "schemaVersion": "3.0.6",
  "updatedAt": "2019-04-28T13:42:54.891Z",
  "devdoc": {
    "methods": {
      "getAgreementHash()": {
        "details": "getAgreementHash",
        "return": "bytes32 agreementHash"
      },
      "initialize(address,uint256,uint256,uint256,uint256,uint256,address,bytes32)": {
        "details": "initialize",
        "params": {
          "_avatar": "the avatar to mint reputation from",
          "_lockingEndTime": "the locking end time.       locking is disable after this time.",
          "_lockingStartTime": "locking starting period time.",
          "_maxLockingPeriod": "maximum locking period allowed.",
          "_priceOracleContract": "the price oracle contract which the locked token will be       validated against",
          "_redeemEnableTime": "redeem enable time .       redeem reputation can be done after this time.",
          "_reputationReward": "the total reputation this contract will reward       for the token locking"
        }
      },
      "lock(uint256,uint256,address,bytes32)": {
        "details": "lock function",
        "params": {
          "_amount": "the amount to lock",
          "_period": "the locking period",
          "_token": "the token to lock - this should be whitelisted at the priceOracleContract"
        },
        "return": "lockingId"
      },
      "redeem(address)": {
        "details": "redeem reputation function",
        "params": {
          "_beneficiary": "the beneficiary for the release"
        },
        "return": "uint256 reputation rewarded"
      },
      "release(address,bytes32)": {
        "details": "release locked tokens",
        "params": {
          "_beneficiary": "the release _beneficiary",
          "_lockingId": "the locking id"
        },
        "return": "bool"
      }
    },
    "title": "A scheme for locking ERC20 Tokens for reputation"
  },
  "userdoc": {
    "methods": {}
  }
}