{
  "contractName": "TokenCapGC",
  "abi": [
    {
      "constant": true,
      "inputs": [
        {
          "name": "",
          "type": "bytes32"
        }
      ],
      "name": "parameters",
      "outputs": [
        {
          "name": "token",
          "type": "address"
        },
        {
          "name": "cap",
          "type": "uint256"
        }
      ],
      "payable": false,
      "stateMutability": "view",
      "type": "function"
    },
    {
      "constant": false,
      "inputs": [
        {
          "name": "_token",
          "type": "address"
        },
        {
          "name": "_cap",
          "type": "uint256"
        }
      ],
      "name": "setParameters",
      "outputs": [
        {
          "name": "",
          "type": "bytes32"
        }
      ],
      "payable": false,
      "stateMutability": "nonpayable",
      "type": "function"
    },
    {
      "constant": true,
      "inputs": [
        {
          "name": "_token",
          "type": "address"
        },
        {
          "name": "_cap",
          "type": "uint256"
        }
      ],
      "name": "getParametersHash",
      "outputs": [
        {
          "name": "",
          "type": "bytes32"
        }
      ],
      "payable": false,
      "stateMutability": "pure",
      "type": "function"
    },
    {
      "constant": true,
      "inputs": [
        {
          "name": "",
          "type": "address"
        },
        {
          "name": "",
          "type": "bytes32"
        },
        {
          "name": "",
          "type": "bytes32"
        }
      ],
      "name": "pre",
      "outputs": [
        {
          "name": "",
          "type": "bool"
        }
      ],
      "payable": false,
      "stateMutability": "pure",
      "type": "function"
    },
    {
      "constant": true,
      "inputs": [
        {
          "name": "",
          "type": "address"
        },
        {
          "name": "_paramsHash",
          "type": "bytes32"
        },
        {
          "name": "",
          "type": "bytes32"
        }
      ],
      "name": "post",
      "outputs": [
        {
          "name": "",
          "type": "bool"
        }
      ],
      "payable": false,
      "stateMutability": "view",
      "type": "function"
    },
    {
      "constant": true,
      "inputs": [],
      "name": "when",
      "outputs": [
        {
          "name": "",
          "type": "uint8"
        }
      ],
      "payable": false,
      "stateMutability": "pure",
      "type": "function"
    }
  ],
  "bytecode": "0x608060405234801561001057600080fd5b5061039f806100206000396000f3fe608060405234801561001057600080fd5b506004361061007e577c0100000000000000000000000000000000000000000000000000000000600035046302506804811461008357806378fc063c146100c35780638043154d14610101578063c1786ab214610147578063c419816114610179578063e2b0caef146101a5575b600080fd5b6100a06004803603602081101561009957600080fd5b50356101d1565b60408051600160a060020a03909316835260208301919091528051918290030190f35b6100ef600480360360408110156100d957600080fd5b50600160a060020a0381351690602001356101f6565b60408051918252519081900360200190f35b6101336004803603606081101561011757600080fd5b50600160a060020a038135169060208101359060400135610240565b604080519115158252519081900360200190f35b6101336004803603606081101561015d57600080fd5b50600160a060020a038135169060208101359060400135610313565b6100ef6004803603604081101561018f57600080fd5b50600160a060020a03813516906020013561031c565b6101ad61036e565b604051808260028111156101bd57fe5b60ff16815260200191505060405180910390f35b60006020819052908152604090208054600190910154600160a060020a039091169082565b60408051600160a060020a03939093166c01000000000000000000000000026020808501919091526034808501939093528151808503909301835260549093019052805191012090565b600082815260208190526040812054600160a060020a0316158015906102fb5750600083815260208181526040918290206001810154905483517f18160ddd00000000000000000000000000000000000000000000000000000000815293519193600160a060020a03909116926318160ddd92600480840193829003018186803b1580156102cd57600080fd5b505afa1580156102e1573d6000803e3d6000fd5b505050506040513d60208110156102f757600080fd5b5051115b156103085750600061030c565b5060015b9392505050565b60019392505050565b60008061032984846101f6565b60008181526020819052604090208054600160a060020a03871673ffffffffffffffffffffffffffffffffffffffff1990911617815560010184905591505092915050565b60019056fea165627a7a72305820165301708ececb4ff87981536ec18a32211a4bbcea17b87d8aae2043b8804c6b0029",
  "source": "pragma solidity ^0.5.4;\n\nimport \"openzeppelin-solidity/contracts/token/ERC20/IERC20.sol\";\nimport \"./GlobalConstraintInterface.sol\";\n\n\n/**\n * @title Token Cap Global Constraint\n * @dev A simple global constraint to cap the number of tokens.\n */\n\ncontract TokenCapGC {\n    // A set of parameters, on which the cap will be checked:\n    struct Parameters {\n        IERC20 token;\n        uint256 cap;\n    }\n\n    // Mapping from the hash of the parameters to the parameters themselves:\n    mapping (bytes32=>Parameters) public parameters;\n\n    /**\n     * @dev adding a new set of parameters\n     * @param  _token the token to add to the params.\n     * @param _cap the cap to check the total supply against.\n     * @return the calculated parameters hash\n     */\n    function setParameters(IERC20 _token, uint256 _cap) public returns(bytes32) {\n        bytes32 paramsHash = getParametersHash(_token, _cap);\n        parameters[paramsHash].token = _token;\n        parameters[paramsHash].cap = _cap;\n        return paramsHash;\n    }\n\n    /**\n     * @dev calculate and returns the hash of the given parameters\n     * @param  _token the token to add to the params.\n     * @param _cap the cap to check the total supply against.\n     * @return the calculated parameters hash\n     */\n    function getParametersHash(IERC20 _token, uint256 _cap) public pure returns(bytes32) {\n        return (keccak256(abi.encodePacked(_token, _cap)));\n    }\n\n    /**\n     * @dev check the constraint after the action.\n     * This global constraint only checks the state after the action, so here we just return true:\n     * @return true\n     */\n    function pre(address, bytes32, bytes32) public pure returns(bool) {\n        return true;\n    }\n\n    /**\n     * @dev check the total supply cap.\n     * @param  _paramsHash the parameters hash to check the total supply cap against.\n     * @return bool which represents a success\n     */\n    function post(address, bytes32 _paramsHash, bytes32) public view returns(bool) {\n        if ((parameters[_paramsHash].token != IERC20(0)) &&\n            (parameters[_paramsHash].token.totalSupply() > parameters[_paramsHash].cap)) {\n            return false;\n        }\n        return true;\n    }\n\n    /**\n     * @dev when return if this globalConstraints is pre, post or both.\n     * @return CallPhase enum indication  Pre, Post or PreAndPost.\n     */\n    function when() public pure returns(GlobalConstraintInterface.CallPhase) {\n        return GlobalConstraintInterface.CallPhase.Post;\n    }\n}\n",
  "sourcePath": "/Users/oren/daostack/arc/contracts/globalConstraints/TokenCapGC.sol",
  "compiler": {
    "name": "solc",
    "version": "0.5.4+commit.9549d8ff.Emscripten.clang"
  },
  "schemaVersion": "3.0.6",
  "updatedAt": "2019-04-28T13:42:54.871Z",
  "devdoc": {
    "details": "A simple global constraint to cap the number of tokens.",
    "methods": {
      "getParametersHash(address,uint256)": {
        "details": "calculate and returns the hash of the given parameters",
        "params": {
          "_cap": "the cap to check the total supply against.",
          "_token": "the token to add to the params."
        },
        "return": "the calculated parameters hash"
      },
      "post(address,bytes32,bytes32)": {
        "details": "check the total supply cap.",
        "params": {
          "_paramsHash": "the parameters hash to check the total supply cap against."
        },
        "return": "bool which represents a success"
      },
      "pre(address,bytes32,bytes32)": {
        "details": "check the constraint after the action. This global constraint only checks the state after the action, so here we just return true:",
        "return": "true"
      },
      "setParameters(address,uint256)": {
        "details": "adding a new set of parameters",
        "params": {
          "_cap": "the cap to check the total supply against.",
          "_token": "the token to add to the params."
        },
        "return": "the calculated parameters hash"
      },
      "when()": {
        "details": "when return if this globalConstraints is pre, post or both.",
        "return": "CallPhase enum indication  Pre, Post or PreAndPost."
      }
    },
    "title": "Token Cap Global Constraint"
  },
  "userdoc": {
    "methods": {}
  }
}