{
  "contractName": "ARCVotingMachineCallbacksMock",
  "abi": [
    {
      "constant": true,
      "inputs": [
        {
          "name": "",
          "type": "address"
        },
        {
          "name": "",
          "type": "bytes32"
        }
      ],
      "name": "proposalsInfo",
      "outputs": [
        {
          "name": "blockNumber",
          "type": "uint256"
        },
        {
          "name": "avatar",
          "type": "address"
        }
      ],
      "payable": false,
      "stateMutability": "view",
      "type": "function"
    },
    {
      "constant": true,
      "inputs": [
        {
          "name": "_stakingToken",
          "type": "address"
        },
        {
          "name": "_proposalId",
          "type": "bytes32"
        }
      ],
      "name": "balanceOfStakingToken",
      "outputs": [
        {
          "name": "",
          "type": "uint256"
        }
      ],
      "payable": false,
      "stateMutability": "view",
      "type": "function"
    },
    {
      "constant": true,
      "inputs": [
        {
          "name": "_owner",
          "type": "address"
        },
        {
          "name": "_proposalId",
          "type": "bytes32"
        }
      ],
      "name": "reputationOf",
      "outputs": [
        {
          "name": "",
          "type": "uint256"
        }
      ],
      "payable": false,
      "stateMutability": "view",
      "type": "function"
    },
    {
      "constant": true,
      "inputs": [
        {
          "name": "_proposalId",
          "type": "bytes32"
        }
      ],
      "name": "getTotalReputationSupply",
      "outputs": [
        {
          "name": "",
          "type": "uint256"
        }
      ],
      "payable": false,
      "stateMutability": "view",
      "type": "function"
    },
    {
      "constant": false,
      "inputs": [
        {
          "name": "_stakingToken",
          "type": "address"
        },
        {
          "name": "_beneficiary",
          "type": "address"
        },
        {
          "name": "_amount",
          "type": "uint256"
        },
        {
          "name": "_proposalId",
          "type": "bytes32"
        }
      ],
      "name": "stakingTokenTransfer",
      "outputs": [
        {
          "name": "",
          "type": "bool"
        }
      ],
      "payable": false,
      "stateMutability": "nonpayable",
      "type": "function"
    },
    {
      "constant": false,
      "inputs": [
        {
          "name": "_amount",
          "type": "uint256"
        },
        {
          "name": "_beneficiary",
          "type": "address"
        },
        {
          "name": "_proposalId",
          "type": "bytes32"
        }
      ],
      "name": "mintReputation",
      "outputs": [
        {
          "name": "",
          "type": "bool"
        }
      ],
      "payable": false,
      "stateMutability": "nonpayable",
      "type": "function"
    },
    {
      "constant": false,
      "inputs": [
        {
          "name": "_amount",
          "type": "uint256"
        },
        {
          "name": "_beneficiary",
          "type": "address"
        },
        {
          "name": "_proposalId",
          "type": "bytes32"
        }
      ],
      "name": "burnReputation",
      "outputs": [
        {
          "name": "",
          "type": "bool"
        }
      ],
      "payable": false,
      "stateMutability": "nonpayable",
      "type": "function"
    },
    {
      "constant": false,
      "inputs": [
        {
          "name": "_proposalId",
          "type": "bytes32"
        },
        {
          "name": "_avatar",
          "type": "address"
        },
        {
          "name": "_votingMachine",
          "type": "address"
        }
      ],
      "name": "propose",
      "outputs": [],
      "payable": false,
      "stateMutability": "nonpayable",
      "type": "function"
    }
  ],
  "bytecode": "0x608060405234801561001057600080fd5b50610bd5806100206000396000f3fe608060405234801561001057600080fd5b506004361061008c5760003560e060020a90048063b8752ba31161005f578063b8752ba314610165578063bea75f281461019b578063d29b5d2f146101eb578063f81f8bf61461021d5761008c565b806360bdbb3f146100915780636b8eb403146100de5780639588378e1461011c578063b551c37314610148575b600080fd5b6100bd600480360360408110156100a757600080fd5b50600160a060020a03813516906020013561024f565b60408051928352600160a060020a0390911660208301528051918290030190f35b61010a600480360360408110156100f457600080fd5b50600160a060020a038135169060200135610279565b60408051918252519081900360200190f35b61010a6004803603604081101561013257600080fd5b50600160a060020a03813516906020013561033e565b61010a6004803603602081101561015e57600080fd5b503561046a565b6101996004803603606081101561017b57600080fd5b50803590600160a060020a03602082013581169160400135166105c2565b005b6101d7600480360360808110156101b157600080fd5b50600160a060020a03813581169160208101359091169060408101359060600135610627565b604080519115158252519081900360200190f35b6101d76004803603606081101561020157600080fd5b50803590600160a060020a03602082013516906040013561080e565b6101d76004803603606081101561023357600080fd5b50803590600160a060020a0360208201351690604001356109ec565b600060208181529281526040808220909352908152208054600190910154600160a060020a031682565b33600090815260208181526040808320848452909152812060010154600160a060020a03168015156102af576000915050610338565b83600160a060020a03166370a08231826040518263ffffffff1660e060020a0281526004018082600160a060020a0316600160a060020a0316815260200191505060206040518083038186803b15801561030857600080fd5b505afa15801561031c573d6000803e3d6000fd5b505050506040513d602081101561033257600080fd5b50519150505b92915050565b6000610348610b92565b503360009081526020818152604080832085845282529182902082518084019093528054835260010154600160a060020a03169082018190521515610391576000915050610338565b8060200151600160a060020a03166389ae1c906040518163ffffffff1660e060020a02815260040160206040518083038186803b1580156103d157600080fd5b505afa1580156103e5573d6000803e3d6000fd5b505050506040513d60208110156103fb57600080fd5b50518151604080517f4ee2cd7e000000000000000000000000000000000000000000000000000000008152600160a060020a038881166004830152602482019390935290519190921691634ee2cd7e916044808301926020929190829003018186803b15801561030857600080fd5b6000610474610b92565b503360009081526020818152604080832085845282529182902082518084019093528054835260010154600160a060020a031690820181905215156104bd5760009150506105bd565b8060200151600160a060020a03166389ae1c906040518163ffffffff1660e060020a02815260040160206040518083038186803b1580156104fd57600080fd5b505afa158015610511573d6000803e3d6000fd5b505050506040513d602081101561052757600080fd5b50518151604080517f981b24d0000000000000000000000000000000000000000000000000000000008152600481019290925251600160a060020a039092169163981b24d091602480820192602092909190829003018186803b15801561058d57600080fd5b505afa1580156105a1573d6000803e3d6000fd5b505050506040513d60208110156105b757600080fd5b50519150505b919050565b604080518082018252438152600160a060020a039384166020808301918252938516600090815280855283812096815295909352932092518355516001909201805473ffffffffffffffffffffffffffffffffffffffff191692909116919091179055565b336000908152602081815260408083208484529091528120600101548290600160a060020a031615156106bb57604080517f08c379a000000000000000000000000000000000000000000000000000000000815260206004820152601260248201527f6f6e6c7920566f74696e674d616368696e650000000000000000000000000000604482015290519081900360640190fd5b33600090815260208181526040808320868452909152902060010154600160a060020a03168015156106f1576000925050610805565b80600160a060020a0316638da5cb5b6040518163ffffffff1660e060020a02815260040160206040518083038186803b15801561072d57600080fd5b505afa158015610741573d6000803e3d6000fd5b505050506040513d602081101561075757600080fd5b5051604080517fb9a04cdd000000000000000000000000000000000000000000000000000000008152600160a060020a038a8116600483015289811660248301526044820189905284811660648301529151919092169163b9a04cdd9160848083019260209291908290030181600087803b1580156107d557600080fd5b505af11580156107e9573d6000803e3d6000fd5b505050506040513d60208110156107ff57600080fd5b50519250505b50949350505050565b336000908152602081815260408083208484529091528120600101548290600160a060020a031615156108a257604080517f08c379a000000000000000000000000000000000000000000000000000000000815260206004820152601260248201527f6f6e6c7920566f74696e674d616368696e650000000000000000000000000000604482015290519081900360640190fd5b33600090815260208181526040808320868452909152902060010154600160a060020a03168015156108d85760009250506109e4565b80600160a060020a0316638da5cb5b6040518163ffffffff1660e060020a02815260040160206040518083038186803b15801561091457600080fd5b505afa158015610928573d6000803e3d6000fd5b505050506040513d602081101561093e57600080fd5b5051604080517feaf994b200000000000000000000000000000000000000000000000000000000815260048101899052600160a060020a03888116602483015284811660448301529151919092169163eaf994b29160648083019260209291908290030181600087803b1580156109b457600080fd5b505af11580156109c8573d6000803e3d6000fd5b505050506040513d60208110156109de57600080fd5b50519250505b509392505050565b336000908152602081815260408083208484529091528120600101548290600160a060020a03161515610a8057604080517f08c379a000000000000000000000000000000000000000000000000000000000815260206004820152601260248201527f6f6e6c7920566f74696e674d616368696e650000000000000000000000000000604482015290519081900360640190fd5b33600090815260208181526040808320868452909152902060010154600160a060020a0316801515610ab65760009250506109e4565b80600160a060020a0316638da5cb5b6040518163ffffffff1660e060020a02815260040160206040518083038186803b158015610af257600080fd5b505afa158015610b06573d6000803e3d6000fd5b505050506040513d6020811015610b1c57600080fd5b5051604080517f6e94d27800000000000000000000000000000000000000000000000000000000815260048101899052600160a060020a038881166024830152848116604483015291519190921691636e94d2789160648083019260209291908290030181600087803b1580156109b457600080fd5b60408051808201909152600080825260208201529056fea165627a7a7230582053d76a2597f0241c08d2c0d0ad4be495dc64764b57829a8362510e7ba65e389d0029",
  "source": "pragma solidity ^0.5.4;\n\nimport \"../votingMachines/VotingMachineCallbacks.sol\";\n\n\ncontract ARCVotingMachineCallbacksMock is VotingMachineCallbacks {\n\n    function propose(bytes32 _proposalId, Avatar _avatar, address _votingMachine) public {\n        proposalsInfo[_votingMachine][_proposalId] = ProposalInfo({\n            blockNumber:block.number,\n            avatar:_avatar\n        });\n    }\n}\n",
  "sourcePath": "/Users/oren/daostack/daostack2/daostack/contracts/test/ARCGenesisProtocolCallbacksMock.sol",
  "compiler": {
    "name": "solc",
    "version": "0.5.4+commit.9549d8ff.Emscripten.clang"
  },
  "schemaVersion": "3.0.2",
  "updatedAt": "2019-04-08T06:30:27.670Z",
  "devdoc": {
    "methods": {}
  },
  "userdoc": {
    "methods": {}
  }
}