{
  "contractName": "Auction4Reputation",
  "abi": [
    {
      "constant": true,
      "inputs": [],
      "name": "auctionPeriod",
      "outputs": [
        {
          "name": "",
          "type": "uint256"
        }
      ],
      "payable": false,
      "stateMutability": "view",
      "type": "function"
    },
    {
      "constant": true,
      "inputs": [],
      "name": "auctionReputationReward",
      "outputs": [
        {
          "name": "",
          "type": "uint256"
        }
      ],
      "payable": false,
      "stateMutability": "view",
      "type": "function"
    },
    {
      "constant": true,
      "inputs": [],
      "name": "redeemEnableTime",
      "outputs": [
        {
          "name": "",
          "type": "uint256"
        }
      ],
      "payable": false,
      "stateMutability": "view",
      "type": "function"
    },
    {
      "constant": true,
      "inputs": [],
      "name": "numberOfAuctions",
      "outputs": [
        {
          "name": "",
          "type": "uint256"
        }
      ],
      "payable": false,
      "stateMutability": "view",
      "type": "function"
    },
    {
      "constant": true,
      "inputs": [],
      "name": "wallet",
      "outputs": [
        {
          "name": "",
          "type": "address"
        }
      ],
      "payable": false,
      "stateMutability": "view",
      "type": "function"
    },
    {
      "constant": true,
      "inputs": [],
      "name": "auctionsEndTime",
      "outputs": [
        {
          "name": "",
          "type": "uint256"
        }
      ],
      "payable": false,
      "stateMutability": "view",
      "type": "function"
    },
    {
      "constant": true,
      "inputs": [
        {
          "name": "",
          "type": "uint256"
        }
      ],
      "name": "auctions",
      "outputs": [
        {
          "name": "totalBid",
          "type": "uint256"
        }
      ],
      "payable": false,
      "stateMutability": "view",
      "type": "function"
    },
    {
      "constant": true,
      "inputs": [],
      "name": "avatar",
      "outputs": [
        {
          "name": "",
          "type": "address"
        }
      ],
      "payable": false,
      "stateMutability": "view",
      "type": "function"
    },
    {
      "constant": true,
      "inputs": [],
      "name": "auctionsStartTime",
      "outputs": [
        {
          "name": "",
          "type": "uint256"
        }
      ],
      "payable": false,
      "stateMutability": "view",
      "type": "function"
    },
    {
      "constant": true,
      "inputs": [],
      "name": "reputationRewardLeft",
      "outputs": [
        {
          "name": "",
          "type": "uint256"
        }
      ],
      "payable": false,
      "stateMutability": "view",
      "type": "function"
    },
    {
      "constant": true,
      "inputs": [],
      "name": "token",
      "outputs": [
        {
          "name": "",
          "type": "address"
        }
      ],
      "payable": false,
      "stateMutability": "view",
      "type": "function"
    },
    {
      "anonymous": false,
      "inputs": [
        {
          "indexed": true,
          "name": "_bidder",
          "type": "address"
        },
        {
          "indexed": true,
          "name": "_auctionId",
          "type": "uint256"
        },
        {
          "indexed": false,
          "name": "_amount",
          "type": "uint256"
        }
      ],
      "name": "Bid",
      "type": "event"
    },
    {
      "anonymous": false,
      "inputs": [
        {
          "indexed": true,
          "name": "_auctionId",
          "type": "uint256"
        },
        {
          "indexed": true,
          "name": "_beneficiary",
          "type": "address"
        },
        {
          "indexed": false,
          "name": "_amount",
          "type": "uint256"
        }
      ],
      "name": "Redeem",
      "type": "event"
    },
    {
      "constant": false,
      "inputs": [
        {
          "name": "_avatar",
          "type": "address"
        },
        {
          "name": "_auctionReputationReward",
          "type": "uint256"
        },
        {
          "name": "_auctionsStartTime",
          "type": "uint256"
        },
        {
          "name": "_auctionPeriod",
          "type": "uint256"
        },
        {
          "name": "_numberOfAuctions",
          "type": "uint256"
        },
        {
          "name": "_redeemEnableTime",
          "type": "uint256"
        },
        {
          "name": "_token",
          "type": "address"
        },
        {
          "name": "_wallet",
          "type": "address"
        }
      ],
      "name": "initialize",
      "outputs": [],
      "payable": false,
      "stateMutability": "nonpayable",
      "type": "function"
    },
    {
      "constant": false,
      "inputs": [
        {
          "name": "_beneficiary",
          "type": "address"
        },
        {
          "name": "_auctionId",
          "type": "uint256"
        }
      ],
      "name": "redeem",
      "outputs": [
        {
          "name": "reputation",
          "type": "uint256"
        }
      ],
      "payable": false,
      "stateMutability": "nonpayable",
      "type": "function"
    },
    {
      "constant": false,
      "inputs": [
        {
          "name": "_amount",
          "type": "uint256"
        },
        {
          "name": "_auctionId",
          "type": "uint256"
        }
      ],
      "name": "bid",
      "outputs": [
        {
          "name": "auctionId",
          "type": "uint256"
        }
      ],
      "payable": false,
      "stateMutability": "nonpayable",
      "type": "function"
    },
    {
      "constant": true,
      "inputs": [
        {
          "name": "_bidder",
          "type": "address"
        },
        {
          "name": "_auctionId",
          "type": "uint256"
        }
      ],
      "name": "getBid",
      "outputs": [
        {
          "name": "",
          "type": "uint256"
        }
      ],
      "payable": false,
      "stateMutability": "view",
      "type": "function"
    },
    {
      "constant": false,
      "inputs": [],
      "name": "transferToWallet",
      "outputs": [],
      "payable": false,
      "stateMutability": "nonpayable",
      "type": "function"
    }
  ],
  "bytecode": "0x608060405234801561001057600080fd5b506110e3806100206000396000f3fe608060405234801561001057600080fd5b506004361061011d576000357c010000000000000000000000000000000000000000000000000000000090048063521eb273116100b45780635aef7de6116100835780635aef7de6146102775780639abc03d21461027f578063afe0e33c14610287578063fc0c546a1461028f5761011d565b8063521eb2731461020b57806356e492871461022f578063571a26a014610237578063598647f8146102545761011d565b80632737033f116100f05780632737033f1461019c5780633d1678f4146101f35780634870b81d146101fb57806350d9d472146102035761011d565b80630cccfc581461012257806311c4dbf41461013c57806316ab2b03146101445780631e9a695014610170575b600080fd5b61012a610297565b60408051918252519081900360200190f35b61012a61029d565b61012a6004803603604081101561015a57600080fd5b50600160a060020a0381351690602001356102a3565b61012a6004803603604081101561018657600080fd5b50600160a060020a0381351690602001356102ce565b6101f160048036036101008110156101b357600080fd5b50600160a060020a03813581169160208101359160408201359160608101359160808201359160a08101359160c082013581169160e00135166105d3565b005b61012a610803565b6101f1610809565b61012a61091b565b610213610921565b60408051600160a060020a039092168252519081900360200190f35b61012a610930565b61012a6004803603602081101561024d57600080fd5b5035610936565b61012a6004803603604081101561026a57600080fd5b5080359060200135610948565b610213610b46565b61012a610b55565b61012a610b5b565b610213610b61565b60075481565b60065481565b600081815260208181526040808320600160a060020a03861684526001019091529020545b92915050565b600854600090421161032a576040805160e560020a62461bcd02815260206004820152601660248201527f6e6f77203e2072656465656d456e61626c6554696d6500000000000000000000604482015290519081900360640190fd5b600082815260208181526040808320600160a060020a038716845260018101909252822054909181116103a7576040805160e560020a62461bcd02815260206004820152601c60248201527f62696464696e6720616d6f756e742073686f756c64206265203e203000000000604482015290519081900360640190fd5b600160a060020a038516600090815260018301602052604081208190556006546103d890839063ffffffff610b7016565b83549091506103ee90829063ffffffff610ba216565b600254909450610404908563ffffffff610bc616565b600255600154604080517f8da5cb5b0000000000000000000000000000000000000000000000000000000081529051600160a060020a0390921691638da5cb5b91600480820192602092909190829003018186803b15801561046557600080fd5b505afa158015610479573d6000803e3d6000fd5b505050506040513d602081101561048f57600080fd5b5051600154604080517feaf994b200000000000000000000000000000000000000000000000000000000815260048101889052600160a060020a038a8116602483015292831660448201529051919092169163eaf994b29160648083019260209291908290030181600087803b15801561050857600080fd5b505af115801561051c573d6000803e3d6000fd5b505050506040513d602081101561053257600080fd5b5051151561058a576040805160e560020a62461bcd02815260206004820152601e60248201527f6d696e742072657075746174696f6e2073686f756c6420737563636565640000604482015290519081900360640190fd5b604080518581529051600160a060020a0388169187917f1069ba7d3dd3d969eada9a014b1e1a8e2ab1ef7f38989db8ce98e698ac844f659181900360200190a350505092915050565b600154600160a060020a031615610634576040805160e560020a62461bcd02815260206004820152601b60248201527f63616e2062652063616c6c6564206f6e6c79206f6e652074696d650000000000604482015290519081900360640190fd5b600160a060020a0388161515610694576040805160e560020a62461bcd02815260206004820152601560248201527f6176617461722063616e6e6f74206265207a65726f0000000000000000000000604482015290519081900360640190fd5b600084116106d65760405160e560020a62461bcd0281526004018080602001828103825260218152602001806110976021913960400191505060405180910390fd5b600f851161072e576040805160e560020a62461bcd02815260206004820152601c60248201527f61756374696f6e506572696f642073686f756c64206265203e20313500000000604482015290519081900360640190fd5b6007859055610743858563ffffffff610b7016565b8601600381905583101561078b5760405160e560020a62461bcd0281526004018080602001828103825260248152602001806110186024913960400191505060405180910390fd5b60098054600160a060020a0380851673ffffffffffffffffffffffffffffffffffffffff1992831617909255600180548b841690831617905560048890556005869055600a80549284169290911691909117905560068790556107f4878563ffffffff610b7016565b60025550506008555050505050565b60085481565b6003544211610862576040805160e560020a62461bcd02815260206004820152601560248201527f6e6f77203e2061756374696f6e73456e6454696d650000000000000000000000604482015290519081900360640190fd5b600954604080517f70a082310000000000000000000000000000000000000000000000000000000081523060048201529051600092600160a060020a0316916370a08231916024808301926020929190829003018186803b1580156108c657600080fd5b505afa1580156108da573d6000803e3d6000fd5b505050506040513d60208110156108f057600080fd5b5051600a5460095491925061091891600160a060020a0390811691168363ffffffff610bdb16565b50565b60055481565b600a54600160a060020a031681565b60035481565b60006020819052908152604090205481565b60008083116109a1576040805160e560020a62461bcd02815260206004820152601c60248201527f62696464696e6720616d6f756e742073686f756c64206265203e203000000000604482015290519081900360640190fd5b60035442106109e45760405160e560020a62461bcd028152600401808060200182810382526033815260200180610fe56033913960400191505060405180910390fd5b600454421015610a285760405160e560020a62461bcd0281526004018080602001828103825260368152602001806110616036913960400191505060405180910390fd5b600954610a4690600160a060020a031633308663ffffffff610dd216565b6007546004544203811515610a5757fe5b049050818114610ab1576040805160e560020a62461bcd02815260206004820152601560248201527f61756374696f6e206973206e6f74206163746976650000000000000000000000604482015290519081900360640190fd5b60008181526020819052604090208054610ad1908563ffffffff610fca16565b8155336000908152600182016020526040902054610af5908563ffffffff610fca16565b336000818152600184016020908152604091829020939093558051878152905185937f19421268847f42dd61705778018ddfc43bcdce8517e7a630acb12f122c709481928290030190a35092915050565b600154600160a060020a031681565b60045481565b60025481565b600954600160a060020a031681565b6000821515610b81575060006102c8565b828202828482811515610b9057fe5b0414610b9b57600080fd5b9392505050565b6000808211610bb057600080fd5b60008284811515610bbd57fe5b04949350505050565b600082821115610bd557600080fd5b50900390565b610bed83600160a060020a0316610fdc565b1515610bf857600080fd5b604080518082018252601981527f7472616e7366657228616464726573732c75696e7432353629000000000000006020918201528151600160a060020a0385811660248301526044808301869052845180840390910181526064909201845291810180517bffffffffffffffffffffffffffffffffffffffffffffffffffffffff167fa9059cbb000000000000000000000000000000000000000000000000000000001781529251815160009460609489169392918291908083835b60208310610cd35780518252601f199092019160209182019101610cb4565b6001836020036101000a0380198251168184511680821785525050505050509050019150506000604051808303816000865af19150503d8060008114610d35576040519150601f19603f3d011682016040523d82523d6000602084013e610d3a565b606091505b5091509150811515610d4b57600080fd5b80511580610dc0575080516020148015610dc0575080601f815181101515610d6f57fe5b6020910101517f010000000000000000000000000000000000000000000000000000000000000090819004027fff000000000000000000000000000000000000000000000000000000000000001615155b1515610dcb57600080fd5b5050505050565b610de484600160a060020a0316610fdc565b1515610def57600080fd5b6000606085600160a060020a03166060604051908101604052806025815260200161103c60259139805160209182012060408051600160a060020a03808b166024830152891660448201526064808201899052825180830390910181526084909101825292830180517bffffffffffffffffffffffffffffffffffffffffffffffffffffffff167fffffffff00000000000000000000000000000000000000000000000000000000909316929092178252518251909182918083835b60208310610eca5780518252601f199092019160209182019101610eab565b6001836020036101000a0380198251168184511680821785525050505050509050019150506000604051808303816000865af19150503d8060008114610f2c576040519150601f19603f3d011682016040523d82523d6000602084013e610f31565b606091505b5091509150811515610f4257600080fd5b80511580610fb7575080516020148015610fb7575080601f815181101515610f6657fe5b6020910101517f010000000000000000000000000000000000000000000000000000000000000090819004027fff000000000000000000000000000000000000000000000000000000000000001615155b1515610fc257600080fd5b505050505050565b600082820183811015610b9b57600080fd5b6000903b119056fe62696464696e672073686f756c642062652077697468696e2074686520616c6c6f7765642062696464696e6720706572696f645f72656465656d456e61626c6554696d65203e3d2061756374696f6e73456e6454696d657472616e7366657246726f6d28616464726573732c616464726573732c75696e743235362962696464696e6720697320656e61626c65206f6e6c792061667465722062696464696e672061756374696f6e73537461727454696d656e756d626572206f662061756374696f6e732063616e6e6f74206265207a65726fa165627a7a7230582059a0f0b4928f0a9cabb61b6bbd36fb82fae414a21575635580d260f46c610ecf0029",
  "source": "pragma solidity ^0.5.4;\n\nimport \"openzeppelin-solidity/contracts/math/SafeMath.sol\";\nimport \"../controller/ControllerInterface.sol\";\nimport \"../libs/SafeERC20.sol\";\n\n/**\n * @title A scheme for conduct ERC20 Tokens auction for reputation\n */\n\n\ncontract Auction4Reputation {\n    using SafeMath for uint256;\n    using SafeERC20 for address;\n\n    event Bid(address indexed _bidder, uint256 indexed _auctionId, uint256 _amount);\n    event Redeem(uint256 indexed _auctionId, address indexed _beneficiary, uint256 _amount);\n\n    struct Auction {\n        uint256 totalBid;\n        // A mapping from bidder addresses to their bids.\n        mapping(address=>uint) bids;\n    }\n\n    // A mapping from auction index to auction.\n    mapping(uint=>Auction) public auctions;\n\n    Avatar public avatar;\n    uint256 public reputationRewardLeft;\n    uint256 public auctionsEndTime;\n    uint256 public auctionsStartTime;\n    uint256 public numberOfAuctions;\n    uint256 public auctionReputationReward;\n    uint256 public auctionPeriod;\n    uint256 public redeemEnableTime;\n    IERC20 public token;\n    address public wallet;\n\n    /**\n     * @dev initialize\n     * @param _avatar the avatar to mint reputation from\n     * @param _auctionReputationReward the reputation reward per auction this contract will reward\n     *        for the token locking\n     * @param _auctionsStartTime auctions period start time\n     * @param _auctionPeriod auctions period time.\n     *        auctionsEndTime is set to _auctionsStartTime + _auctionPeriod*_numberOfAuctions\n     *        bidding is disable after auctionsEndTime.\n     * @param _numberOfAuctions number of auctions.\n     * @param _redeemEnableTime redeem enable time .\n     *        redeem reputation can be done after this time.\n     * @param _token the bidding token\n     * @param  _wallet the address of the wallet the token will be transfer to.\n     *         Please note that _wallet address should be a trusted account.\n     *         Normally this address should be set as the DAO's avatar address.\n     */\n    function initialize(\n        Avatar _avatar,\n        uint256 _auctionReputationReward,\n        uint256 _auctionsStartTime,\n        uint256 _auctionPeriod,\n        uint256 _numberOfAuctions,\n        uint256 _redeemEnableTime,\n        IERC20 _token,\n        address _wallet)\n    external\n    {\n        require(avatar == Avatar(0), \"can be called only one time\");\n        require(_avatar != Avatar(0), \"avatar cannot be zero\");\n        require(_numberOfAuctions > 0, \"number of auctions cannot be zero\");\n        //_auctionPeriod should be greater than block interval\n        require(_auctionPeriod > 15, \"auctionPeriod should be > 15\");\n        auctionPeriod = _auctionPeriod;\n        auctionsEndTime = _auctionsStartTime + _auctionPeriod.mul(_numberOfAuctions);\n        require(_redeemEnableTime >= auctionsEndTime, \"_redeemEnableTime >= auctionsEndTime\");\n        token = _token;\n        avatar = _avatar;\n        auctionsStartTime = _auctionsStartTime;\n        numberOfAuctions = _numberOfAuctions;\n        wallet = _wallet;\n        auctionReputationReward = _auctionReputationReward;\n        reputationRewardLeft = _auctionReputationReward.mul(_numberOfAuctions);\n        redeemEnableTime = _redeemEnableTime;\n    }\n\n    /**\n     * @dev redeem reputation function\n     * @param _beneficiary the beneficiary to redeem.\n     * @param _auctionId the auction id to redeem from.\n     * @return uint256 reputation rewarded\n     */\n    function redeem(address _beneficiary, uint256 _auctionId) public returns(uint256 reputation) {\n        // solhint-disable-next-line not-rely-on-time\n        require(now > redeemEnableTime, \"now > redeemEnableTime\");\n        Auction storage auction = auctions[_auctionId];\n        uint256 bid = auction.bids[_beneficiary];\n        require(bid > 0, \"bidding amount should be > 0\");\n        auction.bids[_beneficiary] = 0;\n        uint256 repRelation = bid.mul(auctionReputationReward);\n        reputation = repRelation.div(auction.totalBid);\n        // check that the reputation is sum zero\n        reputationRewardLeft = reputationRewardLeft.sub(reputation);\n        require(\n        ControllerInterface(avatar.owner())\n        .mintReputation(reputation, _beneficiary, address(avatar)), \"mint reputation should succeed\");\n        emit Redeem(_auctionId, _beneficiary, reputation);\n    }\n\n    /**\n     * @dev bid function\n     * @param _amount the amount to bid with\n     * @param _auctionId the auction id to bid at .\n     * @return auctionId\n     */\n    function bid(uint256 _amount, uint256 _auctionId) public returns(uint256 auctionId) {\n        require(_amount > 0, \"bidding amount should be > 0\");\n        // solhint-disable-next-line not-rely-on-time\n        require(now < auctionsEndTime, \"bidding should be within the allowed bidding period\");\n        // solhint-disable-next-line not-rely-on-time\n        require(now >= auctionsStartTime, \"bidding is enable only after bidding auctionsStartTime\");\n        address(token).safeTransferFrom(msg.sender, address(this), _amount);\n        // solhint-disable-next-line not-rely-on-time\n        auctionId = (now - auctionsStartTime) / auctionPeriod;\n        require(auctionId == _auctionId, \"auction is not active\");\n        Auction storage auction = auctions[auctionId];\n        auction.totalBid = auction.totalBid.add(_amount);\n        auction.bids[msg.sender] = auction.bids[msg.sender].add(_amount);\n        emit Bid(msg.sender, auctionId, _amount);\n    }\n\n    /**\n     * @dev getBid get bid for specific bidder and _auctionId\n     * @param _bidder the bidder\n     * @param _auctionId auction id\n     * @return uint\n     */\n    function getBid(address _bidder, uint256 _auctionId) public view returns(uint256) {\n        return auctions[_auctionId].bids[_bidder];\n    }\n\n    /**\n     * @dev transferToWallet transfer the tokens to the wallet.\n     *      can be called only after auctionsEndTime\n     */\n    function transferToWallet() public {\n      // solhint-disable-next-line not-rely-on-time\n        require(now > auctionsEndTime, \"now > auctionsEndTime\");\n        uint256 tokenBalance = token.balanceOf(address(this));\n        address(token).safeTransfer(wallet, tokenBalance);\n    }\n\n}\n",
  "sourcePath": "/Users/oren/daostack/daostack2/daostack/contracts/schemes/Auction4Reputation.sol",
  "compiler": {
    "name": "solc",
    "version": "0.5.4+commit.9549d8ff.Emscripten.clang"
  },
  "schemaVersion": "3.0.2",
  "updatedAt": "2019-04-08T06:30:27.657Z",
  "devdoc": {
    "methods": {
      "bid(uint256,uint256)": {
        "details": "bid function",
        "params": {
          "_amount": "the amount to bid with",
          "_auctionId": "the auction id to bid at ."
        },
        "return": "auctionId"
      },
      "getBid(address,uint256)": {
        "details": "getBid get bid for specific bidder and _auctionId",
        "params": {
          "_auctionId": "auction id",
          "_bidder": "the bidder"
        },
        "return": "uint"
      },
      "initialize(address,uint256,uint256,uint256,uint256,uint256,address,address)": {
        "details": "initialize",
        "params": {
          "_auctionPeriod": "auctions period time.       auctionsEndTime is set to _auctionsStartTime + _auctionPeriod*_numberOfAuctions       bidding is disable after auctionsEndTime.",
          "_auctionReputationReward": "the reputation reward per auction this contract will reward       for the token locking",
          "_auctionsStartTime": "auctions period start time",
          "_avatar": "the avatar to mint reputation from",
          "_numberOfAuctions": "number of auctions.",
          "_redeemEnableTime": "redeem enable time .       redeem reputation can be done after this time.",
          "_token": "the bidding token",
          "_wallet": "the address of the wallet the token will be transfer to.        Please note that _wallet address should be a trusted account.        Normally this address should be set as the DAO's avatar address."
        }
      },
      "redeem(address,uint256)": {
        "details": "redeem reputation function",
        "params": {
          "_auctionId": "the auction id to redeem from.",
          "_beneficiary": "the beneficiary to redeem."
        },
        "return": "uint256 reputation rewarded"
      },
      "transferToWallet()": {
        "details": "transferToWallet transfer the tokens to the wallet.     can be called only after auctionsEndTime"
      }
    },
    "title": "A scheme for conduct ERC20 Tokens auction for reputation"
  },
  "userdoc": {
    "methods": {}
  }
}