{
  "contractName": "BadERC20",
  "abi": [
    {
      "constant": true,
      "inputs": [
        {
          "name": "",
          "type": "address"
        }
      ],
      "name": "balances",
      "outputs": [
        {
          "name": "",
          "type": "uint256"
        }
      ],
      "payable": false,
      "stateMutability": "view",
      "type": "function"
    },
    {
      "constant": true,
      "inputs": [
        {
          "name": "",
          "type": "address"
        },
        {
          "name": "",
          "type": "address"
        }
      ],
      "name": "allowance",
      "outputs": [
        {
          "name": "",
          "type": "uint256"
        }
      ],
      "payable": false,
      "stateMutability": "view",
      "type": "function"
    },
    {
      "constant": false,
      "inputs": [
        {
          "name": "_to",
          "type": "address"
        },
        {
          "name": "_value",
          "type": "uint256"
        }
      ],
      "name": "transfer",
      "outputs": [],
      "payable": false,
      "stateMutability": "nonpayable",
      "type": "function"
    },
    {
      "constant": false,
      "inputs": [
        {
          "name": "",
          "type": "address"
        },
        {
          "name": "_to",
          "type": "address"
        },
        {
          "name": "_value",
          "type": "uint256"
        }
      ],
      "name": "transferFrom",
      "outputs": [],
      "payable": false,
      "stateMutability": "nonpayable",
      "type": "function"
    },
    {
      "constant": false,
      "inputs": [
        {
          "name": "_spender",
          "type": "address"
        },
        {
          "name": "_value",
          "type": "uint256"
        }
      ],
      "name": "approve",
      "outputs": [],
      "payable": false,
      "stateMutability": "nonpayable",
      "type": "function"
    }
  ],
  "bytecode": "0x608060405234801561001057600080fd5b50610232806100206000396000f3fe608060405234801561001057600080fd5b5060043610610073577c01000000000000000000000000000000000000000000000000000000006000350463095ea7b3811461007857806323b872dd146100a657806327e235e3146100dc578063a9059cbb14610114578063dd62ed3e14610140575b600080fd5b6100a46004803603604081101561008e57600080fd5b50600160a060020a03813516906020013561016e565b005b6100a4600480360360608110156100bc57600080fd5b50600160a060020a03813581169160208101359091169060400135610198565b610102600480360360208110156100f257600080fd5b5035600160a060020a03166101bb565b60408051918252519081900360200190f35b6100a46004803603604081101561012a57600080fd5b50600160a060020a0381351690602001356101cd565b6101026004803603604081101561015657600080fd5b50600160a060020a03813581169160200135166101e9565b336000908152600160209081526040808320600160a060020a039590951683529390529190912055565b600160a060020a0390911660009081526020819052604090208054909101905550565b60006020819052908152604090205481565b600160a060020a03909116600090815260208190526040902055565b60016020908152600092835260408084209091529082529020548156fea165627a7a72305820e1afd0be12890db1f44d037a9189fe28943a5fab7b4274e32e83e79e4b9dbfb40029",
  "source": "pragma solidity ^0.5.4;\n\n//this is a mock to simulate bad ERC20 token implementation as describe at\n//https://github.com/ethereum/solidity/issues/4116\ncontract BadERC20 {\n\n    mapping(address => uint256) public balances;\n    mapping (address => mapping (address => uint256)) public allowance;\n\n    function transfer(address _to, uint256 _value) public {\n        balances[_to] = _value;\n    }\n\n    function transferFrom(address, address _to, uint256 _value) public {\n        balances[_to] += _value;\n    }\n\n    function approve(address _spender, uint256 _value) public {\n        allowance[msg.sender][_spender] = _value;\n    }\n\n}\n",
  "sourcePath": "/Users/oren/daostack/daostack2/daostack/contracts/test/BadERC20.sol",
  "compiler": {
    "name": "solc",
    "version": "0.5.4+commit.9549d8ff.Emscripten.clang"
  },
  "schemaVersion": "3.0.2",
  "updatedAt": "2019-04-08T06:30:27.671Z",
  "devdoc": {
    "methods": {}
  },
  "userdoc": {
    "methods": {}
  }
}