{
  "contractName": "ExternalLocking4Reputation",
  "abi": [
    {
      "constant": true,
      "inputs": [],
      "name": "redeemEnableTime",
      "outputs": [
        {
          "name": "",
          "type": "uint256"
        }
      ],
      "payable": false,
      "stateMutability": "view",
      "type": "function"
    },
    {
      "constant": true,
      "inputs": [],
      "name": "lockingStartTime",
      "outputs": [
        {
          "name": "",
          "type": "uint256"
        }
      ],
      "payable": false,
      "stateMutability": "view",
      "type": "function"
    },
    {
      "constant": true,
      "inputs": [],
      "name": "totalLocked",
      "outputs": [
        {
          "name": "",
          "type": "uint256"
        }
      ],
      "payable": false,
      "stateMutability": "view",
      "type": "function"
    },
    {
      "constant": true,
      "inputs": [],
      "name": "avatar",
      "outputs": [
        {
          "name": "",
          "type": "address"
        }
      ],
      "payable": false,
      "stateMutability": "view",
      "type": "function"
    },
    {
      "constant": true,
      "inputs": [
        {
          "name": "",
          "type": "address"
        }
      ],
      "name": "scores",
      "outputs": [
        {
          "name": "",
          "type": "uint256"
        }
      ],
      "payable": false,
      "stateMutability": "view",
      "type": "function"
    },
    {
      "constant": true,
      "inputs": [],
      "name": "externalLockingContract",
      "outputs": [
        {
          "name": "",
          "type": "address"
        }
      ],
      "payable": false,
      "stateMutability": "view",
      "type": "function"
    },
    {
      "constant": true,
      "inputs": [
        {
          "name": "",
          "type": "address"
        },
        {
          "name": "",
          "type": "bytes32"
        }
      ],
      "name": "lockers",
      "outputs": [
        {
          "name": "amount",
          "type": "uint256"
        },
        {
          "name": "releaseTime",
          "type": "uint256"
        }
      ],
      "payable": false,
      "stateMutability": "view",
      "type": "function"
    },
    {
      "constant": false,
      "inputs": [
        {
          "name": "_beneficiary",
          "type": "address"
        }
      ],
      "name": "redeem",
      "outputs": [
        {
          "name": "reputation",
          "type": "uint256"
        }
      ],
      "payable": false,
      "stateMutability": "nonpayable",
      "type": "function"
    },
    {
      "constant": true,
      "inputs": [],
      "name": "lockingEndTime",
      "outputs": [
        {
          "name": "",
          "type": "uint256"
        }
      ],
      "payable": false,
      "stateMutability": "view",
      "type": "function"
    },
    {
      "constant": true,
      "inputs": [],
      "name": "reputationRewardLeft",
      "outputs": [
        {
          "name": "",
          "type": "uint256"
        }
      ],
      "payable": false,
      "stateMutability": "view",
      "type": "function"
    },
    {
      "constant": true,
      "inputs": [],
      "name": "maxLockingPeriod",
      "outputs": [
        {
          "name": "",
          "type": "uint256"
        }
      ],
      "payable": false,
      "stateMutability": "view",
      "type": "function"
    },
    {
      "constant": true,
      "inputs": [],
      "name": "totalScore",
      "outputs": [
        {
          "name": "",
          "type": "uint256"
        }
      ],
      "payable": false,
      "stateMutability": "view",
      "type": "function"
    },
    {
      "constant": true,
      "inputs": [],
      "name": "lockingsCounter",
      "outputs": [
        {
          "name": "",
          "type": "uint256"
        }
      ],
      "payable": false,
      "stateMutability": "view",
      "type": "function"
    },
    {
      "constant": true,
      "inputs": [],
      "name": "totalLockedLeft",
      "outputs": [
        {
          "name": "",
          "type": "uint256"
        }
      ],
      "payable": false,
      "stateMutability": "view",
      "type": "function"
    },
    {
      "constant": true,
      "inputs": [
        {
          "name": "",
          "type": "address"
        }
      ],
      "name": "externalLockers",
      "outputs": [
        {
          "name": "",
          "type": "bool"
        }
      ],
      "payable": false,
      "stateMutability": "view",
      "type": "function"
    },
    {
      "constant": true,
      "inputs": [
        {
          "name": "",
          "type": "address"
        }
      ],
      "name": "registrar",
      "outputs": [
        {
          "name": "",
          "type": "bool"
        }
      ],
      "payable": false,
      "stateMutability": "view",
      "type": "function"
    },
    {
      "constant": true,
      "inputs": [],
      "name": "reputationReward",
      "outputs": [
        {
          "name": "",
          "type": "uint256"
        }
      ],
      "payable": false,
      "stateMutability": "view",
      "type": "function"
    },
    {
      "constant": true,
      "inputs": [],
      "name": "getBalanceFuncSignature",
      "outputs": [
        {
          "name": "",
          "type": "string"
        }
      ],
      "payable": false,
      "stateMutability": "view",
      "type": "function"
    },
    {
      "anonymous": false,
      "inputs": [
        {
          "indexed": true,
          "name": "_beneficiary",
          "type": "address"
        }
      ],
      "name": "Register",
      "type": "event"
    },
    {
      "anonymous": false,
      "inputs": [
        {
          "indexed": true,
          "name": "_beneficiary",
          "type": "address"
        },
        {
          "indexed": false,
          "name": "_amount",
          "type": "uint256"
        }
      ],
      "name": "Redeem",
      "type": "event"
    },
    {
      "anonymous": false,
      "inputs": [
        {
          "indexed": true,
          "name": "_lockingId",
          "type": "bytes32"
        },
        {
          "indexed": true,
          "name": "_beneficiary",
          "type": "address"
        },
        {
          "indexed": false,
          "name": "_amount",
          "type": "uint256"
        }
      ],
      "name": "Release",
      "type": "event"
    },
    {
      "anonymous": false,
      "inputs": [
        {
          "indexed": true,
          "name": "_locker",
          "type": "address"
        },
        {
          "indexed": true,
          "name": "_lockingId",
          "type": "bytes32"
        },
        {
          "indexed": false,
          "name": "_amount",
          "type": "uint256"
        },
        {
          "indexed": false,
          "name": "_period",
          "type": "uint256"
        }
      ],
      "name": "Lock",
      "type": "event"
    },
    {
      "constant": false,
      "inputs": [
        {
          "name": "_avatar",
          "type": "address"
        },
        {
          "name": "_reputationReward",
          "type": "uint256"
        },
        {
          "name": "_claimingStartTime",
          "type": "uint256"
        },
        {
          "name": "_claimingEndTime",
          "type": "uint256"
        },
        {
          "name": "_redeemEnableTime",
          "type": "uint256"
        },
        {
          "name": "_externalLockingContract",
          "type": "address"
        },
        {
          "name": "_getBalanceFuncSignature",
          "type": "string"
        }
      ],
      "name": "initialize",
      "outputs": [],
      "payable": false,
      "stateMutability": "nonpayable",
      "type": "function"
    },
    {
      "constant": false,
      "inputs": [
        {
          "name": "_beneficiary",
          "type": "address"
        }
      ],
      "name": "claim",
      "outputs": [
        {
          "name": "",
          "type": "bytes32"
        }
      ],
      "payable": false,
      "stateMutability": "nonpayable",
      "type": "function"
    },
    {
      "constant": false,
      "inputs": [],
      "name": "register",
      "outputs": [],
      "payable": false,
      "stateMutability": "nonpayable",
      "type": "function"
    }
  ],
  "bytecode": "0x608060405234801561001057600080fd5b506114a9806100206000396000f3fe608060405234801561001057600080fd5b5060043610610154576000357c010000000000000000000000000000000000000000000000000000000090048063a8c33017116100d5578063c348a24b11610099578063c348a24b14610298578063dd9d2deb146102a0578063e397cb9e146102da578063ed1ff6d814610300578063eff5c5bd14610308578063f0167cfa146103a957610154565b8063a8c3301714610270578063afe0e33c14610278578063bf0df44514610280578063c006719f14610288578063c3201add1461029057610154565b80635aef7de61161011c5780635aef7de6146101b357806376dd110f146101d75780637f33ccac146101fd578063838057421461020557806395a2251f1461024a57610154565b80631aa3a008146101595780631e83409a146101635780633d1678f41461019b57806355bfec88146101a357806356891412146101ab575b600080fd5b610161610426565b005b6101896004803603602081101561017957600080fd5b5035600160a060020a0316610468565b60408051918252519081900360200190f35b6101896107b9565b6101896107bf565b6101896107c5565b6101bb6107cb565b60408051600160a060020a039092168252519081900360200190f35b610189600480360360208110156101ed57600080fd5b5035600160a060020a03166107da565b6101bb6107ec565b6102316004803603604081101561021b57600080fd5b50600160a060020a0381351690602001356107fb565b6040805192835260208301919091528051918290030190f35b6101896004803603602081101561026057600080fd5b5035600160a060020a031661081c565b610189610b18565b610189610b1e565b610189610b24565b610189610b2a565b610189610b30565b610189610b36565b6102c6600480360360208110156102b657600080fd5b5035600160a060020a0316610b3c565b604080519115158252519081900360200190f35b6102c6600480360360208110156102f057600080fd5b5035600160a060020a0316610b51565b610189610b66565b610161600480360360e081101561031e57600080fd5b600160a060020a03823581169260208101359260408201359260608301359260808101359260a08201359092169181019060e0810160c082013564010000000081111561036a57600080fd5b82018360208201111561037c57600080fd5b8035906020019184600183028401116401000000008311171561039e57600080fd5b509092509050610b6c565b6103b1610bfb565b6040805160208082528351818301528351919283929083019185019080838360005b838110156103eb5781810151838201526020016103d3565b50505050905090810190601f1680156104185780820380516001836020036101000a031916815260200191505b509250505060405180910390f35b33600081815260106020526040808220805460ff19166001179055517feeda149c76076b34d4b9d8896c2f7efc0d33d1c7b53ea3c5db490d64613f603a9190a2565b60008054600160a060020a031615156104cb576040805160e560020a62461bcd02815260206004820152601760248201527f73686f756c6420696e697469616c697a65206669727374000000000000000000604482015290519081900360640190fd5b6000600160a060020a03831615156104e4575033610559565b600160a060020a03831660009081526010602052604090205460ff161515610556576040805160e560020a62461bcd02815260206004820152601e60248201527f62656e65666963696172792073686f756c642062652072656769737465720000604482015290519081900360640190fd5b50815b600160a060020a0381166000908152600f602052604090205460ff16156105b45760405160e560020a62461bcd0281526004018080602001828103825260368152602001806113ec6036913960400191505060405180910390fd5b600160a060020a038082166000818152600f6020526040808220805460ff19166001908117909155600d5482516024808201969096528351808203909601865260440192839052600e80549496606096921694919390929091829184916002600019928216156101000292909201160480156106675780601f10610645576101008083540402835291820191610667565b820191906000526020600020905b815481529060010190602001808311610653575b505060408051918290039091206020850180517bffffffffffffffffffffffffffffffffffffffffffffffffffffffff167fffffffff00000000000000000000000000000000000000000000000000000000909216919091178152905184519093508392508083835b602083106106ef5780518252601f1990920191602091820191016106d0565b6001836020036101000a0380198251168184511680821785525050505050509050019150506000604051808303816000865af19150503d8060008114610751576040519150601f19603f3d011682016040523d82523d6000602084013e610756565b606091505b509150915081151561079c5760405160e560020a62461bcd0281526004018080602001828103825260288152602001806113066028913960400191505060405180910390fd5b60208101516107af816001868180610c89565b9695505050505050565b600c5481565b600b5481565b60035481565b600054600160a060020a031681565b60026020526000908152604090205481565b600d54600160a060020a031681565b60016020818152600093845260408085209091529183529120805491015482565b600c546000904211610878576040805160e560020a62461bcd02815260206004820152601660248201527f6e6f77203e2072656465656d456e61626c6554696d6500000000000000000000604482015290519081900360640190fd5b600160a060020a038216600090815260026020526040812054116108e6576040805160e560020a62461bcd02815260206004820152601360248201527f73636f72652073686f756c64206265203e203000000000000000000000000000604482015290519081900360640190fd5b600160a060020a038216600090815260026020526040812080549082905560075490919061091b90839063ffffffff61105716565b90506109326005548261108b90919063ffffffff16565b600854909350610948908463ffffffff6110af16565b600855600054604080517f8da5cb5b0000000000000000000000000000000000000000000000000000000081529051600160a060020a0390921691638da5cb5b91600480820192602092909190829003018186803b1580156109a957600080fd5b505afa1580156109bd573d6000803e3d6000fd5b505050506040513d60208110156109d357600080fd5b505160008054604080517feaf994b200000000000000000000000000000000000000000000000000000000815260048101889052600160a060020a03898116602483015292831660448201529051919093169263eaf994b29260648083019360209390929083900390910190829087803b158015610a5057600080fd5b505af1158015610a64573d6000803e3d6000fd5b505050506040513d6020811015610a7a57600080fd5b50511515610ad2576040805160e560020a62461bcd02815260206004820152601e60248201527f6d696e742072657075746174696f6e2073686f756c6420737563636565640000604482015290519081900360640190fd5b604080518481529051600160a060020a038616917f222838db2794d11532d940e8dec38ae307ed0b63cd97c233322e221f998767a6919081900360200190a25050919050565b60095481565b60085481565b600a5481565b60055481565b60065481565b60045481565b600f6020526000908152604090205460ff1681565b60106020526000908152604090205460ff1681565b60075481565b858511610bad5760405160e560020a62461bcd02815260040180806020018281038252603a815260200180611444603a913960400191505060405180910390fd5b600d805473ffffffffffffffffffffffffffffffffffffffff1916600160a060020a038516179055610be1600e838361126a565b50610bf1888888888860016110c4565b5050505050505050565b600e805460408051602060026001851615610100026000190190941693909304601f81018490048402820184019092528181529291830182828015610c815780601f10610c5657610100808354040283529160200191610c81565b820191906000526020600020905b815481529060010190602001808311610c6457829003601f168201915b505050505081565b6000808611610ce2576040805160e560020a62461bcd02815260206004820152601c60248201527f6c6f636b696e6720616d6f756e742073686f756c64206265203e203000000000604482015290519081900360640190fd5b600a54851115610d265760405160e560020a62461bcd02815260040180806020018281038252602c8152602001806113c0602c913960400191505060405180910390fd5b60008511610d7e576040805160e560020a62461bcd02815260206004820152601c60248201527f6c6f636b696e6720706572696f642073686f756c64206265203e203000000000604482015290519081900360640190fd5b600954421115610dc25760405160e560020a62461bcd0281526004018080602001828103825260308152602001806113566030913960400191505060405180910390fd5b600b54421015610e065760405160e560020a62461bcd02815260040180806020018281038252602881526020018061132e6028913960400191505060405180910390fd5b50600654604080516c0100000000000000000000000030026020808301919091526034808301859052835180840390910181526054909201909252805191012090610e5890600163ffffffff61125816565b600655600160a060020a038416600090815260016020818152604080842085855290915290912087815542870191810191909155600354610e9f908863ffffffff61125816565b600355600454610eb5908863ffffffff61125816565b6004556000610eea84610ede87610ed28b8d63ffffffff61105716565b9063ffffffff61105716565b9063ffffffff61108b16565b905060008111610f44576040805160e560020a62461bcd02815260206004820152601160248201527f73636f7265206d757374206d65203e2030000000000000000000000000000000604482015290519081900360640190fd5b600160a060020a038616600090815260026020526040902054610f6d908263ffffffff61125816565b600160a060020a038716600090815260026020526040902081905560075490818102811515610f9857fe5b0414610fee576040805160e560020a62461bcd02815260206004820152601160248201527f73636f726520697320746f6f2068696768000000000000000000000000000000604482015290519081900360640190fd5b600554611001908263ffffffff61125816565b600555604080518981526020810189905281518592600160a060020a038a16927fd173f98f4a2080eab40a0bff4d9a575753270cb2401c74efdec1feb0ba31b426929081900390910190a3505095945050505050565b600082151561106857506000611085565b82820282848281151561107757fe5b041461108257600080fd5b90505b92915050565b600080821161109957600080fd5b600082848115156110a657fe5b04949350505050565b6000828211156110be57600080fd5b50900390565b600054600160a060020a031615611125576040805160e560020a62461bcd02815260206004820152601b60248201527f63616e2062652063616c6c6564206f6e6c79206f6e652074696d650000000000604482015290519081900360640190fd5b600160a060020a0386161515611185576040805160e560020a62461bcd02815260206004820152601560248201527f6176617461722063616e6e6f74206265207a65726f0000000000000000000000604482015290519081900360640190fd5b8383116111c65760405160e560020a62461bcd02815260040180806020018281038252603a815260200180611386603a913960400191505060405180910390fd5b828210156112085760405160e560020a62461bcd0281526004018080602001828103825260228152602001806114226022913960400191505060405180910390fd5b6007859055600894909455600991909155600a929092556000805473ffffffffffffffffffffffffffffffffffffffff1916600160a060020a039490941693909317909255600b91909155600c55565b60008282018381101561108257600080fd5b828054600181600116156101000203166002900490600052602060002090601f016020900481019282601f106112ab5782800160ff198235161785556112d8565b828001600101855582156112d8579182015b828111156112d85782358255916020019190600101906112bd565b506112e49291506112e8565b5090565b61130291905b808211156112e457600081556001016112ee565b9056fe63616c6c20746f2065787465726e616c20636f6e74726163742073686f756c6420737563636565646c6f636b2073686f756c64207374617274206166746572206c6f636b696e67537461727454696d656c6f636b2073686f756c642062652077697468696e2074686520616c6c6f776564206c6f636b696e6720706572696f646c6f636b696e6720656e642074696d652073686f756c642062652067726561746572207468616e206c6f636b696e672073746172742074696d656c6f636b696e6720706572696f642073686f756c64206265203c3d206d61784c6f636b696e67506572696f64636c61696d696e6720747769636520666f72207468652073616d652062656e6566696369617279206973206e6f7420616c6c6f77656472656465656d456e61626c6554696d65203e3d206c6f636b696e67456e6454696d655f636c61696d696e67456e6454696d652073686f756c642062652067726561746572207468616e205f636c61696d696e67537461727454696d65a165627a7a723058201baf822be43b723529387bb63e1cbe095c19968dd96041ba70b7e48243e4b3720029",
  "source": "pragma solidity ^0.5.4;\n\nimport \"./Locking4Reputation.sol\";\n\n/**\n * @title A scheme for external locking Tokens for reputation\n */\n\ncontract ExternalLocking4Reputation is Locking4Reputation {\n\n    event Register(address indexed _beneficiary);\n\n    address public externalLockingContract;\n    string public getBalanceFuncSignature;\n\n    // locker -> bool\n    mapping(address => bool) public externalLockers;\n    //      beneficiary -> bool\n    mapping(address     => bool) public registrar;\n\n    /**\n     * @dev initialize\n     * @param _avatar the avatar to mint reputation from\n     * @param _reputationReward the total reputation this contract will reward\n     *        for the token locking\n     * @param _claimingStartTime claiming starting period time.\n     * @param _claimingEndTime the claiming end time.\n     *        claiming is disable after this time.\n     * @param _redeemEnableTime redeem enable time .\n     *        redeem reputation can be done after this time.\n     * @param _externalLockingContract the contract which lock the token.\n     * @param _getBalanceFuncSignature get balance function signature\n     *        e.g \"lockedTokenBalances(address)\"\n     */\n    function initialize(\n        Avatar _avatar,\n        uint256 _reputationReward,\n        uint256 _claimingStartTime,\n        uint256 _claimingEndTime,\n        uint256 _redeemEnableTime,\n        address _externalLockingContract,\n        string calldata _getBalanceFuncSignature)\n    external\n    {\n        require(_claimingEndTime > _claimingStartTime, \"_claimingEndTime should be greater than _claimingStartTime\");\n        externalLockingContract = _externalLockingContract;\n        getBalanceFuncSignature = _getBalanceFuncSignature;\n        super._initialize(\n        _avatar,\n        _reputationReward,\n        _claimingStartTime,\n        _claimingEndTime,\n        _redeemEnableTime,\n        1);\n    }\n\n    /**\n     * @dev claim function\n     * @param _beneficiary the beneficiary address to claim for\n     *        if _beneficiary == 0 the claim will be for the msg.sender.\n     * @return claimId\n     */\n    function claim(address _beneficiary) public returns(bytes32) {\n        require(avatar != Avatar(0), \"should initialize first\");\n        address beneficiary;\n        if (_beneficiary == address(0)) {\n            beneficiary = msg.sender;\n        } else {\n            require(registrar[_beneficiary], \"beneficiary should be register\");\n            beneficiary = _beneficiary;\n        }\n        require(externalLockers[beneficiary] == false, \"claiming twice for the same beneficiary is not allowed\");\n        externalLockers[beneficiary] = true;\n        (bool result, bytes memory returnValue) =\n        // solhint-disable-next-line avoid-call-value,avoid-low-level-calls\n        externalLockingContract.call(abi.encodeWithSignature(getBalanceFuncSignature, beneficiary));\n        require(result, \"call to external contract should succeed\");\n        uint256 lockedAmount;\n        // solhint-disable-next-line no-inline-assembly\n        assembly {\n            lockedAmount := mload(add(returnValue, 0x20))\n        }\n        return super._lock(lockedAmount, 1, beneficiary, 1, 1);\n    }\n\n   /**\n    * @dev register function\n    *      register for external locking claim\n    */\n    function register() public {\n        registrar[msg.sender] = true;\n        emit Register(msg.sender);\n    }\n}\n",
  "sourcePath": "/Users/oren/daostack/daostack2/daostack/contracts/schemes/ExternalLocking4Reputation.sol",
  "compiler": {
    "name": "solc",
    "version": "0.5.4+commit.9549d8ff.Emscripten.clang"
  },
  "schemaVersion": "3.0.2",
  "updatedAt": "2019-04-08T06:30:27.659Z",
  "devdoc": {
    "methods": {
      "claim(address)": {
        "details": "claim function",
        "params": {
          "_beneficiary": "the beneficiary address to claim for       if _beneficiary == 0 the claim will be for the msg.sender."
        },
        "return": "claimId"
      },
      "initialize(address,uint256,uint256,uint256,uint256,address,string)": {
        "details": "initialize",
        "params": {
          "_avatar": "the avatar to mint reputation from",
          "_claimingEndTime": "the claiming end time.       claiming is disable after this time.",
          "_claimingStartTime": "claiming starting period time.",
          "_externalLockingContract": "the contract which lock the token.",
          "_getBalanceFuncSignature": "get balance function signature       e.g \"lockedTokenBalances(address)\"",
          "_redeemEnableTime": "redeem enable time .       redeem reputation can be done after this time.",
          "_reputationReward": "the total reputation this contract will reward       for the token locking"
        }
      },
      "redeem(address)": {
        "details": "redeem reputation function",
        "params": {
          "_beneficiary": "the beneficiary for the release"
        },
        "return": "uint256 reputation rewarded"
      },
      "register()": {
        "details": "register function     register for external locking claim"
      }
    },
    "title": "A scheme for external locking Tokens for reputation"
  },
  "userdoc": {
    "methods": {}
  }
}