{
  "contractName": "GlobalConstraintMock",
  "abi": [
    {
      "constant": true,
      "inputs": [],
      "name": "currentCallPhase",
      "outputs": [
        {
          "name": "",
          "type": "uint8"
        }
      ],
      "payable": false,
      "stateMutability": "view",
      "type": "function"
    },
    {
      "constant": true,
      "inputs": [
        {
          "name": "",
          "type": "bytes32"
        }
      ],
      "name": "testParams",
      "outputs": [
        {
          "name": "pre",
          "type": "bool"
        },
        {
          "name": "post",
          "type": "bool"
        }
      ],
      "payable": false,
      "stateMutability": "view",
      "type": "function"
    },
    {
      "constant": false,
      "inputs": [
        {
          "name": "method",
          "type": "bytes32"
        },
        {
          "name": "pre",
          "type": "bool"
        },
        {
          "name": "post",
          "type": "bool"
        }
      ],
      "name": "setConstraint",
      "outputs": [
        {
          "name": "",
          "type": "bool"
        }
      ],
      "payable": false,
      "stateMutability": "nonpayable",
      "type": "function"
    },
    {
      "constant": true,
      "inputs": [
        {
          "name": "",
          "type": "address"
        },
        {
          "name": "",
          "type": "bytes32"
        },
        {
          "name": "method",
          "type": "bytes32"
        }
      ],
      "name": "pre",
      "outputs": [
        {
          "name": "",
          "type": "bool"
        }
      ],
      "payable": false,
      "stateMutability": "view",
      "type": "function"
    },
    {
      "constant": true,
      "inputs": [
        {
          "name": "",
          "type": "address"
        },
        {
          "name": "",
          "type": "bytes32"
        },
        {
          "name": "method",
          "type": "bytes32"
        }
      ],
      "name": "post",
      "outputs": [
        {
          "name": "",
          "type": "bool"
        }
      ],
      "payable": false,
      "stateMutability": "view",
      "type": "function"
    },
    {
      "constant": true,
      "inputs": [],
      "name": "when",
      "outputs": [
        {
          "name": "",
          "type": "uint8"
        }
      ],
      "payable": false,
      "stateMutability": "view",
      "type": "function"
    }
  ],
  "bytecode": "0x608060405234801561001057600080fd5b506102c8806100206000396000f3fe608060405234801561001057600080fd5b506004361061007e577c010000000000000000000000000000000000000000000000000000000060003504632414112b8114610083578063696a7253146100af57806373d2ea39146100f05780638043154d14610128578063c1786ab214610167578063e2b0caef146101a6575b600080fd5b61008b6101ae565b6040518082600281111561009b57fe5b60ff16815260200191505060405180910390f35b6100dc600480360360608110156100c557600080fd5b5080359060208101351515906040013515156101b7565b604080519115158252519081900360200190f35b61010d6004803603602081101561010657600080fd5b5035610240565b60408051921515835290151560208301528051918290030190f35b6100dc6004803603606081101561013e57600080fd5b5073ffffffffffffffffffffffffffffffffffffffff813516906020810135906040013561025e565b6100dc6004803603606081101561017d57600080fd5b5073ffffffffffffffffffffffffffffffffffffffff813516906020810135906040013561027b565b61008b610293565b60015460ff1681565b6000838152602081905260408120805460ff19168415801591821761ff00191661010086151502179092556101ea575081155b1561020857600180546002919060ff191681835b0217905550610236565b82151561022257600180546000919060ff191681836101fe565b811515610236576001805460ff1916811790555b5060019392505050565b60006020819052908152604090205460ff8082169161010090041682565b600090815260208190526040902054610100900460ff1692915050565b60009081526020819052604090205460ff1692915050565b60015460ff169056fea165627a7a7230582008ea01532d0445eab82e92e0dd373702dbcf51ce483ab2b361d1b520045db4fd0029",
  "source": "pragma solidity ^0.5.4;\n\nimport \"../globalConstraints/GlobalConstraintInterface.sol\";\n\n\ncontract GlobalConstraintMock {\n\n    struct TestParam {\n        bool pre;\n        bool post;\n    }\n\n    mapping (bytes32=>TestParam) public testParams;\n\n    GlobalConstraintInterface.CallPhase public currentCallPhase;\n\n    function setConstraint(bytes32 method, bool pre, bool post) public returns(bool) {\n        testParams[method].pre = pre;\n        testParams[method].post = post;\n\n        if (!pre && !post) {\n            currentCallPhase = GlobalConstraintInterface.CallPhase.PreAndPost;\n        } else {\n            if (!pre) {\n                currentCallPhase = GlobalConstraintInterface.CallPhase.Pre;\n            } else if (!post) {\n                currentCallPhase = GlobalConstraintInterface.CallPhase.Post;\n            }\n        }\n        return true;\n    }\n\n    function pre(address, bytes32, bytes32 method) public view returns(bool) {\n        return testParams[method].pre;\n    }\n\n    function post(address, bytes32, bytes32 method) public view returns(bool) {\n        return testParams[method].post;\n    }\n\n    function when() public view returns(GlobalConstraintInterface.CallPhase) {\n        return currentCallPhase;\n    }\n}\n",
  "sourcePath": "/Users/oren/daostack/daostack2/daostack/contracts/test/GlobalConstraintMock.sol",
  "compiler": {
    "name": "solc",
    "version": "0.5.4+commit.9549d8ff.Emscripten.clang"
  },
  "schemaVersion": "3.0.2",
  "updatedAt": "2019-04-08T06:30:27.671Z",
  "devdoc": {
    "methods": {}
  },
  "userdoc": {
    "methods": {}
  }
}