{
  "contractName": "GlobalConstraintRegistrar",
  "abi": [
    {
      "constant": true,
      "inputs": [
        {
          "name": "",
          "type": "bytes32"
        }
      ],
      "name": "parameters",
      "outputs": [
        {
          "name": "voteRegisterParams",
          "type": "bytes32"
        },
        {
          "name": "intVote",
          "type": "address"
        }
      ],
      "payable": false,
      "stateMutability": "view",
      "type": "function"
    },
    {
      "constant": true,
      "inputs": [
        {
          "name": "",
          "type": "address"
        },
        {
          "name": "",
          "type": "bytes32"
        }
      ],
      "name": "organizationsProposals",
      "outputs": [
        {
          "name": "gc",
          "type": "address"
        },
        {
          "name": "addGC",
          "type": "bool"
        },
        {
          "name": "params",
          "type": "bytes32"
        },
        {
          "name": "voteToRemoveParams",
          "type": "bytes32"
        }
      ],
      "payable": false,
      "stateMutability": "view",
      "type": "function"
    },
    {
      "constant": true,
      "inputs": [
        {
          "name": "",
          "type": "address"
        },
        {
          "name": "",
          "type": "bytes32"
        }
      ],
      "name": "proposalsInfo",
      "outputs": [
        {
          "name": "blockNumber",
          "type": "uint256"
        },
        {
          "name": "avatar",
          "type": "address"
        }
      ],
      "payable": false,
      "stateMutability": "view",
      "type": "function"
    },
    {
      "constant": true,
      "inputs": [
        {
          "name": "_stakingToken",
          "type": "address"
        },
        {
          "name": "_proposalId",
          "type": "bytes32"
        }
      ],
      "name": "balanceOfStakingToken",
      "outputs": [
        {
          "name": "",
          "type": "uint256"
        }
      ],
      "payable": false,
      "stateMutability": "view",
      "type": "function"
    },
    {
      "constant": true,
      "inputs": [
        {
          "name": "_owner",
          "type": "address"
        },
        {
          "name": "_proposalId",
          "type": "bytes32"
        }
      ],
      "name": "reputationOf",
      "outputs": [
        {
          "name": "",
          "type": "uint256"
        }
      ],
      "payable": false,
      "stateMutability": "view",
      "type": "function"
    },
    {
      "constant": true,
      "inputs": [
        {
          "name": "",
          "type": "address"
        },
        {
          "name": "",
          "type": "address"
        }
      ],
      "name": "voteToRemoveParams",
      "outputs": [
        {
          "name": "",
          "type": "bytes32"
        }
      ],
      "payable": false,
      "stateMutability": "view",
      "type": "function"
    },
    {
      "constant": true,
      "inputs": [
        {
          "name": "_proposalId",
          "type": "bytes32"
        }
      ],
      "name": "getTotalReputationSupply",
      "outputs": [
        {
          "name": "",
          "type": "uint256"
        }
      ],
      "payable": false,
      "stateMutability": "view",
      "type": "function"
    },
    {
      "constant": false,
      "inputs": [
        {
          "name": "_stakingToken",
          "type": "address"
        },
        {
          "name": "_beneficiary",
          "type": "address"
        },
        {
          "name": "_amount",
          "type": "uint256"
        },
        {
          "name": "_proposalId",
          "type": "bytes32"
        }
      ],
      "name": "stakingTokenTransfer",
      "outputs": [
        {
          "name": "",
          "type": "bool"
        }
      ],
      "payable": false,
      "stateMutability": "nonpayable",
      "type": "function"
    },
    {
      "constant": false,
      "inputs": [
        {
          "name": "_amount",
          "type": "uint256"
        },
        {
          "name": "_beneficiary",
          "type": "address"
        },
        {
          "name": "_proposalId",
          "type": "bytes32"
        }
      ],
      "name": "mintReputation",
      "outputs": [
        {
          "name": "",
          "type": "bool"
        }
      ],
      "payable": false,
      "stateMutability": "nonpayable",
      "type": "function"
    },
    {
      "constant": false,
      "inputs": [
        {
          "name": "_amount",
          "type": "uint256"
        },
        {
          "name": "_beneficiary",
          "type": "address"
        },
        {
          "name": "_proposalId",
          "type": "bytes32"
        }
      ],
      "name": "burnReputation",
      "outputs": [
        {
          "name": "",
          "type": "bool"
        }
      ],
      "payable": false,
      "stateMutability": "nonpayable",
      "type": "function"
    },
    {
      "anonymous": false,
      "inputs": [
        {
          "indexed": true,
          "name": "_avatar",
          "type": "address"
        },
        {
          "indexed": true,
          "name": "_proposalId",
          "type": "bytes32"
        },
        {
          "indexed": true,
          "name": "_intVoteInterface",
          "type": "address"
        },
        {
          "indexed": false,
          "name": "_gc",
          "type": "address"
        },
        {
          "indexed": false,
          "name": "_params",
          "type": "bytes32"
        },
        {
          "indexed": false,
          "name": "_voteToRemoveParams",
          "type": "bytes32"
        },
        {
          "indexed": false,
          "name": "_descriptionHash",
          "type": "string"
        }
      ],
      "name": "NewGlobalConstraintsProposal",
      "type": "event"
    },
    {
      "anonymous": false,
      "inputs": [
        {
          "indexed": true,
          "name": "_avatar",
          "type": "address"
        },
        {
          "indexed": true,
          "name": "_proposalId",
          "type": "bytes32"
        },
        {
          "indexed": true,
          "name": "_intVoteInterface",
          "type": "address"
        },
        {
          "indexed": false,
          "name": "_gc",
          "type": "address"
        },
        {
          "indexed": false,
          "name": "_descriptionHash",
          "type": "string"
        }
      ],
      "name": "RemoveGlobalConstraintsProposal",
      "type": "event"
    },
    {
      "anonymous": false,
      "inputs": [
        {
          "indexed": true,
          "name": "_avatar",
          "type": "address"
        },
        {
          "indexed": true,
          "name": "_proposalId",
          "type": "bytes32"
        },
        {
          "indexed": false,
          "name": "_param",
          "type": "int256"
        }
      ],
      "name": "ProposalExecuted",
      "type": "event"
    },
    {
      "anonymous": false,
      "inputs": [
        {
          "indexed": true,
          "name": "_avatar",
          "type": "address"
        },
        {
          "indexed": true,
          "name": "_proposalId",
          "type": "bytes32"
        }
      ],
      "name": "ProposalDeleted",
      "type": "event"
    },
    {
      "constant": false,
      "inputs": [
        {
          "name": "_proposalId",
          "type": "bytes32"
        },
        {
          "name": "_param",
          "type": "int256"
        }
      ],
      "name": "executeProposal",
      "outputs": [
        {
          "name": "",
          "type": "bool"
        }
      ],
      "payable": false,
      "stateMutability": "nonpayable",
      "type": "function"
    },
    {
      "constant": false,
      "inputs": [
        {
          "name": "_voteRegisterParams",
          "type": "bytes32"
        },
        {
          "name": "_intVote",
          "type": "address"
        }
      ],
      "name": "setParameters",
      "outputs": [
        {
          "name": "",
          "type": "bytes32"
        }
      ],
      "payable": false,
      "stateMutability": "nonpayable",
      "type": "function"
    },
    {
      "constant": true,
      "inputs": [
        {
          "name": "_voteRegisterParams",
          "type": "bytes32"
        },
        {
          "name": "_intVote",
          "type": "address"
        }
      ],
      "name": "getParametersHash",
      "outputs": [
        {
          "name": "",
          "type": "bytes32"
        }
      ],
      "payable": false,
      "stateMutability": "pure",
      "type": "function"
    },
    {
      "constant": false,
      "inputs": [
        {
          "name": "_avatar",
          "type": "address"
        },
        {
          "name": "_gc",
          "type": "address"
        },
        {
          "name": "_params",
          "type": "bytes32"
        },
        {
          "name": "_voteToRemoveParams",
          "type": "bytes32"
        },
        {
          "name": "_descriptionHash",
          "type": "string"
        }
      ],
      "name": "proposeGlobalConstraint",
      "outputs": [
        {
          "name": "",
          "type": "bytes32"
        }
      ],
      "payable": false,
      "stateMutability": "nonpayable",
      "type": "function"
    },
    {
      "constant": false,
      "inputs": [
        {
          "name": "_avatar",
          "type": "address"
        },
        {
          "name": "_gc",
          "type": "address"
        },
        {
          "name": "_descriptionHash",
          "type": "string"
        }
      ],
      "name": "proposeToRemoveGC",
      "outputs": [
        {
          "name": "",
          "type": "bytes32"
        }
      ],
      "payable": false,
      "stateMutability": "nonpayable",
      "type": "function"
    }
  ],
  "bytecode": "0x608060405234801561001057600080fd5b50611c9c806100206000396000f3fe608060405234801561001057600080fd5b50600436106100f95760003560e060020a900480637a3563041161009b578063b551c3731161006a578063b551c37314610475578063bea75f2814610492578063d29b5d2f146104ce578063f81f8bf614610500576100f9565b80637a356304146103255780639588378e146103e45780639d4c162d14610410578063a3379f9014610447576100f9565b806360bdbb3f116100d757806360bdbb3f146101d657806368e14dac146102025780636b8eb4031461022e578063776fdd241461025a576100f9565b806302506804146100fe57806306e3a9781461013c5780632453732a14610198575b600080fd5b61011b6004803603602081101561011457600080fd5b5035610532565b60408051928352600160a060020a0390911660208301528051918290030190f35b6101686004803603604081101561015257600080fd5b50600160a060020a038135169060200135610554565b60408051600160a060020a0390951685529215156020850152838301919091526060830152519081900360800190f35b6101c4600480360360408110156101ae57600080fd5b5080359060200135600160a060020a03166105a4565b60408051918252519081900360200190f35b61011b600480360360408110156101ec57600080fd5b50600160a060020a0381351690602001356105eb565b6101c46004803603604081101561021857600080fd5b5080359060200135600160a060020a0316610615565b6101c46004803603604081101561024457600080fd5b50600160a060020a038135169060200135610667565b6101c4600480360360a081101561027057600080fd5b600160a060020a03823581169260208101359091169160408201359160608101359181019060a0810160808201356401000000008111156102b057600080fd5b8201836020820111156102c257600080fd5b803590602001918460018302840111640100000000831117156102e457600080fd5b91908080601f01602080910402602001604051908101604052809392919081815260200183838082843760009201919091525092955061072a945050505050565b6101c46004803603606081101561033b57600080fd5b600160a060020a03823581169260208101359091169181019060608101604082013564010000000081111561036f57600080fd5b82018360208201111561038157600080fd5b803590602001918460018302840111640100000000831117156103a357600080fd5b91908080601f016020809104026020016040519081016040528093929190818152602001838380828437600092019190915250929550610a32945050505050565b6101c4600480360360408110156103fa57600080fd5b50600160a060020a038135169060200135610e52565b6104336004803603604081101561042657600080fd5b5080359060200135610f7e565b604080519115158252519081900360200190f35b6101c46004803603604081101561045d57600080fd5b50600160a060020a0381358116916020013516611355565b6101c46004803603602081101561048b57600080fd5b5035611372565b610433600480360360808110156104a857600080fd5b50600160a060020a038135811691602081013590911690604081013590606001356114ca565b610433600480360360608110156104e457600080fd5b50803590600160a060020a036020820135169060400135611688565b6104336004803603606081101561051657600080fd5b50803590600160a060020a03602082013516906040013561183d565b60036020526000908152604090208054600190910154600160a060020a031682565b60016020818152600093845260408085209091529183529120805491810154600290910154600160a060020a0383169274010000000000000000000000000000000000000000900460ff16919084565b6040805160208082018590526c01000000000000000000000000600160a060020a038516028284015282516034818403018152605490920190925280519101205b92915050565b600060208181529281526040808220909352908152208054600190910154600160a060020a031682565b60008061062284846105a4565b60008181526003602052604090208581556001018054600160a060020a03861673ffffffffffffffffffffffffffffffffffffffff1990911617905591505092915050565b33600090815260208181526040808320848452909152812060010154600160a060020a031680151561069d5760009150506105e5565b83600160a060020a03166370a08231826040518263ffffffff1660e060020a0281526004018082600160a060020a0316600160a060020a0316815260200191505060206040518083038186803b1580156106f657600080fd5b505afa15801561070a573d6000803e3d6000fd5b505050506040513d602081101561072057600080fd5b5051949350505050565b6000610734611c12565b60036000610741896119ba565b815260208082019290925260409081016000908120825180840184528154808252600190920154600160a060020a0390811682870181905285517f88737b5e000000000000000000000000000000000000000000000000000000008152600260048201526024810194909452336044850152908d16606484015293519095509293919284926388737b5e926084808201939182900301818787803b1580156107e857600080fd5b505af11580156107fc573d6000803e3d6000fd5b505050506040513d602081101561081257600080fd5b5051905061081e611c29565b6080604051908101604052808a600160a060020a0316815260200160011515815260200189815260200188815250905080600160008c600160a060020a0316600160a060020a03168152602001908152602001600020600084815260200190815260200160002060008201518160000160006101000a815481600160a060020a030219169083600160a060020a0316021790555060208201518160000160146101000a81548160ff021916908315150217905550604082015181600101556060820151816002015590505082600160a060020a0316828b600160a060020a03167f91844be4872bbec71676ddd1d7a85222f6e62f10f70887042e501b0a7a5e28f28c8c8c8c6040518085600160a060020a0316600160a060020a0316815260200184815260200183815260200180602001828103825283818151815260200191508051906020019080838360005b8381101561098457818101518382015260200161096c565b50505050905090810190601f1680156109b15780820380516001836020036101000a031916815260200191505b509550505050505060405180910390a450604080518082018252438152600160a060020a039a8b166020808301918252948c1660009081528086528381208582529095529190932092518355516001909201805473ffffffffffffffffffffffffffffffffffffffff19169290991691909117909755509495945050505050565b60008084600160a060020a0316638da5cb5b6040518163ffffffff1660e060020a02815260040160206040518083038186803b158015610a7157600080fd5b505afa158015610a85573d6000803e3d6000fd5b505050506040513d6020811015610a9b57600080fd5b5051604080517ff76488be000000000000000000000000000000000000000000000000000000008152600160a060020a038781166004830152888116602483015291519293509083169163f76488be91604480820192602092909190829003018186803b158015610b0b57600080fd5b505afa158015610b1f573d6000803e3d6000fd5b505050506040513d6020811015610b3557600080fd5b50511515610b4257600080fd5b610b4a611c12565b60036000610b57886119ba565b8152602080820192909252604090810160009081208251808401845281548152600190910154600160a060020a039081168286018190528b82168085526002808852868620938d1686529287528585205486517f88737b5e00000000000000000000000000000000000000000000000000000000815260048101949094526024840152336044840152606483015293519195509293919284926388737b5e9260848084019382900301818787803b158015610c1157600080fd5b505af1158015610c25573d6000803e3d6000fd5b505050506040513d6020811015610c3b57600080fd5b50519050610c47611c29565b60806040519081016040528089600160a060020a03168152602001600015158152602001600060010281526020016000600102815250905080600160008b600160a060020a0316600160a060020a03168152602001908152602001600020600084815260200190815260200160002060008201518160000160006101000a815481600160a060020a030219169083600160a060020a0316021790555060208201518160000160146101000a81548160ff021916908315150217905550604082015181600101556060820151816002015590505082600160a060020a0316828a600160a060020a03167f4adc38b95e17c3b3410caa223e957ebc5cfdae71c60f1801e8fd328ca82858138b8b6040518083600160a060020a0316600160a060020a0316815260200180602001828103825283818151815260200191508051906020019080838360005b83811015610da7578181015183820152602001610d8f565b50505050905090810190601f168015610dd45780820380516001836020036101000a031916815260200191505b50935050505060405180910390a450604080518082018252438152600160a060020a03998a166020808301918252948b1660009081528086528381208582529095529190932092518355516001909201805473ffffffffffffffffffffffffffffffffffffffff191692909816919091179096555093949350505050565b6000610e5c611c12565b503360009081526020818152604080832085845282529182902082518084019093528054835260010154600160a060020a03169082018190521515610ea55760009150506105e5565b8060200151600160a060020a03166389ae1c906040518163ffffffff1660e060020a02815260040160206040518083038186803b158015610ee557600080fd5b505afa158015610ef9573d6000803e3d6000fd5b505050506040513d6020811015610f0f57600080fd5b50518151604080517f4ee2cd7e000000000000000000000000000000000000000000000000000000008152600160a060020a038881166004830152602482019390935290519190921691634ee2cd7e916044808301926020929190829003018186803b1580156106f657600080fd5b336000908152602081815260408083208584529091528120600101548390600160a060020a03161515610fe9576040805160e560020a62461bcd0281526020600482015260126024820152600080516020611c51833981519152604482015290519081900360640190fd5b336000908152602081815260408083208784529091529020600190810154600160a060020a031690611019611c29565b50600160a060020a0382811660009081526001602081815260408084208b8552825292839020835160808101855281549586168082527401000000000000000000000000000000000000000090960460ff16151592810192909252918201549281019290925260020154606082015290151561109457600080fd5b600160a060020a03831660008181526001602081815260408084208c8552909152808320805474ffffffffffffffffffffffffffffffffffffffffff191681559182018390556002909101829055518992917f6bc0cb9e9967b59a69ace442598e1df4368d38661bd5c0800fbcbc9fe855fbbe91a3856001141561130b57600083600160a060020a0316638da5cb5b6040518163ffffffff1660e060020a02815260040160206040518083038186803b15801561115057600080fd5b505afa158015611164573d6000803e3d6000fd5b505050506040513d602081101561117a57600080fd5b505160208301519091501561126057815160408084015181517fe4537a74000000000000000000000000000000000000000000000000000000008152600160a060020a0393841660048201526024810191909152868316604482015290519183169163e4537a74916064808201926020929091908290030181600087803b15801561120457600080fd5b505af1158015611218573d6000803e3d6000fd5b505050506040513d602081101561122e57600080fd5b50516060830151600160a060020a03808716600090815260026020908152604080832088519094168352929052205592505b81602001511515611309578151604080517f4f52b5be000000000000000000000000000000000000000000000000000000008152600160a060020a0392831660048201528683166024820152905191831691634f52b5be916044808201926020929091908290030181600087803b1580156112da57600080fd5b505af11580156112ee573d6000803e3d6000fd5b505050506040513d602081101561130457600080fd5b505192505b505b6040805187815290518891600160a060020a038616917fd2632e80f5364f02aded1c64e8a04637b7c8bb9c2db2bedf4b6ac47c013acbc09181900360200190a35095945050505050565b600260209081526000928352604080842090915290825290205481565b600061137c611c12565b503360009081526020818152604080832085845282529182902082518084019093528054835260010154600160a060020a031690820181905215156113c55760009150506114c5565b8060200151600160a060020a03166389ae1c906040518163ffffffff1660e060020a02815260040160206040518083038186803b15801561140557600080fd5b505afa158015611419573d6000803e3d6000fd5b505050506040513d602081101561142f57600080fd5b50518151604080517f981b24d0000000000000000000000000000000000000000000000000000000008152600481019290925251600160a060020a039092169163981b24d091602480820192602092909190829003018186803b15801561149557600080fd5b505afa1580156114a9573d6000803e3d6000fd5b505050506040513d60208110156114bf57600080fd5b50519150505b919050565b336000908152602081815260408083208484529091528120600101548290600160a060020a03161515611535576040805160e560020a62461bcd0281526020600482015260126024820152600080516020611c51833981519152604482015290519081900360640190fd5b33600090815260208181526040808320868452909152902060010154600160a060020a031680151561156b57600092505061167f565b80600160a060020a0316638da5cb5b6040518163ffffffff1660e060020a02815260040160206040518083038186803b1580156115a757600080fd5b505afa1580156115bb573d6000803e3d6000fd5b505050506040513d60208110156115d157600080fd5b5051604080517fb9a04cdd000000000000000000000000000000000000000000000000000000008152600160a060020a038a8116600483015289811660248301526044820189905284811660648301529151919092169163b9a04cdd9160848083019260209291908290030181600087803b15801561164f57600080fd5b505af1158015611663573d6000803e3d6000fd5b505050506040513d602081101561167957600080fd5b50519250505b50949350505050565b336000908152602081815260408083208484529091528120600101548290600160a060020a031615156116f3576040805160e560020a62461bcd0281526020600482015260126024820152600080516020611c51833981519152604482015290519081900360640190fd5b33600090815260208181526040808320868452909152902060010154600160a060020a0316801515611729576000925050611835565b80600160a060020a0316638da5cb5b6040518163ffffffff1660e060020a02815260040160206040518083038186803b15801561176557600080fd5b505afa158015611779573d6000803e3d6000fd5b505050506040513d602081101561178f57600080fd5b5051604080517feaf994b200000000000000000000000000000000000000000000000000000000815260048101899052600160a060020a03888116602483015284811660448301529151919092169163eaf994b29160648083019260209291908290030181600087803b15801561180557600080fd5b505af1158015611819573d6000803e3d6000fd5b505050506040513d602081101561182f57600080fd5b50519250505b509392505050565b336000908152602081815260408083208484529091528120600101548290600160a060020a031615156118a8576040805160e560020a62461bcd0281526020600482015260126024820152600080516020611c51833981519152604482015290519081900360640190fd5b33600090815260208181526040808320868452909152902060010154600160a060020a03168015156118de576000925050611835565b80600160a060020a0316638da5cb5b6040518163ffffffff1660e060020a02815260040160206040518083038186803b15801561191a57600080fd5b505afa15801561192e573d6000803e3d6000fd5b505050506040513d602081101561194457600080fd5b5051604080517f6e94d27800000000000000000000000000000000000000000000000000000000815260048101899052600160a060020a038881166024830152848116604483015291519190921691636e94d2789160648083019260209291908290030181600087803b15801561180557600080fd5b600081600160a060020a0316638da5cb5b6040518163ffffffff1660e060020a02815260040160206040518083038186803b1580156119f857600080fd5b505afa158015611a0c573d6000803e3d6000fd5b505050506040513d6020811015611a2257600080fd5b5051604080517f9be2faed000000000000000000000000000000000000000000000000000000008152306004820152600160a060020a03858116602483015291519190921691639be2faed916044808301926020929190829003018186803b158015611a8d57600080fd5b505afa158015611aa1573d6000803e3d6000fd5b505050506040513d6020811015611ab757600080fd5b50511515611b0f576040805160e560020a62461bcd02815260206004820152601860248201527f736368656d65206973206e6f7420726567697374657265640000000000000000604482015290519081900360640190fd5b81600160a060020a0316638da5cb5b6040518163ffffffff1660e060020a02815260040160206040518083038186803b158015611b4b57600080fd5b505afa158015611b5f573d6000803e3d6000fd5b505050506040513d6020811015611b7557600080fd5b5051604080517f1c4d5608000000000000000000000000000000000000000000000000000000008152306004820152600160a060020a03858116602483015291519190921691631c4d5608916044808301926020929190829003018186803b158015611be057600080fd5b505afa158015611bf4573d6000803e3d6000fd5b505050506040513d6020811015611c0a57600080fd5b505192915050565b604080518082019091526000808252602082015290565b6040805160808101825260008082526020820181905291810182905260608101919091529056fe6f6e6c7920566f74696e674d616368696e650000000000000000000000000000a165627a7a7230582083c55e1977b2b133dc8ab20ae4e03195ed5775565a8da90436b2e35a496189df0029",
  "source": "pragma solidity ^0.5.4;\n\nimport \"@daostack/infra/contracts/votingMachines/IntVoteInterface.sol\";\nimport \"@daostack/infra/contracts/votingMachines/VotingMachineCallbacksInterface.sol\";\nimport \"./UniversalScheme.sol\";\nimport \"../votingMachines/VotingMachineCallbacks.sol\";\n\n\n\n/**\n * @title A scheme to manage global constraint for organizations\n * @dev The scheme is used to register or remove new global constraints\n */\ncontract GlobalConstraintRegistrar is UniversalScheme, VotingMachineCallbacks, ProposalExecuteInterface {\n    event NewGlobalConstraintsProposal(\n        address indexed _avatar,\n        bytes32 indexed _proposalId,\n        address indexed _intVoteInterface,\n        address _gc,\n        bytes32 _params,\n        bytes32 _voteToRemoveParams,\n        string _descriptionHash\n    );\n\n    event RemoveGlobalConstraintsProposal(\n        address indexed _avatar,\n        bytes32 indexed _proposalId,\n        address indexed _intVoteInterface,\n        address _gc,\n        string _descriptionHash\n    );\n\n    event ProposalExecuted(address indexed _avatar, bytes32 indexed _proposalId, int256 _param);\n    event ProposalDeleted(address indexed _avatar, bytes32 indexed _proposalId);\n\n    // The struct that holds the information of a global constraint proposed to be added or removed.\n    struct GCProposal {\n        address gc; // The address of the global constraint contract.\n        bool addGC; // true: add a GC, false: remove a GC.\n        bytes32 params; // Parameters for global constraint.\n        bytes32 voteToRemoveParams; // Voting parameters for removing this GC.\n    }\n\n    // GCProposal by avatar and proposalId\n    mapping(address=>mapping(bytes32=>GCProposal)) public organizationsProposals;\n\n    // voteToRemoveParams hash by avatar and proposal.gc\n    mapping(address=>mapping(address=>bytes32)) public voteToRemoveParams;\n\n    // A mapping from hashes to parameters (use to store a particular configuration on the controller)\n    struct Parameters {\n        bytes32 voteRegisterParams;\n        IntVoteInterface intVote;\n    }\n\n    mapping(bytes32=>Parameters) public parameters;\n\n    /**\n    * @dev execution of proposals, can only be called by the voting machine in which the vote is held.\n    * @param _proposalId the ID of the voting in the voting machine\n    * @param _param a parameter of the voting result, 1 yes and 2 is no.\n    * @return bool which represents a successful of the function.\n    */\n    function executeProposal(bytes32 _proposalId, int256 _param) external onlyVotingMachine(_proposalId) returns(bool) {\n        Avatar avatar = proposalsInfo[msg.sender][_proposalId].avatar;\n        bool retVal = true;\n        // Check if vote was successful:\n        GCProposal memory proposal = organizationsProposals[address(avatar)][_proposalId];\n        require(proposal.gc != address(0));\n        delete organizationsProposals[address(avatar)][_proposalId];\n        emit ProposalDeleted(address(avatar), _proposalId);\n\n        if (_param == 1) {\n\n        // Define controller and get the params:\n            ControllerInterface controller = ControllerInterface(avatar.owner());\n\n        // Adding a GC\n            if (proposal.addGC) {\n                retVal = controller.addGlobalConstraint(proposal.gc, proposal.params, address(avatar));\n                voteToRemoveParams[address(avatar)][proposal.gc] = proposal.voteToRemoveParams;\n            }\n        // Removing a GC\n            if (!proposal.addGC) {\n                retVal = controller.removeGlobalConstraint(proposal.gc, address(avatar));\n            }\n        }\n        emit ProposalExecuted(address(avatar), _proposalId, _param);\n        return retVal;\n    }\n\n    /**\n    * @dev Hash the parameters, save them if necessary, and return the hash value\n    * @param _voteRegisterParams -  voting parameters for register global constraint\n    * @param _intVote  - voting machine contract.\n    * @return bytes32 -the parameters hash\n    */\n    function setParameters(\n        bytes32 _voteRegisterParams,\n        IntVoteInterface _intVote\n    ) public returns(bytes32)\n    {\n        bytes32 paramsHash = getParametersHash(_voteRegisterParams, _intVote);\n        parameters[paramsHash].voteRegisterParams = _voteRegisterParams;\n        parameters[paramsHash].intVote = _intVote;\n        return paramsHash;\n    }\n\n    /**\n    * @dev Hash the parameters and return the hash value\n    * @param _voteRegisterParams -  voting parameters\n    * @param _intVote  - voting machine contract.\n    * @return bytes32 -the parameters hash\n    */\n    function getParametersHash(\n        bytes32 _voteRegisterParams,\n        IntVoteInterface _intVote\n    ) public pure returns(bytes32)\n    {\n        return (keccak256(abi.encodePacked(_voteRegisterParams, _intVote)));\n    }\n\n    /**\n    * @dev propose to add a new global constraint:\n    * @param _avatar the avatar of the organization that the constraint is proposed for\n    * @param _gc the address of the global constraint that is being proposed\n    * @param _params the parameters for the global constraint\n    * @param _voteToRemoveParams the conditions (on the voting machine) for removing this global constraint\n    * @param _descriptionHash proposal's description hash\n    * @return bytes32 -the proposal id\n    */\n    // TODO: do some checks on _voteToRemoveParams - it is very easy to make a mistake and not be able to remove the GC\n    function proposeGlobalConstraint(\n    Avatar _avatar,\n    address _gc,\n    bytes32 _params,\n    bytes32 _voteToRemoveParams,\n    string memory _descriptionHash)\n    public\n    returns(bytes32)\n    {\n        Parameters memory votingParams = parameters[getParametersFromController(_avatar)];\n\n        IntVoteInterface intVote = votingParams.intVote;\n        bytes32 proposalId = intVote.propose(2, votingParams.voteRegisterParams, msg.sender, address(_avatar));\n\n        GCProposal memory proposal = GCProposal({\n            gc: _gc,\n            params: _params,\n            addGC: true,\n            voteToRemoveParams: _voteToRemoveParams\n        });\n\n        organizationsProposals[address(_avatar)][proposalId] = proposal;\n        emit NewGlobalConstraintsProposal(\n            address(_avatar),\n            proposalId,\n            address(intVote),\n            _gc,\n            _params,\n            _voteToRemoveParams,\n            _descriptionHash\n        );\n        proposalsInfo[address(intVote)][proposalId] = ProposalInfo({\n            blockNumber:block.number,\n            avatar:_avatar\n        });\n        return proposalId;\n    }\n\n    /**\n    * @dev propose to remove a global constraint:\n    * @param _avatar the avatar of the organization that the constraint is proposed for\n    * @param _gc the address of the global constraint that is being proposed\n    * @param _descriptionHash proposal's description hash\n    * @return bytes32 -the proposal id\n    */\n    function proposeToRemoveGC(Avatar _avatar, address _gc, string memory _descriptionHash) public returns(bytes32) {\n        ControllerInterface controller = ControllerInterface(_avatar.owner());\n        require(controller.isGlobalConstraintRegistered(_gc, address(_avatar)));\n        Parameters memory params = parameters[getParametersFromController(_avatar)];\n        IntVoteInterface intVote = params.intVote;\n        bytes32 proposalId = intVote.propose(\n        2,\n        voteToRemoveParams[address(_avatar)][_gc],\n        msg.sender,\n        address(_avatar)\n        );\n\n        GCProposal memory proposal = GCProposal({\n            gc: _gc,\n            params: 0,\n            addGC: false,\n            voteToRemoveParams: 0\n        });\n\n        organizationsProposals[address(_avatar)][proposalId] = proposal;\n        emit RemoveGlobalConstraintsProposal(address(_avatar), proposalId, address(intVote), _gc, _descriptionHash);\n        proposalsInfo[address(intVote)][proposalId] = ProposalInfo({\n            blockNumber: block.number,\n            avatar: _avatar\n        });\n        return proposalId;\n    }\n}\n",
  "sourcePath": "/Users/oren/daostack/daostack2/daostack/contracts/universalSchemes/GlobalConstraintRegistrar.sol",
  "compiler": {
    "name": "solc",
    "version": "0.5.4+commit.9549d8ff.Emscripten.clang"
  },
  "schemaVersion": "3.0.2",
  "updatedAt": "2019-04-08T06:30:27.692Z",
  "devdoc": {
    "details": "The scheme is used to register or remove new global constraints",
    "methods": {
      "executeProposal(bytes32,int256)": {
        "details": "execution of proposals, can only be called by the voting machine in which the vote is held.",
        "params": {
          "_param": "a parameter of the voting result, 1 yes and 2 is no.",
          "_proposalId": "the ID of the voting in the voting machine"
        },
        "return": "bool which represents a successful of the function."
      },
      "getParametersHash(bytes32,address)": {
        "details": "Hash the parameters and return the hash value",
        "params": {
          "_intVote": "- voting machine contract.",
          "_voteRegisterParams": "-  voting parameters"
        },
        "return": "bytes32 -the parameters hash"
      },
      "proposeGlobalConstraint(address,address,bytes32,bytes32,string)": {
        "details": "propose to add a new global constraint:",
        "params": {
          "_avatar": "the avatar of the organization that the constraint is proposed for",
          "_descriptionHash": "proposal's description hash",
          "_gc": "the address of the global constraint that is being proposed",
          "_params": "the parameters for the global constraint",
          "_voteToRemoveParams": "the conditions (on the voting machine) for removing this global constraint"
        },
        "return": "bytes32 -the proposal id"
      },
      "proposeToRemoveGC(address,address,string)": {
        "details": "propose to remove a global constraint:",
        "params": {
          "_avatar": "the avatar of the organization that the constraint is proposed for",
          "_descriptionHash": "proposal's description hash",
          "_gc": "the address of the global constraint that is being proposed"
        },
        "return": "bytes32 -the proposal id"
      },
      "setParameters(bytes32,address)": {
        "details": "Hash the parameters, save them if necessary, and return the hash value",
        "params": {
          "_intVote": "- voting machine contract.",
          "_voteRegisterParams": "-  voting parameters for register global constraint"
        },
        "return": "bytes32 -the parameters hash"
      }
    },
    "title": "A scheme to manage global constraint for organizations"
  },
  "userdoc": {
    "methods": {}
  }
}