{
  "contractName": "LockingEth4Reputation",
  "abi": [
    {
      "constant": true,
      "inputs": [],
      "name": "redeemEnableTime",
      "outputs": [
        {
          "name": "",
          "type": "uint256"
        }
      ],
      "payable": false,
      "stateMutability": "view",
      "type": "function"
    },
    {
      "constant": true,
      "inputs": [],
      "name": "lockingStartTime",
      "outputs": [
        {
          "name": "",
          "type": "uint256"
        }
      ],
      "payable": false,
      "stateMutability": "view",
      "type": "function"
    },
    {
      "constant": true,
      "inputs": [],
      "name": "totalLocked",
      "outputs": [
        {
          "name": "",
          "type": "uint256"
        }
      ],
      "payable": false,
      "stateMutability": "view",
      "type": "function"
    },
    {
      "constant": true,
      "inputs": [],
      "name": "avatar",
      "outputs": [
        {
          "name": "",
          "type": "address"
        }
      ],
      "payable": false,
      "stateMutability": "view",
      "type": "function"
    },
    {
      "constant": true,
      "inputs": [
        {
          "name": "",
          "type": "address"
        }
      ],
      "name": "scores",
      "outputs": [
        {
          "name": "",
          "type": "uint256"
        }
      ],
      "payable": false,
      "stateMutability": "view",
      "type": "function"
    },
    {
      "constant": true,
      "inputs": [
        {
          "name": "",
          "type": "address"
        },
        {
          "name": "",
          "type": "bytes32"
        }
      ],
      "name": "lockers",
      "outputs": [
        {
          "name": "amount",
          "type": "uint256"
        },
        {
          "name": "releaseTime",
          "type": "uint256"
        }
      ],
      "payable": false,
      "stateMutability": "view",
      "type": "function"
    },
    {
      "constant": false,
      "inputs": [
        {
          "name": "_beneficiary",
          "type": "address"
        }
      ],
      "name": "redeem",
      "outputs": [
        {
          "name": "reputation",
          "type": "uint256"
        }
      ],
      "payable": false,
      "stateMutability": "nonpayable",
      "type": "function"
    },
    {
      "constant": true,
      "inputs": [],
      "name": "lockingEndTime",
      "outputs": [
        {
          "name": "",
          "type": "uint256"
        }
      ],
      "payable": false,
      "stateMutability": "view",
      "type": "function"
    },
    {
      "constant": true,
      "inputs": [],
      "name": "reputationRewardLeft",
      "outputs": [
        {
          "name": "",
          "type": "uint256"
        }
      ],
      "payable": false,
      "stateMutability": "view",
      "type": "function"
    },
    {
      "constant": true,
      "inputs": [],
      "name": "maxLockingPeriod",
      "outputs": [
        {
          "name": "",
          "type": "uint256"
        }
      ],
      "payable": false,
      "stateMutability": "view",
      "type": "function"
    },
    {
      "constant": true,
      "inputs": [],
      "name": "totalScore",
      "outputs": [
        {
          "name": "",
          "type": "uint256"
        }
      ],
      "payable": false,
      "stateMutability": "view",
      "type": "function"
    },
    {
      "constant": true,
      "inputs": [],
      "name": "lockingsCounter",
      "outputs": [
        {
          "name": "",
          "type": "uint256"
        }
      ],
      "payable": false,
      "stateMutability": "view",
      "type": "function"
    },
    {
      "constant": true,
      "inputs": [],
      "name": "totalLockedLeft",
      "outputs": [
        {
          "name": "",
          "type": "uint256"
        }
      ],
      "payable": false,
      "stateMutability": "view",
      "type": "function"
    },
    {
      "constant": true,
      "inputs": [],
      "name": "reputationReward",
      "outputs": [
        {
          "name": "",
          "type": "uint256"
        }
      ],
      "payable": false,
      "stateMutability": "view",
      "type": "function"
    },
    {
      "anonymous": false,
      "inputs": [
        {
          "indexed": true,
          "name": "_beneficiary",
          "type": "address"
        },
        {
          "indexed": false,
          "name": "_amount",
          "type": "uint256"
        }
      ],
      "name": "Redeem",
      "type": "event"
    },
    {
      "anonymous": false,
      "inputs": [
        {
          "indexed": true,
          "name": "_lockingId",
          "type": "bytes32"
        },
        {
          "indexed": true,
          "name": "_beneficiary",
          "type": "address"
        },
        {
          "indexed": false,
          "name": "_amount",
          "type": "uint256"
        }
      ],
      "name": "Release",
      "type": "event"
    },
    {
      "anonymous": false,
      "inputs": [
        {
          "indexed": true,
          "name": "_locker",
          "type": "address"
        },
        {
          "indexed": true,
          "name": "_lockingId",
          "type": "bytes32"
        },
        {
          "indexed": false,
          "name": "_amount",
          "type": "uint256"
        },
        {
          "indexed": false,
          "name": "_period",
          "type": "uint256"
        }
      ],
      "name": "Lock",
      "type": "event"
    },
    {
      "constant": false,
      "inputs": [
        {
          "name": "_avatar",
          "type": "address"
        },
        {
          "name": "_reputationReward",
          "type": "uint256"
        },
        {
          "name": "_lockingStartTime",
          "type": "uint256"
        },
        {
          "name": "_lockingEndTime",
          "type": "uint256"
        },
        {
          "name": "_redeemEnableTime",
          "type": "uint256"
        },
        {
          "name": "_maxLockingPeriod",
          "type": "uint256"
        }
      ],
      "name": "initialize",
      "outputs": [],
      "payable": false,
      "stateMutability": "nonpayable",
      "type": "function"
    },
    {
      "constant": false,
      "inputs": [
        {
          "name": "_beneficiary",
          "type": "address"
        },
        {
          "name": "_lockingId",
          "type": "bytes32"
        }
      ],
      "name": "release",
      "outputs": [
        {
          "name": "",
          "type": "bool"
        }
      ],
      "payable": false,
      "stateMutability": "nonpayable",
      "type": "function"
    },
    {
      "constant": false,
      "inputs": [
        {
          "name": "_period",
          "type": "uint256"
        }
      ],
      "name": "lock",
      "outputs": [
        {
          "name": "lockingId",
          "type": "bytes32"
        }
      ],
      "payable": true,
      "stateMutability": "payable",
      "type": "function"
    }
  ],
  "bytecode": "0x608060405234801561001057600080fd5b50610fc4806100206000396000f3fe60806040526004361061011b576000357c010000000000000000000000000000000000000000000000000000000090048063a8c33017116100b2578063c3201add11610081578063c3201add14610301578063c348a24b14610316578063d7c2eec71461032b578063dd46706414610378578063ed1ff6d8146103955761011b565b8063a8c33017146102ad578063afe0e33c146102c2578063bf0df445146102d7578063c006719f146102ec5761011b565b80635aef7de6116100ee5780635aef7de6146101c457806376dd110f146101f5578063838057421461022857806395a2251f1461027a5761011b565b80633d1678f41461012057806345ff4c801461014757806355bfec881461019a57806356891412146101af575b600080fd5b34801561012c57600080fd5b506101356103aa565b60408051918252519081900360200190f35b34801561015357600080fd5b50610198600480360360c081101561016a57600080fd5b50600160a060020a038135169060208101359060408101359060608101359060808101359060a001356103b0565b005b3480156101a657600080fd5b506101356103c6565b3480156101bb57600080fd5b506101356103cc565b3480156101d057600080fd5b506101d96103d2565b60408051600160a060020a039092168252519081900360200190f35b34801561020157600080fd5b506101356004803603602081101561021857600080fd5b5035600160a060020a03166103e1565b34801561023457600080fd5b506102616004803603604081101561024b57600080fd5b50600160a060020a0381351690602001356103f3565b6040805192835260208301919091528051918290030190f35b34801561028657600080fd5b506101356004803603602081101561029d57600080fd5b5035600160a060020a0316610414565b3480156102b957600080fd5b50610135610710565b3480156102ce57600080fd5b50610135610716565b3480156102e357600080fd5b5061013561071c565b3480156102f857600080fd5b50610135610722565b34801561030d57600080fd5b50610135610728565b34801561032257600080fd5b5061013561072e565b34801561033757600080fd5b506103646004803603604081101561034e57600080fd5b50600160a060020a038135169060200135610734565b604080519115158252519081900360200190f35b6101356004803603602081101561038e57600080fd5b5035610787565b3480156103a157600080fd5b50610135610797565b600c5481565b6103be86868686868661079d565b505050505050565b600b5481565b60035481565b600054600160a060020a031681565b60026020526000908152604090205481565b60016020818152600093845260408085209091529183529120805491015482565b600c546000904211610470576040805160e560020a62461bcd02815260206004820152601660248201527f6e6f77203e2072656465656d456e61626c6554696d6500000000000000000000604482015290519081900360640190fd5b600160a060020a038216600090815260026020526040812054116104de576040805160e560020a62461bcd02815260206004820152601360248201527f73636f72652073686f756c64206265203e203000000000000000000000000000604482015290519081900360640190fd5b600160a060020a038216600090815260026020526040812080549082905560075490919061051390839063ffffffff61093116565b905061052a6005548261096390919063ffffffff16565b600854909350610540908463ffffffff61098716565b600855600054604080517f8da5cb5b0000000000000000000000000000000000000000000000000000000081529051600160a060020a0390921691638da5cb5b91600480820192602092909190829003018186803b1580156105a157600080fd5b505afa1580156105b5573d6000803e3d6000fd5b505050506040513d60208110156105cb57600080fd5b505160008054604080517feaf994b200000000000000000000000000000000000000000000000000000000815260048101889052600160a060020a03898116602483015292831660448201529051919093169263eaf994b29260648083019360209390929083900390910190829087803b15801561064857600080fd5b505af115801561065c573d6000803e3d6000fd5b505050506040513d602081101561067257600080fd5b505115156106ca576040805160e560020a62461bcd02815260206004820152601e60248201527f6d696e742072657075746174696f6e2073686f756c6420737563636565640000604482015290519081900360640190fd5b604080518481529051600160a060020a038616917f222838db2794d11532d940e8dec38ae307ed0b63cd97c233322e221f998767a6919081900360200190a25050919050565b60095481565b60085481565b600a5481565b60055481565b60065481565b60045481565b600080610741848461099c565b604051909150600160a060020a0385169082156108fc029083906000818181858888f1935050505015801561077a573d6000803e3d6000fd5b5060019150505b92915050565b6000610781348333600180610ad8565b60075481565b600054600160a060020a0316156107fe576040805160e560020a62461bcd02815260206004820152601b60248201527f63616e2062652063616c6c6564206f6e6c79206f6e652074696d650000000000604482015290519081900360640190fd5b600160a060020a038616151561085e576040805160e560020a62461bcd02815260206004820152601560248201527f6176617461722063616e6e6f74206265207a65726f0000000000000000000000604482015290519081900360640190fd5b83831161089f5760405160e560020a62461bcd02815260040180806020018281038252603a815260200180610f11603a913960400191505060405180910390fd5b828210156108e15760405160e560020a62461bcd028152600401808060200182810382526022815260200180610f776022913960400191505060405180910390fd5b6007859055600894909455600991909155600a929092556000805473ffffffffffffffffffffffffffffffffffffffff1916600160a060020a039490941693909317909255600b91909155600c55565b600082151561094257506000610781565b82820282848281151561095157fe5b041461095c57600080fd5b9392505050565b600080821161097157600080fd5b6000828481151561097e57fe5b04949350505050565b60008282111561099657600080fd5b50900390565b600160a060020a0382166000908152600160209081526040808320848452909152812080548210610a17576040805160e560020a62461bcd02815260206004820152601460248201527f616d6f756e742073686f756c64206265203e2030000000000000000000000000604482015290519081900360640190fd5b80546000825560018201549092504211610a7b576040805160e560020a62461bcd02815260206004820152601a60248201527f636865636b20746865206c6f636b20706572696f642070617373000000000000604482015290519081900360640190fd5b600454610a8e908363ffffffff61098716565b600455604080518381529051600160a060020a0386169185917fcb7ab693259d2332e08e7666832578144deb74443e37a762847e848793fc29819181900360200190a35092915050565b6000808611610b31576040805160e560020a62461bcd02815260206004820152601c60248201527f6c6f636b696e6720616d6f756e742073686f756c64206265203e203000000000604482015290519081900360640190fd5b600a54851115610b755760405160e560020a62461bcd02815260040180806020018281038252602c815260200180610f4b602c913960400191505060405180910390fd5b60008511610bcd576040805160e560020a62461bcd02815260206004820152601c60248201527f6c6f636b696e6720706572696f642073686f756c64206265203e203000000000604482015290519081900360640190fd5b600954421115610c115760405160e560020a62461bcd028152600401808060200182810382526030815260200180610ee16030913960400191505060405180910390fd5b600b54421015610c555760405160e560020a62461bcd028152600401808060200182810382526028815260200180610eb96028913960400191505060405180910390fd5b50600654604080516c0100000000000000000000000030026020808301919091526034808301859052835180840390910181526054909201909252805191012090610ca790600163ffffffff610ea616565b600655600160a060020a038416600090815260016020818152604080842085855290915290912087815542870191810191909155600354610cee908863ffffffff610ea616565b600355600454610d04908863ffffffff610ea616565b6004556000610d3984610d2d87610d218b8d63ffffffff61093116565b9063ffffffff61093116565b9063ffffffff61096316565b905060008111610d93576040805160e560020a62461bcd02815260206004820152601160248201527f73636f7265206d757374206d65203e2030000000000000000000000000000000604482015290519081900360640190fd5b600160a060020a038616600090815260026020526040902054610dbc908263ffffffff610ea616565b600160a060020a038716600090815260026020526040902081905560075490818102811515610de757fe5b0414610e3d576040805160e560020a62461bcd02815260206004820152601160248201527f73636f726520697320746f6f2068696768000000000000000000000000000000604482015290519081900360640190fd5b600554610e50908263ffffffff610ea616565b600555604080518981526020810189905281518592600160a060020a038a16927fd173f98f4a2080eab40a0bff4d9a575753270cb2401c74efdec1feb0ba31b426929081900390910190a3505095945050505050565b60008282018381101561095c57600080fdfe6c6f636b2073686f756c64207374617274206166746572206c6f636b696e67537461727454696d656c6f636b2073686f756c642062652077697468696e2074686520616c6c6f776564206c6f636b696e6720706572696f646c6f636b696e6720656e642074696d652073686f756c642062652067726561746572207468616e206c6f636b696e672073746172742074696d656c6f636b696e6720706572696f642073686f756c64206265203c3d206d61784c6f636b696e67506572696f6472656465656d456e61626c6554696d65203e3d206c6f636b696e67456e6454696d65a165627a7a72305820227195c947dee8ab553b8ec9c2e3b3ca6bdf36c1b32aa3a0ec069fe7d514ebc30029",
  "source": "pragma solidity ^0.5.4;\n\nimport \"./Locking4Reputation.sol\";\n\n/**\n * @title A scheme for locking ETH for reputation\n */\n\ncontract LockingEth4Reputation is Locking4Reputation {\n\n    /**\n     * @dev initialize\n     * @param _avatar the avatar to mint reputation from\n     * @param _reputationReward the total reputation this contract will reward\n     *        for eth locking\n     * @param _lockingStartTime locking starting period time.\n     * @param _lockingEndTime the locking end time.\n     *        locking is disable after this time.\n     * @param _redeemEnableTime redeem enable time .\n     *        redeem reputation can be done after this time.\n     * @param _maxLockingPeriod maximum locking period allowed.\n     */\n    function initialize(\n        Avatar _avatar,\n        uint256 _reputationReward,\n        uint256 _lockingStartTime,\n        uint256 _lockingEndTime,\n        uint256 _redeemEnableTime,\n        uint256 _maxLockingPeriod)\n    external\n    {\n        super._initialize(\n        _avatar,\n        _reputationReward,\n        _lockingStartTime,\n        _lockingEndTime,\n        _redeemEnableTime,\n        _maxLockingPeriod);\n    }\n\n    /**\n     * @dev release locked eth\n     * @param _beneficiary the release _beneficiary\n     * @param _lockingId the locking id\n     * @return bool\n     */\n    function release(address payable _beneficiary, bytes32 _lockingId) public returns(bool) {\n        uint256 amount = super._release(_beneficiary, _lockingId);\n        _beneficiary.transfer(amount);\n\n        return true;\n    }\n\n    /**\n     * @dev lock function\n     * @param _period the locking period\n     * @return lockingId the unique Id\n     */\n    function lock(uint256 _period) public payable returns(bytes32 lockingId) {\n        return super._lock(msg.value, _period, msg.sender, 1, 1);\n    }\n\n}\n",
  "sourcePath": "/Users/oren/daostack/daostack2/daostack/contracts/schemes/LockingEth4Reputation.sol",
  "compiler": {
    "name": "solc",
    "version": "0.5.4+commit.9549d8ff.Emscripten.clang"
  },
  "schemaVersion": "3.0.2",
  "updatedAt": "2019-04-08T06:30:27.669Z",
  "devdoc": {
    "methods": {
      "initialize(address,uint256,uint256,uint256,uint256,uint256)": {
        "details": "initialize",
        "params": {
          "_avatar": "the avatar to mint reputation from",
          "_lockingEndTime": "the locking end time.       locking is disable after this time.",
          "_lockingStartTime": "locking starting period time.",
          "_maxLockingPeriod": "maximum locking period allowed.",
          "_redeemEnableTime": "redeem enable time .       redeem reputation can be done after this time.",
          "_reputationReward": "the total reputation this contract will reward       for eth locking"
        }
      },
      "lock(uint256)": {
        "details": "lock function",
        "params": {
          "_period": "the locking period"
        },
        "return": "lockingId the unique Id"
      },
      "redeem(address)": {
        "details": "redeem reputation function",
        "params": {
          "_beneficiary": "the beneficiary for the release"
        },
        "return": "uint256 reputation rewarded"
      },
      "release(address,bytes32)": {
        "details": "release locked eth",
        "params": {
          "_beneficiary": "the release _beneficiary",
          "_lockingId": "the locking id"
        },
        "return": "bool"
      }
    },
    "title": "A scheme for locking ETH for reputation"
  },
  "userdoc": {
    "methods": {}
  }
}