{
  "contractName": "Locking4Reputation",
  "abi": [
    {
      "constant": true,
      "inputs": [],
      "name": "redeemEnableTime",
      "outputs": [
        {
          "name": "",
          "type": "uint256"
        }
      ],
      "payable": false,
      "stateMutability": "view",
      "type": "function"
    },
    {
      "constant": true,
      "inputs": [],
      "name": "lockingStartTime",
      "outputs": [
        {
          "name": "",
          "type": "uint256"
        }
      ],
      "payable": false,
      "stateMutability": "view",
      "type": "function"
    },
    {
      "constant": true,
      "inputs": [],
      "name": "totalLocked",
      "outputs": [
        {
          "name": "",
          "type": "uint256"
        }
      ],
      "payable": false,
      "stateMutability": "view",
      "type": "function"
    },
    {
      "constant": true,
      "inputs": [],
      "name": "avatar",
      "outputs": [
        {
          "name": "",
          "type": "address"
        }
      ],
      "payable": false,
      "stateMutability": "view",
      "type": "function"
    },
    {
      "constant": true,
      "inputs": [
        {
          "name": "",
          "type": "address"
        }
      ],
      "name": "scores",
      "outputs": [
        {
          "name": "",
          "type": "uint256"
        }
      ],
      "payable": false,
      "stateMutability": "view",
      "type": "function"
    },
    {
      "constant": true,
      "inputs": [
        {
          "name": "",
          "type": "address"
        },
        {
          "name": "",
          "type": "bytes32"
        }
      ],
      "name": "lockers",
      "outputs": [
        {
          "name": "amount",
          "type": "uint256"
        },
        {
          "name": "releaseTime",
          "type": "uint256"
        }
      ],
      "payable": false,
      "stateMutability": "view",
      "type": "function"
    },
    {
      "constant": true,
      "inputs": [],
      "name": "lockingEndTime",
      "outputs": [
        {
          "name": "",
          "type": "uint256"
        }
      ],
      "payable": false,
      "stateMutability": "view",
      "type": "function"
    },
    {
      "constant": true,
      "inputs": [],
      "name": "reputationRewardLeft",
      "outputs": [
        {
          "name": "",
          "type": "uint256"
        }
      ],
      "payable": false,
      "stateMutability": "view",
      "type": "function"
    },
    {
      "constant": true,
      "inputs": [],
      "name": "maxLockingPeriod",
      "outputs": [
        {
          "name": "",
          "type": "uint256"
        }
      ],
      "payable": false,
      "stateMutability": "view",
      "type": "function"
    },
    {
      "constant": true,
      "inputs": [],
      "name": "totalScore",
      "outputs": [
        {
          "name": "",
          "type": "uint256"
        }
      ],
      "payable": false,
      "stateMutability": "view",
      "type": "function"
    },
    {
      "constant": true,
      "inputs": [],
      "name": "lockingsCounter",
      "outputs": [
        {
          "name": "",
          "type": "uint256"
        }
      ],
      "payable": false,
      "stateMutability": "view",
      "type": "function"
    },
    {
      "constant": true,
      "inputs": [],
      "name": "totalLockedLeft",
      "outputs": [
        {
          "name": "",
          "type": "uint256"
        }
      ],
      "payable": false,
      "stateMutability": "view",
      "type": "function"
    },
    {
      "constant": true,
      "inputs": [],
      "name": "reputationReward",
      "outputs": [
        {
          "name": "",
          "type": "uint256"
        }
      ],
      "payable": false,
      "stateMutability": "view",
      "type": "function"
    },
    {
      "anonymous": false,
      "inputs": [
        {
          "indexed": true,
          "name": "_beneficiary",
          "type": "address"
        },
        {
          "indexed": false,
          "name": "_amount",
          "type": "uint256"
        }
      ],
      "name": "Redeem",
      "type": "event"
    },
    {
      "anonymous": false,
      "inputs": [
        {
          "indexed": true,
          "name": "_lockingId",
          "type": "bytes32"
        },
        {
          "indexed": true,
          "name": "_beneficiary",
          "type": "address"
        },
        {
          "indexed": false,
          "name": "_amount",
          "type": "uint256"
        }
      ],
      "name": "Release",
      "type": "event"
    },
    {
      "anonymous": false,
      "inputs": [
        {
          "indexed": true,
          "name": "_locker",
          "type": "address"
        },
        {
          "indexed": true,
          "name": "_lockingId",
          "type": "bytes32"
        },
        {
          "indexed": false,
          "name": "_amount",
          "type": "uint256"
        },
        {
          "indexed": false,
          "name": "_period",
          "type": "uint256"
        }
      ],
      "name": "Lock",
      "type": "event"
    },
    {
      "constant": false,
      "inputs": [
        {
          "name": "_beneficiary",
          "type": "address"
        }
      ],
      "name": "redeem",
      "outputs": [
        {
          "name": "reputation",
          "type": "uint256"
        }
      ],
      "payable": false,
      "stateMutability": "nonpayable",
      "type": "function"
    }
  ],
  "bytecode": "0x608060405234801561001057600080fd5b5061067b806100206000396000f3fe608060405234801561001057600080fd5b5060043610610107576000357c010000000000000000000000000000000000000000000000000000000090048063a8c33017116100a9578063c006719f11610083578063c006719f14610203578063c3201add1461020b578063c348a24b14610213578063ed1ff6d81461021b57610107565b8063a8c33017146101eb578063afe0e33c146101f3578063bf0df445146101fb57610107565b80635aef7de6116100e55780635aef7de61461013657806376dd110f1461015a578063838057421461018057806395a2251f146101c557610107565b80633d1678f41461010c57806355bfec8814610126578063568914121461012e575b600080fd5b610114610223565b60408051918252519081900360200190f35b610114610229565b61011461022f565b61013e610235565b60408051600160a060020a039092168252519081900360200190f35b6101146004803603602081101561017057600080fd5b5035600160a060020a0316610244565b6101ac6004803603604081101561019657600080fd5b50600160a060020a038135169060200135610256565b6040805192835260208301919091528051918290030190f35b610114600480360360208110156101db57600080fd5b5035600160a060020a0316610277565b6101146105b8565b6101146105be565b6101146105c4565b6101146105ca565b6101146105d0565b6101146105d6565b6101146105dc565b600c5481565b600b5481565b60035481565b600054600160a060020a031681565b60026020526000908152604090205481565b60016020818152600093845260408085209091529183529120805491015482565b600c5460009042116102ea57604080517f08c379a000000000000000000000000000000000000000000000000000000000815260206004820152601660248201527f6e6f77203e2072656465656d456e61626c6554696d6500000000000000000000604482015290519081900360640190fd5b600160a060020a0382166000908152600260205260408120541161036f57604080517f08c379a000000000000000000000000000000000000000000000000000000000815260206004820152601360248201527f73636f72652073686f756c64206265203e203000000000000000000000000000604482015290519081900360640190fd5b600160a060020a03821660009081526002602052604081208054908290556007549091906103a490839063ffffffff6105e216565b90506103bb6005548261061690919063ffffffff16565b6008549093506103d1908463ffffffff61063a16565b600855600054604080517f8da5cb5b0000000000000000000000000000000000000000000000000000000081529051600160a060020a0390921691638da5cb5b91600480820192602092909190829003018186803b15801561043257600080fd5b505afa158015610446573d6000803e3d6000fd5b505050506040513d602081101561045c57600080fd5b505160008054604080517feaf994b200000000000000000000000000000000000000000000000000000000815260048101889052600160a060020a03898116602483015292831660448201529051919093169263eaf994b29260648083019360209390929083900390910190829087803b1580156104d957600080fd5b505af11580156104ed573d6000803e3d6000fd5b505050506040513d602081101561050357600080fd5b5051151561057257604080517f08c379a000000000000000000000000000000000000000000000000000000000815260206004820152601e60248201527f6d696e742072657075746174696f6e2073686f756c6420737563636565640000604482015290519081900360640190fd5b604080518481529051600160a060020a038616917f222838db2794d11532d940e8dec38ae307ed0b63cd97c233322e221f998767a6919081900360200190a25050919050565b60095481565b60085481565b600a5481565b60055481565b60065481565b60045481565b60075481565b60008215156105f357506000610610565b82820282848281151561060257fe5b041461060d57600080fd5b90505b92915050565b600080821161062457600080fd5b6000828481151561063157fe5b04949350505050565b60008282111561064957600080fd5b5090039056fea165627a7a72305820a27f5c78f6af502baeb079cb34dfbb42b75bde7bb3a332ffe81f64e829d7af990029",
  "source": "pragma solidity ^0.5.4;\n\nimport \"../controller/ControllerInterface.sol\";\n\n\n/**\n * @title A locker contract\n */\n\ncontract Locking4Reputation {\n    using SafeMath for uint256;\n\n    event Redeem(address indexed _beneficiary, uint256 _amount);\n    event Release(bytes32 indexed _lockingId, address indexed _beneficiary, uint256 _amount);\n    event Lock(address indexed _locker, bytes32 indexed _lockingId, uint256 _amount, uint256 _period);\n\n    struct Locker {\n        uint256 amount;\n        uint256 releaseTime;\n    }\n\n    Avatar public avatar;\n\n    // A mapping from lockers addresses their lock balances.\n    mapping(address => mapping(bytes32=>Locker)) public lockers;\n    // A mapping from lockers addresses to their scores.\n    mapping(address => uint) public scores;\n\n    uint256 public totalLocked;\n    uint256 public totalLockedLeft;\n    uint256 public totalScore;\n    uint256 public lockingsCounter; // Total number of lockings\n    uint256 public reputationReward;\n    uint256 public reputationRewardLeft;\n    uint256 public lockingEndTime;\n    uint256 public maxLockingPeriod;\n    uint256 public lockingStartTime;\n    uint256 public redeemEnableTime;\n\n    /**\n     * @dev redeem reputation function\n     * @param _beneficiary the beneficiary for the release\n     * @return uint256 reputation rewarded\n     */\n    function redeem(address _beneficiary) public returns(uint256 reputation) {\n        // solhint-disable-next-line not-rely-on-time\n        require(block.timestamp > redeemEnableTime, \"now > redeemEnableTime\");\n        require(scores[_beneficiary] > 0, \"score should be > 0\");\n        uint256 score = scores[_beneficiary];\n        scores[_beneficiary] = 0;\n        uint256 repRelation = score.mul(reputationReward);\n        reputation = repRelation.div(totalScore);\n\n        //check that the reputation is sum zero\n        reputationRewardLeft = reputationRewardLeft.sub(reputation);\n        require(\n        ControllerInterface(\n        avatar.owner())\n        .mintReputation(reputation, _beneficiary, address(avatar)), \"mint reputation should succeed\");\n\n        emit Redeem(_beneficiary, reputation);\n    }\n\n    /**\n     * @dev release function\n     * @param _beneficiary the beneficiary for the release\n     * @param _lockingId the locking id to release\n     * @return bool\n     */\n    function _release(address _beneficiary, bytes32 _lockingId) internal returns(uint256 amount) {\n        Locker storage locker = lockers[_beneficiary][_lockingId];\n        require(locker.amount > 0, \"amount should be > 0\");\n        amount = locker.amount;\n        locker.amount = 0;\n        // solhint-disable-next-line not-rely-on-time\n        require(block.timestamp > locker.releaseTime, \"check the lock period pass\");\n        totalLockedLeft = totalLockedLeft.sub(amount);\n\n        emit Release(_lockingId, _beneficiary, amount);\n    }\n\n    /**\n     * @dev lock function\n     * @param _amount the amount to lock\n     * @param _period the locking period\n     * @param _locker the locker\n     * @param _numerator price numerator\n     * @param _denominator price denominator\n     * @return lockingId\n     */\n    function _lock(\n        uint256 _amount,\n        uint256 _period,\n        address _locker,\n        uint256 _numerator,\n        uint256 _denominator)\n        internal\n        returns(bytes32 lockingId)\n        {\n        require(_amount > 0, \"locking amount should be > 0\");\n        require(_period <= maxLockingPeriod, \"locking period should be <= maxLockingPeriod\");\n        require(_period > 0, \"locking period should be > 0\");\n        // solhint-disable-next-line not-rely-on-time\n        require(now <= lockingEndTime, \"lock should be within the allowed locking period\");\n        // solhint-disable-next-line not-rely-on-time\n        require(now >= lockingStartTime, \"lock should start after lockingStartTime\");\n\n        lockingId = keccak256(abi.encodePacked(address(this), lockingsCounter));\n        lockingsCounter = lockingsCounter.add(1);\n\n        Locker storage locker = lockers[_locker][lockingId];\n        locker.amount = _amount;\n        // solhint-disable-next-line not-rely-on-time\n        locker.releaseTime = now + _period;\n        totalLocked = totalLocked.add(_amount);\n        totalLockedLeft = totalLockedLeft.add(_amount);\n        uint256 score = _period.mul(_amount).mul(_numerator).div(_denominator);\n        require(score > 0, \"score must me > 0\");\n        scores[_locker] = scores[_locker].add(score);\n        //verify that redeem will not overflow for this locker\n        require((scores[_locker] * reputationReward)/scores[_locker] == reputationReward,\n        \"score is too high\");\n        totalScore = totalScore.add(score);\n\n        emit Lock(_locker, lockingId, _amount, _period);\n    }\n\n    /**\n     * @dev _initialize\n     * @param _avatar the avatar to mint reputation from\n     * @param _reputationReward the total reputation this contract will reward\n     *        for eth/token locking\n     * @param _lockingStartTime the locking start time.\n     * @param _lockingEndTime the locking end time.\n     *        locking is disable after this time.\n     * @param _redeemEnableTime redeem enable time .\n     *        redeem reputation can be done after this time.\n     * @param _maxLockingPeriod maximum locking period allowed.\n     */\n    function _initialize(\n        Avatar _avatar,\n        uint256 _reputationReward,\n        uint256 _lockingStartTime,\n        uint256 _lockingEndTime,\n        uint256 _redeemEnableTime,\n        uint256 _maxLockingPeriod)\n    internal\n    {\n        require(avatar == Avatar(0), \"can be called only one time\");\n        require(_avatar != Avatar(0), \"avatar cannot be zero\");\n        require(_lockingEndTime > _lockingStartTime, \"locking end time should be greater than locking start time\");\n        require(_redeemEnableTime >= _lockingEndTime, \"redeemEnableTime >= lockingEndTime\");\n\n        reputationReward = _reputationReward;\n        reputationRewardLeft = _reputationReward;\n        lockingEndTime = _lockingEndTime;\n        maxLockingPeriod = _maxLockingPeriod;\n        avatar = _avatar;\n        lockingStartTime = _lockingStartTime;\n        redeemEnableTime = _redeemEnableTime;\n    }\n\n}\n",
  "sourcePath": "/Users/oren/daostack/daostack2/daostack/contracts/schemes/Locking4Reputation.sol",
  "compiler": {
    "name": "solc",
    "version": "0.5.4+commit.9549d8ff.Emscripten.clang"
  },
  "schemaVersion": "3.0.2",
  "updatedAt": "2019-04-08T06:30:27.667Z",
  "devdoc": {
    "methods": {
      "redeem(address)": {
        "details": "redeem reputation function",
        "params": {
          "_beneficiary": "the beneficiary for the release"
        },
        "return": "uint256 reputation rewarded"
      }
    },
    "title": "A locker contract"
  },
  "userdoc": {
    "methods": {}
  }
}