{
  "contractName": "LockingToken4Reputation",
  "abi": [
    {
      "constant": true,
      "inputs": [],
      "name": "redeemEnableTime",
      "outputs": [
        {
          "name": "",
          "type": "uint256"
        }
      ],
      "payable": false,
      "stateMutability": "view",
      "type": "function"
    },
    {
      "constant": true,
      "inputs": [],
      "name": "priceOracleContract",
      "outputs": [
        {
          "name": "",
          "type": "address"
        }
      ],
      "payable": false,
      "stateMutability": "view",
      "type": "function"
    },
    {
      "constant": true,
      "inputs": [],
      "name": "lockingStartTime",
      "outputs": [
        {
          "name": "",
          "type": "uint256"
        }
      ],
      "payable": false,
      "stateMutability": "view",
      "type": "function"
    },
    {
      "constant": true,
      "inputs": [],
      "name": "totalLocked",
      "outputs": [
        {
          "name": "",
          "type": "uint256"
        }
      ],
      "payable": false,
      "stateMutability": "view",
      "type": "function"
    },
    {
      "constant": true,
      "inputs": [],
      "name": "avatar",
      "outputs": [
        {
          "name": "",
          "type": "address"
        }
      ],
      "payable": false,
      "stateMutability": "view",
      "type": "function"
    },
    {
      "constant": true,
      "inputs": [
        {
          "name": "",
          "type": "address"
        }
      ],
      "name": "scores",
      "outputs": [
        {
          "name": "",
          "type": "uint256"
        }
      ],
      "payable": false,
      "stateMutability": "view",
      "type": "function"
    },
    {
      "constant": true,
      "inputs": [
        {
          "name": "",
          "type": "address"
        },
        {
          "name": "",
          "type": "bytes32"
        }
      ],
      "name": "lockers",
      "outputs": [
        {
          "name": "amount",
          "type": "uint256"
        },
        {
          "name": "releaseTime",
          "type": "uint256"
        }
      ],
      "payable": false,
      "stateMutability": "view",
      "type": "function"
    },
    {
      "constant": false,
      "inputs": [
        {
          "name": "_beneficiary",
          "type": "address"
        }
      ],
      "name": "redeem",
      "outputs": [
        {
          "name": "reputation",
          "type": "uint256"
        }
      ],
      "payable": false,
      "stateMutability": "nonpayable",
      "type": "function"
    },
    {
      "constant": true,
      "inputs": [],
      "name": "lockingEndTime",
      "outputs": [
        {
          "name": "",
          "type": "uint256"
        }
      ],
      "payable": false,
      "stateMutability": "view",
      "type": "function"
    },
    {
      "constant": true,
      "inputs": [],
      "name": "reputationRewardLeft",
      "outputs": [
        {
          "name": "",
          "type": "uint256"
        }
      ],
      "payable": false,
      "stateMutability": "view",
      "type": "function"
    },
    {
      "constant": true,
      "inputs": [],
      "name": "maxLockingPeriod",
      "outputs": [
        {
          "name": "",
          "type": "uint256"
        }
      ],
      "payable": false,
      "stateMutability": "view",
      "type": "function"
    },
    {
      "constant": true,
      "inputs": [],
      "name": "totalScore",
      "outputs": [
        {
          "name": "",
          "type": "uint256"
        }
      ],
      "payable": false,
      "stateMutability": "view",
      "type": "function"
    },
    {
      "constant": true,
      "inputs": [],
      "name": "lockingsCounter",
      "outputs": [
        {
          "name": "",
          "type": "uint256"
        }
      ],
      "payable": false,
      "stateMutability": "view",
      "type": "function"
    },
    {
      "constant": true,
      "inputs": [],
      "name": "totalLockedLeft",
      "outputs": [
        {
          "name": "",
          "type": "uint256"
        }
      ],
      "payable": false,
      "stateMutability": "view",
      "type": "function"
    },
    {
      "constant": true,
      "inputs": [
        {
          "name": "",
          "type": "bytes32"
        }
      ],
      "name": "lockedTokens",
      "outputs": [
        {
          "name": "",
          "type": "address"
        }
      ],
      "payable": false,
      "stateMutability": "view",
      "type": "function"
    },
    {
      "constant": true,
      "inputs": [],
      "name": "reputationReward",
      "outputs": [
        {
          "name": "",
          "type": "uint256"
        }
      ],
      "payable": false,
      "stateMutability": "view",
      "type": "function"
    },
    {
      "anonymous": false,
      "inputs": [
        {
          "indexed": true,
          "name": "_lockingId",
          "type": "bytes32"
        },
        {
          "indexed": true,
          "name": "_token",
          "type": "address"
        },
        {
          "indexed": false,
          "name": "_numerator",
          "type": "uint256"
        },
        {
          "indexed": false,
          "name": "_denominator",
          "type": "uint256"
        }
      ],
      "name": "LockToken",
      "type": "event"
    },
    {
      "anonymous": false,
      "inputs": [
        {
          "indexed": true,
          "name": "_beneficiary",
          "type": "address"
        },
        {
          "indexed": false,
          "name": "_amount",
          "type": "uint256"
        }
      ],
      "name": "Redeem",
      "type": "event"
    },
    {
      "anonymous": false,
      "inputs": [
        {
          "indexed": true,
          "name": "_lockingId",
          "type": "bytes32"
        },
        {
          "indexed": true,
          "name": "_beneficiary",
          "type": "address"
        },
        {
          "indexed": false,
          "name": "_amount",
          "type": "uint256"
        }
      ],
      "name": "Release",
      "type": "event"
    },
    {
      "anonymous": false,
      "inputs": [
        {
          "indexed": true,
          "name": "_locker",
          "type": "address"
        },
        {
          "indexed": true,
          "name": "_lockingId",
          "type": "bytes32"
        },
        {
          "indexed": false,
          "name": "_amount",
          "type": "uint256"
        },
        {
          "indexed": false,
          "name": "_period",
          "type": "uint256"
        }
      ],
      "name": "Lock",
      "type": "event"
    },
    {
      "constant": false,
      "inputs": [
        {
          "name": "_avatar",
          "type": "address"
        },
        {
          "name": "_reputationReward",
          "type": "uint256"
        },
        {
          "name": "_lockingStartTime",
          "type": "uint256"
        },
        {
          "name": "_lockingEndTime",
          "type": "uint256"
        },
        {
          "name": "_redeemEnableTime",
          "type": "uint256"
        },
        {
          "name": "_maxLockingPeriod",
          "type": "uint256"
        },
        {
          "name": "_priceOracleContract",
          "type": "address"
        }
      ],
      "name": "initialize",
      "outputs": [],
      "payable": false,
      "stateMutability": "nonpayable",
      "type": "function"
    },
    {
      "constant": false,
      "inputs": [
        {
          "name": "_beneficiary",
          "type": "address"
        },
        {
          "name": "_lockingId",
          "type": "bytes32"
        }
      ],
      "name": "release",
      "outputs": [
        {
          "name": "",
          "type": "bool"
        }
      ],
      "payable": false,
      "stateMutability": "nonpayable",
      "type": "function"
    },
    {
      "constant": false,
      "inputs": [
        {
          "name": "_amount",
          "type": "uint256"
        },
        {
          "name": "_period",
          "type": "uint256"
        },
        {
          "name": "_token",
          "type": "address"
        }
      ],
      "name": "lock",
      "outputs": [
        {
          "name": "lockingId",
          "type": "bytes32"
        }
      ],
      "payable": false,
      "stateMutability": "nonpayable",
      "type": "function"
    }
  ],
  "bytecode": "0x608060405234801561001057600080fd5b506115a4806100206000396000f3fe608060405234801561001057600080fd5b506004361061013e576000357c010000000000000000000000000000000000000000000000000000000090048063a8c33017116100ca578063c348a24b1161008e578063c348a24b146102a2578063d35cf790146102aa578063d7c2eec7146102dc578063e8d335881461031c578063ed1ff6d8146103395761013e565b8063a8c330171461027a578063afe0e33c14610282578063bf0df4451461028a578063c006719f14610292578063c3201add1461029a5761013e565b8063568914121161011157806356891412146101d95780635aef7de6146101e157806376dd110f146101e9578063838057421461020f57806395a2251f146102545761013e565b806339b6e72c146101435780633d1678f414610193578063457454db146101ad57806355bfec88146101d1575b600080fd5b610191600480360360e081101561015957600080fd5b50600160a060020a03813581169160208101359160408201359160608101359160808201359160a08101359160c09091013516610341565b005b61019b610380565b60408051918252519081900360200190f35b6101b5610386565b60408051600160a060020a039092168252519081900360200190f35b61019b610395565b61019b61039b565b6101b56103a1565b61019b600480360360208110156101ff57600080fd5b5035600160a060020a03166103b0565b61023b6004803603604081101561022557600080fd5b50600160a060020a0381351690602001356103c2565b6040805192835260208301919091528051918290030190f35b61019b6004803603602081101561026a57600080fd5b5035600160a060020a03166103e3565b61019b6106df565b61019b6106e5565b61019b6106eb565b61019b6106f1565b61019b6106f7565b61019b6106fd565b61019b600480360360608110156102c057600080fd5b5080359060208101359060400135600160a060020a0316610703565b610308600480360360408110156102f257600080fd5b50600160a060020a0381351690602001356108fb565b604080519115158252519081900360200190f35b6101b56004803603602081101561033257600080fd5b5035610940565b61019b61095b565b600d805473ffffffffffffffffffffffffffffffffffffffff1916600160a060020a038316179055610377878787878787610961565b50505050505050565b600c5481565b600d54600160a060020a031681565b600b5481565b60035481565b600054600160a060020a031681565b60026020526000908152604090205481565b60016020818152600093845260408085209091529183529120805491015482565b600c54600090421161043f576040805160e560020a62461bcd02815260206004820152601660248201527f6e6f77203e2072656465656d456e61626c6554696d6500000000000000000000604482015290519081900360640190fd5b600160a060020a038216600090815260026020526040812054116104ad576040805160e560020a62461bcd02815260206004820152601360248201527f73636f72652073686f756c64206265203e203000000000000000000000000000604482015290519081900360640190fd5b600160a060020a03821660009081526002602052604081208054908290556007549091906104e290839063ffffffff610af516565b90506104f960055482610b2790919063ffffffff16565b60085490935061050f908463ffffffff610b4b16565b600855600054604080517f8da5cb5b0000000000000000000000000000000000000000000000000000000081529051600160a060020a0390921691638da5cb5b91600480820192602092909190829003018186803b15801561057057600080fd5b505afa158015610584573d6000803e3d6000fd5b505050506040513d602081101561059a57600080fd5b505160008054604080517feaf994b200000000000000000000000000000000000000000000000000000000815260048101889052600160a060020a03898116602483015292831660448201529051919093169263eaf994b29260648083019360209390929083900390910190829087803b15801561061757600080fd5b505af115801561062b573d6000803e3d6000fd5b505050506040513d602081101561064157600080fd5b50511515610699576040805160e560020a62461bcd02815260206004820152601e60248201527f6d696e742072657075746174696f6e2073686f756c6420737563636565640000604482015290519081900360640190fd5b604080518481529051600160a060020a038616917f222838db2794d11532d940e8dec38ae307ed0b63cd97c233322e221f998767a6919081900360200190a25050919050565b60095481565b60085481565b600a5481565b60055481565b60065481565b60045481565b600d54604080517f41976e09000000000000000000000000000000000000000000000000000000008152600160a060020a03848116600483015282516000948594859493909116926341976e099260248083019392829003018186803b15801561076c57600080fd5b505afa158015610780573d6000803e3d6000fd5b505050506040513d604081101561079657600080fd5b5080516020909101519092509050600082116107fc576040805160e560020a62461bcd02815260206004820152601760248201527f6e756d657261746f722073686f756c64206265203e2030000000000000000000604482015290519081900360640190fd5b60008111610854576040805160e560020a62461bcd02815260206004820152601960248201527f64656e6f6d696e61746f722073686f756c64206265203e203000000000000000604482015290519081900360640190fd5b61086f600160a060020a03851633308963ffffffff610b6016565b61087c8686338585610d58565b6000818152600e6020908152604091829020805473ffffffffffffffffffffffffffffffffffffffff1916600160a060020a038916908117909155825186815291820185905282519396509286927f09ae2accb7909b2605e5e74e2584c7f5aa396bc6ab76290633ae3819ff650e9f928290030190a350509392505050565b6000806109088484611126565b6000848152600e602052604090205490915061093490600160a060020a0316858363ffffffff61126216565b60019150505b92915050565b600e60205260009081526040902054600160a060020a031681565b60075481565b600054600160a060020a0316156109c2576040805160e560020a62461bcd02815260206004820152601b60248201527f63616e2062652063616c6c6564206f6e6c79206f6e652074696d650000000000604482015290519081900360640190fd5b600160a060020a0386161515610a22576040805160e560020a62461bcd02815260206004820152601560248201527f6176617461722063616e6e6f74206265207a65726f0000000000000000000000604482015290519081900360640190fd5b838311610a635760405160e560020a62461bcd02815260040180806020018281038252603a8152602001806114f1603a913960400191505060405180910390fd5b82821015610aa55760405160e560020a62461bcd0281526004018080602001828103825260228152602001806115576022913960400191505060405180910390fd5b6007859055600894909455600991909155600a929092556000805473ffffffffffffffffffffffffffffffffffffffff1916600160a060020a039490941693909317909255600b91909155600c55565b6000821515610b065750600061093a565b828202828482811515610b1557fe5b0414610b2057600080fd5b9392505050565b6000808211610b3557600080fd5b60008284811515610b4257fe5b04949350505050565b600082821115610b5a57600080fd5b50900390565b610b7284600160a060020a0316611459565b1515610b7d57600080fd5b6000606085600160a060020a03166060604051908101604052806025815260200161147460259139805160209182012060408051600160a060020a03808b166024830152891660448201526064808201899052825180830390910181526084909101825292830180517bffffffffffffffffffffffffffffffffffffffffffffffffffffffff167fffffffff00000000000000000000000000000000000000000000000000000000909316929092178252518251909182918083835b60208310610c585780518252601f199092019160209182019101610c39565b6001836020036101000a0380198251168184511680821785525050505050509050019150506000604051808303816000865af19150503d8060008114610cba576040519150601f19603f3d011682016040523d82523d6000602084013e610cbf565b606091505b5091509150811515610cd057600080fd5b80511580610d45575080516020148015610d45575080601f815181101515610cf457fe5b6020910101517f010000000000000000000000000000000000000000000000000000000000000090819004027fff000000000000000000000000000000000000000000000000000000000000001615155b1515610d5057600080fd5b505050505050565b6000808611610db1576040805160e560020a62461bcd02815260206004820152601c60248201527f6c6f636b696e6720616d6f756e742073686f756c64206265203e203000000000604482015290519081900360640190fd5b600a54851115610df55760405160e560020a62461bcd02815260040180806020018281038252602c81526020018061152b602c913960400191505060405180910390fd5b60008511610e4d576040805160e560020a62461bcd02815260206004820152601c60248201527f6c6f636b696e6720706572696f642073686f756c64206265203e203000000000604482015290519081900360640190fd5b600954421115610e915760405160e560020a62461bcd0281526004018080602001828103825260308152602001806114c16030913960400191505060405180910390fd5b600b54421015610ed55760405160e560020a62461bcd0281526004018080602001828103825260288152602001806114996028913960400191505060405180910390fd5b50600654604080516c0100000000000000000000000030026020808301919091526034808301859052835180840390910181526054909201909252805191012090610f2790600163ffffffff61146116565b600655600160a060020a038416600090815260016020818152604080842085855290915290912087815542870191810191909155600354610f6e908863ffffffff61146116565b600355600454610f84908863ffffffff61146116565b6004556000610fb984610fad87610fa18b8d63ffffffff610af516565b9063ffffffff610af516565b9063ffffffff610b2716565b905060008111611013576040805160e560020a62461bcd02815260206004820152601160248201527f73636f7265206d757374206d65203e2030000000000000000000000000000000604482015290519081900360640190fd5b600160a060020a03861660009081526002602052604090205461103c908263ffffffff61146116565b600160a060020a03871660009081526002602052604090208190556007549081810281151561106757fe5b04146110bd576040805160e560020a62461bcd02815260206004820152601160248201527f73636f726520697320746f6f2068696768000000000000000000000000000000604482015290519081900360640190fd5b6005546110d0908263ffffffff61146116565b600555604080518981526020810189905281518592600160a060020a038a16927fd173f98f4a2080eab40a0bff4d9a575753270cb2401c74efdec1feb0ba31b426929081900390910190a3505095945050505050565b600160a060020a03821660009081526001602090815260408083208484529091528120805482106111a1576040805160e560020a62461bcd02815260206004820152601460248201527f616d6f756e742073686f756c64206265203e2030000000000000000000000000604482015290519081900360640190fd5b80546000825560018201549092504211611205576040805160e560020a62461bcd02815260206004820152601a60248201527f636865636b20746865206c6f636b20706572696f642070617373000000000000604482015290519081900360640190fd5b600454611218908363ffffffff610b4b16565b600455604080518381529051600160a060020a0386169185917fcb7ab693259d2332e08e7666832578144deb74443e37a762847e848793fc29819181900360200190a35092915050565b61127483600160a060020a0316611459565b151561127f57600080fd5b604080518082018252601981527f7472616e7366657228616464726573732c75696e7432353629000000000000006020918201528151600160a060020a0385811660248301526044808301869052845180840390910181526064909201845291810180517bffffffffffffffffffffffffffffffffffffffffffffffffffffffff167fa9059cbb000000000000000000000000000000000000000000000000000000001781529251815160009460609489169392918291908083835b6020831061135a5780518252601f19909201916020918201910161133b565b6001836020036101000a0380198251168184511680821785525050505050509050019150506000604051808303816000865af19150503d80600081146113bc576040519150601f19603f3d011682016040523d82523d6000602084013e6113c1565b606091505b50915091508115156113d257600080fd5b80511580611447575080516020148015611447575080601f8151811015156113f657fe5b6020910101517f010000000000000000000000000000000000000000000000000000000000000090819004027fff000000000000000000000000000000000000000000000000000000000000001615155b151561145257600080fd5b5050505050565b6000903b1190565b600082820183811015610b2057600080fdfe7472616e7366657246726f6d28616464726573732c616464726573732c75696e74323536296c6f636b2073686f756c64207374617274206166746572206c6f636b696e67537461727454696d656c6f636b2073686f756c642062652077697468696e2074686520616c6c6f776564206c6f636b696e6720706572696f646c6f636b696e6720656e642074696d652073686f756c642062652067726561746572207468616e206c6f636b696e672073746172742074696d656c6f636b696e6720706572696f642073686f756c64206265203c3d206d61784c6f636b696e67506572696f6472656465656d456e61626c6554696d65203e3d206c6f636b696e67456e6454696d65a165627a7a723058205d4a70499068ab0f2b4f5df5612384f6cd532323e6ab6a190bc2b29b64c5bf1b0029",
  "source": "pragma solidity ^0.5.4;\n\nimport \"./Locking4Reputation.sol\";\nimport \"./PriceOracleInterface.sol\";\nimport \"../libs/SafeERC20.sol\";\n\n\n/**\n * @title A scheme for locking ERC20 Tokens for reputation\n */\n\ncontract LockingToken4Reputation is Locking4Reputation {\n    using SafeERC20 for address;\n\n    PriceOracleInterface public priceOracleContract;\n    //      lockingId => token\n    mapping(bytes32   => address) public lockedTokens;\n\n    event LockToken(bytes32 indexed _lockingId, address indexed _token, uint256 _numerator, uint256 _denominator);\n\n    /**\n     * @dev initialize\n     * @param _avatar the avatar to mint reputation from\n     * @param _reputationReward the total reputation this contract will reward\n     *        for the token locking\n     * @param _lockingStartTime locking starting period time.\n     * @param _lockingEndTime the locking end time.\n     *        locking is disable after this time.\n     * @param _redeemEnableTime redeem enable time .\n     *        redeem reputation can be done after this time.\n     * @param _maxLockingPeriod maximum locking period allowed.\n     * @param _priceOracleContract the price oracle contract which the locked token will be\n     *        validated against\n     */\n    function initialize(\n        Avatar _avatar,\n        uint256 _reputationReward,\n        uint256 _lockingStartTime,\n        uint256 _lockingEndTime,\n        uint256 _redeemEnableTime,\n        uint256 _maxLockingPeriod,\n        PriceOracleInterface _priceOracleContract)\n    external\n    {\n        priceOracleContract = _priceOracleContract;\n        super._initialize(\n        _avatar,\n        _reputationReward,\n        _lockingStartTime,\n        _lockingEndTime,\n        _redeemEnableTime,\n        _maxLockingPeriod);\n    }\n\n    /**\n     * @dev release locked tokens\n     * @param _beneficiary the release _beneficiary\n     * @param _lockingId the locking id\n     * @return bool\n     */\n    function release(address _beneficiary, bytes32 _lockingId) public returns(bool) {\n        uint256 amount = super._release(_beneficiary, _lockingId);\n        lockedTokens[_lockingId].safeTransfer(_beneficiary, amount);\n\n        return true;\n    }\n\n    /**\n     * @dev lock function\n     * @param _amount the amount to lock\n     * @param _period the locking period\n     * @param _token the token to lock - this should be whitelisted at the priceOracleContract\n     * @return lockingId\n     */\n    function lock(uint256 _amount, uint256 _period, address _token) public returns(bytes32 lockingId) {\n\n        uint256 numerator;\n        uint256 denominator;\n\n        (numerator, denominator) = priceOracleContract.getPrice(_token);\n\n        require(numerator > 0, \"numerator should be > 0\");\n        require(denominator > 0, \"denominator should be > 0\");\n\n        _token.safeTransferFrom(msg.sender, address(this), _amount);\n\n        lockingId = super._lock(_amount, _period, msg.sender, numerator, denominator);\n\n        lockedTokens[lockingId] = _token;\n\n        emit LockToken(lockingId, _token, numerator, denominator);\n    }\n}\n",
  "sourcePath": "/Users/oren/daostack/daostack2/daostack/contracts/schemes/LockingToken4Reputation.sol",
  "compiler": {
    "name": "solc",
    "version": "0.5.4+commit.9549d8ff.Emscripten.clang"
  },
  "schemaVersion": "3.0.2",
  "updatedAt": "2019-04-08T06:30:27.669Z",
  "devdoc": {
    "methods": {
      "initialize(address,uint256,uint256,uint256,uint256,uint256,address)": {
        "details": "initialize",
        "params": {
          "_avatar": "the avatar to mint reputation from",
          "_lockingEndTime": "the locking end time.       locking is disable after this time.",
          "_lockingStartTime": "locking starting period time.",
          "_maxLockingPeriod": "maximum locking period allowed.",
          "_priceOracleContract": "the price oracle contract which the locked token will be       validated against",
          "_redeemEnableTime": "redeem enable time .       redeem reputation can be done after this time.",
          "_reputationReward": "the total reputation this contract will reward       for the token locking"
        }
      },
      "lock(uint256,uint256,address)": {
        "details": "lock function",
        "params": {
          "_amount": "the amount to lock",
          "_period": "the locking period",
          "_token": "the token to lock - this should be whitelisted at the priceOracleContract"
        },
        "return": "lockingId"
      },
      "redeem(address)": {
        "details": "redeem reputation function",
        "params": {
          "_beneficiary": "the beneficiary for the release"
        },
        "return": "uint256 reputation rewarded"
      },
      "release(address,bytes32)": {
        "details": "release locked tokens",
        "params": {
          "_beneficiary": "the release _beneficiary",
          "_lockingId": "the locking id"
        },
        "return": "bool"
      }
    },
    "title": "A scheme for locking ERC20 Tokens for reputation"
  },
  "userdoc": {
    "methods": {}
  }
}