{
  "contractName": "Wallet",
  "abi": [
    {
      "constant": false,
      "inputs": [],
      "name": "renounceOwnership",
      "outputs": [],
      "payable": false,
      "stateMutability": "nonpayable",
      "type": "function"
    },
    {
      "constant": true,
      "inputs": [],
      "name": "owner",
      "outputs": [
        {
          "name": "",
          "type": "address"
        }
      ],
      "payable": false,
      "stateMutability": "view",
      "type": "function"
    },
    {
      "constant": true,
      "inputs": [],
      "name": "isOwner",
      "outputs": [
        {
          "name": "",
          "type": "bool"
        }
      ],
      "payable": false,
      "stateMutability": "view",
      "type": "function"
    },
    {
      "constant": false,
      "inputs": [
        {
          "name": "newOwner",
          "type": "address"
        }
      ],
      "name": "transferOwnership",
      "outputs": [],
      "payable": false,
      "stateMutability": "nonpayable",
      "type": "function"
    },
    {
      "payable": true,
      "stateMutability": "payable",
      "type": "fallback"
    },
    {
      "anonymous": false,
      "inputs": [
        {
          "indexed": true,
          "name": "_sender",
          "type": "address"
        },
        {
          "indexed": false,
          "name": "_value",
          "type": "uint256"
        }
      ],
      "name": "ReceiveEther",
      "type": "event"
    },
    {
      "anonymous": false,
      "inputs": [
        {
          "indexed": true,
          "name": "_sender",
          "type": "address"
        },
        {
          "indexed": false,
          "name": "_value",
          "type": "uint256"
        }
      ],
      "name": "Pay",
      "type": "event"
    },
    {
      "anonymous": false,
      "inputs": [
        {
          "indexed": true,
          "name": "previousOwner",
          "type": "address"
        },
        {
          "indexed": true,
          "name": "newOwner",
          "type": "address"
        }
      ],
      "name": "OwnershipTransferred",
      "type": "event"
    },
    {
      "constant": false,
      "inputs": [
        {
          "name": "_beneficiary",
          "type": "address"
        }
      ],
      "name": "pay",
      "outputs": [],
      "payable": false,
      "stateMutability": "nonpayable",
      "type": "function"
    }
  ],
  "bytecode": "0x6080604081905260008054600160a060020a0319163317808255600160a060020a0316917f8be0079c531659141344cd1fd0a4f28419497f9722a3daafe3b4186f6b6457e0908290a3610357806100576000396000f3fe608060405260043610610066577c010000000000000000000000000000000000000000000000000000000060003504630c11dedd811461009e578063715018a6146100d35780638da5cb5b146100e85780638f32d59b14610119578063f2fde38b14610142575b60408051348152905133917ff32a9f77675fd5917534c7746608fd3e309eac68fbdcbf5925e24ca97a704396919081900360200190a2005b3480156100aa57600080fd5b506100d1600480360360208110156100c157600080fd5b5035600160a060020a0316610175565b005b3480156100df57600080fd5b506100d1610205565b3480156100f457600080fd5b506100fd61026f565b60408051600160a060020a039092168252519081900360200190f35b34801561012557600080fd5b5061012e61027e565b604080519115158252519081900360200190f35b34801561014e57600080fd5b506100d16004803603602081101561016557600080fd5b5035600160a060020a031661028f565b61017d61027e565b151561018857600080fd5b604051303190600160a060020a0383169082156108fc029083906000818181858888f193505050501580156101c1573d6000803e3d6000fd5b50604080518281529051600160a060020a038416917f357b676c439b9e49b4410f8eb8680bee4223724802d8e3fd422e1756f87b475f919081900360200190a25050565b61020d61027e565b151561021857600080fd5b60008054604051600160a060020a03909116907f8be0079c531659141344cd1fd0a4f28419497f9722a3daafe3b4186f6b6457e0908390a36000805473ffffffffffffffffffffffffffffffffffffffff19169055565b600054600160a060020a031690565b600054600160a060020a0316331490565b61029761027e565b15156102a257600080fd5b6102ab816102ae565b50565b600160a060020a03811615156102c357600080fd5b60008054604051600160a060020a03808516939216917f8be0079c531659141344cd1fd0a4f28419497f9722a3daafe3b4186f6b6457e091a36000805473ffffffffffffffffffffffffffffffffffffffff1916600160a060020a039290921691909117905556fea165627a7a7230582066aa630d90e951972430fb1dde496b5325c6124091fada76ef93cff4b919ea080029",
  "source": "pragma solidity ^0.5.4;\nimport \"openzeppelin-solidity/contracts/ownership/Ownable.sol\";\n\n\ncontract Wallet is Ownable {\n\n    event ReceiveEther(address indexed _sender, uint256 _value);\n    event Pay(address indexed _sender, uint256 _value);\n\n    function() external payable {\n        emit ReceiveEther(msg.sender, msg.value);\n    }\n\n    function pay(address payable _beneficiary) public onlyOwner {\n        uint256 amount = address(this).balance;\n        _beneficiary.transfer(amount);\n        emit Pay(_beneficiary, amount);\n    }\n\n}\n",
  "sourcePath": "/Users/oren/daostack/daostack2/daostack/contracts/test/Wallet.sol",
  "compiler": {
    "name": "solc",
    "version": "0.5.4+commit.9549d8ff.Emscripten.clang"
  },
  "schemaVersion": "3.0.2",
  "updatedAt": "2019-04-08T06:30:27.673Z",
  "devdoc": {
    "methods": {
      "isOwner()": {
        "return": "true if `msg.sender` is the owner of the contract."
      },
      "owner()": {
        "return": "the address of the owner."
      },
      "renounceOwnership()": {
        "details": "Allows the current owner to relinquish control of the contract."
      },
      "transferOwnership(address)": {
        "details": "Allows the current owner to transfer control of the contract to a newOwner.",
        "params": {
          "newOwner": "The address to transfer ownership to."
        }
      }
    }
  },
  "userdoc": {
    "methods": {
      "renounceOwnership()": {
        "notice": "Renouncing to ownership will leave the contract without an owner. It will not be possible to call the functions with the `onlyOwner` modifier anymore."
      }
    }
  }
}