{
  "contractName": "DAOTracker",
  "abi": [
    {
      "constant": false,
      "inputs": [],
      "name": "renounceOwnership",
      "outputs": [],
      "payable": false,
      "stateMutability": "nonpayable",
      "type": "function"
    },
    {
      "constant": true,
      "inputs": [],
      "name": "owner",
      "outputs": [
        {
          "internalType": "address",
          "name": "",
          "type": "address"
        }
      ],
      "payable": false,
      "stateMutability": "view",
      "type": "function"
    },
    {
      "constant": true,
      "inputs": [],
      "name": "isOwner",
      "outputs": [
        {
          "internalType": "bool",
          "name": "",
          "type": "bool"
        }
      ],
      "payable": false,
      "stateMutability": "view",
      "type": "function"
    },
    {
      "constant": true,
      "inputs": [
        {
          "internalType": "address",
          "name": "",
          "type": "address"
        }
      ],
      "name": "blacklisted",
      "outputs": [
        {
          "internalType": "bool",
          "name": "",
          "type": "bool"
        }
      ],
      "payable": false,
      "stateMutability": "view",
      "type": "function"
    },
    {
      "constant": false,
      "inputs": [
        {
          "internalType": "address",
          "name": "newOwner",
          "type": "address"
        }
      ],
      "name": "transferOwnership",
      "outputs": [],
      "payable": false,
      "stateMutability": "nonpayable",
      "type": "function"
    },
    {
      "anonymous": false,
      "inputs": [
        {
          "indexed": true,
          "internalType": "address",
          "name": "_avatar",
          "type": "address"
        },
        {
          "indexed": false,
          "internalType": "address",
          "name": "_controller",
          "type": "address"
        },
        {
          "indexed": false,
          "internalType": "address",
          "name": "_reputation",
          "type": "address"
        },
        {
          "indexed": false,
          "internalType": "address",
          "name": "_daoToken",
          "type": "address"
        }
      ],
      "name": "TrackDAO",
      "type": "event"
    },
    {
      "anonymous": false,
      "inputs": [
        {
          "indexed": true,
          "internalType": "address",
          "name": "_avatar",
          "type": "address"
        },
        {
          "indexed": false,
          "internalType": "string",
          "name": "_explanationHash",
          "type": "string"
        }
      ],
      "name": "BlacklistDAO",
      "type": "event"
    },
    {
      "anonymous": false,
      "inputs": [
        {
          "indexed": true,
          "internalType": "address",
          "name": "_avatar",
          "type": "address"
        },
        {
          "indexed": false,
          "internalType": "string",
          "name": "_explanationHash",
          "type": "string"
        }
      ],
      "name": "ResetDAO",
      "type": "event"
    },
    {
      "anonymous": false,
      "inputs": [
        {
          "indexed": true,
          "internalType": "address",
          "name": "previousOwner",
          "type": "address"
        },
        {
          "indexed": true,
          "internalType": "address",
          "name": "newOwner",
          "type": "address"
        }
      ],
      "name": "OwnershipTransferred",
      "type": "event"
    },
    {
      "constant": false,
      "inputs": [
        {
          "internalType": "contract Avatar",
          "name": "_avatar",
          "type": "address"
        },
        {
          "internalType": "contract ControllerInterface",
          "name": "_controller",
          "type": "address"
        }
      ],
      "name": "track",
      "outputs": [],
      "payable": false,
      "stateMutability": "nonpayable",
      "type": "function"
    },
    {
      "constant": false,
      "inputs": [
        {
          "internalType": "contract Avatar",
          "name": "_avatar",
          "type": "address"
        },
        {
          "internalType": "string",
          "name": "_explanationHash",
          "type": "string"
        }
      ],
      "name": "blacklist",
      "outputs": [],
      "payable": false,
      "stateMutability": "nonpayable",
      "type": "function"
    },
    {
      "constant": false,
      "inputs": [
        {
          "internalType": "contract Avatar",
          "name": "_avatar",
          "type": "address"
        },
        {
          "internalType": "string",
          "name": "_explanationHash",
          "type": "string"
        }
      ],
      "name": "reset",
      "outputs": [],
      "payable": false,
      "stateMutability": "nonpayable",
      "type": "function"
    }
  ],
  "bytecode": "0x60806040819052600080546001600160a01b03191633178082556001600160a01b0316917f8be0079c531659141344cd1fd0a4f28419497f9722a3daafe3b4186f6b6457e0908290a3610984806100576000396000f3fe608060405234801561001057600080fd5b50600436106100885760003560e01c80639096e5c11161005b5780639096e5c114610105578063dbac26e9146101bb578063ddf579ff146101e1578063f2fde38b1461029757610088565b8063338bcb941461008d578063715018a6146100bd5780638da5cb5b146100c55780638f32d59b146100e9575b600080fd5b6100bb600480360360408110156100a357600080fd5b506001600160a01b03813581169160200135166102bd565b005b6100bb610535565b6100cd6105c6565b604080516001600160a01b039092168252519081900360200190f35b6100f16105d5565b604080519115158252519081900360200190f35b6100bb6004803603604081101561011b57600080fd5b6001600160a01b03823516919081019060408101602082013564010000000081111561014657600080fd5b82018360208201111561015857600080fd5b8035906020019184600183028401116401000000008311171561017a57600080fd5b91908080601f0160208091040260200160405190810160405280939291908181526020018383808284376000920191909152509295506105e6945050505050565b6100f1600480360360208110156101d157600080fd5b50356001600160a01b03166106fd565b6100bb600480360360408110156101f757600080fd5b6001600160a01b03823516919081019060408101602082013564010000000081111561022257600080fd5b82018360208201111561023457600080fd5b8035906020019184600183028401116401000000008311171561025657600080fd5b91908080601f016020809104026020016040519081016040528093929190818152602001838380828437600092019190915250929550610712945050505050565b6100bb600480360360208110156102ad57600080fd5b50356001600160a01b03166107eb565b81336001600160a01b0316816001600160a01b0316638da5cb5b6040518163ffffffff1660e01b815260040160206040518083038186803b15801561030157600080fd5b505afa158015610315573d6000803e3d6000fd5b505050506040513d602081101561032b57600080fd5b50516001600160a01b0316146103725760405162461bcd60e51b815260040180806020018281038252602b815260200180610925602b913960400191505060405180910390fd5b6001600160a01b038316600090815260016020526040902054839060ff16156103e2576040805162461bcd60e51b815260206004820181905260248201527f5468652061766174617220686173206265656e20626c61636b6c69737465642e604482015290519081900360640190fd5b6001600160a01b0384166103f557600080fd5b6001600160a01b03831661040857600080fd5b836001600160a01b03167f915e4eed710006ef7f5164149456f9aaf107c082bd10574e172f09ac992dfad384866001600160a01b03166389ae1c906040518163ffffffff1660e01b815260040160206040518083038186803b15801561046d57600080fd5b505afa158015610481573d6000803e3d6000fd5b505050506040513d602081101561049757600080fd5b505160408051631c2eb17b60e31b815290516001600160a01b038a169163e1758bd8916004808301926020929190829003018186803b1580156104d957600080fd5b505afa1580156104ed573d6000803e3d6000fd5b505050506040513d602081101561050357600080fd5b5051604080516001600160a01b039485168152928416602084015292168183015290519081900360600190a250505050565b61053d6105d5565b61057c576040805162461bcd60e51b81526020600482018190526024820152600080516020610905833981519152604482015290519081900360640190fd5b600080546040516001600160a01b03909116907f8be0079c531659141344cd1fd0a4f28419497f9722a3daafe3b4186f6b6457e0908390a3600080546001600160a01b0319169055565b6000546001600160a01b031690565b6000546001600160a01b0316331490565b6105ee6105d5565b61062d576040805162461bcd60e51b81526020600482018190526024820152600080516020610905833981519152604482015290519081900360640190fd5b6001600160a01b03821661064057600080fd5b6001600160a01b0382166000818152600160209081526040808320805460ff19169055805182815285518184015285517fc92f239db48bb39be6889c4a12b43215d35e292944b1f1f1886c510ce8b93f689487949293849390840192908601918190849084905b838110156106bf5781810151838201526020016106a7565b50505050905090810190601f1680156106ec5780820380516001836020036101000a031916815260200191505b509250505060405180910390a25050565b60016020526000908152604090205460ff1681565b61071a6105d5565b610759576040805162461bcd60e51b81526020600482018190526024820152600080516020610905833981519152604482015290519081900360640190fd5b6001600160a01b03821661076c57600080fd5b6001600160a01b0382166000818152600160208181526040808420805460ff1916909317909255815181815285518183015285517ff7912cfd008dee08754aad79d95d186b02a2ef8095125b66dd236ea631e876a0948794929384938401929086019181908490849083156106bf5781810151838201526020016106a7565b6107f36105d5565b610832576040805162461bcd60e51b81526020600482018190526024820152600080516020610905833981519152604482015290519081900360640190fd5b61083b8161083e565b50565b6001600160a01b0381166108835760405162461bcd60e51b81526004018080602001828103825260268152602001806108df6026913960400191505060405180910390fd5b600080546040516001600160a01b03808516939216917f8be0079c531659141344cd1fd0a4f28419497f9722a3daafe3b4186f6b6457e091a3600080546001600160a01b0319166001600160a01b039290921691909117905556fe4f776e61626c653a206e6577206f776e657220697320746865207a65726f20616464726573734f776e61626c653a2063616c6c6572206973206e6f7420746865206f776e65725468652063616c6c6572206d75737420626520746865206f776e6572206f6620746865204176617461722ea265627a7a72315820f5cb8c03acb3baf7f3e850ae1049e5823c12f8237722fc790934c623c42b8d1164736f6c634300050b0032",
  "source": "pragma solidity ^0.5.11;\n\nimport \"@daostack/infra/contracts/Reputation.sol\";\nimport \"../controller/DAOToken.sol\";\nimport \"../controller/Avatar.sol\";\nimport \"../controller/ControllerInterface.sol\";\nimport \"openzeppelin-solidity/contracts/ownership/Ownable.sol\";\n\n/**\n * @title An on-chain \"source of truth\" for what DAOs\n *        should be index into DAOstack's subgraph.\n */\ncontract DAOTracker is Ownable {\n\n    // `blacklist` the DAO from the subgraph's cache.\n    // Only able to be set by the owner of the DAOTracker.\n    mapping(address=>bool) public blacklisted;\n\n    event TrackDAO(address indexed _avatar, address _controller, address _reputation, address _daoToken);\n    event BlacklistDAO(address indexed _avatar, string _explanationHash);\n    event ResetDAO(address indexed _avatar, string _explanationHash);\n\n    modifier onlyAvatarOwner(Avatar avatar) {\n        require(avatar.owner() == msg.sender,\n                \"The caller must be the owner of the Avatar.\");\n        _;\n    }\n\n    modifier notBlacklisted(Avatar avatar) {\n        require(blacklisted[address(avatar)] == false,\n                \"The avatar has been blacklisted.\");\n        _;\n    }\n\n    /**\n    * @dev track a new organization. This function will tell the subgraph\n    *      to start ingesting events from the DAO's contracts.\n    *      NOTE: This function should be called as early as possible in the DAO deployment\n    *      process. **Smart Contract Events that are emitted from blocks prior to this function's\n    *      event being emitted WILL NOT be ingested into the subgraph**, leading to an incorrect\n    *      cache. If this happens to you, please contact the subgraph maintainer. Your DAO will\n    *      need to be added to the subgraph's startup config, and the cache will need to be rebuilt.\n    * @param _avatar the organization avatar\n    * @param _controller the organization controller\n    */\n    function track(Avatar _avatar, ControllerInterface _controller)\n    public\n    onlyAvatarOwner(_avatar)\n    notBlacklisted(_avatar) {\n        // Only allow the information to be set once. In the case of a controller upgrades,\n        // the subgraph will be updated via the UpgradeController event.\n        require(_avatar != Avatar(0));\n        require(_controller != ControllerInterface(0));\n\n        emit TrackDAO(\n            address(_avatar),\n            address(_controller),\n            address(_avatar.nativeReputation()),\n            address(_avatar.nativeToken())\n        );\n    }\n\n    /**\n    * @dev blacklist a DAO from the cache. This should be callable by maintainer of the cache.\n    *      Blacklisting can be used to defend against DoS attacks, or to remove spam. In order\n    *      for this blacklisting to take affect within the cache, it would need to be rebuilt.\n    * @param _avatar the organization avatar\n    * @param _explanationHash A hash of a document explaining why this DAO was blacklisted\n    */\n    function blacklist(Avatar _avatar, string memory _explanationHash)\n    public\n    onlyOwner {\n        require(_avatar != Avatar(0));\n        blacklisted[address(_avatar)] = true;\n        emit BlacklistDAO(address(_avatar), _explanationHash);\n    }\n\n    /**\n    * @dev reset a DAO in the cache. This should be callable by the maintainer of the cache.\n    * @param _avatar the organization avatar\n    * @param _explanationHash A hash of a document explaining why this DAO was reset\n    */\n    function reset(Avatar _avatar, string memory _explanationHash)\n    public\n    onlyOwner {\n        require(_avatar != Avatar(0));\n        blacklisted[address(_avatar)] = false;\n        emit ResetDAO(address(_avatar), _explanationHash);\n    }\n}\n",
  "sourcePath": "/Users/oren/daostack/arc/contracts/utils/DAOTracker.sol",
  "compiler": {
    "name": "solc",
    "version": "0.5.11+commit.c082d0b4.Emscripten.clang"
  },
  "schemaVersion": "3.0.14",
  "updatedAt": "2019-10-16T07:39:11.720Z",
  "devdoc": {
    "methods": {
      "blacklist(address,string)": {
        "details": "blacklist a DAO from the cache. This should be callable by maintainer of the cache.     Blacklisting can be used to defend against DoS attacks, or to remove spam. In order     for this blacklisting to take affect within the cache, it would need to be rebuilt.",
        "params": {
          "_avatar": "the organization avatar",
          "_explanationHash": "A hash of a document explaining why this DAO was blacklisted"
        }
      },
      "isOwner()": {
        "details": "Returns true if the caller is the current owner."
      },
      "owner()": {
        "details": "Returns the address of the current owner."
      },
      "renounceOwnership()": {
        "details": "Leaves the contract without owner. It will not be possible to call `onlyOwner` functions anymore. Can only be called by the current owner.     * > Note: Renouncing ownership will leave the contract without an owner, thereby removing any functionality that is only available to the owner."
      },
      "reset(address,string)": {
        "details": "reset a DAO in the cache. This should be callable by the maintainer of the cache.",
        "params": {
          "_avatar": "the organization avatar",
          "_explanationHash": "A hash of a document explaining why this DAO was reset"
        }
      },
      "track(address,address)": {
        "details": "track a new organization. This function will tell the subgraph     to start ingesting events from the DAO's contracts.     NOTE: This function should be called as early as possible in the DAO deployment     process. **Smart Contract Events that are emitted from blocks prior to this function's     event being emitted WILL NOT be ingested into the subgraph**, leading to an incorrect     cache. If this happens to you, please contact the subgraph maintainer. Your DAO will     need to be added to the subgraph's startup config, and the cache will need to be rebuilt.",
        "params": {
          "_avatar": "the organization avatar",
          "_controller": "the organization controller"
        }
      },
      "transferOwnership(address)": {
        "details": "Transfers ownership of the contract to a new account (`newOwner`). Can only be called by the current owner."
      }
    },
    "title": "An on-chain \"source of truth\" for what DAOs       should be index into DAOstack's subgraph."
  },
  "userdoc": {
    "methods": {}
  }
}