{
  "contractName": "ReputationFromToken",
  "abi": [
    {
      "constant": true,
      "inputs": [],
      "name": "DELEGATION_HASH_EIP712",
      "outputs": [
        {
          "internalType": "bytes32",
          "name": "",
          "type": "bytes32"
        }
      ],
      "payable": false,
      "stateMutability": "view",
      "type": "function"
    },
    {
      "constant": true,
      "inputs": [
        {
          "internalType": "address",
          "name": "",
          "type": "address"
        }
      ],
      "name": "redeems",
      "outputs": [
        {
          "internalType": "bool",
          "name": "",
          "type": "bool"
        }
      ],
      "payable": false,
      "stateMutability": "view",
      "type": "function"
    },
    {
      "constant": true,
      "inputs": [],
      "name": "tokenContract",
      "outputs": [
        {
          "internalType": "contract IERC20",
          "name": "",
          "type": "address"
        }
      ],
      "payable": false,
      "stateMutability": "view",
      "type": "function"
    },
    {
      "constant": true,
      "inputs": [],
      "name": "avatar",
      "outputs": [
        {
          "internalType": "contract Avatar",
          "name": "",
          "type": "address"
        }
      ],
      "payable": false,
      "stateMutability": "view",
      "type": "function"
    },
    {
      "constant": true,
      "inputs": [],
      "name": "curve",
      "outputs": [
        {
          "internalType": "contract CurveInterface",
          "name": "",
          "type": "address"
        }
      ],
      "payable": false,
      "stateMutability": "view",
      "type": "function"
    },
    {
      "anonymous": false,
      "inputs": [
        {
          "indexed": true,
          "internalType": "address",
          "name": "_beneficiary",
          "type": "address"
        },
        {
          "indexed": true,
          "internalType": "address",
          "name": "_sender",
          "type": "address"
        },
        {
          "indexed": false,
          "internalType": "uint256",
          "name": "_amount",
          "type": "uint256"
        }
      ],
      "name": "Redeem",
      "type": "event"
    },
    {
      "constant": false,
      "inputs": [
        {
          "internalType": "contract Avatar",
          "name": "_avatar",
          "type": "address"
        },
        {
          "internalType": "contract IERC20",
          "name": "_tokenContract",
          "type": "address"
        },
        {
          "internalType": "contract CurveInterface",
          "name": "_curve",
          "type": "address"
        }
      ],
      "name": "initialize",
      "outputs": [],
      "payable": false,
      "stateMutability": "nonpayable",
      "type": "function"
    },
    {
      "constant": false,
      "inputs": [
        {
          "internalType": "address",
          "name": "_beneficiary",
          "type": "address"
        }
      ],
      "name": "redeem",
      "outputs": [
        {
          "internalType": "uint256",
          "name": "",
          "type": "uint256"
        }
      ],
      "payable": false,
      "stateMutability": "nonpayable",
      "type": "function"
    },
    {
      "constant": false,
      "inputs": [
        {
          "internalType": "address",
          "name": "_beneficiary",
          "type": "address"
        },
        {
          "internalType": "uint256",
          "name": "_signatureType",
          "type": "uint256"
        },
        {
          "internalType": "bytes",
          "name": "_signature",
          "type": "bytes"
        }
      ],
      "name": "redeemWithSignature",
      "outputs": [
        {
          "internalType": "uint256",
          "name": "",
          "type": "uint256"
        }
      ],
      "payable": false,
      "stateMutability": "nonpayable",
      "type": "function"
    }
  ],
  "bytecode": "0x608060405234801561001057600080fd5b50610ab9806100206000396000f3fe608060405234801561001057600080fd5b50600436106100885760003560e01c80637165485d1161005b5780637165485d1461010d57806395a2251f14610115578063c0c53b8b1461013b578063e9d481251461017557610088565b806330ca0a531461008d578063511ffbff146100a757806355a373d6146100e15780635aef7de614610105575b600080fd5b6100956101fa565b60408051918252519081900360200190f35b6100cd600480360360208110156100bd57600080fd5b50356001600160a01b0316610244565b604080519115158252519081900360200190f35b6100e9610259565b604080516001600160a01b039092168252519081900360200190f35b6100e9610268565b6100e9610277565b6100956004803603602081101561012b57600080fd5b50356001600160a01b0316610286565b6101736004803603606081101561015157600080fd5b506001600160a01b038135811691602081013582169160409091013516610298565b005b6100956004803603606081101561018b57600080fd5b6001600160a01b03823516916020810135918101906060810160408201356401000000008111156101bb57600080fd5b8201836020820111156101cd57600080fd5b803590602001918460018302840111640100000000831117156101ef57600080fd5b509092509050610386565b604051602001806022610a6382396022018072616464726573732042656e656669636961727960681b81525060130190506040516020818303038152906040528051906020012081565b60026020526000908152604090205460ff1681565b6000546001600160a01b031681565b6003546001600160a01b031681565b6001546001600160a01b031681565b6000610292823361055f565b92915050565b6003546001600160a01b0316156102f6576040805162461bcd60e51b815260206004820152601b60248201527f63616e2062652063616c6c6564206f6e6c79206f6e652074696d650000000000604482015290519081900360640190fd5b6001600160a01b038316610349576040805162461bcd60e51b81526020600482015260156024820152746176617461722063616e6e6f74206265207a65726f60581b604482015290519081900360640190fd5b600080546001600160a01b03199081166001600160a01b039485161790915560038054821694841694909417909355600180549093169116179055565b600080846002141561043f57604051602001806022610a63823972616464726573732042656e656669636961727960681b6022820152604080518083036015018152603583018252805160209182012030606090811b60558601528b901b6bffffffffffffffffffffffff191660698501528251808503605d018152607d85018452805190830120609d85019190915260bd808501919091528251808503909101815260dd909301909152815191012091506104a39050565b6104a0308760405160200180836001600160a01b03166001600160a01b031660601b8152601401826001600160a01b03166001600160a01b031660601b815260140192505050604051602081830303815290604052805190602001206108ef565b90505b60006104ed85858080601f016020809104026020016040519081016040528093929190818152602001838380828437600092019190915250869392505063ffffffff610940169050565b90506001600160a01b03811661054a576040805162461bcd60e51b815260206004820152601c60248201527f72656465656d657220616464726573732063616e6e6f74206265203000000000604482015290519081900360640190fd5b610554878261055f565b979650505050505050565b6003546000906001600160a01b03166105bf576040805162461bcd60e51b815260206004820152601760248201527f73686f756c6420696e697469616c697a65206669727374000000000000000000604482015290519081900360640190fd5b6001600160a01b03821660009081526002602052604090205460ff16156106175760405162461bcd60e51b8152600401808060200182810382526034815260200180610a2f6034913960400191505060405180910390fd5b6001600160a01b038083166000818152600260209081526040808320805460ff19166001179055825481516370a0823160e01b815260048101959095529051929416926370a082319260248083019392829003018186803b15801561067b57600080fd5b505afa15801561068f573d6000803e3d6000fd5b505050506040513d60208110156106a557600080fd5b50516001549091506001600160a01b0316156107365760015460408051631c64813d60e11b81526004810184905290516001600160a01b03909216916338c9027a91602480820192602092909190829003018186803b15801561070757600080fd5b505afa15801561071b573d6000803e3d6000fd5b505050506040513d602081101561073157600080fd5b505190505b6001600160a01b038416610748578293505b600360009054906101000a90046001600160a01b03166001600160a01b0316638da5cb5b6040518163ffffffff1660e01b815260040160206040518083038186803b15801561079657600080fd5b505afa1580156107aa573d6000803e3d6000fd5b505050506040513d60208110156107c057600080fd5b50516003546040805163757cca5960e11b8152600481018590526001600160a01b03888116602483015292831660448201529051919092169163eaf994b29160648083019260209291908290030181600087803b15801561082057600080fd5b505af1158015610834573d6000803e3d6000fd5b505050506040513d602081101561084a57600080fd5b505161089d576040805162461bcd60e51b815260206004820152601e60248201527f6d696e742072657075746174696f6e2073686f756c6420737563636565640000604482015290519081900360640190fd5b826001600160a01b0316846001600160a01b03167fd12200efa34901b99367694174c3b0d32c99585fdf37c7c26892136ddd0836d9836040518082815260200191505060405180910390a39392505050565b604080517f19457468657265756d205369676e6564204d6573736167653a0a333200000000602080830191909152603c8083019490945282518083039094018452605c909101909152815191012090565b6000815160411461095357506000610292565b60208201516040830151606084015160001a7f7fffffffffffffffffffffffffffffff5d576e7357a4501ddfe92f46681b20a08211156109995760009350505050610292565b8060ff16601b141580156109b157508060ff16601c14155b156109c25760009350505050610292565b6040805160008152602080820180845289905260ff8416828401526060820186905260808201859052915160019260a0808401939192601f1981019281900390910190855afa158015610a19573d6000803e3d6000fd5b5050604051601f19015197965050505050505056fe72656465656d696e672074776963652066726f6d207468652073616d65206163636f756e74206973206e6f7420616c6c6f776564616464726573732052657075746174696f6e46726f6d546f6b656e41646472657373a265627a7a72315820820e66b2b172a3e94a739ad428d2260a321660970fb0e40a29d37aec5693f81064736f6c634300050b0032",
  "source": "pragma solidity ^0.5.11;\n\nimport \"../controller/ControllerInterface.sol\";\nimport \"openzeppelin-solidity/contracts/token/ERC20/IERC20.sol\";\nimport \"./CurveInterface.sol\";\nimport \"openzeppelin-solidity/contracts/cryptography/ECDSA.sol\";\nimport \"openzeppelin-solidity/contracts/math/SafeMath.sol\";\n\n/**\n * @title A scheme for reputation allocation according to token balances\n *        This contract is assuming that the token contract is paused, and one cannot transfer its tokens.\n */\n\ncontract ReputationFromToken {\n    using ECDSA for bytes32;\n    using SafeMath for uint256;\n\n    IERC20 public tokenContract;\n    CurveInterface public curve;\n    //      beneficiary -> bool\n    mapping(address     => bool) public redeems;\n    Avatar public avatar;\n\n    // Digest describing the data the user signs according EIP 712.\n    // Needs to match what is passed to Metamask.\n    bytes32 public constant DELEGATION_HASH_EIP712 =\n    keccak256(abi.encodePacked(\n    \"address ReputationFromTokenAddress\",\n    \"address Beneficiary\"\n    ));\n\n    event Redeem(address indexed _beneficiary, address indexed _sender, uint256 _amount);\n    \n    /**\n     * @dev initialize\n     * @param _avatar the avatar to mint reputation from\n     * @param _tokenContract the token contract\n     */\n    function initialize(Avatar _avatar, IERC20 _tokenContract, CurveInterface _curve) external\n    {\n        require(avatar == Avatar(0), \"can be called only one time\");\n        require(_avatar != Avatar(0), \"avatar cannot be zero\");\n        tokenContract = _tokenContract;\n        avatar = _avatar;\n        curve = _curve;\n    }\n\n    /**\n     * @dev redeem function\n     * @param _beneficiary the beneficiary address to redeem for\n     * @return uint256 minted reputation\n     */\n    function redeem(address _beneficiary) external returns(uint256) {\n        return _redeem(_beneficiary, msg.sender);\n    }\n\n    /**\n     * @dev redeemWithSignature function\n     * @param _beneficiary the beneficiary address to redeem for\n     * @param _signatureType signature type\n              1 - for web3.eth.sign\n              2 - for eth_signTypedData according to EIP #712.\n     * @param _signature  - signed data by the staker\n     * @return uint256 minted reputation\n     */\n    function redeemWithSignature(\n        address _beneficiary,\n        uint256 _signatureType,\n        bytes calldata _signature\n        )\n        external\n        returns(uint256)\n        {\n        // Recreate the digest the user signed\n        bytes32 delegationDigest;\n        if (_signatureType == 2) {\n            delegationDigest = keccak256(\n                abi.encodePacked(\n                    DELEGATION_HASH_EIP712, keccak256(\n                        abi.encodePacked(\n                        address(this),\n                        _beneficiary)\n                    )\n                )\n            );\n        } else {\n            delegationDigest = keccak256(\n                        abi.encodePacked(\n                        address(this),\n                        _beneficiary)\n                    ).toEthSignedMessageHash();\n        }\n        address redeemer = delegationDigest.recover(_signature);\n        require(redeemer != address(0), \"redeemer address cannot be 0\");\n        return _redeem(_beneficiary, redeemer);\n    }\n\n    /**\n     * @dev redeem function\n     * @param _beneficiary the beneficiary address to redeem for\n     * @param _redeemer the redeemer address\n     * @return uint256 minted reputation\n     */\n    function _redeem(address _beneficiary, address _redeemer) private returns(uint256) {\n        require(avatar != Avatar(0), \"should initialize first\");\n        require(redeems[_redeemer] == false, \"redeeming twice from the same account is not allowed\");\n        redeems[_redeemer] = true;\n        uint256 tokenAmount = tokenContract.balanceOf(_redeemer);\n        if (curve != CurveInterface(0)) {\n            tokenAmount = curve.calc(tokenAmount);\n        }\n        if (_beneficiary == address(0)) {\n            _beneficiary = _redeemer;\n        }\n        require(\n        ControllerInterface(\n        avatar.owner())\n        .mintReputation(tokenAmount, _beneficiary, address(avatar)), \"mint reputation should succeed\");\n        emit Redeem(_beneficiary, _redeemer, tokenAmount);\n        return tokenAmount;\n    }\n}\n",
  "sourcePath": "/Users/oren/daostack/arc/contracts/schemes/ReputationFromToken.sol",
  "compiler": {
    "name": "solc",
    "version": "0.5.11+commit.c082d0b4.Emscripten.clang"
  },
  "schemaVersion": "3.0.14",
  "updatedAt": "2019-10-16T07:39:11.655Z",
  "devdoc": {
    "methods": {
      "initialize(address,address,address)": {
        "details": "initialize",
        "params": {
          "_avatar": "the avatar to mint reputation from",
          "_tokenContract": "the token contract"
        }
      },
      "redeem(address)": {
        "details": "redeem function",
        "params": {
          "_beneficiary": "the beneficiary address to redeem for"
        },
        "return": "uint256 minted reputation"
      },
      "redeemWithSignature(address,uint256,bytes)": {
        "details": "redeemWithSignature function",
        "params": {
          "_beneficiary": "the beneficiary address to redeem for",
          "_signature": "- signed data by the staker",
          "_signatureType": "signature type 1 - for web3.eth.sign 2 - for eth_signTypedData according to EIP #712."
        },
        "return": "uint256 minted reputation"
      }
    },
    "title": "A scheme for reputation allocation according to token balances       This contract is assuming that the token contract is paused, and one cannot transfer its tokens."
  },
  "userdoc": {
    "methods": {}
  }
}