{
  "contractName": "UGenericScheme",
  "abi": [
    {
      "constant": true,
      "inputs": [
        {
          "internalType": "bytes32",
          "name": "",
          "type": "bytes32"
        }
      ],
      "name": "parameters",
      "outputs": [
        {
          "internalType": "contract IntVoteInterface",
          "name": "intVote",
          "type": "address"
        },
        {
          "internalType": "bytes32",
          "name": "voteParams",
          "type": "bytes32"
        },
        {
          "internalType": "address",
          "name": "contractToCall",
          "type": "address"
        }
      ],
      "payable": false,
      "stateMutability": "view",
      "type": "function"
    },
    {
      "constant": true,
      "inputs": [
        {
          "internalType": "address",
          "name": "",
          "type": "address"
        },
        {
          "internalType": "bytes32",
          "name": "",
          "type": "bytes32"
        }
      ],
      "name": "organizationsProposals",
      "outputs": [
        {
          "internalType": "bytes",
          "name": "callData",
          "type": "bytes"
        },
        {
          "internalType": "uint256",
          "name": "value",
          "type": "uint256"
        },
        {
          "internalType": "bool",
          "name": "exist",
          "type": "bool"
        },
        {
          "internalType": "bool",
          "name": "passed",
          "type": "bool"
        }
      ],
      "payable": false,
      "stateMutability": "view",
      "type": "function"
    },
    {
      "constant": true,
      "inputs": [
        {
          "internalType": "address",
          "name": "",
          "type": "address"
        },
        {
          "internalType": "bytes32",
          "name": "",
          "type": "bytes32"
        }
      ],
      "name": "proposalsInfo",
      "outputs": [
        {
          "internalType": "uint256",
          "name": "blockNumber",
          "type": "uint256"
        },
        {
          "internalType": "contract Avatar",
          "name": "avatar",
          "type": "address"
        }
      ],
      "payable": false,
      "stateMutability": "view",
      "type": "function"
    },
    {
      "constant": true,
      "inputs": [
        {
          "internalType": "contract IERC20",
          "name": "_stakingToken",
          "type": "address"
        },
        {
          "internalType": "bytes32",
          "name": "_proposalId",
          "type": "bytes32"
        }
      ],
      "name": "balanceOfStakingToken",
      "outputs": [
        {
          "internalType": "uint256",
          "name": "",
          "type": "uint256"
        }
      ],
      "payable": false,
      "stateMutability": "view",
      "type": "function"
    },
    {
      "constant": true,
      "inputs": [
        {
          "internalType": "address",
          "name": "_owner",
          "type": "address"
        },
        {
          "internalType": "bytes32",
          "name": "_proposalId",
          "type": "bytes32"
        }
      ],
      "name": "reputationOf",
      "outputs": [
        {
          "internalType": "uint256",
          "name": "",
          "type": "uint256"
        }
      ],
      "payable": false,
      "stateMutability": "view",
      "type": "function"
    },
    {
      "constant": true,
      "inputs": [
        {
          "internalType": "bytes32",
          "name": "_proposalId",
          "type": "bytes32"
        }
      ],
      "name": "getTotalReputationSupply",
      "outputs": [
        {
          "internalType": "uint256",
          "name": "",
          "type": "uint256"
        }
      ],
      "payable": false,
      "stateMutability": "view",
      "type": "function"
    },
    {
      "constant": false,
      "inputs": [
        {
          "internalType": "contract IERC20",
          "name": "_stakingToken",
          "type": "address"
        },
        {
          "internalType": "address",
          "name": "_beneficiary",
          "type": "address"
        },
        {
          "internalType": "uint256",
          "name": "_amount",
          "type": "uint256"
        },
        {
          "internalType": "bytes32",
          "name": "_proposalId",
          "type": "bytes32"
        }
      ],
      "name": "stakingTokenTransfer",
      "outputs": [
        {
          "internalType": "bool",
          "name": "",
          "type": "bool"
        }
      ],
      "payable": false,
      "stateMutability": "nonpayable",
      "type": "function"
    },
    {
      "constant": false,
      "inputs": [
        {
          "internalType": "uint256",
          "name": "_amount",
          "type": "uint256"
        },
        {
          "internalType": "address",
          "name": "_beneficiary",
          "type": "address"
        },
        {
          "internalType": "bytes32",
          "name": "_proposalId",
          "type": "bytes32"
        }
      ],
      "name": "mintReputation",
      "outputs": [
        {
          "internalType": "bool",
          "name": "",
          "type": "bool"
        }
      ],
      "payable": false,
      "stateMutability": "nonpayable",
      "type": "function"
    },
    {
      "constant": false,
      "inputs": [
        {
          "internalType": "uint256",
          "name": "_amount",
          "type": "uint256"
        },
        {
          "internalType": "address",
          "name": "_beneficiary",
          "type": "address"
        },
        {
          "internalType": "bytes32",
          "name": "_proposalId",
          "type": "bytes32"
        }
      ],
      "name": "burnReputation",
      "outputs": [
        {
          "internalType": "bool",
          "name": "",
          "type": "bool"
        }
      ],
      "payable": false,
      "stateMutability": "nonpayable",
      "type": "function"
    },
    {
      "anonymous": false,
      "inputs": [
        {
          "indexed": true,
          "internalType": "address",
          "name": "_avatar",
          "type": "address"
        },
        {
          "indexed": true,
          "internalType": "bytes32",
          "name": "_proposalId",
          "type": "bytes32"
        },
        {
          "indexed": false,
          "internalType": "bytes",
          "name": "_callData",
          "type": "bytes"
        },
        {
          "indexed": false,
          "internalType": "uint256",
          "name": "_value",
          "type": "uint256"
        },
        {
          "indexed": false,
          "internalType": "string",
          "name": "_descriptionHash",
          "type": "string"
        }
      ],
      "name": "NewCallProposal",
      "type": "event"
    },
    {
      "anonymous": false,
      "inputs": [
        {
          "indexed": true,
          "internalType": "address",
          "name": "_avatar",
          "type": "address"
        },
        {
          "indexed": true,
          "internalType": "bytes32",
          "name": "_proposalId",
          "type": "bytes32"
        },
        {
          "indexed": false,
          "internalType": "bytes",
          "name": "_genericCallReturnValue",
          "type": "bytes"
        }
      ],
      "name": "ProposalExecuted",
      "type": "event"
    },
    {
      "anonymous": false,
      "inputs": [
        {
          "indexed": true,
          "internalType": "address",
          "name": "_avatar",
          "type": "address"
        },
        {
          "indexed": true,
          "internalType": "bytes32",
          "name": "_proposalId",
          "type": "bytes32"
        },
        {
          "indexed": false,
          "internalType": "int256",
          "name": "_param",
          "type": "int256"
        }
      ],
      "name": "ProposalExecutedByVotingMachine",
      "type": "event"
    },
    {
      "anonymous": false,
      "inputs": [
        {
          "indexed": true,
          "internalType": "address",
          "name": "_avatar",
          "type": "address"
        },
        {
          "indexed": true,
          "internalType": "bytes32",
          "name": "_proposalId",
          "type": "bytes32"
        }
      ],
      "name": "ProposalDeleted",
      "type": "event"
    },
    {
      "constant": false,
      "inputs": [
        {
          "internalType": "bytes32",
          "name": "_proposalId",
          "type": "bytes32"
        },
        {
          "internalType": "int256",
          "name": "_decision",
          "type": "int256"
        }
      ],
      "name": "executeProposal",
      "outputs": [
        {
          "internalType": "bool",
          "name": "",
          "type": "bool"
        }
      ],
      "payable": false,
      "stateMutability": "nonpayable",
      "type": "function"
    },
    {
      "constant": false,
      "inputs": [
        {
          "internalType": "contract Avatar",
          "name": "_avatar",
          "type": "address"
        },
        {
          "internalType": "bytes32",
          "name": "_proposalId",
          "type": "bytes32"
        }
      ],
      "name": "execute",
      "outputs": [],
      "payable": false,
      "stateMutability": "nonpayable",
      "type": "function"
    },
    {
      "constant": false,
      "inputs": [
        {
          "internalType": "bytes32",
          "name": "_voteParams",
          "type": "bytes32"
        },
        {
          "internalType": "contract IntVoteInterface",
          "name": "_intVote",
          "type": "address"
        },
        {
          "internalType": "address",
          "name": "_contractToCall",
          "type": "address"
        }
      ],
      "name": "setParameters",
      "outputs": [
        {
          "internalType": "bytes32",
          "name": "",
          "type": "bytes32"
        }
      ],
      "payable": false,
      "stateMutability": "nonpayable",
      "type": "function"
    },
    {
      "constant": false,
      "inputs": [
        {
          "internalType": "contract Avatar",
          "name": "_avatar",
          "type": "address"
        },
        {
          "internalType": "bytes",
          "name": "_callData",
          "type": "bytes"
        },
        {
          "internalType": "uint256",
          "name": "_value",
          "type": "uint256"
        },
        {
          "internalType": "string",
          "name": "_descriptionHash",
          "type": "string"
        }
      ],
      "name": "proposeCall",
      "outputs": [
        {
          "internalType": "bytes32",
          "name": "",
          "type": "bytes32"
        }
      ],
      "payable": false,
      "stateMutability": "nonpayable",
      "type": "function"
    },
    {
      "constant": true,
      "inputs": [
        {
          "internalType": "contract Avatar",
          "name": "_avatar",
          "type": "address"
        }
      ],
      "name": "getContractToCall",
      "outputs": [
        {
          "internalType": "address",
          "name": "",
          "type": "address"
        }
      ],
      "payable": false,
      "stateMutability": "view",
      "type": "function"
    },
    {
      "constant": true,
      "inputs": [
        {
          "internalType": "bytes32",
          "name": "_voteParams",
          "type": "bytes32"
        },
        {
          "internalType": "contract IntVoteInterface",
          "name": "_intVote",
          "type": "address"
        },
        {
          "internalType": "address",
          "name": "_contractToCall",
          "type": "address"
        }
      ],
      "name": "getParametersHash",
      "outputs": [
        {
          "internalType": "bytes32",
          "name": "",
          "type": "bytes32"
        }
      ],
      "payable": false,
      "stateMutability": "pure",
      "type": "function"
    }
  ],
  "bytecode": "0x608060405234801561001057600080fd5b50611cc4806100206000396000f3fe608060405234801561001057600080fd5b50600436106100f55760003560e01c806388b2666711610097578063b551c37311610066578063b551c3731461050e578063bea75f281461052b578063d29b5d2f14610567578063f81f8bf614610599576100f5565b806388b266671461043b5780639588378e1461047d5780639d4c162d146104a95780639edd8c74146104e0576100f5565b806335a05133116100d357806335a051331461035a57806348ffbfeb1461038e57806360bdbb3f146103c25780636b8eb4031461040f576100f5565b806302506804146100fa57806306e3a9781461014257806320160d7e14610203575b600080fd5b6101176004803603602081101561011057600080fd5b50356105cb565b604080516001600160a01b039485168152602081019390935292168183015290519081900360600190f35b61016e6004803603604081101561015857600080fd5b506001600160a01b0381351690602001356105f8565b60405180806020018581526020018415151515815260200183151515158152602001828103825286818151815260200191508051906020019080838360005b838110156101c55781810151838201526020016101ad565b50505050905090810190601f1680156101f25780820380516001836020036101000a031916815260200191505b509550505050505060405180910390f35b6103486004803603608081101561021957600080fd5b6001600160a01b03823516919081019060408101602082013564010000000081111561024457600080fd5b82018360208201111561025657600080fd5b8035906020019184600183028401116401000000008311171561027857600080fd5b91908080601f016020809104026020016040519081016040528093929190818152602001838380828437600092019190915250929584359590949093506040810192506020013590506401000000008111156102d357600080fd5b8201836020820111156102e557600080fd5b8035906020019184600183028401116401000000008311171561030757600080fd5b91908080601f0160208091040260200160405190810160405280939291908181526020018383808284376000920191909152509295506106b7945050505050565b60408051918252519081900360200190f35b6103486004803603606081101561037057600080fd5b508035906001600160a01b036020820135811691604001351661099f565b610348600480360360608110156103a457600080fd5b508035906001600160a01b03602082013581169160400135166109eb565b6103ee600480360360408110156103d857600080fd5b506001600160a01b038135169060200135610a46565b604080519283526001600160a01b0390911660208301528051918290030190f35b6103486004803603604081101561042557600080fd5b506001600160a01b038135169060200135610a70565b6104616004803603602081101561045157600080fd5b50356001600160a01b0316610b30565b604080516001600160a01b039092168252519081900360200190f35b6103486004803603604081101561049357600080fd5b506001600160a01b038135169060200135610b64565b6104cc600480360360408110156104bf57600080fd5b5080359060200135610c72565b604080519115158252519081900360200190f35b61050c600480360360408110156104f657600080fd5b506001600160a01b038135169060200135610eb1565b005b6103486004803603602081101561052457600080fd5b5035611361565b6104cc6004803603608081101561054157600080fd5b506001600160a01b03813581169160208101359091169060408101359060600135611499565b6104cc6004803603606081101561057d57600080fd5b508035906001600160a01b03602082013516906040013561163b565b6104cc600480360360608110156105af57600080fd5b508035906001600160a01b0360208201351690604001356117d4565b60026020819052600091825260409091208054600182015491909201546001600160a01b03928316921683565b600160208181526000938452604080852082529284529282902080548351600293821615610100026000190190911692909204601f810185900485028301850190935282825292909183918301828280156106945780601f1061066957610100808354040283529160200191610694565b820191906000526020600020905b81548152906001019060200180831161067757829003601f168201915b50505050600183015460029093015491929160ff80821692506101009091041684565b60006106c1611b50565b600260006106ce88611935565b815260208082019290925260409081016000908120825160608101845281546001600160a01b0390811680835260018401548388018190526002948501548316848801528651634439bdaf60e11b815260048101959095526024850152336044850152908c16606484015293519095509293919284926388737b5e926084808201939182900301818787803b15801561076657600080fd5b505af115801561077a573d6000803e3d6000fd5b505050506040513d602081101561079057600080fd5b50516040805160808101825289815260208181018a905260018284018190526000606084018190526001600160a01b038e16815290825283812085825282529290922081518051949550919390926107ec928492910190611b70565b506020828101516001838101919091556040808501516002909401805460609687015160ff199091169515159590951761ff0019166101009515159590950294909417909355825180840184524381526001600160a01b038d81168285018181528a51831660009081528087528781208a825287528781209451855590519390940180546001600160a01b0319169390921692909217905583518084018c90528581528c51958101959095528b51869591947f36418f82d814fb021ca04ebdc2c4a3cd69f719851f597c489bca2ed245e8c8ad948e948e948e949093849390840192608085019291890191908190849084905b838110156108f75781810151838201526020016108df565b50505050905090810190601f1680156109245780820380516001836020036101000a031916815260200191505b50838103825284518152845160209182019186019080838360005b8381101561095757818101518382015260200161093f565b50505050905090810190601f1680156109845780820380516001836020036101000a031916815260200191505b509550505050505060405180910390a3979650505050505050565b6040805160208082018690526bffffffffffffffffffffffff19606086811b82168486015285901b16605483015282516048818403018152606890920190925280519101209392505050565b6000806109f985858561099f565b6000818152600260208190526040909120600181019790975586546001600160a01b03199081166001600160a01b0397881617885596018054909616939094169290921790935550919050565b6000602081815292815260408082209093529081522080546001909101546001600160a01b031682565b336000908152602081815260408083208484529091528120600101546001600160a01b031680610aa4576000915050610b2a565b836001600160a01b03166370a08231826040518263ffffffff1660e01b815260040180826001600160a01b03166001600160a01b0316815260200191505060206040518083038186803b158015610afa57600080fd5b505afa158015610b0e573d6000803e3d6000fd5b505050506040513d6020811015610b2457600080fd5b50519150505b92915050565b600060026000610b3f84611935565b81526020810191909152604001600020600201546001600160a01b031690505b919050565b6000610b6e611bee565b5033600090815260208181526040808320858452825291829020825180840190935280548352600101546001600160a01b0316908201819052610bb5576000915050610b2a565b80602001516001600160a01b03166389ae1c906040518163ffffffff1660e01b815260040160206040518083038186803b158015610bf257600080fd5b505afa158015610c06573d6000803e3d6000fd5b505050506040513d6020811015610c1c57600080fd5b505181516040805163277166bf60e11b81526001600160a01b038881166004830152602482019390935290519190921691634ee2cd7e916044808301926020929190829003018186803b158015610afa57600080fd5b3360009081526020818152604080832085845290915281206001015483906001600160a01b0316610cdf576040805162461bcd60e51b81526020600482015260126024820152716f6e6c7920566f74696e674d616368696e6560701b604482015290519081900360640190fd5b3360009081526020818152604080832087845282528083206001908101546001600160a01b0316808552908352818420888552909252909120600281015460ff16610d6b576040805162461bcd60e51b81526020600482015260176024820152761b5d5cdd0818994818481b1a5d99481c1c9bdc1bdcd85b604a1b604482015290519081900360640190fd5b6002810154610100900460ff1615610dc1576040805162461bcd60e51b815260206004820152601460248201527363616e6e6f74206578656375746520747769636560601b604482015290519081900360640190fd5b8460011415610dea5760028101805461ff001916610100179055610de58287610eb1565b610e65565b6001600160a01b0382166000908152600160209081526040808320898452909152812090610e188282611c05565b506000600182018190556002909101805461ffff1916905560405187916001600160a01b038516917f6bc0cb9e9967b59a69ace442598e1df4368d38661bd5c0800fbcbc9fe855fbbe9190a35b60408051868152905187916001600160a01b038516917f25d4c89430c1f10c60c292556941e3e624ec1ec04972a5da46cee1b352429cbe9181900360200190a350600195945050505050565b610eb9611b50565b60026000610ec685611935565b815260208082019290925260409081016000908120825160608101845281546001600160a01b0390811682526001808401548388015260029384015482168387015290891684528552838320878452909452919020908101549192509060ff16610f71576040805162461bcd60e51b81526020600482015260176024820152761b5d5cdd0818994818481b1a5d99481c1c9bdc1bdcd85b604a1b604482015290519081900360640190fd5b6002810154610100900460ff16610fb95760405162461bcd60e51b8152600401808060200182810382526026815260200180611c6a6026913960400191505060405180910390fd5b60028101805460ff1916905560408051638da5cb5b60e01b8152905160609160009182916001600160a01b03891691638da5cb5b91600480820192602092909190829003018186803b15801561100e57600080fd5b505afa158015611022573d6000803e3d6000fd5b505050506040513d602081101561103857600080fd5b505160408681015160018781015492516368db844d60e11b81526001600160a01b03808416600483019081528d82166044840152606483018690526080602484019081528b5460029581161561010002600019011694909404608484018190529697509087169563d1b7089a958b948f94919392909160a40190869080156111015780601f106110d657610100808354040283529160200191611101565b820191906000526020600020905b8154815290600101906020018083116110e457829003601f168201915b505095505050505050600060405180830381600087803b15801561112457600080fd5b505af1158015611138573d6000803e3d6000fd5b505050506040513d6000823e601f3d908101601f19168201604090815281101561116157600080fd5b81516020830180516040519294929383019291908464010000000082111561118857600080fd5b90830190602082018581111561119d57600080fd5b82516401000000008111828201881017156111b757600080fd5b82525081516020918201929091019080838360005b838110156111e45781810151838201526020016111cc565b50505050905090810190601f1680156112115780820380516001836020036101000a031916815260200191505b50604052509195509193505082159050611348576001600160a01b03871660009081526001602090815260408083208984529091528120906112538282611c05565b506000600182018190556002909101805461ffff1916905560405187916001600160a01b038a16917f6bc0cb9e9967b59a69ace442598e1df4368d38661bd5c0800fbcbc9fe855fbbe9190a385876001600160a01b03167f1c57c986b085f821f3126bc24b5aba57ed92fe545788a34925528295cef24015856040518080602001828103825283818151815260200191508051906020019080838360005b838110156113095781810151838201526020016112f1565b50505050905090810190601f1680156113365780820380516001836020036101000a031916815260200191505b509250505060405180910390a3611358565b60028401805460ff191660011790555b50505050505050565b600061136b611bee565b5033600090815260208181526040808320858452825291829020825180840190935280548352600101546001600160a01b03169082018190526113b2576000915050610b5f565b80602001516001600160a01b03166389ae1c906040518163ffffffff1660e01b815260040160206040518083038186803b1580156113ef57600080fd5b505afa158015611403573d6000803e3d6000fd5b505050506040513d602081101561141957600080fd5b5051815160408051630981b24d60e41b81526004810192909252516001600160a01b039092169163981b24d091602480820192602092909190829003018186803b15801561146657600080fd5b505afa15801561147a573d6000803e3d6000fd5b505050506040513d602081101561149057600080fd5b50519392505050565b3360009081526020818152604080832084845290915281206001015482906001600160a01b0316611506576040805162461bcd60e51b81526020600482015260126024820152716f6e6c7920566f74696e674d616368696e6560701b604482015290519081900360640190fd5b336000908152602081815260408083208684529091529020600101546001600160a01b03168061153a576000925050611632565b806001600160a01b0316638da5cb5b6040518163ffffffff1660e01b815260040160206040518083038186803b15801561157357600080fd5b505afa158015611587573d6000803e3d6000fd5b505050506040513d602081101561159d57600080fd5b50516040805163b9a04cdd60e01b81526001600160a01b038a8116600483015289811660248301526044820189905284811660648301529151919092169163b9a04cdd9160848083019260209291908290030181600087803b15801561160257600080fd5b505af1158015611616573d6000803e3d6000fd5b505050506040513d602081101561162c57600080fd5b50519250505b50949350505050565b3360009081526020818152604080832084845290915281206001015482906001600160a01b03166116a8576040805162461bcd60e51b81526020600482015260126024820152716f6e6c7920566f74696e674d616368696e6560701b604482015290519081900360640190fd5b336000908152602081815260408083208684529091529020600101546001600160a01b0316806116dc5760009250506117cc565b806001600160a01b0316638da5cb5b6040518163ffffffff1660e01b815260040160206040518083038186803b15801561171557600080fd5b505afa158015611729573d6000803e3d6000fd5b505050506040513d602081101561173f57600080fd5b50516040805163757cca5960e11b8152600481018990526001600160a01b03888116602483015284811660448301529151919092169163eaf994b29160648083019260209291908290030181600087803b15801561179c57600080fd5b505af11580156117b0573d6000803e3d6000fd5b505050506040513d60208110156117c657600080fd5b50519250505b509392505050565b3360009081526020818152604080832084845290915281206001015482906001600160a01b0316611841576040805162461bcd60e51b81526020600482015260126024820152716f6e6c7920566f74696e674d616368696e6560701b604482015290519081900360640190fd5b336000908152602081815260408083208684529091529020600101546001600160a01b0316806118755760009250506117cc565b806001600160a01b0316638da5cb5b6040518163ffffffff1660e01b815260040160206040518083038186803b1580156118ae57600080fd5b505afa1580156118c2573d6000803e3d6000fd5b505050506040513d60208110156118d857600080fd5b505160408051630dd29a4f60e31b8152600481018990526001600160a01b038881166024830152848116604483015291519190921691636e94d2789160648083019260209291908290030181600087803b15801561179c57600080fd5b6000816001600160a01b0316638da5cb5b6040518163ffffffff1660e01b815260040160206040518083038186803b15801561197057600080fd5b505afa158015611984573d6000803e3d6000fd5b505050506040513d602081101561199a57600080fd5b505160408051639be2faed60e01b81523060048201526001600160a01b03858116602483015291519190921691639be2faed916044808301926020929190829003018186803b1580156119ec57600080fd5b505afa158015611a00573d6000803e3d6000fd5b505050506040513d6020811015611a1657600080fd5b5051611a69576040805162461bcd60e51b815260206004820152601860248201527f736368656d65206973206e6f7420726567697374657265640000000000000000604482015290519081900360640190fd5b816001600160a01b0316638da5cb5b6040518163ffffffff1660e01b815260040160206040518083038186803b158015611aa257600080fd5b505afa158015611ab6573d6000803e3d6000fd5b505050506040513d6020811015611acc57600080fd5b505160408051630389aac160e31b81523060048201526001600160a01b03858116602483015291519190921691631c4d5608916044808301926020929190829003018186803b158015611b1e57600080fd5b505afa158015611b32573d6000803e3d6000fd5b505050506040513d6020811015611b4857600080fd5b505192915050565b604080516060810182526000808252602082018190529181019190915290565b828054600181600116156101000203166002900490600052602060002090601f016020900481019282601f10611bb157805160ff1916838001178555611bde565b82800160010185558215611bde579182015b82811115611bde578251825591602001919060010190611bc3565b50611bea929150611c4c565b5090565b604080518082019091526000808252602082015290565b50805460018160011615610100020316600290046000825580601f10611c2b5750611c49565b601f016020900490600052602060002090810190611c499190611c4c565b50565b611c6691905b80821115611bea5760008155600101611c52565b9056fe70726f706f73616c206d7573742070617373656420627920766f74696e67206d616368696e65a265627a7a72315820a847f051334c97e9198a3f2a254047df48b8e7b0b415901105abe0cfad559f6e64736f6c634300050b0032",
  "source": "pragma solidity ^0.5.11;\n\nimport \"@daostack/infra/contracts/votingMachines/IntVoteInterface.sol\";\nimport \"@daostack/infra/contracts/votingMachines/VotingMachineCallbacksInterface.sol\";\nimport \"./UniversalScheme.sol\";\nimport \"../votingMachines/VotingMachineCallbacks.sol\";\n\n\n/**\n * @title UGenericScheme.\n * @dev  A scheme for proposing and executing calls to an arbitrary function\n * on a specific contract on behalf of the organization avatar.\n */\ncontract UGenericScheme is UniversalScheme, VotingMachineCallbacks, ProposalExecuteInterface {\n    event NewCallProposal(\n        address indexed _avatar,\n        bytes32 indexed _proposalId,\n        bytes   _callData,\n        uint256 _value,\n        string  _descriptionHash\n    );\n\n    event ProposalExecuted(\n        address indexed _avatar,\n        bytes32 indexed _proposalId,\n        bytes _genericCallReturnValue\n    );\n\n    event ProposalExecutedByVotingMachine(\n        address indexed _avatar,\n        bytes32 indexed _proposalId,\n        int256 _param\n    );\n\n    event ProposalDeleted(address indexed _avatar, bytes32 indexed _proposalId);\n\n    // Details of a voting proposal:\n    struct CallProposal {\n        bytes callData;\n        uint256 value;\n        bool exist;\n        bool passed;\n    }\n\n    // A mapping from the organization (Avatar) address to the saved data of the organization:\n    mapping(address=>mapping(bytes32=>CallProposal)) public organizationsProposals;\n\n    struct Parameters {\n        IntVoteInterface intVote;\n        bytes32 voteParams;\n        address contractToCall;\n    }\n\n    // A mapping from hashes to parameters (use to store a particular configuration on the controller)\n    mapping(bytes32=>Parameters) public parameters;\n\n    /**\n    * @dev execution of proposals, can only be called by the voting machine in which the vote is held.\n    * @param _proposalId the ID of the voting in the voting machine\n    * @param _decision a parameter of the voting result, 1 yes and 2 is no.\n    * @return bool success\n    */\n    function executeProposal(bytes32 _proposalId, int256 _decision)\n    external\n    onlyVotingMachine(_proposalId)\n    returns(bool) {\n        Avatar avatar = proposalsInfo[msg.sender][_proposalId].avatar;\n        CallProposal storage proposal = organizationsProposals[address(avatar)][_proposalId];\n        require(proposal.exist, \"must be a live proposal\");\n        require(proposal.passed == false, \"cannot execute twice\");\n\n        if (_decision == 1) {\n            proposal.passed = true;\n            execute(avatar, _proposalId);\n        } else {\n            delete organizationsProposals[address(avatar)][_proposalId];\n            emit ProposalDeleted(address(avatar), _proposalId);\n        }\n\n        emit ProposalExecutedByVotingMachine(address(avatar), _proposalId, _decision);\n        return true;\n    }\n\n    /**\n    * @dev execution of proposals after it has been decided by the voting machine\n    * @param _proposalId the ID of the voting in the voting machine\n    */\n    function execute(Avatar _avatar, bytes32 _proposalId) public {\n        Parameters memory params = parameters[getParametersFromController(_avatar)];\n        CallProposal storage proposal = organizationsProposals[address(_avatar)][_proposalId];\n        require(proposal.exist, \"must be a live proposal\");\n        require(proposal.passed, \"proposal must passed by voting machine\");\n        proposal.exist = false;\n        bytes memory genericCallReturnValue;\n        bool success;\n        ControllerInterface controller = ControllerInterface(_avatar.owner());\n        (success, genericCallReturnValue) =\n        controller.genericCall(params.contractToCall, proposal.callData, _avatar, proposal.value);\n        if (success) {\n            delete organizationsProposals[address(_avatar)][_proposalId];\n            emit ProposalDeleted(address(_avatar), _proposalId);\n            emit ProposalExecuted(address(_avatar), _proposalId, genericCallReturnValue);\n        } else {\n            proposal.exist = true;\n        }\n    }\n\n    /**\n    * @dev Hash the parameters, save them if necessary, and return the hash value\n    * @param _voteParams -  voting parameters\n    * @param _intVote  - voting machine contract.\n    * @return bytes32 -the parameters hash\n    */\n    function setParameters(\n        bytes32 _voteParams,\n        IntVoteInterface _intVote,\n        address _contractToCall\n    ) public returns(bytes32)\n    {\n        bytes32 paramsHash = getParametersHash(_voteParams, _intVote, _contractToCall);\n        parameters[paramsHash].voteParams = _voteParams;\n        parameters[paramsHash].intVote = _intVote;\n        parameters[paramsHash].contractToCall = _contractToCall;\n        return paramsHash;\n    }\n\n    /**\n    * @dev propose to call on behalf of the _avatar\n    *      The function trigger NewCallProposal event\n    * @param _avatar avatar of the organization\n    * @param _callData - The abi encode data for the call\n    * @param _value value(ETH) to transfer with the call\n    * @param _descriptionHash proposal description hash\n    * @return an id which represents the proposal\n    */\n    function proposeCall(Avatar _avatar, bytes memory _callData, uint256 _value, string memory _descriptionHash)\n    public\n    returns(bytes32)\n    {\n        Parameters memory params = parameters[getParametersFromController(_avatar)];\n        IntVoteInterface intVote = params.intVote;\n\n        bytes32 proposalId = intVote.propose(2, params.voteParams, msg.sender, address(_avatar));\n\n        organizationsProposals[address(_avatar)][proposalId] = CallProposal({\n            callData: _callData,\n            value: _value,\n            exist: true,\n            passed: false\n        });\n        proposalsInfo[address(params.intVote)][proposalId] = ProposalInfo({\n            blockNumber:block.number,\n            avatar:_avatar\n        });\n        emit NewCallProposal(address(_avatar), proposalId, _callData, _value, _descriptionHash);\n        return proposalId;\n    }\n\n    /**\n    * @dev getContractToCall return the contract this scheme is calling\n    * @param _avatar address of the organization's avatar\n    * @return address the address of the contract this scheme is calling to\n    * on behalf of the avatar\n    */\n    function getContractToCall(Avatar _avatar) public view returns(address) {\n        return parameters[getParametersFromController(_avatar)].contractToCall;\n    }\n\n    /**\n    * @dev Hash the parameters, and return the hash value\n    * @param _voteParams -  voting parameters\n    * @param _intVote  - voting machine contract.\n    * @return bytes32 -the parameters hash\n    */\n    function getParametersHash(\n        bytes32 _voteParams,\n        IntVoteInterface _intVote,\n        address _contractToCall\n    ) public pure returns(bytes32)\n    {\n        return keccak256(abi.encodePacked(_voteParams, _intVote, _contractToCall));\n    }\n\n}\n",
  "sourcePath": "/Users/oren/daostack/arc/contracts/universalSchemes/UGenericScheme.sol",
  "compiler": {
    "name": "solc",
    "version": "0.5.11+commit.c082d0b4.Emscripten.clang"
  },
  "schemaVersion": "3.0.14",
  "updatedAt": "2019-10-16T07:39:11.708Z",
  "devdoc": {
    "details": "A scheme for proposing and executing calls to an arbitrary function on a specific contract on behalf of the organization avatar.",
    "methods": {
      "execute(address,bytes32)": {
        "details": "execution of proposals after it has been decided by the voting machine",
        "params": {
          "_proposalId": "the ID of the voting in the voting machine"
        }
      },
      "executeProposal(bytes32,int256)": {
        "details": "execution of proposals, can only be called by the voting machine in which the vote is held.",
        "params": {
          "_decision": "a parameter of the voting result, 1 yes and 2 is no.",
          "_proposalId": "the ID of the voting in the voting machine"
        },
        "return": "bool success"
      },
      "getContractToCall(address)": {
        "details": "getContractToCall return the contract this scheme is calling",
        "params": {
          "_avatar": "address of the organization's avatar"
        },
        "return": "address the address of the contract this scheme is calling to on behalf of the avatar"
      },
      "getParametersHash(bytes32,address,address)": {
        "details": "Hash the parameters, and return the hash value",
        "params": {
          "_intVote": "- voting machine contract.",
          "_voteParams": "-  voting parameters"
        },
        "return": "bytes32 -the parameters hash"
      },
      "proposeCall(address,bytes,uint256,string)": {
        "details": "propose to call on behalf of the _avatar     The function trigger NewCallProposal event",
        "params": {
          "_avatar": "avatar of the organization",
          "_callData": "- The abi encode data for the call",
          "_descriptionHash": "proposal description hash",
          "_value": "value(ETH) to transfer with the call"
        },
        "return": "an id which represents the proposal"
      },
      "setParameters(bytes32,address,address)": {
        "details": "Hash the parameters, save them if necessary, and return the hash value",
        "params": {
          "_intVote": "- voting machine contract.",
          "_voteParams": "-  voting parameters"
        },
        "return": "bytes32 -the parameters hash"
      }
    },
    "title": "UGenericScheme."
  },
  "userdoc": {
    "methods": {}
  }
}