{
  "contractName": "ARCVotingMachineCallbacksMock",
  "abi": [
    {
      "constant": true,
      "inputs": [
        {
          "internalType": "address",
          "name": "",
          "type": "address"
        },
        {
          "internalType": "bytes32",
          "name": "",
          "type": "bytes32"
        }
      ],
      "name": "proposalsInfo",
      "outputs": [
        {
          "internalType": "uint256",
          "name": "blockNumber",
          "type": "uint256"
        },
        {
          "internalType": "contract Avatar",
          "name": "avatar",
          "type": "address"
        }
      ],
      "payable": false,
      "stateMutability": "view",
      "type": "function"
    },
    {
      "constant": true,
      "inputs": [
        {
          "internalType": "contract IERC20",
          "name": "_stakingToken",
          "type": "address"
        },
        {
          "internalType": "bytes32",
          "name": "_proposalId",
          "type": "bytes32"
        }
      ],
      "name": "balanceOfStakingToken",
      "outputs": [
        {
          "internalType": "uint256",
          "name": "",
          "type": "uint256"
        }
      ],
      "payable": false,
      "stateMutability": "view",
      "type": "function"
    },
    {
      "constant": true,
      "inputs": [
        {
          "internalType": "address",
          "name": "_owner",
          "type": "address"
        },
        {
          "internalType": "bytes32",
          "name": "_proposalId",
          "type": "bytes32"
        }
      ],
      "name": "reputationOf",
      "outputs": [
        {
          "internalType": "uint256",
          "name": "",
          "type": "uint256"
        }
      ],
      "payable": false,
      "stateMutability": "view",
      "type": "function"
    },
    {
      "constant": true,
      "inputs": [
        {
          "internalType": "bytes32",
          "name": "_proposalId",
          "type": "bytes32"
        }
      ],
      "name": "getTotalReputationSupply",
      "outputs": [
        {
          "internalType": "uint256",
          "name": "",
          "type": "uint256"
        }
      ],
      "payable": false,
      "stateMutability": "view",
      "type": "function"
    },
    {
      "constant": false,
      "inputs": [
        {
          "internalType": "contract IERC20",
          "name": "_stakingToken",
          "type": "address"
        },
        {
          "internalType": "address",
          "name": "_beneficiary",
          "type": "address"
        },
        {
          "internalType": "uint256",
          "name": "_amount",
          "type": "uint256"
        },
        {
          "internalType": "bytes32",
          "name": "_proposalId",
          "type": "bytes32"
        }
      ],
      "name": "stakingTokenTransfer",
      "outputs": [
        {
          "internalType": "bool",
          "name": "",
          "type": "bool"
        }
      ],
      "payable": false,
      "stateMutability": "nonpayable",
      "type": "function"
    },
    {
      "constant": false,
      "inputs": [
        {
          "internalType": "uint256",
          "name": "_amount",
          "type": "uint256"
        },
        {
          "internalType": "address",
          "name": "_beneficiary",
          "type": "address"
        },
        {
          "internalType": "bytes32",
          "name": "_proposalId",
          "type": "bytes32"
        }
      ],
      "name": "mintReputation",
      "outputs": [
        {
          "internalType": "bool",
          "name": "",
          "type": "bool"
        }
      ],
      "payable": false,
      "stateMutability": "nonpayable",
      "type": "function"
    },
    {
      "constant": false,
      "inputs": [
        {
          "internalType": "uint256",
          "name": "_amount",
          "type": "uint256"
        },
        {
          "internalType": "address",
          "name": "_beneficiary",
          "type": "address"
        },
        {
          "internalType": "bytes32",
          "name": "_proposalId",
          "type": "bytes32"
        }
      ],
      "name": "burnReputation",
      "outputs": [
        {
          "internalType": "bool",
          "name": "",
          "type": "bool"
        }
      ],
      "payable": false,
      "stateMutability": "nonpayable",
      "type": "function"
    },
    {
      "constant": false,
      "inputs": [
        {
          "internalType": "bytes32",
          "name": "_proposalId",
          "type": "bytes32"
        },
        {
          "internalType": "contract Avatar",
          "name": "_avatar",
          "type": "address"
        },
        {
          "internalType": "address",
          "name": "_votingMachine",
          "type": "address"
        }
      ],
      "name": "propose",
      "outputs": [],
      "payable": false,
      "stateMutability": "nonpayable",
      "type": "function"
    }
  ],
  "bytecode": "0x608060405234801561001057600080fd5b50610abd806100206000396000f3fe608060405234801561001057600080fd5b50600436106100885760003560e01c8063b8752ba31161005b578063b8752ba314610161578063bea75f2814610197578063d29b5d2f146101e7578063f81f8bf61461021957610088565b806360bdbb3f1461008d5780636b8eb403146100da5780639588378e14610118578063b551c37314610144575b600080fd5b6100b9600480360360408110156100a357600080fd5b506001600160a01b03813516906020013561024b565b604080519283526001600160a01b0390911660208301528051918290030190f35b610106600480360360408110156100f057600080fd5b506001600160a01b038135169060200135610275565b60408051918252519081900360200190f35b6101066004803603604081101561012e57600080fd5b506001600160a01b038135169060200135610335565b6101066004803603602081101561015a57600080fd5b5035610443565b6101956004803603606081101561017757600080fd5b508035906001600160a01b036020820135811691604001351661057d565b005b6101d3600480360360808110156101ad57600080fd5b506001600160a01b038135811691602081013590911690604081013590606001356105d5565b604080519115158252519081900360200190f35b6101d3600480360360608110156101fd57600080fd5b508035906001600160a01b036020820135169060400135610777565b6101d36004803603606081101561022f57600080fd5b508035906001600160a01b036020820135169060400135610910565b6000602081815292815260408082209093529081522080546001909101546001600160a01b031682565b336000908152602081815260408083208484529091528120600101546001600160a01b0316806102a957600091505061032f565b836001600160a01b03166370a08231826040518263ffffffff1660e01b815260040180826001600160a01b03166001600160a01b0316815260200191505060206040518083038186803b1580156102ff57600080fd5b505afa158015610313573d6000803e3d6000fd5b505050506040513d602081101561032957600080fd5b50519150505b92915050565b600061033f610a71565b5033600090815260208181526040808320858452825291829020825180840190935280548352600101546001600160a01b031690820181905261038657600091505061032f565b80602001516001600160a01b03166389ae1c906040518163ffffffff1660e01b815260040160206040518083038186803b1580156103c357600080fd5b505afa1580156103d7573d6000803e3d6000fd5b505050506040513d60208110156103ed57600080fd5b505181516040805163277166bf60e11b81526001600160a01b038881166004830152602482019390935290519190921691634ee2cd7e916044808301926020929190829003018186803b1580156102ff57600080fd5b600061044d610a71565b5033600090815260208181526040808320858452825291829020825180840190935280548352600101546001600160a01b0316908201819052610494576000915050610578565b80602001516001600160a01b03166389ae1c906040518163ffffffff1660e01b815260040160206040518083038186803b1580156104d157600080fd5b505afa1580156104e5573d6000803e3d6000fd5b505050506040513d60208110156104fb57600080fd5b5051815160408051630981b24d60e41b81526004810192909252516001600160a01b039092169163981b24d091602480820192602092909190829003018186803b15801561054857600080fd5b505afa15801561055c573d6000803e3d6000fd5b505050506040513d602081101561057257600080fd5b50519150505b919050565b6040805180820182524381526001600160a01b03938416602080830191825293851660009081528085528381209681529590935293209251835551600190920180546001600160a01b03191692909116919091179055565b3360009081526020818152604080832084845290915281206001015482906001600160a01b0316610642576040805162461bcd60e51b81526020600482015260126024820152716f6e6c7920566f74696e674d616368696e6560701b604482015290519081900360640190fd5b336000908152602081815260408083208684529091529020600101546001600160a01b03168061067657600092505061076e565b806001600160a01b0316638da5cb5b6040518163ffffffff1660e01b815260040160206040518083038186803b1580156106af57600080fd5b505afa1580156106c3573d6000803e3d6000fd5b505050506040513d60208110156106d957600080fd5b50516040805163b9a04cdd60e01b81526001600160a01b038a8116600483015289811660248301526044820189905284811660648301529151919092169163b9a04cdd9160848083019260209291908290030181600087803b15801561073e57600080fd5b505af1158015610752573d6000803e3d6000fd5b505050506040513d602081101561076857600080fd5b50519250505b50949350505050565b3360009081526020818152604080832084845290915281206001015482906001600160a01b03166107e4576040805162461bcd60e51b81526020600482015260126024820152716f6e6c7920566f74696e674d616368696e6560701b604482015290519081900360640190fd5b336000908152602081815260408083208684529091529020600101546001600160a01b031680610818576000925050610908565b806001600160a01b0316638da5cb5b6040518163ffffffff1660e01b815260040160206040518083038186803b15801561085157600080fd5b505afa158015610865573d6000803e3d6000fd5b505050506040513d602081101561087b57600080fd5b50516040805163757cca5960e11b8152600481018990526001600160a01b03888116602483015284811660448301529151919092169163eaf994b29160648083019260209291908290030181600087803b1580156108d857600080fd5b505af11580156108ec573d6000803e3d6000fd5b505050506040513d602081101561090257600080fd5b50519250505b509392505050565b3360009081526020818152604080832084845290915281206001015482906001600160a01b031661097d576040805162461bcd60e51b81526020600482015260126024820152716f6e6c7920566f74696e674d616368696e6560701b604482015290519081900360640190fd5b336000908152602081815260408083208684529091529020600101546001600160a01b0316806109b1576000925050610908565b806001600160a01b0316638da5cb5b6040518163ffffffff1660e01b815260040160206040518083038186803b1580156109ea57600080fd5b505afa1580156109fe573d6000803e3d6000fd5b505050506040513d6020811015610a1457600080fd5b505160408051630dd29a4f60e31b8152600481018990526001600160a01b038881166024830152848116604483015291519190921691636e94d2789160648083019260209291908290030181600087803b1580156108d857600080fd5b60408051808201909152600080825260208201529056fea265627a7a723158200f80015739deb0674c50fdf6616f5a1491a27b31f55978aa5d288b55514804ba64736f6c634300050b0032",
  "source": "pragma solidity ^0.5.11;\n\nimport \"../votingMachines/VotingMachineCallbacks.sol\";\n\n\ncontract ARCVotingMachineCallbacksMock is VotingMachineCallbacks {\n\n    function propose(bytes32 _proposalId, Avatar _avatar, address _votingMachine) public {\n        proposalsInfo[_votingMachine][_proposalId] = ProposalInfo({\n            blockNumber:block.number,\n            avatar:_avatar\n        });\n    }\n}\n",
  "sourcePath": "/Users/oren/daostack/arc/contracts/test/ARCGenesisProtocolCallbacksMock.sol",
  "compiler": {
    "name": "solc",
    "version": "0.5.11+commit.c082d0b4.Emscripten.clang"
  },
  "schemaVersion": "3.0.14",
  "updatedAt": "2019-11-07T10:14:43.421Z",
  "devdoc": {
    "methods": {}
  },
  "userdoc": {
    "methods": {}
  }
}