{
  "contractName": "ContinuousLocking4Reputation",
  "abi": [
    {
      "constant": true,
      "inputs": [],
      "name": "repRewardConstB",
      "outputs": [
        {
          "internalType": "uint256",
          "name": "",
          "type": "uint256"
        }
      ],
      "payable": false,
      "stateMutability": "view",
      "type": "function"
    },
    {
      "constant": true,
      "inputs": [],
      "name": "redeemEnableTime",
      "outputs": [
        {
          "internalType": "uint256",
          "name": "",
          "type": "uint256"
        }
      ],
      "payable": false,
      "stateMutability": "view",
      "type": "function"
    },
    {
      "constant": true,
      "inputs": [],
      "name": "repRewardConstA",
      "outputs": [
        {
          "internalType": "uint256",
          "name": "",
          "type": "uint256"
        }
      ],
      "payable": false,
      "stateMutability": "view",
      "type": "function"
    },
    {
      "constant": true,
      "inputs": [],
      "name": "avatar",
      "outputs": [
        {
          "internalType": "contract Avatar",
          "name": "",
          "type": "address"
        }
      ],
      "payable": false,
      "stateMutability": "view",
      "type": "function"
    },
    {
      "constant": true,
      "inputs": [],
      "name": "maxLockingBatches",
      "outputs": [
        {
          "internalType": "uint256",
          "name": "",
          "type": "uint256"
        }
      ],
      "payable": false,
      "stateMutability": "view",
      "type": "function"
    },
    {
      "constant": true,
      "inputs": [],
      "name": "MAX_LOCKING_BATCHES_HARDCAP",
      "outputs": [
        {
          "internalType": "uint256",
          "name": "",
          "type": "uint256"
        }
      ],
      "payable": false,
      "stateMutability": "view",
      "type": "function"
    },
    {
      "constant": true,
      "inputs": [],
      "name": "getAgreementHash",
      "outputs": [
        {
          "internalType": "bytes32",
          "name": "",
          "type": "bytes32"
        }
      ],
      "payable": false,
      "stateMutability": "view",
      "type": "function"
    },
    {
      "constant": true,
      "inputs": [],
      "name": "batchTime",
      "outputs": [
        {
          "internalType": "uint256",
          "name": "",
          "type": "uint256"
        }
      ],
      "payable": false,
      "stateMutability": "view",
      "type": "function"
    },
    {
      "constant": true,
      "inputs": [],
      "name": "batchesIndexCap",
      "outputs": [
        {
          "internalType": "uint256",
          "name": "",
          "type": "uint256"
        }
      ],
      "payable": false,
      "stateMutability": "view",
      "type": "function"
    },
    {
      "constant": true,
      "inputs": [],
      "name": "startTime",
      "outputs": [
        {
          "internalType": "uint256",
          "name": "",
          "type": "uint256"
        }
      ],
      "payable": false,
      "stateMutability": "view",
      "type": "function"
    },
    {
      "constant": true,
      "inputs": [],
      "name": "lockCounter",
      "outputs": [
        {
          "internalType": "uint256",
          "name": "",
          "type": "uint256"
        }
      ],
      "payable": false,
      "stateMutability": "view",
      "type": "function"
    },
    {
      "constant": true,
      "inputs": [
        {
          "internalType": "address",
          "name": "",
          "type": "address"
        },
        {
          "internalType": "uint256",
          "name": "",
          "type": "uint256"
        }
      ],
      "name": "lockers",
      "outputs": [
        {
          "internalType": "uint256",
          "name": "amount",
          "type": "uint256"
        },
        {
          "internalType": "uint256",
          "name": "lockingTime",
          "type": "uint256"
        },
        {
          "internalType": "uint256",
          "name": "period",
          "type": "uint256"
        }
      ],
      "payable": false,
      "stateMutability": "view",
      "type": "function"
    },
    {
      "constant": true,
      "inputs": [],
      "name": "reputationRewardLeft",
      "outputs": [
        {
          "internalType": "uint256",
          "name": "",
          "type": "uint256"
        }
      ],
      "payable": false,
      "stateMutability": "view",
      "type": "function"
    },
    {
      "constant": true,
      "inputs": [
        {
          "internalType": "uint256",
          "name": "",
          "type": "uint256"
        }
      ],
      "name": "batches",
      "outputs": [
        {
          "internalType": "uint256",
          "name": "totalScore",
          "type": "uint256"
        }
      ],
      "payable": false,
      "stateMutability": "view",
      "type": "function"
    },
    {
      "constant": true,
      "inputs": [],
      "name": "totalLockedLeft",
      "outputs": [
        {
          "internalType": "uint256",
          "name": "",
          "type": "uint256"
        }
      ],
      "payable": false,
      "stateMutability": "view",
      "type": "function"
    },
    {
      "constant": true,
      "inputs": [],
      "name": "token",
      "outputs": [
        {
          "internalType": "contract IERC20",
          "name": "",
          "type": "address"
        }
      ],
      "payable": false,
      "stateMutability": "view",
      "type": "function"
    },
    {
      "anonymous": false,
      "inputs": [
        {
          "indexed": true,
          "internalType": "uint256",
          "name": "_lockingId",
          "type": "uint256"
        },
        {
          "indexed": true,
          "internalType": "address",
          "name": "_beneficiary",
          "type": "address"
        },
        {
          "indexed": false,
          "internalType": "uint256",
          "name": "_amount",
          "type": "uint256"
        },
        {
          "indexed": false,
          "internalType": "uint256",
          "name": "_batchIndex",
          "type": "uint256"
        }
      ],
      "name": "Redeem",
      "type": "event"
    },
    {
      "anonymous": false,
      "inputs": [
        {
          "indexed": true,
          "internalType": "uint256",
          "name": "_lockingId",
          "type": "uint256"
        },
        {
          "indexed": true,
          "internalType": "address",
          "name": "_beneficiary",
          "type": "address"
        },
        {
          "indexed": false,
          "internalType": "uint256",
          "name": "_amount",
          "type": "uint256"
        }
      ],
      "name": "Release",
      "type": "event"
    },
    {
      "anonymous": false,
      "inputs": [
        {
          "indexed": true,
          "internalType": "address",
          "name": "_locker",
          "type": "address"
        },
        {
          "indexed": true,
          "internalType": "uint256",
          "name": "_lockingId",
          "type": "uint256"
        },
        {
          "indexed": false,
          "internalType": "uint256",
          "name": "_amount",
          "type": "uint256"
        },
        {
          "indexed": false,
          "internalType": "uint256",
          "name": "_period",
          "type": "uint256"
        }
      ],
      "name": "LockToken",
      "type": "event"
    },
    {
      "anonymous": false,
      "inputs": [
        {
          "indexed": true,
          "internalType": "address",
          "name": "_locker",
          "type": "address"
        },
        {
          "indexed": true,
          "internalType": "uint256",
          "name": "_lockingId",
          "type": "uint256"
        },
        {
          "indexed": false,
          "internalType": "uint256",
          "name": "_extendPeriod",
          "type": "uint256"
        }
      ],
      "name": "ExtendLocking",
      "type": "event"
    },
    {
      "constant": false,
      "inputs": [
        {
          "internalType": "contract Avatar",
          "name": "_avatar",
          "type": "address"
        },
        {
          "internalType": "uint256",
          "name": "_reputationReward",
          "type": "uint256"
        },
        {
          "internalType": "uint256",
          "name": "_startTime",
          "type": "uint256"
        },
        {
          "internalType": "uint256",
          "name": "_batchTime",
          "type": "uint256"
        },
        {
          "internalType": "uint256",
          "name": "_redeemEnableTime",
          "type": "uint256"
        },
        {
          "internalType": "uint256",
          "name": "_maxLockingBatches",
          "type": "uint256"
        },
        {
          "internalType": "uint256",
          "name": "_repRewardConstA",
          "type": "uint256"
        },
        {
          "internalType": "uint256",
          "name": "_repRewardConstB",
          "type": "uint256"
        },
        {
          "internalType": "uint256",
          "name": "_batchesIndexCap",
          "type": "uint256"
        },
        {
          "internalType": "contract IERC20",
          "name": "_token",
          "type": "address"
        },
        {
          "internalType": "bytes32",
          "name": "_agreementHash",
          "type": "bytes32"
        }
      ],
      "name": "initialize",
      "outputs": [],
      "payable": false,
      "stateMutability": "nonpayable",
      "type": "function"
    },
    {
      "constant": false,
      "inputs": [
        {
          "internalType": "address",
          "name": "_beneficiary",
          "type": "address"
        },
        {
          "internalType": "uint256",
          "name": "_lockingId",
          "type": "uint256"
        }
      ],
      "name": "redeem",
      "outputs": [
        {
          "internalType": "uint256",
          "name": "reputation",
          "type": "uint256"
        }
      ],
      "payable": false,
      "stateMutability": "nonpayable",
      "type": "function"
    },
    {
      "constant": false,
      "inputs": [
        {
          "internalType": "uint256",
          "name": "_amount",
          "type": "uint256"
        },
        {
          "internalType": "uint256",
          "name": "_period",
          "type": "uint256"
        },
        {
          "internalType": "uint256",
          "name": "_batchIndexToLockIn",
          "type": "uint256"
        },
        {
          "internalType": "bytes32",
          "name": "_agreementHash",
          "type": "bytes32"
        }
      ],
      "name": "lock",
      "outputs": [
        {
          "internalType": "uint256",
          "name": "lockingId",
          "type": "uint256"
        }
      ],
      "payable": false,
      "stateMutability": "nonpayable",
      "type": "function"
    },
    {
      "constant": false,
      "inputs": [
        {
          "internalType": "uint256",
          "name": "_extendPeriod",
          "type": "uint256"
        },
        {
          "internalType": "uint256",
          "name": "_batchIndexToLockIn",
          "type": "uint256"
        },
        {
          "internalType": "uint256",
          "name": "_lockingId",
          "type": "uint256"
        },
        {
          "internalType": "bytes32",
          "name": "_agreementHash",
          "type": "bytes32"
        }
      ],
      "name": "extendLocking",
      "outputs": [],
      "payable": false,
      "stateMutability": "nonpayable",
      "type": "function"
    },
    {
      "constant": false,
      "inputs": [
        {
          "internalType": "address",
          "name": "_beneficiary",
          "type": "address"
        },
        {
          "internalType": "uint256",
          "name": "_lockingId",
          "type": "uint256"
        }
      ],
      "name": "release",
      "outputs": [
        {
          "internalType": "uint256",
          "name": "amount",
          "type": "uint256"
        }
      ],
      "payable": false,
      "stateMutability": "nonpayable",
      "type": "function"
    },
    {
      "constant": true,
      "inputs": [
        {
          "internalType": "uint256",
          "name": "_batchIndex",
          "type": "uint256"
        }
      ],
      "name": "getRepRewardPerBatch",
      "outputs": [
        {
          "internalType": "uint256",
          "name": "repReward",
          "type": "uint256"
        }
      ],
      "payable": false,
      "stateMutability": "view",
      "type": "function"
    },
    {
      "constant": true,
      "inputs": [
        {
          "internalType": "uint256",
          "name": "_batchIndex",
          "type": "uint256"
        },
        {
          "internalType": "uint256",
          "name": "_lockingId",
          "type": "uint256"
        }
      ],
      "name": "getLockingIdScore",
      "outputs": [
        {
          "internalType": "uint256",
          "name": "",
          "type": "uint256"
        }
      ],
      "payable": false,
      "stateMutability": "view",
      "type": "function"
    }
  ],
  "bytecode": "0x608060405234801561001057600080fd5b50611b6f806100206000396000f3fe608060405234801561001057600080fd5b506004361061014d5760003560e01c80636e57307b116100c3578063afe0e33c1161007c578063afe0e33c146102f7578063b32c4d8d146102ff578063c348a24b1461031c578063ef5a3e4a14610324578063f6a7400114610347578063fc0c546a146103b15761014d565b80636e57307b14610235578063746c0a601461026657806378e979251461026e5780637b3e46f8146102765780638db564c2146102a5578063a6e1a54c146102ad5761014d565b8063591451f711610115578063591451f7146101e95780635aef7de6146101f15780635b42f48b146102155780635eff3f291461021d578063696da921146102255780636c9d43b61461022d5761014d565b8063029489a9146101525780630357371d1461018157806303840c6c146101ad5780631e9a6950146101b55780633d1678f4146101e1575b600080fd5b61016f6004803603602081101561016857600080fd5b50356103b9565b60408051918252519081900360200190f35b61016f6004803603604081101561019757600080fd5b506001600160a01b0381351690602001356103ec565b61016f610556565b61016f600480360360408110156101cb57600080fd5b506001600160a01b03813516906020013561055c565b61016f610942565b61016f610948565b6101f961094e565b604080516001600160a01b039092168252519081900360200190f35b61016f61095d565b61016f610963565b61016f610968565b61016f61096e565b6102646004803603608081101561024b57600080fd5b5080359060208101359060408101359060600135610974565b005b61016f610ca0565b61016f610ca6565b61016f6004803603608081101561028c57600080fd5b5080359060208101359060408101359060600135610cac565b61016f610fce565b6102d9600480360360408110156102c357600080fd5b506001600160a01b038135169060200135610fd4565b60408051938452602084019290925282820152519081900360600190f35b61016f610ffc565b61016f6004803603602081101561031557600080fd5b5035611002565b61016f611014565b61016f6004803603604081101561033a57600080fd5b508035906020013561101a565b610264600480360361016081101561035e57600080fd5b506001600160a01b03813581169160208101359160408201359160608101359160808201359160a08101359160c08201359160e0810135916101008201359161012081013590911690610140013561103e565b6101f9611320565b6000600e5482116103e7576103e4600c546103df84600d5461132f90919063ffffffff16565b611380565b90505b919050565b6001600160a01b038216600090815260016020908152604080832084845290915281208054610462576040805162461bcd60e51b815260206004820152601860248201527f6e6f20616d6f756e74206c65667420746f20756e6c6f636b0000000000000000604482015290519081900360640190fd5b8054600082556008546002830154600184015492945061048992910263ffffffff6113e416565b42116104dc576040805162461bcd60e51b815260206004820152601e60248201527f6c6f636b696e6720706572696f64206973207374696c6c206163746976650000604482015290519081900360640190fd5b600b546104ef908363ffffffff61144516565b600b5560095461050f906001600160a01b0316858463ffffffff6114a216565b6040805183815290516001600160a01b0386169185917fe332e9963bc980fb82ccd3e7e181d76bddde349eec46b4ba393f3444529cd17f9181900360200190a35092915050565b600d5481565b600060065442116105ad576040805162461bcd60e51b81526020600482015260166024820152756e6f77203e2072656465656d456e61626c6554696d6560501b604482015290519081900360640190fd5b6001600160a01b038316600090815260016020818152604080842086855290915290912090810154610622576040805162461bcd60e51b815260206004820152601960248201527817db1bd8dada5b99d25908191bd95cc81b9bdd08195e1a5cdd603a1b604482015290519081900360640190fd5b60006008546005548360010154038161063757fe5b049050600060085460055442038161064b57fe5b049050600061067761066a8560020154856113e490919063ffffffff16565b839063ffffffff61162416565b90505b8083101561076f5760008381526002602090815260408083208984526001810190925290912054801561076257600088815260018301602052604081208190556106c3866103b9565b905060006106d96106d38461163a565b83611380565b905060006106f3826106ee876000015461163a565b61164f565b90506107058a8263ffffffff6113e416565b99508b6001600160a01b03168b7facf9103edd7d12d169ab5037ce643ee56e59d5986362a9e903d86f2544fefcaa61073c84611668565b604080516001600160d81b03929092168252602082018d90528051918290030190a35050505b505060019092019161067a565b61077885611668565b6001600160d81b03169450600085116107d8576040805162461bcd60e51b815260206004820152601960248201527f72657075746174696f6e20746f2072656465656d206973203000000000000000604482015290519081900360640190fd5b6004546107eb908663ffffffff61144516565b600490815560035460408051638da5cb5b60e01b815290516001600160a01b0390921692638da5cb5b928282019260209290829003018186803b15801561083157600080fd5b505afa158015610845573d6000803e3d6000fd5b505050506040513d602081101561085b57600080fd5b50516003546040805163757cca5960e11b8152600481018990526001600160a01b038b8116602483015292831660448201529051919092169163eaf994b29160648083019260209291908290030181600087803b1580156108bb57600080fd5b505af11580156108cf573d6000803e3d6000fd5b505050506040513d60208110156108e557600080fd5b5051610938576040805162461bcd60e51b815260206004820152601e60248201527f6d696e742072657075746174696f6e2073686f756c6420737563636565640000604482015290519081900360640190fd5b5050505092915050565b60065481565b600c5481565b6003546001600160a01b031681565b60075481565b601881565b60005490565b60085481565b8060005481146109b55760405162461bcd60e51b8152600401808060200182810382526028815260200180611a216028913960400191505060405180910390fd5b33600090815260016020818152604080842087855290915290912090810154610a21576040805162461bcd60e51b815260206004820152601960248201527817db1bd8dada5b99d25908191bd95cc81b9bdd08195e1a5cdd603a1b604482015290519081900360640190fd5b6000610a6f86600854610a5b600554610a4f60085488600201540288600101546113e490919063ffffffff16565b9063ffffffff61144516565b81610a6257fe5b049063ffffffff61144516565b90506000610a83828963ffffffff6113e416565b9050600754811115610ac65760405162461bcd60e51b815260040180806020018281038252602a815260200180611976602a913960400191505060405180910390fd5b60008811610b1b576040805162461bcd60e51b815260206004820152601960248201527f5f657874656e64506572696f64206d757374206265203e203000000000000000604482015290519081900360640190fd5b600e54610b2e888363ffffffff6113e416565b1115610b6b5760405162461bcd60e51b8152600401808060200182810382526028815260200180611aa56028913960400191505060405180910390fd5b6000600854600554420381610b7c57fe5b049050878114610bcb576040805162461bcd60e51b81526020600482015260156024820152746c6f636b696e67206973206e6f742061637469766560581b604482015290519081900360640190fd5b60005b82811015610c435781810160009081526002602052604081208654909190610bff908487039063ffffffff61167216565b60008b81526001840160205260409020548354919250610c2991610a4f908463ffffffff6113e416565b825560008a81526001928301602052604090205501610bce565b506002840154610c59908a63ffffffff6113e416565b6002850155604080518a81529051889133917fbf1612e584a5355572c05134f25811613efa611499c6597f74d7dde53adc104c9181900360200190a3505050505050505050565b600e5481565b60055481565b6000816000548114610cef5760405162461bcd60e51b8152600401808060200182810382526028815260200180611a216028913960400191505060405180910390fd5b60008611610d3c576040805162461bcd60e51b815260206004820152601560248201527405f616d6f756e742073686f756c64206265203e203605c1b604482015290519081900360640190fd5b600554421015610d7d5760405162461bcd60e51b81526004018080602001828103825260338152602001806119c16033913960400191505060405180910390fd5b600754851115610dbe5760405162461bcd60e51b8152600401808060200182810382526022815260200180611a496022913960400191505060405180910390fd5b60008511610e09576040805162461bcd60e51b815260206004820152601360248201527205f706572696f64206d757374206265203e203606c1b604482015290519081900360640190fd5b600e54610e1c858763ffffffff6113e416565b1115610e595760405162461bcd60e51b81526004018080602001828103825260388152602001806118f56038913960400191505060405180910390fd5b600a54610e6d90600163ffffffff6113e416565b600a81905533600081815260016020818152604080842086855290915290912089815560028101899055429181019190915560095492945091610ebd916001600160a01b0390911690308a6116cb565b6000600854600554420381610ece57fe5b049050858114610f0f5760405162461bcd60e51b8152600401808060200182810382526044815260200180611af76044913960600191505060405180910390fd5b60005b87811015610f6d57818101600090815260026020526040812090610f3e838b038c63ffffffff61167216565b8254909150610f53908263ffffffff6113e416565b825560008781526001928301602052604090205501610f12565b50600b54610f81908963ffffffff6113e416565b600b5560408051898152602081018990528151869233927fe24d345c42b1d6b6d4bdaf4acbd768c1dfdfb0242ff6df221c68ce443b8c2d0d929081900390910190a3505050949350505050565b600a5481565b6001602081815260009384526040808520909152918352912080549181015460029091015483565b60045481565b60026020526000908152604090205481565b600b5481565b60008281526002602090815260408083208484526001019091529020545b92915050565b6003546001600160a01b03161561109c576040805162461bcd60e51b815260206004820152601b60248201527f63616e2062652063616c6c6564206f6e6c79206f6e652074696d650000000000604482015290519081900360640190fd5b6001600160a01b038b166110ef576040805162461bcd60e51b81526020600482015260156024820152746176617461722063616e6e6f74206265207a65726f60581b604482015290519081900360640190fd5b600f8811611144576040805162461bcd60e51b815260206004820152601860248201527f626174636854696d652073686f756c64206265203e2031350000000000000000604482015290519081900360640190fd5b60188611156111845760405162461bcd60e51b815260040180806020018281038252603a815260200180611a6b603a913960400191505060405180910390fd5b611194898963ffffffff6113e416565b8710156111d25760405162461bcd60e51b815260040180806020018281038252602a815260200180611acd602a913960400191505060405180910390fd5b60648311156112125760405162461bcd60e51b815260040180806020018281038252602881526020018061192d6028913960400191505060405180910390fd5b600980546001600160a01b038085166001600160a01b03199283161790925560038054928e1692909116919091179055600589905560048a90556006879055600786905560088890556103e8841061129b5760405162461bcd60e51b81526004018080602001828103825260218152602001806119556021913960400191505060405180910390fd5b89600c54106112db5760405162461bcd60e51b815260040180806020018281038252602d8152602001806119f4602d913960400191505060405180910390fd5b6112e48561163a565b600c556113026001600160d81b0385166103e863ffffffff61184e16565b600d55600e8390556113138161186f565b5050505050505050505050565b6009546001600160a01b031681565b60008282600160281b5b8115611377578160011660011415611358576113558184611380565b90505b60019190911c9081156113725761136f8384611380565b92505b611339565b95945050505050565b60008282028284828161138f57fe5b04146113da576040805162461bcd60e51b81526020600482015260156024820152745265616c4d617468206d756c206f766572666c6f7760581b604482015290519081900360640190fd5b60281c9392505050565b60008282018381101561143e576040805162461bcd60e51b815260206004820152601b60248201527f536166654d6174683a206164646974696f6e206f766572666c6f770000000000604482015290519081900360640190fd5b9392505050565b60008282111561149c576040805162461bcd60e51b815260206004820152601e60248201527f536166654d6174683a207375627472616374696f6e206f766572666c6f770000604482015290519081900360640190fd5b50900390565b6114b4836001600160a01b03166118c9565b6114bd57600080fd5b604080518082018252601981527f7472616e7366657228616464726573732c75696e74323536290000000000000060209182015281516001600160a01b0385811660248301526044808301869052845180840390910181526064909201845291810180516001600160e01b031663a9059cbb60e01b1781529251815160009460609489169392918291908083835b6020831061156a5780518252601f19909201916020918201910161154b565b6001836020036101000a0380198251168184511680821785525050505050509050019150506000604051808303816000865af19150503d80600081146115cc576040519150601f19603f3d011682016040523d82523d6000602084013e6115d1565b606091505b5091509150816115e057600080fd5b80511580611614575080516020148015611614575080601f8151811061160257fe5b01602001516001600160f81b03191615155b61161d57600080fd5b5050505050565b6000818310611633578161143e565b5090919050565b6001600160d81b038116600160281b02919050565b600081600160281b84028161166057fe5b049392505050565b600160281b900490565b60008261168157506000611038565b8282028284828161168e57fe5b041461143e5760405162461bcd60e51b81526004018080602001828103825260218152602001806119a06021913960400191505060405180910390fd5b6116dd846001600160a01b03166118c9565b6116e657600080fd5b60006060856001600160a01b03166040518060600160405280602581526020016118d0602591398051602091820120604080516001600160a01b03808b166024830152891660448201526064808201899052825180830390910181526084909101825292830180516001600160e01b03166001600160e01b0319909316929092178252518251909182918083835b602083106117935780518252601f199092019160209182019101611774565b6001836020036101000a0380198251168184511680821785525050505050509050019150506000604051808303816000865af19150503d80600081146117f5576040519150601f19603f3d011682016040523d82523d6000602084013e6117fa565b606091505b50915091508161180957600080fd5b8051158061183d57508051602014801561183d575080601f8151811061182b57fe5b01602001516001600160f81b03191615155b61184657600080fd5b505050505050565b600061143e6001600160d81b03808516600160281b9081029185160261164f565b600054156118c4576040805162461bcd60e51b815260206004820152601b60248201527f43616e206e6f74207365742061677265656d656e742074776963650000000000604482015290519081900360640190fd5b600055565b3b15159056fe7472616e7366657246726f6d28616464726573732c616464726573732c75696e74323536295f6261746368496e646578546f4c6f636b496e202b205f706572696f6420657863656564206d617820616c6c6f77656420626174636865735f62617463686573496e646578436170203e20424154434845535f494e4445585f484152444341505f726570526577617264436f6e7374422073686f756c64206265203c20313030306c6f636b696e6720706572696f64206578636565647320746865206d6178696d756d20616c6c6f776564536166654d6174683a206d756c7469706c69636174696f6e206f766572666c6f776c6f636b696e67206973206e6f7420656e61626c656420796574202869742073746172747320617420737461727454696d6529726570526577617264436f6e7374412073686f756c64206265203c205f72657075746174696f6e52657761726453656e646572206d7573742073656e64207468652072696768742061677265656d656e74486173685f706572696f642065786365656420746865206d6178696d756d20616c6c6f7765646d61784c6f636b696e67426174636865732073686f756c64206265203c3d204d41585f4c4f434b494e475f424154434845535f484152444341505f657874656e64506572696f6420657863656564206d617820616c6c6f77656420626174636865735f72656465656d456e61626c6554696d65203e3d205f737461727454696d652b5f626174636854696d655f6261746368496e646578546f4c6f636b496e206d75737420626520746865206f6e6520636f72726573706f6e64696e6720746f207468652063757272656e74206f6e65a265627a7a7231582041f42f4c7fc2af3dd580981e436de3264ed53fa76a0c4f793e1d9d5f30e6880464736f6c634300050b0032",
  "source": "pragma solidity ^0.5.11;\n\nimport \"openzeppelin-solidity/contracts/math/SafeMath.sol\";\nimport \"openzeppelin-solidity/contracts/math/Math.sol\";\nimport \"../controller/ControllerInterface.sol\";\nimport \"../libs/SafeERC20.sol\";\nimport \"./Agreement.sol\";\nimport { RealMath } from \"@daostack/infra/contracts/libs/RealMath.sol\";\n\n/**\n * @title A scheme for continuous locking ERC20 Token for reputation\n */\n\ncontract ContinuousLocking4Reputation is Agreement {\n    using SafeMath for uint256;\n    using SafeERC20 for address;\n    using RealMath for uint216;\n    using RealMath for uint256;\n    using Math for uint256;\n\n    event Redeem(uint256 indexed _lockingId, address indexed _beneficiary, uint256 _amount, uint256 _batchIndex);\n    event Release(uint256 indexed _lockingId, address indexed _beneficiary, uint256 _amount);\n    event LockToken(address indexed _locker, uint256 indexed _lockingId, uint256 _amount, uint256 _period);\n    event ExtendLocking(address indexed _locker, uint256 indexed _lockingId, uint256 _extendPeriod);\n\n    struct Batch {\n        uint256 totalScore;\n        // A mapping from lockingId to its score\n        mapping(uint256=>uint) scores;\n    }\n\n    struct Lock {\n        uint256 amount;\n        uint256 lockingTime;\n        uint256 period;\n    }\n\n    // A mapping from lockers addresses to their locks\n    mapping(address => mapping(uint256=>Lock)) public lockers;\n    // A mapping from batch index to batch\n    mapping(uint256 => Batch) public batches;\n\n    Avatar public avatar;\n    uint256 public reputationRewardLeft; // the amount of reputation that is still left to distribute\n    uint256 public startTime; // the time (in secs since epoch) that locking can start (is enable)\n    uint256 public redeemEnableTime;\n    uint256 public maxLockingBatches;\n    uint256 public batchTime; // the length of a batch, in seconds\n    IERC20 public token; // the token to be locked\n    uint256 public lockCounter; // Total number of locks\n    uint256 public totalLockedLeft; // the amount of reputation  that is still left to distribute\n    uint256 public repRewardConstA;\n    uint256 public repRewardConstB;\n    uint256 public batchesIndexCap;\n\n    uint256 constant private REAL_FBITS = 40;\n    /**\n     * What's the first non-fractional bit\n     */\n\n    uint256 constant private REAL_ONE = uint256(1) << REAL_FBITS;\n    uint256 constant private BATCHES_INDEX_HARDCAP = 100;\n    uint256 constant public MAX_LOCKING_BATCHES_HARDCAP = 24;\n\n    /**\n     * @dev initialize\n     * @param _avatar the avatar to mint reputation from\n     * @param _reputationReward the total amount of reputation that can be minted by this contract\n     * @param _startTime locking period start time, in seconds since epoch\n     * @param _redeemEnableTime redeem enable time\n     * @param _batchTime batch time (in seconds)\n     * @param _redeemEnableTime redeem enable time, in seconds since epoch\n     *        redeem reputation can be done after this time.\n     * @param _maxLockingBatches - maximum number of locking batches that a user can lock (or extend) her tokens for\n     * @param _repRewardConstA - the total amount of reputation allocation per batch is calculated by :\n     *   _repRewardConstA * ((_repRewardConstB/1000) ** batchIndex)\n     * @param _repRewardConstB - the total amount of reputation allocation per batch is calculated by :\n     *   _repRewardConstA * ((_repRewardConstB/1000) ** batchIndex). _repRewardConstB must be < 1000\n     * @param _batchesIndexCap the length of the locking period (in batches).\n     *        This value capped by BATCHES_HARDCAP .\n     * @param _token the locking token\n     * @param _agreementHash is a hash of agreement required to be added to the TX by participants\n     */\n    function initialize(\n        Avatar _avatar,\n        uint256 _reputationReward,\n        uint256 _startTime,\n        uint256 _batchTime,\n        uint256 _redeemEnableTime,\n        uint256 _maxLockingBatches,\n        uint256 _repRewardConstA,\n        uint256 _repRewardConstB,\n        uint256 _batchesIndexCap,\n        IERC20 _token,\n        bytes32 _agreementHash )\n    external\n    {\n        require(avatar == Avatar(0), \"can be called only one time\");\n        require(_avatar != Avatar(0), \"avatar cannot be zero\");\n        // _batchTime should be greater than block interval\n        require(_batchTime > 15, \"batchTime should be > 15\");\n        require(_maxLockingBatches <= MAX_LOCKING_BATCHES_HARDCAP,\n        \"maxLockingBatches should be <= MAX_LOCKING_BATCHES_HARDCAP\");\n        require(_redeemEnableTime >= _startTime.add(_batchTime),\n        \"_redeemEnableTime >= _startTime+_batchTime\");\n        require(_batchesIndexCap <= BATCHES_INDEX_HARDCAP, \"_batchesIndexCap > BATCHES_INDEX_HARDCAP\");\n        token = _token;\n        avatar = _avatar;\n        startTime = _startTime;\n        reputationRewardLeft = _reputationReward;\n        redeemEnableTime = _redeemEnableTime;\n        maxLockingBatches = _maxLockingBatches;\n        batchTime = _batchTime;\n        require(_repRewardConstB < 1000, \"_repRewardConstB should be < 1000\");\n        require(repRewardConstA < _reputationReward, \"repRewardConstA should be < _reputationReward\");\n        repRewardConstA = toReal(uint216(_repRewardConstA));\n        repRewardConstB = uint216(_repRewardConstB).fraction(uint216(1000));\n        batchesIndexCap = _batchesIndexCap;\n        super.setAgreementHash(_agreementHash);\n    }\n\n    /**\n     * @dev redeem reputation function\n     * @param _beneficiary the beneficiary to redeem.\n     * @param _lockingId the lockingId to redeem from.\n     * @return uint256 reputation rewarded\n     */\n    function redeem(address _beneficiary, uint256 _lockingId) public returns(uint256 reputation) {\n        // solhint-disable-next-line not-rely-on-time\n        require(now > redeemEnableTime, \"now > redeemEnableTime\");\n        Lock storage locker = lockers[_beneficiary][_lockingId];\n        require(locker.lockingTime != 0, \"_lockingId does not exist\");\n        uint256 batchIndexToRedeemFrom = (locker.lockingTime - startTime) / batchTime;\n        // solhint-disable-next-line not-rely-on-time\n        uint256 currentBatch = (now - startTime) / batchTime;\n        uint256 lastBatchIndexToRedeem =  currentBatch.min(batchIndexToRedeemFrom.add(locker.period));\n        for (batchIndexToRedeemFrom; batchIndexToRedeemFrom < lastBatchIndexToRedeem; batchIndexToRedeemFrom++) {\n            Batch storage locking = batches[batchIndexToRedeemFrom];\n            uint256 score = locking.scores[_lockingId];\n            if (score > 0) {\n                locking.scores[_lockingId] = 0;\n                uint256 batchReputationReward = getRepRewardPerBatch(batchIndexToRedeemFrom);\n                uint256 repRelation = mul(toReal(uint216(score)), batchReputationReward);\n                uint256 redeemForBatch = div(repRelation, toReal(uint216(locking.totalScore)));\n                reputation = reputation.add(redeemForBatch);\n                emit Redeem(_lockingId, _beneficiary, uint256(fromReal(redeemForBatch)), batchIndexToRedeemFrom);\n            }\n        }\n        reputation = uint256(fromReal(reputation));\n        require(reputation > 0, \"reputation to redeem is 0\");\n        // check that the reputation is sum zero\n        reputationRewardLeft = reputationRewardLeft.sub(reputation);\n        require(\n        ControllerInterface(avatar.owner())\n        .mintReputation(reputation, _beneficiary, address(avatar)), \"mint reputation should succeed\");\n    }\n\n    /**\n     * @dev lock function\n     * @param _amount the amount of token to lock\n     * @param _period the number of batches that the tokens will be locked for\n     * @param _batchIndexToLockIn the batch index in which the locking period starts.\n     * Must be the currently active batch.\n     * @return lockingId\n     */\n    function lock(uint256 _amount, uint256 _period, uint256 _batchIndexToLockIn, bytes32 _agreementHash)\n    public\n    onlyAgree(_agreementHash)\n    returns(uint256 lockingId)\n    {\n        require(_amount > 0, \"_amount should be > 0\");\n        // solhint-disable-next-line not-rely-on-time\n        require(now >= startTime, \"locking is not enabled yet (it starts at startTime)\");\n        require(_period <= maxLockingBatches, \"_period exceed the maximum allowed\");\n        require(_period > 0, \"_period must be > 0\");\n        require((_batchIndexToLockIn.add(_period)) <= batchesIndexCap,\n        \"_batchIndexToLockIn + _period exceed max allowed batches\");\n        lockCounter = lockCounter.add(1);\n        lockingId = lockCounter;\n\n        Lock storage locker = lockers[msg.sender][lockingId];\n        locker.amount = _amount;\n        locker.period = _period;\n        // solhint-disable-next-line not-rely-on-time\n        locker.lockingTime = now;\n\n        address(token).safeTransferFrom(msg.sender, address(this), _amount);\n        // solhint-disable-next-line not-rely-on-time\n        uint256 batchIndexToLockIn = (now - startTime) / batchTime;\n        require(batchIndexToLockIn == _batchIndexToLockIn,\n        \"_batchIndexToLockIn must be the one corresponding to the current one\");\n        //fill in the next batches scores.\n        for (uint256 p = 0; p < _period; p++) {\n            Batch storage batch = batches[batchIndexToLockIn + p];\n            uint256 score = (_period - p).mul(_amount);\n            batch.totalScore = batch.totalScore.add(score);\n            batch.scores[lockingId] = score;\n        }\n\n        totalLockedLeft = totalLockedLeft.add(_amount);\n        emit LockToken(msg.sender, lockingId, _amount, _period);\n    }\n\n    /**\n     * @dev extendLocking function\n     * @param _extendPeriod the period to extend the locking. in batchTime.\n     * @param _batchIndexToLockIn index of the batch in which to start locking.\n     * @param _lockingId the locking id to extend\n     */\n    function extendLocking(\n        uint256 _extendPeriod,\n        uint256 _batchIndexToLockIn,\n        uint256 _lockingId,\n        bytes32 _agreementHash)\n    public\n    onlyAgree(_agreementHash)\n    {\n        Lock storage locker = lockers[msg.sender][_lockingId];\n        require(locker.lockingTime != 0, \"_lockingId does not exist\");\n        // remainBatchs is the number of future batches that are part of the currently active lock\n        uint256 remainBatches =\n        ((locker.lockingTime.add(locker.period*batchTime).sub(startTime))/batchTime).sub(_batchIndexToLockIn);\n        uint256 batchesCountFromCurrent = remainBatches.add(_extendPeriod);\n        require(batchesCountFromCurrent <= maxLockingBatches, \"locking period exceeds the maximum allowed\");\n        require(_extendPeriod > 0, \"_extendPeriod must be > 0\");\n        require((_batchIndexToLockIn.add(batchesCountFromCurrent)) <= batchesIndexCap,\n        \"_extendPeriod exceed max allowed batches\");\n        // solhint-disable-next-line not-rely-on-time\n        uint256 batchIndexToLockIn = (now - startTime) / batchTime;\n        require(batchIndexToLockIn == _batchIndexToLockIn, \"locking is not active\");\n        //fill in the next batch scores.\n        for (uint256 p = 0; p < batchesCountFromCurrent; p++) {\n            Batch storage batch = batches[batchIndexToLockIn + p];\n            uint256 score = (batchesCountFromCurrent - p).mul(locker.amount);\n            batch.totalScore = batch.totalScore.add(score).sub(batch.scores[_lockingId]);\n            batch.scores[_lockingId] = score;\n        }\n        locker.period = locker.period.add(_extendPeriod);\n        emit ExtendLocking(msg.sender, _lockingId, _extendPeriod);\n    }\n\n    /**\n     * @dev release function\n     * @param _beneficiary the beneficiary for the release\n     * @param _lockingId the locking id to release\n     * @return bool\n     */\n    function release(address _beneficiary, uint256 _lockingId) public returns(uint256 amount) {\n        Lock storage locker = lockers[_beneficiary][_lockingId];\n        require(locker.amount > 0, \"no amount left to unlock\");\n        amount = locker.amount;\n        locker.amount = 0;\n        // solhint-disable-next-line not-rely-on-time\n        require(block.timestamp > locker.lockingTime.add(locker.period*batchTime),\n        \"locking period is still active\");\n        totalLockedLeft = totalLockedLeft.sub(amount);\n        address(token).safeTransfer(_beneficiary, amount);\n        emit Release(_lockingId, _beneficiary, amount);\n    }\n\n    /**\n     * @dev getRepRewardPerBatch function\n     * the calculation is done the following formula:\n     * RepReward =  repRewardConstA * (repRewardConstB**_batchIndex)\n     * @param _batchIndex the index of the batch to calc rep reward of\n     * @return repReward\n     */\n    function getRepRewardPerBatch(uint256  _batchIndex) public view returns(uint256 repReward) {\n        if (_batchIndex <= batchesIndexCap) {\n            repReward = mul(repRewardConstA, repRewardConstB.pow(_batchIndex));\n        }\n    }\n\n    /**\n     * @dev getLockingIdScore function\n     * return score of lockingId at specific bach index\n     * @param _batchIndex batch index\n     * @param _lockingId lockingId\n     * @return score\n     */\n    function getLockingIdScore(uint256  _batchIndex, uint256 _lockingId) public view returns(uint256) {\n        return batches[_batchIndex].scores[_lockingId];\n    }\n\n    /**\n     * Multiply one real by another. Truncates overflows.\n     */\n    function mul(uint256 realA, uint256 realB) private pure returns (uint256) {\n        // When multiplying fixed point in x.y and z.w formats we get (x+z).(y+w) format.\n        // So we just have to clip off the extra REAL_FBITS fractional bits.\n        uint256 res = realA * realB;\n        require(res/realA == realB, \"RealMath mul overflow\");\n        return (res >> REAL_FBITS);\n    }\n\n    /**\n     * Convert an integer to a real. Preserves sign.\n     */\n    function toReal(uint216 ipart) private pure returns (uint256) {\n        return uint256(ipart) * REAL_ONE;\n    }\n\n    /**\n     * Convert a real to an integer. Preserves sign.\n     */\n    function fromReal(uint256 _realValue) private pure returns (uint216) {\n        return uint216(_realValue / REAL_ONE);\n    }\n\n    /**\n     * Divide one real by another real. Truncates overflows.\n     */\n    function div(uint256 realNumerator, uint256 realDenominator) private pure returns (uint256) {\n        // We use the reverse of the multiplication trick: convert numerator from\n        // x.y to (x+z).(y+w) fixed point, then divide by denom in z.w fixed point.\n        return uint256((uint256(realNumerator) * REAL_ONE) / uint256(realDenominator));\n    }\n\n}\n",
  "sourcePath": "/Users/oren/daostack/arc/contracts/schemes/ContinuousLockingToken4Reputation.sol",
  "compiler": {
    "name": "solc",
    "version": "0.5.11+commit.c082d0b4.Emscripten.clang"
  },
  "schemaVersion": "3.0.14",
  "updatedAt": "2019-10-06T11:08:56.103Z",
  "devdoc": {
    "methods": {
      "extendLocking(uint256,uint256,uint256,bytes32)": {
        "details": "extendLocking function",
        "params": {
          "_batchIndexToLockIn": "index of the batch in which to start locking.",
          "_extendPeriod": "the period to extend the locking. in batchTime.",
          "_lockingId": "the locking id to extend"
        }
      },
      "getAgreementHash()": {
        "details": "getAgreementHash",
        "return": "bytes32 agreementHash"
      },
      "getLockingIdScore(uint256,uint256)": {
        "details": "getLockingIdScore function return score of lockingId at specific bach index",
        "params": {
          "_batchIndex": "batch index",
          "_lockingId": "lockingId"
        },
        "return": "score"
      },
      "getRepRewardPerBatch(uint256)": {
        "details": "getRepRewardPerBatch function the calculation is done the following formula: RepReward =  repRewardConstA * (repRewardConstB**_batchIndex)",
        "params": {
          "_batchIndex": "the index of the batch to calc rep reward of"
        },
        "return": "repReward"
      },
      "initialize(address,uint256,uint256,uint256,uint256,uint256,uint256,uint256,uint256,address,bytes32)": {
        "details": "initialize",
        "params": {
          "_agreementHash": "is a hash of agreement required to be added to the TX by participants",
          "_avatar": "the avatar to mint reputation from",
          "_batchTime": "batch time (in seconds)",
          "_batchesIndexCap": "the length of the locking period (in batches).       This value capped by BATCHES_HARDCAP .",
          "_maxLockingBatches": "- maximum number of locking batches that a user can lock (or extend) her tokens for",
          "_redeemEnableTime": "redeem enable time, in seconds since epoch       redeem reputation can be done after this time.",
          "_repRewardConstA": "- the total amount of reputation allocation per batch is calculated by :  _repRewardConstA * ((_repRewardConstB/1000) ** batchIndex)",
          "_repRewardConstB": "- the total amount of reputation allocation per batch is calculated by :  _repRewardConstA * ((_repRewardConstB/1000) ** batchIndex). _repRewardConstB must be < 1000",
          "_reputationReward": "the total amount of reputation that can be minted by this contract",
          "_startTime": "locking period start time, in seconds since epoch",
          "_token": "the locking token"
        }
      },
      "lock(uint256,uint256,uint256,bytes32)": {
        "details": "lock function",
        "params": {
          "_amount": "the amount of token to lock",
          "_batchIndexToLockIn": "the batch index in which the locking period starts. Must be the currently active batch.",
          "_period": "the number of batches that the tokens will be locked for"
        },
        "return": "lockingId"
      },
      "redeem(address,uint256)": {
        "details": "redeem reputation function",
        "params": {
          "_beneficiary": "the beneficiary to redeem.",
          "_lockingId": "the lockingId to redeem from."
        },
        "return": "uint256 reputation rewarded"
      },
      "release(address,uint256)": {
        "details": "release function",
        "params": {
          "_beneficiary": "the beneficiary for the release",
          "_lockingId": "the locking id to release"
        },
        "return": "bool"
      }
    },
    "title": "A scheme for continuous locking ERC20 Token for reputation"
  },
  "userdoc": {
    "methods": {}
  }
}