{
  "contractName": "NectarRepAllocation",
  "abi": [
    {
      "constant": true,
      "inputs": [],
      "name": "claimingStartTime",
      "outputs": [
        {
          "internalType": "uint256",
          "name": "",
          "type": "uint256"
        }
      ],
      "payable": false,
      "stateMutability": "view",
      "type": "function"
    },
    {
      "constant": true,
      "inputs": [],
      "name": "blockReference",
      "outputs": [
        {
          "internalType": "uint256",
          "name": "",
          "type": "uint256"
        }
      ],
      "payable": false,
      "stateMutability": "view",
      "type": "function"
    },
    {
      "constant": true,
      "inputs": [],
      "name": "totalTokenSupplyAt",
      "outputs": [
        {
          "internalType": "uint256",
          "name": "",
          "type": "uint256"
        }
      ],
      "payable": false,
      "stateMutability": "view",
      "type": "function"
    },
    {
      "constant": true,
      "inputs": [],
      "name": "claimingEndTime",
      "outputs": [
        {
          "internalType": "uint256",
          "name": "",
          "type": "uint256"
        }
      ],
      "payable": false,
      "stateMutability": "view",
      "type": "function"
    },
    {
      "constant": true,
      "inputs": [],
      "name": "reputationReward",
      "outputs": [
        {
          "internalType": "uint256",
          "name": "",
          "type": "uint256"
        }
      ],
      "payable": false,
      "stateMutability": "view",
      "type": "function"
    },
    {
      "constant": true,
      "inputs": [],
      "name": "token",
      "outputs": [
        {
          "internalType": "contract MiniMeToken",
          "name": "",
          "type": "address"
        }
      ],
      "payable": false,
      "stateMutability": "view",
      "type": "function"
    },
    {
      "constant": false,
      "inputs": [
        {
          "internalType": "uint256",
          "name": "_reputationReward",
          "type": "uint256"
        },
        {
          "internalType": "uint256",
          "name": "_claimingStartTime",
          "type": "uint256"
        },
        {
          "internalType": "uint256",
          "name": "_claimingEndTime",
          "type": "uint256"
        },
        {
          "internalType": "uint256",
          "name": "_blockReference",
          "type": "uint256"
        },
        {
          "internalType": "contract MiniMeToken",
          "name": "_token",
          "type": "address"
        }
      ],
      "name": "initialize",
      "outputs": [],
      "payable": false,
      "stateMutability": "nonpayable",
      "type": "function"
    },
    {
      "constant": true,
      "inputs": [
        {
          "internalType": "address",
          "name": "_beneficiary",
          "type": "address"
        }
      ],
      "name": "balanceOf",
      "outputs": [
        {
          "internalType": "uint256",
          "name": "reputation",
          "type": "uint256"
        }
      ],
      "payable": false,
      "stateMutability": "view",
      "type": "function"
    }
  ],
  "bytecode": "0x608060405234801561001057600080fd5b50610569806100206000396000f3fe608060405234801561001057600080fd5b50600436106100885760003560e01c8063cba9794a1161005b578063cba9794a146100dd578063ccd65296146100e5578063ed1ff6d814610125578063fc0c546a1461012d57610088565b806350480fd21461008d5780635dd15cc5146100a757806370a08231146100af578063c6e5bc30146100d5575b600080fd5b610095610151565b60408051918252519081900360200190f35b610095610157565b610095600480360360208110156100c557600080fd5b50356001600160a01b031661015d565b61009561024c565b610095610252565b610123600480360360a08110156100fb57600080fd5b50803590602081013590604081013590606081013590608001356001600160a01b0316610258565b005b61009561040f565b610135610415565b604080516001600160a01b039092168252519081900360200190f35b60015481565b60045481565b60006001546000141580610172575060025415155b801561018b57506002544210158061018b575060015442105b1561019857506000610247565b600354600054600554600480546040805163277166bf60e11b81526001600160a01b038981169482019490945260248101929092525161024495946102389490931691634ee2cd7e916044808301926020929190829003018186803b15801561020057600080fd5b505afa158015610214573d6000803e3d6000fd5b505050506040513d602081101561022a57600080fd5b50519063ffffffff61042416565b9063ffffffff61048616565b90505b919050565b60035481565b60025481565b6005546001600160a01b0316156102b6576040805162461bcd60e51b815260206004820152601b60248201527f63616e2062652063616c6c6564206f6e6c79206f6e652074696d650000000000604482015290519081900360640190fd5b6001600160a01b038116610308576040805162461bcd60e51b8152602060048201526014602482015273746f6b656e2063616e6e6f74206265207a65726f60601b604482015290519081900360640190fd5b600580546001600160a01b0319166001600160a01b038316179055600085905560018490556002839055600482905583151580610346575060025415155b1561038d576001546002541161038d5760405162461bcd60e51b81526004018080602001828103825260238152602001806104f16023913960400191505060405180910390fd5b60055460408051630981b24d60e41b81526004810185905290516001600160a01b039092169163981b24d091602480820192602092909190829003018186803b1580156103d957600080fd5b505afa1580156103ed573d6000803e3d6000fd5b505050506040513d602081101561040357600080fd5b50516003555050505050565b60005481565b6005546001600160a01b031681565b60008261043357506000610480565b8282028284828161044057fe5b041461047d5760405162461bcd60e51b81526004018080602001828103825260218152602001806105146021913960400191505060405180910390fd5b90505b92915050565b60008082116104dc576040805162461bcd60e51b815260206004820152601a60248201527f536166654d6174683a206469766973696f6e206279207a65726f000000000000604482015290519081900360640190fd5b60008284816104e757fe5b0494935050505056fe636c61696d696e67537461727454696d65203e20636c61696d696e67456e6454696d65536166654d6174683a206d756c7469706c69636174696f6e206f766572666c6f77a265627a7a72315820c8a4ef25506a946c5bc4fbef15e981f7b2828fcec5a03fc11a9c2007623fb64964736f6c634300050b0032",
  "source": "pragma solidity ^0.5.11;\n\nimport \"openzeppelin-solidity/contracts/math/SafeMath.sol\";\n\n\ncontract MiniMeToken {\n    function balanceOfAt(address _owner, uint _blockNumber) public view returns (uint);\n    function totalSupplyAt(uint _blockNumber) public view returns(uint);\n}\n\n/**\n * @title NectarRepAllocation contract\n * This contract should be use to calculate reputation allocation for nextar dao bootstrat\n * this contract can be used as the rep mapping contract for RepitationFromToken contract.\n */\n\ncontract NectarRepAllocation {\n    using SafeMath for uint256;\n\n    uint256 public reputationReward;\n    uint256 public claimingStartTime;\n    uint256 public claimingEndTime;\n    uint256 public totalTokenSupplyAt;\n    uint256 public blockReference;\n    MiniMeToken public token;\n\n    /**\n     * @dev initialize\n     * @param _reputationReward the total reputation which will be used to calc the reward\n     *        for the token locking\n     * @param _claimingStartTime claiming starting period time.\n     * @param _claimingEndTime the claiming end time.\n     *        claiming is disable after this time.\n     * @param _blockReference the block nbumber reference which is used to takle the balance from.\n     * @param _token nectar token address\n     */\n    function initialize(\n        uint256 _reputationReward,\n        uint256 _claimingStartTime,\n        uint256 _claimingEndTime,\n        uint256 _blockReference,\n        MiniMeToken _token)\n        external\n    {\n        require(token == MiniMeToken(0), \"can be called only one time\");\n        require(_token != MiniMeToken(0), \"token cannot be zero\");\n        token = _token;\n        reputationReward = _reputationReward;\n        claimingStartTime = _claimingStartTime;\n        claimingEndTime = _claimingEndTime;\n        blockReference = _blockReference;\n        if ((claimingStartTime != 0) || (claimingEndTime != 0)) {\n            require(claimingEndTime > claimingStartTime, \"claimingStartTime > claimingEndTime\");\n        }\n        totalTokenSupplyAt = token.totalSupplyAt(_blockReference);\n    }\n\n    /**\n     * @dev get balanceOf _beneficiary function\n     * @param _beneficiary addresses\n     */\n    function balanceOf(address _beneficiary) public view returns(uint256 reputation) {\n        if (((claimingStartTime != 0) || (claimingEndTime != 0)) &&\n          // solhint-disable-next-line not-rely-on-time\n            ((now >= claimingEndTime) || (now < claimingStartTime))) {\n            reputation = 0;\n        } else {\n            reputation = token.balanceOfAt(_beneficiary, blockReference).mul(reputationReward).div(totalTokenSupplyAt);\n        }\n    }\n\n}\n",
  "sourcePath": "/Users/oren/daostack/arc/contracts/test/NectarRepAllocation.sol",
  "compiler": {
    "name": "solc",
    "version": "0.5.11+commit.c082d0b4.Emscripten.clang"
  },
  "schemaVersion": "3.0.14",
  "updatedAt": "2019-10-06T11:08:56.145Z",
  "devdoc": {
    "methods": {
      "balanceOf(address)": {
        "details": "get balanceOf _beneficiary function",
        "params": {
          "_beneficiary": "addresses"
        }
      },
      "initialize(uint256,uint256,uint256,uint256,address)": {
        "details": "initialize",
        "params": {
          "_blockReference": "the block nbumber reference which is used to takle the balance from.",
          "_claimingEndTime": "the claiming end time.       claiming is disable after this time.",
          "_claimingStartTime": "claiming starting period time.",
          "_reputationReward": "the total reputation which will be used to calc the reward       for the token locking",
          "_token": "nectar token address"
        }
      }
    },
    "title": "NectarRepAllocation contract This contract should be use to calculate reputation allocation for nextar dao bootstrat this contract can be used as the rep mapping contract for RepitationFromToken contract."
  },
  "userdoc": {
    "methods": {}
  }
}