{
  "contractName": "ActionMock",
  "abi": [
    {
      "anonymous": false,
      "inputs": [
        {
          "indexed": false,
          "name": "_addr",
          "type": "address"
        }
      ],
      "name": "WithoutReturnValue",
      "type": "event"
    },
    {
      "constant": true,
      "inputs": [
        {
          "name": "_a",
          "type": "uint256"
        },
        {
          "name": "_b",
          "type": "address"
        },
        {
          "name": "_c",
          "type": "bytes32"
        }
      ],
      "name": "test",
      "outputs": [
        {
          "name": "",
          "type": "uint256"
        }
      ],
      "payable": false,
      "stateMutability": "view",
      "type": "function"
    },
    {
      "constant": true,
      "inputs": [
        {
          "name": "_addr",
          "type": "address"
        }
      ],
      "name": "test2",
      "outputs": [
        {
          "name": "",
          "type": "bool"
        }
      ],
      "payable": false,
      "stateMutability": "view",
      "type": "function"
    },
    {
      "constant": false,
      "inputs": [
        {
          "name": "_addr",
          "type": "address"
        }
      ],
      "name": "withoutReturnValue",
      "outputs": [],
      "payable": false,
      "stateMutability": "nonpayable",
      "type": "function"
    }
  ],
  "bytecode": "0x608060405234801561001057600080fd5b506102f4806100206000396000f3006080604052600436106100565763ffffffff7c01000000000000000000000000000000000000000000000000000000006000350416630db12fad811461005b578063b11bead41461007e578063f3e8dcd0146100b3575b600080fd5b34801561006757600080fd5b5061007c600160a060020a03600435166100ec565b005b34801561008a57600080fd5b5061009f600160a060020a03600435166101c8565b604080519115158252519081900360200190f35b3480156100bf57600080fd5b506100da600435600160a060020a036024351660443561026f565b60408051918252519081900360200190f35b33600160a060020a0382161461018957604080517f08c379a000000000000000000000000000000000000000000000000000000000815260206004820152602160248201527f7468652063616c6c6572206d75737420626520657175616c20746f205f61646460448201527f7200000000000000000000000000000000000000000000000000000000000000606482015290519081900360840190fd5b60408051600160a060020a038316815290517f296b3ab69f08b831e3eba781baef82f44885a5d62be6e22903cc9416d47812779181900360200190a150565b600033600160a060020a0383161461026757604080517f08c379a000000000000000000000000000000000000000000000000000000000815260206004820152602160248201527f7468652063616c6c6572206d75737420626520657175616c20746f205f61646460448201527f7200000000000000000000000000000000000000000000000000000000000000606482015290519081900360840190fd5b506001919050565b60006007841461027e57600080fd5b600160a060020a038316301461029357600080fd5b7f123400000000000000000000000000000000000000000000000000000000000082146102bf57600080fd5b505050600202905600a165627a7a72305820c390a236e55fe64992454ced844965b9edb44823658a4356970d390e599587350029",
  "source": "pragma solidity ^0.4.24;\n\nimport \"../controller/Avatar.sol\";\n\n\ncontract ActionMock {\n\n    event WithoutReturnValue(address _addr);\n    function test(uint _a,address _b,bytes32 _c) public view returns(uint) {\n        require(_a == 7);\n        require(_b == address(this));\n        require(_c == 0x1234000000000000000000000000000000000000000000000000000000000000);\n        return _a*2;\n    }\n\n    function test2(address _addr) public view returns(bool) {\n        require(msg.sender == _addr,\"the caller must be equal to _addr\");\n        return true;\n    }\n\n    function withoutReturnValue(address _addr) public {\n        require(msg.sender == _addr,\"the caller must be equal to _addr\");\n        emit WithoutReturnValue(_addr);\n    }\n\n}\n",
  "sourcePath": "/home/adam/cryptoDev/Ethereum/daostack/arc/contracts/test/ActionMock.sol",
  "compiler": {
    "name": "solc",
    "version": "0.4.24+commit.e67f0147.Emscripten.clang"
  },
  "schemaVersion": "2.0.1",
  "updatedAt": "2018-08-20T08:30:24.299Z"
}