{
  "contractName": "DAOToken",
  "abi": [
    {
      "constant": true,
      "inputs": [],
      "name": "mintingFinished",
      "outputs": [
        {
          "name": "",
          "type": "bool"
        }
      ],
      "payable": false,
      "stateMutability": "view",
      "type": "function"
    },
    {
      "constant": true,
      "inputs": [],
      "name": "name",
      "outputs": [
        {
          "name": "",
          "type": "string"
        }
      ],
      "payable": false,
      "stateMutability": "view",
      "type": "function"
    },
    {
      "constant": false,
      "inputs": [
        {
          "name": "_spender",
          "type": "address"
        },
        {
          "name": "_value",
          "type": "uint256"
        }
      ],
      "name": "approve",
      "outputs": [
        {
          "name": "",
          "type": "bool"
        }
      ],
      "payable": false,
      "stateMutability": "nonpayable",
      "type": "function"
    },
    {
      "constant": true,
      "inputs": [],
      "name": "totalSupply",
      "outputs": [
        {
          "name": "",
          "type": "uint256"
        }
      ],
      "payable": false,
      "stateMutability": "view",
      "type": "function"
    },
    {
      "constant": false,
      "inputs": [
        {
          "name": "_from",
          "type": "address"
        },
        {
          "name": "_to",
          "type": "address"
        },
        {
          "name": "_value",
          "type": "uint256"
        }
      ],
      "name": "transferFrom",
      "outputs": [
        {
          "name": "",
          "type": "bool"
        }
      ],
      "payable": false,
      "stateMutability": "nonpayable",
      "type": "function"
    },
    {
      "constant": true,
      "inputs": [],
      "name": "decimals",
      "outputs": [
        {
          "name": "",
          "type": "uint8"
        }
      ],
      "payable": false,
      "stateMutability": "view",
      "type": "function"
    },
    {
      "constant": true,
      "inputs": [],
      "name": "cap",
      "outputs": [
        {
          "name": "",
          "type": "uint256"
        }
      ],
      "payable": false,
      "stateMutability": "view",
      "type": "function"
    },
    {
      "constant": false,
      "inputs": [
        {
          "name": "_to",
          "type": "address"
        },
        {
          "name": "_value",
          "type": "uint256"
        },
        {
          "name": "_data",
          "type": "bytes"
        }
      ],
      "name": "transferAndCall",
      "outputs": [
        {
          "name": "",
          "type": "bool"
        }
      ],
      "payable": true,
      "stateMutability": "payable",
      "type": "function"
    },
    {
      "constant": false,
      "inputs": [
        {
          "name": "_value",
          "type": "uint256"
        }
      ],
      "name": "burn",
      "outputs": [],
      "payable": false,
      "stateMutability": "nonpayable",
      "type": "function"
    },
    {
      "constant": false,
      "inputs": [
        {
          "name": "_spender",
          "type": "address"
        },
        {
          "name": "_subtractedValue",
          "type": "uint256"
        }
      ],
      "name": "decreaseApproval",
      "outputs": [
        {
          "name": "",
          "type": "bool"
        }
      ],
      "payable": false,
      "stateMutability": "nonpayable",
      "type": "function"
    },
    {
      "constant": true,
      "inputs": [
        {
          "name": "_owner",
          "type": "address"
        }
      ],
      "name": "balanceOf",
      "outputs": [
        {
          "name": "",
          "type": "uint256"
        }
      ],
      "payable": false,
      "stateMutability": "view",
      "type": "function"
    },
    {
      "constant": false,
      "inputs": [],
      "name": "renounceOwnership",
      "outputs": [],
      "payable": false,
      "stateMutability": "nonpayable",
      "type": "function"
    },
    {
      "constant": false,
      "inputs": [],
      "name": "finishMinting",
      "outputs": [
        {
          "name": "",
          "type": "bool"
        }
      ],
      "payable": false,
      "stateMutability": "nonpayable",
      "type": "function"
    },
    {
      "constant": true,
      "inputs": [],
      "name": "owner",
      "outputs": [
        {
          "name": "",
          "type": "address"
        }
      ],
      "payable": false,
      "stateMutability": "view",
      "type": "function"
    },
    {
      "constant": false,
      "inputs": [
        {
          "name": "_spender",
          "type": "address"
        },
        {
          "name": "_addedValue",
          "type": "uint256"
        },
        {
          "name": "_data",
          "type": "bytes"
        }
      ],
      "name": "increaseApprovalAndCall",
      "outputs": [
        {
          "name": "",
          "type": "bool"
        }
      ],
      "payable": true,
      "stateMutability": "payable",
      "type": "function"
    },
    {
      "constant": true,
      "inputs": [],
      "name": "symbol",
      "outputs": [
        {
          "name": "",
          "type": "string"
        }
      ],
      "payable": false,
      "stateMutability": "view",
      "type": "function"
    },
    {
      "constant": false,
      "inputs": [
        {
          "name": "_to",
          "type": "address"
        },
        {
          "name": "_value",
          "type": "uint256"
        }
      ],
      "name": "transfer",
      "outputs": [
        {
          "name": "",
          "type": "bool"
        }
      ],
      "payable": false,
      "stateMutability": "nonpayable",
      "type": "function"
    },
    {
      "constant": false,
      "inputs": [
        {
          "name": "_from",
          "type": "address"
        },
        {
          "name": "_to",
          "type": "address"
        },
        {
          "name": "_value",
          "type": "uint256"
        },
        {
          "name": "_data",
          "type": "bytes"
        }
      ],
      "name": "transferFromAndCall",
      "outputs": [
        {
          "name": "",
          "type": "bool"
        }
      ],
      "payable": true,
      "stateMutability": "payable",
      "type": "function"
    },
    {
      "constant": false,
      "inputs": [
        {
          "name": "_spender",
          "type": "address"
        },
        {
          "name": "_value",
          "type": "uint256"
        },
        {
          "name": "_data",
          "type": "bytes"
        }
      ],
      "name": "approveAndCall",
      "outputs": [
        {
          "name": "",
          "type": "bool"
        }
      ],
      "payable": true,
      "stateMutability": "payable",
      "type": "function"
    },
    {
      "constant": false,
      "inputs": [
        {
          "name": "_spender",
          "type": "address"
        },
        {
          "name": "_subtractedValue",
          "type": "uint256"
        },
        {
          "name": "_data",
          "type": "bytes"
        }
      ],
      "name": "decreaseApprovalAndCall",
      "outputs": [
        {
          "name": "",
          "type": "bool"
        }
      ],
      "payable": true,
      "stateMutability": "payable",
      "type": "function"
    },
    {
      "constant": false,
      "inputs": [
        {
          "name": "_spender",
          "type": "address"
        },
        {
          "name": "_addedValue",
          "type": "uint256"
        }
      ],
      "name": "increaseApproval",
      "outputs": [
        {
          "name": "",
          "type": "bool"
        }
      ],
      "payable": false,
      "stateMutability": "nonpayable",
      "type": "function"
    },
    {
      "constant": true,
      "inputs": [
        {
          "name": "_owner",
          "type": "address"
        },
        {
          "name": "_spender",
          "type": "address"
        }
      ],
      "name": "allowance",
      "outputs": [
        {
          "name": "",
          "type": "uint256"
        }
      ],
      "payable": false,
      "stateMutability": "view",
      "type": "function"
    },
    {
      "constant": false,
      "inputs": [
        {
          "name": "_newOwner",
          "type": "address"
        }
      ],
      "name": "transferOwnership",
      "outputs": [],
      "payable": false,
      "stateMutability": "nonpayable",
      "type": "function"
    },
    {
      "inputs": [
        {
          "name": "_name",
          "type": "string"
        },
        {
          "name": "_symbol",
          "type": "string"
        },
        {
          "name": "_cap",
          "type": "uint256"
        }
      ],
      "payable": false,
      "stateMutability": "nonpayable",
      "type": "constructor"
    },
    {
      "anonymous": false,
      "inputs": [
        {
          "indexed": true,
          "name": "burner",
          "type": "address"
        },
        {
          "indexed": false,
          "name": "value",
          "type": "uint256"
        }
      ],
      "name": "Burn",
      "type": "event"
    },
    {
      "anonymous": false,
      "inputs": [
        {
          "indexed": true,
          "name": "to",
          "type": "address"
        },
        {
          "indexed": false,
          "name": "amount",
          "type": "uint256"
        }
      ],
      "name": "Mint",
      "type": "event"
    },
    {
      "anonymous": false,
      "inputs": [],
      "name": "MintFinished",
      "type": "event"
    },
    {
      "anonymous": false,
      "inputs": [
        {
          "indexed": true,
          "name": "previousOwner",
          "type": "address"
        }
      ],
      "name": "OwnershipRenounced",
      "type": "event"
    },
    {
      "anonymous": false,
      "inputs": [
        {
          "indexed": true,
          "name": "previousOwner",
          "type": "address"
        },
        {
          "indexed": true,
          "name": "newOwner",
          "type": "address"
        }
      ],
      "name": "OwnershipTransferred",
      "type": "event"
    },
    {
      "anonymous": false,
      "inputs": [
        {
          "indexed": true,
          "name": "owner",
          "type": "address"
        },
        {
          "indexed": true,
          "name": "spender",
          "type": "address"
        },
        {
          "indexed": false,
          "name": "value",
          "type": "uint256"
        }
      ],
      "name": "Approval",
      "type": "event"
    },
    {
      "anonymous": false,
      "inputs": [
        {
          "indexed": true,
          "name": "from",
          "type": "address"
        },
        {
          "indexed": true,
          "name": "to",
          "type": "address"
        },
        {
          "indexed": false,
          "name": "value",
          "type": "uint256"
        }
      ],
      "name": "Transfer",
      "type": "event"
    },
    {
      "constant": false,
      "inputs": [
        {
          "name": "_to",
          "type": "address"
        },
        {
          "name": "_amount",
          "type": "uint256"
        }
      ],
      "name": "mint",
      "outputs": [
        {
          "name": "",
          "type": "bool"
        }
      ],
      "payable": false,
      "stateMutability": "nonpayable",
      "type": "function"
    }
  ],
  "bytecode": "0x60806040526003805460a060020a60ff02191690553480156200002157600080fd5b50604051620012f9380380620012f983398101604090815281516020808401519284015160038054600160a060020a0319163317905591840180519094939093019262000075916004919086019062000098565b5081516200008b90600590602085019062000098565b50600655506200013d9050565b828054600181600116156101000203166002900490600052602060002090601f016020900481019282601f10620000db57805160ff19168380011785556200010b565b828001600101855582156200010b579182015b828111156200010b578251825591602001919060010190620000ee565b50620001199291506200011d565b5090565b6200013a91905b8082111562000119576000815560010162000124565b90565b6111ac806200014d6000396000f30060806040526004361061013d5763ffffffff7c010000000000000000000000000000000000000000000000000000000060003504166305d2035b811461014257806306fdde031461016b578063095ea7b3146101f557806318160ddd1461021957806323b872dd14610240578063313ce5671461026a578063355274ea146102955780634000aea0146102aa57806340c10f191461030657806342966c681461032a578063661884631461034457806370a0823114610368578063715018a6146103895780637d64bcb41461039e5780638da5cb5b146103b357806390db623f146103e457806395d89b4114610440578063a9059cbb14610455578063c1d34b8914610479578063cae9ca51146104db578063cb3993be14610537578063d73dd62314610593578063dd62ed3e146105b7578063f2fde38b146105de575b600080fd5b34801561014e57600080fd5b506101576105ff565b604080519115158252519081900360200190f35b34801561017757600080fd5b5061018061060f565b6040805160208082528351818301528351919283929083019185019080838360005b838110156101ba5781810151838201526020016101a2565b50505050905090810190601f1680156101e75780820380516001836020036101000a031916815260200191505b509250505060405180910390f35b34801561020157600080fd5b50610157600160a060020a036004351660243561069d565b34801561022557600080fd5b5061022e610703565b60408051918252519081900360200190f35b34801561024c57600080fd5b50610157600160a060020a0360043581169060243516604435610709565b34801561027657600080fd5b5061027f61086e565b6040805160ff9092168252519081900360200190f35b3480156102a157600080fd5b5061022e610873565b604080516020600460443581810135601f8101849004840285018401909552848452610157948235600160a060020a03169460248035953695946064949201919081908401838280828437509497506108799650505050505050565b34801561031257600080fd5b50610157600160a060020a0360043516602435610929565b34801561033657600080fd5b50610342600435610997565b005b34801561035057600080fd5b50610157600160a060020a03600435166024356109a4565b34801561037457600080fd5b5061022e600160a060020a0360043516610a94565b34801561039557600080fd5b50610342610aaf565b3480156103aa57600080fd5b50610157610b1d565b3480156103bf57600080fd5b506103c8610ba1565b60408051600160a060020a039092168252519081900360200190f35b604080516020600460443581810135601f8101849004840285018401909552848452610157948235600160a060020a0316946024803595369594606494920191908190840183828082843750949750610bb09650505050505050565b34801561044c57600080fd5b50610180610bd2565b34801561046157600080fd5b50610157600160a060020a0360043516602435610c2d565b604080516020601f60643560048181013592830184900484028501840190955281845261015794600160a060020a038135811695602480359092169560443595369560849401918190840183828082843750949750610cfc9650505050505050565b604080516020600460443581810135601f8101849004840285018401909552848452610157948235600160a060020a0316946024803595369594606494920191908190840183828082843750949750610dae9650505050505050565b604080516020600460443581810135601f8101849004840285018401909552848452610157948235600160a060020a0316946024803595369594606494920191908190840183828082843750949750610dd09650505050505050565b34801561059f57600080fd5b50610157600160a060020a0360043516602435610df2565b3480156105c357600080fd5b5061022e600160a060020a0360043581169060243516610e8b565b3480156105ea57600080fd5b50610342600160a060020a0360043516610eb6565b60035460a060020a900460ff1681565b6004805460408051602060026001851615610100026000190190941693909304601f810184900484028201840190925281815292918301828280156106955780601f1061066a57610100808354040283529160200191610695565b820191906000526020600020905b81548152906001019060200180831161067857829003601f168201915b505050505081565b336000818152600260209081526040808320600160a060020a038716808552908352818420869055815186815291519394909390927f8c5be1e5ebec7d5bd14f71427d1e84f3dd0314c0f7b2291e5b200ac8c7c3b925928290030190a350600192915050565b60015490565b6000600160a060020a038316151561072057600080fd5b600160a060020a03841660009081526020819052604090205482111561074557600080fd5b600160a060020a038416600090815260026020908152604080832033845290915290205482111561077557600080fd5b600160a060020a03841660009081526020819052604090205461079e908363ffffffff610ed616565b600160a060020a0380861660009081526020819052604080822093909355908516815220546107d3908363ffffffff610ee816565b600160a060020a03808516600090815260208181526040808320949094559187168152600282528281203382529091522054610815908363ffffffff610ed616565b600160a060020a0380861660008181526002602090815260408083203384528252918290209490945580518681529051928716939192600080516020611161833981519152929181900390910190a35060019392505050565b601281565b60065481565b6000600160a060020a03841630141561089157600080fd5b61089b8484610c2d565b5083600160a060020a0316348360405180828051906020019080838360005b838110156108d25781810151838201526020016108ba565b50505050905090810190601f1680156108ff5780820380516001836020036101000a031916815260200191505b5091505060006040518083038185875af192505050151561091f57600080fd5b5060019392505050565b600354600090600160a060020a0316331461094357600080fd5b60035460a060020a900460ff161561095a57600080fd5b600060065411156109865760065460015461097b908463ffffffff610ee816565b111561098657600080fd5b6109908383610efb565b9392505050565b6109a13382610ff3565b50565b336000908152600260209081526040808320600160a060020a0386168452909152812054808311156109f957336000908152600260209081526040808320600160a060020a0388168452909152812055610a2e565b610a09818463ffffffff610ed616565b336000908152600260209081526040808320600160a060020a03891684529091529020555b336000818152600260209081526040808320600160a060020a0389168085529083529281902054815190815290519293927f8c5be1e5ebec7d5bd14f71427d1e84f3dd0314c0f7b2291e5b200ac8c7c3b925929181900390910190a35060019392505050565b600160a060020a031660009081526020819052604090205490565b600354600160a060020a03163314610ac657600080fd5b600354604051600160a060020a03909116907ff8df31144d9c2f0f6b59d69b8b98abd5459d07f2742c4df920b25aae33c6482090600090a26003805473ffffffffffffffffffffffffffffffffffffffff19169055565b600354600090600160a060020a03163314610b3757600080fd5b60035460a060020a900460ff1615610b4e57600080fd5b6003805474ff0000000000000000000000000000000000000000191660a060020a1790556040517fae5184fba832cb2b1f702aca6117b8d265eaf03ad33eb133f19dde0f5920fa0890600090a150600190565b600354600160a060020a031681565b6000600160a060020a038416301415610bc857600080fd5b61089b8484610df2565b6005805460408051602060026001851615610100026000190190941693909304601f810184900484028201840190925281815292918301828280156106955780601f1061066a57610100808354040283529160200191610695565b6000600160a060020a0383161515610c4457600080fd5b33600090815260208190526040902054821115610c6057600080fd5b33600090815260208190526040902054610c80908363ffffffff610ed616565b3360009081526020819052604080822092909255600160a060020a03851681522054610cb2908363ffffffff610ee816565b600160a060020a038416600081815260208181526040918290209390935580518581529051919233926000805160206111618339815191529281900390910190a350600192915050565b6000600160a060020a038416301415610d1457600080fd5b610d1f858585610709565b5083600160a060020a0316348360405180828051906020019080838360005b83811015610d56578181015183820152602001610d3e565b50505050905090810190601f168015610d835780820380516001836020036101000a031916815260200191505b5091505060006040518083038185875af1925050501515610da357600080fd5b506001949350505050565b6000600160a060020a038416301415610dc657600080fd5b61089b848461069d565b6000600160a060020a038416301415610de857600080fd5b61089b84846109a4565b336000908152600260209081526040808320600160a060020a0386168452909152812054610e26908363ffffffff610ee816565b336000818152600260209081526040808320600160a060020a0389168085529083529281902085905580519485525191937f8c5be1e5ebec7d5bd14f71427d1e84f3dd0314c0f7b2291e5b200ac8c7c3b925929081900390910190a350600192915050565b600160a060020a03918216600090815260026020908152604080832093909416825291909152205490565b600354600160a060020a03163314610ecd57600080fd5b6109a1816110e2565b600082821115610ee257fe5b50900390565b81810182811015610ef557fe5b92915050565b600354600090600160a060020a03163314610f1557600080fd5b60035460a060020a900460ff1615610f2c57600080fd5b600154610f3f908363ffffffff610ee816565b600155600160a060020a038316600090815260208190526040902054610f6b908363ffffffff610ee816565b600160a060020a03841660008181526020818152604091829020939093558051858152905191927f0f6798a560793a54c3bcfe86a93cde1e73087d944c0ea20544137d412139688592918290030190a2604080518381529051600160a060020a038516916000916000805160206111618339815191529181900360200190a350600192915050565b600160a060020a03821660009081526020819052604090205481111561101857600080fd5b600160a060020a038216600090815260208190526040902054611041908263ffffffff610ed616565b600160a060020a03831660009081526020819052604090205560015461106d908263ffffffff610ed616565b600155604080518281529051600160a060020a038416917fcc16f5dbb4873280815c1ee09dbd06736cffcc184412cf7a71a0fdb75d397ca5919081900360200190a2604080518281529051600091600160a060020a038516916000805160206111618339815191529181900360200190a35050565b600160a060020a03811615156110f757600080fd5b600354604051600160a060020a038084169216907f8be0079c531659141344cd1fd0a4f28419497f9722a3daafe3b4186f6b6457e090600090a36003805473ffffffffffffffffffffffffffffffffffffffff1916600160a060020a03929092169190911790555600ddf252ad1be2c89b69c2b068fc378daa952ba7f163c4a11628f55a4df523b3efa165627a7a72305820abc9b48aafef1778b5cf8962bc38c510e68a4a7d065d06fbbe3c1c3e2e6c01490029",
  "source": "pragma solidity ^0.4.24;\n\nimport \"openzeppelin-solidity/contracts/token/ERC20/MintableToken.sol\";\nimport \"openzeppelin-solidity/contracts/token/ERC20/BurnableToken.sol\";\nimport \"../token/ERC827/ERC827Token.sol\";\n\n\n/**\n * @title DAOToken, base on zeppelin contract.\n * @dev ERC20 compatible token. It is a mintable, destructible, burnable token.\n */\n\ncontract DAOToken is ERC827Token,MintableToken,BurnableToken {\n\n    string public name;\n    string public symbol;\n    // solium-disable-next-line uppercase\n    uint8 public constant decimals = 18;\n    uint public cap;\n\n    /**\n    * @dev Constructor\n    * @param _name - token name\n    * @param _symbol - token symbol\n    * @param _cap - token cap - 0 value means no cap\n    */\n    constructor(string _name, string _symbol,uint _cap) public {\n        name = _name;\n        symbol = _symbol;\n        cap = _cap;\n    }\n\n    /**\n     * @dev Function to mint tokens\n     * @param _to The address that will receive the minted tokens.\n     * @param _amount The amount of tokens to mint.\n     * @return A boolean that indicates if the operation was successful.\n     */\n    function mint(address _to, uint256 _amount) public onlyOwner canMint returns (bool) {\n        if (cap > 0)\n            require(totalSupply_.add(_amount) <= cap);\n        return super.mint(_to, _amount);\n    }\n}\n",
  "sourcePath": "/home/adam/cryptoDev/Ethereum/daostack/arc/contracts/controller/DAOToken.sol",
  "compiler": {
    "name": "solc",
    "version": "0.4.24+commit.e67f0147.Emscripten.clang"
  },
  "schemaVersion": "2.0.1",
  "updatedAt": "2018-08-20T08:30:24.264Z"
}