{
  "contractName": "ExternalTokenLockerMock",
  "abi": [
    {
      "constant": true,
      "inputs": [
        {
          "name": "",
          "type": "address"
        }
      ],
      "name": "lockedTokenBalances",
      "outputs": [
        {
          "name": "",
          "type": "uint256"
        }
      ],
      "payable": false,
      "stateMutability": "view",
      "type": "function"
    },
    {
      "constant": false,
      "inputs": [
        {
          "name": "_amount",
          "type": "uint256"
        }
      ],
      "name": "lock",
      "outputs": [],
      "payable": false,
      "stateMutability": "nonpayable",
      "type": "function"
    }
  ],
  "bytecode": "0x608060405234801561001057600080fd5b5060f18061001f6000396000f30060806040526004361060485763ffffffff7c01000000000000000000000000000000000000000000000000000000006000350416638b525d0c8114604d578063dd46706414608a575b600080fd5b348015605857600080fd5b50607873ffffffffffffffffffffffffffffffffffffffff6004351660a1565b60408051918252519081900360200190f35b348015609557600080fd5b50609f60043560b3565b005b60006020819052908152604090205481565b336000908152602081905260409020555600a165627a7a72305820434c279568d9956782021b15b6f2993667bae01298f360b46cb411d1dcf6c6630029",
  "source": "pragma solidity ^0.4.24;\n\n\ncontract ExternalTokenLockerMock {\n\n    // user => amount\n    mapping (address => uint) public lockedTokenBalances;\n\n    function lock(uint _amount) public {\n        lockedTokenBalances[msg.sender] = _amount;\n    }\n}\n",
  "sourcePath": "/home/adam/cryptoDev/Ethereum/daostack/arc/contracts/test/ExternalTokenLockerMock.sol",
  "compiler": {
    "name": "solc",
    "version": "0.4.24+commit.e67f0147.Emscripten.clang"
  },
  "schemaVersion": "2.0.1",
  "updatedAt": "2018-08-20T08:30:24.300Z"
}