{
  "contractName": "ExternalLocking4Reputation",
  "abi": [
    {
      "constant": true,
      "inputs": [],
      "name": "lockingStartTime",
      "outputs": [
        {
          "name": "",
          "type": "uint256"
        }
      ],
      "payable": false,
      "stateMutability": "view",
      "type": "function"
    },
    {
      "constant": true,
      "inputs": [],
      "name": "totalLocked",
      "outputs": [
        {
          "name": "",
          "type": "uint256"
        }
      ],
      "payable": false,
      "stateMutability": "view",
      "type": "function"
    },
    {
      "constant": true,
      "inputs": [],
      "name": "avatar",
      "outputs": [
        {
          "name": "",
          "type": "address"
        }
      ],
      "payable": false,
      "stateMutability": "view",
      "type": "function"
    },
    {
      "constant": true,
      "inputs": [
        {
          "name": "",
          "type": "address"
        }
      ],
      "name": "scores",
      "outputs": [
        {
          "name": "",
          "type": "uint256"
        }
      ],
      "payable": false,
      "stateMutability": "view",
      "type": "function"
    },
    {
      "constant": true,
      "inputs": [],
      "name": "externalLockingContract",
      "outputs": [
        {
          "name": "",
          "type": "address"
        }
      ],
      "payable": false,
      "stateMutability": "view",
      "type": "function"
    },
    {
      "constant": true,
      "inputs": [
        {
          "name": "",
          "type": "address"
        },
        {
          "name": "",
          "type": "bytes32"
        }
      ],
      "name": "lockers",
      "outputs": [
        {
          "name": "amount",
          "type": "uint256"
        },
        {
          "name": "releaseTime",
          "type": "uint256"
        }
      ],
      "payable": false,
      "stateMutability": "view",
      "type": "function"
    },
    {
      "constant": true,
      "inputs": [],
      "name": "lockingEndTime",
      "outputs": [
        {
          "name": "",
          "type": "uint256"
        }
      ],
      "payable": false,
      "stateMutability": "view",
      "type": "function"
    },
    {
      "constant": true,
      "inputs": [],
      "name": "reputationRewardLeft",
      "outputs": [
        {
          "name": "",
          "type": "uint256"
        }
      ],
      "payable": false,
      "stateMutability": "view",
      "type": "function"
    },
    {
      "constant": true,
      "inputs": [],
      "name": "maxLockingPeriod",
      "outputs": [
        {
          "name": "",
          "type": "uint256"
        }
      ],
      "payable": false,
      "stateMutability": "view",
      "type": "function"
    },
    {
      "constant": true,
      "inputs": [],
      "name": "totalScore",
      "outputs": [
        {
          "name": "",
          "type": "uint256"
        }
      ],
      "payable": false,
      "stateMutability": "view",
      "type": "function"
    },
    {
      "constant": true,
      "inputs": [],
      "name": "lockingsCounter",
      "outputs": [
        {
          "name": "",
          "type": "uint256"
        }
      ],
      "payable": false,
      "stateMutability": "view",
      "type": "function"
    },
    {
      "constant": true,
      "inputs": [],
      "name": "totalLockedLeft",
      "outputs": [
        {
          "name": "",
          "type": "uint256"
        }
      ],
      "payable": false,
      "stateMutability": "view",
      "type": "function"
    },
    {
      "constant": false,
      "inputs": [
        {
          "name": "_beneficiary",
          "type": "address"
        },
        {
          "name": "_lockingId",
          "type": "bytes32"
        }
      ],
      "name": "redeem",
      "outputs": [
        {
          "name": "",
          "type": "bool"
        }
      ],
      "payable": false,
      "stateMutability": "nonpayable",
      "type": "function"
    },
    {
      "constant": true,
      "inputs": [
        {
          "name": "",
          "type": "address"
        }
      ],
      "name": "externalLockers",
      "outputs": [
        {
          "name": "",
          "type": "bool"
        }
      ],
      "payable": false,
      "stateMutability": "view",
      "type": "function"
    },
    {
      "constant": true,
      "inputs": [],
      "name": "reputationReward",
      "outputs": [
        {
          "name": "",
          "type": "uint256"
        }
      ],
      "payable": false,
      "stateMutability": "view",
      "type": "function"
    },
    {
      "constant": true,
      "inputs": [],
      "name": "getBalanceFuncSignature",
      "outputs": [
        {
          "name": "",
          "type": "string"
        }
      ],
      "payable": false,
      "stateMutability": "view",
      "type": "function"
    },
    {
      "inputs": [
        {
          "name": "_avatar",
          "type": "address"
        },
        {
          "name": "_reputationReward",
          "type": "uint256"
        },
        {
          "name": "_lockingStartTime",
          "type": "uint256"
        },
        {
          "name": "_lockingEndTime",
          "type": "uint256"
        },
        {
          "name": "_externalLockingContract",
          "type": "address"
        },
        {
          "name": "_getBalanceFuncSignature",
          "type": "string"
        }
      ],
      "payable": false,
      "stateMutability": "nonpayable",
      "type": "constructor"
    },
    {
      "anonymous": false,
      "inputs": [
        {
          "indexed": true,
          "name": "_lockingId",
          "type": "bytes32"
        },
        {
          "indexed": true,
          "name": "_beneficiary",
          "type": "address"
        },
        {
          "indexed": false,
          "name": "_amount",
          "type": "uint256"
        }
      ],
      "name": "Redeem",
      "type": "event"
    },
    {
      "anonymous": false,
      "inputs": [
        {
          "indexed": true,
          "name": "_lockingId",
          "type": "bytes32"
        },
        {
          "indexed": true,
          "name": "_beneficiary",
          "type": "address"
        },
        {
          "indexed": false,
          "name": "_amount",
          "type": "uint256"
        }
      ],
      "name": "Release",
      "type": "event"
    },
    {
      "anonymous": false,
      "inputs": [
        {
          "indexed": true,
          "name": "_lockingId",
          "type": "bytes32"
        },
        {
          "indexed": false,
          "name": "_amount",
          "type": "uint256"
        },
        {
          "indexed": false,
          "name": "_period",
          "type": "uint256"
        },
        {
          "indexed": false,
          "name": "_locker",
          "type": "address"
        }
      ],
      "name": "Lock",
      "type": "event"
    },
    {
      "constant": false,
      "inputs": [],
      "name": "lock",
      "outputs": [
        {
          "name": "",
          "type": "bytes32"
        }
      ],
      "payable": false,
      "stateMutability": "nonpayable",
      "type": "function"
    }
  ],
  "bytecode": "0x608060405234801561001057600080fd5b50604051620010e8380380620010e883398101604090815281516020830151918301516060840151608085015160a08601519395929391929091018585858560018282116100e557604080517f08c379a000000000000000000000000000000000000000000000000000000000815260206004820152603a60248201527f6c6f636b696e6720656e642074696d652073686f756c6420626520677265617460448201527f6572207468616e206c6f636b696e672073746172742074696d65000000000000606482015290519081900360840190fd5b6007849055600893909355600955600a9190915560008054600160a060020a031916600160a060020a039390931692909217909155600b558383116101b157604080517f08c379a000000000000000000000000000000000000000000000000000000000815260206004820152603860248201527f5f6c6f636b696e67456e6454696d652073686f756c642062652067726561746560448201527f72207468616e205f6c6f636b696e67537461727454696d650000000000000000606482015290519081900360840190fd5b600c8054600160a060020a031916600160a060020a03841617905580516101df90600d9060208401906101eb565b50505050505050610286565b828054600181600116156101000203166002900490600052602060002090601f016020900481019282601f1061022c57805160ff1916838001178555610259565b82800160010185558215610259579182015b8281111561025957825182559160200191906001019061023e565b50610265929150610269565b5090565b61028391905b80821115610265576000815560010161026f565b90565b610e5280620002966000396000f3006080604052600436106100f05763ffffffff7c010000000000000000000000000000000000000000000000000000000060003504166355bfec8881146100f5578063568914121461011c5780635aef7de61461013157806376dd110f146101625780637f33ccac146101835780638380574214610198578063a8c33017146101d5578063afe0e33c146101ea578063bf0df445146101ff578063c006719f14610214578063c3201add14610229578063c348a24b1461023e578063c85c892514610253578063dd9d2deb1461028b578063ed1ff6d8146102ac578063f0167cfa146102c1578063f83d08ba1461034b575b600080fd5b34801561010157600080fd5b5061010a610360565b60408051918252519081900360200190f35b34801561012857600080fd5b5061010a610366565b34801561013d57600080fd5b5061014661036c565b60408051600160a060020a039092168252519081900360200190f35b34801561016e57600080fd5b5061010a600160a060020a036004351661037b565b34801561018f57600080fd5b5061014661038d565b3480156101a457600080fd5b506101bc600160a060020a036004351660243561039c565b6040805192835260208301919091528051918290030190f35b3480156101e157600080fd5b5061010a6103bd565b3480156101f657600080fd5b5061010a6103c3565b34801561020b57600080fd5b5061010a6103c9565b34801561022057600080fd5b5061010a6103cf565b34801561023557600080fd5b5061010a6103d5565b34801561024a57600080fd5b5061010a6103db565b34801561025f57600080fd5b50610277600160a060020a03600435166024356103e1565b604080519115158252519081900360200190f35b34801561029757600080fd5b50610277600160a060020a0360043516610717565b3480156102b857600080fd5b5061010a61072c565b3480156102cd57600080fd5b506102d6610732565b6040805160208082528351818301528351919283929083019185019080838360005b838110156103105781810151838201526020016102f8565b50505050905090810190601f16801561033d5780820380516001836020036101000a031916815260200191505b509250505060405180910390f35b34801561035757600080fd5b5061010a6107c0565b600b5481565b60035481565b600054600160a060020a031681565b60026020526000908152604090205481565b600c54600160a060020a031681565b60016020818152600093845260408085209091529183529120805491015482565b60095481565b60085481565b600a5481565b60055481565b60065481565b60045481565b6000806000806009544210151515610443576040805160e560020a62461bcd02815260206004820152601a60248201527f636865636b20746865206c6f636b20706572696f642070617373000000000000604482015290519081900360640190fd5b600160a060020a038616600090815260026020526040812054116104b1576040805160e560020a62461bcd02815260206004820152601360248201527f73636f72652073686f756c64206265203e203000000000000000000000000000604482015290519081900360640190fd5b600160a060020a038616600090815260026020526040812080549190556007549093506104fc906104e490601a0b6109d0565b6104f085601a0b6109d0565b9063ffffffff6109de16565b915061052461051f610512600554601a0b6109d0565b849063ffffffff6109f016565b610a0d565b601a0b905061053e81600854610a1990919063ffffffff16565b60085560008054604080517f8da5cb5b0000000000000000000000000000000000000000000000000000000081529051600160a060020a0390921692638da5cb5b926004808401936020939083900390910190829087803b1580156105a257600080fd5b505af11580156105b6573d6000803e3d6000fd5b505050506040513d60208110156105cc57600080fd5b505160008054604080517feaf994b200000000000000000000000000000000000000000000000000000000815260048101869052600160a060020a038b8116602483015292831660448201529051919093169263eaf994b29260648083019360209390929083900390910190829087803b15801561064957600080fd5b505af115801561065d573d6000803e3d6000fd5b505050506040513d602081101561067357600080fd5b505115156106cb576040805160e560020a62461bcd02815260206004820152601e60248201527f6d696e742072657075746174696f6e2073686f756c6420737563636573730000604482015290519081900360640190fd5b604080518281529051600160a060020a0388169187917fc1d8140f5bf31e06ddd48b4deb96488598efd767dc846befd4faf27a3fe986df9181900360200190a350600195945050505050565b600e6020526000908152604090205460ff1681565b60075481565b600d805460408051602060026001851615610100026000190190941693909304601f810184900484028201840190925281815292918301828280156107b85780601f1061078d576101008083540402835291602001916107b8565b820191906000526020600020905b81548152906001019060200180831161079b57829003601f168201915b505050505081565b336000908152600e60205260408120548190819060ff161561082c576040805160e560020a62461bcd02815260206004820152601c60248201527f6c6f636b696e67207477696365206973206e6f7420616c6c6f77656400000000604482015290519081900360640190fd5b336000818152600e602052604090819020805460ff19166001908117909155600c5482516024808201959095528351808203909501855260440192839052600d8054600160a060020a0392909216949390929091829184916002600019928216156101000292909201160480156108da5780601f106108b85761010080835404028352918201916108da565b820191906000526020600020905b8154815290600101906020018083116108c6575b505060408051918290039091206020850180517bffffffffffffffffffffffffffffffffffffffffffffffffffffffff167fffffffff000000000000000000000000000000000000000000000000000000009092169190911781529051845190935083925080838360005b8381101561095d578181015183820152602001610945565b50505050905090810190601f16801561098a5780820380516001836020036101000a031916815260200191505b509150506000604051808303816000865af191505091503d6000803e8180156109b75760005191506109bc565b3d6000fd5b506109c981600133610a2b565b9250505090565b601a0b650100000000000290565b65010000000000818302055b92915050565b600081650100000000008402811515610a0557fe5b059392505050565b65010000000000900590565b600082821115610a2557fe5b50900390565b600080808511610a85576040805160e560020a62461bcd02815260206004820152601c60248201527f6c6f636b696e6720616d6f756e742073686f756c64206265203e203000000000604482015290519081900360640190fd5b600a54841115610b05576040805160e560020a62461bcd02815260206004820152602c60248201527f6c6f636b696e6720706572696f642073686f756c64206265203c3d206d61784c60448201527f6f636b696e67506572696f640000000000000000000000000000000000000000606482015290519081900360840190fd5b60008411610b5d576040805160e560020a62461bcd02815260206004820152601c60248201527f6c6f636b696e6720706572696f642073686f756c64206265203e203000000000604482015290519081900360640190fd5b600954421115610bdd576040805160e560020a62461bcd02815260206004820152603060248201527f6c6f636b2073686f756c642062652077697468696e2074686520616c6c6f776560448201527f64206c6f636b696e6720706572696f6400000000000000000000000000000000606482015290519081900360840190fd5b600b54421015610c5d576040805160e560020a62461bcd02815260206004820152602860248201527f6c6f636b2073686f756c64207374617274206166746572206c6f636b696e675360448201527f7461727454696d65000000000000000000000000000000000000000000000000606482015290519081900360840190fd5b600654604080516c01000000000000000000000000300260208083019190915260348083019490945282518083039094018452605490910191829052825182918401908083835b60208310610cc35780518252601f199092019160209182019101610ca4565b51815160209384036101000a60001901801990921691161790526040805192909401829003909120600680546001908101909155600160a060020a038a166000908152818452858120838252909352939091208a8155428a0193810193909355600380548b01908190556004559550909350610d6d9250610d48915086905087610df0565b600160a060020a0385166000908152600260205260409020549063ffffffff610e1916565b600160a060020a0384166000908152600260205260409020819055600554610d9a9163ffffffff610e1916565b6005556040805186815260208101869052600160a060020a03851681830152905183917f71bb0e30e916e594f9f826bfd52649e8a116c9f7416dfafdb6ea076d174eb244919081900360600190a2509392505050565b6000821515610e01575060006109ea565b50818102818382811515610e1157fe5b04146109ea57fe5b818101828110156109ea57fe00a165627a7a723058206f9fdec091f84afe2fd19d6f9ee93ac98d75a68d10d959616c0c0ac401f775480029",
  "source": "pragma solidity ^0.4.24;\n\nimport \"./Locking4Reputation.sol\";\n\n\n/**\n * @title A scheme for external locking Tokens for reputation\n */\n\ncontract ExternalLocking4Reputation is Locking4Reputation {\n\n    address public externalLockingContract;\n    string public getBalanceFuncSignature;\n\n    // locker->bool\n    mapping(address=>bool) public externalLockers;\n\n    /**\n     * @dev constructor\n     * @param _avatar the avatar to mint reputation from\n     * @param _reputationReward the total reputation this contract will reward\n     *        for the token locking\n     * @param _lockingStartTime locking starting period time.\n     * @param _lockingEndTime the locking end time.\n     *        redeem reputation can be done after this period.\n     *        locking is disable after this time.\n     * @param _externalLockingContract the contract which lock the token.\n     * @param _getBalanceFuncSignature get balance function signature\n     *        e.g \"lockedTokenBalances(address)\"\n     */\n    constructor(Avatar _avatar,\n                 uint _reputationReward,\n                 uint _lockingStartTime,\n                 uint _lockingEndTime,\n                 address _externalLockingContract,\n                 string _getBalanceFuncSignature)\n    Locking4Reputation(_avatar,\n                       _reputationReward,\n                       _lockingStartTime,\n                       _lockingEndTime,\n                       1)\n    public\n    {\n        require(_lockingEndTime > _lockingStartTime,\"_lockingEndTime should be greater than _lockingStartTime\");\n        externalLockingContract = _externalLockingContract;\n        getBalanceFuncSignature = _getBalanceFuncSignature;\n    }\n\n    /**\n     * @dev lock function\n     * @return lockingId\n     */\n    function lock() public returns(bytes32) {\n        require(externalLockers[msg.sender] == false,\"locking twice is not allowed\");\n        externalLockers[msg.sender] = true;\n        // solium-disable-next-line security/no-low-level-calls\n        bool result = externalLockingContract.call(abi.encodeWithSignature(getBalanceFuncSignature,msg.sender));\n        uint lockedAmount;\n        // solium-disable-next-line security/no-inline-assembly\n        assembly {\n          returndatacopy(0, 0, returndatasize)\n          switch result\n          // call returns 0 on error.\n          case 0 { revert(0, returndatasize) }\n          default { lockedAmount := mload(0) }\n        }\n        return super._lock(lockedAmount,1,msg.sender);\n    }\n}\n",
  "sourcePath": "/home/adam/cryptoDev/Ethereum/daostack/arc/contracts/schemes/ExternalLocking4Reputation.sol",
  "compiler": {
    "name": "solc",
    "version": "0.4.24+commit.e67f0147.Emscripten.clang"
  },
  "schemaVersion": "2.0.1",
  "updatedAt": "2018-08-20T08:30:24.295Z"
}