{
  "contractName": "FixedReputationAllocation",
  "abi": [
    {
      "constant": true,
      "inputs": [
        {
          "name": "",
          "type": "address"
        }
      ],
      "name": "beneficiaries",
      "outputs": [
        {
          "name": "",
          "type": "bool"
        }
      ],
      "payable": false,
      "stateMutability": "view",
      "type": "function"
    },
    {
      "constant": true,
      "inputs": [],
      "name": "numberOfBeneficiaries",
      "outputs": [
        {
          "name": "",
          "type": "uint256"
        }
      ],
      "payable": false,
      "stateMutability": "view",
      "type": "function"
    },
    {
      "constant": true,
      "inputs": [],
      "name": "isEnable",
      "outputs": [
        {
          "name": "",
          "type": "bool"
        }
      ],
      "payable": false,
      "stateMutability": "view",
      "type": "function"
    },
    {
      "constant": true,
      "inputs": [],
      "name": "avatar",
      "outputs": [
        {
          "name": "",
          "type": "address"
        }
      ],
      "payable": false,
      "stateMutability": "view",
      "type": "function"
    },
    {
      "constant": false,
      "inputs": [],
      "name": "renounceOwnership",
      "outputs": [],
      "payable": false,
      "stateMutability": "nonpayable",
      "type": "function"
    },
    {
      "constant": true,
      "inputs": [],
      "name": "owner",
      "outputs": [
        {
          "name": "",
          "type": "address"
        }
      ],
      "payable": false,
      "stateMutability": "view",
      "type": "function"
    },
    {
      "constant": true,
      "inputs": [],
      "name": "beneficiaryReward",
      "outputs": [
        {
          "name": "",
          "type": "uint256"
        }
      ],
      "payable": false,
      "stateMutability": "view",
      "type": "function"
    },
    {
      "constant": true,
      "inputs": [],
      "name": "reputationReward",
      "outputs": [
        {
          "name": "",
          "type": "uint256"
        }
      ],
      "payable": false,
      "stateMutability": "view",
      "type": "function"
    },
    {
      "constant": false,
      "inputs": [
        {
          "name": "_newOwner",
          "type": "address"
        }
      ],
      "name": "transferOwnership",
      "outputs": [],
      "payable": false,
      "stateMutability": "nonpayable",
      "type": "function"
    },
    {
      "inputs": [
        {
          "name": "_avatar",
          "type": "address"
        },
        {
          "name": "_reputationReward",
          "type": "uint256"
        }
      ],
      "payable": false,
      "stateMutability": "nonpayable",
      "type": "constructor"
    },
    {
      "anonymous": false,
      "inputs": [
        {
          "indexed": true,
          "name": "_beneficiary",
          "type": "address"
        },
        {
          "indexed": false,
          "name": "_amount",
          "type": "uint256"
        }
      ],
      "name": "Redeem",
      "type": "event"
    },
    {
      "anonymous": false,
      "inputs": [
        {
          "indexed": false,
          "name": "_beneficiary",
          "type": "address"
        }
      ],
      "name": "BeneficiaryAddressAdded",
      "type": "event"
    },
    {
      "anonymous": false,
      "inputs": [
        {
          "indexed": true,
          "name": "previousOwner",
          "type": "address"
        }
      ],
      "name": "OwnershipRenounced",
      "type": "event"
    },
    {
      "anonymous": false,
      "inputs": [
        {
          "indexed": true,
          "name": "previousOwner",
          "type": "address"
        },
        {
          "indexed": true,
          "name": "newOwner",
          "type": "address"
        }
      ],
      "name": "OwnershipTransferred",
      "type": "event"
    },
    {
      "constant": false,
      "inputs": [
        {
          "name": "_beneficiary",
          "type": "address"
        }
      ],
      "name": "redeem",
      "outputs": [
        {
          "name": "",
          "type": "bool"
        }
      ],
      "payable": false,
      "stateMutability": "nonpayable",
      "type": "function"
    },
    {
      "constant": false,
      "inputs": [
        {
          "name": "_beneficiary",
          "type": "address"
        }
      ],
      "name": "addBeneficiary",
      "outputs": [],
      "payable": false,
      "stateMutability": "nonpayable",
      "type": "function"
    },
    {
      "constant": false,
      "inputs": [
        {
          "name": "_beneficiaries",
          "type": "address[]"
        }
      ],
      "name": "addBeneficiaries",
      "outputs": [],
      "payable": false,
      "stateMutability": "nonpayable",
      "type": "function"
    },
    {
      "constant": false,
      "inputs": [],
      "name": "enable",
      "outputs": [],
      "payable": false,
      "stateMutability": "nonpayable",
      "type": "function"
    }
  ],
  "bytecode": "0x608060405234801561001057600080fd5b5060405160408061093783398101604052805160209091015160008054600160a060020a0319908116331790915560039190915560028054600160a060020a03909316929091169190911790556108cb8061006c6000396000f3006080604052600436106100c45763ffffffff7c01000000000000000000000000000000000000000000000000000000006000350416630156773981146100c957806326e9a57e146100fe5780634bb77d6814610125578063590411da1461013a5780635926651d146101915780635aef7de6146101b2578063715018a6146101e35780638da5cb5b146101f857806395a2251f1461020d578063a3907d711461022e578063d044de6314610243578063ed1ff6d814610258578063f2fde38b1461026d575b600080fd5b3480156100d557600080fd5b506100ea600160a060020a036004351661028e565b604080519115158252519081900360200190f35b34801561010a57600080fd5b506101136102a3565b60408051918252519081900360200190f35b34801561013157600080fd5b506100ea6102a9565b34801561014657600080fd5b506040805160206004803580820135838102808601850190965280855261018f953695939460249493850192918291850190849080828437509497506102b29650505050505050565b005b34801561019d57600080fd5b5061018f600160a060020a0360043516610303565b3480156101be57600080fd5b506101c7610422565b60408051600160a060020a039092168252519081900360200190f35b3480156101ef57600080fd5b5061018f610431565b34801561020457600080fd5b506101c761049d565b34801561021957600080fd5b506100ea600160a060020a03600435166104ac565b34801561023a57600080fd5b5061018f61077f565b34801561024f57600080fd5b506101136107cd565b34801561026457600080fd5b506101136107d3565b34801561027957600080fd5b5061018f600160a060020a03600435166107d9565b60016020526000908152604090205460ff1681565b60055481565b60045460ff1681565b60008054600160a060020a031633146102ca57600080fd5b5060005b81518110156102ff576102f782828151811015156102e857fe5b90602001906020020151610303565b6001016102ce565b5050565b600054600160a060020a0316331461031a57600080fd5b60045460ff161561039b576040805160e560020a62461bcd02815260206004820152602e60248201527f63616e206164642062656e6566696369617279206f6e6c79206966206e6f742060448201527f616c726561647920656e61626c65000000000000000000000000000000000000606482015290519081900360840190fd5b600160a060020a03811660009081526001602052604090205460ff16151561041f57600160a060020a038116600081815260016020818152604092839020805460ff19168317905560058054909201909155815192835290517f95b0b3bbe2a97e90a67cbf83ff77fbde1eb5b70051247f9d1a62822ccdc919979281900390910190a15b50565b600254600160a060020a031681565b600054600160a060020a0316331461044857600080fd5b60008054604051600160a060020a03909116917ff8df31144d9c2f0f6b59d69b8b98abd5459d07f2742c4df920b25aae33c6482091a26000805473ffffffffffffffffffffffffffffffffffffffff19169055565b600054600160a060020a031681565b60045460009060ff16151561050b576040805160e560020a62461bcd02815260206004820152601460248201527f7265717569726520746f20626520656e61626c65000000000000000000000000604482015290519081900360640190fd5b600160a060020a03821660009081526001602052604090205460ff1615156105a3576040805160e560020a62461bcd02815260206004820152603660248201527f72657175697265205f62656e656669636961727920746f20657869737420696e60448201527f207468652062656e65666963696172696573206d617000000000000000000000606482015290519081900360840190fd5b600260009054906101000a9004600160a060020a0316600160a060020a0316638da5cb5b6040518163ffffffff167c0100000000000000000000000000000000000000000000000000000000028152600401602060405180830381600087803b15801561060f57600080fd5b505af1158015610623573d6000803e3d6000fd5b505050506040513d602081101561063957600080fd5b5051600654600254604080517feaf994b20000000000000000000000000000000000000000000000000000000081526004810193909352600160a060020a03868116602485015291821660448401525192169163eaf994b2916064808201926020929091908290030181600087803b1580156106b457600080fd5b505af11580156106c8573d6000803e3d6000fd5b505050506040513d60208110156106de57600080fd5b50511515610736576040805160e560020a62461bcd02815260206004820152601e60248201527f6d696e742072657075746174696f6e2073686f756c6420737563636573730000604482015290519081900360640190fd5b6006546040805191825251600160a060020a038416917f222838db2794d11532d940e8dec38ae307ed0b63cd97c233322e221f998767a6919081900360200190a2506001919050565b600054600160a060020a0316331461079657600080fd5b6004805460ff191660011790556005546003546107c5916107c091601a0b9063ffffffff6107f916565b610816565b601a0b600655565b60065481565b60035481565b600054600160a060020a031633146107f057600080fd5b61041f81610822565b60008165010000000000840281151561080e57fe5b059392505050565b65010000000000900590565b600160a060020a038116151561083757600080fd5b60008054604051600160a060020a03808516939216917f8be0079c531659141344cd1fd0a4f28419497f9722a3daafe3b4186f6b6457e091a36000805473ffffffffffffffffffffffffffffffffffffffff1916600160a060020a03929092169190911790555600a165627a7a7230582070d553fd1bf280123fa127ae87c7695f6774610868a60b06ecfc1b65eac9f4000029",
  "source": "pragma solidity ^0.4.24;\n\nimport \"../controller/ControllerInterface.sol\";\nimport { RealMath } from \"../libs/RealMath.sol\";\nimport \"openzeppelin-solidity/contracts/ownership/Ownable.sol\";\n\n\n/**\n * @title A fixed reputation allocation contract\n * This scheme can be used to allocate a pre define amount of reputation to whitelisted\n * beneficiaries.\n */\n\ncontract FixedReputationAllocation is Ownable {\n    using SafeMath for uint;\n    using RealMath for int216;\n    using RealMath for int256;\n\n    event Redeem(address indexed _beneficiary,uint _amount);\n    event BeneficiaryAddressAdded(address _beneficiary);\n\n    // beneficiary -> exist\n    mapping(address=>bool) public beneficiaries;\n\n    Avatar public avatar;\n    uint public reputationReward;\n    bool public isEnable;\n    uint public numberOfBeneficiaries;\n    uint public beneficiaryReward;\n\n    /**\n     * @dev constructor\n     * @param _avatar the avatar to mint reputation from\n     * @param _reputationReward the total reputation this contract will reward\n     */\n    constructor(Avatar _avatar,\n                uint _reputationReward)\n    public\n    {\n        reputationReward = _reputationReward;\n        avatar = _avatar;\n    }\n\n    /**\n     * @dev redeem reputation function\n     * @param _beneficiary the beneficiary for the release\n     * @return bool\n     */\n    function redeem(address _beneficiary) public returns(bool) {\n        require(isEnable,\"require to be enable\");\n        require(beneficiaries[_beneficiary],\"require _beneficiary to exist in the beneficiaries map\");\n        require(ControllerInterface(avatar.owner()).mintReputation(beneficiaryReward,_beneficiary,avatar),\"mint reputation should success\");\n        emit Redeem(_beneficiary,beneficiaryReward);\n        return true;\n    }\n\n    /**\n     * @dev addBeneficiary function\n     * @param _beneficiary to be whitelisted\n     */\n    function addBeneficiary(address _beneficiary)\n    public\n    onlyOwner\n    {\n        require(!isEnable,\"can add beneficiary only if not already enable\");\n        if (!beneficiaries[_beneficiary]) {\n            beneficiaries[_beneficiary] = true;\n            numberOfBeneficiaries++;\n            emit BeneficiaryAddressAdded(_beneficiary);\n        }\n    }\n\n    /**\n     * @dev add addBeneficiaries function\n     * @param _beneficiaries addresses\n     */\n    function addBeneficiaries(address[] _beneficiaries)\n    public\n    onlyOwner\n    {\n        for (uint256 i = 0; i < _beneficiaries.length; i++) {\n            addBeneficiary(_beneficiaries[i]);\n        }\n    }\n\n    /**\n     * @dev enable function\n     */\n    function enable()\n    public\n    onlyOwner\n    {\n        isEnable = true;\n        //Calculate beneficiary reward\n        beneficiaryReward = uint256(int216(reputationReward).div(int256(numberOfBeneficiaries)).fromReal());\n    }\n}\n",
  "sourcePath": "/home/adam/cryptoDev/Ethereum/daostack/arc/contracts/schemes/FixReputationAllocation.sol",
  "compiler": {
    "name": "solc",
    "version": "0.4.24+commit.e67f0147.Emscripten.clang"
  },
  "schemaVersion": "2.0.1",
  "updatedAt": "2018-08-20T08:30:24.296Z"
}