{
  "contractName": "GenericScheme",
  "abi": [
    {
      "constant": true,
      "inputs": [
        {
          "name": "",
          "type": "bytes32"
        }
      ],
      "name": "parameters",
      "outputs": [
        {
          "name": "intVote",
          "type": "address"
        },
        {
          "name": "voteParams",
          "type": "bytes32"
        },
        {
          "name": "contractToCall",
          "type": "address"
        }
      ],
      "payable": false,
      "stateMutability": "view",
      "type": "function"
    },
    {
      "constant": true,
      "inputs": [
        {
          "name": "",
          "type": "address"
        },
        {
          "name": "",
          "type": "bytes32"
        }
      ],
      "name": "organizationsProposals",
      "outputs": [
        {
          "name": "callData",
          "type": "bytes"
        },
        {
          "name": "exist",
          "type": "bool"
        }
      ],
      "payable": false,
      "stateMutability": "view",
      "type": "function"
    },
    {
      "constant": false,
      "inputs": [
        {
          "name": "_hashedParameters",
          "type": "bytes32"
        }
      ],
      "name": "updateParameters",
      "outputs": [],
      "payable": false,
      "stateMutability": "nonpayable",
      "type": "function"
    },
    {
      "constant": false,
      "inputs": [],
      "name": "renounceOwnership",
      "outputs": [],
      "payable": false,
      "stateMutability": "nonpayable",
      "type": "function"
    },
    {
      "constant": true,
      "inputs": [],
      "name": "owner",
      "outputs": [
        {
          "name": "",
          "type": "address"
        }
      ],
      "payable": false,
      "stateMutability": "view",
      "type": "function"
    },
    {
      "constant": false,
      "inputs": [
        {
          "name": "_newOwner",
          "type": "address"
        }
      ],
      "name": "transferOwnership",
      "outputs": [],
      "payable": false,
      "stateMutability": "nonpayable",
      "type": "function"
    },
    {
      "constant": true,
      "inputs": [],
      "name": "hashedParameters",
      "outputs": [
        {
          "name": "",
          "type": "bytes32"
        }
      ],
      "payable": false,
      "stateMutability": "view",
      "type": "function"
    },
    {
      "anonymous": false,
      "inputs": [
        {
          "indexed": true,
          "name": "_avatar",
          "type": "address"
        },
        {
          "indexed": true,
          "name": "_proposalId",
          "type": "bytes32"
        },
        {
          "indexed": false,
          "name": "callData",
          "type": "bytes"
        }
      ],
      "name": "NewCallProposal",
      "type": "event"
    },
    {
      "anonymous": false,
      "inputs": [
        {
          "indexed": true,
          "name": "_avatar",
          "type": "address"
        },
        {
          "indexed": true,
          "name": "_proposalId",
          "type": "bytes32"
        },
        {
          "indexed": false,
          "name": "_param",
          "type": "int256"
        }
      ],
      "name": "ProposalExecuted",
      "type": "event"
    },
    {
      "anonymous": false,
      "inputs": [
        {
          "indexed": true,
          "name": "_avatar",
          "type": "address"
        },
        {
          "indexed": true,
          "name": "_proposalId",
          "type": "bytes32"
        }
      ],
      "name": "ProposalDeleted",
      "type": "event"
    },
    {
      "anonymous": false,
      "inputs": [
        {
          "indexed": true,
          "name": "previousOwner",
          "type": "address"
        }
      ],
      "name": "OwnershipRenounced",
      "type": "event"
    },
    {
      "anonymous": false,
      "inputs": [
        {
          "indexed": true,
          "name": "previousOwner",
          "type": "address"
        },
        {
          "indexed": true,
          "name": "newOwner",
          "type": "address"
        }
      ],
      "name": "OwnershipTransferred",
      "type": "event"
    },
    {
      "constant": false,
      "inputs": [
        {
          "name": "_voteParams",
          "type": "bytes32"
        },
        {
          "name": "_intVote",
          "type": "address"
        },
        {
          "name": "_contractToCall",
          "type": "address"
        }
      ],
      "name": "setParameters",
      "outputs": [
        {
          "name": "",
          "type": "bytes32"
        }
      ],
      "payable": false,
      "stateMutability": "nonpayable",
      "type": "function"
    },
    {
      "constant": true,
      "inputs": [
        {
          "name": "_voteParams",
          "type": "bytes32"
        },
        {
          "name": "_intVote",
          "type": "address"
        },
        {
          "name": "_contractToCall",
          "type": "address"
        }
      ],
      "name": "getParametersHash",
      "outputs": [
        {
          "name": "",
          "type": "bytes32"
        }
      ],
      "payable": false,
      "stateMutability": "pure",
      "type": "function"
    },
    {
      "constant": false,
      "inputs": [
        {
          "name": "_avatar",
          "type": "address"
        },
        {
          "name": "_callData",
          "type": "bytes"
        }
      ],
      "name": "proposeCall",
      "outputs": [
        {
          "name": "",
          "type": "bytes32"
        }
      ],
      "payable": false,
      "stateMutability": "nonpayable",
      "type": "function"
    },
    {
      "constant": false,
      "inputs": [
        {
          "name": "_proposalId",
          "type": "bytes32"
        },
        {
          "name": "_avatar",
          "type": "address"
        },
        {
          "name": "_param",
          "type": "int256"
        }
      ],
      "name": "execute",
      "outputs": [
        {
          "name": "",
          "type": "bool"
        }
      ],
      "payable": false,
      "stateMutability": "nonpayable",
      "type": "function"
    },
    {
      "constant": true,
      "inputs": [
        {
          "name": "_avatar",
          "type": "address"
        }
      ],
      "name": "getContractToCall",
      "outputs": [
        {
          "name": "",
          "type": "address"
        }
      ],
      "payable": false,
      "stateMutability": "view",
      "type": "function"
    }
  ],
  "bytecode": "0x608060405260008054600160a060020a03191633179055610f8d806100256000396000f3006080604052600436106100a05763ffffffff60e060020a6000350416630250680481146100a557806306e3a978146100e85780632ac2af531461018f578063310ce4e2146101a957806335a05133146101e457806348ffbfeb14610220578063715018a61461024a57806373795a1e1461025f57806388b26667146102c65780638da5cb5b14610303578063f2fde38b14610318578063f98e87ba14610339575b600080fd5b3480156100b157600080fd5b506100bd60043561034e565b60408051600160a060020a039485168152602081019390935292168183015290519081900360600190f35b3480156100f457600080fd5b5061010c600160a060020a036004351660243561037a565b604051808060200183151515158152602001828103825284818151815260200191508051906020019080838360005b8381101561015357818101518382015260200161013b565b50505050905090810190601f1680156101805780820380516001836020036101000a031916815260200191505b50935050505060405180910390f35b34801561019b57600080fd5b506101a7600435610428565b005b3480156101b557600080fd5b506101d0600435600160a060020a0360243516604435610444565b604080519115158252519081900360200190f35b3480156101f057600080fd5b5061020e600435600160a060020a03602435811690604435166108c5565b60408051918252519081900360200190f35b34801561022c57600080fd5b5061020e600435600160a060020a036024358116906044351661096e565b34801561025657600080fd5b506101a76109d6565b34801561026b57600080fd5b5060408051602060046024803582810135601f810185900485028601850190965285855261020e958335600160a060020a0316953695604494919390910191908190840183828082843750949750610a429650505050505050565b3480156102d257600080fd5b506102e7600160a060020a0360043516610c5a565b60408051600160a060020a039092168252519081900360200190f35b34801561030f57600080fd5b506102e7610c8c565b34801561032457600080fd5b506101a7600160a060020a0360043516610c9b565b34801561034557600080fd5b5061020e610cbe565b600360205260009081526040902080546001820154600290920154600160a060020a0391821692911683565b6002602081815260009384526040808520825292845292829020805483516001821615610100026000190190911692909204601f810185900485028301850190935282825292909183918301828280156104155780601f106103ea57610100808354040283529160200191610415565b820191906000526020600020905b8154815290600101906020018083116103f857829003601f168201915b5050506001909301549192505060ff1682565b600054600160a060020a0316331461043f57600080fd5b600155565b600061044e610e4a565b610456610e6a565b6000806003600061046689610cc4565b8152602080820192909252604090810160002081516060810183528154600160a060020a03908116808352600184015495830195909552600290920154909116918101919091529450331461054257604080517f08c379a000000000000000000000000000000000000000000000000000000000815260206004820152602560248201527f7468652063616c6c6572206d7573742062652074686520766f74696e67206d6160448201527f6368696e65000000000000000000000000000000000000000000000000000000606482015290519081900360840190fd5b600160a060020a03871660009081526002602081815260408084208c8552825292839020835181546060601f61010060018416150260001901909216959095049081018490049093028101840185529384018281529092849284918401828280156105ee5780601f106105c3576101008083540402835291602001916105ee565b820191906000526020600020905b8154815290600101906020018083116105d157829003601f168201915b50505091835250506001919091015460ff161515602091820152810151909350151561067b57604080517f08c379a000000000000000000000000000000000000000000000000000000000815260206004820152601760248201527f6d7573742062652061206c6976652070726f706f73616c000000000000000000604482015290519081900360640190fd5b600160a060020a03871660009081526002602090815260408083208b84529091528120906106a98282610e82565b50600101805460ff191690556040518890600160a060020a038916907f6bc0cb9e9967b59a69ace442598e1df4368d38661bd5c0800fbcbc9fe855fbbe90600090a360019150851561087a5786600160a060020a0316638da5cb5b6040518163ffffffff1660e060020a028152600401602060405180830381600087803b15801561073357600080fd5b505af1158015610747573d6000803e3d6000fd5b505050506040513d602081101561075d57600080fd5b5051604080860151855191517f20204fb7000000000000000000000000000000000000000000000000000000008152600160a060020a03828116600483019081528c82166044840152606060248401908152855160648501528551969750600096928816956320204fb7959490938f9392916084019060208601908083838d5b838110156107f55781810151838201526020016107dd565b50505050905090810190601f1680156108225780820380516001836020036101000a031916815260200191505b50945050505050602060405180830381600087803b15801561084357600080fd5b505af1158015610857573d6000803e3d6000fd5b505050506040513d602081101561086d57600080fd5b5051141561087a57600091505b6040805187815290518991600160a060020a038a16917fd2632e80f5364f02aded1c64e8a04637b7c8bb9c2db2bedf4b6ac47c013acbc09181900360200190a3509695505050505050565b6040805160208082018690526c01000000000000000000000000600160a060020a038087168202848601528516026054830152825160488184030181526068909201928390528151600093918291908401908083835b6020831061093a5780518252601f19909201916020918201910161091b565b5181516020939093036101000a60001901801990911692169190911790526040519201829003909120979650505050505050565b60008061097c8585856108c5565b60008181526003602052604090206001810196909655855473ffffffffffffffffffffffffffffffffffffffff19908116600160a060020a0396871617875560029096018054909616939094169290921790935550919050565b600054600160a060020a031633146109ed57600080fd5b60008054604051600160a060020a03909116917ff8df31144d9c2f0f6b59d69b8b98abd5459d07f2742c4df920b25aae33c6482091a26000805473ffffffffffffffffffffffffffffffffffffffff19169055565b6000610a4c610e4a565b60008060036000610a5c88610cc4565b81526020808201929092526040908101600090812082516060810184528154600160a060020a03908116808352600184015483880181905260029485015483168488015286517f0905c9f900000000000000000000000000000000000000000000000000000000815260048101959095526024850152908c16604484015230606484015233608484015293519097509295508593630905c9f99360a48084019492939192918390030190829087803b158015610b1757600080fd5b505af1158015610b2b573d6000803e3d6000fd5b505050506040513d6020811015610b4157600080fd5b50516040805180820182528781526001602082810191909152600160a060020a038a166000908152600282528381208582528252929092208151805194955091939092610b92928492910190610ec6565b50602091820151600191909101805460ff19169115159190911790556040805182815287518184015287518493600160a060020a038b16937f9146aef0668fea5686d4a840cf98e541469a250ce09c3558c8b74256216975ce938b93909283928301919085019080838360005b83811015610c17578181015183820152602001610bff565b50505050905090810190601f168015610c445780820380516001836020036101000a031916815260200191505b509250505060405180910390a395945050505050565b600060036000610c6984610cc4565b8152602081019190915260400160002060020154600160a060020a031692915050565b600054600160a060020a031681565b600054600160a060020a03163314610cb257600080fd5b610cbb81610dcd565b50565b60015481565b600081600160a060020a0316638da5cb5b6040518163ffffffff1660e060020a028152600401602060405180830381600087803b158015610d0457600080fd5b505af1158015610d18573d6000803e3d6000fd5b505050506040513d6020811015610d2e57600080fd5b5051604080517f1c4d5608000000000000000000000000000000000000000000000000000000008152306004820152600160a060020a03858116602483015291519190921691631c4d56089160448083019260209291908290030181600087803b158015610d9b57600080fd5b505af1158015610daf573d6000803e3d6000fd5b505050506040513d6020811015610dc557600080fd5b505192915050565b600160a060020a0381161515610de257600080fd5b60008054604051600160a060020a03808516939216917f8be0079c531659141344cd1fd0a4f28419497f9722a3daafe3b4186f6b6457e091a36000805473ffffffffffffffffffffffffffffffffffffffff1916600160a060020a0392909216919091179055565b604080516060810182526000808252602082018190529181019190915290565b60408051808201909152606081526000602082015290565b50805460018160011615610100020316600290046000825580601f10610ea85750610cbb565b601f016020900490600052602060002090810190610cbb9190610f44565b828054600181600116156101000203166002900490600052602060002090601f016020900481019282601f10610f0757805160ff1916838001178555610f34565b82800160010185558215610f34579182015b82811115610f34578251825591602001919060010190610f19565b50610f40929150610f44565b5090565b610f5e91905b80821115610f405760008155600101610f4a565b905600a165627a7a72305820a13f79f86b02252cb0ca300907623b99a4df556c8a72a233acc9cb32e8dd5ed50029",
  "source": "pragma solidity ^0.4.24;\n\nimport \"../VotingMachines/IntVoteInterface.sol\";\nimport \"./UniversalScheme.sol\";\n\n\n/**\n * @title GenericScheme.\n * @dev  A scheme for proposing and executing calls to an arbitrary function\n * on a specific contract on behalf of the organization avatar.\n */\ncontract GenericScheme is UniversalScheme, ExecutableInterface {\n    event NewCallProposal(\n        address indexed _avatar,\n        bytes32 indexed _proposalId,\n        bytes   callData\n    );\n    event ProposalExecuted(address indexed _avatar, bytes32 indexed _proposalId,int _param);\n    event ProposalDeleted(address indexed _avatar, bytes32 indexed _proposalId);\n\n    // Details of a voting proposal:\n    struct CallProposal {\n        bytes callData;\n        bool exist;\n    }\n\n    // A mapping from the organization (Avatar) address to the saved data of the organization:\n    mapping(address=>mapping(bytes32=>CallProposal)) public organizationsProposals;\n\n\n    struct Parameters {\n        IntVoteInterface intVote;\n        bytes32 voteParams;\n        address contractToCall;\n    }\n\n    // A mapping from hashes to parameters (use to store a particular configuration on the controller)\n    mapping(bytes32=>Parameters) public parameters;\n\n    /**\n    * @dev Hash the parameters, save them if necessary, and return the hash value\n    * @param _voteParams -  voting parameters\n    * @param _intVote  - voting machine contract.\n    * @return bytes32 -the parameters hash\n    */\n    function setParameters(\n        bytes32 _voteParams,\n        IntVoteInterface _intVote,\n        address _contractToCall\n    ) public returns(bytes32)\n    {\n        bytes32 paramsHash = getParametersHash(_voteParams, _intVote,_contractToCall);\n        parameters[paramsHash].voteParams = _voteParams;\n        parameters[paramsHash].intVote = _intVote;\n        parameters[paramsHash].contractToCall = _contractToCall;\n        return paramsHash;\n    }\n\n    /**\n    * @dev Hash the parameters, and return the hash value\n    * @param _voteParams -  voting parameters\n    * @param _intVote  - voting machine contract.\n    * @return bytes32 -the parameters hash\n    */\n    function getParametersHash(\n        bytes32 _voteParams,\n        IntVoteInterface _intVote,\n        address _contractToCall\n    ) public pure returns(bytes32)\n    {\n        return keccak256(abi.encodePacked(_voteParams, _intVote,_contractToCall));\n    }\n\n    /**\n    * @dev propose to call on behalf of the _avatar\n    *      The function trigger NewCallProposal event\n    * @param _callData - The abi encode data for the call\n    * @param _avatar avatar of the organization\n    * @return an id which represents the proposal\n    */\n    function proposeCall(Avatar _avatar, bytes _callData)\n    public\n    returns(bytes32)\n    {\n        Parameters memory params = parameters[getParametersFromController(_avatar)];\n        IntVoteInterface intVote = params.intVote;\n\n        bytes32 proposalId = intVote.propose(2, params.voteParams, _avatar, ExecutableInterface(this),msg.sender);\n\n        organizationsProposals[_avatar][proposalId] = CallProposal({\n            callData: _callData,\n            exist: true\n        });\n        emit NewCallProposal(_avatar,proposalId,_callData);\n        return proposalId;\n    }\n\n    /**\n    * @dev execution of proposals, can only be called by the voting machine in which the vote is held.\n    *      This function will trigger ProposalDeleted and ProposalExecuted events\n    * @param _proposalId the ID of the voting in the voting machine\n    * @param _avatar address of the organization's avatar\n    * @param _param a parameter of the voting result 0 to numOfChoices .\n    * @return bool which indicate success.\n    */\n    function execute(bytes32 _proposalId, address _avatar, int _param) public returns(bool) {\n        Parameters memory params = parameters[getParametersFromController(Avatar(_avatar))];\n        require(params.intVote == msg.sender,\"the caller must be the voting machine\");\n\n        // Save proposal to memory and delete from storage:\n        CallProposal memory proposal = organizationsProposals[_avatar][_proposalId];\n        require(proposal.exist,\"must be a live proposal\");\n        delete organizationsProposals[_avatar][_proposalId];\n        emit ProposalDeleted(_avatar, _proposalId);\n        bool retVal = true;\n        // If no decision do nothing:\n        if (_param != 0) {\n        // Define controller and get the params:\n            ControllerInterface controller = ControllerInterface(Avatar(_avatar).owner());\n            if (controller.genericCall(\n                     params.contractToCall,\n                     proposal.callData,\n                     _avatar) == bytes32(0)) {\n                retVal = false;\n            }\n          }\n        emit ProposalExecuted(_avatar, _proposalId,_param);\n        return retVal;\n    }\n\n    /**\n    * @dev getContractToCall return the contract this scheme is calling\n    * @param _avatar address of the organization's avatar\n    * @return address the address of the contract this scheme is calling to\n    * on behalf of the avatar\n    */\n    function getContractToCall(address _avatar) public view returns(address) {\n        return parameters[getParametersFromController(Avatar(_avatar))].contractToCall;\n    }\n\n\n}\n",
  "sourcePath": "/home/adam/cryptoDev/Ethereum/daostack/arc/contracts/universalSchemes/GenericScheme.sol",
  "compiler": {
    "name": "solc",
    "version": "0.4.24+commit.e67f0147.Emscripten.clang"
  },
  "schemaVersion": "2.0.1",
  "updatedAt": "2018-08-20T08:30:24.313Z"
}