{
  "contractName": "Locking4Reputation",
  "abi": [
    {
      "constant": true,
      "inputs": [],
      "name": "lockingStartTime",
      "outputs": [
        {
          "name": "",
          "type": "uint256"
        }
      ],
      "payable": false,
      "stateMutability": "view",
      "type": "function"
    },
    {
      "constant": true,
      "inputs": [],
      "name": "totalLocked",
      "outputs": [
        {
          "name": "",
          "type": "uint256"
        }
      ],
      "payable": false,
      "stateMutability": "view",
      "type": "function"
    },
    {
      "constant": true,
      "inputs": [],
      "name": "avatar",
      "outputs": [
        {
          "name": "",
          "type": "address"
        }
      ],
      "payable": false,
      "stateMutability": "view",
      "type": "function"
    },
    {
      "constant": true,
      "inputs": [
        {
          "name": "",
          "type": "address"
        }
      ],
      "name": "scores",
      "outputs": [
        {
          "name": "",
          "type": "uint256"
        }
      ],
      "payable": false,
      "stateMutability": "view",
      "type": "function"
    },
    {
      "constant": true,
      "inputs": [
        {
          "name": "",
          "type": "address"
        },
        {
          "name": "",
          "type": "bytes32"
        }
      ],
      "name": "lockers",
      "outputs": [
        {
          "name": "amount",
          "type": "uint256"
        },
        {
          "name": "releaseTime",
          "type": "uint256"
        }
      ],
      "payable": false,
      "stateMutability": "view",
      "type": "function"
    },
    {
      "constant": true,
      "inputs": [],
      "name": "lockingEndTime",
      "outputs": [
        {
          "name": "",
          "type": "uint256"
        }
      ],
      "payable": false,
      "stateMutability": "view",
      "type": "function"
    },
    {
      "constant": true,
      "inputs": [],
      "name": "reputationRewardLeft",
      "outputs": [
        {
          "name": "",
          "type": "uint256"
        }
      ],
      "payable": false,
      "stateMutability": "view",
      "type": "function"
    },
    {
      "constant": true,
      "inputs": [],
      "name": "maxLockingPeriod",
      "outputs": [
        {
          "name": "",
          "type": "uint256"
        }
      ],
      "payable": false,
      "stateMutability": "view",
      "type": "function"
    },
    {
      "constant": true,
      "inputs": [],
      "name": "totalScore",
      "outputs": [
        {
          "name": "",
          "type": "uint256"
        }
      ],
      "payable": false,
      "stateMutability": "view",
      "type": "function"
    },
    {
      "constant": true,
      "inputs": [],
      "name": "lockingsCounter",
      "outputs": [
        {
          "name": "",
          "type": "uint256"
        }
      ],
      "payable": false,
      "stateMutability": "view",
      "type": "function"
    },
    {
      "constant": true,
      "inputs": [],
      "name": "totalLockedLeft",
      "outputs": [
        {
          "name": "",
          "type": "uint256"
        }
      ],
      "payable": false,
      "stateMutability": "view",
      "type": "function"
    },
    {
      "constant": true,
      "inputs": [],
      "name": "reputationReward",
      "outputs": [
        {
          "name": "",
          "type": "uint256"
        }
      ],
      "payable": false,
      "stateMutability": "view",
      "type": "function"
    },
    {
      "inputs": [
        {
          "name": "_avatar",
          "type": "address"
        },
        {
          "name": "_reputationReward",
          "type": "uint256"
        },
        {
          "name": "_lockingStartTime",
          "type": "uint256"
        },
        {
          "name": "_lockingEndTime",
          "type": "uint256"
        },
        {
          "name": "_maxLockingPeriod",
          "type": "uint256"
        }
      ],
      "payable": false,
      "stateMutability": "nonpayable",
      "type": "constructor"
    },
    {
      "anonymous": false,
      "inputs": [
        {
          "indexed": true,
          "name": "_lockingId",
          "type": "bytes32"
        },
        {
          "indexed": true,
          "name": "_beneficiary",
          "type": "address"
        },
        {
          "indexed": false,
          "name": "_amount",
          "type": "uint256"
        }
      ],
      "name": "Redeem",
      "type": "event"
    },
    {
      "anonymous": false,
      "inputs": [
        {
          "indexed": true,
          "name": "_lockingId",
          "type": "bytes32"
        },
        {
          "indexed": true,
          "name": "_beneficiary",
          "type": "address"
        },
        {
          "indexed": false,
          "name": "_amount",
          "type": "uint256"
        }
      ],
      "name": "Release",
      "type": "event"
    },
    {
      "anonymous": false,
      "inputs": [
        {
          "indexed": true,
          "name": "_lockingId",
          "type": "bytes32"
        },
        {
          "indexed": false,
          "name": "_amount",
          "type": "uint256"
        },
        {
          "indexed": false,
          "name": "_period",
          "type": "uint256"
        },
        {
          "indexed": false,
          "name": "_locker",
          "type": "address"
        }
      ],
      "name": "Lock",
      "type": "event"
    },
    {
      "constant": false,
      "inputs": [
        {
          "name": "_beneficiary",
          "type": "address"
        },
        {
          "name": "_lockingId",
          "type": "bytes32"
        }
      ],
      "name": "redeem",
      "outputs": [
        {
          "name": "",
          "type": "bool"
        }
      ],
      "payable": false,
      "stateMutability": "nonpayable",
      "type": "function"
    }
  ],
  "bytecode": "0x608060405234801561001057600080fd5b5060405160a0806107ed83398101604090815281516020830151918301516060840151608090940151919390918282116100d157604080517f08c379a000000000000000000000000000000000000000000000000000000000815260206004820152603a60248201527f6c6f636b696e6720656e642074696d652073686f756c6420626520677265617460448201527f6572207468616e206c6f636b696e672073746172742074696d65000000000000606482015290519081900360840190fd5b6007849055600893909355600955600a9190915560008054600160a060020a03909316600160a060020a031990931692909217909155600b556106d4806101196000396000f3006080604052600436106100c45763ffffffff7c010000000000000000000000000000000000000000000000000000000060003504166355bfec8881146100c957806356891412146100f05780635aef7de61461010557806376dd110f146101365780638380574214610157578063a8c3301714610194578063afe0e33c146101a9578063bf0df445146101be578063c006719f146101d3578063c3201add146101e8578063c348a24b146101fd578063c85c892514610212578063ed1ff6d81461024a575b600080fd5b3480156100d557600080fd5b506100de61025f565b60408051918252519081900360200190f35b3480156100fc57600080fd5b506100de610265565b34801561011157600080fd5b5061011a61026b565b60408051600160a060020a039092168252519081900360200190f35b34801561014257600080fd5b506100de600160a060020a036004351661027a565b34801561016357600080fd5b5061017b600160a060020a036004351660243561028c565b6040805192835260208301919091528051918290030190f35b3480156101a057600080fd5b506100de6102ad565b3480156101b557600080fd5b506100de6102b3565b3480156101ca57600080fd5b506100de6102b9565b3480156101df57600080fd5b506100de6102bf565b3480156101f457600080fd5b506100de6102c5565b34801561020957600080fd5b506100de6102cb565b34801561021e57600080fd5b50610236600160a060020a03600435166024356102d1565b604080519115158252519081900360200190f35b34801561025657600080fd5b506100de61064c565b600b5481565b60035481565b600054600160a060020a031681565b60026020526000908152604090205481565b60016020818152600093845260408085209091529183529120805491015482565b60095481565b60085481565b600a5481565b60055481565b60065481565b60045481565b600080600080600954421015151561034a57604080517f08c379a000000000000000000000000000000000000000000000000000000000815260206004820152601a60248201527f636865636b20746865206c6f636b20706572696f642070617373000000000000604482015290519081900360640190fd5b600160a060020a038616600090815260026020526040812054116103cf57604080517f08c379a000000000000000000000000000000000000000000000000000000000815260206004820152601360248201527f73636f72652073686f756c64206265203e203000000000000000000000000000604482015290519081900360640190fd5b600160a060020a0386166000908152600260205260408120805491905560075490935061041a9061040290601a0b610652565b61040e85601a0b610652565b9063ffffffff61066016565b915061044261043d610430600554601a0b610652565b849063ffffffff61066d16565b61068a565b601a0b905061045c8160085461069690919063ffffffff16565b60085560008054604080517f8da5cb5b0000000000000000000000000000000000000000000000000000000081529051600160a060020a0390921692638da5cb5b926004808401936020939083900390910190829087803b1580156104c057600080fd5b505af11580156104d4573d6000803e3d6000fd5b505050506040513d60208110156104ea57600080fd5b505160008054604080517feaf994b200000000000000000000000000000000000000000000000000000000815260048101869052600160a060020a038b8116602483015292831660448201529051919093169263eaf994b29260648083019360209390929083900390910190829087803b15801561056757600080fd5b505af115801561057b573d6000803e3d6000fd5b505050506040513d602081101561059157600080fd5b5051151561060057604080517f08c379a000000000000000000000000000000000000000000000000000000000815260206004820152601e60248201527f6d696e742072657075746174696f6e2073686f756c6420737563636573730000604482015290519081900360640190fd5b604080518281529051600160a060020a0388169187917fc1d8140f5bf31e06ddd48b4deb96488598efd767dc846befd4faf27a3fe986df9181900360200190a350600195945050505050565b60075481565b601a0b650100000000000290565b6501000000000091020590565b60008165010000000000840281151561068257fe5b059392505050565b65010000000000900590565b6000828211156106a257fe5b509003905600a165627a7a7230582081c9effa09a6519081d680c917b19361962b6d514430649a77f8045c3c59903a0029",
  "source": "pragma solidity ^0.4.24;\n\nimport \"../controller/ControllerInterface.sol\";\nimport { RealMath } from \"../libs/RealMath.sol\";\n\n\n/**\n * @title A locker contract\n */\n\ncontract Locking4Reputation {\n    using SafeMath for uint;\n    using RealMath for int216;\n    using RealMath for int256;\n\n    event Redeem(bytes32 indexed _lockingId, address indexed _beneficiary,uint _amount);\n    event Release(bytes32 indexed _lockingId, address indexed _beneficiary,uint _amount);\n    event Lock(bytes32 indexed _lockingId,uint _amount,uint _period,address _locker);\n\n    struct Locker {\n        uint amount;\n        uint releaseTime;\n    }\n\n    Avatar public avatar;\n\n    // A mapping from lockers addresses their lock balances.\n    mapping(address=>mapping(bytes32=>Locker)) public lockers;\n    // A mapping from lockers addresses to their scores.\n    mapping(address=>uint) public scores;\n\n    uint public totalLocked;\n    uint public totalLockedLeft;\n    uint public totalScore;\n    uint public lockingsCounter; // Total number of lockings\n    uint public reputationReward;\n    uint public reputationRewardLeft;\n    uint public lockingEndTime;\n    uint public maxLockingPeriod;\n    uint public lockingStartTime;\n\n    /**\n     * @dev constructor\n     * @param _avatar the avatar to mint reputation from\n     * @param _reputationReward the total reputation this contract will reward\n     *        for eth/token locking\n     * @param _lockingStartTime the locking start time.\n     * @param _lockingEndTime the locking end time.\n     *        redeem reputation can be done after this period.\n     *        locking is disable after this time.\n     * @param _maxLockingPeriod maximum locking period allowed.\n     */\n    constructor(Avatar _avatar,\n                uint _reputationReward,\n                uint _lockingStartTime,\n                uint _lockingEndTime,\n                uint _maxLockingPeriod)\n    public\n    {\n        require(_lockingEndTime > _lockingStartTime,\"locking end time should be greater than locking start time\");\n        reputationReward = _reputationReward;\n        reputationRewardLeft = reputationReward;\n        lockingEndTime = _lockingEndTime;\n        maxLockingPeriod = _maxLockingPeriod;\n        avatar = _avatar;\n        lockingStartTime = _lockingStartTime;\n    }\n\n    /**\n     * @dev redeem reputation function\n     * @param _beneficiary the beneficiary for the release\n     * @param _lockingId the locking id to release\n     * @return bool\n     */\n    function redeem(address _beneficiary,bytes32 _lockingId) public returns(bool) {\n        // solium-disable-next-line security/no-block-members\n        require(block.timestamp >= lockingEndTime,\"check the lock period pass\");\n        require(scores[_beneficiary] > 0,\"score should be > 0\");\n        uint score = scores[_beneficiary];\n        scores[_beneficiary] = 0;\n        int256 repRelation = int216(score).toReal().mul(int216(reputationReward).toReal());\n        uint reputation = uint256(repRelation.div(int216(totalScore).toReal()).fromReal());\n        //check that the reputation is sum zero\n        reputationRewardLeft = reputationRewardLeft.sub(reputation);\n        require(ControllerInterface(avatar.owner()).mintReputation(reputation,_beneficiary,avatar),\"mint reputation should success\");\n        emit Redeem(_lockingId,_beneficiary,reputation);\n        return true;\n    }\n\n    /**\n     * @dev release function\n     * @param _beneficiary the beneficiary for the release\n     * @param _lockingId the locking id to release\n     * @return bool\n     */\n    function _release(address _beneficiary,bytes32 _lockingId) internal returns(uint amount) {\n        Locker storage locker = lockers[_beneficiary][_lockingId];\n        require(locker.amount > 0,\"amount should be > 0\");\n        amount = locker.amount;\n        locker.amount = 0;\n        // solium-disable-next-line security/no-block-members\n        require(block.timestamp >= locker.releaseTime,\"check the lock period pass\");\n        totalLockedLeft = totalLockedLeft.sub(amount);\n        emit Release(_lockingId,_beneficiary,amount);\n    }\n\n    /**\n     * @dev lock function\n     * @param _amount the amount to lock\n     * @param _period the locking period\n     * @param _locker the locker\n     * @return lockingId\n     */\n    function _lock(uint _amount, uint _period, address _locker) internal returns(bytes32 lockingId) {\n\n        require(_amount > 0,\"locking amount should be > 0\");\n        require(_period <= maxLockingPeriod,\"locking period should be <= maxLockingPeriod\");\n        require(_period > 0,\"locking period should be > 0\");\n        // solium-disable-next-line security/no-block-members\n        require(now <= lockingEndTime,\"lock should be within the allowed locking period\");\n        // solium-disable-next-line security/no-block-members\n        require(now >= lockingStartTime,\"lock should start after lockingStartTime\");\n\n        lockingId = keccak256(abi.encodePacked(this, lockingsCounter));\n        lockingsCounter++;\n\n        Locker storage locker = lockers[_locker][lockingId];\n        locker.amount = _amount;\n        // solium-disable-next-line security/no-block-members\n        locker.releaseTime = now + _period;\n        totalLocked += _amount;\n        totalLockedLeft = totalLocked;\n        scores[_locker] = scores[_locker].add(_period.mul(_amount));\n        totalScore = totalScore.add(scores[_locker]);\n        emit Lock(lockingId,_amount,_period,_locker);\n    }\n\n}\n",
  "sourcePath": "/home/adam/cryptoDev/Ethereum/daostack/arc/contracts/schemes/Locking4Reputation.sol",
  "compiler": {
    "name": "solc",
    "version": "0.4.24+commit.e67f0147.Emscripten.clang"
  },
  "schemaVersion": "2.0.1",
  "updatedAt": "2018-08-20T08:30:24.296Z"
}