{
  "contractName": "LockingToken4Reputation",
  "abi": [
    {
      "constant": true,
      "inputs": [],
      "name": "lockingStartTime",
      "outputs": [
        {
          "name": "",
          "type": "uint256"
        }
      ],
      "payable": false,
      "stateMutability": "view",
      "type": "function"
    },
    {
      "constant": true,
      "inputs": [],
      "name": "totalLocked",
      "outputs": [
        {
          "name": "",
          "type": "uint256"
        }
      ],
      "payable": false,
      "stateMutability": "view",
      "type": "function"
    },
    {
      "constant": true,
      "inputs": [],
      "name": "avatar",
      "outputs": [
        {
          "name": "",
          "type": "address"
        }
      ],
      "payable": false,
      "stateMutability": "view",
      "type": "function"
    },
    {
      "constant": true,
      "inputs": [
        {
          "name": "",
          "type": "address"
        }
      ],
      "name": "scores",
      "outputs": [
        {
          "name": "",
          "type": "uint256"
        }
      ],
      "payable": false,
      "stateMutability": "view",
      "type": "function"
    },
    {
      "constant": true,
      "inputs": [
        {
          "name": "",
          "type": "address"
        },
        {
          "name": "",
          "type": "bytes32"
        }
      ],
      "name": "lockers",
      "outputs": [
        {
          "name": "amount",
          "type": "uint256"
        },
        {
          "name": "releaseTime",
          "type": "uint256"
        }
      ],
      "payable": false,
      "stateMutability": "view",
      "type": "function"
    },
    {
      "constant": true,
      "inputs": [],
      "name": "lockingEndTime",
      "outputs": [
        {
          "name": "",
          "type": "uint256"
        }
      ],
      "payable": false,
      "stateMutability": "view",
      "type": "function"
    },
    {
      "constant": true,
      "inputs": [],
      "name": "reputationRewardLeft",
      "outputs": [
        {
          "name": "",
          "type": "uint256"
        }
      ],
      "payable": false,
      "stateMutability": "view",
      "type": "function"
    },
    {
      "constant": true,
      "inputs": [],
      "name": "maxLockingPeriod",
      "outputs": [
        {
          "name": "",
          "type": "uint256"
        }
      ],
      "payable": false,
      "stateMutability": "view",
      "type": "function"
    },
    {
      "constant": true,
      "inputs": [],
      "name": "totalScore",
      "outputs": [
        {
          "name": "",
          "type": "uint256"
        }
      ],
      "payable": false,
      "stateMutability": "view",
      "type": "function"
    },
    {
      "constant": true,
      "inputs": [],
      "name": "lockingsCounter",
      "outputs": [
        {
          "name": "",
          "type": "uint256"
        }
      ],
      "payable": false,
      "stateMutability": "view",
      "type": "function"
    },
    {
      "constant": true,
      "inputs": [],
      "name": "totalLockedLeft",
      "outputs": [
        {
          "name": "",
          "type": "uint256"
        }
      ],
      "payable": false,
      "stateMutability": "view",
      "type": "function"
    },
    {
      "constant": false,
      "inputs": [
        {
          "name": "_beneficiary",
          "type": "address"
        },
        {
          "name": "_lockingId",
          "type": "bytes32"
        }
      ],
      "name": "redeem",
      "outputs": [
        {
          "name": "",
          "type": "bool"
        }
      ],
      "payable": false,
      "stateMutability": "nonpayable",
      "type": "function"
    },
    {
      "constant": true,
      "inputs": [],
      "name": "reputationReward",
      "outputs": [
        {
          "name": "",
          "type": "uint256"
        }
      ],
      "payable": false,
      "stateMutability": "view",
      "type": "function"
    },
    {
      "constant": true,
      "inputs": [],
      "name": "token",
      "outputs": [
        {
          "name": "",
          "type": "address"
        }
      ],
      "payable": false,
      "stateMutability": "view",
      "type": "function"
    },
    {
      "inputs": [
        {
          "name": "_avatar",
          "type": "address"
        },
        {
          "name": "_reputationReward",
          "type": "uint256"
        },
        {
          "name": "_lockingStartTime",
          "type": "uint256"
        },
        {
          "name": "_lockingEndTime",
          "type": "uint256"
        },
        {
          "name": "_maxLockingPeriod",
          "type": "uint256"
        },
        {
          "name": "_token",
          "type": "address"
        }
      ],
      "payable": false,
      "stateMutability": "nonpayable",
      "type": "constructor"
    },
    {
      "anonymous": false,
      "inputs": [
        {
          "indexed": true,
          "name": "_lockingId",
          "type": "bytes32"
        },
        {
          "indexed": true,
          "name": "_beneficiary",
          "type": "address"
        },
        {
          "indexed": false,
          "name": "_amount",
          "type": "uint256"
        }
      ],
      "name": "Redeem",
      "type": "event"
    },
    {
      "anonymous": false,
      "inputs": [
        {
          "indexed": true,
          "name": "_lockingId",
          "type": "bytes32"
        },
        {
          "indexed": true,
          "name": "_beneficiary",
          "type": "address"
        },
        {
          "indexed": false,
          "name": "_amount",
          "type": "uint256"
        }
      ],
      "name": "Release",
      "type": "event"
    },
    {
      "anonymous": false,
      "inputs": [
        {
          "indexed": true,
          "name": "_lockingId",
          "type": "bytes32"
        },
        {
          "indexed": false,
          "name": "_amount",
          "type": "uint256"
        },
        {
          "indexed": false,
          "name": "_period",
          "type": "uint256"
        },
        {
          "indexed": false,
          "name": "_locker",
          "type": "address"
        }
      ],
      "name": "Lock",
      "type": "event"
    },
    {
      "constant": false,
      "inputs": [
        {
          "name": "_beneficiary",
          "type": "address"
        },
        {
          "name": "_lockingId",
          "type": "bytes32"
        }
      ],
      "name": "release",
      "outputs": [
        {
          "name": "",
          "type": "bool"
        }
      ],
      "payable": false,
      "stateMutability": "nonpayable",
      "type": "function"
    },
    {
      "constant": false,
      "inputs": [
        {
          "name": "_amount",
          "type": "uint256"
        },
        {
          "name": "_period",
          "type": "uint256"
        }
      ],
      "name": "lock",
      "outputs": [
        {
          "name": "",
          "type": "bytes32"
        }
      ],
      "payable": false,
      "stateMutability": "nonpayable",
      "type": "function"
    }
  ],
  "bytecode": "0x608060405234801561001057600080fd5b5060405160c080610f9883398101604090815281516020830151918301516060840151608085015160a0909501519294919290919085858585858282116100de57604080517f08c379a000000000000000000000000000000000000000000000000000000000815260206004820152603a60248201527f6c6f636b696e6720656e642074696d652073686f756c6420626520677265617460448201527f6572207468616e206c6f636b696e672073746172742074696d65000000000000606482015290519081900360840190fd5b6007849055600893909355600955600a9190915560008054600160a060020a03938416600160a060020a031991821617909155600b91909155600c80549390921692169190911790555050505050610e5d8061013b6000396000f3006080604052600436106100e55763ffffffff7c01000000000000000000000000000000000000000000000000000000006000350416631338736f81146100ea57806355bfec8814610117578063568914121461012c5780635aef7de61461014157806376dd110f146101725780638380574214610193578063a8c33017146101d0578063afe0e33c146101e5578063bf0df445146101fa578063c006719f1461020f578063c3201add14610224578063c348a24b14610239578063c85c89251461024e578063d7c2eec714610286578063ed1ff6d8146102aa578063fc0c546a146102bf575b600080fd5b3480156100f657600080fd5b506101056004356024356102d4565b60408051918252519081900360200190f35b34801561012357600080fd5b506101056103dc565b34801561013857600080fd5b506101056103e2565b34801561014d57600080fd5b506101566103e8565b60408051600160a060020a039092168252519081900360200190f35b34801561017e57600080fd5b50610105600160a060020a03600435166103f7565b34801561019f57600080fd5b506101b7600160a060020a0360043516602435610409565b6040805192835260208301919091528051918290030190f35b3480156101dc57600080fd5b5061010561042a565b3480156101f157600080fd5b50610105610430565b34801561020657600080fd5b50610105610436565b34801561021b57600080fd5b5061010561043c565b34801561023057600080fd5b50610105610442565b34801561024557600080fd5b50610105610448565b34801561025a57600080fd5b50610272600160a060020a036004351660243561044e565b604080519115158252519081900360200190f35b34801561029257600080fd5b50610272600160a060020a0360043516602435610784565b3480156102b657600080fd5b5061010561088e565b3480156102cb57600080fd5b50610156610894565b600c54604080517f23b872dd000000000000000000000000000000000000000000000000000000008152336004820152306024820152604481018590529051600092600160a060020a0316916323b872dd91606480830192602092919082900301818787803b15801561034657600080fd5b505af115801561035a573d6000803e3d6000fd5b505050506040513d602081101561037057600080fd5b505115156103c8576040805160e560020a62461bcd02815260206004820152601b60248201527f7472616e7366657246726f6d2073686f756c6420737563636573730000000000604482015290519081900360640190fd5b6103d38383336108a3565b90505b92915050565b600b5481565b60035481565b600054600160a060020a031681565b60026020526000908152604090205481565b60016020818152600093845260408085209091529183529120805491015482565b60095481565b60085481565b600a5481565b60055481565b60065481565b60045481565b60008060008060095442101515156104b0576040805160e560020a62461bcd02815260206004820152601a60248201527f636865636b20746865206c6f636b20706572696f642070617373000000000000604482015290519081900360640190fd5b600160a060020a0386166000908152600260205260408120541161051e576040805160e560020a62461bcd02815260206004820152601360248201527f73636f72652073686f756c64206265203e203000000000000000000000000000604482015290519081900360640190fd5b600160a060020a038616600090815260026020526040812080549190556007549093506105699061055190601a0b610c68565b61055d85601a0b610c68565b9063ffffffff610c7616565b915061059161058c61057f600554601a0b610c68565b849063ffffffff610c8316565b610ca0565b601a0b90506105ab81600854610cac90919063ffffffff16565b60085560008054604080517f8da5cb5b0000000000000000000000000000000000000000000000000000000081529051600160a060020a0390921692638da5cb5b926004808401936020939083900390910190829087803b15801561060f57600080fd5b505af1158015610623573d6000803e3d6000fd5b505050506040513d602081101561063957600080fd5b505160008054604080517feaf994b200000000000000000000000000000000000000000000000000000000815260048101869052600160a060020a038b8116602483015292831660448201529051919093169263eaf994b29260648083019360209390929083900390910190829087803b1580156106b657600080fd5b505af11580156106ca573d6000803e3d6000fd5b505050506040513d60208110156106e057600080fd5b50511515610738576040805160e560020a62461bcd02815260206004820152601e60248201527f6d696e742072657075746174696f6e2073686f756c6420737563636573730000604482015290519081900360640190fd5b604080518281529051600160a060020a0388169187917fc1d8140f5bf31e06ddd48b4deb96488598efd767dc846befd4faf27a3fe986df9181900360200190a350600195945050505050565b6000806107918484610cbe565b600c54604080517fa9059cbb000000000000000000000000000000000000000000000000000000008152600160a060020a03888116600483015260248201859052915193945091169163a9059cbb916044808201926020929091908290030181600087803b15801561080257600080fd5b505af1158015610816573d6000803e3d6000fd5b505050506040513d602081101561082c57600080fd5b50511515610884576040805160e560020a62461bcd02815260206004820152601760248201527f7472616e736665722073686f756c642073756363657373000000000000000000604482015290519081900360640190fd5b5060019392505050565b60075481565b600c54600160a060020a031681565b6000808085116108fd576040805160e560020a62461bcd02815260206004820152601c60248201527f6c6f636b696e6720616d6f756e742073686f756c64206265203e203000000000604482015290519081900360640190fd5b600a5484111561097d576040805160e560020a62461bcd02815260206004820152602c60248201527f6c6f636b696e6720706572696f642073686f756c64206265203c3d206d61784c60448201527f6f636b696e67506572696f640000000000000000000000000000000000000000606482015290519081900360840190fd5b600084116109d5576040805160e560020a62461bcd02815260206004820152601c60248201527f6c6f636b696e6720706572696f642073686f756c64206265203e203000000000604482015290519081900360640190fd5b600954421115610a55576040805160e560020a62461bcd02815260206004820152603060248201527f6c6f636b2073686f756c642062652077697468696e2074686520616c6c6f776560448201527f64206c6f636b696e6720706572696f6400000000000000000000000000000000606482015290519081900360840190fd5b600b54421015610ad5576040805160e560020a62461bcd02815260206004820152602860248201527f6c6f636b2073686f756c64207374617274206166746572206c6f636b696e675360448201527f7461727454696d65000000000000000000000000000000000000000000000000606482015290519081900360840190fd5b600654604080516c01000000000000000000000000300260208083019190915260348083019490945282518083039094018452605490910191829052825182918401908083835b60208310610b3b5780518252601f199092019160209182019101610b1c565b51815160209384036101000a60001901801990921691161790526040805192909401829003909120600680546001908101909155600160a060020a038a166000908152818452858120838252909352939091208a8155428a0193810193909355600380548b01908190556004559550909350610be59250610bc0915086905087610dfb565b600160a060020a0385166000908152600260205260409020549063ffffffff610e2416565b600160a060020a0384166000908152600260205260409020819055600554610c129163ffffffff610e2416565b6005556040805186815260208101869052600160a060020a03851681830152905183917f71bb0e30e916e594f9f826bfd52649e8a116c9f7416dfafdb6ea076d174eb244919081900360600190a2509392505050565b601a0b650100000000000290565b6501000000000091020590565b600081650100000000008402811515610c9857fe5b059392505050565b65010000000000900590565b600082821115610cb857fe5b50900390565b600160a060020a0382166000908152600160209081526040808320848452909152812080548210610d39576040805160e560020a62461bcd02815260206004820152601460248201527f616d6f756e742073686f756c64206265203e2030000000000000000000000000604482015290519081900360640190fd5b8054600082556001820154909250421015610d9e576040805160e560020a62461bcd02815260206004820152601a60248201527f636865636b20746865206c6f636b20706572696f642070617373000000000000604482015290519081900360640190fd5b600454610db1908363ffffffff610cac16565b600455604080518381529051600160a060020a0386169185917fcb7ab693259d2332e08e7666832578144deb74443e37a762847e848793fc29819181900360200190a35092915050565b6000821515610e0c575060006103d6565b50818102818382811515610e1c57fe5b04146103d657fe5b818101828110156103d657fe00a165627a7a7230582027e5d8a723924da0feb723025520b9b5f2bb5e014f62780ded473376f03c78a10029",
  "source": "pragma solidity ^0.4.24;\n\nimport \"./Locking4Reputation.sol\";\n\n\n/**\n * @title A scheme for locking ERC20 Tokens for reputation\n */\n\ncontract LockingToken4Reputation is Locking4Reputation {\n\n    StandardToken public token;\n\n    /**\n     * @dev constructor\n     * @param _avatar the avatar to mint reputation from\n     * @param _reputationReward the total reputation this contract will reward\n     *        for the token locking\n     * @param _lockingStartTime locking starting period time.\n     * @param _lockingEndTime the locking end time.\n     *        redeem reputation can be done after this period.\n     *        locking is disable after this time.\n     * @param _maxLockingPeriod maximum locking period allowed.\n     * @param _token the locking token\n     */\n    constructor(Avatar _avatar,\n                 uint _reputationReward,\n                 uint _lockingStartTime,\n                 uint _lockingEndTime,\n                 uint _maxLockingPeriod,\n                 StandardToken _token)\n    Locking4Reputation(_avatar,\n                       _reputationReward,\n                       _lockingStartTime,\n                       _lockingEndTime,\n                       _maxLockingPeriod)\n    public\n    {\n        token = _token;\n    }\n\n    /**\n     * @dev release locked tokens\n     * @param _beneficiary the release _beneficiary\n     * @param _lockingId the locking id\n     * @return bool\n     */\n    function release(address _beneficiary,bytes32 _lockingId) public returns(bool) {\n        uint amount = super._release(_beneficiary,_lockingId);\n        require(token.transfer(_beneficiary,amount),\"transfer should success\");\n        return true;\n    }\n\n    /**\n     * @dev lock function\n     * @param _amount the amount to lock\n     * @param _period the locking period\n     * @return lockingId\n     */\n    function lock(uint _amount, uint _period) public returns(bytes32) {\n        require(token.transferFrom(msg.sender,address(this),_amount),\"transferFrom should success\");\n        return super._lock(_amount,_period,msg.sender);\n    }\n\n}\n",
  "sourcePath": "/home/adam/cryptoDev/Ethereum/daostack/arc/contracts/schemes/LockingToken4Reputation.sol",
  "compiler": {
    "name": "solc",
    "version": "0.4.24+commit.e67f0147.Emscripten.clang"
  },
  "schemaVersion": "2.0.1",
  "updatedAt": "2018-08-20T08:30:24.299Z"
}