{
  "contractName": "Redeemer",
  "abi": [
    {
      "constant": true,
      "inputs": [],
      "name": "contributionReward",
      "outputs": [
        {
          "name": "",
          "type": "address"
        }
      ],
      "payable": false,
      "stateMutability": "view",
      "type": "function"
    },
    {
      "constant": true,
      "inputs": [],
      "name": "genesisProtocol",
      "outputs": [
        {
          "name": "",
          "type": "address"
        }
      ],
      "payable": false,
      "stateMutability": "view",
      "type": "function"
    },
    {
      "inputs": [
        {
          "name": "_contributionReward",
          "type": "address"
        },
        {
          "name": "_genesisProtocol",
          "type": "address"
        }
      ],
      "payable": false,
      "stateMutability": "nonpayable",
      "type": "constructor"
    },
    {
      "constant": false,
      "inputs": [
        {
          "name": "_proposalId",
          "type": "bytes32"
        },
        {
          "name": "_avatar",
          "type": "address"
        },
        {
          "name": "_beneficiary",
          "type": "address"
        }
      ],
      "name": "redeem",
      "outputs": [
        {
          "name": "gpRewards",
          "type": "uint256[5]"
        },
        {
          "name": "gpDaoBountyReward",
          "type": "uint256[2]"
        },
        {
          "name": "executed",
          "type": "bool"
        },
        {
          "name": "winningVote",
          "type": "uint256"
        },
        {
          "name": "crReputationReward",
          "type": "int256"
        },
        {
          "name": "crNativeTokenReward",
          "type": "uint256"
        },
        {
          "name": "crEthReward",
          "type": "uint256"
        },
        {
          "name": "crExternalTokenReward",
          "type": "uint256"
        }
      ],
      "payable": false,
      "stateMutability": "nonpayable",
      "type": "function"
    }
  ],
  "bytecode": "0x608060405234801561001057600080fd5b50604051604080610d4483398101604052805160209091015160008054600160a060020a03938416600160a060020a03199182161790915560018054939092169216919091179055610cdd806100676000396000f30060806040526004361061003d5763ffffffff60e060020a60003504166318db075081146100425780636be85df9146100735780637581d62f1461012f575b600080fd5b34801561004e57600080fd5b50610057610144565b60408051600160a060020a039092168252519081900360200190f35b34801561007f57600080fd5b5061009d600435600160a060020a0360243581169060443516610153565b604051808960a080838360005b838110156100c25781810151838201526020016100aa565b5050505090500188600260200280838360005b838110156100ed5781810151838201526020016100d5565b50505050905001871515151581526020018681526020018581526020018481526020018381526020018281526020019850505050505050505060405180910390f35b34801561013b57600080fd5b5061005761068d565b600054600160a060020a031681565b61015b610c58565b610163610c77565b600154604080517f61d585da000000000000000000000000000000000000000000000000000000008152600481018890529051600092839283928392839283928392600160a060020a0316916361d585da91602480830192602092919082900301818787803b1580156101d557600080fd5b505af11580156101e9573d6000803e3d6000fd5b505050506040513d60208110156101ff57600080fd5b50519050600381600581111561021157fe5b14806102285750600481600581111561022657fe5b145b8061023e5750600581600581111561023c57fe5b145b156102d957600154604080517fe751f271000000000000000000000000000000000000000000000000000000008152600481018f90529051600160a060020a039092169163e751f271916024808201926020929091908290030181600087803b1580156102aa57600080fd5b505af11580156102be573d6000803e3d6000fd5b505050506040513d60208110156102d457600080fd5b505196505b600154604080517f61d585da000000000000000000000000000000000000000000000000000000008152600481018f90529051600160a060020a03909216916361d585da916024808201926020929091908290030181600087803b15801561034057600080fd5b505af1158015610354573d6000803e3d6000fd5b505050506040513d602081101561036a57600080fd5b50519050600281600581111561037c57fe5b14806103935750600181600581111561039157fe5b145b1561067f57600154604080517fcc3bf9e9000000000000000000000000000000000000000000000000000000008152600481018f9052600160a060020a038d811660248301529151919092169163cc3bf9e99160448083019260a09291908290030181600087803b15801561040757600080fd5b505af115801561041b573d6000803e3d6000fd5b505050506040513d601f19601f8201168201806040525060a081101561044057600080fd5b81019080919050509850600160009054906101000a9004600160a060020a0316600160a060020a0316636359036b8d8c6040518363ffffffff1660e060020a02815260040180836000191660001916815260200182600160a060020a0316600160a060020a03168152602001925050506040805180830381600087803b1580156104c957600080fd5b505af11580156104dd573d6000803e3d6000fd5b505050506040513d60408110156104f357600080fd5b508051602090910151896000602002018a60016020020182815250828152505050600160009054906101000a9004600160a060020a0316600160a060020a0316633c1338188d6040518263ffffffff1660e060020a028152600401808260001916600019168152602001915050602060405180830381600087803b15801561057a57600080fd5b505af115801561058e573d6000803e3d6000fd5b505050506040513d60208110156105a457600080fd5b8101908080519060200190929190505050955060008060009054906101000a9004600160a060020a0316600160a060020a0316633a256daa8e8e6040518363ffffffff1660e060020a02815260040180836000191660001916815260200182600160a060020a0316600160a060020a0316815260200192505050602060405180830381600087803b15801561063857600080fd5b505af115801561064c573d6000803e3d6000fd5b505050506040513d602081101561066257600080fd5b5051111561067f576106748c8c61069c565b929750909550935091505b509397509397509397509397565b600154600160a060020a031681565b6000806000806106aa610c92565b600180825260208083019190915260008054604080517fe074ee55000000000000000000000000000000000000000000000000000000008152600481018c9052600160a060020a038b811660248301526002604483015291519394859485948594169263e074ee5592606480830193919282900301818787803b15801561073057600080fd5b505af1158015610744573d6000803e3d6000fd5b505050506040513d602081101561075a57600080fd5b810190808051906020019092919050505093506000809054906101000a9004600160a060020a0316600160a060020a0316636046f71d8c8c6040518363ffffffff1660e060020a02815260040180836000191660001916815260200182600160a060020a0316600160a060020a0316815260200192505050602060405180830381600087803b1580156107ec57600080fd5b505af1158015610800573d6000803e3d6000fd5b505050506040513d602081101561081657600080fd5b810190808051906020019092919050505092506000809054906101000a9004600160a060020a0316600160a060020a0316631c3a57138c8c6040518363ffffffff1660e060020a02815260040180836000191660001916815260200182600160a060020a0316600160a060020a0316815260200192505050602060405180830381600087803b1580156108a857600080fd5b505af11580156108bc573d6000803e3d6000fd5b505050506040513d60208110156108d257600080fd5b810190808051906020019092919050505091506000809054906101000a9004600160a060020a0316600160a060020a031663f70bbb9a8c8c6040518363ffffffff1660e060020a02815260040180836000191660001916815260200182600160a060020a0316600160a060020a0316815260200192505050602060405180830381600087803b15801561096457600080fd5b505af1158015610978573d6000803e3d6000fd5b505050506040513d602081101561098e57600080fd5b505190506109a2848463ffffffff610c2916565b92508215806109ba5750828a600160a060020a031631105b156109cb57600060408601526109d3565b600160408601525b60008054604080517fe074ee55000000000000000000000000000000000000000000000000000000008152600481018f9052600160a060020a038e81166024830152600360448301529151919092169263e074ee5592606480820193602093909283900390910190829087803b158015610a4c57600080fd5b505af1158015610a60573d6000803e3d6000fd5b505050506040513d6020811015610a7657600080fd5b50519350610a8a848363ffffffff610c2916565b9150811580610b1e57508181600160a060020a03166370a082318c6040518263ffffffff1660e060020a0281526004018082600160a060020a0316600160a060020a03168152602001915050602060405180830381600087803b158015610af057600080fd5b505af1158015610b04573d6000803e3d6000fd5b505050506040513d6020811015610b1a57600080fd5b5051105b15610b2f5760006060860152610b37565b600160608601525b600080546040517fd58bf09a000000000000000000000000000000000000000000000000000000008152600481018e8152600160a060020a038e811660248401529092169263d58bf09a928f928f928b92916044019083906080908190849084905b83811015610bb1578181015183820152602001610b99565b505050509050019350505050608060405180830381600087803b158015610bd757600080fd5b505af1158015610beb573d6000803e3d6000fd5b505050506040513d6080811015610c0157600080fd5b50805160208201516040830151606090930151919e909d50919b509950975050505050505050565b6000821515610c3a57506000610c52565b50818102818382811515610c4a57fe5b0414610c5257fe5b92915050565b60a0604051908101604052806005906020820280388339509192915050565b60408051808201825290600290829080388339509192915050565b60806040519081016040528060049060208202803883395091929150505600a165627a7a723058201c133074047eb366c3c23853798660bd1e95fcea03b46de56407fc1f7b9fc0b40029",
  "source": "pragma solidity ^0.4.24;\n\nimport \"../universalSchemes/ContributionReward.sol\";\nimport \"../VotingMachines/GenesisProtocol.sol\";\n\n\ncontract Redeemer {\n    using SafeMath for uint;\n\n    ContributionReward public contributionReward;\n    GenesisProtocol public genesisProtocol;\n\n    constructor(address _contributionReward,address _genesisProtocol) public {\n        contributionReward = ContributionReward(_contributionReward);\n        genesisProtocol = GenesisProtocol(_genesisProtocol);\n    }\n\n   /**\n    * @dev helper to redeem rewards for a proposal\n    * It calls execute on the proposal if it is not yet executed.\n    * It tries to redeem reputation and stake from the GenesisProtocol.\n    * It tries to redeem proposal rewards from the contribution rewards scheme.\n    * This function does not emit events.\n    * A client should listen to GenesisProtocol and ContributionReward redemption events\n    * to monitor redemption operations.\n    * @param _proposalId the ID of the voting in the voting machine\n    * @param _avatar address of the controller\n    * @param _beneficiary beneficiary\n    * @return gpRewards array\n    *          gpRewards[0] - stakerTokenAmount\n    *          gpRewards[1] - stakerReputationAmount\n    *          gpRewards[2] - voterTokenAmount\n    *          gpRewards[3] - voterReputationAmount\n    *          gpRewards[4] - proposerReputationAmount\n    * @return gpDaoBountyReward array\n    *         gpDaoBountyReward[0] - staker dao bounty reward -\n    *                                will be zero for the case there is not enough tokens in avatar for the reward.\n    *         gpDaoBountyReward[1] - staker potential dao bounty reward.\n    * @return executed  bool true or false\n    * @return winningVote\n    *                   1 - executed or closed and the winning vote is YES\n    *                   2 - executed or closed and the winning vote is NO\n    * @return int crReputationReward Reputation - from ContributionReward\n    * @return int crNativeTokenReward NativeTokenReward - from ContributionReward\n    * @return int crEthReward Ether - from ContributionReward\n    * @return int crExternalTokenReward ExternalToken - from ContributionReward\n    */\n    function redeem(bytes32 _proposalId,address _avatar,address _beneficiary)\n    external\n    returns(uint[5] gpRewards,\n            uint[2] gpDaoBountyReward,\n            bool executed,\n            uint winningVote,\n            int crReputationReward,\n            uint crNativeTokenReward,\n            uint crEthReward,\n            uint crExternalTokenReward)\n    {\n        GenesisProtocol.ProposalState pState = genesisProtocol.state(_proposalId);\n        // solium-disable-next-line operator-whitespace\n        if ((pState == GenesisProtocol.ProposalState.PreBoosted)||\n            (pState == GenesisProtocol.ProposalState.Boosted)||\n            (pState == GenesisProtocol.ProposalState.QuietEndingPeriod)) {\n            executed = genesisProtocol.execute(_proposalId);\n        }\n        pState = genesisProtocol.state(_proposalId);\n        if ((pState == GenesisProtocol.ProposalState.Executed) ||\n            (pState == GenesisProtocol.ProposalState.Closed)) {\n            gpRewards = genesisProtocol.redeem(_proposalId,_beneficiary);\n            (gpDaoBountyReward[0],gpDaoBountyReward[1]) = genesisProtocol.redeemDaoBounty(_proposalId,_beneficiary);\n            winningVote = genesisProtocol.winningVote(_proposalId);\n            //redeem from contributionReward only if it executed\n            if (contributionReward.getProposalExecutionTime(_proposalId,_avatar) > 0) {\n                (crReputationReward,crNativeTokenReward,crEthReward,crExternalTokenReward) = contributionRewardRedeem(_proposalId,_avatar);\n            }\n        }\n    }\n\n    function contributionRewardRedeem(bytes32 _proposalId,address _avatar)\n    private\n    returns (int reputation,uint nativeToken,uint eth,uint externalToken)\n    {\n        bool[4] memory whatToRedeem;\n        whatToRedeem[0] = true; //reputation\n        whatToRedeem[1] = true; //nativeToken\n        uint periodsToPay = contributionReward.getPeriodsToPay(_proposalId,_avatar,2);\n        uint ethReward = contributionReward.getProposalEthReward(_proposalId,_avatar);\n        uint externalTokenReward = contributionReward.getProposalExternalTokenReward(_proposalId,_avatar);\n        address externalTokenAddress = contributionReward.getProposalExternalToken(_proposalId,_avatar);\n        ethReward = periodsToPay.mul(ethReward);\n        if ((ethReward == 0) || (_avatar.balance < ethReward)) {\n            whatToRedeem[2] = false;\n        } else {\n            whatToRedeem[2] = true;\n        }\n        periodsToPay = contributionReward.getPeriodsToPay(_proposalId,_avatar,3);\n        externalTokenReward = periodsToPay.mul(externalTokenReward);\n        if ((externalTokenReward == 0) || (StandardToken(externalTokenAddress).balanceOf(_avatar) < externalTokenReward)) {\n            whatToRedeem[3] = false;\n        } else {\n            whatToRedeem[3] = true;\n        }\n        (reputation,nativeToken,eth,externalToken) = contributionReward.redeem(_proposalId,_avatar,whatToRedeem);\n    }\n}\n",
  "sourcePath": "/home/adam/cryptoDev/Ethereum/daostack/arc/contracts/utils/Redeemer.sol",
  "compiler": {
    "name": "solc",
    "version": "0.4.24+commit.e67f0147.Emscripten.clang"
  },
  "schemaVersion": "2.0.1",
  "updatedAt": "2018-08-20T08:30:24.332Z"
}