{
  "contractName": "UniversalSchemeMock",
  "abi": [
    {
      "constant": false,
      "inputs": [
        {
          "name": "_hashedParameters",
          "type": "bytes32"
        }
      ],
      "name": "updateParameters",
      "outputs": [],
      "payable": false,
      "stateMutability": "nonpayable",
      "type": "function"
    },
    {
      "constant": false,
      "inputs": [],
      "name": "renounceOwnership",
      "outputs": [],
      "payable": false,
      "stateMutability": "nonpayable",
      "type": "function"
    },
    {
      "constant": true,
      "inputs": [],
      "name": "owner",
      "outputs": [
        {
          "name": "",
          "type": "address"
        }
      ],
      "payable": false,
      "stateMutability": "view",
      "type": "function"
    },
    {
      "constant": false,
      "inputs": [
        {
          "name": "_newOwner",
          "type": "address"
        }
      ],
      "name": "transferOwnership",
      "outputs": [],
      "payable": false,
      "stateMutability": "nonpayable",
      "type": "function"
    },
    {
      "constant": true,
      "inputs": [],
      "name": "hashedParameters",
      "outputs": [
        {
          "name": "",
          "type": "bytes32"
        }
      ],
      "payable": false,
      "stateMutability": "view",
      "type": "function"
    },
    {
      "inputs": [],
      "payable": false,
      "stateMutability": "nonpayable",
      "type": "constructor"
    },
    {
      "anonymous": false,
      "inputs": [
        {
          "indexed": true,
          "name": "previousOwner",
          "type": "address"
        }
      ],
      "name": "OwnershipRenounced",
      "type": "event"
    },
    {
      "anonymous": false,
      "inputs": [
        {
          "indexed": true,
          "name": "previousOwner",
          "type": "address"
        },
        {
          "indexed": true,
          "name": "newOwner",
          "type": "address"
        }
      ],
      "name": "OwnershipTransferred",
      "type": "event"
    },
    {
      "constant": false,
      "inputs": [
        {
          "name": "_avatar",
          "type": "address"
        },
        {
          "name": "_contract",
          "type": "address"
        },
        {
          "name": "_a",
          "type": "uint256"
        },
        {
          "name": "_b",
          "type": "address"
        },
        {
          "name": "_c",
          "type": "bytes32"
        }
      ],
      "name": "genericCall",
      "outputs": [
        {
          "name": "",
          "type": "bytes32"
        }
      ],
      "payable": false,
      "stateMutability": "nonpayable",
      "type": "function"
    },
    {
      "constant": false,
      "inputs": [
        {
          "name": "_avatar",
          "type": "address"
        },
        {
          "name": "_contract",
          "type": "address"
        },
        {
          "name": "_a",
          "type": "uint256"
        },
        {
          "name": "_b",
          "type": "address"
        },
        {
          "name": "_c",
          "type": "bytes32"
        }
      ],
      "name": "genericCallDirect",
      "outputs": [
        {
          "name": "",
          "type": "bytes32"
        }
      ],
      "payable": false,
      "stateMutability": "nonpayable",
      "type": "function"
    }
  ],
  "bytecode": "0x608060405234801561001057600080fd5b5060008054600160a060020a03191633179055610696806100326000396000f3006080604052600436106100695763ffffffff60e060020a60003504166319d9e9d2811461006e5780632ac2af53146100b4578063715018a6146100ce5780638da5cb5b146100e3578063a962777214610114578063f2fde38b14610148578063f98e87ba14610169575b600080fd5b34801561007a57600080fd5b506100a2600160a060020a03600435811690602435811690604435906064351660843561017e565b60408051918252519081900360200190f35b3480156100c057600080fd5b506100cc6004356103c9565b005b3480156100da57600080fd5b506100cc6103e5565b3480156100ef57600080fd5b506100f8610451565b60408051600160a060020a039092168252519081900360200190f35b34801561012057600080fd5b506100a2600160a060020a036004358116906024358116906044359060643516608435610460565b34801561015457600080fd5b506100cc600160a060020a03600435166105c4565b34801561017557600080fd5b506100a26105e7565b60008086600160a060020a0316638da5cb5b6040518163ffffffff1660e060020a028152600401602060405180830381600087803b1580156101bf57600080fd5b505af11580156101d3573d6000803e3d6000fd5b505050506040513d60208110156101e957600080fd5b8101908080519060200190929190505050905080600160a060020a03166320204fb7878787876040516024018084815260200183600160a060020a0316600160a060020a03168152602001826000191660001916815260200193505050506040516020818303038152906040527ff3e8dcd0000000000000000000000000000000000000000000000000000000007bffffffffffffffffffffffffffffffffffffffffffffffffffffffff19166020820180517bffffffffffffffffffffffffffffffffffffffffffffffffffffffff83818316178352505050508a6040518463ffffffff1660e060020a0281526004018084600160a060020a0316600160a060020a031681526020018060200183600160a060020a0316600160a060020a03168152602001828103825284818151815260200191508051906020019080838360005b8381101561034457818101518382015260200161032c565b50505050905090810190601f1680156103715780820380516001836020036101000a031916815260200191505b50945050505050602060405180830381600087803b15801561039257600080fd5b505af11580156103a6573d6000803e3d6000fd5b505050506040513d60208110156103bc57600080fd5b5051979650505050505050565b600054600160a060020a031633146103e057600080fd5b600155565b600054600160a060020a031633146103fc57600080fd5b60008054604051600160a060020a03909116917ff8df31144d9c2f0f6b59d69b8b98abd5459d07f2742c4df920b25aae33c6482091a26000805473ffffffffffffffffffffffffffffffffffffffff19169055565b600054600160a060020a031681565b604080516024808201869052600160a060020a038581166044808501919091526064808501879052855180860382018152608490950186526020850180517bffffffffffffffffffffffffffffffffffffffffffffffffffffffff167ff3e8dcd00000000000000000000000000000000000000000000000000000000017815286517f4650c3080000000000000000000000000000000000000000000000000000000081528b8516600482019081529581019788528651938101939093528551600097948d1696634650c308968d969195909491939101918083838c5b8381101561055557818101518382015260200161053d565b50505050905090810190601f1680156105825780820380516001836020036101000a031916815260200191505b509350505050600060405180830381600087803b1580156105a257600080fd5b505af11580156105b6573d6000803e3d6000fd5b505050503d6000803e3d6000f35b600054600160a060020a031633146105db57600080fd5b6105e4816105ed565b50565b60015481565b600160a060020a038116151561060257600080fd5b60008054604051600160a060020a03808516939216917f8be0079c531659141344cd1fd0a4f28419497f9722a3daafe3b4186f6b6457e091a36000805473ffffffffffffffffffffffffffffffffffffffff1916600160a060020a03929092169190911790555600a165627a7a7230582043b1850c36a6295c4670c155147c714090d2bf25da53f294c8d83c41f43090230029",
  "source": "pragma solidity ^0.4.24;\n\nimport \"../universalSchemes/UniversalScheme.sol\";\nimport \"../controller/ControllerInterface.sol\";\n\n\ncontract UniversalSchemeMock is UniversalScheme {\n\n    constructor() public {\n    }\n\n    function genericCall(address _avatar,address _contract,uint _a,address _b,bytes32 _c)\n    public returns(bytes32)\n    {\n\n        address controller = Avatar(_avatar).owner();\n        return ControllerInterface(controller).genericCall(_contract,abi.encodeWithSignature(\"test(uint256,address,bytes32)\",_a,_b,_c),_avatar);\n    }\n\n    function genericCallDirect(address _avatar,address _contract,uint _a,address _b,bytes32 _c)\n    public returns(bytes32)\n    {\n        Avatar(_avatar).genericCall(_contract,abi.encodeWithSignature(\"test(uint256,address,bytes32)\",_a,_b,_c));\n        // solium-disable-next-line security/no-inline-assembly\n        assembly {\n        // Copy the returned data.\n        returndatacopy(0, 0, returndatasize)\n        return(0, returndatasize)\n        }\n    }\n}\n",
  "sourcePath": "/home/adam/cryptoDev/Ethereum/daostack/arc/contracts/test/UniversalSchemeMock.sol",
  "compiler": {
    "name": "solc",
    "version": "0.4.24+commit.e67f0147.Emscripten.clang"
  },
  "schemaVersion": "2.0.1",
  "updatedAt": "2018-08-20T08:30:24.301Z"
}