{
  "contractName": "UniversalScheme",
  "abi": [
    {
      "constant": false,
      "inputs": [],
      "name": "renounceOwnership",
      "outputs": [],
      "payable": false,
      "stateMutability": "nonpayable",
      "type": "function"
    },
    {
      "constant": true,
      "inputs": [],
      "name": "owner",
      "outputs": [
        {
          "name": "",
          "type": "address"
        }
      ],
      "payable": false,
      "stateMutability": "view",
      "type": "function"
    },
    {
      "constant": false,
      "inputs": [
        {
          "name": "_newOwner",
          "type": "address"
        }
      ],
      "name": "transferOwnership",
      "outputs": [],
      "payable": false,
      "stateMutability": "nonpayable",
      "type": "function"
    },
    {
      "constant": true,
      "inputs": [],
      "name": "hashedParameters",
      "outputs": [
        {
          "name": "",
          "type": "bytes32"
        }
      ],
      "payable": false,
      "stateMutability": "view",
      "type": "function"
    },
    {
      "anonymous": false,
      "inputs": [
        {
          "indexed": true,
          "name": "previousOwner",
          "type": "address"
        }
      ],
      "name": "OwnershipRenounced",
      "type": "event"
    },
    {
      "anonymous": false,
      "inputs": [
        {
          "indexed": true,
          "name": "previousOwner",
          "type": "address"
        },
        {
          "indexed": true,
          "name": "newOwner",
          "type": "address"
        }
      ],
      "name": "OwnershipTransferred",
      "type": "event"
    },
    {
      "constant": false,
      "inputs": [
        {
          "name": "_hashedParameters",
          "type": "bytes32"
        }
      ],
      "name": "updateParameters",
      "outputs": [],
      "payable": false,
      "stateMutability": "nonpayable",
      "type": "function"
    }
  ],
  "bytecode": "0x608060405260008054600160a060020a03191633179055610282806100256000396000f30060806040526004361061006c5763ffffffff7c01000000000000000000000000000000000000000000000000000000006000350416632ac2af538114610071578063715018a61461008b5780638da5cb5b146100a0578063f2fde38b146100d1578063f98e87ba146100f2575b600080fd5b34801561007d57600080fd5b50610089600435610119565b005b34801561009757600080fd5b50610089610135565b3480156100ac57600080fd5b506100b56101a1565b60408051600160a060020a039092168252519081900360200190f35b3480156100dd57600080fd5b50610089600160a060020a03600435166101b0565b3480156100fe57600080fd5b506101076101d3565b60408051918252519081900360200190f35b600054600160a060020a0316331461013057600080fd5b600155565b600054600160a060020a0316331461014c57600080fd5b60008054604051600160a060020a03909116917ff8df31144d9c2f0f6b59d69b8b98abd5459d07f2742c4df920b25aae33c6482091a26000805473ffffffffffffffffffffffffffffffffffffffff19169055565b600054600160a060020a031681565b600054600160a060020a031633146101c757600080fd5b6101d0816101d9565b50565b60015481565b600160a060020a03811615156101ee57600080fd5b60008054604051600160a060020a03808516939216917f8be0079c531659141344cd1fd0a4f28419497f9722a3daafe3b4186f6b6457e091a36000805473ffffffffffffffffffffffffffffffffffffffff1916600160a060020a03929092169190911790555600a165627a7a723058204afaa889a3be18cde3b70348d0d0b4081fdc5d5137c247d38b8369b591cf188a0029",
  "source": "pragma solidity ^0.4.24;\n\nimport \"./UniversalSchemeInterface.sol\";\nimport \"../controller/ControllerInterface.sol\";\nimport \"../controller/Avatar.sol\";\nimport \"openzeppelin-solidity/contracts/ownership/Ownable.sol\";\nimport \"openzeppelin-solidity/contracts/token/ERC20/StandardToken.sol\";\n\n\ncontract UniversalScheme is Ownable, UniversalSchemeInterface {\n    bytes32 public hashedParameters; // For other parameters.\n\n    function updateParameters(\n        bytes32 _hashedParameters\n    )\n        public\n        onlyOwner\n    {\n        hashedParameters = _hashedParameters;\n    }\n\n    /**\n    *  @dev get the parameters for the current scheme from the controller\n    */\n    function getParametersFromController(Avatar _avatar) internal view returns(bytes32) {\n        return ControllerInterface(_avatar.owner()).getSchemeParameters(this,address(_avatar));\n    }\n}\n",
  "sourcePath": "/home/adam/cryptoDev/Ethereum/daostack/arc/contracts/universalSchemes/UniversalScheme.sol",
  "compiler": {
    "name": "solc",
    "version": "0.4.24+commit.e67f0147.Emscripten.clang"
  },
  "schemaVersion": "2.0.1",
  "updatedAt": "2018-08-20T08:30:24.324Z"
}