{
  "contractName": "VoteInOrganizationScheme",
  "abi": [
    {
      "constant": true,
      "inputs": [
        {
          "name": "",
          "type": "bytes32"
        }
      ],
      "name": "parameters",
      "outputs": [
        {
          "name": "intVote",
          "type": "address"
        },
        {
          "name": "voteParams",
          "type": "bytes32"
        }
      ],
      "payable": false,
      "stateMutability": "view",
      "type": "function"
    },
    {
      "constant": true,
      "inputs": [
        {
          "name": "",
          "type": "address"
        },
        {
          "name": "",
          "type": "bytes32"
        }
      ],
      "name": "organizationsProposals",
      "outputs": [
        {
          "name": "originalIntVote",
          "type": "address"
        },
        {
          "name": "originalProposalId",
          "type": "bytes32"
        },
        {
          "name": "originalNumOfChoices",
          "type": "uint256"
        },
        {
          "name": "exist",
          "type": "bool"
        }
      ],
      "payable": false,
      "stateMutability": "view",
      "type": "function"
    },
    {
      "constant": false,
      "inputs": [
        {
          "name": "_hashedParameters",
          "type": "bytes32"
        }
      ],
      "name": "updateParameters",
      "outputs": [],
      "payable": false,
      "stateMutability": "nonpayable",
      "type": "function"
    },
    {
      "constant": false,
      "inputs": [],
      "name": "renounceOwnership",
      "outputs": [],
      "payable": false,
      "stateMutability": "nonpayable",
      "type": "function"
    },
    {
      "constant": true,
      "inputs": [],
      "name": "owner",
      "outputs": [
        {
          "name": "",
          "type": "address"
        }
      ],
      "payable": false,
      "stateMutability": "view",
      "type": "function"
    },
    {
      "constant": false,
      "inputs": [
        {
          "name": "_newOwner",
          "type": "address"
        }
      ],
      "name": "transferOwnership",
      "outputs": [],
      "payable": false,
      "stateMutability": "nonpayable",
      "type": "function"
    },
    {
      "constant": true,
      "inputs": [],
      "name": "hashedParameters",
      "outputs": [
        {
          "name": "",
          "type": "bytes32"
        }
      ],
      "payable": false,
      "stateMutability": "view",
      "type": "function"
    },
    {
      "anonymous": false,
      "inputs": [
        {
          "indexed": true,
          "name": "_avatar",
          "type": "address"
        },
        {
          "indexed": true,
          "name": "_proposalId",
          "type": "bytes32"
        },
        {
          "indexed": true,
          "name": "_intVoteInterface",
          "type": "address"
        },
        {
          "indexed": false,
          "name": "_originalIntVote",
          "type": "address"
        },
        {
          "indexed": false,
          "name": "_originalProposalId",
          "type": "bytes32"
        },
        {
          "indexed": false,
          "name": "_originalNumOfChoices",
          "type": "uint256"
        }
      ],
      "name": "NewVoteProposal",
      "type": "event"
    },
    {
      "anonymous": false,
      "inputs": [
        {
          "indexed": true,
          "name": "_avatar",
          "type": "address"
        },
        {
          "indexed": true,
          "name": "_proposalId",
          "type": "bytes32"
        },
        {
          "indexed": false,
          "name": "_param",
          "type": "int256"
        }
      ],
      "name": "ProposalExecuted",
      "type": "event"
    },
    {
      "anonymous": false,
      "inputs": [
        {
          "indexed": true,
          "name": "_avatar",
          "type": "address"
        },
        {
          "indexed": true,
          "name": "_proposalId",
          "type": "bytes32"
        }
      ],
      "name": "ProposalDeleted",
      "type": "event"
    },
    {
      "anonymous": false,
      "inputs": [
        {
          "indexed": false,
          "name": "_params",
          "type": "bytes32[]"
        }
      ],
      "name": "VoteOnBehalf",
      "type": "event"
    },
    {
      "anonymous": false,
      "inputs": [
        {
          "indexed": true,
          "name": "previousOwner",
          "type": "address"
        }
      ],
      "name": "OwnershipRenounced",
      "type": "event"
    },
    {
      "anonymous": false,
      "inputs": [
        {
          "indexed": true,
          "name": "previousOwner",
          "type": "address"
        },
        {
          "indexed": true,
          "name": "newOwner",
          "type": "address"
        }
      ],
      "name": "OwnershipTransferred",
      "type": "event"
    },
    {
      "constant": false,
      "inputs": [
        {
          "name": "_voteParams",
          "type": "bytes32"
        },
        {
          "name": "_intVote",
          "type": "address"
        }
      ],
      "name": "setParameters",
      "outputs": [
        {
          "name": "",
          "type": "bytes32"
        }
      ],
      "payable": false,
      "stateMutability": "nonpayable",
      "type": "function"
    },
    {
      "constant": true,
      "inputs": [
        {
          "name": "_voteParams",
          "type": "bytes32"
        },
        {
          "name": "_intVote",
          "type": "address"
        }
      ],
      "name": "getParametersHash",
      "outputs": [
        {
          "name": "",
          "type": "bytes32"
        }
      ],
      "payable": false,
      "stateMutability": "pure",
      "type": "function"
    },
    {
      "constant": false,
      "inputs": [
        {
          "name": "_avatar",
          "type": "address"
        },
        {
          "name": "_originalIntVote",
          "type": "address"
        },
        {
          "name": "_originalProposalId",
          "type": "bytes32"
        }
      ],
      "name": "proposeVote",
      "outputs": [
        {
          "name": "",
          "type": "bytes32"
        }
      ],
      "payable": false,
      "stateMutability": "nonpayable",
      "type": "function"
    },
    {
      "constant": false,
      "inputs": [
        {
          "name": "_proposalId",
          "type": "bytes32"
        },
        {
          "name": "_avatar",
          "type": "address"
        },
        {
          "name": "_param",
          "type": "int256"
        }
      ],
      "name": "execute",
      "outputs": [
        {
          "name": "",
          "type": "bool"
        }
      ],
      "payable": false,
      "stateMutability": "nonpayable",
      "type": "function"
    }
  ],
  "bytecode": "0x608060405260008054600160a060020a03191633179055610dd7806100256000396000f3006080604052600436106100955763ffffffff60e060020a60003504166302506804811461009a57806306e3a978146100d55780632453732a1461012b5780632ac2af5314610161578063310ce4e21461017b57806358b37659146101b657806368e14dac146101e0578063715018a6146102045780638da5cb5b14610219578063f2fde38b1461024a578063f98e87ba1461026b575b600080fd5b3480156100a657600080fd5b506100b2600435610280565b60408051600160a060020a03909316835260208301919091528051918290030190f35b3480156100e157600080fd5b506100f9600160a060020a03600435166024356102a5565b60408051600160a060020a03909516855260208501939093528383019190915215156060830152519081900360800190f35b34801561013757600080fd5b5061014f600435600160a060020a03602435166102e3565b60408051918252519081900360200190f35b34801561016d57600080fd5b50610179600435610381565b005b34801561018757600080fd5b506101a2600435600160a060020a036024351660443561039d565b604080519115158252519081900360200190f35b3480156101c257600080fd5b5061014f600160a060020a036004358116906024351660443561076c565b3480156101ec57600080fd5b5061014f600435600160a060020a0360243516610aee565b34801561021057600080fd5b50610179610b43565b34801561022557600080fd5b5061022e610baf565b60408051600160a060020a039092168252519081900360200190f35b34801561025657600080fd5b50610179600160a060020a0360043516610bbe565b34801561027757600080fd5b5061014f610be1565b60036020526000908152604090208054600190910154600160a060020a039091169082565b600260208181526000938452604080852090915291835291208054600182015492820154600390920154600160a060020a0390911692919060ff1684565b6040805160208082018590526c01000000000000000000000000600160a060020a0385160282840152825160348184030181526054909201928390528151600093918291908401908083835b6020831061034e5780518252601f19909201916020918201910161032f565b5181516020939093036101000a600019018019909116921691909117905260405192018290039091209695505050505050565b600054600160a060020a0316331461039857600080fd5b600155565b60006103a7610d6d565b60008080336003826103b88a610be7565b8152602081019190915260400160002054600160a060020a0316146103dc57600080fd5b600160a060020a0380881660009081526002602081815260408084208d855282529283902083516080810185528154909516855260018101549185019190915290810154918301919091526003015460ff1615156060820181905290945061044357600080fd5b600160a060020a03871660008181526002602081815260408084208d8552909152808320805473ffffffffffffffffffffffffffffffffffffffff19168155600181018490559182018390556003909101805460ff19169055518a92917f6bc0cb9e9967b59a69ace442598e1df4368d38661bd5c0800fbcbc9fe855fbbe91a36001925085156107205785915083604001518213156104e157600091505b86600160a060020a0316638da5cb5b6040518163ffffffff1660e060020a028152600401602060405180830381600087803b15801561051f57600080fd5b505af1158015610533573d6000803e3d6000fd5b505050506040513d602081101561054957600080fd5b8101908080519060200190929190505050905060006001026000191681600160a060020a03166320204fb78660000151876020015186604051602401808360001916600019168152602001828152602001925050506040516020818303038152906040527f9ef1204c000000000000000000000000000000000000000000000000000000007bffffffffffffffffffffffffffffffffffffffffffffffffffffffff19166020820180517bffffffffffffffffffffffffffffffffffffffffffffffffffffffff83818316178352505050508b6040518463ffffffff1660e060020a0281526004018084600160a060020a0316600160a060020a031681526020018060200183600160a060020a0316600160a060020a03168152602001828103825284818151815260200191508051906020019080838360005b8381101561069b578181015183820152602001610683565b50505050905090810190601f1680156106c85780820380516001836020036101000a031916815260200191505b50945050505050602060405180830381600087803b1580156106e957600080fd5b505af11580156106fd573d6000803e3d6000fd5b505050506040513d602081101561071357600080fd5b5051141561072057600092505b6040805187815290518991600160a060020a038a16917fd2632e80f5364f02aded1c64e8a04637b7c8bb9c2db2bedf4b6ac47c013acbc09181900360200190a350909695505050505050565b600080610777610d94565b600080600087600160a060020a031663a003651d886040518263ffffffff1660e060020a028152600401808260001916600019168152602001915050602060405180830381600087803b1580156107cd57600080fd5b505af11580156107e1573d6000803e3d6000fd5b505050506040513d60208110156107f757600080fd5b50519450600360006108088b610be7565b815260208082019290925260409081016000908120825180840184528154600160a060020a03168082526001909201548186015283517f51d997b2000000000000000000000000000000000000000000000000000000008152935190985090965088955086936351d997b293600480820194929392918390030190829087803b15801561089457600080fd5b505af11580156108a8573d6000803e3d6000fd5b505050506040513d60208110156108be57600080fd5b5051156108cc576001820191505b602080850151604080517f0905c9f9000000000000000000000000000000000000000000000000000000008152600481018690526024810192909252600160a060020a038c81166044840152306064840152336084840152905190861692630905c9f99260a480820193918290030181600087803b15801561094d57600080fd5b505af1158015610961573d6000803e3d6000fd5b505050506040513d602081101561097757600080fd5b8101908080519060200190929190505050905060806040519081016040528089600160a060020a031681526020018860001916815260200186815260200160011515815250600260008b600160a060020a0316600160a060020a031681526020019081526020016000206000836000191660001916815260200190815260200160002060008201518160000160006101000a815481600160a060020a030219169083600160a060020a03160217905550602082015181600101906000191690556040820151816002015560608201518160030160006101000a81548160ff0219169083151502179055509050508360000151600160a060020a031681600019168a600160a060020a03167fa04e76655fd38a7c9579a6fde8864276137b505c346dc2a2ae185946772abcd78b8b8a6040518084600160a060020a0316600160a060020a031681526020018360001916600019168152602001828152602001935050505060405180910390a498975050505050505050565b600080610afb84846102e3565b60008181526003602052604090206001810195909555845473ffffffffffffffffffffffffffffffffffffffff1916600160a060020a03949094169390931790935550919050565b600054600160a060020a03163314610b5a57600080fd5b60008054604051600160a060020a03909116917ff8df31144d9c2f0f6b59d69b8b98abd5459d07f2742c4df920b25aae33c6482091a26000805473ffffffffffffffffffffffffffffffffffffffff19169055565b600054600160a060020a031681565b600054600160a060020a03163314610bd557600080fd5b610bde81610cf0565b50565b60015481565b600081600160a060020a0316638da5cb5b6040518163ffffffff1660e060020a028152600401602060405180830381600087803b158015610c2757600080fd5b505af1158015610c3b573d6000803e3d6000fd5b505050506040513d6020811015610c5157600080fd5b5051604080517f1c4d5608000000000000000000000000000000000000000000000000000000008152306004820152600160a060020a03858116602483015291519190921691631c4d56089160448083019260209291908290030181600087803b158015610cbe57600080fd5b505af1158015610cd2573d6000803e3d6000fd5b505050506040513d6020811015610ce857600080fd5b505192915050565b600160a060020a0381161515610d0557600080fd5b60008054604051600160a060020a03808516939216917f8be0079c531659141344cd1fd0a4f28419497f9722a3daafe3b4186f6b6457e091a36000805473ffffffffffffffffffffffffffffffffffffffff1916600160a060020a0392909216919091179055565b60408051608081018252600080825260208201819052918101829052606081019190915290565b6040805180820190915260008082526020820152905600a165627a7a723058203d2a93bd48aefc0e2d94bbff69d9b99daa4e9a8731a086e3311c1a946e3500b90029",
  "source": "pragma solidity ^0.4.24;\n\nimport \"../VotingMachines/IntVoteInterface.sol\";\nimport \"./UniversalScheme.sol\";\n\n\n/**\n * @title VoteInOrganizationScheme.\n * @dev A scheme to allow an organization to vote in a proposal.\n */\ncontract VoteInOrganizationScheme is UniversalScheme, ExecutableInterface {\n    event NewVoteProposal(\n        address indexed _avatar,\n        bytes32 indexed _proposalId,\n        address indexed _intVoteInterface,\n        IntVoteInterface _originalIntVote,\n        bytes32 _originalProposalId,\n        uint _originalNumOfChoices\n    );\n    event ProposalExecuted(address indexed _avatar, bytes32 indexed _proposalId,int _param);\n    event ProposalDeleted(address indexed _avatar, bytes32 indexed _proposalId);\n    event VoteOnBehalf(bytes32[] _params);\n\n    // Details of a voting proposal:\n    struct VoteProposal {\n        IntVoteInterface originalIntVote;\n        bytes32 originalProposalId;\n        uint originalNumOfChoices;\n        bool exist;\n    }\n\n    // A mapping from the organization (Avatar) address to the saved data of the organization:\n    mapping(address=>mapping(bytes32=>VoteProposal)) public organizationsProposals;\n\n\n    struct Parameters {\n        IntVoteInterface intVote;\n        bytes32 voteParams;\n    }\n\n    // A mapping from hashes to parameters (use to store a particular configuration on the controller)\n    mapping(bytes32=>Parameters) public parameters;\n\n    /**\n    * @dev Hash the parameters, save them if necessary, and return the hash value\n    * @param _voteParams -  voting parameters\n    * @param _intVote  - voting machine contract.\n    * @return bytes32 -the parameters hash\n    */\n    function setParameters(\n        bytes32 _voteParams,\n        IntVoteInterface _intVote\n    ) public returns(bytes32)\n    {\n        bytes32 paramsHash = getParametersHash(_voteParams, _intVote);\n        parameters[paramsHash].voteParams = _voteParams;\n        parameters[paramsHash].intVote = _intVote;\n        return paramsHash;\n    }\n\n    /**\n    * @dev Hash the parameters, and return the hash value\n    * @param _voteParams -  voting parameters\n    * @param _intVote  - voting machine contract.\n    * @return bytes32 -the parameters hash\n    */\n    function getParametersHash(\n        bytes32 _voteParams,\n        IntVoteInterface _intVote\n    ) public pure returns(bytes32)\n    {\n        return keccak256(abi.encodePacked(_voteParams, _intVote));\n    }\n\n    /**\n    * @dev propose to vote in other organization\n    *      The function trigger NewVoteProposal event\n    * @param _avatar avatar of the organization\n    * @param _originalIntVote the other organization voting machine\n    * @param _originalProposalId the other organization proposal id\n    * @return an id which represents the proposal\n    */\n    function proposeVote(Avatar _avatar, IntVoteInterface _originalIntVote, bytes32 _originalProposalId)\n    public\n    returns(bytes32)\n    {\n        uint originalNumOfChoices = _originalIntVote.getNumberOfChoices(_originalProposalId);\n        Parameters memory params = parameters[getParametersFromController(_avatar)];\n        IntVoteInterface intVote = params.intVote;\n\n        uint proposalNumberOfChoices = originalNumOfChoices;\n        if (intVote.isAbstainAllow()) {\n            //The voting choices can be in the range of 0 - originalNumOfChoices+1 .\n            //vote 0 - for not to vote in the other organization.\n            //vote originalNumOfChoices+1 to vote 0 in the other organization.\n            proposalNumberOfChoices += 1;\n        }\n        bytes32 proposalId = intVote.propose(proposalNumberOfChoices, params.voteParams, _avatar, ExecutableInterface(this),msg.sender);\n\n        organizationsProposals[_avatar][proposalId] = VoteProposal({\n            originalIntVote: _originalIntVote,\n            originalProposalId: _originalProposalId,\n            originalNumOfChoices: originalNumOfChoices,\n            exist: true\n        });\n        emit NewVoteProposal(\n            _avatar,\n            proposalId,\n            params.intVote,\n            _originalIntVote,\n            _originalProposalId,\n            originalNumOfChoices\n        );\n        return proposalId;\n    }\n\n    /**\n    * @dev execution of proposals, can only be called by the voting machine in which the vote is held.\n    *      This function will trigger ProposalDeleted and ProposalExecuted events\n    * @param _proposalId the ID of the voting in the voting machine\n    * @param _avatar address of the organization's avatar\n    * @param _param a parameter of the voting result 0 to numOfChoices .\n    * @return bool which indicate success.\n    */\n    function execute(bytes32 _proposalId, address _avatar, int _param) public returns(bool) {\n        // Check the caller is indeed the voting machine:\n        require(parameters[getParametersFromController(Avatar(_avatar))].intVote == msg.sender);\n\n        // Save proposal to memory and delete from storage:\n        VoteProposal memory proposal = organizationsProposals[_avatar][_proposalId];\n        require(proposal.exist);\n        delete organizationsProposals[_avatar][_proposalId];\n        emit ProposalDeleted(_avatar, _proposalId);\n        bool retVal = true;\n        // If no decision do nothing:\n        if (_param != 0) {\n        // Define controller and get the params:\n            int param = _param;\n            if (param > int(proposal.originalNumOfChoices)) {\n                param = 0;\n            }\n\n            ControllerInterface controller = ControllerInterface(Avatar(_avatar).owner());\n            if (controller.genericCall(\n                     address(proposal.originalIntVote),\n                     abi.encodeWithSignature(\"vote(bytes32,uint256)\",\n                     proposal.originalProposalId,\n                     uint(param)),\n                     _avatar) == bytes32(0)) {\n                retVal = false;\n            }\n          }\n        emit ProposalExecuted(_avatar, _proposalId,_param);\n        return retVal;\n    }\n}\n",
  "sourcePath": "/home/adam/cryptoDev/Ethereum/daostack/arc/contracts/universalSchemes/VoteInOrganizationScheme.sol",
  "compiler": {
    "name": "solc",
    "version": "0.4.24+commit.e67f0147.Emscripten.clang"
  },
  "schemaVersion": "2.0.1",
  "updatedAt": "2018-08-20T08:30:24.331Z"
}