{
  "contractName": "ExternalTokenLockerMock",
  "abi": [
    {
      "constant": false,
      "inputs": [],
      "name": "renounceOwnership",
      "outputs": [],
      "payable": false,
      "stateMutability": "nonpayable",
      "type": "function"
    },
    {
      "constant": true,
      "inputs": [
        {
          "name": "",
          "type": "address"
        }
      ],
      "name": "lockedTokenBalances",
      "outputs": [
        {
          "name": "",
          "type": "uint256"
        }
      ],
      "payable": false,
      "stateMutability": "view",
      "type": "function"
    },
    {
      "constant": true,
      "inputs": [],
      "name": "owner",
      "outputs": [
        {
          "name": "",
          "type": "address"
        }
      ],
      "payable": false,
      "stateMutability": "view",
      "type": "function"
    },
    {
      "constant": true,
      "inputs": [],
      "name": "isOwner",
      "outputs": [
        {
          "name": "",
          "type": "bool"
        }
      ],
      "payable": false,
      "stateMutability": "view",
      "type": "function"
    },
    {
      "constant": false,
      "inputs": [
        {
          "name": "newOwner",
          "type": "address"
        }
      ],
      "name": "transferOwnership",
      "outputs": [],
      "payable": false,
      "stateMutability": "nonpayable",
      "type": "function"
    },
    {
      "anonymous": false,
      "inputs": [
        {
          "indexed": true,
          "name": "previousOwner",
          "type": "address"
        },
        {
          "indexed": true,
          "name": "newOwner",
          "type": "address"
        }
      ],
      "name": "OwnershipTransferred",
      "type": "event"
    },
    {
      "constant": false,
      "inputs": [
        {
          "name": "_amount",
          "type": "uint256"
        },
        {
          "name": "_beneficiary",
          "type": "address"
        }
      ],
      "name": "lock",
      "outputs": [],
      "payable": false,
      "stateMutability": "nonpayable",
      "type": "function"
    },
    {
      "constant": true,
      "inputs": [
        {
          "name": "_beneficiary",
          "type": "address"
        }
      ],
      "name": "balanceOf",
      "outputs": [
        {
          "name": "",
          "type": "uint256"
        }
      ],
      "payable": false,
      "stateMutability": "view",
      "type": "function"
    }
  ],
  "bytecode": "0x6080604081905260008054600160a060020a0319163317808255600160a060020a0316917f8be0079c531659141344cd1fd0a4f28419497f9722a3daafe3b4186f6b6457e0908290a3610345806100576000396000f3fe608060405234801561001057600080fd5b506004361061009a576000357c0100000000000000000000000000000000000000000000000000000000900480638b525d0c116100785780638b525d0c1461010d5780638da5cb5b146101335780638f32d59b14610157578063f2fde38b146101735761009a565b806366dfbfb41461009f57806370a08231146100cd578063715018a614610105575b600080fd5b6100cb600480360360408110156100b557600080fd5b5080359060200135600160a060020a0316610199565b005b6100f3600480360360208110156100e357600080fd5b5035600160a060020a03166101c6565b60408051918252519081900360200190f35b6100cb6101e1565b6100f36004803603602081101561012357600080fd5b5035600160a060020a031661024b565b61013b61025d565b60408051600160a060020a039092168252519081900360200190f35b61015f61026c565b604080519115158252519081900360200190f35b6100cb6004803603602081101561018957600080fd5b5035600160a060020a031661027d565b6101a161026c565b15156101ac57600080fd5b600160a060020a0316600090815260016020526040902055565b600160a060020a031660009081526001602052604090205490565b6101e961026c565b15156101f457600080fd5b60008054604051600160a060020a03909116907f8be0079c531659141344cd1fd0a4f28419497f9722a3daafe3b4186f6b6457e0908390a36000805473ffffffffffffffffffffffffffffffffffffffff19169055565b60016020526000908152604090205481565b600054600160a060020a031690565b600054600160a060020a0316331490565b61028561026c565b151561029057600080fd5b6102998161029c565b50565b600160a060020a03811615156102b157600080fd5b60008054604051600160a060020a03808516939216917f8be0079c531659141344cd1fd0a4f28419497f9722a3daafe3b4186f6b6457e091a36000805473ffffffffffffffffffffffffffffffffffffffff1916600160a060020a039290921691909117905556fea165627a7a7230582093bf3165790d50beed5200323855ed32cbd9d735b345e3c0726a839c193752400029",
  "source": "pragma solidity ^0.5.4;\n\nimport \"openzeppelin-solidity/contracts/ownership/Ownable.sol\";\n\ncontract ExternalTokenLockerMock is Ownable {\n\n    // user => amount\n    mapping (address => uint256) public lockedTokenBalances;\n\n    function lock(uint256 _amount, address _beneficiary) public onlyOwner {\n        lockedTokenBalances[_beneficiary] = _amount;\n    }\n\n    function balanceOf(address _beneficiary) public view returns(uint256) {\n        return lockedTokenBalances[_beneficiary];\n    }\n}\n",
  "sourcePath": "/Users/oren/daostack/arc/contracts/test/ExternalTokenLockerMock.sol",
  "compiler": {
    "name": "solc",
    "version": "0.5.4+commit.9549d8ff.Emscripten.clang"
  },
  "schemaVersion": "3.0.9",
  "updatedAt": "2019-07-24T14:52:18.816Z",
  "devdoc": {
    "methods": {
      "isOwner()": {
        "return": "true if `msg.sender` is the owner of the contract."
      },
      "owner()": {
        "return": "the address of the owner."
      },
      "renounceOwnership()": {
        "details": "Allows the current owner to relinquish control of the contract."
      },
      "transferOwnership(address)": {
        "details": "Allows the current owner to transfer control of the contract to a newOwner.",
        "params": {
          "newOwner": "The address to transfer ownership to."
        }
      }
    }
  },
  "userdoc": {
    "methods": {
      "renounceOwnership()": {
        "notice": "Renouncing to ownership will leave the contract without an owner. It will not be possible to call the functions with the `onlyOwner` modifier anymore."
      }
    }
  }
}