{
  "contractName": "RepAllocation",
  "abi": [
    {
      "constant": true,
      "inputs": [
        {
          "name": "",
          "type": "address"
        }
      ],
      "name": "reputationAllocations",
      "outputs": [
        {
          "name": "",
          "type": "uint256"
        }
      ],
      "payable": false,
      "stateMutability": "view",
      "type": "function"
    },
    {
      "constant": false,
      "inputs": [],
      "name": "renounceOwnership",
      "outputs": [],
      "payable": false,
      "stateMutability": "nonpayable",
      "type": "function"
    },
    {
      "constant": true,
      "inputs": [],
      "name": "owner",
      "outputs": [
        {
          "name": "",
          "type": "address"
        }
      ],
      "payable": false,
      "stateMutability": "view",
      "type": "function"
    },
    {
      "constant": true,
      "inputs": [],
      "name": "isOwner",
      "outputs": [
        {
          "name": "",
          "type": "bool"
        }
      ],
      "payable": false,
      "stateMutability": "view",
      "type": "function"
    },
    {
      "constant": true,
      "inputs": [],
      "name": "isFreeze",
      "outputs": [
        {
          "name": "",
          "type": "bool"
        }
      ],
      "payable": false,
      "stateMutability": "view",
      "type": "function"
    },
    {
      "constant": false,
      "inputs": [
        {
          "name": "newOwner",
          "type": "address"
        }
      ],
      "name": "transferOwnership",
      "outputs": [],
      "payable": false,
      "stateMutability": "nonpayable",
      "type": "function"
    },
    {
      "anonymous": false,
      "inputs": [
        {
          "indexed": true,
          "name": "_beneficiary",
          "type": "address"
        },
        {
          "indexed": true,
          "name": "_amount",
          "type": "uint256"
        }
      ],
      "name": "BeneficiaryAddressAdded",
      "type": "event"
    },
    {
      "anonymous": false,
      "inputs": [
        {
          "indexed": true,
          "name": "previousOwner",
          "type": "address"
        },
        {
          "indexed": true,
          "name": "newOwner",
          "type": "address"
        }
      ],
      "name": "OwnershipTransferred",
      "type": "event"
    },
    {
      "constant": false,
      "inputs": [
        {
          "name": "_beneficiary",
          "type": "address"
        },
        {
          "name": "_amount",
          "type": "uint256"
        }
      ],
      "name": "addBeneficiary",
      "outputs": [],
      "payable": false,
      "stateMutability": "nonpayable",
      "type": "function"
    },
    {
      "constant": false,
      "inputs": [
        {
          "name": "_beneficiaries",
          "type": "address[]"
        },
        {
          "name": "_amounts",
          "type": "uint256[]"
        }
      ],
      "name": "addBeneficiaries",
      "outputs": [],
      "payable": false,
      "stateMutability": "nonpayable",
      "type": "function"
    },
    {
      "constant": false,
      "inputs": [],
      "name": "freeze",
      "outputs": [],
      "payable": false,
      "stateMutability": "nonpayable",
      "type": "function"
    },
    {
      "constant": true,
      "inputs": [
        {
          "name": "_beneficiary",
          "type": "address"
        }
      ],
      "name": "balanceOf",
      "outputs": [
        {
          "name": "",
          "type": "uint256"
        }
      ],
      "payable": false,
      "stateMutability": "view",
      "type": "function"
    }
  ],
  "bytecode": "0x6080604081905260008054600160a060020a0319163317808255600160a060020a0316917f8be0079c531659141344cd1fd0a4f28419497f9722a3daafe3b4186f6b6457e0908290a361060a806100576000396000f3fe608060405234801561001057600080fd5b50600436106100bb576000357c0100000000000000000000000000000000000000000000000000000000900480638f32d59b116100835780638f32d59b1461015457806396074e7014610170578063a96106551461019c578063c154d6ca146102c3578063f2fde38b146102cb576100bb565b80630b98d181146100c057806362a5af3b146100f857806370a0823114610102578063715018a6146101285780638da5cb5b14610130575b600080fd5b6100e6600480360360208110156100d657600080fd5b5035600160a060020a03166102f1565b60408051918252519081900360200190f35b610100610303565b005b6100e66004803603602081101561011857600080fd5b5035600160a060020a0316610325565b610100610340565b6101386103aa565b60408051600160a060020a039092168252519081900360200190f35b61015c6103b9565b604080519115158252519081900360200190f35b6101006004803603604081101561018657600080fd5b50600160a060020a0381351690602001356103ca565b610100600480360360408110156101b257600080fd5b8101906020810181356401000000008111156101cd57600080fd5b8201836020820111156101df57600080fd5b8035906020019184602083028401116401000000008311171561020157600080fd5b919080806020026020016040519081016040528093929190818152602001838360200280828437600092019190915250929594936020810193503591505064010000000081111561025157600080fd5b82018360208201111561026357600080fd5b8035906020019184602083028401116401000000008311171561028557600080fd5b9190808060200260200160405190810160405280939291908181526020018383602002808284376000920191909152509295506104a0945050505050565b61015c610512565b610100600480360360208110156102e157600080fd5b5035600160a060020a031661051b565b60016020526000908152604090205481565b61030b6103b9565b151561031657600080fd5b6002805460ff19166001179055565b600160a060020a031660009081526001602052604090205490565b6103486103b9565b151561035357600080fd5b60008054604051600160a060020a03909116907f8be0079c531659141344cd1fd0a4f28419497f9722a3daafe3b4186f6b6457e0908390a36000805473ffffffffffffffffffffffffffffffffffffffff19169055565b600054600160a060020a031690565b600054600160a060020a0316331490565b6103d26103b9565b15156103dd57600080fd5b60025460ff1615610439576040517f08c379a00000000000000000000000000000000000000000000000000000000081526004018080602001828103825260278152602001806105b86027913960400191505060405180910390fd5b600160a060020a038216600090815260016020526040902054151561049c57600160a060020a038216600081815260016020526040808220849055518392917fbf94baaff7b294d05de11f4ad7c615c6b8d41f4defab8fa5b962a0437842c58e91a35b5050565b6104a86103b9565b15156104b357600080fd5b80518251146104c157600080fd5b60005b825181101561050d5761050583828151811015156104de57fe5b9060200190602002015183838151811015156104f657fe5b906020019060200201516103ca565b6001016104c4565b505050565b60025460ff1681565b6105236103b9565b151561052e57600080fd5b6105378161053a565b50565b600160a060020a038116151561054f57600080fd5b60008054604051600160a060020a03808516939216917f8be0079c531659141344cd1fd0a4f28419497f9722a3daafe3b4186f6b6457e091a36000805473ffffffffffffffffffffffffffffffffffffffff1916600160a060020a039290921691909117905556fe63616e206164642062656e6566696369617279206f6e6c79206966206e6f742064697361626c65a165627a7a723058208ae9dc64644270a734377797a1799a25f4c9da7d5b12fc9c36fef299a1d67ffc0029",
  "source": "pragma solidity ^0.5.4;\n\nimport \"openzeppelin-solidity/contracts/ownership/Ownable.sol\";\n\n\n/**\n * @title reputation allocation contract\n * This scheme can be used to allocate a pre define amount of reputation to whitelisted\n * beneficiaries.\n * this contract can be used as the rep mapping contract for  RepitationFromToken contract.\n */\ncontract RepAllocation is Ownable {\n\n\n       // beneficiary -> amount\n    mapping(address   =>   uint256) public reputationAllocations;\n    bool public isFreeze;\n\n    event BeneficiaryAddressAdded(address indexed _beneficiary, uint256 indexed _amount);\n\n    /**\n     * @dev addBeneficiary function\n     * @param _beneficiary to be whitelisted\n     */\n    function addBeneficiary(address _beneficiary, uint256 _amount) public onlyOwner {\n        require(!isFreeze, \"can add beneficiary only if not disable\");\n\n        if (reputationAllocations[_beneficiary] == 0) {\n            reputationAllocations[_beneficiary] = _amount;\n            emit BeneficiaryAddressAdded(_beneficiary, _amount);\n        }\n    }\n\n    /**\n     * @dev add addBeneficiaries function\n     * @param _beneficiaries addresses\n     */\n    function addBeneficiaries(address[] memory _beneficiaries, uint256[] memory _amounts) public onlyOwner {\n        require(_beneficiaries.length == _amounts.length);\n        for (uint256 i = 0; i < _beneficiaries.length; i++) {\n            addBeneficiary(_beneficiaries[i], _amounts[i]);\n        }\n    }\n\n    /**\n     * @dev freeze function\n     * cannot defreeze\n     */\n    function freeze() public onlyOwner {\n        isFreeze = true;\n    }\n\n    /**\n     * @dev get balanceOf _beneficiary function\n     * @param _beneficiary addresses\n     */\n    function balanceOf(address _beneficiary) public view returns(uint256) {\n        return reputationAllocations[_beneficiary];\n    }\n\n}\n",
  "sourcePath": "/Users/oren/daostack/arc/contracts/utils/RepAllocation.sol",
  "compiler": {
    "name": "solc",
    "version": "0.5.4+commit.9549d8ff.Emscripten.clang"
  },
  "schemaVersion": "3.0.9",
  "updatedAt": "2019-07-24T14:52:18.893Z",
  "devdoc": {
    "methods": {
      "addBeneficiaries(address[],uint256[])": {
        "details": "add addBeneficiaries function",
        "params": {
          "_beneficiaries": "addresses"
        }
      },
      "addBeneficiary(address,uint256)": {
        "details": "addBeneficiary function",
        "params": {
          "_beneficiary": "to be whitelisted"
        }
      },
      "balanceOf(address)": {
        "details": "get balanceOf _beneficiary function",
        "params": {
          "_beneficiary": "addresses"
        }
      },
      "freeze()": {
        "details": "freeze function cannot defreeze"
      },
      "isOwner()": {
        "return": "true if `msg.sender` is the owner of the contract."
      },
      "owner()": {
        "return": "the address of the owner."
      },
      "renounceOwnership()": {
        "details": "Allows the current owner to relinquish control of the contract."
      },
      "transferOwnership(address)": {
        "details": "Allows the current owner to transfer control of the contract to a newOwner.",
        "params": {
          "newOwner": "The address to transfer ownership to."
        }
      }
    },
    "title": "reputation allocation contract This scheme can be used to allocate a pre define amount of reputation to whitelisted beneficiaries. this contract can be used as the rep mapping contract for  RepitationFromToken contract."
  },
  "userdoc": {
    "methods": {
      "renounceOwnership()": {
        "notice": "Renouncing to ownership will leave the contract without an owner. It will not be possible to call the functions with the `onlyOwner` modifier anymore."
      }
    }
  }
}