{
  "contractName": "Reputation",
  "abi": [
    {
      "constant": true,
      "inputs": [],
      "name": "decimals",
      "outputs": [
        {
          "name": "",
          "type": "uint8"
        }
      ],
      "payable": false,
      "stateMutability": "view",
      "type": "function"
    },
    {
      "constant": false,
      "inputs": [],
      "name": "renounceOwnership",
      "outputs": [],
      "payable": false,
      "stateMutability": "nonpayable",
      "type": "function"
    },
    {
      "constant": true,
      "inputs": [],
      "name": "owner",
      "outputs": [
        {
          "name": "",
          "type": "address"
        }
      ],
      "payable": false,
      "stateMutability": "view",
      "type": "function"
    },
    {
      "constant": true,
      "inputs": [],
      "name": "isOwner",
      "outputs": [
        {
          "name": "",
          "type": "bool"
        }
      ],
      "payable": false,
      "stateMutability": "view",
      "type": "function"
    },
    {
      "constant": false,
      "inputs": [
        {
          "name": "newOwner",
          "type": "address"
        }
      ],
      "name": "transferOwnership",
      "outputs": [],
      "payable": false,
      "stateMutability": "nonpayable",
      "type": "function"
    },
    {
      "inputs": [],
      "payable": false,
      "stateMutability": "nonpayable",
      "type": "constructor"
    },
    {
      "anonymous": false,
      "inputs": [
        {
          "indexed": true,
          "name": "_to",
          "type": "address"
        },
        {
          "indexed": false,
          "name": "_amount",
          "type": "uint256"
        }
      ],
      "name": "Mint",
      "type": "event"
    },
    {
      "anonymous": false,
      "inputs": [
        {
          "indexed": true,
          "name": "_from",
          "type": "address"
        },
        {
          "indexed": false,
          "name": "_amount",
          "type": "uint256"
        }
      ],
      "name": "Burn",
      "type": "event"
    },
    {
      "anonymous": false,
      "inputs": [
        {
          "indexed": true,
          "name": "previousOwner",
          "type": "address"
        },
        {
          "indexed": true,
          "name": "newOwner",
          "type": "address"
        }
      ],
      "name": "OwnershipTransferred",
      "type": "event"
    },
    {
      "constant": true,
      "inputs": [],
      "name": "totalSupply",
      "outputs": [
        {
          "name": "",
          "type": "uint256"
        }
      ],
      "payable": false,
      "stateMutability": "view",
      "type": "function"
    },
    {
      "constant": true,
      "inputs": [
        {
          "name": "_owner",
          "type": "address"
        }
      ],
      "name": "balanceOf",
      "outputs": [
        {
          "name": "balance",
          "type": "uint256"
        }
      ],
      "payable": false,
      "stateMutability": "view",
      "type": "function"
    },
    {
      "constant": true,
      "inputs": [
        {
          "name": "_owner",
          "type": "address"
        },
        {
          "name": "_blockNumber",
          "type": "uint256"
        }
      ],
      "name": "balanceOfAt",
      "outputs": [
        {
          "name": "",
          "type": "uint256"
        }
      ],
      "payable": false,
      "stateMutability": "view",
      "type": "function"
    },
    {
      "constant": true,
      "inputs": [
        {
          "name": "_blockNumber",
          "type": "uint256"
        }
      ],
      "name": "totalSupplyAt",
      "outputs": [
        {
          "name": "",
          "type": "uint256"
        }
      ],
      "payable": false,
      "stateMutability": "view",
      "type": "function"
    },
    {
      "constant": false,
      "inputs": [
        {
          "name": "_user",
          "type": "address"
        },
        {
          "name": "_amount",
          "type": "uint256"
        }
      ],
      "name": "mint",
      "outputs": [
        {
          "name": "",
          "type": "bool"
        }
      ],
      "payable": false,
      "stateMutability": "nonpayable",
      "type": "function"
    },
    {
      "constant": false,
      "inputs": [
        {
          "name": "_user",
          "type": "address"
        },
        {
          "name": "_amount",
          "type": "uint256"
        }
      ],
      "name": "burn",
      "outputs": [
        {
          "name": "",
          "type": "bool"
        }
      ],
      "payable": false,
      "stateMutability": "nonpayable",
      "type": "function"
    }
  ],
  "bytecode": "0x60806040526000805460a060020a60ff0219167412000000000000000000000000000000000000000017905534801561003757600080fd5b5060008054600160a060020a0319163317808255604051600160a060020a039190911691907f8be0079c531659141344cd1fd0a4f28419497f9722a3daafe3b4186f6b6457e0908290a36108d7806100906000396000f3fe608060405234801561001057600080fd5b50600436106100c6576000357c010000000000000000000000000000000000000000000000000000000090048063715018a61161008e578063715018a6146101955780638da5cb5b1461019f5780638f32d59b146101c3578063981b24d0146101cb5780639dc29fac146101e8578063f2fde38b14610214576100c6565b806318160ddd146100cb578063313ce567146100e557806340c10f19146101035780634ee2cd7e1461014357806370a082311461016f575b600080fd5b6100d361023a565b60408051918252519081900360200190f35b6100ed61024b565b6040805160ff9092168252519081900360200190f35b61012f6004803603604081101561011957600080fd5b50600160a060020a03813516906020013561026c565b604080519115158252519081900360200190f35b6100d36004803603604081101561015957600080fd5b50600160a060020a038135169060200135610335565b6100d36004803603602081101561018557600080fd5b5035600160a060020a03166103c7565b61019d6103db565b005b6101a7610445565b60408051600160a060020a039092168252519081900360200190f35b61012f610454565b6100d3600480360360208110156101e157600080fd5b5035610465565b61012f600480360360408110156101fe57600080fd5b50600160a060020a0381351690602001356104b9565b61019d6004803603602081101561022a57600080fd5b5035600160a060020a0316610570565b600061024543610465565b90505b90565b60005474010000000000000000000000000000000000000000900460ff1681565b6000610276610454565b151561028157600080fd5b600061028b61023a565b905082810181111561029c57600080fd5b60006102a7856103c7565b90508381018111156102b857600080fd5b6102c5600285840161058f565b600160a060020a03851660009081526001602052604090206102e99082860161058f565b604080518581529051600160a060020a038716917f0f6798a560793a54c3bcfe86a93cde1e73087d944c0ea20544137d4121396885919081900360200190a26001925050505b92915050565b600160a060020a03821660009081526001602052604081205415806103915750600160a060020a03831660009081526001602052604081208054849290811061037a57fe5b6000918252602090912001546001608060020a0316115b1561039e5750600061032f565b600160a060020a03831660009081526001602052604090206103c09083610697565b905061032f565b60006103d38243610335565b90505b919050565b6103e3610454565b15156103ee57600080fd5b60008054604051600160a060020a03909116907f8be0079c531659141344cd1fd0a4f28419497f9722a3daafe3b4186f6b6457e0908390a36000805473ffffffffffffffffffffffffffffffffffffffff19169055565b600054600160a060020a031690565b600054600160a060020a0316331490565b600254600090158061049a5750816002600081548110151561048357fe5b6000918252602090912001546001608060020a0316115b156104a7575060006103d6565b6104b2600283610697565b90506103d6565b60006104c3610454565b15156104ce57600080fd5b60006104d861023a565b90508260006104e6866103c7565b9050818110156104f4578091505b610501600283850361058f565b600160a060020a03861660009081526001602052604090206105259083830361058f565b604080518381529051600160a060020a038816917fcc16f5dbb4873280815c1ee09dbd06736cffcc184412cf7a71a0fdb75d397ca5919081900360200190a250600195945050505050565b610578610454565b151561058357600080fd5b61058c816107e7565b50565b6001608060020a03811681146105a457600080fd5b815415806105d8575081544390839060001981019081106105c157fe5b6000918252602090912001546001608060020a0316105b1561064c57815460009083906105f18260018301610864565b815481106105fb57fe5b600091825260209091200180546001608060020a03848116700100000000000000000000000000000000024382166fffffffffffffffffffffffffffffffff19909316929092171617905550610693565b81546000908390600019810190811061066157fe5b600091825260209091200180546001608060020a03808516700100000000000000000000000000000000029116179055505b5050565b815460009015156106aa5750600061032f565b8254839060001981019081106106bc57fe5b6000918252602090912001546001608060020a03168210610719578254839060001981019081106106e957fe5b60009182526020909120015470010000000000000000000000000000000090046001608060020a0316905061032f565b82600081548110151561072857fe5b6000918252602090912001546001608060020a031682101561074c5750600061032f565b8254600090600019015b818111156107a757845460028383016001010490859087908390811061077857fe5b6000918252602090912001546001608060020a03161161079a578092506107a1565b6001810391505b50610756565b84828154811015156107b557fe5b60009182526020909120015470010000000000000000000000000000000090046001608060020a031695945050505050565b600160a060020a03811615156107fc57600080fd5b60008054604051600160a060020a03808516939216917f8be0079c531659141344cd1fd0a4f28419497f9722a3daafe3b4186f6b6457e091a36000805473ffffffffffffffffffffffffffffffffffffffff1916600160a060020a0392909216919091179055565b8154818355818111156108885760008381526020902061088891810190830161088d565b505050565b61024891905b808211156108a75760008155600101610893565b509056fea165627a7a723058203bca0af92dfcfede9bd26af6f6a767b02b188e0c1c60a9df19141bf497b87ecc0029",
  "source": "pragma solidity ^0.5.4;\n\nimport \"openzeppelin-solidity/contracts/ownership/Ownable.sol\";\n\n\n/**\n * @title Reputation system\n * @dev A DAO has Reputation System which allows peers to rate other peers in order to build trust .\n * A reputation is use to assign influence measure to a DAO'S peers.\n * Reputation is similar to regular tokens but with one crucial difference: It is non-transferable.\n * The Reputation contract maintain a map of address to reputation value.\n * It provides an onlyOwner functions to mint and burn reputation _to (or _from) a specific address.\n */\n\ncontract Reputation is Ownable {\n\n    uint8 public decimals = 18;             //Number of decimals of the smallest unit\n    // Event indicating minting of reputation to an address.\n    event Mint(address indexed _to, uint256 _amount);\n    // Event indicating burning of reputation for an address.\n    event Burn(address indexed _from, uint256 _amount);\n\n      /// @dev `Checkpoint` is the structure that attaches a block number to a\n      ///  given value, the block number attached is the one that last changed the\n      ///  value\n    struct Checkpoint {\n\n    // `fromBlock` is the block number that the value was generated from\n        uint128 fromBlock;\n\n          // `value` is the amount of reputation at a specific block number\n        uint128 value;\n    }\n\n      // `balances` is the map that tracks the balance of each address, in this\n      //  contract when the balance changes the block number that the change\n      //  occurred is also included in the map\n    mapping (address => Checkpoint[]) balances;\n\n      // Tracks the history of the `totalSupply` of the reputation\n    Checkpoint[] totalSupplyHistory;\n\n    /// @notice Constructor to create a Reputation\n    constructor(\n    ) public\n    {\n    }\n\n    /// @dev This function makes it easy to get the total number of reputation\n    /// @return The total number of reputation\n    function totalSupply() public view returns (uint256) {\n        return totalSupplyAt(block.number);\n    }\n\n  ////////////////\n  // Query balance and totalSupply in History\n  ////////////////\n    /**\n    * @dev return the reputation amount of a given owner\n    * @param _owner an address of the owner which we want to get his reputation\n    */\n    function balanceOf(address _owner) public view returns (uint256 balance) {\n        return balanceOfAt(_owner, block.number);\n    }\n\n      /// @dev Queries the balance of `_owner` at a specific `_blockNumber`\n      /// @param _owner The address from which the balance will be retrieved\n      /// @param _blockNumber The block number when the balance is queried\n      /// @return The balance at `_blockNumber`\n    function balanceOfAt(address _owner, uint256 _blockNumber)\n    public view returns (uint256)\n    {\n        if ((balances[_owner].length == 0) || (balances[_owner][0].fromBlock > _blockNumber)) {\n            return 0;\n          // This will return the expected balance during normal situations\n        } else {\n            return getValueAt(balances[_owner], _blockNumber);\n        }\n    }\n\n      /// @notice Total amount of reputation at a specific `_blockNumber`.\n      /// @param _blockNumber The block number when the totalSupply is queried\n      /// @return The total amount of reputation at `_blockNumber`\n    function totalSupplyAt(uint256 _blockNumber) public view returns(uint256) {\n        if ((totalSupplyHistory.length == 0) || (totalSupplyHistory[0].fromBlock > _blockNumber)) {\n            return 0;\n          // This will return the expected totalSupply during normal situations\n        } else {\n            return getValueAt(totalSupplyHistory, _blockNumber);\n        }\n    }\n\n      /// @notice Generates `_amount` reputation that are assigned to `_owner`\n      /// @param _user The address that will be assigned the new reputation\n      /// @param _amount The quantity of reputation generated\n      /// @return True if the reputation are generated correctly\n    function mint(address _user, uint256 _amount) public onlyOwner returns (bool) {\n        uint256 curTotalSupply = totalSupply();\n        require(curTotalSupply + _amount >= curTotalSupply); // Check for overflow\n        uint256 previousBalanceTo = balanceOf(_user);\n        require(previousBalanceTo + _amount >= previousBalanceTo); // Check for overflow\n        updateValueAtNow(totalSupplyHistory, curTotalSupply + _amount);\n        updateValueAtNow(balances[_user], previousBalanceTo + _amount);\n        emit Mint(_user, _amount);\n        return true;\n    }\n\n      /// @notice Burns `_amount` reputation from `_owner`\n      /// @param _user The address that will lose the reputation\n      /// @param _amount The quantity of reputation to burn\n      /// @return True if the reputation are burned correctly\n    function burn(address _user, uint256 _amount) public onlyOwner returns (bool) {\n        uint256 curTotalSupply = totalSupply();\n        uint256 amountBurned = _amount;\n        uint256 previousBalanceFrom = balanceOf(_user);\n        if (previousBalanceFrom < amountBurned) {\n            amountBurned = previousBalanceFrom;\n        }\n        updateValueAtNow(totalSupplyHistory, curTotalSupply - amountBurned);\n        updateValueAtNow(balances[_user], previousBalanceFrom - amountBurned);\n        emit Burn(_user, amountBurned);\n        return true;\n    }\n\n  ////////////////\n  // Internal helper functions to query and set a value in a snapshot array\n  ////////////////\n\n      /// @dev `getValueAt` retrieves the number of reputation at a given block number\n      /// @param checkpoints The history of values being queried\n      /// @param _block The block number to retrieve the value at\n      /// @return The number of reputation being queried\n    function getValueAt(Checkpoint[] storage checkpoints, uint256 _block) internal view returns (uint256) {\n        if (checkpoints.length == 0) {\n            return 0;\n        }\n\n          // Shortcut for the actual value\n        if (_block >= checkpoints[checkpoints.length-1].fromBlock) {\n            return checkpoints[checkpoints.length-1].value;\n        }\n        if (_block < checkpoints[0].fromBlock) {\n            return 0;\n        }\n\n          // Binary search of the value in the array\n        uint256 min = 0;\n        uint256 max = checkpoints.length-1;\n        while (max > min) {\n            uint256 mid = (max + min + 1) / 2;\n            if (checkpoints[mid].fromBlock<=_block) {\n                min = mid;\n            } else {\n                max = mid-1;\n            }\n        }\n        return checkpoints[min].value;\n    }\n\n      /// @dev `updateValueAtNow` used to update the `balances` map and the\n      ///  `totalSupplyHistory`\n      /// @param checkpoints The history of data being updated\n      /// @param _value The new number of reputation\n    function updateValueAtNow(Checkpoint[] storage checkpoints, uint256 _value) internal {\n        require(uint128(_value) == _value); //check value is in the 128 bits bounderies\n        if ((checkpoints.length == 0) || (checkpoints[checkpoints.length - 1].fromBlock < block.number)) {\n            Checkpoint storage newCheckPoint = checkpoints[checkpoints.length++];\n            newCheckPoint.fromBlock = uint128(block.number);\n            newCheckPoint.value = uint128(_value);\n        } else {\n            Checkpoint storage oldCheckPoint = checkpoints[checkpoints.length-1];\n            oldCheckPoint.value = uint128(_value);\n        }\n    }\n}\n",
  "sourcePath": "@daostack/infra/contracts/Reputation.sol",
  "compiler": {
    "name": "solc",
    "version": "0.5.4+commit.9549d8ff.Emscripten.clang"
  },
  "schemaVersion": "3.0.9",
  "updatedAt": "2019-07-24T14:52:18.898Z",
  "devdoc": {
    "details": "A DAO has Reputation System which allows peers to rate other peers in order to build trust . A reputation is use to assign influence measure to a DAO'S peers. Reputation is similar to regular tokens but with one crucial difference: It is non-transferable. The Reputation contract maintain a map of address to reputation value. It provides an onlyOwner functions to mint and burn reputation _to (or _from) a specific address.",
    "methods": {
      "balanceOf(address)": {
        "details": "return the reputation amount of a given owner",
        "params": {
          "_owner": "an address of the owner which we want to get his reputation"
        }
      },
      "balanceOfAt(address,uint256)": {
        "details": "Queries the balance of `_owner` at a specific `_blockNumber`",
        "params": {
          "_blockNumber": "The block number when the balance is queried",
          "_owner": "The address from which the balance will be retrieved"
        },
        "return": "The balance at `_blockNumber`"
      },
      "burn(address,uint256)": {
        "params": {
          "_amount": "The quantity of reputation to burn",
          "_user": "The address that will lose the reputation"
        },
        "return": "True if the reputation are burned correctly"
      },
      "isOwner()": {
        "return": "true if `msg.sender` is the owner of the contract."
      },
      "mint(address,uint256)": {
        "params": {
          "_amount": "The quantity of reputation generated",
          "_user": "The address that will be assigned the new reputation"
        },
        "return": "True if the reputation are generated correctly"
      },
      "owner()": {
        "return": "the address of the owner."
      },
      "renounceOwnership()": {
        "details": "Allows the current owner to relinquish control of the contract."
      },
      "totalSupply()": {
        "details": "This function makes it easy to get the total number of reputation",
        "return": "The total number of reputation"
      },
      "totalSupplyAt(uint256)": {
        "params": {
          "_blockNumber": "The block number when the totalSupply is queried"
        },
        "return": "The total amount of reputation at `_blockNumber`"
      },
      "transferOwnership(address)": {
        "details": "Allows the current owner to transfer control of the contract to a newOwner.",
        "params": {
          "newOwner": "The address to transfer ownership to."
        }
      }
    },
    "title": "Reputation system"
  },
  "userdoc": {
    "methods": {
      "burn(address,uint256)": {
        "notice": "Burns `_amount` reputation from `_owner`"
      },
      "constructor": "Constructor to create a Reputation",
      "mint(address,uint256)": {
        "notice": "Generates `_amount` reputation that are assigned to `_owner`"
      },
      "renounceOwnership()": {
        "notice": "Renouncing to ownership will leave the contract without an owner. It will not be possible to call the functions with the `onlyOwner` modifier anymore."
      },
      "totalSupplyAt(uint256)": {
        "notice": "Total amount of reputation at a specific `_blockNumber`."
      }
    }
  }
}