{
  "contractName": "SignalScheme",
  "abi": [
    {
      "constant": true,
      "inputs": [
        {
          "name": "",
          "type": "bytes32"
        }
      ],
      "name": "proposals",
      "outputs": [
        {
          "name": "descriptionHash",
          "type": "string"
        },
        {
          "name": "executed",
          "type": "bool"
        }
      ],
      "payable": false,
      "stateMutability": "view",
      "type": "function"
    },
    {
      "constant": true,
      "inputs": [
        {
          "name": "",
          "type": "address"
        },
        {
          "name": "",
          "type": "bytes32"
        }
      ],
      "name": "proposalsInfo",
      "outputs": [
        {
          "name": "blockNumber",
          "type": "uint256"
        },
        {
          "name": "avatar",
          "type": "address"
        }
      ],
      "payable": false,
      "stateMutability": "view",
      "type": "function"
    },
    {
      "constant": true,
      "inputs": [
        {
          "name": "_stakingToken",
          "type": "address"
        },
        {
          "name": "_proposalId",
          "type": "bytes32"
        }
      ],
      "name": "balanceOfStakingToken",
      "outputs": [
        {
          "name": "",
          "type": "uint256"
        }
      ],
      "payable": false,
      "stateMutability": "view",
      "type": "function"
    },
    {
      "constant": true,
      "inputs": [
        {
          "name": "_owner",
          "type": "address"
        },
        {
          "name": "_proposalId",
          "type": "bytes32"
        }
      ],
      "name": "reputationOf",
      "outputs": [
        {
          "name": "",
          "type": "uint256"
        }
      ],
      "payable": false,
      "stateMutability": "view",
      "type": "function"
    },
    {
      "constant": true,
      "inputs": [
        {
          "name": "_proposalId",
          "type": "bytes32"
        }
      ],
      "name": "getTotalReputationSupply",
      "outputs": [
        {
          "name": "",
          "type": "uint256"
        }
      ],
      "payable": false,
      "stateMutability": "view",
      "type": "function"
    },
    {
      "constant": false,
      "inputs": [
        {
          "name": "_stakingToken",
          "type": "address"
        },
        {
          "name": "_beneficiary",
          "type": "address"
        },
        {
          "name": "_amount",
          "type": "uint256"
        },
        {
          "name": "_proposalId",
          "type": "bytes32"
        }
      ],
      "name": "stakingTokenTransfer",
      "outputs": [
        {
          "name": "",
          "type": "bool"
        }
      ],
      "payable": false,
      "stateMutability": "nonpayable",
      "type": "function"
    },
    {
      "constant": true,
      "inputs": [],
      "name": "params",
      "outputs": [
        {
          "name": "voteApproveParams",
          "type": "bytes32"
        },
        {
          "name": "intVote",
          "type": "address"
        },
        {
          "name": "signalType",
          "type": "uint256"
        },
        {
          "name": "avatar",
          "type": "address"
        }
      ],
      "payable": false,
      "stateMutability": "view",
      "type": "function"
    },
    {
      "constant": false,
      "inputs": [
        {
          "name": "_amount",
          "type": "uint256"
        },
        {
          "name": "_beneficiary",
          "type": "address"
        },
        {
          "name": "_proposalId",
          "type": "bytes32"
        }
      ],
      "name": "mintReputation",
      "outputs": [
        {
          "name": "",
          "type": "bool"
        }
      ],
      "payable": false,
      "stateMutability": "nonpayable",
      "type": "function"
    },
    {
      "constant": false,
      "inputs": [
        {
          "name": "_amount",
          "type": "uint256"
        },
        {
          "name": "_beneficiary",
          "type": "address"
        },
        {
          "name": "_proposalId",
          "type": "bytes32"
        }
      ],
      "name": "burnReputation",
      "outputs": [
        {
          "name": "",
          "type": "bool"
        }
      ],
      "payable": false,
      "stateMutability": "nonpayable",
      "type": "function"
    },
    {
      "anonymous": false,
      "inputs": [
        {
          "indexed": true,
          "name": "_avatar",
          "type": "address"
        },
        {
          "indexed": true,
          "name": "_proposalId",
          "type": "bytes32"
        },
        {
          "indexed": true,
          "name": "_signalType",
          "type": "uint256"
        },
        {
          "indexed": false,
          "name": "_descriptionHash",
          "type": "string"
        }
      ],
      "name": "NewSignalProposal",
      "type": "event"
    },
    {
      "anonymous": false,
      "inputs": [
        {
          "indexed": true,
          "name": "_avatar",
          "type": "address"
        },
        {
          "indexed": true,
          "name": "_proposalId",
          "type": "bytes32"
        },
        {
          "indexed": true,
          "name": "_signalType",
          "type": "uint256"
        },
        {
          "indexed": false,
          "name": "_descriptionHash",
          "type": "string"
        }
      ],
      "name": "Signal",
      "type": "event"
    },
    {
      "constant": false,
      "inputs": [
        {
          "name": "_avatar",
          "type": "address"
        },
        {
          "name": "_signalType",
          "type": "uint256"
        },
        {
          "name": "_voteApproveParams",
          "type": "bytes32"
        },
        {
          "name": "_intVote",
          "type": "address"
        }
      ],
      "name": "initialize",
      "outputs": [],
      "payable": false,
      "stateMutability": "nonpayable",
      "type": "function"
    },
    {
      "constant": false,
      "inputs": [
        {
          "name": "_descriptionHash",
          "type": "string"
        }
      ],
      "name": "proposeSignal",
      "outputs": [
        {
          "name": "",
          "type": "bytes32"
        }
      ],
      "payable": false,
      "stateMutability": "nonpayable",
      "type": "function"
    },
    {
      "constant": false,
      "inputs": [
        {
          "name": "_proposalId",
          "type": "bytes32"
        },
        {
          "name": "_param",
          "type": "int256"
        }
      ],
      "name": "executeProposal",
      "outputs": [
        {
          "name": "",
          "type": "bool"
        }
      ],
      "payable": false,
      "stateMutability": "nonpayable",
      "type": "function"
    }
  ],
  "bytecode": "0x608060405234801561001057600080fd5b506113ec806100206000396000f3fe608060405234801561001057600080fd5b50600436106100b85760003560e060020a900480639d4c162d116100755780639d4c162d146102c0578063b551c373146102f7578063bea75f2814610314578063cff0ab9614610350578063d29b5d2f14610389578063f81f8bf6146103bb576100b8565b8063294e8d0e146100bd57806332ed5b12146100f957806360bdbb3f146101995780636b8eb403146101e657806385434788146102245780639588378e14610294575b600080fd5b6100f7600480360360808110156100d357600080fd5b50600160a060020a03813581169160208101359160408201359160600135166103ed565b005b6101166004803603602081101561010f57600080fd5b503561051b565b604051808060200183151515158152602001828103825284818151815260200191508051906020019080838360005b8381101561015d578181015183820152602001610145565b50505050905090810190601f16801561018a5780820380516001836020036101000a031916815260200191505b50935050505060405180910390f35b6101c5600480360360408110156101af57600080fd5b50600160a060020a0381351690602001356105c0565b60408051928352600160a060020a0390911660208301528051918290030190f35b610212600480360360408110156101fc57600080fd5b50600160a060020a0381351690602001356105ea565b60408051918252519081900360200190f35b6102126004803603602081101561023a57600080fd5b81019060208101813564010000000081111561025557600080fd5b82018360208201111561026757600080fd5b8035906020019184600183028401116401000000008311171561028957600080fd5b5090925090506106af565b610212600480360360408110156102aa57600080fd5b50600160a060020a0381351690602001356109d7565b6102e3600480360360408110156102d657600080fd5b5080359060200135610b03565b604080519115158252519081900360200190f35b6102126004803603602081101561030d57600080fd5b5035610c8a565b6102e36004803603608081101561032a57600080fd5b50600160a060020a03813581169160208101359091169060408101359060600135610de2565b610358610fa0565b60408051948552600160a060020a039384166020860152848101929092529091166060830152519081900360800190f35b6102e36004803603606081101561039f57600080fd5b50803590600160a060020a036020820135169060400135610fbc565b6102e3600480360360608110156103d157600080fd5b50803590600160a060020a036020820135169060400135611171565b600554600160a060020a03161561044e576040805160e560020a62461bcd02815260206004820152601b60248201527f63616e2062652063616c6c6564206f6e6c79206f6e652074696d650000000000604482015290519081900360640190fd5b600160a060020a03841615156104ae576040805160e560020a62461bcd02815260206004820152601560248201527f6176617461722063616e6e6f74206265207a65726f0000000000000000000000604482015290519081900360640190fd5b60408051608081018252838152600160a060020a03928316602082018190529181018590529490911660609094018490526002919091556003805473ffffffffffffffffffffffffffffffffffffffff199081169092179055600491909155600580549091169091179055565b60016020818152600092835260409283902080548451600294821615610100026000190190911693909304601f81018390048302840183019094528383529283918301828280156105ad5780601f10610582576101008083540402835291602001916105ad565b820191906000526020600020905b81548152906001019060200180831161059057829003601f168201915b5050506001909301549192505060ff1682565b600060208181529281526040808220909352908152208054600190910154600160a060020a031682565b33600090815260208181526040808320848452909152812060010154600160a060020a03168015156106205760009150506106a9565b83600160a060020a03166370a08231826040518263ffffffff1660e060020a0281526004018082600160a060020a0316600160a060020a0316815260200191505060206040518083038186803b15801561067957600080fd5b505afa15801561068d573d6000803e3d6000fd5b505050506040513d60208110156106a357600080fd5b50519150505b92915050565b600554604080517f8da5cb5b0000000000000000000000000000000000000000000000000000000081529051600092600160a060020a031691638da5cb5b916004808301926020929190829003018186803b15801561070d57600080fd5b505afa158015610721573d6000803e3d6000fd5b505050506040513d602081101561073757600080fd5b5051600554604080517f9be2faed000000000000000000000000000000000000000000000000000000008152306004820152600160a060020a03928316602482015290519190921691639be2faed916044808301926020929190829003018186803b1580156107a557600080fd5b505afa1580156107b9573d6000803e3d6000fd5b505050506040513d60208110156107cf57600080fd5b50511515610827576040805160e560020a62461bcd02815260206004820152601860248201527f736368656d65206973206e6f7420726567697374657265640000000000000000604482015290519081900360640190fd5b60035460028054600554604080517f88737b5e00000000000000000000000000000000000000000000000000000000815260048101949094526024840192909252336044840152600160a060020a039081166064840152905160009391909116916388737b5e91608480830192602092919082900301818787803b1580156108ae57600080fd5b505af11580156108c2573d6000803e3d6000fd5b505050506040513d60208110156108d857600080fd5b505160008181526001602052604090209091506108f69085856112ee565b5060045460055460408051602080825281018790528492600160a060020a0316917f940af78fa85d990be5623aeca8b988922784c8c782b1c2c2fb416d83c05547fb91899189919081908101848480828437600083820152604051601f909101601f19169092018290039550909350505050a4604080518082018252438152600554600160a060020a03908116602080840191825260035483166000908152808252858120878252909152939093209151825591516001909101805473ffffffffffffffffffffffffffffffffffffffff1916919092161790559392505050565b60006109e161136c565b503360009081526020818152604080832085845282529182902082518084019093528054835260010154600160a060020a03169082018190521515610a2a5760009150506106a9565b8060200151600160a060020a03166389ae1c906040518163ffffffff1660e060020a02815260040160206040518083038186803b158015610a6a57600080fd5b505afa158015610a7e573d6000803e3d6000fd5b505050506040513d6020811015610a9457600080fd5b50518151604080517f4ee2cd7e000000000000000000000000000000000000000000000000000000008152600160a060020a038881166004830152602482019390935290519190921691634ee2cd7e916044808301926020929190829003018186803b15801561067957600080fd5b336000908152602081815260408083208584529091528120600101548390600160a060020a03161515610b6e576040805160e560020a62461bcd02815260206004820152601260248201526000805160206113a1833981519152604482015290519081900360640190fd5b6000848152600160208190526040909120015460ff1615610b8e57600080fd5b60008481526001602081905260409091208101805460ff191682179055831415610c805760045460055460008681526001602081815260409283902083518281528154600260001995821615610100029590950116939093049183018290528994600160a060020a0316937fefc186437cd31fb390ee7bfa83473db0ede42b31121c466bb7afb8b3f665ca98939192829182019084908015610c715780601f10610c4657610100808354040283529160200191610c71565b820191906000526020600020905b815481529060010190602001808311610c5457829003601f168201915b50509250505060405180910390a45b5060019392505050565b6000610c9461136c565b503360009081526020818152604080832085845282529182902082518084019093528054835260010154600160a060020a03169082018190521515610cdd576000915050610ddd565b8060200151600160a060020a03166389ae1c906040518163ffffffff1660e060020a02815260040160206040518083038186803b158015610d1d57600080fd5b505afa158015610d31573d6000803e3d6000fd5b505050506040513d6020811015610d4757600080fd5b50518151604080517f981b24d0000000000000000000000000000000000000000000000000000000008152600481019290925251600160a060020a039092169163981b24d091602480820192602092909190829003018186803b158015610dad57600080fd5b505afa158015610dc1573d6000803e3d6000fd5b505050506040513d6020811015610dd757600080fd5b50519150505b919050565b336000908152602081815260408083208484529091528120600101548290600160a060020a03161515610e4d576040805160e560020a62461bcd02815260206004820152601260248201526000805160206113a1833981519152604482015290519081900360640190fd5b33600090815260208181526040808320868452909152902060010154600160a060020a0316801515610e83576000925050610f97565b80600160a060020a0316638da5cb5b6040518163ffffffff1660e060020a02815260040160206040518083038186803b158015610ebf57600080fd5b505afa158015610ed3573d6000803e3d6000fd5b505050506040513d6020811015610ee957600080fd5b5051604080517fb9a04cdd000000000000000000000000000000000000000000000000000000008152600160a060020a038a8116600483015289811660248301526044820189905284811660648301529151919092169163b9a04cdd9160848083019260209291908290030181600087803b158015610f6757600080fd5b505af1158015610f7b573d6000803e3d6000fd5b505050506040513d6020811015610f9157600080fd5b50519250505b50949350505050565b600254600354600454600554600160a060020a03928316921684565b336000908152602081815260408083208484529091528120600101548290600160a060020a03161515611027576040805160e560020a62461bcd02815260206004820152601260248201526000805160206113a1833981519152604482015290519081900360640190fd5b33600090815260208181526040808320868452909152902060010154600160a060020a031680151561105d576000925050611169565b80600160a060020a0316638da5cb5b6040518163ffffffff1660e060020a02815260040160206040518083038186803b15801561109957600080fd5b505afa1580156110ad573d6000803e3d6000fd5b505050506040513d60208110156110c357600080fd5b5051604080517feaf994b200000000000000000000000000000000000000000000000000000000815260048101899052600160a060020a03888116602483015284811660448301529151919092169163eaf994b29160648083019260209291908290030181600087803b15801561113957600080fd5b505af115801561114d573d6000803e3d6000fd5b505050506040513d602081101561116357600080fd5b50519250505b509392505050565b336000908152602081815260408083208484529091528120600101548290600160a060020a031615156111dc576040805160e560020a62461bcd02815260206004820152601260248201526000805160206113a1833981519152604482015290519081900360640190fd5b33600090815260208181526040808320868452909152902060010154600160a060020a0316801515611212576000925050611169565b80600160a060020a0316638da5cb5b6040518163ffffffff1660e060020a02815260040160206040518083038186803b15801561124e57600080fd5b505afa158015611262573d6000803e3d6000fd5b505050506040513d602081101561127857600080fd5b5051604080517f6e94d27800000000000000000000000000000000000000000000000000000000815260048101899052600160a060020a038881166024830152848116604483015291519190921691636e94d2789160648083019260209291908290030181600087803b15801561113957600080fd5b828054600181600116156101000203166002900490600052602060002090601f016020900481019282601f1061132f5782800160ff1982351617855561135c565b8280016001018555821561135c579182015b8281111561135c578235825591602001919060010190611341565b50611368929150611383565b5090565b604080518082019091526000808252602082015290565b61139d91905b808211156113685760008155600101611389565b9056fe6f6e6c7920566f74696e674d616368696e650000000000000000000000000000a165627a7a72305820c7b5b3b4549a06edeac11afa2b273508771bd711218c37ecbd0be106e25fbf0b0029",
  "source": "pragma solidity ^0.5.4;\n\nimport \"@daostack/infra/contracts/votingMachines/IntVoteInterface.sol\";\nimport \"@daostack/infra/contracts/votingMachines/VotingMachineCallbacksInterface.sol\";\nimport \"../votingMachines/VotingMachineCallbacks.sol\";\nimport \"../controller/Avatar.sol\";\n\n\n/**\n * @title A scheme for proposing a signal on behalkf of the daoCreator\n */\n\ncontract SignalScheme is VotingMachineCallbacks, ProposalExecuteInterface {\n\n    event NewSignalProposal(\n        address indexed _avatar,\n        bytes32 indexed _proposalId,\n        uint256 indexed _signalType,\n        string _descriptionHash\n    );\n\n    event Signal(\n        address indexed _avatar,\n        bytes32 indexed _proposalId,\n        uint256 indexed _signalType,\n        string _descriptionHash\n    );\n\n    struct Proposal {\n        string descriptionHash;\n        bool executed;\n    }\n\n    struct Parameters {\n        bytes32 voteApproveParams;\n        IntVoteInterface intVote;\n        uint256 signalType;\n        Avatar avatar;\n    }\n\n    mapping(bytes32  =>  Proposal) public proposals;\n\n    Parameters public params;\n\n    /**\n     * @dev initialize\n     * @param  _avatar the scheme avatar\n     * @param _signalType - signal types\n     * @param _voteApproveParams voting machine params\n     * @param _intVote  voting machine address\n     */\n    function initialize(Avatar _avatar,\n                        uint256 _signalType,\n                        bytes32 _voteApproveParams,\n                        IntVoteInterface _intVote)\n    external {\n        require(params.avatar == Avatar(0), \"can be called only one time\");\n        require(_avatar != Avatar(0), \"avatar cannot be zero\");\n        params = Parameters({\n            voteApproveParams: _voteApproveParams,\n            signalType: _signalType,\n            intVote: _intVote,\n            avatar: _avatar\n        });\n    }\n\n    /**\n    * @dev Submit a proposal for a dao signal\n    * @param _descriptionHash A hash of the proposal's description\n    */\n    function proposeSignal(\n        string calldata _descriptionHash\n    )\n    external\n    returns(bytes32)\n    {\n        require(ControllerInterface(params.avatar.owner()).isSchemeRegistered(address(this), address(params.avatar)),\n        \"scheme is not registered\");\n\n        bytes32 proposalId = params.intVote.propose(\n        2,\n        params.voteApproveParams,\n        msg.sender,\n        address(params.avatar)\n        );\n\n        proposals[proposalId].descriptionHash = _descriptionHash;\n\n        emit NewSignalProposal(\n            address(params.avatar),\n            proposalId,\n            params.signalType,\n            _descriptionHash\n        );\n\n        proposalsInfo[address(params.intVote)][proposalId] = ProposalInfo({\n            blockNumber:block.number,\n            avatar:params.avatar\n        });\n        return proposalId;\n    }\n\n    /**\n    * @dev execution of proposals, can only be called by the voting machine in which the vote is held.\n    * @param _proposalId the ID of the voting in the voting machine\n    * @param _param a parameter of the voting result, 1 yes and 2 is no.\n    */\n    function executeProposal(bytes32 _proposalId, int256 _param) external onlyVotingMachine(_proposalId) returns(bool) {\n        require(!proposals[_proposalId].executed);\n        proposals[_proposalId].executed = true;\n        // Check if vote was successful:\n        if (_param == 1) {\n            emit Signal(address(params.avatar),\n                        _proposalId,\n                        params.signalType,\n                        proposals[_proposalId].descriptionHash);\n        }\n        return true;\n    }\n}\n",
  "sourcePath": "/Users/oren/daostack/arc/contracts/schemes/SignalScheme.sol",
  "compiler": {
    "name": "solc",
    "version": "0.5.4+commit.9549d8ff.Emscripten.clang"
  },
  "schemaVersion": "3.0.9",
  "updatedAt": "2019-07-24T14:52:18.807Z",
  "devdoc": {
    "methods": {
      "executeProposal(bytes32,int256)": {
        "details": "execution of proposals, can only be called by the voting machine in which the vote is held.",
        "params": {
          "_param": "a parameter of the voting result, 1 yes and 2 is no.",
          "_proposalId": "the ID of the voting in the voting machine"
        }
      },
      "initialize(address,uint256,bytes32,address)": {
        "details": "initialize",
        "params": {
          "_avatar": "the scheme avatar",
          "_intVote": "voting machine address",
          "_signalType": "- signal types",
          "_voteApproveParams": "voting machine params"
        }
      },
      "proposeSignal(string)": {
        "details": "Submit a proposal for a dao signal",
        "params": {
          "_descriptionHash": "A hash of the proposal's description"
        }
      }
    },
    "title": "A scheme for proposing a signal on behalkf of the daoCreator"
  },
  "userdoc": {
    "methods": {}
  }
}