{
  "contractName": "UniversalSchemeMock",
  "abi": [
    {
      "constant": false,
      "inputs": [
        {
          "name": "_avatar",
          "type": "address"
        },
        {
          "name": "_contract",
          "type": "address"
        },
        {
          "name": "_a",
          "type": "uint256"
        },
        {
          "name": "_b",
          "type": "address"
        },
        {
          "name": "_c",
          "type": "bytes32"
        },
        {
          "name": "_value",
          "type": "uint256"
        }
      ],
      "name": "genericCall",
      "outputs": [
        {
          "name": "",
          "type": "bool"
        },
        {
          "name": "",
          "type": "bytes"
        }
      ],
      "payable": false,
      "stateMutability": "nonpayable",
      "type": "function"
    },
    {
      "constant": false,
      "inputs": [
        {
          "name": "_avatar",
          "type": "address"
        },
        {
          "name": "_contract",
          "type": "address"
        },
        {
          "name": "_a",
          "type": "uint256"
        },
        {
          "name": "_b",
          "type": "address"
        },
        {
          "name": "_c",
          "type": "bytes32"
        },
        {
          "name": "_value",
          "type": "uint256"
        }
      ],
      "name": "genericCallDirect",
      "outputs": [
        {
          "name": "",
          "type": "bool"
        },
        {
          "name": "",
          "type": "bytes"
        }
      ],
      "payable": false,
      "stateMutability": "nonpayable",
      "type": "function"
    }
  ],
  "bytecode": "0x608060405234801561001057600080fd5b50610623806100206000396000f3fe608060405234801561001057600080fd5b50600436106100385760e060020a6000350462408096811461003d578063b9642c0e1461010a575b600080fd5b610087600480360360c081101561005357600080fd5b50600160a060020a038135811691602081013582169160408201359160608101359091169060808101359060a00135610154565b604051808315151515815260200180602001828103825283818151815260200191508051906020019080838360005b838110156100ce5781810151838201526020016100b6565b50505050905090810190601f1680156100fb5780820380516001836020036101000a031916815260200191505b50935050505060405180910390f35b610087600480360360c081101561012057600080fd5b50600160a060020a038135811691602081013582169160408201359160608101359091169060808101359060a00135610342565b604080516024808201879052600160a060020a038681166044808501919091526064808501889052855180860382018152608495860187526020810180517bffffffffffffffffffffffffffffffffffffffffffffffffffffffff167ff3e8dcd00000000000000000000000000000000000000000000000000000000017815296517f2bf164580000000000000000000000000000000000000000000000000000000081528c851660048201908152938101899052606095810186815282519382019390935281516000989697958f1696632bf16458968f9694958c95949093910191908083838e5b8381101561025557818101518382015260200161023d565b50505050905090810190601f1680156102825780820380516001836020036101000a031916815260200191505b50945050505050600060405180830381600087803b1580156102a357600080fd5b505af11580156102b7573d6000803e3d6000fd5b505050506040513d6000823e601f3d908101601f1916820160409081528110156102e057600080fd5b81516020830180519193928301929164010000000081111561030157600080fd5b8201602081018481111561031457600080fd5b815164010000000081118282018710171561032e57600080fd5b50949d909c509a5050505050505050505050565b60006060600088600160a060020a0316638da5cb5b6040518163ffffffff1660e060020a02815260040160206040518083038186803b15801561038457600080fd5b505afa158015610398573d6000803e3d6000fd5b505050506040513d60208110156103ae57600080fd5b8101908080519060200190929190505050905080600160a060020a031663d1b7089a898989896040516024018084815260200183600160a060020a0316600160a060020a0316815260200182815260200193505050506040516020818303038152906040527ff3e8dcd0000000000000000000000000000000000000000000000000000000007bffffffffffffffffffffffffffffffffffffffffffffffffffffffff19166020820180517bffffffffffffffffffffffffffffffffffffffffffffffffffffffff83818316178352505050508c886040518563ffffffff1660e060020a0281526004018085600160a060020a0316600160a060020a031681526020018060200184600160a060020a0316600160a060020a03168152602001838152602001828103825285818151815260200191508051906020019080838360005b838110156105085781810151838201526020016104f0565b50505050905090810190601f1680156105355780820380516001836020036101000a031916815260200191505b5095505050505050600060405180830381600087803b15801561055757600080fd5b505af115801561056b573d6000803e3d6000fd5b505050506040513d6000823e601f3d908101601f19168201604090815281101561059457600080fd5b8151602083018051919392830192916401000000008111156105b557600080fd5b820160208101848111156105c857600080fd5b81516401000000008111828201871017156105e257600080fd5b50949e909d509b50505050505050505050505056fea165627a7a72305820bf847b82f516bf57fe1f36ae8ff6d158284b3fbb7fc36490a2888415cfbc4de80029",
  "source": "pragma solidity ^0.5.4;\n\nimport \"../universalSchemes/UniversalScheme.sol\";\nimport \"../controller/ControllerInterface.sol\";\n\n\ncontract UniversalSchemeMock is UniversalScheme {\n\n    function genericCall(Avatar _avatar, address _contract, uint256 _a, address _b, bytes32 _c, uint256 _value)\n    public returns(bool, bytes memory)\n    {\n\n        address controller = _avatar.owner();\n        return ControllerInterface(controller).genericCall(\n        _contract, abi.encodeWithSignature(\"test(uint256,address,bytes32)\", _a, _b, _c), _avatar, _value);\n    }\n\n    function genericCallDirect(Avatar _avatar, address _contract, uint256 _a, address _b, bytes32 _c, uint256 _value)\n    public returns(bool, bytes memory)\n    {\n        return _avatar.genericCall(\n        _contract,\n        abi.encodeWithSignature(\"test(uint256,address,bytes32)\", _a, _b, _c),\n        _value);\n    }\n}\n",
  "sourcePath": "/Users/oren/daostack/arc/contracts/test/UniversalSchemeMock.sol",
  "compiler": {
    "name": "solc",
    "version": "0.5.4+commit.9549d8ff.Emscripten.clang"
  },
  "schemaVersion": "3.0.9",
  "updatedAt": "2019-07-24T14:52:18.820Z",
  "devdoc": {
    "methods": {}
  },
  "userdoc": {
    "methods": {}
  }
}