{
  "contractName": "VoteInOrganizationScheme",
  "abi": [
    {
      "constant": true,
      "inputs": [
        {
          "name": "",
          "type": "bytes32"
        }
      ],
      "name": "parameters",
      "outputs": [
        {
          "name": "intVote",
          "type": "address"
        },
        {
          "name": "voteParams",
          "type": "bytes32"
        }
      ],
      "payable": false,
      "stateMutability": "view",
      "type": "function"
    },
    {
      "constant": true,
      "inputs": [
        {
          "name": "",
          "type": "address"
        },
        {
          "name": "",
          "type": "bytes32"
        }
      ],
      "name": "organizationsProposals",
      "outputs": [
        {
          "name": "originalIntVote",
          "type": "address"
        },
        {
          "name": "originalProposalId",
          "type": "bytes32"
        },
        {
          "name": "vote",
          "type": "uint256"
        },
        {
          "name": "exist",
          "type": "bool"
        }
      ],
      "payable": false,
      "stateMutability": "view",
      "type": "function"
    },
    {
      "constant": true,
      "inputs": [
        {
          "name": "",
          "type": "address"
        },
        {
          "name": "",
          "type": "bytes32"
        }
      ],
      "name": "proposalsInfo",
      "outputs": [
        {
          "name": "blockNumber",
          "type": "uint256"
        },
        {
          "name": "avatar",
          "type": "address"
        }
      ],
      "payable": false,
      "stateMutability": "view",
      "type": "function"
    },
    {
      "constant": true,
      "inputs": [
        {
          "name": "_stakingToken",
          "type": "address"
        },
        {
          "name": "_proposalId",
          "type": "bytes32"
        }
      ],
      "name": "balanceOfStakingToken",
      "outputs": [
        {
          "name": "",
          "type": "uint256"
        }
      ],
      "payable": false,
      "stateMutability": "view",
      "type": "function"
    },
    {
      "constant": true,
      "inputs": [
        {
          "name": "_owner",
          "type": "address"
        },
        {
          "name": "_proposalId",
          "type": "bytes32"
        }
      ],
      "name": "reputationOf",
      "outputs": [
        {
          "name": "",
          "type": "uint256"
        }
      ],
      "payable": false,
      "stateMutability": "view",
      "type": "function"
    },
    {
      "constant": true,
      "inputs": [
        {
          "name": "_proposalId",
          "type": "bytes32"
        }
      ],
      "name": "getTotalReputationSupply",
      "outputs": [
        {
          "name": "",
          "type": "uint256"
        }
      ],
      "payable": false,
      "stateMutability": "view",
      "type": "function"
    },
    {
      "constant": false,
      "inputs": [
        {
          "name": "_stakingToken",
          "type": "address"
        },
        {
          "name": "_beneficiary",
          "type": "address"
        },
        {
          "name": "_amount",
          "type": "uint256"
        },
        {
          "name": "_proposalId",
          "type": "bytes32"
        }
      ],
      "name": "stakingTokenTransfer",
      "outputs": [
        {
          "name": "",
          "type": "bool"
        }
      ],
      "payable": false,
      "stateMutability": "nonpayable",
      "type": "function"
    },
    {
      "constant": false,
      "inputs": [
        {
          "name": "_amount",
          "type": "uint256"
        },
        {
          "name": "_beneficiary",
          "type": "address"
        },
        {
          "name": "_proposalId",
          "type": "bytes32"
        }
      ],
      "name": "mintReputation",
      "outputs": [
        {
          "name": "",
          "type": "bool"
        }
      ],
      "payable": false,
      "stateMutability": "nonpayable",
      "type": "function"
    },
    {
      "constant": false,
      "inputs": [
        {
          "name": "_amount",
          "type": "uint256"
        },
        {
          "name": "_beneficiary",
          "type": "address"
        },
        {
          "name": "_proposalId",
          "type": "bytes32"
        }
      ],
      "name": "burnReputation",
      "outputs": [
        {
          "name": "",
          "type": "bool"
        }
      ],
      "payable": false,
      "stateMutability": "nonpayable",
      "type": "function"
    },
    {
      "anonymous": false,
      "inputs": [
        {
          "indexed": true,
          "name": "_avatar",
          "type": "address"
        },
        {
          "indexed": true,
          "name": "_proposalId",
          "type": "bytes32"
        },
        {
          "indexed": true,
          "name": "_intVoteInterface",
          "type": "address"
        },
        {
          "indexed": false,
          "name": "_originalIntVote",
          "type": "address"
        },
        {
          "indexed": false,
          "name": "_originalProposalId",
          "type": "bytes32"
        },
        {
          "indexed": false,
          "name": "_vote",
          "type": "uint256"
        },
        {
          "indexed": false,
          "name": "_descriptionHash",
          "type": "string"
        }
      ],
      "name": "NewVoteProposal",
      "type": "event"
    },
    {
      "anonymous": false,
      "inputs": [
        {
          "indexed": true,
          "name": "_avatar",
          "type": "address"
        },
        {
          "indexed": true,
          "name": "_proposalId",
          "type": "bytes32"
        },
        {
          "indexed": false,
          "name": "_param",
          "type": "int256"
        },
        {
          "indexed": false,
          "name": "_callReturnValue",
          "type": "bytes"
        }
      ],
      "name": "ProposalExecuted",
      "type": "event"
    },
    {
      "anonymous": false,
      "inputs": [
        {
          "indexed": true,
          "name": "_avatar",
          "type": "address"
        },
        {
          "indexed": true,
          "name": "_proposalId",
          "type": "bytes32"
        }
      ],
      "name": "ProposalDeleted",
      "type": "event"
    },
    {
      "constant": false,
      "inputs": [
        {
          "name": "_proposalId",
          "type": "bytes32"
        },
        {
          "name": "_param",
          "type": "int256"
        }
      ],
      "name": "executeProposal",
      "outputs": [
        {
          "name": "",
          "type": "bool"
        }
      ],
      "payable": false,
      "stateMutability": "nonpayable",
      "type": "function"
    },
    {
      "constant": false,
      "inputs": [
        {
          "name": "_voteParams",
          "type": "bytes32"
        },
        {
          "name": "_intVote",
          "type": "address"
        }
      ],
      "name": "setParameters",
      "outputs": [
        {
          "name": "",
          "type": "bytes32"
        }
      ],
      "payable": false,
      "stateMutability": "nonpayable",
      "type": "function"
    },
    {
      "constant": true,
      "inputs": [
        {
          "name": "_voteParams",
          "type": "bytes32"
        },
        {
          "name": "_intVote",
          "type": "address"
        }
      ],
      "name": "getParametersHash",
      "outputs": [
        {
          "name": "",
          "type": "bytes32"
        }
      ],
      "payable": false,
      "stateMutability": "pure",
      "type": "function"
    },
    {
      "constant": false,
      "inputs": [
        {
          "name": "_avatar",
          "type": "address"
        },
        {
          "name": "_originalIntVote",
          "type": "address"
        },
        {
          "name": "_originalProposalId",
          "type": "bytes32"
        },
        {
          "name": "_vote",
          "type": "uint256"
        },
        {
          "name": "_descriptionHash",
          "type": "string"
        }
      ],
      "name": "proposeVote",
      "outputs": [
        {
          "name": "",
          "type": "bytes32"
        }
      ],
      "payable": false,
      "stateMutability": "nonpayable",
      "type": "function"
    }
  ],
  "bytecode": "0x608060405234801561001057600080fd5b50611a9e806100206000396000f3fe608060405234801561001057600080fd5b50600436106100d35760003560e060020a900480636b8eb40311610090578063b551c3731161006a578063b551c37314610387578063bea75f28146103a4578063d29b5d2f146103e0578063f81f8bf614610412576100d3565b80636b8eb403146102f85780639588378e146103245780639d4c162d14610350576100d3565b806302506804146100d857806306e3a9781461011857806319910699146101765780632453732a1461025357806360bdbb3f1461027f57806368e14dac146102cc575b600080fd5b6100f5600480360360208110156100ee57600080fd5b5035610444565b60408051600160a060020a03909316835260208301919091528051918290030190f35b6101446004803603604081101561012e57600080fd5b50600160a060020a038135169060200135610469565b60408051600160a060020a03909516855260208501939093528383019190915215156060830152519081900360800190f35b610241600480360360a081101561018c57600080fd5b600160a060020a03823581169260208101359091169160408201359160608101359181019060a0810160808201356401000000008111156101cc57600080fd5b8201836020820111156101de57600080fd5b8035906020019184600183028401116401000000008311171561020057600080fd5b91908080601f0160208091040260200160405190810160405280939291908181526020018383808284376000920191909152509295506104a8945050505050565b60408051918252519081900360200190f35b6102416004803603604081101561026957600080fd5b5080359060200135600160a060020a0316610958565b6102ab6004803603604081101561029557600080fd5b50600160a060020a03813516906020013561099f565b60408051928352600160a060020a0390911660208301528051918290030190f35b610241600480360360408110156102e257600080fd5b5080359060200135600160a060020a03166109c9565b6102416004803603604081101561030e57600080fd5b50600160a060020a038135169060200135610a1c565b6102416004803603604081101561033a57600080fd5b50600160a060020a038135169060200135610adf565b6103736004803603604081101561036657600080fd5b5080359060200135610c0b565b604080519115158252519081900360200190f35b6102416004803603602081101561039d57600080fd5b503561111c565b610373600480360360808110156103ba57600080fd5b50600160a060020a03813581169160208101359091169060408101359060600135611274565b610373600480360360608110156103f657600080fd5b50803590600160a060020a036020820135169060400135611432565b6103736004803603606081101561042857600080fd5b50803590600160a060020a0360208201351690604001356115e7565b60026020526000908152604090208054600190910154600160a060020a039091169082565b600160208181526000938452604080852090915291835291208054918101546002820154600390920154600160a060020a039093169290919060ff1684565b60006104b26119bc565b600260006104bf89611764565b815260208082019290925260409081016000908120825180840184528154600160a060020a039081168083526001909301549582019590955283517f5142bc1e00000000000000000000000000000000000000000000000000000000815284519196509194929384938c1692635142bc1e9260048083019392829003018186803b15801561054c57600080fd5b505afa158015610560573d6000803e3d6000fd5b505050506040513d604081101561057657600080fd5b50805160209091015190925090508087118015906105945750818710155b15156105d45760405160e560020a62461bcd0281526004018080602001828103825260238152602001806119fb6023913960400191505060405180910390fd5b88600160a060020a031663a003651d896040518263ffffffff1660e060020a0281526004018082815260200191505060206040518083038186803b15801561061b57600080fd5b505afa15801561062f573d6000803e3d6000fd5b505050506040513d602081101561064557600080fd5b50518711156106885760405160e560020a62461bcd028152600401808060200182810382526035815260200180611a3e6035913960400191505060405180910390fd5b602080850151604080517f88737b5e000000000000000000000000000000000000000000000000000000008152600260048201526024810192909252336044830152600160a060020a038d811660648401529051600093918716926388737b5e92608480830193919282900301818787803b15801561070657600080fd5b505af115801561071a573d6000803e3d6000fd5b505050506040513d602081101561073057600080fd5b810190808051906020019092919050505090506080604051908101604052808b600160a060020a031681526020018a815260200189815260200160011515815250600160008d600160a060020a0316600160a060020a03168152602001908152602001600020600083815260200190815260200160002060008201518160000160006101000a815481600160a060020a030219169083600160a060020a03160217905550602082015181600101556040820151816002015560608201518160030160006101000a81548160ff0219169083151502179055509050508460000151600160a060020a0316818c600160a060020a03167f612d055dc0e586b349ae636d1de3fc64fbcf367d8c8c7406bd1823267cfe7e208d8d8d8d6040518085600160a060020a0316600160a060020a0316815260200184815260200183815260200180602001828103825283818151815260200191508051906020019080838360005b838110156108aa578181015183820152602001610892565b50505050905090810190601f1680156108d75780820380516001836020036101000a031916815260200191505b509550505050505060405180910390a4604080518082018252438152600160a060020a039c8d166020808301918252968e1660009081528088528381208582529097529190952094518555516001909401805473ffffffffffffffffffffffffffffffffffffffff191694909b169390931790995550979650505050505050565b6040805160208082018590526c01000000000000000000000000600160a060020a038516028284015282516034818403018152605490920190925280519101205b92915050565b600060208181529281526040808220909352908152208054600190910154600160a060020a031682565b6000806109d68484610958565b6000818152600260205260409020600181018690558054600160a060020a03861673ffffffffffffffffffffffffffffffffffffffff1990911617905591505092915050565b33600090815260208181526040808320848452909152812060010154600160a060020a0316801515610a52576000915050610999565b83600160a060020a03166370a08231826040518263ffffffff1660e060020a0281526004018082600160a060020a0316600160a060020a0316815260200191505060206040518083038186803b158015610aab57600080fd5b505afa158015610abf573d6000803e3d6000fd5b505050506040513d6020811015610ad557600080fd5b5051949350505050565b6000610ae96119bc565b503360009081526020818152604080832085845282529182902082518084019093528054835260010154600160a060020a03169082018190521515610b32576000915050610999565b8060200151600160a060020a03166389ae1c906040518163ffffffff1660e060020a02815260040160206040518083038186803b158015610b7257600080fd5b505afa158015610b86573d6000803e3d6000fd5b505050506040513d6020811015610b9c57600080fd5b50518151604080517f4ee2cd7e000000000000000000000000000000000000000000000000000000008152600160a060020a038881166004830152602482019390935290519190921691634ee2cd7e916044808301926020929190829003018186803b158015610aab57600080fd5b336000908152602081815260408083208584529091528120600101548390600160a060020a03161515610c76576040805160e560020a62461bcd0281526020600482015260126024820152600080516020611a1e833981519152604482015290519081900360640190fd5b33600090815260208181526040808320878452909152902060010154600160a060020a0316610ca36119d3565b50600160a060020a0380821660009081526001602081815260408084208a855282529283902083516080810185528154909516855291820154908401526002810154918301919091526003015460ff16151560608201819052610d0557600080fd5b600160a060020a03821660008181526001602081815260408084208b8552909152808320805473ffffffffffffffffffffffffffffffffffffffff19168155918201839055600282018390556003909101805460ff19169055518892917f6bc0cb9e9967b59a69ace442598e1df4368d38661bd5c0800fbcbc9fe855fbbe91a360606000866001141561106257600084600160a060020a0316638da5cb5b6040518163ffffffff1660e060020a02815260040160206040518083038186803b158015610dd057600080fd5b505afa158015610de4573d6000803e3d6000fd5b505050506040513d6020811015610dfa57600080fd5b8101908080519060200190929190505050905080600160a060020a031663d1b7089a856000015186602001518760400151600030604051602401808581526020018481526020018360ff16815260200182600160a060020a0316600160a060020a031681526020019450505050506040516020818303038152906040527f359afa49000000000000000000000000000000000000000000000000000000007bffffffffffffffffffffffffffffffffffffffffffffffffffffffff19166020820180517bffffffffffffffffffffffffffffffffffffffffffffffffffffffff83818316178352505050508860006040518563ffffffff1660e060020a0281526004018085600160a060020a0316600160a060020a031681526020018060200184600160a060020a0316600160a060020a03168152602001838152602001828103825285818151815260200191508051906020019080838360005b83811015610f6d578181015183820152602001610f55565b50505050905090810190601f168015610f9a5780820380516001836020036101000a031916815260200191505b5095505050505050600060405180830381600087803b158015610fbc57600080fd5b505af1158015610fd0573d6000803e3d6000fd5b505050506040513d6000823e601f3d908101601f191682016040908152811015610ff957600080fd5b81516020830180519193928301929164010000000081111561101a57600080fd5b8201602081018481111561102d57600080fd5b815164010000000081118282018710171561104757600080fd5b5090975093955050508315159150611060905057600080fd5b505b8784600160a060020a03167f7c1ea889aeb873862488f79e0228a2240ec23e80244de201dd45f39f603fc3c489856040518083815260200180602001828103825283818151815260200191508051906020019080838360005b838110156110d35781810151838201526020016110bb565b50505050905090810190601f1680156111005780820380516001836020036101000a031916815260200191505b50935050505060405180910390a3506001979650505050505050565b60006111266119bc565b503360009081526020818152604080832085845282529182902082518084019093528054835260010154600160a060020a0316908201819052151561116f57600091505061126f565b8060200151600160a060020a03166389ae1c906040518163ffffffff1660e060020a02815260040160206040518083038186803b1580156111af57600080fd5b505afa1580156111c3573d6000803e3d6000fd5b505050506040513d60208110156111d957600080fd5b50518151604080517f981b24d0000000000000000000000000000000000000000000000000000000008152600481019290925251600160a060020a039092169163981b24d091602480820192602092909190829003018186803b15801561123f57600080fd5b505afa158015611253573d6000803e3d6000fd5b505050506040513d602081101561126957600080fd5b50519150505b919050565b336000908152602081815260408083208484529091528120600101548290600160a060020a031615156112df576040805160e560020a62461bcd0281526020600482015260126024820152600080516020611a1e833981519152604482015290519081900360640190fd5b33600090815260208181526040808320868452909152902060010154600160a060020a0316801515611315576000925050611429565b80600160a060020a0316638da5cb5b6040518163ffffffff1660e060020a02815260040160206040518083038186803b15801561135157600080fd5b505afa158015611365573d6000803e3d6000fd5b505050506040513d602081101561137b57600080fd5b5051604080517fb9a04cdd000000000000000000000000000000000000000000000000000000008152600160a060020a038a8116600483015289811660248301526044820189905284811660648301529151919092169163b9a04cdd9160848083019260209291908290030181600087803b1580156113f957600080fd5b505af115801561140d573d6000803e3d6000fd5b505050506040513d602081101561142357600080fd5b50519250505b50949350505050565b336000908152602081815260408083208484529091528120600101548290600160a060020a0316151561149d576040805160e560020a62461bcd0281526020600482015260126024820152600080516020611a1e833981519152604482015290519081900360640190fd5b33600090815260208181526040808320868452909152902060010154600160a060020a03168015156114d35760009250506115df565b80600160a060020a0316638da5cb5b6040518163ffffffff1660e060020a02815260040160206040518083038186803b15801561150f57600080fd5b505afa158015611523573d6000803e3d6000fd5b505050506040513d602081101561153957600080fd5b5051604080517feaf994b200000000000000000000000000000000000000000000000000000000815260048101899052600160a060020a03888116602483015284811660448301529151919092169163eaf994b29160648083019260209291908290030181600087803b1580156115af57600080fd5b505af11580156115c3573d6000803e3d6000fd5b505050506040513d60208110156115d957600080fd5b50519250505b509392505050565b336000908152602081815260408083208484529091528120600101548290600160a060020a03161515611652576040805160e560020a62461bcd0281526020600482015260126024820152600080516020611a1e833981519152604482015290519081900360640190fd5b33600090815260208181526040808320868452909152902060010154600160a060020a03168015156116885760009250506115df565b80600160a060020a0316638da5cb5b6040518163ffffffff1660e060020a02815260040160206040518083038186803b1580156116c457600080fd5b505afa1580156116d8573d6000803e3d6000fd5b505050506040513d60208110156116ee57600080fd5b5051604080517f6e94d27800000000000000000000000000000000000000000000000000000000815260048101899052600160a060020a038881166024830152848116604483015291519190921691636e94d2789160648083019260209291908290030181600087803b1580156115af57600080fd5b600081600160a060020a0316638da5cb5b6040518163ffffffff1660e060020a02815260040160206040518083038186803b1580156117a257600080fd5b505afa1580156117b6573d6000803e3d6000fd5b505050506040513d60208110156117cc57600080fd5b5051604080517f9be2faed000000000000000000000000000000000000000000000000000000008152306004820152600160a060020a03858116602483015291519190921691639be2faed916044808301926020929190829003018186803b15801561183757600080fd5b505afa15801561184b573d6000803e3d6000fd5b505050506040513d602081101561186157600080fd5b505115156118b9576040805160e560020a62461bcd02815260206004820152601860248201527f736368656d65206973206e6f7420726567697374657265640000000000000000604482015290519081900360640190fd5b81600160a060020a0316638da5cb5b6040518163ffffffff1660e060020a02815260040160206040518083038186803b1580156118f557600080fd5b505afa158015611909573d6000803e3d6000fd5b505050506040513d602081101561191f57600080fd5b5051604080517f1c4d5608000000000000000000000000000000000000000000000000000000008152306004820152600160a060020a03858116602483015291519190921691631c4d5608916044808301926020929190829003018186803b15801561198a57600080fd5b505afa15801561199e573d6000803e3d6000fd5b505050506040513d60208110156119b457600080fd5b505192915050565b604080518082019091526000808252602082015290565b6040805160808101825260008082526020820181905291810182905260608101919091529056fe766f74652073686f756c6420626520696e2074686520616c6c6f7765642072616e67656f6e6c7920566f74696e674d616368696e650000000000000000000000000000766f74652073686f756c64206265203c3d206f726967696e616c2070726f706f73616c206e756d626572206f662063686f69636573a165627a7a723058202045f11be41a36082bf7bd4c98f9314490e0747bab7199d7dd4844f9ff76e3de0029",
  "source": "pragma solidity ^0.5.4;\n\nimport \"@daostack/infra/contracts/votingMachines/IntVoteInterface.sol\";\nimport \"@daostack/infra/contracts/votingMachines/VotingMachineCallbacksInterface.sol\";\nimport \"./UniversalScheme.sol\";\nimport \"../votingMachines/VotingMachineCallbacks.sol\";\n\n\n/**\n * @title VoteInOrganizationScheme.\n * @dev A scheme to allow an organization to vote in a proposal.\n */\ncontract VoteInOrganizationScheme is UniversalScheme, VotingMachineCallbacks, ProposalExecuteInterface {\n    event NewVoteProposal(\n        address indexed _avatar,\n        bytes32 indexed _proposalId,\n        address indexed _intVoteInterface,\n        IntVoteInterface _originalIntVote,\n        bytes32 _originalProposalId,\n        uint256 _vote,\n        string _descriptionHash\n    );\n\n    event ProposalExecuted(address indexed _avatar, bytes32 indexed _proposalId, int256 _param, bytes _callReturnValue);\n    event ProposalDeleted(address indexed _avatar, bytes32 indexed _proposalId);\n\n    // Details of a voting proposal:\n    struct VoteProposal {\n        IntVoteInterface originalIntVote;\n        bytes32 originalProposalId;\n        uint256 vote;\n        bool exist;\n    }\n\n    // A mapping from the organization (Avatar) address to the saved data of the organization:\n    mapping(address=>mapping(bytes32=>VoteProposal)) public organizationsProposals;\n\n    struct Parameters {\n        IntVoteInterface intVote;\n        bytes32 voteParams;\n    }\n\n    // A mapping from hashes to parameters (use to store a particular configuration on the controller)\n    mapping(bytes32=>Parameters) public parameters;\n\n    /**\n    * @dev execution of proposals, can only be called by the voting machine in which the vote is held.\n    * @param _proposalId the ID of the voting in the voting machine\n    * @param _param a parameter of the voting result, 1 yes and 2 is no.\n    * @return bool which represents a successful of the function\n    */\n    function executeProposal(bytes32 _proposalId, int256 _param) external onlyVotingMachine(_proposalId) returns(bool) {\n        Avatar avatar = proposalsInfo[msg.sender][_proposalId].avatar;\n        // Save proposal to memory and delete from storage:\n        VoteProposal memory proposal = organizationsProposals[address(avatar)][_proposalId];\n        require(proposal.exist);\n        delete organizationsProposals[address(avatar)][_proposalId];\n        emit ProposalDeleted(address(avatar), _proposalId);\n        bytes memory callReturnValue;\n        bool success;\n        // If no decision do nothing:\n        if (_param == 1) {\n\n            ControllerInterface controller = ControllerInterface(avatar.owner());\n            (success, callReturnValue) = controller.genericCall(\n            address(proposal.originalIntVote),\n            abi.encodeWithSignature(\"vote(bytes32,uint256,uint256,address)\",\n            proposal.originalProposalId,\n            proposal.vote,\n            0,\n            address(this)),\n            avatar,\n            0\n            );\n            require(success);\n        }\n        emit ProposalExecuted(address(avatar), _proposalId, _param, callReturnValue);\n        return true;\n    }\n\n    /**\n    * @dev Hash the parameters, save them if necessary, and return the hash value\n    * @param _voteParams -  voting parameters\n    * @param _intVote  - voting machine contract.\n    * @return bytes32 -the parameters hash\n    */\n    function setParameters(\n        bytes32 _voteParams,\n        IntVoteInterface _intVote\n    ) public returns(bytes32)\n    {\n        bytes32 paramsHash = getParametersHash(_voteParams, _intVote);\n        parameters[paramsHash].voteParams = _voteParams;\n        parameters[paramsHash].intVote = _intVote;\n        return paramsHash;\n    }\n\n    /**\n    * @dev Hash the parameters, and return the hash value\n    * @param _voteParams -  voting parameters\n    * @param _intVote  - voting machine contract.\n    * @return bytes32 -the parameters hash\n    */\n    function getParametersHash(\n        bytes32 _voteParams,\n        IntVoteInterface _intVote\n    ) public pure returns(bytes32)\n    {\n        return keccak256(abi.encodePacked(_voteParams, _intVote));\n    }\n\n    /**\n    * @dev propose to vote in other organization\n    *      The function trigger NewVoteProposal event\n    * @param _avatar avatar of the organization\n    * @param _originalIntVote the other organization voting machine\n    * @param _originalProposalId the other organization proposal id\n    * @param _vote - which value to vote in the destination organization\n    * @param _descriptionHash proposal description hash\n    * @return an id which represents the proposal\n    */\n    function proposeVote(\n    Avatar _avatar,\n    IntVoteInterface _originalIntVote,\n    bytes32 _originalProposalId,\n    uint256 _vote,\n    string memory _descriptionHash)\n    public\n    returns(bytes32)\n    {\n        Parameters memory params = parameters[getParametersFromController(_avatar)];\n        IntVoteInterface intVote = params.intVote;\n        (uint256 minVote, uint256 maxVote) = _originalIntVote.getAllowedRangeOfChoices();\n        require(_vote <= maxVote && _vote >= minVote, \"vote should be in the allowed range\");\n        require(_vote <= _originalIntVote.getNumberOfChoices(_originalProposalId),\n        \"vote should be <= original proposal number of choices\");\n\n        bytes32 proposalId = intVote.propose(2, params.voteParams, msg.sender, address(_avatar));\n\n        organizationsProposals[address(_avatar)][proposalId] = VoteProposal({\n            originalIntVote: _originalIntVote,\n            originalProposalId: _originalProposalId,\n            vote:_vote,\n            exist: true\n        });\n        emit NewVoteProposal(\n            address(_avatar),\n            proposalId,\n            address(params.intVote),\n            _originalIntVote,\n            _originalProposalId,\n            _vote,\n            _descriptionHash\n        );\n        proposalsInfo[address(intVote)][proposalId] = ProposalInfo({\n            blockNumber:block.number,\n            avatar:_avatar\n        });\n        return proposalId;\n    }\n}\n",
  "sourcePath": "/Users/oren/daostack/arc/contracts/universalSchemes/VoteInOrganizationScheme.sol",
  "compiler": {
    "name": "solc",
    "version": "0.5.4+commit.9549d8ff.Emscripten.clang"
  },
  "schemaVersion": "3.0.9",
  "updatedAt": "2019-07-24T14:52:18.885Z",
  "devdoc": {
    "details": "A scheme to allow an organization to vote in a proposal.",
    "methods": {
      "executeProposal(bytes32,int256)": {
        "details": "execution of proposals, can only be called by the voting machine in which the vote is held.",
        "params": {
          "_param": "a parameter of the voting result, 1 yes and 2 is no.",
          "_proposalId": "the ID of the voting in the voting machine"
        },
        "return": "bool which represents a successful of the function"
      },
      "getParametersHash(bytes32,address)": {
        "details": "Hash the parameters, and return the hash value",
        "params": {
          "_intVote": "- voting machine contract.",
          "_voteParams": "-  voting parameters"
        },
        "return": "bytes32 -the parameters hash"
      },
      "proposeVote(address,address,bytes32,uint256,string)": {
        "details": "propose to vote in other organization     The function trigger NewVoteProposal event",
        "params": {
          "_avatar": "avatar of the organization",
          "_descriptionHash": "proposal description hash",
          "_originalIntVote": "the other organization voting machine",
          "_originalProposalId": "the other organization proposal id",
          "_vote": "- which value to vote in the destination organization"
        },
        "return": "an id which represents the proposal"
      },
      "setParameters(bytes32,address)": {
        "details": "Hash the parameters, save them if necessary, and return the hash value",
        "params": {
          "_intVote": "- voting machine contract.",
          "_voteParams": "-  voting parameters"
        },
        "return": "bytes32 -the parameters hash"
      }
    },
    "title": "VoteInOrganizationScheme."
  },
  "userdoc": {
    "methods": {}
  }
}