{
  "contractName": "ContinuousLocking4Reputation",
  "abi": [
    {
      "constant": true,
      "inputs": [],
      "name": "repRewardConstB",
      "outputs": [
        {
          "internalType": "uint256",
          "name": "",
          "type": "uint256"
        }
      ],
      "payable": false,
      "stateMutability": "view",
      "type": "function"
    },
    {
      "constant": true,
      "inputs": [],
      "name": "redeemEnableTime",
      "outputs": [
        {
          "internalType": "uint256",
          "name": "",
          "type": "uint256"
        }
      ],
      "payable": false,
      "stateMutability": "view",
      "type": "function"
    },
    {
      "constant": true,
      "inputs": [],
      "name": "repRewardConstA",
      "outputs": [
        {
          "internalType": "uint256",
          "name": "",
          "type": "uint256"
        }
      ],
      "payable": false,
      "stateMutability": "view",
      "type": "function"
    },
    {
      "constant": true,
      "inputs": [],
      "name": "avatar",
      "outputs": [
        {
          "internalType": "contract Avatar",
          "name": "",
          "type": "address"
        }
      ],
      "payable": false,
      "stateMutability": "view",
      "type": "function"
    },
    {
      "constant": true,
      "inputs": [],
      "name": "maxLockingBatches",
      "outputs": [
        {
          "internalType": "uint256",
          "name": "",
          "type": "uint256"
        }
      ],
      "payable": false,
      "stateMutability": "view",
      "type": "function"
    },
    {
      "constant": true,
      "inputs": [],
      "name": "MAX_LOCKING_BATCHES_HARDCAP",
      "outputs": [
        {
          "internalType": "uint256",
          "name": "",
          "type": "uint256"
        }
      ],
      "payable": false,
      "stateMutability": "view",
      "type": "function"
    },
    {
      "constant": true,
      "inputs": [],
      "name": "getAgreementHash",
      "outputs": [
        {
          "internalType": "bytes32",
          "name": "",
          "type": "bytes32"
        }
      ],
      "payable": false,
      "stateMutability": "view",
      "type": "function"
    },
    {
      "constant": true,
      "inputs": [],
      "name": "batchTime",
      "outputs": [
        {
          "internalType": "uint256",
          "name": "",
          "type": "uint256"
        }
      ],
      "payable": false,
      "stateMutability": "view",
      "type": "function"
    },
    {
      "constant": true,
      "inputs": [],
      "name": "batchesIndexCap",
      "outputs": [
        {
          "internalType": "uint256",
          "name": "",
          "type": "uint256"
        }
      ],
      "payable": false,
      "stateMutability": "view",
      "type": "function"
    },
    {
      "constant": true,
      "inputs": [],
      "name": "startTime",
      "outputs": [
        {
          "internalType": "uint256",
          "name": "",
          "type": "uint256"
        }
      ],
      "payable": false,
      "stateMutability": "view",
      "type": "function"
    },
    {
      "constant": true,
      "inputs": [
        {
          "internalType": "address",
          "name": "",
          "type": "address"
        },
        {
          "internalType": "bytes32",
          "name": "",
          "type": "bytes32"
        }
      ],
      "name": "lockers",
      "outputs": [
        {
          "internalType": "uint256",
          "name": "amount",
          "type": "uint256"
        },
        {
          "internalType": "uint256",
          "name": "lockingTime",
          "type": "uint256"
        },
        {
          "internalType": "uint256",
          "name": "period",
          "type": "uint256"
        }
      ],
      "payable": false,
      "stateMutability": "view",
      "type": "function"
    },
    {
      "constant": true,
      "inputs": [],
      "name": "batchesCounter",
      "outputs": [
        {
          "internalType": "uint256",
          "name": "",
          "type": "uint256"
        }
      ],
      "payable": false,
      "stateMutability": "view",
      "type": "function"
    },
    {
      "constant": true,
      "inputs": [],
      "name": "reputationRewardLeft",
      "outputs": [
        {
          "internalType": "uint256",
          "name": "",
          "type": "uint256"
        }
      ],
      "payable": false,
      "stateMutability": "view",
      "type": "function"
    },
    {
      "constant": true,
      "inputs": [
        {
          "internalType": "uint256",
          "name": "",
          "type": "uint256"
        }
      ],
      "name": "batches",
      "outputs": [
        {
          "internalType": "uint256",
          "name": "totalScore",
          "type": "uint256"
        }
      ],
      "payable": false,
      "stateMutability": "view",
      "type": "function"
    },
    {
      "constant": true,
      "inputs": [],
      "name": "totalLockedLeft",
      "outputs": [
        {
          "internalType": "uint256",
          "name": "",
          "type": "uint256"
        }
      ],
      "payable": false,
      "stateMutability": "view",
      "type": "function"
    },
    {
      "constant": true,
      "inputs": [],
      "name": "token",
      "outputs": [
        {
          "internalType": "contract IERC20",
          "name": "",
          "type": "address"
        }
      ],
      "payable": false,
      "stateMutability": "view",
      "type": "function"
    },
    {
      "anonymous": false,
      "inputs": [
        {
          "indexed": true,
          "internalType": "bytes32",
          "name": "_lockingId",
          "type": "bytes32"
        },
        {
          "indexed": true,
          "internalType": "address",
          "name": "_beneficiary",
          "type": "address"
        },
        {
          "indexed": false,
          "internalType": "uint256",
          "name": "_amount",
          "type": "uint256"
        }
      ],
      "name": "Redeem",
      "type": "event"
    },
    {
      "anonymous": false,
      "inputs": [
        {
          "indexed": true,
          "internalType": "bytes32",
          "name": "_lockingId",
          "type": "bytes32"
        },
        {
          "indexed": true,
          "internalType": "address",
          "name": "_beneficiary",
          "type": "address"
        },
        {
          "indexed": false,
          "internalType": "uint256",
          "name": "_amount",
          "type": "uint256"
        }
      ],
      "name": "Release",
      "type": "event"
    },
    {
      "anonymous": false,
      "inputs": [
        {
          "indexed": true,
          "internalType": "address",
          "name": "_locker",
          "type": "address"
        },
        {
          "indexed": true,
          "internalType": "bytes32",
          "name": "_lockingId",
          "type": "bytes32"
        },
        {
          "indexed": false,
          "internalType": "uint256",
          "name": "_amount",
          "type": "uint256"
        },
        {
          "indexed": false,
          "internalType": "uint256",
          "name": "_period",
          "type": "uint256"
        }
      ],
      "name": "LockToken",
      "type": "event"
    },
    {
      "anonymous": false,
      "inputs": [
        {
          "indexed": true,
          "internalType": "address",
          "name": "_locker",
          "type": "address"
        },
        {
          "indexed": true,
          "internalType": "bytes32",
          "name": "_lockingId",
          "type": "bytes32"
        },
        {
          "indexed": false,
          "internalType": "uint256",
          "name": "_extendPeriod",
          "type": "uint256"
        }
      ],
      "name": "ExtendLocking",
      "type": "event"
    },
    {
      "constant": false,
      "inputs": [
        {
          "internalType": "contract Avatar",
          "name": "_avatar",
          "type": "address"
        },
        {
          "internalType": "uint256",
          "name": "_reputationReward",
          "type": "uint256"
        },
        {
          "internalType": "uint256",
          "name": "_startTime",
          "type": "uint256"
        },
        {
          "internalType": "uint256",
          "name": "_batchTime",
          "type": "uint256"
        },
        {
          "internalType": "uint256",
          "name": "_redeemEnableTime",
          "type": "uint256"
        },
        {
          "internalType": "uint256",
          "name": "_maxLockingBatches",
          "type": "uint256"
        },
        {
          "internalType": "uint256",
          "name": "_repRewardConstA",
          "type": "uint256"
        },
        {
          "internalType": "uint256",
          "name": "_repRewardConstB",
          "type": "uint256"
        },
        {
          "internalType": "uint256",
          "name": "_batchesIndexCap",
          "type": "uint256"
        },
        {
          "internalType": "contract IERC20",
          "name": "_token",
          "type": "address"
        },
        {
          "internalType": "bytes32",
          "name": "_agreementHash",
          "type": "bytes32"
        }
      ],
      "name": "initialize",
      "outputs": [],
      "payable": false,
      "stateMutability": "nonpayable",
      "type": "function"
    },
    {
      "constant": false,
      "inputs": [
        {
          "internalType": "address",
          "name": "_beneficiary",
          "type": "address"
        },
        {
          "internalType": "bytes32",
          "name": "_lockingId",
          "type": "bytes32"
        }
      ],
      "name": "redeem",
      "outputs": [
        {
          "internalType": "uint256",
          "name": "reputation",
          "type": "uint256"
        }
      ],
      "payable": false,
      "stateMutability": "nonpayable",
      "type": "function"
    },
    {
      "constant": false,
      "inputs": [
        {
          "internalType": "uint256",
          "name": "_amount",
          "type": "uint256"
        },
        {
          "internalType": "uint256",
          "name": "_period",
          "type": "uint256"
        },
        {
          "internalType": "uint256",
          "name": "_batchIndexToLockIn",
          "type": "uint256"
        },
        {
          "internalType": "bytes32",
          "name": "_agreementHash",
          "type": "bytes32"
        }
      ],
      "name": "lock",
      "outputs": [
        {
          "internalType": "bytes32",
          "name": "lockingId",
          "type": "bytes32"
        }
      ],
      "payable": false,
      "stateMutability": "nonpayable",
      "type": "function"
    },
    {
      "constant": false,
      "inputs": [
        {
          "internalType": "uint256",
          "name": "_extendPeriod",
          "type": "uint256"
        },
        {
          "internalType": "uint256",
          "name": "_batchIndexToLockIn",
          "type": "uint256"
        },
        {
          "internalType": "bytes32",
          "name": "_lockingId",
          "type": "bytes32"
        },
        {
          "internalType": "bytes32",
          "name": "_agreementHash",
          "type": "bytes32"
        }
      ],
      "name": "extendLocking",
      "outputs": [],
      "payable": false,
      "stateMutability": "nonpayable",
      "type": "function"
    },
    {
      "constant": false,
      "inputs": [
        {
          "internalType": "address",
          "name": "_beneficiary",
          "type": "address"
        },
        {
          "internalType": "bytes32",
          "name": "_lockingId",
          "type": "bytes32"
        }
      ],
      "name": "release",
      "outputs": [
        {
          "internalType": "uint256",
          "name": "amount",
          "type": "uint256"
        }
      ],
      "payable": false,
      "stateMutability": "nonpayable",
      "type": "function"
    },
    {
      "constant": true,
      "inputs": [
        {
          "internalType": "uint256",
          "name": "_batchIndex",
          "type": "uint256"
        }
      ],
      "name": "repRewardPerBatch",
      "outputs": [
        {
          "internalType": "uint256",
          "name": "repReward",
          "type": "uint256"
        }
      ],
      "payable": false,
      "stateMutability": "view",
      "type": "function"
    }
  ],
  "bytecode": "0x608060405234801561001057600080fd5b5061198d806100206000396000f3fe608060405234801561001057600080fd5b50600436106101425760003560e01c80637b3e46f8116100b8578063b32c4d8d1161007c578063b32c4d8d1461029c578063c348a24b146102b9578063c85c8925146102c1578063d7c2eec7146102ed578063f6a7400114610319578063fc0c546a1461038357610142565b80637b3e46f8146101e25780638380574214610211578063926881fc1461025b578063ac11e62814610263578063afe0e33c1461029457610142565b80635b42f48b1161010a5780635b42f48b146101b25780635eff3f29146101ba578063696da921146101c25780636c9d43b6146101ca578063746c0a60146101d257806378e97925146101da57610142565b806303840c6c146101475780630afc4df3146101615780633d1678f41461017e578063591451f7146101865780635aef7de61461018e575b600080fd5b61014f61038b565b60408051918252519081900360200190f35b61014f6004803603602081101561017757600080fd5b5035610391565b61014f6103c4565b61014f6103ca565b6101966103d0565b604080516001600160a01b039092168252519081900360200190f35b61014f6103df565b61014f6103e5565b61014f6103ea565b61014f6103f0565b61014f6103f6565b61014f6103fc565b61014f600480360360808110156101f857600080fd5b5080359060208101359060408101359060600135610402565b61023d6004803603604081101561022757600080fd5b506001600160a01b03813516906020013561076e565b60408051938452602084019290925282820152519081900360600190f35b61014f610796565b6102926004803603608081101561027957600080fd5b508035906020810135906040810135906060013561079c565b005b61014f610a7c565b61014f600480360360208110156102b257600080fd5b5035610a82565b61014f610a94565b61014f600480360360408110156102d757600080fd5b506001600160a01b038135169060200135610a9a565b61014f6004803603604081101561030357600080fd5b506001600160a01b038135169060200135610e19565b610292600480360361016081101561033057600080fd5b506001600160a01b03813581169160208101359160408201359160608101359160808201359160a08101359160c08201359160e08101359161010082013591610120810135909116906101400135610f6b565b610196611240565b600d5481565b6000600e5482116103bf576103bc600c546103b784600d5461124f90919063ffffffff16565b6112a0565b90505b919050565b60065481565b600c5481565b6003546001600160a01b031681565b60075481565b601881565b60005490565b60085481565b600e5481565b60055481565b60008160005481146104455760405162461bcd60e51b81526004018080602001828103825260288152602001806118cd6028913960400191505060405180910390fd5b6000861161049a576040805162461bcd60e51b815260206004820152601c60248201527f6c6f636b696e6720616d6f756e742073686f756c64206265203e203000000000604482015290519081900360640190fd5b6005544210156104db5760405162461bcd60e51b815260040180806020018281038252602e815260200180611797602e913960400191505060405180910390fd5b60075485111561051c5760405162461bcd60e51b81526004018080602001828103825260218152602001806118566021913960400191505060405180910390fd5b60008511610568576040805162461bcd60e51b8152602060048201526014602482015273706572696f6420657175616c20746f207a65726f60601b604482015290519081900360640190fd5b600e5485850111156105c1576040805162461bcd60e51b815260206004820152601a60248201527f657863656564206d617820616c6c6f7765642062617463686573000000000000604482015290519081900360640190fd5b6009546105df906001600160a01b031633308963ffffffff61130416565b60006008546005544203816105f057fe5b04905084811461063f576040805162461bcd60e51b81526020600482015260156024820152746c6f636b696e67206973206e6f742061637469766560581b604482015290519081900360640190fd5b85600019828201015b82811261069657600081815260026020526040902080546000198401938a036001018b02906106779082611487565b8255336000908152600190920160205260409091205560001901610648565b50600a54604080513060601b6020808301919091526034808301859052835180840390910181526054909201909252805191012094506106dd90600163ffffffff61148716565b600a55336000908152600160208181526040808420888552909152909120898155600281018990554291810191909155600b54610720908a63ffffffff61148716565b600b55604080518a8152602081018a90528151879233927f2ae51805ca36716d7f414d7a905603dec4da9d27382954e042f226df72b3175d929081900390910190a350505050949350505050565b6001602081815260009384526040808520909152918352912080549181015460029091015483565b600a5481565b8060005481146107dd5760405162461bcd60e51b81526004018080602001828103825260288152602001806118cd6028913960400191505060405180910390fd5b33600090815260016020818152604080842087855290915290912090810154610840576040805162461bcd60e51b815260206004820152601060248201526f1ddc9bdb99c81b1bd8dada5b99c81a5960821b604482015290519081900360640190fd5b600061087086600854600554600854866002015402866001015401038161086357fe5b049063ffffffff6114e816565b600754909150878201908111156108b85760405162461bcd60e51b81526004018080602001828103825260298152602001806118776029913960400191505060405180910390fd5b600088116108f75760405162461bcd60e51b81526004018080602001828103825260238152602001806118126023913960400191505060405180910390fd5b600e548188011115610950576040805162461bcd60e51b815260206004820152601a60248201527f657863656564206d617820616c6c6f7765642062617463686573000000000000604482015290519081900360640190fd5b600060085460055442038161096157fe5b0490508781146109b0576040805162461bcd60e51b81526020600482015260156024820152746c6f636b696e67206973206e6f742061637469766560581b604482015290519081900360640190fd5b81600019828201015b828112610a2e5760008181526002602090815260408083208954338552600180830190945291909320548354600019870196890390930190910291610a0f9190610a039084611487565b9063ffffffff6114e816565b82553360009081526001909201602052604090912055600019016109b9565b506002850180548b019055604080518b81529051899133917ff844d2ad5423e4e7d66be698f5c4cdbccf3df0de4041578f837b601d176b8e689181900360200190a350505050505050505050565b60045481565b60026020526000908152604090205481565b600b5481565b60006006544211610aeb576040805162461bcd60e51b81526020600482015260166024820152756e6f77203e2072656465656d456e61626c6554696d6560501b604482015290519081900360640190fd5b6001600160a01b038316600090815260016020818152604080842086855290915282206008546005549282015491939290910381610b2557fe5b0490506000600854600554420381610b3957fe5b0490506000610b57846002015484018361154590919063ffffffff16565b90505b80831015610c065760008381526002602090815260408083206001600160a01b038b16845260018101909252909120548015610bf9576001600160a01b03891660009081526001830160205260408120819055610bb686610391565b90506000610bcc610bc68461155b565b836112a0565b9050610bf4610be782610be2876000015461155b565b611570565b8a9063ffffffff61148716565b985050505b5050600190920191610b5a565b610c0f85611589565b6001600160d81b0316945060008511610c6f576040805162461bcd60e51b815260206004820152601960248201527f72657075746174696f6e20746f2072656465656d206973203000000000000000604482015290519081900360640190fd5b600454610c82908663ffffffff6114e816565b600490815560035460408051638da5cb5b60e01b815290516001600160a01b0390921692638da5cb5b928282019260209290829003018186803b158015610cc857600080fd5b505afa158015610cdc573d6000803e3d6000fd5b505050506040513d6020811015610cf257600080fd5b50516003546040805163757cca5960e11b8152600481018990526001600160a01b038b8116602483015292831660448201529051919092169163eaf994b29160648083019260209291908290030181600087803b158015610d5257600080fd5b505af1158015610d66573d6000803e3d6000fd5b505050506040513d6020811015610d7c57600080fd5b5051610dcf576040805162461bcd60e51b815260206004820152601e60248201527f6d696e742072657075746174696f6e2073686f756c6420737563636565640000604482015290519081900360640190fd5b6040805186815290516001600160a01b0389169188917fc1d8140f5bf31e06ddd48b4deb96488598efd767dc846befd4faf27a3fe986df9181900360200190a35050505092915050565b6001600160a01b038216600090815260016020908152604080832084845290915281208054610e86576040805162461bcd60e51b81526020600482015260146024820152730616d6f756e742073686f756c64206265203e20360641b604482015290519081900360640190fd5b8054600082556008546002830154600184015492945002014211610ef1576040805162461bcd60e51b815260206004820152601960248201527f6c6f636b696e6720706572696f64206e6f742070617373656400000000000000604482015290519081900360640190fd5b600b54610f04908363ffffffff6114e816565b600b55600954610f24906001600160a01b0316858463ffffffff61159316565b6040805183815290516001600160a01b0386169185917fcb7ab693259d2332e08e7666832578144deb74443e37a762847e848793fc29819181900360200190a35092915050565b6003546001600160a01b031615610fc9576040805162461bcd60e51b815260206004820152601b60248201527f63616e2062652063616c6c6564206f6e6c79206f6e652074696d650000000000604482015290519081900360640190fd5b6001600160a01b038b1661101c576040805162461bcd60e51b81526020600482015260156024820152746176617461722063616e6e6f74206265207a65726f60581b604482015290519081900360640190fd5b600f8811611071576040805162461bcd60e51b815260206004820152601860248201527f626174636854696d652073686f756c64206265203e2031350000000000000000604482015290519081900360640190fd5b60188611156110b15760405162461bcd60e51b815260040180806020018281038252603a8152602001806118f5603a913960400191505060405180910390fd5b8789018710156110f25760405162461bcd60e51b815260040180806020018281038252602a81526020018061192f602a913960400191505060405180910390fd5b60648311156111325760405162461bcd60e51b81526004018080602001828103825260288152602001806117ea6028913960400191505060405180910390fd5b600980546001600160a01b038085166001600160a01b03199283161790925560038054928e1692909116919091179055600589905560048a90556006879055600786905560088890556103e884106111bb5760405162461bcd60e51b81526004018080602001828103825260218152602001806118356021913960400191505060405180910390fd5b89600c54106111fb5760405162461bcd60e51b815260040180806020018281038252602d8152602001806118a0602d913960400191505060405180910390fd5b6112048561155b565b600c556112226001600160d81b0385166103e863ffffffff61171516565b600d55600e83905561123381611736565b5050505050505050505050565b6009546001600160a01b031681565b60008282600160281b5b81156112975781600116600114156112785761127581846112a0565b90505b60019190911c9081156112925761128f83846112a0565b92505b611259565b95945050505050565b6000828202828482816112af57fe5b04146112fa576040805162461bcd60e51b81526020600482015260156024820152745265616c4d617468206d756c206f766572666c6f7760581b604482015290519081900360640190fd5b60281c9392505050565b611316846001600160a01b0316611790565b61131f57600080fd5b60006060856001600160a01b03166040518060600160405280602581526020016117c5602591398051602091820120604080516001600160a01b03808b166024830152891660448201526064808201899052825180830390910181526084909101825292830180516001600160e01b03166001600160e01b0319909316929092178252518251909182918083835b602083106113cc5780518252601f1990920191602091820191016113ad565b6001836020036101000a0380198251168184511680821785525050505050509050019150506000604051808303816000865af19150503d806000811461142e576040519150601f19603f3d011682016040523d82523d6000602084013e611433565b606091505b50915091508161144257600080fd5b80511580611476575080516020148015611476575080601f8151811061146457fe5b01602001516001600160f81b03191615155b61147f57600080fd5b505050505050565b6000828201838110156114e1576040805162461bcd60e51b815260206004820152601b60248201527f536166654d6174683a206164646974696f6e206f766572666c6f770000000000604482015290519081900360640190fd5b9392505050565b60008282111561153f576040805162461bcd60e51b815260206004820152601e60248201527f536166654d6174683a207375627472616374696f6e206f766572666c6f770000604482015290519081900360640190fd5b50900390565b600081831061155457816114e1565b5090919050565b6001600160d81b038116600160281b02919050565b600081600160281b84028161158157fe5b049392505050565b600160281b900490565b6115a5836001600160a01b0316611790565b6115ae57600080fd5b604080518082018252601981527f7472616e7366657228616464726573732c75696e74323536290000000000000060209182015281516001600160a01b0385811660248301526044808301869052845180840390910181526064909201845291810180516001600160e01b031663a9059cbb60e01b1781529251815160009460609489169392918291908083835b6020831061165b5780518252601f19909201916020918201910161163c565b6001836020036101000a0380198251168184511680821785525050505050509050019150506000604051808303816000865af19150503d80600081146116bd576040519150601f19603f3d011682016040523d82523d6000602084013e6116c2565b606091505b5091509150816116d157600080fd5b80511580611705575080516020148015611705575080601f815181106116f357fe5b01602001516001600160f81b03191615155b61170e57600080fd5b5050505050565b60006114e16001600160d81b03808516600160281b90810291851602611570565b6000541561178b576040805162461bcd60e51b815260206004820152601b60248201527f43616e206e6f74207365742061677265656d656e742074776963650000000000604482015290519081900360640190fd5b600055565b3b15159056fe6c6f636b696e6720697320656e61626c65206f6e6c79206166746572206c6f636b696e6720737461727454696d657472616e7366657246726f6d28616464726573732c616464726573732c75696e74323536295f62617463686573496e646578436170203e20424154434845535f494e4445585f48415244434150657874656e64206c6f636b696e6720706572696f6420657175616c20746f207a65726f5f726570526577617264436f6e7374422073686f756c64206265203c2031303030706572696f642065786365656420746865206d6178696d756d20616c6c6f7765646c6f636b696e6720706572696f642065786365656420746865206d6178696d756d20616c6c6f776564726570526577617264436f6e7374412073686f756c64206265203c205f72657075746174696f6e52657761726453656e646572206d7573742073656e64207468652072696768742061677265656d656e74486173686d61784c6f636b696e67426174636865732073686f756c64206265203c3d204d41585f4c4f434b494e475f424154434845535f484152444341505f72656465656d456e61626c6554696d65203e3d205f737461727454696d652b5f626174636854696d65a265627a7a723158201524148742f8dfc65ee3447f521e2bd4855942431ccd82b48921c84d05f5ff5f64736f6c634300050b0032",
  "source": "pragma solidity ^0.5.11;\n\nimport \"openzeppelin-solidity/contracts/math/SafeMath.sol\";\nimport \"openzeppelin-solidity/contracts/math/Math.sol\";\nimport \"../controller/ControllerInterface.sol\";\nimport \"../libs/SafeERC20.sol\";\nimport \"./Agreement.sol\";\nimport { RealMath } from \"@daostack/infra/contracts/libs/RealMath.sol\";\n\n/**\n * @title A scheme for continuous locking ERC20 Token for reputation\n */\n\ncontract ContinuousLocking4Reputation is Agreement {\n    using SafeMath for uint256;\n    using SafeERC20 for address;\n    using RealMath for uint216;\n    using RealMath for uint256;\n    using Math for uint256;\n\n    event Redeem(bytes32 indexed _lockingId, address indexed _beneficiary, uint256 _amount);\n    event Release(bytes32 indexed _lockingId, address indexed _beneficiary, uint256 _amount);\n    event LockToken(address indexed _locker, bytes32 indexed _lockingId, uint256 _amount, uint256 _period);\n    event ExtendLocking(address indexed _locker, bytes32 indexed _lockingId, uint256 _extendPeriod);\n\n    struct Batch {\n        uint256 totalScore;\n        // A mapping from locker addresses to their locking score.\n        mapping(address=>uint256) scores;\n    }\n\n    struct Lock {\n        uint256 amount;\n        uint256 lockingTime;\n        uint256 period;\n    }\n\n    // A mapping from lockers addresses to their locks.\n    mapping(address => mapping(bytes32=>Lock)) public lockers;\n    //A mapping from batch index to batch.\n    mapping(uint256 => Batch) public batches;\n\n    Avatar public avatar;\n    uint256 public reputationRewardLeft;\n    uint256 public startTime;\n    uint256 public redeemEnableTime;\n    uint256 public maxLockingBatches;\n    uint256 public batchTime;\n    IERC20 public token;\n    uint256 public batchesCounter; // Total number of batches\n    uint256 public totalLockedLeft;\n    uint256 public repRewardConstA;\n    uint256 public repRewardConstB;\n    uint256 public batchesIndexCap;\n\n    uint256 constant private REAL_FBITS = 40;\n    /**\n     * What's the first non-fractional bit\n     */\n\n    uint256 constant private REAL_ONE = uint256(1) << REAL_FBITS;\n    uint256 constant private BATCHES_INDEX_HARDCAP = 100;\n    uint256 constant public MAX_LOCKING_BATCHES_HARDCAP = 24;\n\n    /**\n     * @dev initialize\n     * @param _avatar the avatar to mint reputation from\n     * @param _reputationReward the reputation reward per locking batch that this contract will reward\n     *        for the token locking\n     * @param _startTime locking period start time\n     * @param _batchTime batch time (e.g 30 days).\n     * @param _redeemEnableTime redeem enable time .\n     *        redeem reputation can be done after this time.\n     * @param _maxLockingBatches - maximum number of locking batches (in _batchTime units)\n     * @param _repRewardConstA - reputation allocation per batch is calculated by :\n     *   _repRewardConstA * (_repRewardConstB ** batchIndex)\n     * @param _repRewardConstB - reputation allocation per batch is calculated by :\n     *   _repRewardConstA * (_repRewardConstB ** batchIndex)\n     * @param _batchesIndexCap  the max batch index which allows to lock in . this value capped by BATCHES_HARDCAP\n     * @param _token the locking token\n     * @param _agreementHash is a hash of agreement required to be added to the TX by participants\n     */\n    function initialize(\n        Avatar _avatar,\n        uint256 _reputationReward,\n        uint256 _startTime,\n        uint256 _batchTime,\n        uint256 _redeemEnableTime,\n        uint256 _maxLockingBatches,\n        uint256 _repRewardConstA,\n        uint256 _repRewardConstB,\n        uint256 _batchesIndexCap,\n        IERC20 _token,\n        bytes32 _agreementHash )\n    external\n    {\n        require(avatar == Avatar(0), \"can be called only one time\");\n        require(_avatar != Avatar(0), \"avatar cannot be zero\");\n        //_batchTime should be greater than block interval\n        require(_batchTime > 15, \"batchTime should be > 15\");\n        require(_maxLockingBatches <= MAX_LOCKING_BATCHES_HARDCAP,\n        \"maxLockingBatches should be <= MAX_LOCKING_BATCHES_HARDCAP\");\n        require(_redeemEnableTime >= _startTime+_batchTime,\n        \"_redeemEnableTime >= _startTime+_batchTime\");\n        require(_batchesIndexCap <= BATCHES_INDEX_HARDCAP, \"_batchesIndexCap > BATCHES_INDEX_HARDCAP\");\n        token = _token;\n        avatar = _avatar;\n        startTime = _startTime;\n        reputationRewardLeft = _reputationReward;\n        redeemEnableTime = _redeemEnableTime;\n        maxLockingBatches = _maxLockingBatches;\n        batchTime = _batchTime;\n        require(_repRewardConstB < 1000, \"_repRewardConstB should be < 1000\");\n        require(repRewardConstA < _reputationReward, \"repRewardConstA should be < _reputationReward\");\n        repRewardConstA = toReal(uint216(_repRewardConstA));\n        repRewardConstB = uint216(_repRewardConstB).fraction(uint216(1000));\n        batchesIndexCap = _batchesIndexCap;\n        super.setAgreementHash(_agreementHash);\n    }\n\n    /**\n     * @dev redeem reputation function\n     * @param _beneficiary the beneficiary to redeem.\n     * @param _lockingId the lockingId to redeem from.\n     * @return uint256 reputation rewarded\n     */\n    function redeem(address _beneficiary, bytes32 _lockingId) public returns(uint256 reputation) {\n        // solhint-disable-next-line not-rely-on-time\n        require(now > redeemEnableTime, \"now > redeemEnableTime\");\n        Lock storage locker = lockers[_beneficiary][_lockingId];\n        uint256 batchIndexToRedeemFrom = (locker.lockingTime - startTime) / batchTime;\n        // solhint-disable-next-line not-rely-on-time\n        uint256 currentBatch = (now - startTime) / batchTime;\n        uint256 lastBatchIndexToRedeem =  currentBatch.min(batchIndexToRedeemFrom + locker.period);\n        for (batchIndexToRedeemFrom; batchIndexToRedeemFrom < lastBatchIndexToRedeem; batchIndexToRedeemFrom++) {\n            Batch storage locking = batches[batchIndexToRedeemFrom];\n            uint256 score = locking.scores[_beneficiary];\n            if (score > 0) {\n                locking.scores[_beneficiary] = 0;\n                uint256 batchReputationReward = repRewardPerBatch(batchIndexToRedeemFrom);\n                uint256 repRelation = mul(toReal(uint216(score)), batchReputationReward);\n                reputation = reputation.add(div(repRelation, toReal(uint216(locking.totalScore))));\n            }\n        }\n        reputation = uint256(fromReal(reputation));\n        require(reputation > 0, \"reputation to redeem is 0\");\n        // check that the reputation is sum zero\n        reputationRewardLeft = reputationRewardLeft.sub(reputation);\n        require(\n        ControllerInterface(avatar.owner())\n        .mintReputation(reputation, _beneficiary, address(avatar)), \"mint reputation should succeed\");\n        emit Redeem(_lockingId, _beneficiary, reputation);\n    }\n\n    /**\n     * @dev lock function\n     * @param _amount the amount of token to lock\n     * @param _period the period to lock. in batchTime units\n     * @param _batchIndexToLockIn the locking id to lock in.\n     * @return lockingId\n     */\n    function lock(uint256 _amount, uint256 _period, uint256 _batchIndexToLockIn, bytes32 _agreementHash)\n    public\n    onlyAgree(_agreementHash)\n    returns(bytes32 lockingId)\n    {\n        require(_amount > 0, \"locking amount should be > 0\");\n        // solhint-disable-next-line not-rely-on-time\n        require(now >= startTime, \"locking is enable only after locking startTime\");\n        require(_period <= maxLockingBatches, \"period exceed the maximum allowed\");\n        require(_period > 0, \"period equal to zero\");\n        require((_batchIndexToLockIn + _period) <= batchesIndexCap, \"exceed max allowed batches\");\n        address(token).safeTransferFrom(msg.sender, address(this), _amount);\n        // solhint-disable-next-line not-rely-on-time\n        uint256 batchIndexToLockIn = (now - startTime) / batchTime;\n        require(batchIndexToLockIn == _batchIndexToLockIn, \"locking is not active\");\n        uint256 j = _period;\n        //fill in the next batches scores.\n        for (int256 i = int256(batchIndexToLockIn + _period - 1); i >= int256(batchIndexToLockIn); i--) {\n            Batch storage batch = batches[uint256(i)];\n            uint256 score = (_period - j + 1) * _amount;\n            j--;\n            batch.totalScore = batch.totalScore.add(score);\n            batch.scores[msg.sender] = score;\n        }\n\n        lockingId = keccak256(abi.encodePacked(address(this), batchesCounter));\n        batchesCounter = batchesCounter.add(1);\n\n        Lock storage locker = lockers[msg.sender][lockingId];\n        locker.amount = _amount;\n        locker.period = _period;\n        // solhint-disable-next-line not-rely-on-time\n        locker.lockingTime = now;\n        totalLockedLeft = totalLockedLeft.add(_amount);\n        emit LockToken(msg.sender, lockingId, _amount, _period);\n    }\n\n    /**\n     * @dev extendLocking function\n     * @param _extendPeriod the period to extend the locking. in batchTime.\n     * @param _batchIndexToLockIn the locking id to lock at .\n     * @param _lockingId the locking id to extend\n     */\n    function extendLocking(\n        uint256 _extendPeriod,\n        uint256 _batchIndexToLockIn,\n        bytes32 _lockingId,\n        bytes32 _agreementHash)\n    public\n    onlyAgree(_agreementHash)\n    {\n        Lock storage locker = lockers[msg.sender][_lockingId];\n        require(locker.lockingTime != 0, \"wrong locking id\");\n        uint256 remainBatches =\n        ((locker.lockingTime + (locker.period*batchTime) - startTime)/batchTime).sub(_batchIndexToLockIn);\n        uint256 batchesCountFromCurrent = remainBatches + _extendPeriod;\n        require(batchesCountFromCurrent <= maxLockingBatches, \"locking period exceed the maximum allowed\");\n        require(_extendPeriod > 0, \"extend locking period equal to zero\");\n        require((_batchIndexToLockIn + batchesCountFromCurrent) <= batchesIndexCap,\n        \"exceed max allowed batches\");\n        // solhint-disable-next-line not-rely-on-time\n        uint256 batchIndexToLockIn = (now - startTime) / batchTime;\n        require(batchIndexToLockIn == _batchIndexToLockIn, \"locking is not active\");\n        uint256 j = batchesCountFromCurrent;\n        //fill in the next batche scores.\n        for (int256 i = int256(batchIndexToLockIn + batchesCountFromCurrent - 1);\n            i >= int256(batchIndexToLockIn);\n            i--) {\n                Batch storage batch = batches[uint256(i)];\n                uint256 score = (batchesCountFromCurrent - j + 1) * locker.amount;\n                j--;\n                batch.totalScore = batch.totalScore.add(score).sub(batch.scores[msg.sender]);\n                batch.scores[msg.sender] = score;\n            }\n        locker.period = locker.period + _extendPeriod;\n        emit ExtendLocking(msg.sender, _lockingId, _extendPeriod);\n    }\n\n    /**\n     * @dev release function\n     * @param _beneficiary the beneficiary for the release\n     * @param _lockingId the locking id to release\n     * @return bool\n     */\n    function release(address _beneficiary, bytes32 _lockingId) public returns(uint256 amount) {\n        Lock storage locker = lockers[_beneficiary][_lockingId];\n        require(locker.amount > 0, \"amount should be > 0\");\n        amount = locker.amount;\n        locker.amount = 0;\n        // solhint-disable-next-line not-rely-on-time\n        require(block.timestamp > locker.lockingTime + (locker.period*batchTime),\n        \"locking period not passed\");\n        totalLockedLeft = totalLockedLeft.sub(amount);\n        address(token).safeTransfer(_beneficiary, amount);\n        emit Release(_lockingId, _beneficiary, amount);\n    }\n\n    /**\n     * @dev repRewardPerBatch function\n     * the calculation is done the following formula:\n     * RepReward =  repRewardConstA * (repRewardConstB**_batchIndex)\n     * @param _batchIndex the batch number to calc rep reward of\n     * @return repReward\n     */\n    function repRewardPerBatch(uint256  _batchIndex) public view returns(uint256 repReward) {\n        if (_batchIndex <= batchesIndexCap) {\n            repReward = mul(repRewardConstA, repRewardConstB.pow(_batchIndex));\n        }\n    }\n\n    /**\n     * Multiply one real by another. Truncates overflows.\n     */\n    function mul(uint256 realA, uint256 realB) private pure returns (uint256) {\n        // When multiplying fixed point in x.y and z.w formats we get (x+z).(y+w) format.\n        // So we just have to clip off the extra REAL_FBITS fractional bits.\n        uint256 res = realA * realB;\n        require(res/realA == realB, \"RealMath mul overflow\");\n        return (res >> REAL_FBITS);\n    }\n\n    /**\n     * Convert an integer to a real. Preserves sign.\n     */\n    function toReal(uint216 ipart) private pure returns (uint256) {\n        return uint256(ipart) * REAL_ONE;\n    }\n\n    /**\n     * Convert a real to an integer. Preserves sign.\n     */\n    function fromReal(uint256 _realValue) private pure returns (uint216) {\n        return uint216(_realValue / REAL_ONE);\n    }\n\n    /**\n     * Divide one real by another real. Truncates overflows.\n     */\n    function div(uint256 realNumerator, uint256 realDenominator) private pure returns (uint256) {\n        // We use the reverse of the multiplication trick: convert numerator from\n        // x.y to (x+z).(y+w) fixed point, then divide by denom in z.w fixed point.\n        return uint256((uint256(realNumerator) * REAL_ONE) / uint256(realDenominator));\n    }\n\n}\n",
  "sourcePath": "/Users/oren/daostack/arc/contracts/schemes/ContinuousLockingToken4Reputation.sol",
  "compiler": {
    "name": "solc",
    "version": "0.5.11+commit.c082d0b4.Emscripten.clang"
  },
  "schemaVersion": "3.0.14",
  "updatedAt": "2019-09-09T09:08:22.245Z",
  "devdoc": {
    "methods": {
      "extendLocking(uint256,uint256,bytes32,bytes32)": {
        "details": "extendLocking function",
        "params": {
          "_batchIndexToLockIn": "the locking id to lock at .",
          "_extendPeriod": "the period to extend the locking. in batchTime.",
          "_lockingId": "the locking id to extend"
        }
      },
      "getAgreementHash()": {
        "details": "getAgreementHash",
        "return": "bytes32 agreementHash"
      },
      "initialize(address,uint256,uint256,uint256,uint256,uint256,uint256,uint256,uint256,address,bytes32)": {
        "details": "initialize",
        "params": {
          "_agreementHash": "is a hash of agreement required to be added to the TX by participants",
          "_avatar": "the avatar to mint reputation from",
          "_batchTime": "batch time (e.g 30 days).",
          "_batchesIndexCap": "the max batch index which allows to lock in . this value capped by BATCHES_HARDCAP",
          "_maxLockingBatches": "- maximum number of locking batches (in _batchTime units)",
          "_redeemEnableTime": "redeem enable time .       redeem reputation can be done after this time.",
          "_repRewardConstA": "- reputation allocation per batch is calculated by :  _repRewardConstA * (_repRewardConstB ** batchIndex)",
          "_repRewardConstB": "- reputation allocation per batch is calculated by :  _repRewardConstA * (_repRewardConstB ** batchIndex)",
          "_reputationReward": "the reputation reward per locking batch that this contract will reward       for the token locking",
          "_startTime": "locking period start time",
          "_token": "the locking token"
        }
      },
      "lock(uint256,uint256,uint256,bytes32)": {
        "details": "lock function",
        "params": {
          "_amount": "the amount of token to lock",
          "_batchIndexToLockIn": "the locking id to lock in.",
          "_period": "the period to lock. in batchTime units"
        },
        "return": "lockingId"
      },
      "redeem(address,bytes32)": {
        "details": "redeem reputation function",
        "params": {
          "_beneficiary": "the beneficiary to redeem.",
          "_lockingId": "the lockingId to redeem from."
        },
        "return": "uint256 reputation rewarded"
      },
      "release(address,bytes32)": {
        "details": "release function",
        "params": {
          "_beneficiary": "the beneficiary for the release",
          "_lockingId": "the locking id to release"
        },
        "return": "bool"
      },
      "repRewardPerBatch(uint256)": {
        "details": "repRewardPerBatch function the calculation is done the following formula: RepReward =  repRewardConstA * (repRewardConstB**_batchIndex)",
        "params": {
          "_batchIndex": "the batch number to calc rep reward of"
        },
        "return": "repReward"
      }
    },
    "title": "A scheme for continuous locking ERC20 Token for reputation"
  },
  "userdoc": {
    "methods": {}
  }
}