{
  "contractName": "Redeemer",
  "abi": [
    {
      "constant": false,
      "inputs": [
        {
          "internalType": "contract ContributionReward",
          "name": "_contributionReward",
          "type": "address"
        },
        {
          "internalType": "contract GenesisProtocol",
          "name": "_genesisProtocol",
          "type": "address"
        },
        {
          "internalType": "bytes32",
          "name": "_proposalId",
          "type": "bytes32"
        },
        {
          "internalType": "contract Avatar",
          "name": "_avatar",
          "type": "address"
        },
        {
          "internalType": "address",
          "name": "_beneficiary",
          "type": "address"
        }
      ],
      "name": "redeem",
      "outputs": [
        {
          "internalType": "uint256[3]",
          "name": "gpRewards",
          "type": "uint256[3]"
        },
        {
          "internalType": "uint256[2]",
          "name": "gpDaoBountyReward",
          "type": "uint256[2]"
        },
        {
          "internalType": "bool",
          "name": "executed",
          "type": "bool"
        },
        {
          "internalType": "uint256",
          "name": "winningVote",
          "type": "uint256"
        },
        {
          "internalType": "int256",
          "name": "crReputationReward",
          "type": "int256"
        },
        {
          "internalType": "uint256",
          "name": "crNativeTokenReward",
          "type": "uint256"
        },
        {
          "internalType": "uint256",
          "name": "crEthReward",
          "type": "uint256"
        },
        {
          "internalType": "uint256",
          "name": "crExternalTokenReward",
          "type": "uint256"
        }
      ],
      "payable": false,
      "stateMutability": "nonpayable",
      "type": "function"
    }
  ],
  "bytecode": "0x608060405234801561001057600080fd5b50610b0c806100206000396000f3fe608060405234801561001057600080fd5b506004361061002b5760003560e01c806354ca023f14610030575b600080fd5b610076600480360360a081101561004657600080fd5b506001600160a01b0381358116916020810135821691604082013591606081013582169160809091013516610108565b6040518089606080838360005b8381101561009b578181015183820152602001610083565b5050505090500188600260200280838360005b838110156100c65781810151838201526020016100ae565b50505050905001871515151581526020018681526020018581526020018481526020018381526020018281526020019850505050505050505060405180910390f35b610110610a5c565b610118610a7a565b60008060008060008060008c6001600160a01b03166361d585da8d6040518263ffffffff1660e01b81526004018082815260200191505060206040518083038186803b15801561016757600080fd5b505afa15801561017b573d6000803e3d6000fd5b505050506040513d602081101561019157600080fd5b5051905060038160068111156101a357fe5b14806101ba575060048160068111156101b857fe5b145b806101d0575060058160068111156101ce57fe5b145b806101e6575060068160068111156101e457fe5b145b15610260578c6001600160a01b031663e751f2718d6040518263ffffffff1660e01b815260040180828152602001915050602060405180830381600087803b15801561023157600080fd5b505af1158015610245573d6000803e3d6000fd5b505050506040513d602081101561025b57600080fd5b505196505b8c6001600160a01b03166361d585da8d6040518263ffffffff1660e01b81526004018082815260200191505060206040518083038186803b1580156102a457600080fd5b505afa1580156102b8573d6000803e3d6000fd5b505050506040513d60208110156102ce57600080fd5b5051905060028160068111156102e057fe5b14806102f7575060018160068111156102f557fe5b145b15610571578c6001600160a01b031663cc3bf9e98d8c6040518363ffffffff1660e01b815260040180838152602001826001600160a01b03166001600160a01b0316815260200192505050606060405180830381600087803b15801561035c57600080fd5b505af1158015610370573d6000803e3d6000fd5b505050506040513d601f19601f82011682018060405250606081101561039557600080fd5b50985060028160068111156103a657fe5b1415610448578c6001600160a01b0316636359036b8d8c6040518363ffffffff1660e01b815260040180838152602001826001600160a01b03166001600160a01b03168152602001925050506040805180830381600087803b15801561040b57600080fd5b505af115801561041f573d6000803e3d6000fd5b505050506040513d604081101561043557600080fd5b508051602091820151918a019190915288525b8c6001600160a01b0316633c1338188d6040518263ffffffff1660e01b81526004018082815260200191505060206040518083038186803b15801561048c57600080fd5b505afa1580156104a0573d6000803e3d6000fd5b505050506040513d60208110156104b657600080fd5b8101908080519060200190929190505050955060008e6001600160a01b0316633a256daa8e8e6040518363ffffffff1660e01b815260040180838152602001826001600160a01b03166001600160a01b031681526020019250505060206040518083038186803b15801561052957600080fd5b505afa15801561053d573d6000803e3d6000fd5b505050506040513d602081101561055357600080fd5b50511115610571576105668e8d8d610582565b929750909550935091505b50959b50959b939950955095509550565b600080600080610590610a98565b60018082526020808301919091526040805163e074ee5560e01b8152600481018a90526001600160a01b038981166024830152600260448301529151600093928c169263e074ee559260648082019391829003018186803b1580156105f457600080fd5b505afa158015610608573d6000803e3d6000fd5b505050506040513d602081101561061e57600080fd5b505160408051636046f71d60e01b8152600481018b90526001600160a01b038a811660248301529151929350600092918c1691636046f71d91604480820192602092909190829003018186803b15801561067757600080fd5b505afa15801561068b573d6000803e3d6000fd5b505050506040513d60208110156106a157600080fd5b505160408051631c3a571360e01b8152600481018c90526001600160a01b038b811660248301529151929350600092918d1691631c3a571391604480820192602092909190829003018186803b1580156106fa57600080fd5b505afa15801561070e573d6000803e3d6000fd5b505050506040513d602081101561072457600080fd5b505160408051637b85ddcd60e11b8152600481018d90526001600160a01b038c811660248301529151929350600092918e169163f70bbb9a91604480820192602092909190829003018186803b15801561077d57600080fd5b505afa158015610791573d6000803e3d6000fd5b505050506040513d60208110156107a757600080fd5b505190506107bb848463ffffffff6109fa16565b92508215806107d35750828a6001600160a01b031631105b156107e457600060408601526107ec565b600160408601525b6040805163e074ee5560e01b8152600481018d90526001600160a01b038c81166024830152600360448301529151918e169163e074ee5591606480820192602092909190829003018186803b15801561084457600080fd5b505afa158015610858573d6000803e3d6000fd5b505050506040513d602081101561086e57600080fd5b50519350610882848363ffffffff6109fa16565b9150811580610911575081816001600160a01b03166370a082318c6040518263ffffffff1660e01b815260040180826001600160a01b03166001600160a01b0316815260200191505060206040518083038186803b1580156108e357600080fd5b505afa1580156108f7573d6000803e3d6000fd5b505050506040513d602081101561090d57600080fd5b5051105b15610922576000606086015261092a565b600160608601525b604051636ac5f84d60e11b8152600481018c81526001600160a01b038c811660248401528e169163d58bf09a918e918e918a9160440182608080838360005b83811015610981578181015183820152602001610969565b505050509050019350505050608060405180830381600087803b1580156109a757600080fd5b505af11580156109bb573d6000803e3d6000fd5b505050506040513d60808110156109d157600080fd5b50805160208201516040830151606090930151919f909e50919c509a5098505050505050505050565b600082610a0957506000610a56565b82820282848281610a1657fe5b0414610a535760405162461bcd60e51b8152600401808060200182810382526021815260200180610ab76021913960400191505060405180910390fd5b90505b92915050565b60405180606001604052806003906020820280388339509192915050565b60405180604001604052806002906020820280388339509192915050565b6040518060800160405280600490602082028038833950919291505056fe536166654d6174683a206d756c7469706c69636174696f6e206f766572666c6f77a265627a7a7231582008fd8f64b79de62ae76edc41d80791351de802fb8e4be07b3312bb968fda989764736f6c634300050b0032",
  "source": "pragma solidity ^0.5.11;\n\nimport \"../universalSchemes/ContributionReward.sol\";\nimport \"@daostack/infra/contracts/votingMachines/GenesisProtocol.sol\";\nimport \"openzeppelin-solidity/contracts/token/ERC20/IERC20.sol\";\n\n\ncontract Redeemer {\n    using SafeMath for uint;\n\n   /**\n    * @dev helper to redeem rewards for a proposal\n    * It calls execute on the proposal if it is not yet executed.\n    * It tries to redeem reputation and stake from the GenesisProtocol.\n    * It tries to redeem proposal rewards from the contribution rewards scheme.\n    * This function does not emit events.\n    * A client should listen to GenesisProtocol and ContributionReward redemption events\n    * to monitor redemption operations.\n    * @param _contributionReward contributionReward\n    * @param _genesisProtocol genesisProtocol\n    * @param _proposalId the ID of the voting in the voting machine\n    * @param _avatar address of the controller\n    * @param _beneficiary beneficiary\n    * @return gpRewards array\n    *          gpRewards[0] - stakerTokenAmount\n    *          gpRewards[1] - voterReputationAmount\n    *          gpRewards[2] - proposerReputationAmount\n    * @return gpDaoBountyReward array\n    *         gpDaoBountyReward[0] - staker dao bounty reward -\n    *                                will be zero for the case there is not enough tokens in avatar for the reward.\n    *         gpDaoBountyReward[1] - staker potential dao bounty reward.\n    * @return executed  bool true or false\n    * @return winningVote\n    *                   1 - executed or closed and the winning vote is YES\n    *                   2 - executed or closed and the winning vote is NO\n    * @return int256 crReputationReward Reputation - from ContributionReward\n    * @return int256 crNativeTokenReward NativeTokenReward - from ContributionReward\n    * @return int256 crEthReward Ether - from ContributionReward\n    * @return int256 crExternalTokenReward ExternalToken - from ContributionReward\n    */\n    function redeem(ContributionReward _contributionReward,\n                    GenesisProtocol _genesisProtocol,\n                    bytes32 _proposalId,\n                    Avatar _avatar,\n                    address _beneficiary)\n    external\n    returns(uint[3] memory gpRewards,\n            uint[2] memory gpDaoBountyReward,\n            bool executed,\n            uint256 winningVote,\n            int256 crReputationReward,\n            uint256 crNativeTokenReward,\n            uint256 crEthReward,\n            uint256 crExternalTokenReward)\n    {\n        GenesisProtocol.ProposalState pState = _genesisProtocol.state(_proposalId);\n\n        if ((pState == GenesisProtocolLogic.ProposalState.Queued)||\n            (pState == GenesisProtocolLogic.ProposalState.PreBoosted)||\n            (pState == GenesisProtocolLogic.ProposalState.Boosted)||\n            (pState == GenesisProtocolLogic.ProposalState.QuietEndingPeriod)) {\n            executed = _genesisProtocol.execute(_proposalId);\n        }\n        pState = _genesisProtocol.state(_proposalId);\n        if ((pState == GenesisProtocolLogic.ProposalState.Executed) ||\n            (pState == GenesisProtocolLogic.ProposalState.ExpiredInQueue)) {\n            gpRewards = _genesisProtocol.redeem(_proposalId, _beneficiary);\n            if (pState == GenesisProtocolLogic.ProposalState.Executed) {\n                (gpDaoBountyReward[0], gpDaoBountyReward[1]) =\n                _genesisProtocol.redeemDaoBounty(_proposalId, _beneficiary);\n            }\n            winningVote = _genesisProtocol.winningVote(_proposalId);\n            //redeem from contributionReward only if it executed\n            if (_contributionReward.getProposalExecutionTime(_proposalId, address(_avatar)) > 0) {\n                (crReputationReward, crNativeTokenReward, crEthReward, crExternalTokenReward) =\n                contributionRewardRedeem(_contributionReward, _proposalId, _avatar);\n            }\n        }\n    }\n\n    function contributionRewardRedeem(ContributionReward _contributionReward, bytes32 _proposalId, Avatar _avatar)\n    private\n    returns (int256 reputation, uint256 nativeToken, uint256 eth, uint256 externalToken)\n    {\n        bool[4] memory whatToRedeem;\n        whatToRedeem[0] = true; //reputation\n        whatToRedeem[1] = true; //nativeToken\n        uint256 periodsToPay = _contributionReward.getPeriodsToPay(_proposalId, address(_avatar), 2);\n        uint256 ethReward = _contributionReward.getProposalEthReward(_proposalId, address(_avatar));\n        uint256 externalTokenReward = _contributionReward.getProposalExternalTokenReward(_proposalId, address(_avatar));\n        address externalTokenAddress = _contributionReward.getProposalExternalToken(_proposalId, address(_avatar));\n        ethReward = periodsToPay.mul(ethReward);\n        if ((ethReward == 0) || (address(_avatar).balance < ethReward)) {\n            whatToRedeem[2] = false;\n        } else {\n            whatToRedeem[2] = true;\n        }\n        periodsToPay = _contributionReward.getPeriodsToPay(_proposalId, address(_avatar), 3);\n        externalTokenReward = periodsToPay.mul(externalTokenReward);\n        if ((externalTokenReward == 0) ||\n            (IERC20(externalTokenAddress).balanceOf(address(_avatar)) < externalTokenReward)) {\n            whatToRedeem[3] = false;\n        } else {\n            whatToRedeem[3] = true;\n        }\n        (reputation, nativeToken, eth, externalToken) = _contributionReward.redeem(_proposalId, _avatar, whatToRedeem);\n    }\n}\n",
  "sourcePath": "/Users/oren/daostack/arc/contracts/utils/Redeemer.sol",
  "compiler": {
    "name": "solc",
    "version": "0.5.11+commit.c082d0b4.Emscripten.clang"
  },
  "schemaVersion": "3.0.14",
  "updatedAt": "2019-09-09T09:08:22.360Z",
  "devdoc": {
    "methods": {
      "redeem(address,address,bytes32,address,address)": {
        "details": "helper to redeem rewards for a proposal It calls execute on the proposal if it is not yet executed. It tries to redeem reputation and stake from the GenesisProtocol. It tries to redeem proposal rewards from the contribution rewards scheme. This function does not emit events. A client should listen to GenesisProtocol and ContributionReward redemption events to monitor redemption operations.",
        "params": {
          "_avatar": "address of the controller",
          "_beneficiary": "beneficiary",
          "_contributionReward": "contributionReward",
          "_genesisProtocol": "genesisProtocol",
          "_proposalId": "the ID of the voting in the voting machine"
        },
        "return": "gpRewards array         gpRewards[0] - stakerTokenAmount         gpRewards[1] - voterReputationAmount         gpRewards[2] - proposerReputationAmountgpDaoBountyReward array        gpDaoBountyReward[0] - staker dao bounty reward -                               will be zero for the case there is not enough tokens in avatar for the reward.        gpDaoBountyReward[1] - staker potential dao bounty reward.executed  bool true or falsewinningVote                  1 - executed or closed and the winning vote is YES                  2 - executed or closed and the winning vote is NOint256 crReputationReward Reputation - from ContributionRewardint256 crNativeTokenReward NativeTokenReward - from ContributionRewardint256 crEthReward Ether - from ContributionRewardint256 crExternalTokenReward ExternalToken - from ContributionReward"
      }
    }
  },
  "userdoc": {
    "methods": {}
  }
}