{
  "contractName": "UController",
  "abi": [
    {
      "constant": true,
      "inputs": [
        {
          "internalType": "address",
          "name": "",
          "type": "address"
        }
      ],
      "name": "newControllers",
      "outputs": [
        {
          "internalType": "address",
          "name": "",
          "type": "address"
        }
      ],
      "payable": false,
      "stateMutability": "view",
      "type": "function"
    },
    {
      "constant": true,
      "inputs": [
        {
          "internalType": "address",
          "name": "",
          "type": "address"
        }
      ],
      "name": "organizations",
      "outputs": [
        {
          "internalType": "contract DAOToken",
          "name": "nativeToken",
          "type": "address"
        },
        {
          "internalType": "contract Reputation",
          "name": "nativeReputation",
          "type": "address"
        }
      ],
      "payable": false,
      "stateMutability": "view",
      "type": "function"
    },
    {
      "constant": true,
      "inputs": [
        {
          "internalType": "address",
          "name": "",
          "type": "address"
        }
      ],
      "name": "actors",
      "outputs": [
        {
          "internalType": "bool",
          "name": "",
          "type": "bool"
        }
      ],
      "payable": false,
      "stateMutability": "view",
      "type": "function"
    },
    {
      "anonymous": false,
      "inputs": [
        {
          "indexed": true,
          "internalType": "address",
          "name": "_sender",
          "type": "address"
        },
        {
          "indexed": true,
          "internalType": "address",
          "name": "_to",
          "type": "address"
        },
        {
          "indexed": false,
          "internalType": "uint256",
          "name": "_amount",
          "type": "uint256"
        },
        {
          "indexed": true,
          "internalType": "address",
          "name": "_avatar",
          "type": "address"
        }
      ],
      "name": "MintReputation",
      "type": "event"
    },
    {
      "anonymous": false,
      "inputs": [
        {
          "indexed": true,
          "internalType": "address",
          "name": "_sender",
          "type": "address"
        },
        {
          "indexed": true,
          "internalType": "address",
          "name": "_from",
          "type": "address"
        },
        {
          "indexed": false,
          "internalType": "uint256",
          "name": "_amount",
          "type": "uint256"
        },
        {
          "indexed": true,
          "internalType": "address",
          "name": "_avatar",
          "type": "address"
        }
      ],
      "name": "BurnReputation",
      "type": "event"
    },
    {
      "anonymous": false,
      "inputs": [
        {
          "indexed": true,
          "internalType": "address",
          "name": "_sender",
          "type": "address"
        },
        {
          "indexed": true,
          "internalType": "address",
          "name": "_beneficiary",
          "type": "address"
        },
        {
          "indexed": false,
          "internalType": "uint256",
          "name": "_amount",
          "type": "uint256"
        },
        {
          "indexed": true,
          "internalType": "address",
          "name": "_avatar",
          "type": "address"
        }
      ],
      "name": "MintTokens",
      "type": "event"
    },
    {
      "anonymous": false,
      "inputs": [
        {
          "indexed": true,
          "internalType": "address",
          "name": "_sender",
          "type": "address"
        },
        {
          "indexed": true,
          "internalType": "address",
          "name": "_scheme",
          "type": "address"
        },
        {
          "indexed": true,
          "internalType": "address",
          "name": "_avatar",
          "type": "address"
        }
      ],
      "name": "RegisterScheme",
      "type": "event"
    },
    {
      "anonymous": false,
      "inputs": [
        {
          "indexed": true,
          "internalType": "address",
          "name": "_sender",
          "type": "address"
        },
        {
          "indexed": true,
          "internalType": "address",
          "name": "_scheme",
          "type": "address"
        },
        {
          "indexed": true,
          "internalType": "address",
          "name": "_avatar",
          "type": "address"
        }
      ],
      "name": "UnregisterScheme",
      "type": "event"
    },
    {
      "anonymous": false,
      "inputs": [
        {
          "indexed": true,
          "internalType": "address",
          "name": "_oldController",
          "type": "address"
        },
        {
          "indexed": false,
          "internalType": "address",
          "name": "_newController",
          "type": "address"
        },
        {
          "indexed": false,
          "internalType": "address",
          "name": "_avatar",
          "type": "address"
        }
      ],
      "name": "UpgradeController",
      "type": "event"
    },
    {
      "anonymous": false,
      "inputs": [
        {
          "indexed": true,
          "internalType": "address",
          "name": "_globalConstraint",
          "type": "address"
        },
        {
          "indexed": false,
          "internalType": "bytes32",
          "name": "_params",
          "type": "bytes32"
        },
        {
          "indexed": false,
          "internalType": "enum GlobalConstraintInterface.CallPhase",
          "name": "_when",
          "type": "uint8"
        },
        {
          "indexed": true,
          "internalType": "address",
          "name": "_avatar",
          "type": "address"
        }
      ],
      "name": "AddGlobalConstraint",
      "type": "event"
    },
    {
      "anonymous": false,
      "inputs": [
        {
          "indexed": true,
          "internalType": "address",
          "name": "_globalConstraint",
          "type": "address"
        },
        {
          "indexed": false,
          "internalType": "uint256",
          "name": "_index",
          "type": "uint256"
        },
        {
          "indexed": false,
          "internalType": "bool",
          "name": "_isPre",
          "type": "bool"
        },
        {
          "indexed": true,
          "internalType": "address",
          "name": "_avatar",
          "type": "address"
        }
      ],
      "name": "RemoveGlobalConstraint",
      "type": "event"
    },
    {
      "constant": false,
      "inputs": [
        {
          "internalType": "contract Avatar",
          "name": "_avatar",
          "type": "address"
        }
      ],
      "name": "newOrganization",
      "outputs": [],
      "payable": false,
      "stateMutability": "nonpayable",
      "type": "function"
    },
    {
      "constant": false,
      "inputs": [
        {
          "internalType": "uint256",
          "name": "_amount",
          "type": "uint256"
        },
        {
          "internalType": "address",
          "name": "_to",
          "type": "address"
        },
        {
          "internalType": "address",
          "name": "_avatar",
          "type": "address"
        }
      ],
      "name": "mintReputation",
      "outputs": [
        {
          "internalType": "bool",
          "name": "",
          "type": "bool"
        }
      ],
      "payable": false,
      "stateMutability": "nonpayable",
      "type": "function"
    },
    {
      "constant": false,
      "inputs": [
        {
          "internalType": "uint256",
          "name": "_amount",
          "type": "uint256"
        },
        {
          "internalType": "address",
          "name": "_from",
          "type": "address"
        },
        {
          "internalType": "address",
          "name": "_avatar",
          "type": "address"
        }
      ],
      "name": "burnReputation",
      "outputs": [
        {
          "internalType": "bool",
          "name": "",
          "type": "bool"
        }
      ],
      "payable": false,
      "stateMutability": "nonpayable",
      "type": "function"
    },
    {
      "constant": false,
      "inputs": [
        {
          "internalType": "uint256",
          "name": "_amount",
          "type": "uint256"
        },
        {
          "internalType": "address",
          "name": "_beneficiary",
          "type": "address"
        },
        {
          "internalType": "address",
          "name": "_avatar",
          "type": "address"
        }
      ],
      "name": "mintTokens",
      "outputs": [
        {
          "internalType": "bool",
          "name": "",
          "type": "bool"
        }
      ],
      "payable": false,
      "stateMutability": "nonpayable",
      "type": "function"
    },
    {
      "constant": false,
      "inputs": [
        {
          "internalType": "address",
          "name": "_scheme",
          "type": "address"
        },
        {
          "internalType": "bytes32",
          "name": "_paramsHash",
          "type": "bytes32"
        },
        {
          "internalType": "bytes4",
          "name": "_permissions",
          "type": "bytes4"
        },
        {
          "internalType": "address",
          "name": "_avatar",
          "type": "address"
        }
      ],
      "name": "registerScheme",
      "outputs": [
        {
          "internalType": "bool",
          "name": "",
          "type": "bool"
        }
      ],
      "payable": false,
      "stateMutability": "nonpayable",
      "type": "function"
    },
    {
      "constant": false,
      "inputs": [
        {
          "internalType": "address",
          "name": "_scheme",
          "type": "address"
        },
        {
          "internalType": "address",
          "name": "_avatar",
          "type": "address"
        }
      ],
      "name": "unregisterScheme",
      "outputs": [
        {
          "internalType": "bool",
          "name": "",
          "type": "bool"
        }
      ],
      "payable": false,
      "stateMutability": "nonpayable",
      "type": "function"
    },
    {
      "constant": false,
      "inputs": [
        {
          "internalType": "address",
          "name": "_avatar",
          "type": "address"
        }
      ],
      "name": "unregisterSelf",
      "outputs": [
        {
          "internalType": "bool",
          "name": "",
          "type": "bool"
        }
      ],
      "payable": false,
      "stateMutability": "nonpayable",
      "type": "function"
    },
    {
      "constant": false,
      "inputs": [
        {
          "internalType": "address",
          "name": "_globalConstraint",
          "type": "address"
        },
        {
          "internalType": "bytes32",
          "name": "_params",
          "type": "bytes32"
        },
        {
          "internalType": "address",
          "name": "_avatar",
          "type": "address"
        }
      ],
      "name": "addGlobalConstraint",
      "outputs": [
        {
          "internalType": "bool",
          "name": "",
          "type": "bool"
        }
      ],
      "payable": false,
      "stateMutability": "nonpayable",
      "type": "function"
    },
    {
      "constant": false,
      "inputs": [
        {
          "internalType": "address",
          "name": "_globalConstraint",
          "type": "address"
        },
        {
          "internalType": "address",
          "name": "_avatar",
          "type": "address"
        }
      ],
      "name": "removeGlobalConstraint",
      "outputs": [
        {
          "internalType": "bool",
          "name": "",
          "type": "bool"
        }
      ],
      "payable": false,
      "stateMutability": "nonpayable",
      "type": "function"
    },
    {
      "constant": false,
      "inputs": [
        {
          "internalType": "address",
          "name": "_newController",
          "type": "address"
        },
        {
          "internalType": "contract Avatar",
          "name": "_avatar",
          "type": "address"
        }
      ],
      "name": "upgradeController",
      "outputs": [
        {
          "internalType": "bool",
          "name": "",
          "type": "bool"
        }
      ],
      "payable": false,
      "stateMutability": "nonpayable",
      "type": "function"
    },
    {
      "constant": false,
      "inputs": [
        {
          "internalType": "address",
          "name": "_contract",
          "type": "address"
        },
        {
          "internalType": "bytes",
          "name": "_data",
          "type": "bytes"
        },
        {
          "internalType": "contract Avatar",
          "name": "_avatar",
          "type": "address"
        },
        {
          "internalType": "uint256",
          "name": "_value",
          "type": "uint256"
        }
      ],
      "name": "genericCall",
      "outputs": [
        {
          "internalType": "bool",
          "name": "",
          "type": "bool"
        },
        {
          "internalType": "bytes",
          "name": "",
          "type": "bytes"
        }
      ],
      "payable": false,
      "stateMutability": "nonpayable",
      "type": "function"
    },
    {
      "constant": false,
      "inputs": [
        {
          "internalType": "uint256",
          "name": "_amountInWei",
          "type": "uint256"
        },
        {
          "internalType": "address payable",
          "name": "_to",
          "type": "address"
        },
        {
          "internalType": "contract Avatar",
          "name": "_avatar",
          "type": "address"
        }
      ],
      "name": "sendEther",
      "outputs": [
        {
          "internalType": "bool",
          "name": "",
          "type": "bool"
        }
      ],
      "payable": false,
      "stateMutability": "nonpayable",
      "type": "function"
    },
    {
      "constant": false,
      "inputs": [
        {
          "internalType": "contract IERC20",
          "name": "_externalToken",
          "type": "address"
        },
        {
          "internalType": "address",
          "name": "_to",
          "type": "address"
        },
        {
          "internalType": "uint256",
          "name": "_value",
          "type": "uint256"
        },
        {
          "internalType": "contract Avatar",
          "name": "_avatar",
          "type": "address"
        }
      ],
      "name": "externalTokenTransfer",
      "outputs": [
        {
          "internalType": "bool",
          "name": "",
          "type": "bool"
        }
      ],
      "payable": false,
      "stateMutability": "nonpayable",
      "type": "function"
    },
    {
      "constant": false,
      "inputs": [
        {
          "internalType": "contract IERC20",
          "name": "_externalToken",
          "type": "address"
        },
        {
          "internalType": "address",
          "name": "_from",
          "type": "address"
        },
        {
          "internalType": "address",
          "name": "_to",
          "type": "address"
        },
        {
          "internalType": "uint256",
          "name": "_value",
          "type": "uint256"
        },
        {
          "internalType": "contract Avatar",
          "name": "_avatar",
          "type": "address"
        }
      ],
      "name": "externalTokenTransferFrom",
      "outputs": [
        {
          "internalType": "bool",
          "name": "",
          "type": "bool"
        }
      ],
      "payable": false,
      "stateMutability": "nonpayable",
      "type": "function"
    },
    {
      "constant": false,
      "inputs": [
        {
          "internalType": "contract IERC20",
          "name": "_externalToken",
          "type": "address"
        },
        {
          "internalType": "address",
          "name": "_spender",
          "type": "address"
        },
        {
          "internalType": "uint256",
          "name": "_value",
          "type": "uint256"
        },
        {
          "internalType": "contract Avatar",
          "name": "_avatar",
          "type": "address"
        }
      ],
      "name": "externalTokenApproval",
      "outputs": [
        {
          "internalType": "bool",
          "name": "",
          "type": "bool"
        }
      ],
      "payable": false,
      "stateMutability": "nonpayable",
      "type": "function"
    },
    {
      "constant": false,
      "inputs": [
        {
          "internalType": "string",
          "name": "_metaData",
          "type": "string"
        },
        {
          "internalType": "contract Avatar",
          "name": "_avatar",
          "type": "address"
        }
      ],
      "name": "metaData",
      "outputs": [
        {
          "internalType": "bool",
          "name": "",
          "type": "bool"
        }
      ],
      "payable": false,
      "stateMutability": "nonpayable",
      "type": "function"
    },
    {
      "constant": true,
      "inputs": [
        {
          "internalType": "address",
          "name": "_scheme",
          "type": "address"
        },
        {
          "internalType": "address",
          "name": "_avatar",
          "type": "address"
        }
      ],
      "name": "isSchemeRegistered",
      "outputs": [
        {
          "internalType": "bool",
          "name": "",
          "type": "bool"
        }
      ],
      "payable": false,
      "stateMutability": "view",
      "type": "function"
    },
    {
      "constant": true,
      "inputs": [
        {
          "internalType": "address",
          "name": "_scheme",
          "type": "address"
        },
        {
          "internalType": "address",
          "name": "_avatar",
          "type": "address"
        }
      ],
      "name": "getSchemeParameters",
      "outputs": [
        {
          "internalType": "bytes32",
          "name": "",
          "type": "bytes32"
        }
      ],
      "payable": false,
      "stateMutability": "view",
      "type": "function"
    },
    {
      "constant": true,
      "inputs": [
        {
          "internalType": "address",
          "name": "_scheme",
          "type": "address"
        },
        {
          "internalType": "address",
          "name": "_avatar",
          "type": "address"
        }
      ],
      "name": "getSchemePermissions",
      "outputs": [
        {
          "internalType": "bytes4",
          "name": "",
          "type": "bytes4"
        }
      ],
      "payable": false,
      "stateMutability": "view",
      "type": "function"
    },
    {
      "constant": true,
      "inputs": [
        {
          "internalType": "address",
          "name": "_globalConstraint",
          "type": "address"
        },
        {
          "internalType": "address",
          "name": "_avatar",
          "type": "address"
        }
      ],
      "name": "getGlobalConstraintParameters",
      "outputs": [
        {
          "internalType": "bytes32",
          "name": "",
          "type": "bytes32"
        }
      ],
      "payable": false,
      "stateMutability": "view",
      "type": "function"
    },
    {
      "constant": true,
      "inputs": [
        {
          "internalType": "address",
          "name": "_avatar",
          "type": "address"
        }
      ],
      "name": "globalConstraintsCount",
      "outputs": [
        {
          "internalType": "uint256",
          "name": "",
          "type": "uint256"
        },
        {
          "internalType": "uint256",
          "name": "",
          "type": "uint256"
        }
      ],
      "payable": false,
      "stateMutability": "view",
      "type": "function"
    },
    {
      "constant": true,
      "inputs": [
        {
          "internalType": "address",
          "name": "_globalConstraint",
          "type": "address"
        },
        {
          "internalType": "address",
          "name": "_avatar",
          "type": "address"
        }
      ],
      "name": "isGlobalConstraintRegistered",
      "outputs": [
        {
          "internalType": "bool",
          "name": "",
          "type": "bool"
        }
      ],
      "payable": false,
      "stateMutability": "view",
      "type": "function"
    },
    {
      "constant": true,
      "inputs": [
        {
          "internalType": "address",
          "name": "_avatar",
          "type": "address"
        }
      ],
      "name": "getNativeReputation",
      "outputs": [
        {
          "internalType": "address",
          "name": "",
          "type": "address"
        }
      ],
      "payable": false,
      "stateMutability": "view",
      "type": "function"
    }
  ],
  "bytecode": "0x608060405234801561001057600080fd5b506147e1806100206000396000f3fe608060405234801561001057600080fd5b506004361061018e5760003560e01c80639b51e35a116100de578063e08738da11610097578063eaa66a3c11610071578063eaa66a3c14610772578063eaf994b214610798578063f76488be146107cc578063fb4856a2146107fa5761018e565b8063e08738da146106ca578063e4537a74146106f8578063e869d45f1461072e5761018e565b80639b51e35a146104625780639be2faed146104ad578063b9981364146104db578063b9a04cdd14610503578063c9b62eb11461053f578063d1b7089a146105b85761018e565b80635a1f74061161014b5780636c525b13116101255780636c525b13146103a35780636e94d278146103c9578063824f2f1f146103fd5780638da039971461043c5761018e565b80635a1f7406146102ef578063634965da1461033b5780636407e4321461036f5761018e565b8063039de01d146101935780631c4d5608146101d557806342427bf8146102155780634f52b5be146102435780634fe125a31461027157806351803cd8146102b3575b600080fd5b6101c1600480360360408110156101a957600080fd5b506001600160a01b0381358116916020013516610840565b604080519115158252519081900360200190f35b610203600480360360408110156101eb57600080fd5b506001600160a01b0381358116916020013516610c83565b60408051918252519081900360200190f35b6101c16004803603604081101561022b57600080fd5b506001600160a01b0381358116916020013516610cb2565b6101c16004803603604081101561025957600080fd5b506001600160a01b03813581169160200135166111a5565b6102976004803603602081101561028757600080fd5b50356001600160a01b03166112c6565b604080516001600160a01b039092168252519081900360200190f35b6101c1600480360360808110156102c957600080fd5b506001600160a01b038135811691602081013582169160408201359160600135166112e1565b6103156004803603602081101561030557600080fd5b50356001600160a01b03166116b8565b604080516001600160a01b03938416815291909216602082015281519081900390910190f35b6101c16004803603606081101561035157600080fd5b508035906001600160a01b03602082013581169160400135166116de565b6101c16004803603606081101561038557600080fd5b508035906001600160a01b0360208201358116916040013516611aad565b6101c1600480360360208110156103b957600080fd5b50356001600160a01b0316611eff565b6101c1600480360360608110156103df57600080fd5b508035906001600160a01b0360208201358116916040013516611f82565b6104236004803603602081101561041357600080fd5b50356001600160a01b03166123d8565b6040805192835260208301919091528051918290030190f35b6102976004803603602081101561045257600080fd5b50356001600160a01b03166123fe565b6104906004803603604081101561047857600080fd5b506001600160a01b038135811691602001351661241f565b604080516001600160e01b03199092168252519081900360200190f35b6101c1600480360360408110156104c357600080fd5b506001600160a01b0381358116916020013516612453565b610501600480360360208110156104f157600080fd5b50356001600160a01b0316612466565b005b6101c16004803603608081101561051957600080fd5b506001600160a01b0381358116916020810135821691604082013591606001351661282f565b6101c16004803603604081101561055557600080fd5b81019060208101813564010000000081111561057057600080fd5b82018360208201111561058257600080fd5b803590602001918460018302840111640100000000831117156105a457600080fd5b9193509150356001600160a01b0316612bf8565b610647600480360360808110156105ce57600080fd5b6001600160a01b0382351691908101906040810160208201356401000000008111156105f957600080fd5b82018360208201111561060b57600080fd5b8035906020019184600183028401116401000000008311171561062d57600080fd5b91935091506001600160a01b038135169060200135612ce0565b604051808315151515815260200180602001828103825283818151815260200191508051906020019080838360005b8381101561068e578181015183820152602001610676565b50505050905090810190601f1680156106bb5780820380516001836020036101000a031916815260200191505b50935050505060405180910390f35b610203600480360360408110156106e057600080fd5b506001600160a01b03813581169160200135166131b5565b6101c16004803603606081101561070e57600080fd5b506001600160a01b038135811691602081013591604090910135166132a2565b6101c16004803603608081101561074457600080fd5b506001600160a01b0381358116916020810135916001600160e01b0319604083013516916060013516613620565b6101c16004803603602081101561078857600080fd5b50356001600160a01b0316613ab2565b6101c1600480360360608110156107ae57600080fd5b508035906001600160a01b0360208201358116916040013516613ac7565b6101c1600480360360408110156107e257600080fd5b506001600160a01b0381358116916020013516613f1d565b6101c1600480360360a081101561081057600080fd5b506001600160a01b0381358116916020810135821691604082013581169160608101359160809091013516613f82565b6001600160a01b038116600090815260208181526040808320338452600201909152812060010154829060e01b600160e11b9081161461087f57600080fd5b6f756e7265676973746572536368656d6560801b8360006060600080846001600160a01b03166001600160a01b03168152602001908152602001600020600301805480602002602001604051908101604052809291908181526020016000905b82821015610927576000848152602090819020604080518082019091526002850290910180546001600160a01b031682526001908101548284015290835290920191016108df565b505050506001600160a01b03841660009081526020818152604080832060040180548251818502810185019093528083529495506060949193909284015b828210156109ad576000848152602090819020604080518082019091526002850290910180546001600160a01b03168252600190810154828401529083529092019101610965565b505050509050600092505b8151831015610a97578183815181106109cd57fe5b6020026020010151600001516001600160a01b031663c1786ab2338486815181106109f457fe5b602002602001015160200151886040518463ffffffff1660e01b815260040180846001600160a01b03166001600160a01b031681526020018381526020018281526020019350505050602060405180830381600087803b158015610a5757600080fd5b505af1158015610a6b573d6000803e3d6000fd5b505050506040513d6020811015610a8157600080fd5b5051610a8c57600080fd5b6001909201916109b8565b6001600160a01b03808916600090815260208181526040808320938d16835260029093019052206001015460e01b600160e01b8116610ada576000975050610b93565b6001600160a01b03891660009081526020818152604080832033845260020190915290206001015460e01b198116601f60e01b1615610b1857600080fd5b6040516001600160a01b03808b1691908c169033907f6c6acccb2a8bdecd133efe43bc929b25f75255a88da20af641c9ba4acc0e0e5b90600090a4506001600160a01b03808916600090815260208181526040808320938d168352600290930190529081209081556001908101805463ffffffff1916905596505b600092505b8051831015610c7757808381518110610bad57fe5b6020026020010151600001516001600160a01b0316638043154d33838681518110610bd457fe5b602002602001015160200151886040518463ffffffff1660e01b815260040180846001600160a01b03166001600160a01b031681526020018381526020018281526020019350505050602060405180830381600087803b158015610c3757600080fd5b505af1158015610c4b573d6000803e3d6000fd5b505050506040513d6020811015610c6157600080fd5b5051610c6c57600080fd5b600190920191610b98565b50505050505092915050565b6001600160a01b0380821660009081526020818152604080832093861683526002909301905220545b92915050565b6001600160a01b038116600090815260208181526040808320338452600201909152812060010154829060e01b600160e31b90811614610cf157600080fd5b6001600160a01b038381166000908152600160205260409020541615610d1657600080fd5b6001600160a01b038416610d2957600080fd5b6001600160a01b0383811660008181526001602052604080822080546001600160a01b0319169489169485179055805163f2fde38b60e01b8152600481019490945251919263f2fde38b926024808301939282900301818387803b158015610d9057600080fd5b505af1158015610da4573d6000803e3d6000fd5b50505050836001600160a01b0316836001600160a01b0316638da5cb5b6040518163ffffffff1660e01b815260040160206040518083038186803b158015610deb57600080fd5b505afa158015610dff573d6000803e3d6000fd5b505050506040513d6020811015610e1557600080fd5b50516001600160a01b031614610e2a57600080fd5b6001600160a01b0383811660009081526020818152604091829020548251638da5cb5b60e01b8152925130949190911692638da5cb5b926004808301939192829003018186803b158015610e7d57600080fd5b505afa158015610e91573d6000803e3d6000fd5b505050506040513d6020811015610ea757600080fd5b50516001600160a01b03161415610fbc576001600160a01b0380841660009081526020819052604080822054815163f2fde38b60e01b81528885166004820152915193169263f2fde38b9260248084019391929182900301818387803b158015610f1057600080fd5b505af1158015610f24573d6000803e3d6000fd5b505050506001600160a01b0383811660009081526020818152604091829020548251638da5cb5b60e01b81529251848916949190911692638da5cb5b926004808301939192829003018186803b158015610f7d57600080fd5b505afa158015610f91573d6000803e3d6000fd5b505050506040513d6020811015610fa757600080fd5b50516001600160a01b031614610fbc57600080fd5b6001600160a01b0383811660009081526020818152604091829020600101548251638da5cb5b60e01b8152925130949190911692638da5cb5b926004808301939192829003018186803b15801561101257600080fd5b505afa158015611026573d6000803e3d6000fd5b505050506040513d602081101561103c57600080fd5b50516001600160a01b03161415611157576001600160a01b0380841660009081526020819052604080822060010154815163f2fde38b60e01b81528885166004820152915193169263f2fde38b9260248084019391929182900301818387803b1580156110a857600080fd5b505af11580156110bc573d6000803e3d6000fd5b505050506001600160a01b0383811660009081526020818152604091829020600101548251638da5cb5b60e01b81529251848916949190911692638da5cb5b926004808301939192829003018186803b15801561111857600080fd5b505afa15801561112c573d6000803e3d6000fd5b505050506040513d602081101561114257600080fd5b50516001600160a01b03161461115757600080fd5b604080516001600160a01b03868116825285166020820152815130927f8206909fdb23a8ad42188f753026bc9082758d85e20dce9bc8c4b34f2ec3db32928290030190a25060019392505050565b6001600160a01b038116600090815260208181526040808320338452600201909152812060010154829060e01b600160e21b908116146111e457600080fd5b6000846001600160a01b031663e2b0caef6040518163ffffffff1660e01b8152600401602060405180830381600087803b15801561122157600080fd5b505af1158015611235573d6000803e3d6000fd5b505050506040513d602081101561124b57600080fd5b50519050600081600281111561125d57fe5b14806112745750600281600281111561127257fe5b145b1561128557611283858561436a565b505b600181600281111561129357fe5b14806112aa575060028160028111156112a857fe5b145b156112bb576112b98585614537565b505b506001949350505050565b6001602052600090815260409020546001600160a01b031681565b6001600160a01b038116600090815260208181526040808320338452600201909152812060010154829060e01b600160e01b9081161461132057600080fd5b74195e1d195c9b985b151bdad95b905c1c1c9bdd985b605a1b8360006060600080846001600160a01b03166001600160a01b03168152602001908152602001600020600301805480602002602001604051908101604052809291908181526020016000905b828210156113cd576000848152602090819020604080518082019091526002850290910180546001600160a01b03168252600190810154828401529083529092019101611385565b505050506001600160a01b03841660009081526020818152604080832060040180548251818502810185019093528083529495506060949193909284015b82821015611453576000848152602090819020604080518082019091526002850290910180546001600160a01b0316825260019081015482840152908352909201910161140b565b505050509050600092505b815183101561153d5781838151811061147357fe5b6020026020010151600001516001600160a01b031663c1786ab23384868151811061149a57fe5b602002602001015160200151886040518463ffffffff1660e01b815260040180846001600160a01b03166001600160a01b031681526020018381526020018281526020019350505050602060405180830381600087803b1580156114fd57600080fd5b505af1158015611511573d6000803e3d6000fd5b505050506040513d602081101561152757600080fd5b505161153257600080fd5b60019092019161145e565b6040805163ab751f7160e01b81526001600160a01b038d811660048301528c81166024830152604482018c90529151918a169163ab751f71916064808201926020929091908290030181600087803b15801561159857600080fd5b505af11580156115ac573d6000803e3d6000fd5b505050506040513d60208110156115c257600080fd5b50519650600092505b80518310156116aa578083815181106115e057fe5b6020026020010151600001516001600160a01b0316638043154d3383868151811061160757fe5b602002602001015160200151886040518463ffffffff1660e01b815260040180846001600160a01b03166001600160a01b031681526020018381526020018281526020019350505050602060405180830381600087803b15801561166a57600080fd5b505af115801561167e573d6000803e3d6000fd5b505050506040513d602081101561169457600080fd5b505161169f57600080fd5b6001909201916115cb565b505050505050949350505050565b600060208190529081526040902080546001909101546001600160a01b03918216911682565b6001600160a01b038116600090815260208181526040808320338452600201909152812060010154829060e01b600160e01b9081161461171d57600080fd5b6839b2b73222ba3432b960b91b8360006060600080846001600160a01b03166001600160a01b03168152602001908152602001600020600301805480602002602001604051908101604052809291908181526020016000905b828210156117be576000848152602090819020604080518082019091526002850290910180546001600160a01b03168252600190810154828401529083529092019101611776565b505050506001600160a01b03841660009081526020818152604080832060040180548251818502810185019093528083529495506060949193909284015b82821015611844576000848152602090819020604080518082019091526002850290910180546001600160a01b031682526001908101548284015290835290920191016117fc565b505050509050600092505b815183101561192e5781838151811061186457fe5b6020026020010151600001516001600160a01b031663c1786ab23384868151811061188b57fe5b602002602001015160200151886040518463ffffffff1660e01b815260040180846001600160a01b03166001600160a01b031681526020018381526020018281526020019350505050602060405180830381600087803b1580156118ee57600080fd5b505af1158015611902573d6000803e3d6000fd5b505050506040513d602081101561191857600080fd5b505161192357600080fd5b60019092019161184f565b876001600160a01b031663cb16d4a28b8b6040518363ffffffff1660e01b815260040180838152602001826001600160a01b03166001600160a01b0316815260200192505050602060405180830381600087803b15801561198e57600080fd5b505af11580156119a2573d6000803e3d6000fd5b505050506040513d60208110156119b857600080fd5b50519650600092505b8051831015611aa0578083815181106119d657fe5b6020026020010151600001516001600160a01b0316638043154d338386815181106119fd57fe5b602002602001015160200151886040518463ffffffff1660e01b815260040180846001600160a01b03166001600160a01b031681526020018381526020018281526020019350505050602060405180830381600087803b158015611a6057600080fd5b505af1158015611a74573d6000803e3d6000fd5b505050506040513d6020811015611a8a57600080fd5b5051611a9557600080fd5b6001909201916119c1565b5050505050509392505050565b6001600160a01b038116600090815260208181526040808320338452600201909152812060010154829060e01b600160e01b90811614611aec57600080fd5b696d696e74546f6b656e7360b01b8360006060600080846001600160a01b03166001600160a01b03168152602001908152602001600020600301805480602002602001604051908101604052809291908181526020016000905b82821015611b8e576000848152602090819020604080518082019091526002850290910180546001600160a01b03168252600190810154828401529083529092019101611b46565b505050506001600160a01b03841660009081526020818152604080832060040180548251818502810185019093528083529495506060949193909284015b82821015611c14576000848152602090819020604080518082019091526002850290910180546001600160a01b03168252600190810154828401529083529092019101611bcc565b505050509050600092505b8151831015611cfe57818381518110611c3457fe5b6020026020010151600001516001600160a01b031663c1786ab233848681518110611c5b57fe5b602002602001015160200151886040518463ffffffff1660e01b815260040180846001600160a01b03166001600160a01b031681526020018381526020018281526020019350505050602060405180830381600087803b158015611cbe57600080fd5b505af1158015611cd2573d6000803e3d6000fd5b505050506040513d6020811015611ce857600080fd5b5051611cf357600080fd5b600190920191611c1f565b876001600160a01b0316896001600160a01b0316336001600160a01b03167f5f31335b49d4d41584177ece651b9e2bb48565b82a1dfbf1b75eec6343215e4c8d6040518082815260200191505060405180910390a4600080896001600160a01b03166001600160a01b0316815260200190815260200160002060000160009054906101000a90046001600160a01b03166001600160a01b03166340c10f198a8c6040518363ffffffff1660e01b815260040180836001600160a01b03166001600160a01b0316815260200182815260200192505050602060405180830381600087803b158015611ded57600080fd5b505af1158015611e01573d6000803e3d6000fd5b505050506040513d6020811015611e1757600080fd5b50519650600092505b8051831015611aa057808381518110611e3557fe5b6020026020010151600001516001600160a01b0316638043154d33838681518110611e5c57fe5b602002602001015160200151886040518463ffffffff1660e01b815260040180846001600160a01b03166001600160a01b031681526020018381526020018281526020019350505050602060405180830381600087803b158015611ebf57600080fd5b505af1158015611ed3573d6000803e3d6000fd5b505050506040513d6020811015611ee957600080fd5b5051611ef457600080fd5b600190920191611e20565b6000611f0b33836146f6565b611f1757506000611f7d565b6001600160a01b038216600081815260208181526040808320338085526002909101909252808320838155600101805463ffffffff1916905551909182917f6c6acccb2a8bdecd133efe43bc929b25f75255a88da20af641c9ba4acc0e0e5b9190a45060015b919050565b6001600160a01b038116600090815260208181526040808320338452600201909152812060010154829060e01b600160e01b90811614611fc157600080fd5b6d313ab9372932b83aba30ba34b7b760911b8360006060600080846001600160a01b03166001600160a01b03168152602001908152602001600020600301805480602002602001604051908101604052809291908181526020016000905b82821015612067576000848152602090819020604080518082019091526002850290910180546001600160a01b0316825260019081015482840152908352909201910161201f565b505050506001600160a01b03841660009081526020818152604080832060040180548251818502810185019093528083529495506060949193909284015b828210156120ed576000848152602090819020604080518082019091526002850290910180546001600160a01b031682526001908101548284015290835290920191016120a5565b505050509050600092505b81518310156121d75781838151811061210d57fe5b6020026020010151600001516001600160a01b031663c1786ab23384868151811061213457fe5b602002602001015160200151886040518463ffffffff1660e01b815260040180846001600160a01b03166001600160a01b031681526020018381526020018281526020019350505050602060405180830381600087803b15801561219757600080fd5b505af11580156121ab573d6000803e3d6000fd5b505050506040513d60208110156121c157600080fd5b50516121cc57600080fd5b6001909201916120f8565b876001600160a01b0316896001600160a01b0316336001600160a01b03167fc9d509efc43bbd833bfbc3d7031bf2c4b4a7c30c53ba374bc9d5ec44661dbf878d6040518082815260200191505060405180910390a4600080896001600160a01b03166001600160a01b0316815260200190815260200160002060010160009054906101000a90046001600160a01b03166001600160a01b0316639dc29fac8a8c6040518363ffffffff1660e01b815260040180836001600160a01b03166001600160a01b0316815260200182815260200192505050602060405180830381600087803b1580156122c657600080fd5b505af11580156122da573d6000803e3d6000fd5b505050506040513d60208110156122f057600080fd5b50519650600092505b8051831015611aa05780838151811061230e57fe5b6020026020010151600001516001600160a01b0316638043154d3383868151811061233557fe5b602002602001015160200151886040518463ffffffff1660e01b815260040180846001600160a01b03166001600160a01b031681526020018381526020018281526020019350505050602060405180830381600087803b15801561239857600080fd5b505af11580156123ac573d6000803e3d6000fd5b505050506040513d60208110156123c257600080fd5b50516123cd57600080fd5b6001909201916122f9565b6001600160a01b0316600090815260208190526040902060038101546004909101549091565b6001600160a01b039081166000908152602081905260409020600101541690565b6001600160a01b03808216600090815260208181526040808320938616835260029093019052206001015460e01b92915050565b600061245f83836146f6565b9392505050565b6001600160a01b03811660009081526002602052604090205460ff161561248c57600080fd5b6001600160a01b038116600081815260026020908152604091829020805460ff191660011790558151638da5cb5b60e01b81529151309392638da5cb5b926004808301939192829003018186803b1580156124e657600080fd5b505afa1580156124fa573d6000803e3d6000fd5b505050506040513d602081101561251057600080fd5b50516001600160a01b03161461252557600080fd5b6000816001600160a01b031663e1758bd86040518163ffffffff1660e01b815260040160206040518083038186803b15801561256057600080fd5b505afa158015612574573d6000803e3d6000fd5b505050506040513d602081101561258a57600080fd5b50516040805163089ae1c960e41b815290519192506000916001600160a01b038516916389ae1c90916004808301926020929190829003018186803b1580156125d257600080fd5b505afa1580156125e6573d6000803e3d6000fd5b505050506040513d60208110156125fc57600080fd5b505160408051638da5cb5b60e01b8152905191925030916001600160a01b03851691638da5cb5b916004808301926020929190829003018186803b15801561264357600080fd5b505afa158015612657573d6000803e3d6000fd5b505050506040513d602081101561266d57600080fd5b50516001600160a01b03161461268257600080fd5b306001600160a01b0316816001600160a01b0316638da5cb5b6040518163ffffffff1660e01b815260040160206040518083038186803b1580156126c557600080fd5b505afa1580156126d9573d6000803e3d6000fd5b505050506040513d60208110156126ef57600080fd5b50516001600160a01b03161461270457600080fd5b6001600160a01b03811660009081526002602052604090205460ff161561272a57600080fd5b6001600160a01b03808216600090815260026020526040808220805460ff191660011790559184168152205460ff161561276357600080fd5b6001600160a01b0382811660008181526002602081815260408084208054600160ff19909116811790915589871680865285845282862080546001600160a01b031990811690981781558083018054909816988a169890981790965581518083018352858152601f60e01b818501908152338088529890950190935281852092518355925191909201805463ffffffff191660e09290921c9190911790555191929182917f521230fe5fa463e77907aa7d9653b8cf93661e82561e966af8aa0a99910554c191a4505050565b6001600160a01b038116600090815260208181526040808320338452600201909152812060010154829060e01b600160e01b9081161461286e57600080fd5b7432bc3a32b93730b62a37b5b2b72a3930b739b332b960591b8360006060600080846001600160a01b03166001600160a01b03168152602001908152602001600020600301805480602002602001604051908101604052809291908181526020016000905b8282101561291b576000848152602090819020604080518082019091526002850290910180546001600160a01b031682526001908101548284015290835290920191016128d3565b505050506001600160a01b03841660009081526020818152604080832060040180548251818502810185019093528083529495506060949193909284015b828210156129a1576000848152602090819020604080518082019091526002850290910180546001600160a01b03168252600190810154828401529083529092019101612959565b505050509050600092505b8151831015612a8b578183815181106129c157fe5b6020026020010151600001516001600160a01b031663c1786ab2338486815181106129e857fe5b602002602001015160200151886040518463ffffffff1660e01b815260040180846001600160a01b03166001600160a01b031681526020018381526020018281526020019350505050602060405180830381600087803b158015612a4b57600080fd5b505af1158015612a5f573d6000803e3d6000fd5b505050506040513d6020811015612a7557600080fd5b5051612a8057600080fd5b6001909201916129ac565b6040805163dab0efff60e01b81526001600160a01b038d811660048301528c81166024830152604482018c90529151918a169163dab0efff916064808201926020929091908290030181600087803b158015612ae657600080fd5b505af1158015612afa573d6000803e3d6000fd5b505050506040513d6020811015612b1057600080fd5b50519650600092505b80518310156116aa57808381518110612b2e57fe5b6020026020010151600001516001600160a01b0316638043154d33838681518110612b5557fe5b602002602001015160200151886040518463ffffffff1660e01b815260040180846001600160a01b03166001600160a01b031681526020018381526020018281526020019350505050602060405180830381600087803b158015612bb857600080fd5b505af1158015612bcc573d6000803e3d6000fd5b505050506040513d6020811015612be257600080fd5b5051612bed57600080fd5b600190920191612b19565b6001600160a01b038116600090815260208181526040808320338452600201909152812060010154829060e01b600160e41b90811614612c3757600080fd5b604051632242b11b60e21b8152602060048201908152602482018690526001600160a01b0385169163890ac46c9188918891908190604401848480828437600081840152601f19601f8201169050808301925050509350505050602060405180830381600087803b158015612cab57600080fd5b505af1158015612cbf573d6000803e3d6000fd5b505050506040513d6020811015612cd557600080fd5b505195945050505050565b6001600160a01b038216600090815260208181526040808320338452600201909152812060010154606090849060e01b600160e41b90811614612d2257600080fd5b6a19d95b995c9a58d0d85b1b60aa1b8560006060600080846001600160a01b03166001600160a01b03168152602001908152602001600020600301805480602002602001604051908101604052809291908181526020016000905b82821015612dc5576000848152602090819020604080518082019091526002850290910180546001600160a01b03168252600190810154828401529083529092019101612d7d565b505050506001600160a01b03841660009081526020818152604080832060040180548251818502810185019093528083529495506060949193909284015b82821015612e4b576000848152602090819020604080518082019091526002850290910180546001600160a01b03168252600190810154828401529083529092019101612e03565b505050509050600092505b8151831015612f3557818381518110612e6b57fe5b6020026020010151600001516001600160a01b031663c1786ab233848681518110612e9257fe5b602002602001015160200151886040518463ffffffff1660e01b815260040180846001600160a01b03166001600160a01b031681526020018381526020018281526020019350505050602060405180830381600087803b158015612ef557600080fd5b505af1158015612f09573d6000803e3d6000fd5b505050506040513d6020811015612f1f57600080fd5b5051612f2a57600080fd5b600190920191612e56565b896001600160a01b0316632bf164588e8e8e8d6040518563ffffffff1660e01b815260040180856001600160a01b03166001600160a01b03168152602001806020018381526020018281038252858582818152602001925080828437600081840152601f19601f82011690508083019250505095505050505050600060405180830381600087803b158015612fc957600080fd5b505af1158015612fdd573d6000803e3d6000fd5b505050506040513d6000823e601f3d908101601f19168201604090815281101561300657600080fd5b81516020830180516040519294929383019291908464010000000082111561302d57600080fd5b90830190602082018581111561304257600080fd5b825164010000000081118282018810171561305c57600080fd5b82525081516020918201929091019080838360005b83811015613089578181015183820152602001613071565b50505050905090810190601f1680156130b65780820380516001836020036101000a031916815260200191505b5060405250505097509750600092505b80518310156131a5578083815181106130db57fe5b6020026020010151600001516001600160a01b0316638043154d3383868151811061310257fe5b602002602001015160200151886040518463ffffffff1660e01b815260040180846001600160a01b03166001600160a01b031681526020018381526020018281526020019350505050602060405180830381600087803b15801561316557600080fd5b505af1158015613179573d6000803e3d6000fd5b505050506040513d602081101561318f57600080fd5b505161319a57600080fd5b6001909201916130c6565b5050505050509550959350505050565b6001600160a01b03811660009081526020819052604081206131d5614732565b506001600160a01b03841660009081526005820160209081526040918290208251808401909352805460ff16158015845260019091015491830191909152613245578160030181602001518154811061322a57fe5b90600052602060002090600202016001015492505050610cac565b506001600160a01b03841660009081526006820160209081526040918290208251808401909352805460ff1615801584526001909101549183019190915261329a578160040181602001518154811061322a57fe5b505092915050565b6001600160a01b038116600090815260208181526040808320338452600201909152812060010154829060e01b600160e21b908116146132e157600080fd5b6001600160a01b03808416600090815260208181526040808320815163e2b0caef60e01b8152915190948a169263e2b0caef926004808201939182900301818787803b15801561333057600080fd5b505af1158015613344573d6000803e3d6000fd5b505050506040513d602081101561335a57600080fd5b50519050600081600281111561336c57fe5b14806133835750600281600281111561338157fe5b145b15613488576001600160a01b038716600090815260058301602052604090205460ff16613443576040805180820182526001600160a01b0389811680835260208084018b81526003880180546001808201835560008381528581209851600290930290980180546001600160a01b031916929097169190911786559151948201949094558551808701875281815293546000190184830190815292855260058801909152939092209051815460ff19169015151781559051910155613488565b6001600160a01b0387166000908152600583016020526040902060010154600383018054889290811061347257fe5b9060005260206000209060020201600101819055505b600181600281111561349657fe5b14806134ad575060028160028111156134ab57fe5b145b156135b2576001600160a01b038716600090815260068301602052604090205460ff1661356d576040805180820182526001600160a01b0389811680835260208084018b81526004880180546001808201835560008381528581209851600290930290980180546001600160a01b031916929097169190911786559151948201949094558551808701875281815293546000190184830190815292855260068801909152939092209051815460ff191690151517815590519101556135b2565b6001600160a01b0387166000908152600683016020526040902060010154600483018054889290811061359c57fe5b9060005260206000209060020201600101819055505b846001600160a01b0316876001600160a01b03167ffc47a21fc3b2a989787e5778a52ac976fa54ccfecf6fda51089ffa95b699b90a8884604051808381526020018260028111156135ff57fe5b60ff1681526020019250505060405180910390a35060019695505050505050565b6001600160a01b038116600090815260208181526040808320338452600201909152812060010154829060e01b600160e11b9081161461365f57600080fd5b6d7265676973746572536368656d6560901b8360006060600080846001600160a01b03166001600160a01b03168152602001908152602001600020600301805480602002602001604051908101604052809291908181526020016000905b82821015613705576000848152602090819020604080518082019091526002850290910180546001600160a01b031682526001908101548284015290835290920191016136bd565b505050506001600160a01b03841660009081526020818152604080832060040180548251818502810185019093528083529495506060949193909284015b8282101561378b576000848152602090819020604080518082019091526002850290910180546001600160a01b03168252600190810154828401529083529092019101613743565b505050509050600092505b8151831015613875578183815181106137ab57fe5b6020026020010151600001516001600160a01b031663c1786ab2338486815181106137d257fe5b602002602001015160200151886040518463ffffffff1660e01b815260040180846001600160a01b03166001600160a01b031681526020018381526020018281526020019350505050602060405180830381600087803b15801561383557600080fd5b505af1158015613849573d6000803e3d6000fd5b505050506040513d602081101561385f57600080fd5b505161386a57600080fd5b600190920191613796565b6001600160a01b03888116600090815260208181526040808320938f1683526002909301905281812060019081015433835292909120015460e091821b911b601f60e01b81198c84181616156138ca57600080fd5b601f60e01b8119831616156138de57600080fd5b60405180604001604052808d8152602001600160e01b8d176001600160e01b0319168152506000808c6001600160a01b03166001600160a01b0316815260200190815260200160002060020160008f6001600160a01b03166001600160a01b031681526020019081526020016000206000820151816000015560208201518160010160006101000a81548163ffffffff021916908360e01c0217905550905050896001600160a01b03168d6001600160a01b0316336001600160a01b03167f521230fe5fa463e77907aa7d9653b8cf93661e82561e966af8aa0a99910554c160405160405180910390a4600198505050600092505b80518310156116aa578083815181106139e857fe5b6020026020010151600001516001600160a01b0316638043154d33838681518110613a0f57fe5b602002602001015160200151886040518463ffffffff1660e01b815260040180846001600160a01b03166001600160a01b031681526020018381526020018281526020019350505050602060405180830381600087803b158015613a7257600080fd5b505af1158015613a86573d6000803e3d6000fd5b505050506040513d6020811015613a9c57600080fd5b5051613aa757600080fd5b6001909201916139d3565b60026020526000908152604090205460ff1681565b6001600160a01b038116600090815260208181526040808320338452600201909152812060010154829060e01b600160e01b90811614613b0657600080fd5b6d36b4b73a2932b83aba30ba34b7b760911b8360006060600080846001600160a01b03166001600160a01b03168152602001908152602001600020600301805480602002602001604051908101604052809291908181526020016000905b82821015613bac576000848152602090819020604080518082019091526002850290910180546001600160a01b03168252600190810154828401529083529092019101613b64565b505050506001600160a01b03841660009081526020818152604080832060040180548251818502810185019093528083529495506060949193909284015b82821015613c32576000848152602090819020604080518082019091526002850290910180546001600160a01b03168252600190810154828401529083529092019101613bea565b505050509050600092505b8151831015613d1c57818381518110613c5257fe5b6020026020010151600001516001600160a01b031663c1786ab233848681518110613c7957fe5b602002602001015160200151886040518463ffffffff1660e01b815260040180846001600160a01b03166001600160a01b031681526020018381526020018281526020019350505050602060405180830381600087803b158015613cdc57600080fd5b505af1158015613cf0573d6000803e3d6000fd5b505050506040513d6020811015613d0657600080fd5b5051613d1157600080fd5b600190920191613c3d565b876001600160a01b0316896001600160a01b0316336001600160a01b03167feb0f295d539be95eb3777b524f7bff44ed3505db2e2795382482bb1a9cd1dae08d6040518082815260200191505060405180910390a4600080896001600160a01b03166001600160a01b0316815260200190815260200160002060010160009054906101000a90046001600160a01b03166001600160a01b03166340c10f198a8c6040518363ffffffff1660e01b815260040180836001600160a01b03166001600160a01b0316815260200182815260200192505050602060405180830381600087803b158015613e0b57600080fd5b505af1158015613e1f573d6000803e3d6000fd5b505050506040513d6020811015613e3557600080fd5b50519650600092505b8051831015611aa057808381518110613e5357fe5b6020026020010151600001516001600160a01b0316638043154d33838681518110613e7a57fe5b602002602001015160200151886040518463ffffffff1660e01b815260040180846001600160a01b03166001600160a01b031681526020018381526020018281526020019350505050602060405180830381600087803b158015613edd57600080fd5b505af1158015613ef1573d6000803e3d6000fd5b505050506040513d6020811015613f0757600080fd5b5051613f1257600080fd5b600190920191613e3e565b6001600160a01b038082166000908152602081815260408083209386168352600590930190529081205460ff168061245f5750506001600160a01b03908116600090815260208181526040808320949093168252600690930190925290205460ff1690565b6001600160a01b038116600090815260208181526040808320338452600201909152812060010154829060e01b600160e01b90811614613fc157600080fd5b7f65787465726e616c546f6b656e5472616e7366657246726f6d000000000000008360006060600080846001600160a01b03166001600160a01b03168152602001908152602001600020600301805480602002602001604051908101604052809291908181526020016000905b82821015614076576000848152602090819020604080518082019091526002850290910180546001600160a01b0316825260019081015482840152908352909201910161402e565b505050506001600160a01b03841660009081526020818152604080832060040180548251818502810185019093528083529495506060949193909284015b828210156140fc576000848152602090819020604080518082019091526002850290910180546001600160a01b031682526001908101548284015290835290920191016140b4565b505050509050600092505b81518310156141e65781838151811061411c57fe5b6020026020010151600001516001600160a01b031663c1786ab23384868151811061414357fe5b602002602001015160200151886040518463ffffffff1660e01b815260040180846001600160a01b03166001600160a01b031681526020018381526020018281526020019350505050602060405180830381600087803b1580156141a657600080fd5b505af11580156141ba573d6000803e3d6000fd5b505050506040513d60208110156141d057600080fd5b50516141db57600080fd5b600190920191614107565b60408051635bab6ad160e11b81526001600160a01b038e811660048301528d811660248301528c81166044830152606482018c90529151918a169163b756d5a2916084808201926020929091908290030181600087803b15801561424957600080fd5b505af115801561425d573d6000803e3d6000fd5b505050506040513d602081101561427357600080fd5b50519650600092505b805183101561435b5780838151811061429157fe5b6020026020010151600001516001600160a01b0316638043154d338386815181106142b857fe5b602002602001015160200151886040518463ffffffff1660e01b815260040180846001600160a01b03166001600160a01b031681526020018381526020018281526020019350505050602060405180830381600087803b15801561431b57600080fd5b505af115801561432f573d6000803e3d6000fd5b505050506040513d602081101561434557600080fd5b505161435057600080fd5b60019092019161427c565b50505050505095945050505050565b6000614374614732565b506001600160a01b0380831660008181526020818152604080832094881683526005850182528083208151808301909252805460ff161515825260010154818301529282525280519091600301901561452c57600181805490500382602001511015614495576143e2614732565b8154829060001981019081106143f457fe5b60009182526020918290206040805180820190915260029092020180546001600160a01b0316825260010154818301529084015183549192508291849190811061443a57fe5b6000918252602080832084516002939093020180546001600160a01b0319166001600160a01b039384161781559381015160019485015586810151898316845283825260408085209651909316845260059095019052902001555b80546144a5826000198301614749565b506001600160a01b03808516600081815260208181526040808320948a1680845260059095018252808320805460ff191681556001908101939093558682015181519081529182019290925281519293927f16e52dc226f9b9f6729d31340ecff10d85e6f9c0a8f21b07ec74a2c58c485a22929181900390910190a3600192505050610cac565b506000949350505050565b6000614541614732565b506001600160a01b0380831660008181526020818152604080832094881683526006850182528083208151808301909252805460ff161515825260010154818301529282525280519091600401901561452c57600181805490500382602001511015614662576145af614732565b8154829060001981019081106145c157fe5b60009182526020918290206040805180820190915260029092020180546001600160a01b0316825260010154818301529084015183549192508291849190811061460757fe5b6000918252602080832084516002939093020180546001600160a01b0319166001600160a01b039384161781559381015160019485015586810151898316845283825260408085209651909316845260069095019052902001555b8054614672826000198301614749565b506001600160a01b03808516600081815260208181526040808320948a1680845260069095018252808320805460ff191681556001018390558682015181519081529182019290925281519293927f16e52dc226f9b9f6729d31340ecff10d85e6f9c0a8f21b07ec74a2c58c485a22929181900390910190a3600192505050610cac565b6001600160a01b03808216600090815260208181526040808320938616835260029093019052206001015460e01b600160e01b16151592915050565b604080518082019091526000808252602082015290565b81548183558181111561477557600202816002028360005260206000209182019101614775919061477a565b505050565b6147a991905b808211156147a55780546001600160a01b031916815560006001820155600201614780565b5090565b9056fea265627a7a7231582027735c7e322465cc1abad5dfb914144d23a3ad4eec4162fdc6ec32e89de6126b64736f6c634300050b0032",
  "source": "pragma solidity ^0.5.11;\n\nimport \"./Avatar.sol\";\nimport \"../globalConstraints/GlobalConstraintInterface.sol\";\nimport \"./ControllerInterface.sol\";\n\n\n/**\n * @title Universal Controller contract\n * @dev A universal controller hold organizations and controls their tokens ,reputations\n *       and avatar.\n * It is subject to a set of schemes and constraints that determine its behavior.\n * Each scheme has it own parameters and operation permissions.\n */\ncontract UController is ControllerInterface {\n\n    struct Scheme {\n        bytes32 paramsHash;  // a hash \"configuration\" of the scheme\n        bytes4  permissions; // A bitwise flags of permissions,\n                            // All 0: Not registered,\n                            // 1st bit: Flag if the scheme is registered,\n                            // 2nd bit: Scheme can register other schemes\n                            // 3th bit: Scheme can add/remove global constraints\n                            // 4rd bit: Scheme can upgrade the controller\n                            // 5th bit: Scheme can call delegatecall\n    }\n\n    struct GlobalConstraint {\n        address gcAddress;\n        bytes32 params;\n    }\n\n    struct GlobalConstraintRegister {\n        bool isRegistered; //is registered\n        uint256 index;    //index at globalConstraints\n    }\n\n    struct Organization {\n        DAOToken                  nativeToken;\n        Reputation                nativeReputation;\n        mapping(address=>Scheme)  schemes;\n      // globalConstraintsPre that determine pre- conditions for all actions on the controller\n        GlobalConstraint[] globalConstraintsPre;\n        // globalConstraintsPost that determine post-conditions for all actions on the controller\n        GlobalConstraint[] globalConstraintsPost;\n      // globalConstraintsRegisterPre indicate if a globalConstraints is registered as a Pre global constraint.\n        mapping(address=>GlobalConstraintRegister) globalConstraintsRegisterPre;\n      // globalConstraintsRegisterPost indicate if a globalConstraints is registered as a Post global constraint.\n        mapping(address=>GlobalConstraintRegister) globalConstraintsRegisterPost;\n    }\n\n    //mapping between organization's avatar address to Organization\n    mapping(address=>Organization) public organizations;\n    // newController will point to the new controller after the present controller is upgraded\n    //  address external newController;\n    mapping(address=>address) public newControllers;//mapping between avatar address and newController address\n    //mapping for all reputation system and tokens addresses registered.\n    mapping(address=>bool) public actors;\n\n    event MintReputation (address indexed _sender, address indexed _to, uint256 _amount, address indexed _avatar);\n    event BurnReputation (address indexed _sender, address indexed _from, uint256 _amount, address indexed _avatar);\n    event MintTokens (address indexed _sender, address indexed _beneficiary, uint256 _amount, address indexed _avatar);\n    event RegisterScheme (address indexed _sender, address indexed _scheme, address indexed _avatar);\n    event UnregisterScheme (address indexed _sender, address indexed _scheme, address indexed _avatar);\n    event UpgradeController(address indexed _oldController, address _newController, address _avatar);\n\n    event AddGlobalConstraint(\n        address indexed _globalConstraint,\n        bytes32 _params,\n        GlobalConstraintInterface.CallPhase _when,\n        address indexed _avatar\n    );\n\n    event RemoveGlobalConstraint(\n        address indexed _globalConstraint,\n        uint256 _index,\n        bool _isPre,\n        address indexed _avatar\n    );\n\n   /**\n    * @dev newOrganization set up a new organization with default daoCreator.\n    * @param _avatar the organization avatar\n    */\n    function newOrganization(\n        Avatar _avatar\n    ) external\n    {\n        require(!actors[address(_avatar)]);\n        actors[address(_avatar)] = true;\n        require(_avatar.owner() == address(this));\n        DAOToken nativeToken = _avatar.nativeToken();\n        Reputation nativeReputation = _avatar.nativeReputation();\n        require(nativeToken.owner() == address(this));\n        require(nativeReputation.owner() == address(this));\n        //To guaranty uniqueness for the reputation systems.\n        require(!actors[address(nativeReputation)]);\n        actors[address(nativeReputation)] = true;\n        //To guaranty uniqueness for the nativeToken.\n        require(!actors[address(nativeToken)]);\n        actors[address(nativeToken)] = true;\n        organizations[address(_avatar)].nativeToken = nativeToken;\n        organizations[address(_avatar)].nativeReputation = nativeReputation;\n        organizations[address(_avatar)].schemes[msg.sender] =\n        Scheme({paramsHash: bytes32(0), permissions: bytes4(0x0000001f)});\n        emit RegisterScheme(msg.sender, msg.sender, address(_avatar));\n    }\n\n  // Modifiers:\n    modifier onlyRegisteredScheme(address avatar) {\n        require(organizations[avatar].schemes[msg.sender].permissions&bytes4(0x00000001) == bytes4(0x00000001));\n        _;\n    }\n\n    modifier onlyRegisteringSchemes(address avatar) {\n        require(organizations[avatar].schemes[msg.sender].permissions&bytes4(0x00000002) == bytes4(0x00000002));\n        _;\n    }\n\n    modifier onlyGlobalConstraintsScheme(address avatar) {\n        require(organizations[avatar].schemes[msg.sender].permissions&bytes4(0x00000004) == bytes4(0x00000004));\n        _;\n    }\n\n    modifier onlyUpgradingScheme(address _avatar) {\n        require(organizations[_avatar].schemes[msg.sender].permissions&bytes4(0x00000008) == bytes4(0x00000008));\n        _;\n    }\n\n    modifier onlyGenericCallScheme(address _avatar) {\n        require(organizations[_avatar].schemes[msg.sender].permissions&bytes4(0x00000010) == bytes4(0x00000010));\n        _;\n    }\n\n    modifier onlyMetaDataScheme(address _avatar) {\n        require(organizations[_avatar].schemes[msg.sender].permissions&bytes4(0x00000010) == bytes4(0x00000010));\n        _;\n    }\n\n    modifier onlySubjectToConstraint(bytes32 func, address _avatar) {\n        uint256 idx;\n        GlobalConstraint[] memory globalConstraintsPre = organizations[_avatar].globalConstraintsPre;\n        GlobalConstraint[] memory globalConstraintsPost = organizations[_avatar].globalConstraintsPost;\n        for (idx = 0; idx < globalConstraintsPre.length; idx++) {\n            require(\n            (GlobalConstraintInterface(globalConstraintsPre[idx].gcAddress))\n            .pre(msg.sender, globalConstraintsPre[idx].params, func));\n        }\n        _;\n        for (idx = 0; idx < globalConstraintsPost.length; idx++) {\n            require(\n            (GlobalConstraintInterface(globalConstraintsPost[idx].gcAddress))\n            .post(msg.sender, globalConstraintsPost[idx].params, func));\n        }\n    }\n\n    /**\n     * @dev Mint `_amount` of reputation that are assigned to `_to` .\n     * @param  _amount amount of reputation to mint\n     * @param _to beneficiary address\n     * @param _avatar the address of the organization's avatar\n     * @return bool which represents a success\n     */\n    function mintReputation(uint256 _amount, address _to, address _avatar)\n    external\n    onlyRegisteredScheme(_avatar)\n    onlySubjectToConstraint(\"mintReputation\", _avatar)\n    returns(bool)\n    {\n        emit MintReputation(msg.sender, _to, _amount, _avatar);\n        return organizations[_avatar].nativeReputation.mint(_to, _amount);\n    }\n\n    /**\n     * @dev Burns `_amount` of reputation from `_from`\n     * @param _amount amount of reputation to burn\n     * @param _from The address that will lose the reputation\n     * @return bool which represents a success\n     */\n    function burnReputation(uint256 _amount, address _from, address _avatar)\n    external\n    onlyRegisteredScheme(_avatar)\n    onlySubjectToConstraint(\"burnReputation\", _avatar)\n    returns(bool)\n    {\n        emit BurnReputation(msg.sender, _from, _amount, _avatar);\n        return organizations[_avatar].nativeReputation.burn(_from, _amount);\n    }\n\n    /**\n     * @dev mint tokens .\n     * @param  _amount amount of token to mint\n     * @param _beneficiary beneficiary address\n     * @param _avatar the organization avatar.\n     * @return bool which represents a success\n     */\n    function mintTokens(uint256 _amount, address _beneficiary, address _avatar)\n    external\n    onlyRegisteredScheme(_avatar)\n    onlySubjectToConstraint(\"mintTokens\", _avatar)\n    returns(bool)\n    {\n        emit MintTokens(msg.sender, _beneficiary, _amount, _avatar);\n        return organizations[_avatar].nativeToken.mint(_beneficiary, _amount);\n    }\n\n  /**\n   * @dev register or update a scheme\n   * @param _scheme the address of the scheme\n   * @param _paramsHash a hashed configuration of the usage of the scheme\n   * @param _permissions the permissions the new scheme will have\n   * @param _avatar the organization avatar.\n   * @return bool which represents a success\n   */\n    function registerScheme(address _scheme, bytes32 _paramsHash, bytes4 _permissions, address _avatar)\n    external\n    onlyRegisteringSchemes(_avatar)\n    onlySubjectToConstraint(\"registerScheme\", _avatar)\n    returns(bool)\n    {\n        bytes4 schemePermission = organizations[_avatar].schemes[_scheme].permissions;\n        bytes4 senderPermission = organizations[_avatar].schemes[msg.sender].permissions;\n    // Check scheme has at least the permissions it is changing, and at least the current permissions:\n    // Implementation is a bit messy. One must recall logic-circuits ^^\n\n    // produces non-zero if sender does not have all of the perms that are changing between old and new\n        require(bytes4(0x0000001f)&(_permissions^schemePermission)&(~senderPermission) == bytes4(0));\n\n    // produces non-zero if sender does not have all of the perms in the old scheme\n        require(bytes4(0x0000001f)&(schemePermission&(~senderPermission)) == bytes4(0));\n\n    // Add or change the scheme:\n        organizations[_avatar].schemes[_scheme] =\n        Scheme({paramsHash:_paramsHash, permissions:_permissions|bytes4(0x00000001)});\n        emit RegisterScheme(msg.sender, _scheme, _avatar);\n        return true;\n    }\n\n    /**\n     * @dev unregister a scheme\n     * @param _scheme the address of the scheme\n     * @param _avatar the organization avatar.\n     * @return bool which represents a success\n     */\n    function unregisterScheme(address _scheme, address _avatar)\n    external\n    onlyRegisteringSchemes(_avatar)\n    onlySubjectToConstraint(\"unregisterScheme\", _avatar)\n    returns(bool)\n    {\n        bytes4 schemePermission = organizations[_avatar].schemes[_scheme].permissions;\n    //check if the scheme is registered\n        if (schemePermission&bytes4(0x00000001) == bytes4(0)) {\n            return false;\n        }\n    // Check the unregistering scheme has enough permissions:\n        require(\n        bytes4(0x0000001f)&(schemePermission&(~organizations[_avatar].schemes[msg.sender].permissions)) == bytes4(0));\n\n    // Unregister:\n        emit UnregisterScheme(msg.sender, _scheme, _avatar);\n        delete organizations[_avatar].schemes[_scheme];\n        return true;\n    }\n\n    /**\n     * @dev unregister the caller's scheme\n     * @param _avatar the organization avatar.\n     * @return bool which represents a success\n     */\n    function unregisterSelf(address _avatar) external returns(bool) {\n        if (_isSchemeRegistered(msg.sender, _avatar) == false) {\n            return false;\n        }\n        delete organizations[_avatar].schemes[msg.sender];\n        emit UnregisterScheme(msg.sender, msg.sender, _avatar);\n        return true;\n    }\n\n    /**\n     * @dev add or update Global Constraint\n     * @param _globalConstraint the address of the global constraint to be added.\n     * @param _params the constraint parameters hash.\n     * @param _avatar the avatar of the organization\n     * @return bool which represents a success\n     */\n    function addGlobalConstraint(address _globalConstraint, bytes32 _params, address _avatar)\n    external onlyGlobalConstraintsScheme(_avatar) returns(bool)\n    {\n        Organization storage organization = organizations[_avatar];\n        GlobalConstraintInterface.CallPhase when = GlobalConstraintInterface(_globalConstraint).when();\n        if ((when == GlobalConstraintInterface.CallPhase.Pre)||\n            (when == GlobalConstraintInterface.CallPhase.PreAndPost)) {\n            if (!organization.globalConstraintsRegisterPre[_globalConstraint].isRegistered) {\n                organization.globalConstraintsPre.push(GlobalConstraint(_globalConstraint, _params));\n                organization.globalConstraintsRegisterPre[_globalConstraint] =\n                GlobalConstraintRegister(true, organization.globalConstraintsPre.length-1);\n            }else {\n                organization\n                .globalConstraintsPre[organization.globalConstraintsRegisterPre[_globalConstraint].index]\n                .params = _params;\n            }\n        }\n\n        if ((when == GlobalConstraintInterface.CallPhase.Post)||\n            (when == GlobalConstraintInterface.CallPhase.PreAndPost)) {\n            if (!organization.globalConstraintsRegisterPost[_globalConstraint].isRegistered) {\n                organization.globalConstraintsPost.push(GlobalConstraint(_globalConstraint, _params));\n                organization.globalConstraintsRegisterPost[_globalConstraint] =\n                GlobalConstraintRegister(true, organization.globalConstraintsPost.length-1);\n            } else {\n                organization\n                .globalConstraintsPost[organization.globalConstraintsRegisterPost[_globalConstraint].index]\n                .params = _params;\n            }\n        }\n        emit AddGlobalConstraint(_globalConstraint, _params, when, _avatar);\n        return true;\n    }\n\n    /**\n     * @dev remove Global Constraint\n     * @param _globalConstraint the address of the global constraint to be remove.\n     * @param _avatar the organization avatar.\n     * @return bool which represents a success\n     */\n    function removeGlobalConstraint (address _globalConstraint, address _avatar)\n    external onlyGlobalConstraintsScheme(_avatar) returns(bool)\n    {\n        GlobalConstraintInterface.CallPhase when = GlobalConstraintInterface(_globalConstraint).when();\n        if ((when == GlobalConstraintInterface.CallPhase.Pre)||\n            (when == GlobalConstraintInterface.CallPhase.PreAndPost)) {\n            removeGlobalConstraintPre(_globalConstraint, _avatar);\n        }\n        if ((when == GlobalConstraintInterface.CallPhase.Post)||\n            (when == GlobalConstraintInterface.CallPhase.PreAndPost)) {\n            removeGlobalConstraintPost(_globalConstraint, _avatar);\n        }\n        return true;\n    }\n\n  /**\n    * @dev upgrade the Controller\n    *      The function will trigger an event 'UpgradeController'.\n    * @param  _newController the address of the new controller.\n    * @param _avatar the organization avatar.\n    * @return bool which represents a success\n    */\n    function upgradeController(address _newController, Avatar _avatar)\n    external onlyUpgradingScheme(address(_avatar)) returns(bool)\n    {\n        require(newControllers[address(_avatar)] == address(0));   // so the upgrade could be done once for a contract.\n        require(_newController != address(0));\n        newControllers[address(_avatar)] = _newController;\n        _avatar.transferOwnership(_newController);\n        require(_avatar.owner() == _newController);\n        if (organizations[address(_avatar)].nativeToken.owner() == address(this)) {\n            organizations[address(_avatar)].nativeToken.transferOwnership(_newController);\n            require(organizations[address(_avatar)].nativeToken.owner() == _newController);\n        }\n        if (organizations[address(_avatar)].nativeReputation.owner() == address(this)) {\n            organizations[address(_avatar)].nativeReputation.transferOwnership(_newController);\n            require(organizations[address(_avatar)].nativeReputation.owner() == _newController);\n        }\n        emit UpgradeController(address(this), _newController, address(_avatar));\n        return true;\n    }\n\n    /**\n    * @dev perform a generic call to an arbitrary contract\n    * @param _contract  the contract's address to call\n    * @param _data ABI-encoded contract call to call `_contract` address.\n    * @param _avatar the controller's avatar address\n    * @param _value value (ETH) to transfer with the transaction\n    * @return bool -success\n    *         bytes  - the return value of the called _contract's function.\n    */\n    function genericCall(address _contract, bytes calldata _data, Avatar _avatar, uint256 _value)\n    external\n    onlyGenericCallScheme(address(_avatar))\n    onlySubjectToConstraint(\"genericCall\", address(_avatar))\n    returns (bool, bytes memory)\n    {\n        return _avatar.genericCall(_contract, _data, _value);\n    }\n\n  /**\n   * @dev send some ether\n   * @param _amountInWei the amount of ether (in Wei) to send\n   * @param _to address of the beneficiary\n   * @param _avatar the organization avatar.\n   * @return bool which represents a success\n   */\n    function sendEther(uint256 _amountInWei, address payable _to, Avatar _avatar)\n    external\n    onlyRegisteredScheme(address(_avatar))\n    onlySubjectToConstraint(\"sendEther\", address(_avatar))\n    returns(bool)\n    {\n        return _avatar.sendEther(_amountInWei, _to);\n    }\n\n    /**\n    * @dev send some amount of arbitrary ERC20 Tokens\n    * @param _externalToken the address of the Token Contract\n    * @param _to address of the beneficiary\n    * @param _value the amount of ether (in Wei) to send\n    * @param _avatar the organization avatar.\n    * @return bool which represents a success\n    */\n    function externalTokenTransfer(IERC20 _externalToken, address _to, uint256 _value, Avatar _avatar)\n    external\n    onlyRegisteredScheme(address(_avatar))\n    onlySubjectToConstraint(\"externalTokenTransfer\", address(_avatar))\n    returns(bool)\n    {\n        return _avatar.externalTokenTransfer(_externalToken, _to, _value);\n    }\n\n    /**\n    * @dev transfer token \"from\" address \"to\" address\n    *      One must to approve the amount of tokens which can be spend from the\n    *      \"from\" account.This can be done using externalTokenApprove.\n    * @param _externalToken the address of the Token Contract\n    * @param _from address of the account to send from\n    * @param _to address of the beneficiary\n    * @param _value the amount of ether (in Wei) to send\n    * @param _avatar the organization avatar.\n    * @return bool which represents a success\n    */\n    function externalTokenTransferFrom(\n    IERC20 _externalToken,\n    address _from,\n    address _to,\n    uint256 _value,\n    Avatar _avatar)\n    external\n    onlyRegisteredScheme(address(_avatar))\n    onlySubjectToConstraint(\"externalTokenTransferFrom\", address(_avatar))\n    returns(bool)\n    {\n        return _avatar.externalTokenTransferFrom(_externalToken, _from, _to, _value);\n    }\n\n    /**\n    * @dev externalTokenApproval approve the spender address to spend a specified amount of tokens\n    *      on behalf of msg.sender.\n    * @param _externalToken the address of the Token Contract\n    * @param _spender address\n    * @param _value the amount of ether (in Wei) which the approval is referring to.\n    * @return bool which represents a success\n    */\n    function externalTokenApproval(IERC20 _externalToken, address _spender, uint256 _value, Avatar _avatar)\n    external\n    onlyRegisteredScheme(address(_avatar))\n    onlySubjectToConstraint(\"externalTokenApproval\", address(_avatar))\n    returns(bool)\n    {\n        return _avatar.externalTokenApproval(_externalToken, _spender, _value);\n    }\n\n    /**\n    * @dev metaData emits an event with a string, should contain the hash of some meta data.\n    * @param _metaData a string representing a hash of the meta data\n    * @param _avatar Avatar\n    * @return bool which represents a success\n    */\n    function metaData(string calldata _metaData, Avatar _avatar)\n        external\n        onlyMetaDataScheme(address(_avatar))\n        returns(bool)\n        {\n        return _avatar.metaData(_metaData);\n    }\n\n    function isSchemeRegistered( address _scheme, address _avatar) external view returns(bool) {\n        return _isSchemeRegistered(_scheme, _avatar);\n    }\n\n    function getSchemeParameters(address _scheme, address _avatar) external view returns(bytes32) {\n        return organizations[_avatar].schemes[_scheme].paramsHash;\n    }\n\n    function getSchemePermissions(address _scheme, address _avatar) external view returns(bytes4) {\n        return organizations[_avatar].schemes[_scheme].permissions;\n    }\n\n    function getGlobalConstraintParameters(address _globalConstraint, address _avatar) external view returns(bytes32) {\n\n        Organization storage organization = organizations[_avatar];\n\n        GlobalConstraintRegister memory register = organization.globalConstraintsRegisterPre[_globalConstraint];\n\n        if (register.isRegistered) {\n            return organization.globalConstraintsPre[register.index].params;\n        }\n\n        register = organization.globalConstraintsRegisterPost[_globalConstraint];\n\n        if (register.isRegistered) {\n            return organization.globalConstraintsPost[register.index].params;\n        }\n    }\n\n   /**\n   * @dev globalConstraintsCount return the global constraint pre and post count\n   * @return uint256 globalConstraintsPre count.\n   * @return uint256 globalConstraintsPost count.\n   */\n    function globalConstraintsCount(address _avatar) external view returns(uint, uint) {\n        return (\n        organizations[_avatar].globalConstraintsPre.length,\n        organizations[_avatar].globalConstraintsPost.length\n        );\n    }\n\n    function isGlobalConstraintRegistered(address _globalConstraint, address _avatar) external view returns(bool) {\n        return (organizations[_avatar].globalConstraintsRegisterPre[_globalConstraint].isRegistered ||\n        organizations[_avatar].globalConstraintsRegisterPost[_globalConstraint].isRegistered);\n    }\n\n    /**\n     * @dev getNativeReputation\n     * @param _avatar the organization avatar.\n     * @return organization native reputation\n     */\n    function getNativeReputation(address _avatar) external view returns(address) {\n        return address(organizations[_avatar].nativeReputation);\n    }\n\n    /**\n     * @dev removeGlobalConstraintPre\n     * @param _globalConstraint the address of the global constraint to be remove.\n     * @param _avatar the organization avatar.\n     * @return bool which represents a success\n     */\n    function removeGlobalConstraintPre(address _globalConstraint, address _avatar)\n    private returns(bool)\n    {\n        GlobalConstraintRegister memory globalConstraintRegister =\n        organizations[_avatar].globalConstraintsRegisterPre[_globalConstraint];\n        GlobalConstraint[] storage globalConstraints = organizations[_avatar].globalConstraintsPre;\n\n        if (globalConstraintRegister.isRegistered) {\n            if (globalConstraintRegister.index < globalConstraints.length-1) {\n                GlobalConstraint memory globalConstraint = globalConstraints[globalConstraints.length-1];\n                globalConstraints[globalConstraintRegister.index] = globalConstraint;\n                organizations[_avatar].globalConstraintsRegisterPre[globalConstraint.gcAddress].index =\n                globalConstraintRegister.index;\n            }\n            globalConstraints.length--;\n            delete organizations[_avatar].globalConstraintsRegisterPre[_globalConstraint];\n            emit RemoveGlobalConstraint(_globalConstraint, globalConstraintRegister.index, true, _avatar);\n            return true;\n        }\n        return false;\n    }\n\n    /**\n     * @dev removeGlobalConstraintPost\n     * @param _globalConstraint the address of the global constraint to be remove.\n     * @param _avatar the organization avatar.\n     * @return bool which represents a success\n     */\n    function removeGlobalConstraintPost(address _globalConstraint, address _avatar)\n    private returns(bool)\n    {\n        GlobalConstraintRegister memory globalConstraintRegister =\n        organizations[_avatar].globalConstraintsRegisterPost[_globalConstraint];\n        GlobalConstraint[] storage globalConstraints = organizations[_avatar].globalConstraintsPost;\n\n        if (globalConstraintRegister.isRegistered) {\n            if (globalConstraintRegister.index < globalConstraints.length-1) {\n                GlobalConstraint memory globalConstraint = globalConstraints[globalConstraints.length-1];\n                globalConstraints[globalConstraintRegister.index] = globalConstraint;\n                organizations[_avatar].globalConstraintsRegisterPost[globalConstraint.gcAddress].index =\n                globalConstraintRegister.index;\n            }\n            globalConstraints.length--;\n            delete organizations[_avatar].globalConstraintsRegisterPost[_globalConstraint];\n            emit RemoveGlobalConstraint(_globalConstraint, globalConstraintRegister.index, false, _avatar);\n            return true;\n        }\n        return false;\n    }\n\n    function _isSchemeRegistered( address _scheme, address _avatar) private view returns(bool) {\n        return (organizations[_avatar].schemes[_scheme].permissions&bytes4(0x00000001) != bytes4(0));\n    }\n}\n",
  "sourcePath": "/Users/oren/daostack/arc/contracts/controller/UController.sol",
  "compiler": {
    "name": "solc",
    "version": "0.5.11+commit.c082d0b4.Emscripten.clang"
  },
  "schemaVersion": "3.0.14",
  "updatedAt": "2019-09-09T09:08:22.208Z",
  "devdoc": {
    "details": "A universal controller hold organizations and controls their tokens ,reputations      and avatar. It is subject to a set of schemes and constraints that determine its behavior. Each scheme has it own parameters and operation permissions.",
    "methods": {
      "addGlobalConstraint(address,bytes32,address)": {
        "details": "add or update Global Constraint",
        "params": {
          "_avatar": "the avatar of the organization",
          "_globalConstraint": "the address of the global constraint to be added.",
          "_params": "the constraint parameters hash."
        },
        "return": "bool which represents a success"
      },
      "burnReputation(uint256,address,address)": {
        "details": "Burns `_amount` of reputation from `_from`",
        "params": {
          "_amount": "amount of reputation to burn",
          "_from": "The address that will lose the reputation"
        },
        "return": "bool which represents a success"
      },
      "externalTokenApproval(address,address,uint256,address)": {
        "details": "externalTokenApproval approve the spender address to spend a specified amount of tokens     on behalf of msg.sender.",
        "params": {
          "_externalToken": "the address of the Token Contract",
          "_spender": "address",
          "_value": "the amount of ether (in Wei) which the approval is referring to."
        },
        "return": "bool which represents a success"
      },
      "externalTokenTransfer(address,address,uint256,address)": {
        "details": "send some amount of arbitrary ERC20 Tokens",
        "params": {
          "_avatar": "the organization avatar.",
          "_externalToken": "the address of the Token Contract",
          "_to": "address of the beneficiary",
          "_value": "the amount of ether (in Wei) to send"
        },
        "return": "bool which represents a success"
      },
      "externalTokenTransferFrom(address,address,address,uint256,address)": {
        "details": "transfer token \"from\" address \"to\" address     One must to approve the amount of tokens which can be spend from the     \"from\" account.This can be done using externalTokenApprove.",
        "params": {
          "_avatar": "the organization avatar.",
          "_externalToken": "the address of the Token Contract",
          "_from": "address of the account to send from",
          "_to": "address of the beneficiary",
          "_value": "the amount of ether (in Wei) to send"
        },
        "return": "bool which represents a success"
      },
      "genericCall(address,bytes,address,uint256)": {
        "details": "perform a generic call to an arbitrary contract",
        "params": {
          "_avatar": "the controller's avatar address",
          "_contract": "the contract's address to call",
          "_data": "ABI-encoded contract call to call `_contract` address.",
          "_value": "value (ETH) to transfer with the transaction"
        },
        "return": "bool -success        bytes  - the return value of the called _contract's function."
      },
      "getNativeReputation(address)": {
        "details": "getNativeReputation",
        "params": {
          "_avatar": "the organization avatar."
        },
        "return": "organization native reputation"
      },
      "globalConstraintsCount(address)": {
        "details": "globalConstraintsCount return the global constraint pre and post count",
        "return": "uint256 globalConstraintsPre count.uint256 globalConstraintsPost count."
      },
      "metaData(string,address)": {
        "details": "metaData emits an event with a string, should contain the hash of some meta data.",
        "params": {
          "_avatar": "Avatar",
          "_metaData": "a string representing a hash of the meta data"
        },
        "return": "bool which represents a success"
      },
      "mintReputation(uint256,address,address)": {
        "details": "Mint `_amount` of reputation that are assigned to `_to` .",
        "params": {
          "_amount": "amount of reputation to mint",
          "_avatar": "the address of the organization's avatar",
          "_to": "beneficiary address"
        },
        "return": "bool which represents a success"
      },
      "mintTokens(uint256,address,address)": {
        "details": "mint tokens .",
        "params": {
          "_amount": "amount of token to mint",
          "_avatar": "the organization avatar.",
          "_beneficiary": "beneficiary address"
        },
        "return": "bool which represents a success"
      },
      "newOrganization(address)": {
        "details": "newOrganization set up a new organization with default daoCreator.",
        "params": {
          "_avatar": "the organization avatar"
        }
      },
      "registerScheme(address,bytes32,bytes4,address)": {
        "details": "register or update a scheme",
        "params": {
          "_avatar": "the organization avatar.",
          "_paramsHash": "a hashed configuration of the usage of the scheme",
          "_permissions": "the permissions the new scheme will have",
          "_scheme": "the address of the scheme"
        },
        "return": "bool which represents a success"
      },
      "removeGlobalConstraint(address,address)": {
        "details": "remove Global Constraint",
        "params": {
          "_avatar": "the organization avatar.",
          "_globalConstraint": "the address of the global constraint to be remove."
        },
        "return": "bool which represents a success"
      },
      "sendEther(uint256,address,address)": {
        "details": "send some ether",
        "params": {
          "_amountInWei": "the amount of ether (in Wei) to send",
          "_avatar": "the organization avatar.",
          "_to": "address of the beneficiary"
        },
        "return": "bool which represents a success"
      },
      "unregisterScheme(address,address)": {
        "details": "unregister a scheme",
        "params": {
          "_avatar": "the organization avatar.",
          "_scheme": "the address of the scheme"
        },
        "return": "bool which represents a success"
      },
      "unregisterSelf(address)": {
        "details": "unregister the caller's scheme",
        "params": {
          "_avatar": "the organization avatar."
        },
        "return": "bool which represents a success"
      },
      "upgradeController(address,address)": {
        "details": "upgrade the Controller     The function will trigger an event 'UpgradeController'.",
        "params": {
          "_avatar": "the organization avatar.",
          "_newController": "the address of the new controller."
        },
        "return": "bool which represents a success"
      }
    },
    "title": "Universal Controller contract"
  },
  "userdoc": {
    "methods": {}
  }
}