{
  "contractName": "VotingMachineCallbacks",
  "abi": [
    {
      "constant": true,
      "inputs": [
        {
          "internalType": "address",
          "name": "",
          "type": "address"
        },
        {
          "internalType": "bytes32",
          "name": "",
          "type": "bytes32"
        }
      ],
      "name": "proposalsInfo",
      "outputs": [
        {
          "internalType": "uint256",
          "name": "blockNumber",
          "type": "uint256"
        },
        {
          "internalType": "contract Avatar",
          "name": "avatar",
          "type": "address"
        }
      ],
      "payable": false,
      "stateMutability": "view",
      "type": "function"
    },
    {
      "constant": false,
      "inputs": [
        {
          "internalType": "uint256",
          "name": "_amount",
          "type": "uint256"
        },
        {
          "internalType": "address",
          "name": "_beneficiary",
          "type": "address"
        },
        {
          "internalType": "bytes32",
          "name": "_proposalId",
          "type": "bytes32"
        }
      ],
      "name": "mintReputation",
      "outputs": [
        {
          "internalType": "bool",
          "name": "",
          "type": "bool"
        }
      ],
      "payable": false,
      "stateMutability": "nonpayable",
      "type": "function"
    },
    {
      "constant": false,
      "inputs": [
        {
          "internalType": "uint256",
          "name": "_amount",
          "type": "uint256"
        },
        {
          "internalType": "address",
          "name": "_beneficiary",
          "type": "address"
        },
        {
          "internalType": "bytes32",
          "name": "_proposalId",
          "type": "bytes32"
        }
      ],
      "name": "burnReputation",
      "outputs": [
        {
          "internalType": "bool",
          "name": "",
          "type": "bool"
        }
      ],
      "payable": false,
      "stateMutability": "nonpayable",
      "type": "function"
    },
    {
      "constant": false,
      "inputs": [
        {
          "internalType": "contract IERC20",
          "name": "_stakingToken",
          "type": "address"
        },
        {
          "internalType": "address",
          "name": "_beneficiary",
          "type": "address"
        },
        {
          "internalType": "uint256",
          "name": "_amount",
          "type": "uint256"
        },
        {
          "internalType": "bytes32",
          "name": "_proposalId",
          "type": "bytes32"
        }
      ],
      "name": "stakingTokenTransfer",
      "outputs": [
        {
          "internalType": "bool",
          "name": "",
          "type": "bool"
        }
      ],
      "payable": false,
      "stateMutability": "nonpayable",
      "type": "function"
    },
    {
      "constant": true,
      "inputs": [
        {
          "internalType": "contract IERC20",
          "name": "_stakingToken",
          "type": "address"
        },
        {
          "internalType": "bytes32",
          "name": "_proposalId",
          "type": "bytes32"
        }
      ],
      "name": "balanceOfStakingToken",
      "outputs": [
        {
          "internalType": "uint256",
          "name": "",
          "type": "uint256"
        }
      ],
      "payable": false,
      "stateMutability": "view",
      "type": "function"
    },
    {
      "constant": true,
      "inputs": [
        {
          "internalType": "bytes32",
          "name": "_proposalId",
          "type": "bytes32"
        }
      ],
      "name": "getTotalReputationSupply",
      "outputs": [
        {
          "internalType": "uint256",
          "name": "",
          "type": "uint256"
        }
      ],
      "payable": false,
      "stateMutability": "view",
      "type": "function"
    },
    {
      "constant": true,
      "inputs": [
        {
          "internalType": "address",
          "name": "_owner",
          "type": "address"
        },
        {
          "internalType": "bytes32",
          "name": "_proposalId",
          "type": "bytes32"
        }
      ],
      "name": "reputationOf",
      "outputs": [
        {
          "internalType": "uint256",
          "name": "",
          "type": "uint256"
        }
      ],
      "payable": false,
      "stateMutability": "view",
      "type": "function"
    }
  ],
  "bytecode": "0x608060405234801561001057600080fd5b50610a24806100206000396000f3fe608060405234801561001057600080fd5b506004361061007d5760003560e01c8063b551c3731161005b578063b551c37314610139578063bea75f2814610156578063d29b5d2f146101a6578063f81f8bf6146101d85761007d565b806360bdbb3f146100825780636b8eb403146100cf5780639588378e1461010d575b600080fd5b6100ae6004803603604081101561009857600080fd5b506001600160a01b03813516906020013561020a565b604080519283526001600160a01b0390911660208301528051918290030190f35b6100fb600480360360408110156100e557600080fd5b506001600160a01b038135169060200135610234565b60408051918252519081900360200190f35b6100fb6004803603604081101561012357600080fd5b506001600160a01b0381351690602001356102f4565b6100fb6004803603602081101561014f57600080fd5b5035610402565b6101926004803603608081101561016c57600080fd5b506001600160a01b0381358116916020810135909116906040810135906060013561053c565b604080519115158252519081900360200190f35b610192600480360360608110156101bc57600080fd5b508035906001600160a01b0360208201351690604001356106de565b610192600480360360608110156101ee57600080fd5b508035906001600160a01b036020820135169060400135610877565b6000602081815292815260408082209093529081522080546001909101546001600160a01b031682565b336000908152602081815260408083208484529091528120600101546001600160a01b0316806102685760009150506102ee565b836001600160a01b03166370a08231826040518263ffffffff1660e01b815260040180826001600160a01b03166001600160a01b0316815260200191505060206040518083038186803b1580156102be57600080fd5b505afa1580156102d2573d6000803e3d6000fd5b505050506040513d60208110156102e857600080fd5b50519150505b92915050565b60006102fe6109d8565b5033600090815260208181526040808320858452825291829020825180840190935280548352600101546001600160a01b03169082018190526103455760009150506102ee565b80602001516001600160a01b03166389ae1c906040518163ffffffff1660e01b815260040160206040518083038186803b15801561038257600080fd5b505afa158015610396573d6000803e3d6000fd5b505050506040513d60208110156103ac57600080fd5b505181516040805163277166bf60e11b81526001600160a01b038881166004830152602482019390935290519190921691634ee2cd7e916044808301926020929190829003018186803b1580156102be57600080fd5b600061040c6109d8565b5033600090815260208181526040808320858452825291829020825180840190935280548352600101546001600160a01b0316908201819052610453576000915050610537565b80602001516001600160a01b03166389ae1c906040518163ffffffff1660e01b815260040160206040518083038186803b15801561049057600080fd5b505afa1580156104a4573d6000803e3d6000fd5b505050506040513d60208110156104ba57600080fd5b5051815160408051630981b24d60e41b81526004810192909252516001600160a01b039092169163981b24d091602480820192602092909190829003018186803b15801561050757600080fd5b505afa15801561051b573d6000803e3d6000fd5b505050506040513d602081101561053157600080fd5b50519150505b919050565b3360009081526020818152604080832084845290915281206001015482906001600160a01b03166105a9576040805162461bcd60e51b81526020600482015260126024820152716f6e6c7920566f74696e674d616368696e6560701b604482015290519081900360640190fd5b336000908152602081815260408083208684529091529020600101546001600160a01b0316806105dd5760009250506106d5565b806001600160a01b0316638da5cb5b6040518163ffffffff1660e01b815260040160206040518083038186803b15801561061657600080fd5b505afa15801561062a573d6000803e3d6000fd5b505050506040513d602081101561064057600080fd5b50516040805163b9a04cdd60e01b81526001600160a01b038a8116600483015289811660248301526044820189905284811660648301529151919092169163b9a04cdd9160848083019260209291908290030181600087803b1580156106a557600080fd5b505af11580156106b9573d6000803e3d6000fd5b505050506040513d60208110156106cf57600080fd5b50519250505b50949350505050565b3360009081526020818152604080832084845290915281206001015482906001600160a01b031661074b576040805162461bcd60e51b81526020600482015260126024820152716f6e6c7920566f74696e674d616368696e6560701b604482015290519081900360640190fd5b336000908152602081815260408083208684529091529020600101546001600160a01b03168061077f57600092505061086f565b806001600160a01b0316638da5cb5b6040518163ffffffff1660e01b815260040160206040518083038186803b1580156107b857600080fd5b505afa1580156107cc573d6000803e3d6000fd5b505050506040513d60208110156107e257600080fd5b50516040805163757cca5960e11b8152600481018990526001600160a01b03888116602483015284811660448301529151919092169163eaf994b29160648083019260209291908290030181600087803b15801561083f57600080fd5b505af1158015610853573d6000803e3d6000fd5b505050506040513d602081101561086957600080fd5b50519250505b509392505050565b3360009081526020818152604080832084845290915281206001015482906001600160a01b03166108e4576040805162461bcd60e51b81526020600482015260126024820152716f6e6c7920566f74696e674d616368696e6560701b604482015290519081900360640190fd5b336000908152602081815260408083208684529091529020600101546001600160a01b03168061091857600092505061086f565b806001600160a01b0316638da5cb5b6040518163ffffffff1660e01b815260040160206040518083038186803b15801561095157600080fd5b505afa158015610965573d6000803e3d6000fd5b505050506040513d602081101561097b57600080fd5b505160408051630dd29a4f60e31b8152600481018990526001600160a01b038881166024830152848116604483015291519190921691636e94d2789160648083019260209291908290030181600087803b15801561083f57600080fd5b60408051808201909152600080825260208201529056fea265627a7a72315820e6e585e673fd6b08d525e7a9ee8603d0b340097749db9d38db6b61fadc622c1c64736f6c634300050b0032",
  "source": "pragma solidity ^0.5.11;\n\nimport \"../universalSchemes/UniversalScheme.sol\";\nimport \"@daostack/infra/contracts/votingMachines/GenesisProtocol.sol\";\n\n\ncontract VotingMachineCallbacks is VotingMachineCallbacksInterface {\n\n    struct ProposalInfo {\n        uint256 blockNumber; // the proposal's block number\n        Avatar avatar; // the proposal's avatar\n    }\n\n    modifier onlyVotingMachine(bytes32 _proposalId) {\n        require(proposalsInfo[msg.sender][_proposalId].avatar != Avatar(address(0)), \"only VotingMachine\");\n        _;\n    }\n\n    // VotingMaching  ->  proposalId  ->  ProposalInfo\n    mapping(address => mapping(bytes32 => ProposalInfo)) public proposalsInfo;\n\n    function mintReputation(uint256 _amount, address _beneficiary, bytes32 _proposalId)\n    external\n    onlyVotingMachine(_proposalId)\n    returns(bool)\n    {\n        Avatar avatar = proposalsInfo[msg.sender][_proposalId].avatar;\n        if (avatar == Avatar(0)) {\n            return false;\n        }\n        return ControllerInterface(avatar.owner()).mintReputation(_amount, _beneficiary, address(avatar));\n    }\n\n    function burnReputation(uint256 _amount, address _beneficiary, bytes32 _proposalId)\n    external\n    onlyVotingMachine(_proposalId)\n    returns(bool)\n    {\n        Avatar avatar = proposalsInfo[msg.sender][_proposalId].avatar;\n        if (avatar == Avatar(0)) {\n            return false;\n        }\n        return ControllerInterface(avatar.owner()).burnReputation(_amount, _beneficiary, address(avatar));\n    }\n\n    function stakingTokenTransfer(\n        IERC20 _stakingToken,\n        address _beneficiary,\n        uint256 _amount,\n        bytes32 _proposalId)\n    external\n    onlyVotingMachine(_proposalId)\n    returns(bool)\n    {\n        Avatar avatar = proposalsInfo[msg.sender][_proposalId].avatar;\n        if (avatar == Avatar(0)) {\n            return false;\n        }\n        return ControllerInterface(avatar.owner()).externalTokenTransfer(_stakingToken, _beneficiary, _amount, avatar);\n    }\n\n    function balanceOfStakingToken(IERC20 _stakingToken, bytes32 _proposalId) external view returns(uint256) {\n        Avatar avatar = proposalsInfo[msg.sender][_proposalId].avatar;\n        if (proposalsInfo[msg.sender][_proposalId].avatar == Avatar(0)) {\n            return 0;\n        }\n        return _stakingToken.balanceOf(address(avatar));\n    }\n\n    function getTotalReputationSupply(bytes32 _proposalId) external view returns(uint256) {\n        ProposalInfo memory proposal = proposalsInfo[msg.sender][_proposalId];\n        if (proposal.avatar == Avatar(0)) {\n            return 0;\n        }\n        return proposal.avatar.nativeReputation().totalSupplyAt(proposal.blockNumber);\n    }\n\n    function reputationOf(address _owner, bytes32 _proposalId) external view returns(uint256) {\n        ProposalInfo memory proposal = proposalsInfo[msg.sender][_proposalId];\n        if (proposal.avatar == Avatar(0)) {\n            return 0;\n        }\n        return proposal.avatar.nativeReputation().balanceOfAt(_owner, proposal.blockNumber);\n    }\n}\n",
  "sourcePath": "/Users/oren/daostack/arc/contracts/votingMachines/VotingMachineCallbacks.sol",
  "compiler": {
    "name": "solc",
    "version": "0.5.11+commit.c082d0b4.Emscripten.clang"
  },
  "schemaVersion": "3.0.14",
  "updatedAt": "2019-10-23T07:24:25.411Z",
  "devdoc": {
    "methods": {}
  },
  "userdoc": {
    "methods": {}
  }
}