{
  "contractName": "DAORegistry",
  "abi": [
    {
      "anonymous": false,
      "inputs": [
        {
          "indexed": true,
          "internalType": "address",
          "name": "previousOwner",
          "type": "address"
        },
        {
          "indexed": true,
          "internalType": "address",
          "name": "newOwner",
          "type": "address"
        }
      ],
      "name": "OwnershipTransferred",
      "type": "event"
    },
    {
      "anonymous": false,
      "inputs": [
        {
          "indexed": true,
          "internalType": "address",
          "name": "_avatar",
          "type": "address"
        }
      ],
      "name": "Propose",
      "type": "event"
    },
    {
      "anonymous": false,
      "inputs": [
        {
          "indexed": true,
          "internalType": "address",
          "name": "_avatar",
          "type": "address"
        },
        {
          "indexed": false,
          "internalType": "string",
          "name": "_name",
          "type": "string"
        }
      ],
      "name": "Register",
      "type": "event"
    },
    {
      "anonymous": false,
      "inputs": [
        {
          "indexed": true,
          "internalType": "address",
          "name": "_avatar",
          "type": "address"
        }
      ],
      "name": "UnRegister",
      "type": "event"
    },
    {
      "constant": false,
      "inputs": [
        {
          "internalType": "address",
          "name": "sender",
          "type": "address"
        }
      ],
      "name": "initialize",
      "outputs": [],
      "payable": false,
      "stateMutability": "nonpayable",
      "type": "function"
    },
    {
      "constant": true,
      "inputs": [],
      "name": "isOwner",
      "outputs": [
        {
          "internalType": "bool",
          "name": "",
          "type": "bool"
        }
      ],
      "payable": false,
      "stateMutability": "view",
      "type": "function"
    },
    {
      "constant": true,
      "inputs": [],
      "name": "owner",
      "outputs": [
        {
          "internalType": "address",
          "name": "",
          "type": "address"
        }
      ],
      "payable": false,
      "stateMutability": "view",
      "type": "function"
    },
    {
      "constant": false,
      "inputs": [],
      "name": "renounceOwnership",
      "outputs": [],
      "payable": false,
      "stateMutability": "nonpayable",
      "type": "function"
    },
    {
      "constant": false,
      "inputs": [
        {
          "internalType": "address",
          "name": "newOwner",
          "type": "address"
        }
      ],
      "name": "transferOwnership",
      "outputs": [],
      "payable": false,
      "stateMutability": "nonpayable",
      "type": "function"
    },
    {
      "constant": false,
      "inputs": [
        {
          "internalType": "address",
          "name": "_avatar",
          "type": "address"
        }
      ],
      "name": "propose",
      "outputs": [],
      "payable": false,
      "stateMutability": "nonpayable",
      "type": "function"
    },
    {
      "constant": false,
      "inputs": [
        {
          "internalType": "address",
          "name": "_avatar",
          "type": "address"
        },
        {
          "internalType": "string",
          "name": "_name",
          "type": "string"
        }
      ],
      "name": "register",
      "outputs": [],
      "payable": false,
      "stateMutability": "nonpayable",
      "type": "function"
    },
    {
      "constant": false,
      "inputs": [
        {
          "internalType": "address",
          "name": "_avatar",
          "type": "address"
        }
      ],
      "name": "unRegister",
      "outputs": [],
      "payable": false,
      "stateMutability": "nonpayable",
      "type": "function"
    },
    {
      "constant": true,
      "inputs": [
        {
          "internalType": "string",
          "name": "_name",
          "type": "string"
        }
      ],
      "name": "isRegister",
      "outputs": [
        {
          "internalType": "bool",
          "name": "",
          "type": "bool"
        }
      ],
      "payable": false,
      "stateMutability": "view",
      "type": "function"
    }
  ],
  "bytecode": "0x608060405261091e806100136000396000f3fe608060405234801561001057600080fd5b50600436106100935760003560e01c8063715018a611610066578063715018a6146102565780638da5cb5b1461025e5780638f32d59b14610282578063c4d66de81461028a578063f2fde38b146102b057610093565b80630126795114610098578063178d680d146100c057806327c956251461017a57806332434a2e146101a0575b600080fd5b6100be600480360360208110156100ae57600080fd5b50356001600160a01b03166102d6565b005b610166600480360360208110156100d657600080fd5b8101906020810181356401000000008111156100f157600080fd5b82018360208201111561010357600080fd5b8035906020019184600183028401116401000000008311171561012557600080fd5b91908080601f01602080910402602001604051908101604052809392919081815260200183838082843760009201919091525092955061030d945050505050565b604080519115158252519081900360200190f35b6100be6004803603602081101561019057600080fd5b50356001600160a01b0316610378565b6100be600480360360408110156101b657600080fd5b6001600160a01b0382351691908101906040810160208201356401000000008111156101e157600080fd5b8201836020820111156101f357600080fd5b8035906020019184600183028401116401000000008311171561021557600080fd5b91908080601f0160208091040260200160405190810160405280939291908181526020018383808284376000920191909152509295506103f6945050505050565b6100be6105bf565b610266610650565b604080516001600160a01b039092168252519081900360200190f35b61016661065f565b6100be600480360360208110156102a057600080fd5b50356001600160a01b0316610685565b6100be600480360360208110156102c657600080fd5b50356001600160a01b0316610777565b6040516001600160a01b038216907fd16d50d8d566a5c6f1f5d89ffcfa821adc9d9f4e780d153563abc82e943ff0e390600090a250565b60006066826040518082805190602001908083835b602083106103415780518252601f199092019160209182019101610322565b51815160209384036101000a600019018019909216911617905292019485525060405193849003019092205460ff16949350505050565b61038061065f565b6103bf576040805162461bcd60e51b8152602060048201819052602482015260008051602061089c833981519152604482015290519081900360640190fd5b6040516001600160a01b038216907f630f28bb6372d0a747db8dcdb1a523bd9d875ddd96649c705325e60b239fc3c390600090a250565b6103fe61065f565b61043d576040805162461bcd60e51b8152602060048201819052602482015260008051602061089c833981519152604482015290519081900360640190fd5b6066816040518082805190602001908083835b6020831061046f5780518252601f199092019160209182019101610450565b51815160209384036101000a600019018019909216911617905292019485525060405193849003019092205460ff161591506104ac905057600080fd5b60016066826040518082805190602001908083835b602083106104e05780518252601f1990920191602091820191016104c1565b51815160209384036101000a6000190180199092169116179052920194855250604080519485900382018520805460ff19169615159690961790955580845285518482015285516001600160a01b038816957f6ba0831d2f62ae5cbf7214bcc1d79c5da1d705f12811efda0beaa840006f874e9588955093508392908301919085019080838360005b83811015610581578181015183820152602001610569565b50505050905090810190601f1680156105ae5780820380516001836020036101000a031916815260200191505b509250505060405180910390a25050565b6105c761065f565b610606576040805162461bcd60e51b8152602060048201819052602482015260008051602061089c833981519152604482015290519081900360640190fd5b6033546040516000916001600160a01b0316907f8be0079c531659141344cd1fd0a4f28419497f9722a3daafe3b4186f6b6457e0908390a3603380546001600160a01b0319169055565b6033546001600160a01b031690565b6033546000906001600160a01b03166106766107ca565b6001600160a01b031614905090565b600054610100900460ff168061069e575061069e6107ce565b806106ac575060005460ff16155b6106e75760405162461bcd60e51b815260040180806020018281038252602e8152602001806108bc602e913960400191505060405180910390fd5b600054610100900460ff16158015610712576000805460ff1961ff0019909116610100171660011790555b603380546001600160a01b0319166001600160a01b0384811691909117918290556040519116906000907f8be0079c531659141344cd1fd0a4f28419497f9722a3daafe3b4186f6b6457e0908290a38015610773576000805461ff00191690555b5050565b61077f61065f565b6107be576040805162461bcd60e51b8152602060048201819052602482015260008051602061089c833981519152604482015290519081900360640190fd5b6107c7816107d4565b50565b3390565b303b1590565b6001600160a01b0381166108195760405162461bcd60e51b81526004018080602001828103825260268152602001806108766026913960400191505060405180910390fd5b6033546040516001600160a01b038084169216907f8be0079c531659141344cd1fd0a4f28419497f9722a3daafe3b4186f6b6457e090600090a3603380546001600160a01b0319166001600160a01b039290921691909117905556fe4f776e61626c653a206e6577206f776e657220697320746865207a65726f20616464726573734f776e61626c653a2063616c6c6572206973206e6f7420746865206f776e6572436f6e747261637420696e7374616e63652068617320616c7265616479206265656e20696e697469616c697a6564a265627a7a72315820ecacf8451a314f6cd859ed4f338cc438c9eaf16622e66b43a5ac5bb33f5b02a064736f6c634300050f0032",
  "source": "pragma solidity ^0.5.15;\n\nimport \"@openzeppelin/contracts-ethereum-package/contracts/ownership/Ownable.sol\";\n\ncontract DAORegistry is Ownable {\n\n    event Propose(address indexed _avatar);\n    event Register(address indexed _avatar, string _name);\n    event UnRegister(address indexed _avatar);\n\n    mapping(string=>bool) private registry;\n\n    function propose(address _avatar) public {\n        emit Propose(_avatar);\n    }\n\n    function register(address _avatar, string memory _name) public onlyOwner {\n        require(!registry[_name]);\n        registry[_name] = true;\n        emit Register(_avatar, _name);\n    }\n\n    function unRegister(address _avatar) public onlyOwner {\n        emit UnRegister(_avatar);\n    }\n\n    //This getter is needed because Dynamically-sized keys for public mappings are not supported.\n    function isRegister(string memory _name) public view returns(bool) {\n        return registry[_name];\n    }\n\n}\n",
  "sourcePath": "/Users/oren/daostack/arc-hive/contracts/DAORegistry.sol",
  "compiler": {
    "name": "solc",
    "version": "0.5.15+commit.6a57276f.Emscripten.clang"
  },
  "schemaVersion": "3.0.20",
  "updatedAt": "2019-12-22T14:03:18.968Z",
  "devdoc": {
    "methods": {
      "initialize(address)": {
        "details": "Initializes the contract setting the deployer as the initial owner."
      },
      "isOwner()": {
        "details": "Returns true if the caller is the current owner."
      },
      "owner()": {
        "details": "Returns the address of the current owner."
      },
      "renounceOwnership()": {
        "details": "Leaves the contract without owner. It will not be possible to call `onlyOwner` functions anymore. Can only be called by the current owner.     * > Note: Renouncing ownership will leave the contract without an owner, thereby removing any functionality that is only available to the owner."
      },
      "transferOwnership(address)": {
        "details": "Transfers ownership of the contract to a new account (`newOwner`). Can only be called by the current owner."
      }
    }
  },
  "userdoc": {
    "methods": {}
  }
}