{
  "contractName": "ActionMock",
  "abi": [
    {
      "constant": true,
      "inputs": [],
      "name": "activationTime",
      "outputs": [
        {
          "name": "",
          "type": "uint256"
        }
      ],
      "payable": false,
      "stateMutability": "view",
      "type": "function"
    },
    {
      "anonymous": false,
      "inputs": [
        {
          "indexed": false,
          "name": "_addr",
          "type": "address"
        }
      ],
      "name": "WithoutReturnValue",
      "type": "event"
    },
    {
      "anonymous": false,
      "inputs": [
        {
          "indexed": true,
          "name": "_sender",
          "type": "address"
        },
        {
          "indexed": false,
          "name": "_value",
          "type": "uint256"
        }
      ],
      "name": "ReceiveEther",
      "type": "event"
    },
    {
      "constant": false,
      "inputs": [
        {
          "name": "_a",
          "type": "uint256"
        },
        {
          "name": "_b",
          "type": "address"
        },
        {
          "name": "_c",
          "type": "bytes32"
        }
      ],
      "name": "test",
      "outputs": [
        {
          "name": "",
          "type": "uint256"
        }
      ],
      "payable": true,
      "stateMutability": "payable",
      "type": "function"
    },
    {
      "constant": false,
      "inputs": [
        {
          "name": "_addr",
          "type": "address"
        }
      ],
      "name": "test2",
      "outputs": [
        {
          "name": "",
          "type": "bool"
        }
      ],
      "payable": true,
      "stateMutability": "payable",
      "type": "function"
    },
    {
      "constant": false,
      "inputs": [
        {
          "name": "_addr",
          "type": "address"
        }
      ],
      "name": "withoutReturnValue",
      "outputs": [],
      "payable": false,
      "stateMutability": "nonpayable",
      "type": "function"
    },
    {
      "constant": false,
      "inputs": [
        {
          "name": "_activationTime",
          "type": "uint256"
        }
      ],
      "name": "setActivationTime",
      "outputs": [],
      "payable": false,
      "stateMutability": "nonpayable",
      "type": "function"
    },
    {
      "constant": true,
      "inputs": [],
      "name": "test3",
      "outputs": [],
      "payable": false,
      "stateMutability": "view",
      "type": "function"
    }
  ],
  "bytecode": "0x608060405234801561001057600080fd5b506103f9806100206000396000f3fe608060405260043610610071577c010000000000000000000000000000000000000000000000000000000060003504630a8e8e0181146100765780630db12fad1461008d5780637c5486a2146100c0578063b11bead4146100ea578063da4493f614610124578063f3e8dcd01461014b575b600080fd5b34801561008257600080fd5b5061008b61017d565b005b34801561009957600080fd5b5061008b600480360360208110156100b057600080fd5b5035600160a060020a03166101d9565b3480156100cc57600080fd5b5061008b600480360360208110156100e357600080fd5b5035610279565b6101106004803603602081101561010057600080fd5b5035600160a060020a031661027e565b604080519115158252519081900360200190f35b34801561013057600080fd5b506101396102e9565b60408051918252519081900360200190f35b6101396004803603606081101561016157600080fd5b50803590600160a060020a0360208201351690604001356102ef565b60005442116101d7576040517f08c379a000000000000000000000000000000000000000000000000000000000815260040180806020018281038252602e81526020018061037f602e913960400191505060405180910390fd5b565b33600160a060020a0382161461023a576040517f08c379a00000000000000000000000000000000000000000000000000000000081526004018080602001828103825260218152602001806103ad6021913960400191505060405180910390fd5b60408051600160a060020a038316815290517f296b3ab69f08b831e3eba781baef82f44885a5d62be6e22903cc9416d47812779181900360200190a150565b600055565b600033600160a060020a038316146102e1576040517f08c379a00000000000000000000000000000000000000000000000000000000081526004018080602001828103825260218152602001806103ad6021913960400191505060405180910390fd5b506001919050565b60005481565b6000600784146102fe57600080fd5b600160a060020a038316301461031357600080fd5b7f1234000000000000000000000000000000000000000000000000000000000000821461033f57600080fd5b60408051348152905133917ff32a9f77675fd5917534c7746608fd3e309eac68fbdcbf5925e24ca97a704396919081900360200190a25050506002029056fe6e6f772073686f756c642062652067726561746572207468616e207468652061637469766174696f6e2074696d657468652063616c6c6572206d75737420626520657175616c20746f205f61646472a165627a7a72305820c567097d68c826f55a00654c27194f9d9c7ea251ee281d2321a7c7fd8e99e4880029",
  "source": "pragma solidity ^0.5.4;\n\nimport \"../controller/Avatar.sol\";\n\n\ncontract ActionMock {\n\n    event WithoutReturnValue(address _addr);\n    event ReceiveEther(address indexed _sender, uint256 _value);\n\n    uint public activationTime;\n\n    function test(uint256 _a, address _b, bytes32 _c) public payable returns(uint256) {\n        require(_a == 7);\n        require(_b == address(this));\n        require(_c == 0x1234000000000000000000000000000000000000000000000000000000000000);\n        emit ReceiveEther(msg.sender, msg.value);\n        return _a*2;\n    }\n\n    function test2(address _addr) public payable returns(bool) {\n        require(msg.sender == _addr, \"the caller must be equal to _addr\");\n        return true;\n    }\n\n    function withoutReturnValue(address _addr) public {\n        require(msg.sender == _addr, \"the caller must be equal to _addr\");\n        emit WithoutReturnValue(_addr);\n    }\n\n    function setActivationTime(uint _activationTime) public {\n        activationTime = _activationTime;\n    }\n\n    function test3() public view {\n      // solhint-disable-next-line not-rely-on-time\n        require(now > activationTime, \"now should be greater than the activation time\");\n    }\n\n}\n",
  "sourcePath": "/Users/oren/daostack/arc/contracts/test/ActionMock.sol",
  "compiler": {
    "name": "solc",
    "version": "0.5.4+commit.9549d8ff.Emscripten.clang"
  },
  "schemaVersion": "3.0.9",
  "updatedAt": "2019-07-22T12:12:20.003Z",
  "devdoc": {
    "methods": {}
  },
  "userdoc": {
    "methods": {}
  }
}