{
  "contractName": "OrganizationRegister",
  "abi": [
    {
      "constant": true,
      "inputs": [
        {
          "name": "",
          "type": "bytes32"
        }
      ],
      "name": "parameters",
      "outputs": [
        {
          "name": "fee",
          "type": "uint256"
        },
        {
          "name": "token",
          "type": "address"
        },
        {
          "name": "beneficiary",
          "type": "address"
        }
      ],
      "payable": false,
      "stateMutability": "view",
      "type": "function"
    },
    {
      "constant": true,
      "inputs": [
        {
          "name": "",
          "type": "address"
        },
        {
          "name": "",
          "type": "address"
        }
      ],
      "name": "organizationsRegistry",
      "outputs": [
        {
          "name": "",
          "type": "uint256"
        }
      ],
      "payable": false,
      "stateMutability": "view",
      "type": "function"
    },
    {
      "anonymous": false,
      "inputs": [
        {
          "indexed": true,
          "name": "_registry",
          "type": "address"
        },
        {
          "indexed": true,
          "name": "_org",
          "type": "address"
        }
      ],
      "name": "OrgAdded",
      "type": "event"
    },
    {
      "anonymous": false,
      "inputs": [
        {
          "indexed": true,
          "name": "_registry",
          "type": "address"
        },
        {
          "indexed": true,
          "name": "_org",
          "type": "address"
        },
        {
          "indexed": false,
          "name": "_amount",
          "type": "uint256"
        }
      ],
      "name": "Promotion",
      "type": "event"
    },
    {
      "constant": false,
      "inputs": [
        {
          "name": "_token",
          "type": "address"
        },
        {
          "name": "_fee",
          "type": "uint256"
        },
        {
          "name": "_beneficiary",
          "type": "address"
        }
      ],
      "name": "setParameters",
      "outputs": [
        {
          "name": "",
          "type": "bytes32"
        }
      ],
      "payable": false,
      "stateMutability": "nonpayable",
      "type": "function"
    },
    {
      "constant": true,
      "inputs": [
        {
          "name": "_token",
          "type": "address"
        },
        {
          "name": "_fee",
          "type": "uint256"
        },
        {
          "name": "_beneficiary",
          "type": "address"
        }
      ],
      "name": "getParametersHash",
      "outputs": [
        {
          "name": "",
          "type": "bytes32"
        }
      ],
      "payable": false,
      "stateMutability": "pure",
      "type": "function"
    },
    {
      "constant": false,
      "inputs": [
        {
          "name": "_avatar",
          "type": "address"
        },
        {
          "name": "_record",
          "type": "address"
        },
        {
          "name": "_amount",
          "type": "uint256"
        }
      ],
      "name": "addOrPromoteAddress",
      "outputs": [],
      "payable": false,
      "stateMutability": "nonpayable",
      "type": "function"
    }
  ],
  "bytecode": "0x608060405234801561001057600080fd5b50610960806100206000396000f3fe608060405234801561001057600080fd5b506004361061005a5760e060020a600035046302506804811461005f578063197275f1146100a457806343cfe6b2146100dc5780638fd631af1461011c57806399cc9e7314610152575b600080fd5b61007c6004803603602081101561007557600080fd5b5035610188565b60408051938452600160a060020a039283166020850152911682820152519081900360600190f35b6100da600480360360608110156100ba57600080fd5b50600160a060020a038135811691602081013590911690604001356101b5565b005b61010a600480360360408110156100f257600080fd5b50600160a060020a038135811691602001351661036a565b60408051918252519081900360200190f35b61010a6004803603606081101561013257600080fd5b50600160a060020a03813581169160208101359160409091013516610384565b61010a6004803603606081101561016857600080fd5b50600160a060020a03813581169160208101359160409091013516610412565b6001602081905260009182526040909120805491810154600290910154600160a060020a03918216911683565b6101bd6108ef565b600160006101ca86610467565b8152602080820192909252604090810160009081208251606081018452815481526001820154600160a060020a0390811682870152600290920154821681850152888216835282855283832091881683529352908120549192501080610231575080518210155b151561023c57600080fd5b610264338260400151848460200151600160a060020a03166106d6909392919063ffffffff16565b600160a060020a038085166000908152602081815260408083209387168352929052205415156102cf5782600160a060020a031684600160a060020a03167fbb755c25de622371a070056e89daca3dffb2591e14bfeaf5a22a5ff538f6430460405160405180910390a35b600160a060020a0380851660009081526020818152604080832093871683529290522054610303908363ffffffff6108ce16565b600160a060020a03808616600081815260208181526040808320948916808452948252918290209490945580518681529051929391927fbd26cf001a8e3be5dc9ac9f95c5e8fef2258c1ded9c61814e107db3ce9bbf2ca929181900390910190a350505050565b600060208181529281526040808220909352908152205481565b600080610392858585610412565b60008181526001602081905260409091200154909150600160a060020a0316151561040a5760008181526001602081905260409091209081018054600160a060020a0380891673ffffffffffffffffffffffffffffffffffffffff199283161790925586835560029092018054918616919092161790555b949350505050565b604080516c01000000000000000000000000600160a060020a03958616810260208084019190915260348301959095529290941690910260548401528051604881850301815260689093019052815191012090565b600081600160a060020a0316638da5cb5b6040518163ffffffff1660e060020a02815260040160206040518083038186803b1580156104a557600080fd5b505afa1580156104b9573d6000803e3d6000fd5b505050506040513d60208110156104cf57600080fd5b5051604080517f9be2faed000000000000000000000000000000000000000000000000000000008152306004820152600160a060020a03858116602483015291519190921691639be2faed916044808301926020929190829003018186803b15801561053a57600080fd5b505afa15801561054e573d6000803e3d6000fd5b505050506040513d602081101561056457600080fd5b505115156105d357604080517f08c379a000000000000000000000000000000000000000000000000000000000815260206004820152601860248201527f736368656d65206973206e6f7420726567697374657265640000000000000000604482015290519081900360640190fd5b81600160a060020a0316638da5cb5b6040518163ffffffff1660e060020a02815260040160206040518083038186803b15801561060f57600080fd5b505afa158015610623573d6000803e3d6000fd5b505050506040513d602081101561063957600080fd5b5051604080517f1c4d5608000000000000000000000000000000000000000000000000000000008152306004820152600160a060020a03858116602483015291519190921691631c4d5608916044808301926020929190829003018186803b1580156106a457600080fd5b505afa1580156106b8573d6000803e3d6000fd5b505050506040513d60208110156106ce57600080fd5b505192915050565b6106e884600160a060020a03166108e7565b15156106f357600080fd5b6000606085600160a060020a03166060604051908101604052806025815260200161091060259139805160209182012060408051600160a060020a03808b166024830152891660448201526064808201899052825180830390910181526084909101825292830180517bffffffffffffffffffffffffffffffffffffffffffffffffffffffff167fffffffff00000000000000000000000000000000000000000000000000000000909316929092178252518251909182918083835b602083106107ce5780518252601f1990920191602091820191016107af565b6001836020036101000a0380198251168184511680821785525050505050509050019150506000604051808303816000865af19150503d8060008114610830576040519150601f19603f3d011682016040523d82523d6000602084013e610835565b606091505b509150915081151561084657600080fd5b805115806108bb5750805160201480156108bb575080601f81518110151561086a57fe5b6020910101517f010000000000000000000000000000000000000000000000000000000000000090819004027fff000000000000000000000000000000000000000000000000000000000000001615155b15156108c657600080fd5b505050505050565b6000828201838110156108e057600080fd5b9392505050565b6000903b1190565b60408051606081018252600080825260208201819052918101919091529056fe7472616e7366657246726f6d28616464726573732c616464726573732c75696e7432353629a165627a7a72305820efc94ee7ef424b14a8b0896971c71966af18cd6d93d28fa826eac9f19e185a4a0029",
  "source": "pragma solidity ^0.5.4;\n\nimport \"./UniversalScheme.sol\";\nimport \"../libs/SafeERC20.sol\";\n\n/**\n * @title A universal organization registry.\n * @dev Organizations can use this scheme to open a registry.\n * Other organizations can then add and promote themselves on this registry.\n */\n\ncontract OrganizationRegister is UniversalScheme {\n    using SafeMath for uint;\n    using SafeERC20 for address;\n\n    struct Parameters {\n        uint256 fee;\n        IERC20 token;\n        address beneficiary;\n    }\n\n    // A mapping from the organization (Avatar) address to the saved data of the organization:\n    mapping(address=>mapping(address=>uint)) public organizationsRegistry;\n\n    mapping(bytes32=>Parameters) public parameters;\n\n    event OrgAdded( address indexed _registry, address indexed _org);\n    event Promotion( address indexed _registry, address indexed _org, uint256 _amount);\n\n    /**\n    * @dev Hash the parameters, save if needed and return the hash value\n    * @param _token -  the token to pay for register or promotion an address.\n    * @param _fee  - fee needed for register an address.\n    * @param _beneficiary  - the beneficiary payment address\n    * @return bytes32 -the parameters hash\n    */\n    function setParameters(IERC20 _token, uint256 _fee, address _beneficiary) public returns(bytes32) {\n        bytes32 paramsHash = getParametersHash(_token, _fee, _beneficiary);\n        if (parameters[paramsHash].token == ERC20(0)) {\n            parameters[paramsHash].token = _token;\n            parameters[paramsHash].fee = _fee;\n            parameters[paramsHash].beneficiary = _beneficiary;\n        }\n        return paramsHash;\n    }\n\n    /**\n    * @dev Hash the parameters ,and return the hash value\n    * @param _token -  the token to pay for register or promotion an address.\n    * @param _fee  - fee needed for register an address.\n    * @param _beneficiary  - the beneficiary payment address\n    * @return bytes32 -the parameters hash\n    */\n    function getParametersHash(IERC20 _token, uint256 _fee, address _beneficiary)\n    public pure returns(bytes32)\n    {\n        return (keccak256(abi.encodePacked(_token, _fee, _beneficiary)));\n    }\n\n    /**\n     * @dev Adding or promoting an address on the registry.\n     *      An address(record) to add or promote can be organization address or any contract address.\n     *      Adding a record is done by paying at least the minimum required by the registry params.\n     *      Promoting a record is done by paying(adding)amount of token to the registry beneficiary.\n     * @param _avatar The _avatar of the organization which own the registry.\n     * @param _record The address to add or promote.\n     * @param _amount amount to pay for adding or promoting\n     */\n    function addOrPromoteAddress(Avatar _avatar, address _record, uint256 _amount)\n    public\n    {\n        Parameters memory params = parameters[getParametersFromController(_avatar)];\n        // Pay promotion, if the org was not listed the minimum is the fee:\n        require((organizationsRegistry[address(_avatar)][_record] > 0) || (_amount >= params.fee));\n\n        address(params.token).safeTransferFrom(msg.sender, params.beneficiary, _amount);\n        if (organizationsRegistry[address(_avatar)][_record] == 0) {\n            emit OrgAdded(address(_avatar), _record);\n        }\n        organizationsRegistry[address(_avatar)][_record] =\n        organizationsRegistry[address(_avatar)][_record].add(_amount);\n        emit Promotion(address(_avatar), _record, _amount);\n    }\n}\n",
  "sourcePath": "/Users/oren/daostack/arc/contracts/universalSchemes/OrganizationRegister.sol",
  "compiler": {
    "name": "solc",
    "version": "0.5.4+commit.9549d8ff.Emscripten.clang"
  },
  "schemaVersion": "3.0.9",
  "updatedAt": "2019-07-22T12:12:20.054Z",
  "devdoc": {
    "details": "Organizations can use this scheme to open a registry. Other organizations can then add and promote themselves on this registry.",
    "methods": {
      "addOrPromoteAddress(address,address,uint256)": {
        "details": "Adding or promoting an address on the registry.     An address(record) to add or promote can be organization address or any contract address.     Adding a record is done by paying at least the minimum required by the registry params.     Promoting a record is done by paying(adding)amount of token to the registry beneficiary.",
        "params": {
          "_amount": "amount to pay for adding or promoting",
          "_avatar": "The _avatar of the organization which own the registry.",
          "_record": "The address to add or promote."
        }
      },
      "getParametersHash(address,uint256,address)": {
        "details": "Hash the parameters ,and return the hash value",
        "params": {
          "_beneficiary": "- the beneficiary payment address",
          "_fee": "- fee needed for register an address.",
          "_token": "-  the token to pay for register or promotion an address."
        },
        "return": "bytes32 -the parameters hash"
      },
      "setParameters(address,uint256,address)": {
        "details": "Hash the parameters, save if needed and return the hash value",
        "params": {
          "_beneficiary": "- the beneficiary payment address",
          "_fee": "- fee needed for register an address.",
          "_token": "-  the token to pay for register or promotion an address."
        },
        "return": "bytes32 -the parameters hash"
      }
    },
    "title": "A universal organization registry."
  },
  "userdoc": {
    "methods": {}
  }
}