{
  "contractName": "VotingMachineCallbacks",
  "abi": [
    {
      "constant": true,
      "inputs": [
        {
          "name": "",
          "type": "address"
        },
        {
          "name": "",
          "type": "bytes32"
        }
      ],
      "name": "proposalsInfo",
      "outputs": [
        {
          "name": "blockNumber",
          "type": "uint256"
        },
        {
          "name": "avatar",
          "type": "address"
        }
      ],
      "payable": false,
      "stateMutability": "view",
      "type": "function"
    },
    {
      "constant": false,
      "inputs": [
        {
          "name": "_amount",
          "type": "uint256"
        },
        {
          "name": "_beneficiary",
          "type": "address"
        },
        {
          "name": "_proposalId",
          "type": "bytes32"
        }
      ],
      "name": "mintReputation",
      "outputs": [
        {
          "name": "",
          "type": "bool"
        }
      ],
      "payable": false,
      "stateMutability": "nonpayable",
      "type": "function"
    },
    {
      "constant": false,
      "inputs": [
        {
          "name": "_amount",
          "type": "uint256"
        },
        {
          "name": "_beneficiary",
          "type": "address"
        },
        {
          "name": "_proposalId",
          "type": "bytes32"
        }
      ],
      "name": "burnReputation",
      "outputs": [
        {
          "name": "",
          "type": "bool"
        }
      ],
      "payable": false,
      "stateMutability": "nonpayable",
      "type": "function"
    },
    {
      "constant": false,
      "inputs": [
        {
          "name": "_stakingToken",
          "type": "address"
        },
        {
          "name": "_beneficiary",
          "type": "address"
        },
        {
          "name": "_amount",
          "type": "uint256"
        },
        {
          "name": "_proposalId",
          "type": "bytes32"
        }
      ],
      "name": "stakingTokenTransfer",
      "outputs": [
        {
          "name": "",
          "type": "bool"
        }
      ],
      "payable": false,
      "stateMutability": "nonpayable",
      "type": "function"
    },
    {
      "constant": true,
      "inputs": [
        {
          "name": "_stakingToken",
          "type": "address"
        },
        {
          "name": "_proposalId",
          "type": "bytes32"
        }
      ],
      "name": "balanceOfStakingToken",
      "outputs": [
        {
          "name": "",
          "type": "uint256"
        }
      ],
      "payable": false,
      "stateMutability": "view",
      "type": "function"
    },
    {
      "constant": true,
      "inputs": [
        {
          "name": "_proposalId",
          "type": "bytes32"
        }
      ],
      "name": "getTotalReputationSupply",
      "outputs": [
        {
          "name": "",
          "type": "uint256"
        }
      ],
      "payable": false,
      "stateMutability": "view",
      "type": "function"
    },
    {
      "constant": true,
      "inputs": [
        {
          "name": "_owner",
          "type": "address"
        },
        {
          "name": "_proposalId",
          "type": "bytes32"
        }
      ],
      "name": "reputationOf",
      "outputs": [
        {
          "name": "",
          "type": "uint256"
        }
      ],
      "payable": false,
      "stateMutability": "view",
      "type": "function"
    }
  ],
  "bytecode": "0x608060405234801561001057600080fd5b50610b2f806100206000396000f3fe608060405234801561001057600080fd5b50600436106100815760003560e060020a90048063b551c3731161005f578063b551c3731461013d578063bea75f281461015a578063d29b5d2f146101aa578063f81f8bf6146101dc57610081565b806360bdbb3f146100865780636b8eb403146100d35780639588378e14610111575b600080fd5b6100b26004803603604081101561009c57600080fd5b50600160a060020a03813516906020013561020e565b60408051928352600160a060020a0390911660208301528051918290030190f35b6100ff600480360360408110156100e957600080fd5b50600160a060020a038135169060200135610238565b60408051918252519081900360200190f35b6100ff6004803603604081101561012757600080fd5b50600160a060020a0381351690602001356102fd565b6100ff6004803603602081101561015357600080fd5b5035610429565b6101966004803603608081101561017057600080fd5b50600160a060020a03813581169160208101359091169060408101359060600135610581565b604080519115158252519081900360200190f35b610196600480360360608110156101c057600080fd5b50803590600160a060020a036020820135169060400135610768565b610196600480360360608110156101f257600080fd5b50803590600160a060020a036020820135169060400135610946565b600060208181529281526040808220909352908152208054600190910154600160a060020a031682565b33600090815260208181526040808320848452909152812060010154600160a060020a031680151561026e5760009150506102f7565b83600160a060020a03166370a08231826040518263ffffffff1660e060020a0281526004018082600160a060020a0316600160a060020a0316815260200191505060206040518083038186803b1580156102c757600080fd5b505afa1580156102db573d6000803e3d6000fd5b505050506040513d60208110156102f157600080fd5b50519150505b92915050565b6000610307610aec565b503360009081526020818152604080832085845282529182902082518084019093528054835260010154600160a060020a031690820181905215156103505760009150506102f7565b8060200151600160a060020a03166389ae1c906040518163ffffffff1660e060020a02815260040160206040518083038186803b15801561039057600080fd5b505afa1580156103a4573d6000803e3d6000fd5b505050506040513d60208110156103ba57600080fd5b50518151604080517f4ee2cd7e000000000000000000000000000000000000000000000000000000008152600160a060020a038881166004830152602482019390935290519190921691634ee2cd7e916044808301926020929190829003018186803b1580156102c757600080fd5b6000610433610aec565b503360009081526020818152604080832085845282529182902082518084019093528054835260010154600160a060020a0316908201819052151561047c57600091505061057c565b8060200151600160a060020a03166389ae1c906040518163ffffffff1660e060020a02815260040160206040518083038186803b1580156104bc57600080fd5b505afa1580156104d0573d6000803e3d6000fd5b505050506040513d60208110156104e657600080fd5b50518151604080517f981b24d0000000000000000000000000000000000000000000000000000000008152600481019290925251600160a060020a039092169163981b24d091602480820192602092909190829003018186803b15801561054c57600080fd5b505afa158015610560573d6000803e3d6000fd5b505050506040513d602081101561057657600080fd5b50519150505b919050565b336000908152602081815260408083208484529091528120600101548290600160a060020a0316151561061557604080517f08c379a000000000000000000000000000000000000000000000000000000000815260206004820152601260248201527f6f6e6c7920566f74696e674d616368696e650000000000000000000000000000604482015290519081900360640190fd5b33600090815260208181526040808320868452909152902060010154600160a060020a031680151561064b57600092505061075f565b80600160a060020a0316638da5cb5b6040518163ffffffff1660e060020a02815260040160206040518083038186803b15801561068757600080fd5b505afa15801561069b573d6000803e3d6000fd5b505050506040513d60208110156106b157600080fd5b5051604080517fb9a04cdd000000000000000000000000000000000000000000000000000000008152600160a060020a038a8116600483015289811660248301526044820189905284811660648301529151919092169163b9a04cdd9160848083019260209291908290030181600087803b15801561072f57600080fd5b505af1158015610743573d6000803e3d6000fd5b505050506040513d602081101561075957600080fd5b50519250505b50949350505050565b336000908152602081815260408083208484529091528120600101548290600160a060020a031615156107fc57604080517f08c379a000000000000000000000000000000000000000000000000000000000815260206004820152601260248201527f6f6e6c7920566f74696e674d616368696e650000000000000000000000000000604482015290519081900360640190fd5b33600090815260208181526040808320868452909152902060010154600160a060020a031680151561083257600092505061093e565b80600160a060020a0316638da5cb5b6040518163ffffffff1660e060020a02815260040160206040518083038186803b15801561086e57600080fd5b505afa158015610882573d6000803e3d6000fd5b505050506040513d602081101561089857600080fd5b5051604080517feaf994b200000000000000000000000000000000000000000000000000000000815260048101899052600160a060020a03888116602483015284811660448301529151919092169163eaf994b29160648083019260209291908290030181600087803b15801561090e57600080fd5b505af1158015610922573d6000803e3d6000fd5b505050506040513d602081101561093857600080fd5b50519250505b509392505050565b336000908152602081815260408083208484529091528120600101548290600160a060020a031615156109da57604080517f08c379a000000000000000000000000000000000000000000000000000000000815260206004820152601260248201527f6f6e6c7920566f74696e674d616368696e650000000000000000000000000000604482015290519081900360640190fd5b33600090815260208181526040808320868452909152902060010154600160a060020a0316801515610a1057600092505061093e565b80600160a060020a0316638da5cb5b6040518163ffffffff1660e060020a02815260040160206040518083038186803b158015610a4c57600080fd5b505afa158015610a60573d6000803e3d6000fd5b505050506040513d6020811015610a7657600080fd5b5051604080517f6e94d27800000000000000000000000000000000000000000000000000000000815260048101899052600160a060020a038881166024830152848116604483015291519190921691636e94d2789160648083019260209291908290030181600087803b15801561090e57600080fd5b60408051808201909152600080825260208201529056fea165627a7a72305820440ca2bba40d47af092ff1b50c117510405cfd831310c7d779f5826c9a98ffb70029",
  "source": "pragma solidity ^0.5.4;\n\nimport \"../universalSchemes/UniversalScheme.sol\";\nimport \"@daostack/infra/contracts/votingMachines/GenesisProtocol.sol\";\n\n\ncontract VotingMachineCallbacks is VotingMachineCallbacksInterface {\n\n    struct ProposalInfo {\n        uint256 blockNumber; // the proposal's block number\n        Avatar avatar; // the proposal's avatar\n    }\n\n    modifier onlyVotingMachine(bytes32 _proposalId) {\n        require(proposalsInfo[msg.sender][_proposalId].avatar != Avatar(address(0)), \"only VotingMachine\");\n        _;\n    }\n\n    // VotingMaching  ->  proposalId  ->  ProposalInfo\n    mapping(address => mapping(bytes32 => ProposalInfo)) public proposalsInfo;\n\n    function mintReputation(uint256 _amount, address _beneficiary, bytes32 _proposalId)\n    external\n    onlyVotingMachine(_proposalId)\n    returns(bool)\n    {\n        Avatar avatar = proposalsInfo[msg.sender][_proposalId].avatar;\n        if (avatar == Avatar(0)) {\n            return false;\n        }\n        return ControllerInterface(avatar.owner()).mintReputation(_amount, _beneficiary, address(avatar));\n    }\n\n    function burnReputation(uint256 _amount, address _beneficiary, bytes32 _proposalId)\n    external\n    onlyVotingMachine(_proposalId)\n    returns(bool)\n    {\n        Avatar avatar = proposalsInfo[msg.sender][_proposalId].avatar;\n        if (avatar == Avatar(0)) {\n            return false;\n        }\n        return ControllerInterface(avatar.owner()).burnReputation(_amount, _beneficiary, address(avatar));\n    }\n\n    function stakingTokenTransfer(\n        IERC20 _stakingToken,\n        address _beneficiary,\n        uint256 _amount,\n        bytes32 _proposalId)\n    external\n    onlyVotingMachine(_proposalId)\n    returns(bool)\n    {\n        Avatar avatar = proposalsInfo[msg.sender][_proposalId].avatar;\n        if (avatar == Avatar(0)) {\n            return false;\n        }\n        return ControllerInterface(avatar.owner()).externalTokenTransfer(_stakingToken, _beneficiary, _amount, avatar);\n    }\n\n    function balanceOfStakingToken(IERC20 _stakingToken, bytes32 _proposalId) external view returns(uint256) {\n        Avatar avatar = proposalsInfo[msg.sender][_proposalId].avatar;\n        if (proposalsInfo[msg.sender][_proposalId].avatar == Avatar(0)) {\n            return 0;\n        }\n        return _stakingToken.balanceOf(address(avatar));\n    }\n\n    function getTotalReputationSupply(bytes32 _proposalId) external view returns(uint256) {\n        ProposalInfo memory proposal = proposalsInfo[msg.sender][_proposalId];\n        if (proposal.avatar == Avatar(0)) {\n            return 0;\n        }\n        return proposal.avatar.nativeReputation().totalSupplyAt(proposal.blockNumber);\n    }\n\n    function reputationOf(address _owner, bytes32 _proposalId) external view returns(uint256) {\n        ProposalInfo memory proposal = proposalsInfo[msg.sender][_proposalId];\n        if (proposal.avatar == Avatar(0)) {\n            return 0;\n        }\n        return proposal.avatar.nativeReputation().balanceOfAt(_owner, proposal.blockNumber);\n    }\n}\n",
  "sourcePath": "/Users/oren/daostack/arc/contracts/votingMachines/VotingMachineCallbacks.sol",
  "compiler": {
    "name": "solc",
    "version": "0.5.4+commit.9549d8ff.Emscripten.clang"
  },
  "schemaVersion": "3.0.9",
  "updatedAt": "2019-07-22T12:12:20.078Z",
  "devdoc": {
    "methods": {}
  },
  "userdoc": {
    "methods": {}
  }
}