{
  "contractName": "AgreementMock",
  "abi": [
    {
      "constant": true,
      "inputs": [],
      "name": "getAgreementHash",
      "outputs": [
        {
          "name": "",
          "type": "bytes32"
        }
      ],
      "payable": false,
      "stateMutability": "view",
      "type": "function"
    },
    {
      "constant": false,
      "inputs": [
        {
          "name": "_agreementHash",
          "type": "bytes32"
        }
      ],
      "name": "setAgreementHashTest",
      "outputs": [],
      "payable": false,
      "stateMutability": "nonpayable",
      "type": "function"
    },
    {
      "constant": true,
      "inputs": [
        {
          "name": "_agreementHash",
          "type": "bytes32"
        }
      ],
      "name": "test",
      "outputs": [
        {
          "name": "",
          "type": "bool"
        }
      ],
      "payable": false,
      "stateMutability": "view",
      "type": "function"
    }
  ],
  "bytecode": "0x608060405234801561001057600080fd5b5061020c806100206000396000f3fe608060405234801561001057600080fd5b506004361061005d577c01000000000000000000000000000000000000000000000000000000006000350463696da921811461006257806398d3642e1461007c578063993723211461009b575b600080fd5b61006a6100cc565b60408051918252519081900360200190f35b6100996004803603602081101561009257600080fd5b50356100d2565b005b6100b8600480360360208110156100b157600080fd5b50356100de565b604080519115158252519081900360200190f35b60005490565b6100db81610144565b50565b600080548290811461013b576040517f08c379a00000000000000000000000000000000000000000000000000000000081526004018080602001828103825260288152602001806101b96028913960400191505060405180910390fd5b50600192915050565b600054156101b357604080517f08c379a000000000000000000000000000000000000000000000000000000000815260206004820152601b60248201527f43616e206e6f74207365742061677265656d656e742074776963650000000000604482015290519081900360640190fd5b60005556fe53656e646572206d7573742073656e64207468652072696768742061677265656d656e7448617368a165627a7a7230582016a19a667a36d94f329dfc95b8d1f6c3c5b25b2cffe3c82002b546888f2322880029",
  "source": "pragma solidity ^0.5.4;\n\nimport \"../schemes/Agreement.sol\";\n\n\ncontract AgreementMock is Agreement {\n\n    function setAgreementHashTest(bytes32 _agreementHash) public\n    {\n        super.setAgreementHash(_agreementHash);\n    }\n\n    function test(bytes32 _agreementHash) public onlyAgree(_agreementHash) view returns(bool)\n    {\n        return true;\n    }\n}\n",
  "sourcePath": "/Users/oren/daostack/arc/contracts/test/AgreementMock.sol",
  "compiler": {
    "name": "solc",
    "version": "0.5.4+commit.9549d8ff.Emscripten.clang"
  },
  "schemaVersion": "3.0.6",
  "updatedAt": "2019-05-02T12:00:21.264Z",
  "devdoc": {
    "methods": {
      "getAgreementHash()": {
        "details": "getAgreementHash",
        "return": "bytes32 agreementHash"
      }
    }
  },
  "userdoc": {
    "methods": {}
  }
}