{
  "contractName": "Agreement",
  "abi": [
    {
      "constant": true,
      "inputs": [],
      "name": "getAgreementHash",
      "outputs": [
        {
          "name": "",
          "type": "bytes32"
        }
      ],
      "payable": false,
      "stateMutability": "view",
      "type": "function"
    }
  ],
  "bytecode": "0x6080604052348015600f57600080fd5b5060938061001e6000396000f3fe6080604052348015600f57600080fd5b50600436106044577c01000000000000000000000000000000000000000000000000000000006000350463696da92181146049575b600080fd5b604f6061565b60408051918252519081900360200190f35b6000549056fea165627a7a72305820370bae0bc0f3b7a022fd02ade3a5c95945bba8a59f63689e58744cca173cb7be0029",
  "source": "pragma solidity ^0.5.4;\n\n/**\n * @title A scheme for conduct ERC20 Tokens auction for reputation\n */\n\n\ncontract Agreement {\n\n    bytes32 private agreementHash;\n\n    modifier onlyAgree(bytes32 _agreementHash) {\n        require(_agreementHash == agreementHash, \"Sender must send the right agreementHash\");\n        _;\n    }\n\n    /**\n     * @dev getAgreementHash\n     * @return bytes32 agreementHash\n     */\n    function getAgreementHash() external  view returns(bytes32)\n    {\n        return agreementHash;\n    }\n\n    /**\n     * @dev setAgreementHash\n     * @param _agreementHash is a hash of agreement required to be added to the TX by participants\n     */\n    function setAgreementHash(bytes32 _agreementHash) internal\n    {\n        require(agreementHash == bytes32(0), \"Can not set agreement twice\");\n        agreementHash = _agreementHash;\n    }\n\n\n}\n",
  "sourcePath": "/Users/oren/daostack/arc/contracts/schemes/Agreement.sol",
  "compiler": {
    "name": "solc",
    "version": "0.5.4+commit.9549d8ff.Emscripten.clang"
  },
  "schemaVersion": "3.0.6",
  "updatedAt": "2019-05-02T12:00:21.237Z",
  "devdoc": {
    "methods": {
      "getAgreementHash()": {
        "details": "getAgreementHash",
        "return": "bytes32 agreementHash"
      }
    },
    "title": "A scheme for conduct ERC20 Tokens auction for reputation"
  },
  "userdoc": {
    "methods": {}
  }
}