{
  "contractName": "ContributionReward",
  "abi": [
    {
      "constant": true,
      "inputs": [
        {
          "name": "",
          "type": "bytes32"
        }
      ],
      "name": "parameters",
      "outputs": [
        {
          "name": "voteApproveParams",
          "type": "bytes32"
        },
        {
          "name": "intVote",
          "type": "address"
        }
      ],
      "payable": false,
      "stateMutability": "view",
      "type": "function"
    },
    {
      "constant": true,
      "inputs": [
        {
          "name": "",
          "type": "address"
        },
        {
          "name": "",
          "type": "bytes32"
        }
      ],
      "name": "organizationsProposals",
      "outputs": [
        {
          "name": "nativeTokenReward",
          "type": "uint256"
        },
        {
          "name": "reputationChange",
          "type": "int256"
        },
        {
          "name": "ethReward",
          "type": "uint256"
        },
        {
          "name": "externalToken",
          "type": "address"
        },
        {
          "name": "externalTokenReward",
          "type": "uint256"
        },
        {
          "name": "beneficiary",
          "type": "address"
        },
        {
          "name": "periodLength",
          "type": "uint256"
        },
        {
          "name": "numberOfPeriods",
          "type": "uint256"
        },
        {
          "name": "executionTime",
          "type": "uint256"
        }
      ],
      "payable": false,
      "stateMutability": "view",
      "type": "function"
    },
    {
      "constant": true,
      "inputs": [
        {
          "name": "",
          "type": "address"
        },
        {
          "name": "",
          "type": "bytes32"
        }
      ],
      "name": "proposalsInfo",
      "outputs": [
        {
          "name": "blockNumber",
          "type": "uint256"
        },
        {
          "name": "avatar",
          "type": "address"
        }
      ],
      "payable": false,
      "stateMutability": "view",
      "type": "function"
    },
    {
      "constant": true,
      "inputs": [
        {
          "name": "_stakingToken",
          "type": "address"
        },
        {
          "name": "_proposalId",
          "type": "bytes32"
        }
      ],
      "name": "balanceOfStakingToken",
      "outputs": [
        {
          "name": "",
          "type": "uint256"
        }
      ],
      "payable": false,
      "stateMutability": "view",
      "type": "function"
    },
    {
      "constant": true,
      "inputs": [
        {
          "name": "_owner",
          "type": "address"
        },
        {
          "name": "_proposalId",
          "type": "bytes32"
        }
      ],
      "name": "reputationOf",
      "outputs": [
        {
          "name": "",
          "type": "uint256"
        }
      ],
      "payable": false,
      "stateMutability": "view",
      "type": "function"
    },
    {
      "constant": true,
      "inputs": [
        {
          "name": "_proposalId",
          "type": "bytes32"
        }
      ],
      "name": "getTotalReputationSupply",
      "outputs": [
        {
          "name": "",
          "type": "uint256"
        }
      ],
      "payable": false,
      "stateMutability": "view",
      "type": "function"
    },
    {
      "constant": false,
      "inputs": [
        {
          "name": "_stakingToken",
          "type": "address"
        },
        {
          "name": "_beneficiary",
          "type": "address"
        },
        {
          "name": "_amount",
          "type": "uint256"
        },
        {
          "name": "_proposalId",
          "type": "bytes32"
        }
      ],
      "name": "stakingTokenTransfer",
      "outputs": [
        {
          "name": "",
          "type": "bool"
        }
      ],
      "payable": false,
      "stateMutability": "nonpayable",
      "type": "function"
    },
    {
      "constant": false,
      "inputs": [
        {
          "name": "_amount",
          "type": "uint256"
        },
        {
          "name": "_beneficiary",
          "type": "address"
        },
        {
          "name": "_proposalId",
          "type": "bytes32"
        }
      ],
      "name": "mintReputation",
      "outputs": [
        {
          "name": "",
          "type": "bool"
        }
      ],
      "payable": false,
      "stateMutability": "nonpayable",
      "type": "function"
    },
    {
      "constant": false,
      "inputs": [
        {
          "name": "_amount",
          "type": "uint256"
        },
        {
          "name": "_beneficiary",
          "type": "address"
        },
        {
          "name": "_proposalId",
          "type": "bytes32"
        }
      ],
      "name": "burnReputation",
      "outputs": [
        {
          "name": "",
          "type": "bool"
        }
      ],
      "payable": false,
      "stateMutability": "nonpayable",
      "type": "function"
    },
    {
      "anonymous": false,
      "inputs": [
        {
          "indexed": true,
          "name": "_avatar",
          "type": "address"
        },
        {
          "indexed": true,
          "name": "_proposalId",
          "type": "bytes32"
        },
        {
          "indexed": true,
          "name": "_intVoteInterface",
          "type": "address"
        },
        {
          "indexed": false,
          "name": "_descriptionHash",
          "type": "string"
        },
        {
          "indexed": false,
          "name": "_reputationChange",
          "type": "int256"
        },
        {
          "indexed": false,
          "name": "_rewards",
          "type": "uint256[5]"
        },
        {
          "indexed": false,
          "name": "_externalToken",
          "type": "address"
        },
        {
          "indexed": false,
          "name": "_beneficiary",
          "type": "address"
        }
      ],
      "name": "NewContributionProposal",
      "type": "event"
    },
    {
      "anonymous": false,
      "inputs": [
        {
          "indexed": true,
          "name": "_avatar",
          "type": "address"
        },
        {
          "indexed": true,
          "name": "_proposalId",
          "type": "bytes32"
        },
        {
          "indexed": false,
          "name": "_param",
          "type": "int256"
        }
      ],
      "name": "ProposalExecuted",
      "type": "event"
    },
    {
      "anonymous": false,
      "inputs": [
        {
          "indexed": true,
          "name": "_avatar",
          "type": "address"
        },
        {
          "indexed": true,
          "name": "_proposalId",
          "type": "bytes32"
        },
        {
          "indexed": true,
          "name": "_beneficiary",
          "type": "address"
        },
        {
          "indexed": false,
          "name": "_amount",
          "type": "int256"
        }
      ],
      "name": "RedeemReputation",
      "type": "event"
    },
    {
      "anonymous": false,
      "inputs": [
        {
          "indexed": true,
          "name": "_avatar",
          "type": "address"
        },
        {
          "indexed": true,
          "name": "_proposalId",
          "type": "bytes32"
        },
        {
          "indexed": true,
          "name": "_beneficiary",
          "type": "address"
        },
        {
          "indexed": false,
          "name": "_amount",
          "type": "uint256"
        }
      ],
      "name": "RedeemEther",
      "type": "event"
    },
    {
      "anonymous": false,
      "inputs": [
        {
          "indexed": true,
          "name": "_avatar",
          "type": "address"
        },
        {
          "indexed": true,
          "name": "_proposalId",
          "type": "bytes32"
        },
        {
          "indexed": true,
          "name": "_beneficiary",
          "type": "address"
        },
        {
          "indexed": false,
          "name": "_amount",
          "type": "uint256"
        }
      ],
      "name": "RedeemNativeToken",
      "type": "event"
    },
    {
      "anonymous": false,
      "inputs": [
        {
          "indexed": true,
          "name": "_avatar",
          "type": "address"
        },
        {
          "indexed": true,
          "name": "_proposalId",
          "type": "bytes32"
        },
        {
          "indexed": true,
          "name": "_beneficiary",
          "type": "address"
        },
        {
          "indexed": false,
          "name": "_amount",
          "type": "uint256"
        }
      ],
      "name": "RedeemExternalToken",
      "type": "event"
    },
    {
      "constant": false,
      "inputs": [
        {
          "name": "_proposalId",
          "type": "bytes32"
        },
        {
          "name": "_param",
          "type": "int256"
        }
      ],
      "name": "executeProposal",
      "outputs": [
        {
          "name": "",
          "type": "bool"
        }
      ],
      "payable": false,
      "stateMutability": "nonpayable",
      "type": "function"
    },
    {
      "constant": false,
      "inputs": [
        {
          "name": "_voteApproveParams",
          "type": "bytes32"
        },
        {
          "name": "_intVote",
          "type": "address"
        }
      ],
      "name": "setParameters",
      "outputs": [
        {
          "name": "",
          "type": "bytes32"
        }
      ],
      "payable": false,
      "stateMutability": "nonpayable",
      "type": "function"
    },
    {
      "constant": true,
      "inputs": [
        {
          "name": "_voteApproveParams",
          "type": "bytes32"
        },
        {
          "name": "_intVote",
          "type": "address"
        }
      ],
      "name": "getParametersHash",
      "outputs": [
        {
          "name": "",
          "type": "bytes32"
        }
      ],
      "payable": false,
      "stateMutability": "pure",
      "type": "function"
    },
    {
      "constant": false,
      "inputs": [
        {
          "name": "_avatar",
          "type": "address"
        },
        {
          "name": "_descriptionHash",
          "type": "string"
        },
        {
          "name": "_reputationChange",
          "type": "int256"
        },
        {
          "name": "_rewards",
          "type": "uint256[5]"
        },
        {
          "name": "_externalToken",
          "type": "address"
        },
        {
          "name": "_beneficiary",
          "type": "address"
        }
      ],
      "name": "proposeContributionReward",
      "outputs": [
        {
          "name": "",
          "type": "bytes32"
        }
      ],
      "payable": false,
      "stateMutability": "nonpayable",
      "type": "function"
    },
    {
      "constant": false,
      "inputs": [
        {
          "name": "_proposalId",
          "type": "bytes32"
        },
        {
          "name": "_avatar",
          "type": "address"
        }
      ],
      "name": "redeemReputation",
      "outputs": [
        {
          "name": "reputation",
          "type": "int256"
        }
      ],
      "payable": false,
      "stateMutability": "nonpayable",
      "type": "function"
    },
    {
      "constant": false,
      "inputs": [
        {
          "name": "_proposalId",
          "type": "bytes32"
        },
        {
          "name": "_avatar",
          "type": "address"
        }
      ],
      "name": "redeemNativeToken",
      "outputs": [
        {
          "name": "amount",
          "type": "uint256"
        }
      ],
      "payable": false,
      "stateMutability": "nonpayable",
      "type": "function"
    },
    {
      "constant": false,
      "inputs": [
        {
          "name": "_proposalId",
          "type": "bytes32"
        },
        {
          "name": "_avatar",
          "type": "address"
        }
      ],
      "name": "redeemEther",
      "outputs": [
        {
          "name": "amount",
          "type": "uint256"
        }
      ],
      "payable": false,
      "stateMutability": "nonpayable",
      "type": "function"
    },
    {
      "constant": false,
      "inputs": [
        {
          "name": "_proposalId",
          "type": "bytes32"
        },
        {
          "name": "_avatar",
          "type": "address"
        }
      ],
      "name": "redeemExternalToken",
      "outputs": [
        {
          "name": "amount",
          "type": "uint256"
        }
      ],
      "payable": false,
      "stateMutability": "nonpayable",
      "type": "function"
    },
    {
      "constant": false,
      "inputs": [
        {
          "name": "_proposalId",
          "type": "bytes32"
        },
        {
          "name": "_avatar",
          "type": "address"
        },
        {
          "name": "_whatToRedeem",
          "type": "bool[4]"
        }
      ],
      "name": "redeem",
      "outputs": [
        {
          "name": "reputationReward",
          "type": "int256"
        },
        {
          "name": "nativeTokenReward",
          "type": "uint256"
        },
        {
          "name": "etherReward",
          "type": "uint256"
        },
        {
          "name": "externalTokenReward",
          "type": "uint256"
        }
      ],
      "payable": false,
      "stateMutability": "nonpayable",
      "type": "function"
    },
    {
      "constant": true,
      "inputs": [
        {
          "name": "_proposalId",
          "type": "bytes32"
        },
        {
          "name": "_avatar",
          "type": "address"
        },
        {
          "name": "_redeemType",
          "type": "uint256"
        }
      ],
      "name": "getPeriodsToPay",
      "outputs": [
        {
          "name": "",
          "type": "uint256"
        }
      ],
      "payable": false,
      "stateMutability": "view",
      "type": "function"
    },
    {
      "constant": true,
      "inputs": [
        {
          "name": "_proposalId",
          "type": "bytes32"
        },
        {
          "name": "_avatar",
          "type": "address"
        },
        {
          "name": "_redeemType",
          "type": "uint256"
        }
      ],
      "name": "getRedeemedPeriods",
      "outputs": [
        {
          "name": "",
          "type": "uint256"
        }
      ],
      "payable": false,
      "stateMutability": "view",
      "type": "function"
    },
    {
      "constant": true,
      "inputs": [
        {
          "name": "_proposalId",
          "type": "bytes32"
        },
        {
          "name": "_avatar",
          "type": "address"
        }
      ],
      "name": "getProposalEthReward",
      "outputs": [
        {
          "name": "",
          "type": "uint256"
        }
      ],
      "payable": false,
      "stateMutability": "view",
      "type": "function"
    },
    {
      "constant": true,
      "inputs": [
        {
          "name": "_proposalId",
          "type": "bytes32"
        },
        {
          "name": "_avatar",
          "type": "address"
        }
      ],
      "name": "getProposalExternalTokenReward",
      "outputs": [
        {
          "name": "",
          "type": "uint256"
        }
      ],
      "payable": false,
      "stateMutability": "view",
      "type": "function"
    },
    {
      "constant": true,
      "inputs": [
        {
          "name": "_proposalId",
          "type": "bytes32"
        },
        {
          "name": "_avatar",
          "type": "address"
        }
      ],
      "name": "getProposalExternalToken",
      "outputs": [
        {
          "name": "",
          "type": "address"
        }
      ],
      "payable": false,
      "stateMutability": "view",
      "type": "function"
    },
    {
      "constant": true,
      "inputs": [
        {
          "name": "_proposalId",
          "type": "bytes32"
        },
        {
          "name": "_avatar",
          "type": "address"
        }
      ],
      "name": "getProposalExecutionTime",
      "outputs": [
        {
          "name": "",
          "type": "uint256"
        }
      ],
      "payable": false,
      "stateMutability": "view",
      "type": "function"
    }
  ],
  "bytecode": "0x608060405234801561001057600080fd5b50612d9c806100206000396000f3fe608060405234801561001057600080fd5b506004361061015c5760003560e060020a900480639d4c162d116100c7578063d29b5d2f11610080578063d29b5d2f146105d6578063d58bf09a14610608578063e074ee5514610691578063e63b681e146106c3578063f70bbb9a146106ef578063f81f8bf6146107375761015c565b80639d4c162d146104bc578063b551c373146104f3578063b7c251c314610510578063bb1c935114610542578063bea75f281461056e578063cd3ce306146105aa5761015c565b80636046f71d116101195780636046f71d146102e157806360bdbb3f1461030d57806368e14dac146103395780636b8eb40314610365578063896488b9146103915780639588378e146104905761015c565b8063025068041461016157806306e3a9781461019f5780630d5e1e821461021f5780631c3a57131461025d5780632453732a146102895780633a256daa146102b5575b600080fd5b61017e6004803603602081101561017757600080fd5b5035610769565b60408051928352600160a060020a0390911660208301528051918290030190f35b6101cb600480360360408110156101b557600080fd5b50600160a060020a03813516906020013561078b565b60408051998a5260208a019890985288880196909652600160a060020a0394851660608901526080880193909352921660a086015260c085019190915260e084015261010083015251908190036101200190f35b61024b6004803603604081101561023557600080fd5b5080359060200135600160a060020a03166107e9565b60408051918252519081900360200190f35b61024b6004803603604081101561027357600080fd5b5080359060200135600160a060020a0316610bdc565b61024b6004803603604081101561029f57600080fd5b5080359060200135600160a060020a0316610c0a565b61024b600480360360408110156102cb57600080fd5b5080359060200135600160a060020a0316610c4f565b61024b600480360360408110156102f757600080fd5b5080359060200135600160a060020a0316610c77565b61017e6004803603604081101561032357600080fd5b50600160a060020a038135169060200135610c9f565b61024b6004803603604081101561034f57600080fd5b5080359060200135600160a060020a0316610cc9565b61024b6004803603604081101561037b57600080fd5b50600160a060020a038135169060200135610d1b565b61024b60048036036101408110156103a857600080fd5b600160a060020a0382351691908101906040810160208201356401000000008111156103d357600080fd5b8201836020820111156103e557600080fd5b8035906020019184600183028401116401000000008311171561040757600080fd5b91908080601f016020809104026020016040519081016040528093929190818152602001838380828437600092019190915250506040805160a081810190925293968535969095909460c082019450925060200190600590839083908082843760009201919091525091945050508035600160a060020a03908116925060209091013516610dde565b61024b600480360360408110156104a657600080fd5b50600160a060020a038135169060200135611201565b6104df600480360360408110156104d257600080fd5b508035906020013561132d565b604080519115158252519081900360200190f35b61024b6004803603602081101561050957600080fd5b50356114b7565b61024b6004803603606081101561052657600080fd5b50803590600160a060020a03602082013516906040013561160f565b61024b6004803603604081101561055857600080fd5b5080359060200135600160a060020a031661164c565b6104df6004803603608081101561058457600080fd5b50600160a060020a03813581169160208101359091169060408101359060600135611907565b61024b600480360360408110156105c057600080fd5b5080359060200135600160a060020a0316611ac5565b6104df600480360360608110156105ec57600080fd5b50803590600160a060020a036020820135169060400135611d8e565b61066b600480360360c081101561061e57600080fd5b6040805160808181018352843594600160a060020a0360208201351694810193909260c084019290918401906004908390839080828437600092019190915250919450611f439350505050565b604080519485526020850193909352838301919091526060830152519081900360800190f35b61024b600480360360608110156106a757600080fd5b50803590600160a060020a036020820135169060400135611faf565b61024b600480360360408110156106d957600080fd5b5080359060200135600160a060020a0316612195565b61071b6004803603604081101561070557600080fd5b5080359060200135600160a060020a031661248f565b60408051600160a060020a039092168252519081900360200190f35b6104df6004803603606081101561074d57600080fd5b50803590600160a060020a0360208201351690604001356124bd565b60026020526000908152604090208054600190910154600160a060020a031682565b6001602081815260009384526040808520909152918352912080549181015460028201546003830154600484015460058501546006860154600787015460089097015495969495600160a060020a0394851695939490921692909189565b60006107f3612b11565b600160a060020a038381166000908152600160208181526040808420898552825292839020835161014081018552815481529281015491830191909152600281015482840152600381015484166060830152600480820154608080850191909152600583015490951660a0840152600682015460c0840152600782015460e0840152600882015461010084015283519485019384905291939092610120850192600985019182845b81548152602001906001019080831161089b5750505091909252505050600160a060020a0384166000908152600160209081526040808320888452909152902060088101549192509015156108ef57600080fd5b60006108fd86866000611faf565b600060018401819055602085015182029550909150841315610a365784600160a060020a0316638da5cb5b6040518163ffffffff1660e060020a02815260040160206040518083038186803b15801561095557600080fd5b505afa158015610969573d6000803e3d6000fd5b505050506040513d602081101561097f57600080fd5b505160a0840151604080517feaf994b200000000000000000000000000000000000000000000000000000000815260048101889052600160a060020a03928316602482015288831660448201529051919092169163eaf994b29160648083019260209291908290030181600087803b1580156109fa57600080fd5b505af1158015610a0e573d6000803e3d6000fd5b505050506040513d6020811015610a2457600080fd5b50511515610a3157600080fd5b610b5a565b6000841215610b5a5784600160a060020a0316638da5cb5b6040518163ffffffff1660e060020a02815260040160206040518083038186803b158015610a7b57600080fd5b505afa158015610a8f573d6000803e3d6000fd5b505050506040513d6020811015610aa557600080fd5b505160a0840151604080517f6e94d27800000000000000000000000000000000000000000000000000000000815260008881036004830152600160a060020a039384166024830152898416604483015291519290931692636e94d2789260648083019360209383900390910190829087803b158015610b2357600080fd5b505af1158015610b37573d6000803e3d6000fd5b505050506040513d6020811015610b4d57600080fd5b50511515610b5a57600080fd5b8315610bc957610b79816009840160005b01549063ffffffff61263a16565b600983015560a0830151604080518681529051600160a060020a03928316928992908916917feab8bc4bf2fd6ce5634b8e75023e0e48367e68249ce2aa2c0ef7c0efe5648bee9181900360200190a45b5060209091015160019091015592915050565b600160a060020a03811660009081526001602090815260408083208584529091529020600401545b92915050565b60408051602080820194909452600160a060020a03929092166c0100000000000000000000000002828201528051808303603401815260549092019052805191012090565b600160a060020a03166000908152600160209081526040808320938352929052206008015490565b600160a060020a03166000908152600160209081526040808320938352929052206002015490565b600060208181529281526040808220909352908152208054600190910154600160a060020a031682565b600080610cd68484610c0a565b60008181526002602052604090208581556001018054600160a060020a03861673ffffffffffffffffffffffffffffffffffffffff1990911617905591505092915050565b33600090815260208181526040808320848452909152812060010154600160a060020a0316801515610d51576000915050610c04565b83600160a060020a03166370a08231826040518263ffffffff1660e060020a0281526004018082600160a060020a0316600160a060020a0316815260200191505060206040518083038186803b158015610daa57600080fd5b505afa158015610dbe573d6000803e3d6000fd5b505050506040513d6020811015610dd457600080fd5b5051949350505050565b6000610dea858561264c565b610df2612b7c565b60026000610dff8a612879565b815260208082019290925260409081016000908120825180840184528154808252600190920154600160a060020a0390811682870181905285517f88737b5e000000000000000000000000000000000000000000000000000000008152600260048201526024810194909452336044850152908e166064840152935190955091936388737b5e9260848084019382900301818787803b158015610ea157600080fd5b505af1158015610eb5573d6000803e3d6000fd5b505050506040513d6020811015610ecb57600080fd5b5051905083600160a060020a0381161515610ee35750335b610eeb612b11565b60408051610140810182528951815260208082018c90528a015181830152600160a060020a038981166060830152918a0151608082015290831660a082015260c081018960036020908102919091015182520189600460200201518152602001600081526020016080604051908101604052806000815260200160008152602001600081526020016000815250815250905080600160008d600160a060020a0316600160a060020a03168152602001908152602001600020600085815260200190815260200160002060008201518160000155602082015181600101556040820151816002015560608201518160030160006101000a815481600160a060020a030219169083600160a060020a031602179055506080820151816004015560a08201518160050160006101000a815481600160a060020a030219169083600160a060020a0316021790555060c0820151816006015560e0820151816007015561010082015181600801556101208201518160090190600461106d929190612b93565b509050508360200151600160a060020a0316838c600160a060020a03167fcbdcbf9aaeb1e9eff0f75d74e1c1e044bc87110164baec7d18d825b0450d97df8d8d8d8d89604051808060200186815260200185600560200280838360005b838110156110e25781810151838201526020016110ca565b5050505090500184600160a060020a0316600160a060020a0316815260200183600160a060020a0316600160a060020a03168152602001828103825287818151815260200191508051906020019080838360005b8381101561114e578181015183820152602001611136565b50505050905090810190601f16801561117b5780820380516001836020036101000a031916815260200191505b50965050505050505060405180910390a45050604080518082018252438152600160a060020a039a8b166020808301918252948501518c1660009081528086528381208582529095529190932092518355516001909201805473ffffffffffffffffffffffffffffffffffffffff19169290991691909117909755509495945050505050565b600061120b612b7c565b503360009081526020818152604080832085845282529182902082518084019093528054835260010154600160a060020a03169082018190521515611254576000915050610c04565b8060200151600160a060020a03166389ae1c906040518163ffffffff1660e060020a02815260040160206040518083038186803b15801561129457600080fd5b505afa1580156112a8573d6000803e3d6000fd5b505050506040513d60208110156112be57600080fd5b50518151604080517f4ee2cd7e000000000000000000000000000000000000000000000000000000008152600160a060020a038881166004830152602482019390935290519190921691634ee2cd7e916044808301926020929190829003018186803b158015610daa57600080fd5b336000908152602081815260408083208584529091528120600101548390600160a060020a03161515611398576040805160e560020a62461bcd0281526020600482015260126024820152600080516020612c42833981519152604482015290519081900360640190fd5b6113a0612b7c565b503360009081526020818152604080832087845282528083208151808301835281548152600191820154600160a060020a0316818501819052855290835281842088855290925290912060080154156113f857600080fd5b602080820151600160a060020a039081166000908152600183526040808220898352909352919091206005015416151561143157600080fd5b836001141561146657602080820151600160a060020a0316600090815260018252604080822088835290925220426008909101555b848160200151600160a060020a03167fd2632e80f5364f02aded1c64e8a04637b7c8bb9c2db2bedf4b6ac47c013acbc0866040518082815260200191505060405180910390a3506001949350505050565b60006114c1612b7c565b503360009081526020818152604080832085845282529182902082518084019093528054835260010154600160a060020a0316908201819052151561150a57600091505061160a565b8060200151600160a060020a03166389ae1c906040518163ffffffff1660e060020a02815260040160206040518083038186803b15801561154a57600080fd5b505afa15801561155e573d6000803e3d6000fd5b505050506040513d602081101561157457600080fd5b50518151604080517f981b24d0000000000000000000000000000000000000000000000000000000008152600481019290925251600160a060020a039092169163981b24d091602480820192602092909190829003018186803b1580156115da57600080fd5b505afa1580156115ee573d6000803e3d6000fd5b505050506040513d602081101561160457600080fd5b50519150505b919050565b600160a060020a03821660009081526001602090815260408083208684529091528120600901826004811061164057fe5b015490505b9392505050565b6000611656612b11565b600160a060020a038381166000908152600160208181526040808420898552825292839020835161014081018552815481529281015491830191909152600281015482840152600381015484166060830152600480820154608080850191909152600583015490951660a0840152600682015460c0840152600782015460e0840152600882015461010084015283519485019384905291939092610120850192600985019182845b8154815260200190600101908083116116fe5750505091909252505050600160a060020a03841660009081526001602090815260408083208884529091529020600881015491925090151561175257600080fd5b600061176086866001611faf565b60008355835190915061177a90829063ffffffff612ad116565b935060008411156118fc5784600160a060020a0316638da5cb5b6040518163ffffffff1660e060020a02815260040160206040518083038186803b1580156117c157600080fd5b505afa1580156117d5573d6000803e3d6000fd5b505050506040513d60208110156117eb57600080fd5b505160a0840151604080517f6407e43200000000000000000000000000000000000000000000000000000000815260048101889052600160a060020a039283166024820152888316604482015290519190921691636407e4329160648083019260209291908290030181600087803b15801561186657600080fd5b505af115801561187a573d6000803e3d6000fd5b505050506040513d602081101561189057600080fd5b5051151561189d57600080fd5b6118ac81600984016001610b6b565b600a83015560a0830151604080518681529051600160a060020a03928316928992908916917f13f7471cab9806ac4ff5d80ae879babfbf1081e240d05c4450b75f69c626cb2e9181900360200190a45b509051905592915050565b336000908152602081815260408083208484529091528120600101548290600160a060020a03161515611972576040805160e560020a62461bcd0281526020600482015260126024820152600080516020612c42833981519152604482015290519081900360640190fd5b33600090815260208181526040808320868452909152902060010154600160a060020a03168015156119a8576000925050611abc565b80600160a060020a0316638da5cb5b6040518163ffffffff1660e060020a02815260040160206040518083038186803b1580156119e457600080fd5b505afa1580156119f8573d6000803e3d6000fd5b505050506040513d6020811015611a0e57600080fd5b5051604080517fb9a04cdd000000000000000000000000000000000000000000000000000000008152600160a060020a038a8116600483015289811660248301526044820189905284811660648301529151919092169163b9a04cdd9160848083019260209291908290030181600087803b158015611a8c57600080fd5b505af1158015611aa0573d6000803e3d6000fd5b505050506040513d6020811015611ab657600080fd5b50519250505b50949350505050565b6000611acf612b11565b600160a060020a038381166000908152600160208181526040808420898552825292839020835161014081018552815481529281015491830191909152600281015482840152600381015484166060830152600480820154608080850191909152600583015490951660a0840152600682015460c0840152600782015460e0840152600882015461010084015283519485019384905291939092610120850192600985019182845b815481526020019060010190808311611b775750505091909252505050600160a060020a038416600090815260016020908152604080832088845290915290206008810154919250901515611bcb57600080fd5b6000611bd986866002611faf565b600060028401556040840151909150611bf990829063ffffffff612ad116565b93506000841115611d7b5784600160a060020a0316638da5cb5b6040518163ffffffff1660e060020a02815260040160206040518083038186803b158015611c4057600080fd5b505afa158015611c54573d6000803e3d6000fd5b505050506040513d6020811015611c6a57600080fd5b505160a0840151604080517f634965da00000000000000000000000000000000000000000000000000000000815260048101889052600160a060020a03928316602482015288831660448201529051919092169163634965da9160648083019260209291908290030181600087803b158015611ce557600080fd5b505af1158015611cf9573d6000803e3d6000fd5b505050506040513d6020811015611d0f57600080fd5b50511515611d1c57600080fd5b611d2b81600984016002610b6b565b600b83015560a0830151604080518681529051600160a060020a03928316928992908916917f7dd55ea53ce2c347b544c257b778e1dd6638f232fa6b94320e740440e72b4b879181900360200190a45b5060409091015160029091015592915050565b336000908152602081815260408083208484529091528120600101548290600160a060020a03161515611df9576040805160e560020a62461bcd0281526020600482015260126024820152600080516020612c42833981519152604482015290519081900360640190fd5b33600090815260208181526040808320868452909152902060010154600160a060020a0316801515611e2f576000925050611f3b565b80600160a060020a0316638da5cb5b6040518163ffffffff1660e060020a02815260040160206040518083038186803b158015611e6b57600080fd5b505afa158015611e7f573d6000803e3d6000fd5b505050506040513d6020811015611e9557600080fd5b5051604080517feaf994b200000000000000000000000000000000000000000000000000000000815260048101899052600160a060020a03888116602483015284811660448301529151919092169163eaf994b29160648083019260209291908290030181600087803b158015611f0b57600080fd5b505af1158015611f1f573d6000803e3d6000fd5b505050506040513d6020811015611f3557600080fd5b50519250505b509392505050565b60008080808481602002015115611f6157611f5e87876107e9565b93505b602085015115611f7857611f75878761164c565b92505b604085015115611f8f57611f8c8787611ac5565b91505b606085015115611fa657611fa38787612195565b90505b93509350935093565b60006003821115611ff45760405160e560020a62461bcd028152600401808060200182810382526026815260200180612d176026913960400191505060405180910390fd5b611ffc612b11565b600160a060020a0384811660009081526001602081815260408084208a8552825292839020835161014081018552815481529281015491830191909152600281015482840152600381015484166060830152600480820154608080850191909152600583015490951660a0840152600682015460c0840152600782015460e0840152600882015461010084015283519485019384905291939092610120850192600985019182845b8154815260200190600101908083116120a4575050505050815250509050806101000151600014156120da576000915050611645565b6000808260c0015111156121115760c082015161010083015161210490429063ffffffff612afc16565b81151561210d57fe5b0490505b60008260c001516000148061212a57508260e001518210155b156121615761012083015161215a90866004811061214457fe5b602002015160e08501519063ffffffff612afc16565b905061218b565b61012083015161218890866004811061217657fe5b6020020151839063ffffffff612afc16565b90505b9695505050505050565b600061219f612b11565b600160a060020a038381166000908152600160208181526040808420898552825292839020835161014081018552815481529281015491830191909152600281015482840152600381015484166060830152600480820154608080850191909152600583015490951660a0840152600682015460c0840152600782015460e0840152600882015461010084015283519485019384905291939092610120850192600985019182845b8154815260200190600101908083116122475750505091909252505050600160a060020a03841660009081526001602090815260408083208884529091529020600881015491925090151561229b57600080fd5b60006122a986866003611faf565b600060048401556003830154909150600160a060020a0316158015906122d3575060008360800151115b1561247c5760808301516122ee90829063ffffffff612ad116565b9350600084111561247c5784600160a060020a0316638da5cb5b6040518163ffffffff1660e060020a02815260040160206040518083038186803b15801561233557600080fd5b505afa158015612349573d6000803e3d6000fd5b505050506040513d602081101561235f57600080fd5b5051606084015160a0850151604080517fb9a04cdd000000000000000000000000000000000000000000000000000000008152600160a060020a039384166004820152918316602483015260448201889052888316606483015251919092169163b9a04cdd9160848083019260209291908290030181600087803b1580156123e657600080fd5b505af11580156123fa573d6000803e3d6000fd5b505050506040513d602081101561241057600080fd5b5051151561241d57600080fd5b61242c81600984016003610b6b565b600c83015560a0830151604080518681529051600160a060020a03928316928992908916917f5a66e28cdcd3bc22082d9f07be2b6bed5f50f349e5d89f655d750ecdd19883749181900360200190a45b5060809091015160049091015592915050565b600160a060020a03908116600090815260016020908152604080832094835293905291909120600301541690565b336000908152602081815260408083208484529091528120600101548290600160a060020a03161515612528576040805160e560020a62461bcd0281526020600482015260126024820152600080516020612c42833981519152604482015290519081900360640190fd5b33600090815260208181526040808320868452909152902060010154600160a060020a031680151561255e576000925050611f3b565b80600160a060020a0316638da5cb5b6040518163ffffffff1660e060020a02815260040160206040518083038186803b15801561259a57600080fd5b505afa1580156125ae573d6000803e3d6000fd5b505050506040513d60208110156125c457600080fd5b5051604080517f6e94d27800000000000000000000000000000000000000000000000000000000815260048101899052600160a060020a038881166024830152848116604483015291519190921691636e94d2789160648083019260209291908290030181600087803b158015611f0b57600080fd5b60008282018381101561164557600080fd5b606081015160001080612663575060808101516001145b15156126a35760405160e560020a62461bcd028152600401808060200182810382526034815260200180612c0e6034913960400191505060405180910390fd5b6080810151600010156128755760808101516000191480156126e45750817f8000000000000000000000000000000000000000000000000000000000000000145b156127235760405160e560020a62461bcd028152600401808060200182810382526031815260200180612ce66031913960400191505060405180910390fd5b6080810151829080820281151561273657fe5b05146127765760405160e560020a62461bcd028152600401808060200182810382526030815260200180612c8d6030913960400191505060405180910390fd5b8051608082015180820281151561278957fe5b04146127c95760405160e560020a62461bcd02815260040180806020018281038252602b815260200180612c62602b913960400191505060405180910390fd5b602081015160808201518082028115156127df57fe5b041461281f5760405160e560020a62461bcd028152600401808060200182810382526029815260200180612cbd6029913960400191505060405180910390fd5b6040810151608082015180820281151561283557fe5b04146128755760405160e560020a62461bcd028152600401808060200182810382526034815260200180612d3d6034913960400191505060405180910390fd5b5050565b600081600160a060020a0316638da5cb5b6040518163ffffffff1660e060020a02815260040160206040518083038186803b1580156128b757600080fd5b505afa1580156128cb573d6000803e3d6000fd5b505050506040513d60208110156128e157600080fd5b5051604080517f9be2faed000000000000000000000000000000000000000000000000000000008152306004820152600160a060020a03858116602483015291519190921691639be2faed916044808301926020929190829003018186803b15801561294c57600080fd5b505afa158015612960573d6000803e3d6000fd5b505050506040513d602081101561297657600080fd5b505115156129ce576040805160e560020a62461bcd02815260206004820152601860248201527f736368656d65206973206e6f7420726567697374657265640000000000000000604482015290519081900360640190fd5b81600160a060020a0316638da5cb5b6040518163ffffffff1660e060020a02815260040160206040518083038186803b158015612a0a57600080fd5b505afa158015612a1e573d6000803e3d6000fd5b505050506040513d6020811015612a3457600080fd5b5051604080517f1c4d5608000000000000000000000000000000000000000000000000000000008152306004820152600160a060020a03858116602483015291519190921691631c4d5608916044808301926020929190829003018186803b158015612a9f57600080fd5b505afa158015612ab3573d6000803e3d6000fd5b505050506040513d6020811015612ac957600080fd5b505192915050565b6000821515612ae257506000610c04565b828202828482811515612af157fe5b041461164557600080fd5b600082821115612b0b57600080fd5b50900390565b6101a0604051908101604052806000815260200160008152602001600081526020016000600160a060020a03168152602001600081526020016000600160a060020a03168152602001600081526020016000815260200160008152602001612b77612bd1565b905290565b604080518082019091526000808252602082015290565b8260048101928215612bc1579160200282015b82811115612bc1578251825591602001919060010190612ba6565b50612bcd929150612bf0565b5090565b6080604051908101604052806004906020820280388339509192915050565b612c0a91905b80821115612bcd5760008155600101612bf6565b9056fe706572696f644c656e67746820657175616c20302072657175697265206e756d6265724f66506572696f647320746f20626520316f6e6c7920566f74696e674d616368696e6500000000000000000000000000006e756d6265724f66506572696f6473202a20746f6b656e5265776172642077696c6c206f766572666c6f776e756d6265724f66506572696f6473202a2072657075746174696f6e4368616e67652077696c6c206f766572666c6f776e756d6265724f66506572696f6473202a206574685265776172642077696c6c206f766572666c6f776e756d6265724f66506572696f6473202a205f72657075746174696f6e4368616e67652077696c6c206f766572666c6f7773686f756c6420626520696e207468652072656465656d6564506572696f64732072616e67656e756d6265724f66506572696f6473202a207465787465726e616c546f6b656e5265776172642077696c6c206f766572666c6f77a165627a7a723058207b1e6d585564a4eb79e35530968330982f0092c07dfbdc538a953d1da974a6cf0029",
  "source": "pragma solidity ^0.5.4;\n\nimport \"@daostack/infra/contracts/votingMachines/IntVoteInterface.sol\";\nimport \"@daostack/infra/contracts/votingMachines/VotingMachineCallbacksInterface.sol\";\nimport \"./UniversalScheme.sol\";\nimport \"../votingMachines/VotingMachineCallbacks.sol\";\n\n\n/**\n * @title A scheme for proposing and rewarding contributions to an organization\n * @dev An agent can ask an organization to recognize a contribution and reward\n * him with token, reputation, ether or any combination.\n */\n\ncontract ContributionReward is UniversalScheme, VotingMachineCallbacks, ProposalExecuteInterface {\n    using SafeMath for uint;\n\n    event NewContributionProposal(\n        address indexed _avatar,\n        bytes32 indexed _proposalId,\n        address indexed _intVoteInterface,\n        string _descriptionHash,\n        int256 _reputationChange,\n        uint[5]  _rewards,\n        IERC20 _externalToken,\n        address _beneficiary\n    );\n\n    event ProposalExecuted(address indexed _avatar, bytes32 indexed _proposalId, int256 _param);\n\n    event RedeemReputation(\n        address indexed _avatar,\n        bytes32 indexed _proposalId,\n        address indexed _beneficiary,\n        int256 _amount);\n\n    event RedeemEther(address indexed _avatar,\n        bytes32 indexed _proposalId,\n        address indexed _beneficiary,\n        uint256 _amount);\n\n    event RedeemNativeToken(address indexed _avatar,\n        bytes32 indexed _proposalId,\n        address indexed _beneficiary,\n        uint256 _amount);\n\n    event RedeemExternalToken(address indexed _avatar,\n        bytes32 indexed _proposalId,\n        address indexed _beneficiary,\n        uint256 _amount);\n\n    // A struct holding the data for a contribution proposal\n    struct ContributionProposal {\n        uint256 nativeTokenReward; // Reward asked in the native token of the organization.\n        int256 reputationChange; // Organization reputation reward requested.\n        uint256 ethReward;\n        IERC20 externalToken;\n        uint256 externalTokenReward;\n        address payable beneficiary;\n        uint256 periodLength;\n        uint256 numberOfPeriods;\n        uint256 executionTime;\n        uint[4] redeemedPeriods;\n    }\n\n    // A mapping from the organization (Avatar) address to the saved data of the organization:\n    mapping(address=>mapping(bytes32=>ContributionProposal)) public organizationsProposals;\n\n    // A mapping from hashes to parameters (use to store a particular configuration on the controller)\n    struct Parameters {\n        bytes32 voteApproveParams;\n        IntVoteInterface intVote;\n    }\n\n    // A mapping from hashes to parameters (use to store a particular configuration on the controller)\n    mapping(bytes32=>Parameters) public parameters;\n\n    /**\n    * @dev execution of proposals, can only be called by the voting machine in which the vote is held.\n    * @param _proposalId the ID of the voting in the voting machine\n    * @param _param a parameter of the voting result, 1 yes and 2 is no.\n    */\n    function executeProposal(bytes32 _proposalId, int256 _param) external onlyVotingMachine(_proposalId) returns(bool) {\n        ProposalInfo memory proposal = proposalsInfo[msg.sender][_proposalId];\n        require(organizationsProposals[address(proposal.avatar)][_proposalId].executionTime == 0);\n        require(organizationsProposals[address(proposal.avatar)][_proposalId].beneficiary != address(0));\n        // Check if vote was successful:\n        if (_param == 1) {\n          // solhint-disable-next-line not-rely-on-time\n            organizationsProposals[address(proposal.avatar)][_proposalId].executionTime = now;\n        }\n        emit ProposalExecuted(address(proposal.avatar), _proposalId, _param);\n        return true;\n    }\n\n    /**\n    * @dev hash the parameters, save them if necessary, and return the hash value\n    */\n    function setParameters(\n        bytes32 _voteApproveParams,\n        IntVoteInterface _intVote\n    ) public returns(bytes32)\n    {\n        bytes32 paramsHash = getParametersHash(\n            _voteApproveParams,\n            _intVote\n        );\n        parameters[paramsHash].voteApproveParams = _voteApproveParams;\n        parameters[paramsHash].intVote = _intVote;\n        return paramsHash;\n    }\n\n    /**\n    * @dev return a hash of the given parameters\n    * @param _voteApproveParams parameters for the voting machine used to approve a contribution\n    * @param _intVote the voting machine used to approve a contribution\n    * @return a hash of the parameters\n    */\n    function getParametersHash(\n        bytes32 _voteApproveParams,\n        IntVoteInterface _intVote\n    ) public pure returns(bytes32)\n    {\n        return (keccak256(abi.encodePacked(_voteApproveParams, _intVote)));\n    }\n\n    /**\n    * @dev Submit a proposal for a reward for a contribution:\n    * @param _avatar Avatar of the organization that the contribution was made for\n    * @param _descriptionHash A hash of the proposal's description\n    * @param _reputationChange - Amount of reputation change requested .Can be negative.\n    * @param _rewards rewards array:\n    *         rewards[0] - Amount of tokens requested per period\n    *         rewards[1] - Amount of ETH requested per period\n    *         rewards[2] - Amount of external tokens requested per period\n    *         rewards[3] - Period length - if set to zero it allows immediate redeeming after execution.\n    *         rewards[4] - Number of periods\n    * @param _externalToken Address of external token, if reward is requested there\n    * @param _beneficiary Who gets the rewards\n    */\n    function proposeContributionReward(\n        Avatar _avatar,\n        string memory _descriptionHash,\n        int256 _reputationChange,\n        uint[5] memory _rewards,\n        IERC20 _externalToken,\n        address payable _beneficiary\n    )\n    public\n    returns(bytes32)\n    {\n        validateProposalParams(_reputationChange, _rewards);\n        Parameters memory controllerParams = parameters[getParametersFromController(_avatar)];\n\n        bytes32 contributionId = controllerParams.intVote.propose(\n        2,\n        controllerParams.voteApproveParams,\n        msg.sender,\n        address(_avatar)\n        );\n\n        address payable beneficiary = _beneficiary;\n        if (beneficiary == address(0)) {\n            beneficiary = msg.sender;\n        }\n\n        ContributionProposal memory proposal = ContributionProposal({\n            nativeTokenReward: _rewards[0],\n            reputationChange: _reputationChange,\n            ethReward: _rewards[1],\n            externalToken: _externalToken,\n            externalTokenReward: _rewards[2],\n            beneficiary: beneficiary,\n            periodLength: _rewards[3],\n            numberOfPeriods: _rewards[4],\n            executionTime: 0,\n            redeemedPeriods:[uint(0), uint(0), uint(0), uint(0)]\n        });\n        organizationsProposals[address(_avatar)][contributionId] = proposal;\n\n        emit NewContributionProposal(\n            address(_avatar),\n            contributionId,\n            address(controllerParams.intVote),\n            _descriptionHash,\n            _reputationChange,\n            _rewards,\n            _externalToken,\n            beneficiary\n        );\n\n        proposalsInfo[address(controllerParams.intVote)][contributionId] = ProposalInfo({\n            blockNumber:block.number,\n            avatar:_avatar\n        });\n        return contributionId;\n    }\n\n    /**\n    * @dev RedeemReputation reward for proposal\n    * @param _proposalId the ID of the voting in the voting machine\n    * @param _avatar address of the controller\n    * @return reputation the redeemed reputation.\n    */\n    function redeemReputation(bytes32 _proposalId, Avatar _avatar) public returns(int256 reputation) {\n\n        ContributionProposal memory _proposal = organizationsProposals[address(_avatar)][_proposalId];\n        ContributionProposal storage proposal = organizationsProposals[address(_avatar)][_proposalId];\n        require(proposal.executionTime != 0);\n        uint256 periodsToPay = getPeriodsToPay(_proposalId, address(_avatar), 0);\n\n        //set proposal reward to zero to prevent reentrancy attack.\n        proposal.reputationChange = 0;\n        reputation = int(periodsToPay) * _proposal.reputationChange;\n        if (reputation > 0) {\n            require(\n            ControllerInterface(\n            _avatar.owner()).mintReputation(uint(reputation), _proposal.beneficiary, address(_avatar)));\n        } else if (reputation < 0) {\n            require(\n            ControllerInterface(\n            _avatar.owner()).burnReputation(uint(reputation*(-1)), _proposal.beneficiary, address(_avatar)));\n        }\n        if (reputation != 0) {\n            proposal.redeemedPeriods[0] = proposal.redeemedPeriods[0].add(periodsToPay);\n            emit RedeemReputation(address(_avatar), _proposalId, _proposal.beneficiary, reputation);\n        }\n        //restore proposal reward.\n        proposal.reputationChange = _proposal.reputationChange;\n    }\n\n    /**\n    * @dev RedeemNativeToken reward for proposal\n    * @param _proposalId the ID of the voting in the voting machine\n    * @param _avatar address of the controller\n    * @return amount the redeemed nativeToken.\n    */\n    function redeemNativeToken(bytes32 _proposalId, Avatar _avatar) public returns(uint256 amount) {\n\n        ContributionProposal memory _proposal = organizationsProposals[address(_avatar)][_proposalId];\n        ContributionProposal storage proposal = organizationsProposals[address(_avatar)][_proposalId];\n        require(proposal.executionTime != 0);\n        uint256 periodsToPay = getPeriodsToPay(_proposalId, address(_avatar), 1);\n        //set proposal rewards to zero to prevent reentrancy attack.\n        proposal.nativeTokenReward = 0;\n\n        amount = periodsToPay.mul(_proposal.nativeTokenReward);\n        if (amount > 0) {\n            require(ControllerInterface(_avatar.owner()).mintTokens(amount, _proposal.beneficiary, address(_avatar)));\n            proposal.redeemedPeriods[1] = proposal.redeemedPeriods[1].add(periodsToPay);\n            emit RedeemNativeToken(address(_avatar), _proposalId, _proposal.beneficiary, amount);\n        }\n\n        //restore proposal reward.\n        proposal.nativeTokenReward = _proposal.nativeTokenReward;\n    }\n\n    /**\n    * @dev RedeemEther reward for proposal\n    * @param _proposalId the ID of the voting in the voting machine\n    * @param _avatar address of the controller\n    * @return amount ether redeemed amount\n    */\n    function redeemEther(bytes32 _proposalId, Avatar _avatar) public returns(uint256 amount) {\n\n        ContributionProposal memory _proposal = organizationsProposals[address(_avatar)][_proposalId];\n        ContributionProposal storage proposal = organizationsProposals[address(_avatar)][_proposalId];\n        require(proposal.executionTime != 0);\n        uint256 periodsToPay = getPeriodsToPay(_proposalId, address(_avatar), 2);\n        //set proposal rewards to zero to prevent reentrancy attack.\n        proposal.ethReward = 0;\n        amount = periodsToPay.mul(_proposal.ethReward);\n\n        if (amount > 0) {\n            require(ControllerInterface(_avatar.owner()).sendEther(amount, _proposal.beneficiary, _avatar));\n            proposal.redeemedPeriods[2] = proposal.redeemedPeriods[2].add(periodsToPay);\n            emit RedeemEther(address(_avatar), _proposalId, _proposal.beneficiary, amount);\n        }\n\n        //restore proposal reward.\n        proposal.ethReward = _proposal.ethReward;\n    }\n\n    /**\n    * @dev RedeemNativeToken reward for proposal\n    * @param _proposalId the ID of the voting in the voting machine\n    * @param _avatar address of the controller\n    * @return amount the external token redeemed amount\n    */\n    function redeemExternalToken(bytes32 _proposalId, Avatar _avatar) public returns(uint256 amount) {\n\n        ContributionProposal memory _proposal = organizationsProposals[address(_avatar)][_proposalId];\n        ContributionProposal storage proposal = organizationsProposals[address(_avatar)][_proposalId];\n        require(proposal.executionTime != 0);\n        uint256 periodsToPay = getPeriodsToPay(_proposalId, address(_avatar), 3);\n        //set proposal rewards to zero to prevent reentrancy attack.\n        proposal.externalTokenReward = 0;\n\n        if (proposal.externalToken != IERC20(0) && _proposal.externalTokenReward > 0) {\n            amount = periodsToPay.mul(_proposal.externalTokenReward);\n            if (amount > 0) {\n                require(\n                ControllerInterface(\n                _avatar.owner())\n                .externalTokenTransfer(_proposal.externalToken, _proposal.beneficiary, amount, _avatar));\n                proposal.redeemedPeriods[3] = proposal.redeemedPeriods[3].add(periodsToPay);\n                emit RedeemExternalToken(address(_avatar), _proposalId, _proposal.beneficiary, amount);\n            }\n        }\n        //restore proposal reward.\n        proposal.externalTokenReward = _proposal.externalTokenReward;\n    }\n\n    /**\n    * @dev redeem rewards for proposal\n    * @param _proposalId the ID of the voting in the voting machine\n    * @param _avatar address of the controller\n    * @param _whatToRedeem whatToRedeem array:\n    *         whatToRedeem[0] - reputation\n    *         whatToRedeem[1] - nativeTokenReward\n    *         whatToRedeem[2] - Ether\n    *         whatToRedeem[3] - ExternalToken\n    * @return  result boolean array for each redeem type.\n    */\n    function redeem(bytes32 _proposalId, Avatar _avatar, bool[4] memory _whatToRedeem)\n    public\n    returns(int256 reputationReward, uint256 nativeTokenReward, uint256 etherReward, uint256 externalTokenReward)\n    {\n\n        if (_whatToRedeem[0]) {\n            reputationReward = redeemReputation(_proposalId, _avatar);\n        }\n\n        if (_whatToRedeem[1]) {\n            nativeTokenReward = redeemNativeToken(_proposalId, _avatar);\n        }\n\n        if (_whatToRedeem[2]) {\n            etherReward = redeemEther(_proposalId, _avatar);\n        }\n\n        if (_whatToRedeem[3]) {\n            externalTokenReward = redeemExternalToken(_proposalId, _avatar);\n        }\n    }\n\n    /**\n    * @dev getPeriodsToPay return the periods left to be paid for reputation,nativeToken,ether or externalToken.\n    * The function ignore the reward amount to be paid (which can be zero).\n    * @param _proposalId the ID of the voting in the voting machine\n    * @param _avatar address of the controller\n    * @param _redeemType - the type of the reward  :\n    *         0 - reputation\n    *         1 - nativeTokenReward\n    *         2 - Ether\n    *         3 - ExternalToken\n    * @return  periods left to be paid.\n    */\n    function getPeriodsToPay(bytes32 _proposalId, address _avatar, uint256 _redeemType) public view returns (uint256) {\n        require(_redeemType <= 3, \"should be in the redeemedPeriods range\");\n        ContributionProposal memory _proposal = organizationsProposals[_avatar][_proposalId];\n        if (_proposal.executionTime == 0)\n            return 0;\n        uint256 periodsFromExecution;\n        if (_proposal.periodLength > 0) {\n          // solhint-disable-next-line not-rely-on-time\n            periodsFromExecution = (now.sub(_proposal.executionTime))/(_proposal.periodLength);\n        }\n        uint256 periodsToPay;\n        if ((_proposal.periodLength == 0) || (periodsFromExecution >= _proposal.numberOfPeriods)) {\n            periodsToPay = _proposal.numberOfPeriods.sub(_proposal.redeemedPeriods[_redeemType]);\n        } else {\n            periodsToPay = periodsFromExecution.sub(_proposal.redeemedPeriods[_redeemType]);\n        }\n        return periodsToPay;\n    }\n\n    /**\n    * @dev getRedeemedPeriods return the already redeemed periods for reputation, nativeToken, ether or externalToken.\n    * @param _proposalId the ID of the voting in the voting machine\n    * @param _avatar address of the controller\n    * @param _redeemType - the type of the reward  :\n    *         0 - reputation\n    *         1 - nativeTokenReward\n    *         2 - Ether\n    *         3 - ExternalToken\n    * @return redeemed period.\n    */\n    function getRedeemedPeriods(bytes32 _proposalId, address _avatar, uint256 _redeemType)\n    public\n    view\n    returns (uint256) {\n        return organizationsProposals[_avatar][_proposalId].redeemedPeriods[_redeemType];\n    }\n\n    function getProposalEthReward(bytes32 _proposalId, address _avatar) public view returns (uint256) {\n        return organizationsProposals[_avatar][_proposalId].ethReward;\n    }\n\n    function getProposalExternalTokenReward(bytes32 _proposalId, address _avatar) public view returns (uint256) {\n        return organizationsProposals[_avatar][_proposalId].externalTokenReward;\n    }\n\n    function getProposalExternalToken(bytes32 _proposalId, address _avatar) public view returns (address) {\n        return address(organizationsProposals[_avatar][_proposalId].externalToken);\n    }\n\n    function getProposalExecutionTime(bytes32 _proposalId, address _avatar) public view returns (uint256) {\n        return organizationsProposals[_avatar][_proposalId].executionTime;\n    }\n\n    /**\n    * @dev validateProposalParams validate proposal's rewards parameters.\n    * The function check for potential overflow upon proposal's redeem.\n    * The function reverts if the params are not valid.\n    * @param _reputationChange - Amount of reputation change requested .Can be negative.\n    * @param _rewards rewards array:\n    *         rewards[0] - Amount of tokens requested per period\n    *         rewards[1] - Amount of ETH requested per period\n    *         rewards[2] - Amount of external tokens requested per period\n    *         rewards[3] - Period length - if set to zero it allows immediate redeeming after execution.\n    *         rewards[4] - Number of periods\n    */\n    function validateProposalParams(int256 _reputationChange, uint[5] memory _rewards) private pure {\n        require(((_rewards[3] > 0) || (_rewards[4] == 1)), \"periodLength equal 0 require numberOfPeriods to be 1\");\n        if (_rewards[4] > 0) {\n            // This is the only case of overflow not detected by the check below\n            require(!(int(_rewards[4]) == -1 && _reputationChange == (-2**255)),\n            \"numberOfPeriods * _reputationChange will overflow\");\n           //check that numberOfPeriods * _reputationChange will not overflow\n            require((int(_rewards[4]) * _reputationChange) / int(_rewards[4]) == _reputationChange,\n            \"numberOfPeriods * reputationChange will overflow\");\n            //check that numberOfPeriods * tokenReward will not overflow\n            require((_rewards[4] * _rewards[0]) / _rewards[4] == _rewards[0],\n            \"numberOfPeriods * tokenReward will overflow\");\n            //check that numberOfPeriods * ethReward will not overflow\n            require((_rewards[4] * _rewards[1]) / _rewards[4] == _rewards[1],\n            \"numberOfPeriods * ethReward will overflow\");\n            //check that numberOfPeriods * texternalTokenReward will not overflow\n            require((_rewards[4] * _rewards[2]) / _rewards[4] == _rewards[2],\n            \"numberOfPeriods * texternalTokenReward will overflow\");\n        }\n    }\n\n}\n",
  "sourcePath": "/Users/oren/daostack/arc/contracts/universalSchemes/ContributionReward.sol",
  "compiler": {
    "name": "solc",
    "version": "0.5.4+commit.9549d8ff.Emscripten.clang"
  },
  "schemaVersion": "3.0.6",
  "updatedAt": "2019-05-02T12:00:21.268Z",
  "devdoc": {
    "details": "An agent can ask an organization to recognize a contribution and reward him with token, reputation, ether or any combination.",
    "methods": {
      "executeProposal(bytes32,int256)": {
        "details": "execution of proposals, can only be called by the voting machine in which the vote is held.",
        "params": {
          "_param": "a parameter of the voting result, 1 yes and 2 is no.",
          "_proposalId": "the ID of the voting in the voting machine"
        }
      },
      "getParametersHash(bytes32,address)": {
        "details": "return a hash of the given parameters",
        "params": {
          "_intVote": "the voting machine used to approve a contribution",
          "_voteApproveParams": "parameters for the voting machine used to approve a contribution"
        },
        "return": "a hash of the parameters"
      },
      "getPeriodsToPay(bytes32,address,uint256)": {
        "details": "getPeriodsToPay return the periods left to be paid for reputation,nativeToken,ether or externalToken. The function ignore the reward amount to be paid (which can be zero).",
        "params": {
          "_avatar": "address of the controller",
          "_proposalId": "the ID of the voting in the voting machine",
          "_redeemType": "- the type of the reward  :        0 - reputation        1 - nativeTokenReward        2 - Ether        3 - ExternalToken"
        },
        "return": "periods left to be paid."
      },
      "getRedeemedPeriods(bytes32,address,uint256)": {
        "details": "getRedeemedPeriods return the already redeemed periods for reputation, nativeToken, ether or externalToken.",
        "params": {
          "_avatar": "address of the controller",
          "_proposalId": "the ID of the voting in the voting machine",
          "_redeemType": "- the type of the reward  :        0 - reputation        1 - nativeTokenReward        2 - Ether        3 - ExternalToken"
        },
        "return": "redeemed period."
      },
      "proposeContributionReward(address,string,int256,uint256[5],address,address)": {
        "details": "Submit a proposal for a reward for a contribution:",
        "params": {
          "_avatar": "Avatar of the organization that the contribution was made for",
          "_beneficiary": "Who gets the rewards",
          "_descriptionHash": "A hash of the proposal's description",
          "_externalToken": "Address of external token, if reward is requested there",
          "_reputationChange": "- Amount of reputation change requested .Can be negative.",
          "_rewards": "rewards array:        rewards[0] - Amount of tokens requested per period        rewards[1] - Amount of ETH requested per period        rewards[2] - Amount of external tokens requested per period        rewards[3] - Period length - if set to zero it allows immediate redeeming after execution.        rewards[4] - Number of periods"
        }
      },
      "redeem(bytes32,address,bool[4])": {
        "details": "redeem rewards for proposal",
        "params": {
          "_avatar": "address of the controller",
          "_proposalId": "the ID of the voting in the voting machine",
          "_whatToRedeem": "whatToRedeem array:        whatToRedeem[0] - reputation        whatToRedeem[1] - nativeTokenReward        whatToRedeem[2] - Ether        whatToRedeem[3] - ExternalToken"
        },
        "return": "result boolean array for each redeem type."
      },
      "redeemEther(bytes32,address)": {
        "details": "RedeemEther reward for proposal",
        "params": {
          "_avatar": "address of the controller",
          "_proposalId": "the ID of the voting in the voting machine"
        },
        "return": "amount ether redeemed amount"
      },
      "redeemExternalToken(bytes32,address)": {
        "details": "RedeemNativeToken reward for proposal",
        "params": {
          "_avatar": "address of the controller",
          "_proposalId": "the ID of the voting in the voting machine"
        },
        "return": "amount the external token redeemed amount"
      },
      "redeemNativeToken(bytes32,address)": {
        "details": "RedeemNativeToken reward for proposal",
        "params": {
          "_avatar": "address of the controller",
          "_proposalId": "the ID of the voting in the voting machine"
        },
        "return": "amount the redeemed nativeToken."
      },
      "redeemReputation(bytes32,address)": {
        "details": "RedeemReputation reward for proposal",
        "params": {
          "_avatar": "address of the controller",
          "_proposalId": "the ID of the voting in the voting machine"
        },
        "return": "reputation the redeemed reputation."
      },
      "setParameters(bytes32,address)": {
        "details": "hash the parameters, save them if necessary, and return the hash value"
      }
    },
    "title": "A scheme for proposing and rewarding contributions to an organization"
  },
  "userdoc": {
    "methods": {}
  }
}