{
  "contractName": "DaoCreator",
  "abi": [
    {
      "constant": true,
      "inputs": [
        {
          "name": "",
          "type": "address"
        }
      ],
      "name": "locks",
      "outputs": [
        {
          "name": "",
          "type": "address"
        }
      ],
      "payable": false,
      "stateMutability": "view",
      "type": "function"
    },
    {
      "inputs": [
        {
          "name": "_controllerCreator",
          "type": "address"
        }
      ],
      "payable": false,
      "stateMutability": "nonpayable",
      "type": "constructor"
    },
    {
      "anonymous": false,
      "inputs": [
        {
          "indexed": false,
          "name": "_avatar",
          "type": "address"
        }
      ],
      "name": "NewOrg",
      "type": "event"
    },
    {
      "anonymous": false,
      "inputs": [
        {
          "indexed": false,
          "name": "_avatar",
          "type": "address"
        }
      ],
      "name": "InitialSchemesSet",
      "type": "event"
    },
    {
      "constant": false,
      "inputs": [
        {
          "name": "_avatar",
          "type": "address"
        },
        {
          "name": "_founders",
          "type": "address[]"
        },
        {
          "name": "_foundersTokenAmount",
          "type": "uint256[]"
        },
        {
          "name": "_foundersReputationAmount",
          "type": "uint256[]"
        }
      ],
      "name": "addFounders",
      "outputs": [
        {
          "name": "",
          "type": "bool"
        }
      ],
      "payable": false,
      "stateMutability": "nonpayable",
      "type": "function"
    },
    {
      "constant": false,
      "inputs": [
        {
          "name": "_orgName",
          "type": "string"
        },
        {
          "name": "_tokenName",
          "type": "string"
        },
        {
          "name": "_tokenSymbol",
          "type": "string"
        },
        {
          "name": "_founders",
          "type": "address[]"
        },
        {
          "name": "_foundersTokenAmount",
          "type": "uint256[]"
        },
        {
          "name": "_foundersReputationAmount",
          "type": "uint256[]"
        },
        {
          "name": "_uController",
          "type": "address"
        },
        {
          "name": "_cap",
          "type": "uint256"
        }
      ],
      "name": "forgeOrg",
      "outputs": [
        {
          "name": "",
          "type": "address"
        }
      ],
      "payable": false,
      "stateMutability": "nonpayable",
      "type": "function"
    },
    {
      "constant": false,
      "inputs": [
        {
          "name": "_avatar",
          "type": "address"
        },
        {
          "name": "_schemes",
          "type": "address[]"
        },
        {
          "name": "_params",
          "type": "bytes32[]"
        },
        {
          "name": "_permissions",
          "type": "bytes4[]"
        },
        {
          "name": "_metaData",
          "type": "string"
        }
      ],
      "name": "setSchemes",
      "outputs": [],
      "payable": false,
      "stateMutability": "nonpayable",
      "type": "function"
    }
  ],
  "bytecode": "0x608060405234801561001057600080fd5b5060405160208061432d8339810180604052602081101561003057600080fd5b505160018054600160a060020a031916600160a060020a039092169190911790556142cd806100606000396000f3fe60806040523480156200001157600080fd5b5060043610620000555760e060020a6000350463064bf38681146200005a578063571084bd14620001e15780635de9a1371462000325578063ff720f0f146200036a575b600080fd5b620001df600480360360a08110156200007257600080fd5b600160a060020a0382351691908101906040810160208201356401000000008111156200009e57600080fd5b820183602082011115620000b157600080fd5b80359060200191846020830284011164010000000083111715620000d457600080fd5b919390929091602081019035640100000000811115620000f357600080fd5b8201836020820111156200010657600080fd5b803590602001918460208302840111640100000000831117156200012957600080fd5b9193909290916020810190356401000000008111156200014857600080fd5b8201836020820111156200015b57600080fd5b803590602001918460208302840111640100000000831117156200017e57600080fd5b9193909290916020810190356401000000008111156200019d57600080fd5b820183602082011115620001b057600080fd5b80359060200191846001830284011164010000000083111715620001d357600080fd5b50909250905062000599565b005b6200031160048036036080811015620001f957600080fd5b600160a060020a0382351691908101906040810160208201356401000000008111156200022557600080fd5b8201836020820111156200023857600080fd5b803590602001918460208302840111640100000000831117156200025b57600080fd5b9193909290916020810190356401000000008111156200027a57600080fd5b8201836020820111156200028d57600080fd5b80359060200191846020830284011164010000000083111715620002b057600080fd5b919390929091602081019035640100000000811115620002cf57600080fd5b820183602082011115620002e257600080fd5b803590602001918460208302840111640100000000831117156200030557600080fd5b5090925090506200096e565b604080519115158252519081900360200190f35b6200034e600480360360208110156200033d57600080fd5b5035600160a060020a031662000ce3565b60408051600160a060020a039092168252519081900360200190f35b6200034e60048036036101008110156200038357600080fd5b8101906020810181356401000000008111156200039f57600080fd5b820183602082011115620003b257600080fd5b80359060200191846001830284011164010000000083111715620003d557600080fd5b919390929091602081019035640100000000811115620003f457600080fd5b8201836020820111156200040757600080fd5b803590602001918460018302840111640100000000831117156200042a57600080fd5b9193909290916020810190356401000000008111156200044957600080fd5b8201836020820111156200045c57600080fd5b803590602001918460018302840111640100000000831117156200047f57600080fd5b9193909290916020810190356401000000008111156200049e57600080fd5b820183602082011115620004b157600080fd5b80359060200191846020830284011164010000000083111715620004d457600080fd5b919390929091602081019035640100000000811115620004f357600080fd5b8201836020820111156200050657600080fd5b803590602001918460208302840111640100000000831117156200052957600080fd5b9193909290916020810190356401000000008111156200054857600080fd5b8201836020820111156200055b57600080fd5b803590602001918460208302840111640100000000831117156200057e57600080fd5b9193509150600160a060020a03813516906020013562000cfe565b600160a060020a03898116600090815260208190526040902054163314620005c057600080fd5b600089600160a060020a0316638da5cb5b6040518163ffffffff1660e060020a02815260040160206040518083038186803b158015620005ff57600080fd5b505afa15801562000614573d6000803e3d6000fd5b505050506040513d60208110156200062b57600080fd5b5051905060005b888110156200079b57600160a060020a03821663e869d45f8b8b848181106200065757fe5b90506020020135600160a060020a03168a8a8581811015156200067657fe5b9050602002013589898681811015156200068c57fe5b905060200201357bffffffffffffffffffffffffffffffffffffffffffffffffffffffff19168f6040518563ffffffff1660e060020a0281526004018085600160a060020a0316600160a060020a03168152602001848152602001837bffffffffffffffffffffffffffffffffffffffffffffffffffffffff19167bffffffffffffffffffffffffffffffffffffffffffffffffffffffff1916815260200182600160a060020a0316600160a060020a03168152602001945050505050602060405180830381600087803b1580156200076457600080fd5b505af115801562000779573d6000803e3d6000fd5b505050506040513d60208110156200079057600080fd5b505060010162000632565b50604080517fc9b62eb1000000000000000000000000000000000000000000000000000000008152600160a060020a038c81166024830152600482019283526044820185905283169163c9b62eb191869186918f91908190606401858580828437600081840152601f19601f820116905080830192505050945050505050602060405180830381600087803b1580156200083457600080fd5b505af115801562000849573d6000803e3d6000fd5b505050506040513d60208110156200086057600080fd5b5050604080517f039de01d000000000000000000000000000000000000000000000000000000008152306004820152600160a060020a038c8116602483015291519183169163039de01d916044808201926020929091908290030181600087803b158015620008ce57600080fd5b505af1158015620008e3573d6000803e3d6000fd5b505050506040513d6020811015620008fa57600080fd5b5050600160a060020a038a1660008181526020818152604091829020805473ffffffffffffffffffffffffffffffffffffffff19169055815192835290517f9007c9042f12be953f7dbe3909f56c3f088e9fe294dbebbef4a67afa63462b6a9281900390910190a150505050505050505050565b60008584146200097d57600080fd5b8582146200098a57600080fd5b600086116200099857600080fd5b600160a060020a03888116600090815260208190526040902054163314620009bf57600080fd5b60005b8681101562000cd4576000888883818110620009da57fe5b90506020020135600160a060020a0316600160a060020a03161415151562000a0157600080fd5b600086868381811062000a1057fe5b90506020020135111562000b665788600160a060020a0316638da5cb5b6040518163ffffffff1660e060020a02815260040160206040518083038186803b15801562000a5b57600080fd5b505afa15801562000a70573d6000803e3d6000fd5b505050506040513d602081101562000a8757600080fd5b5051600160a060020a0316636407e43287878481811062000aa457fe5b905060200201358a8a85818110151562000aba57fe5b90506020020135600160a060020a03168c6040518463ffffffff1660e060020a0281526004018084815260200183600160a060020a0316600160a060020a0316815260200182600160a060020a0316600160a060020a031681526020019350505050602060405180830381600087803b15801562000b3757600080fd5b505af115801562000b4c573d6000803e3d6000fd5b505050506040513d602081101562000b6357600080fd5b50505b600084848381811062000b7557fe5b90506020020135111562000ccb5788600160a060020a0316638da5cb5b6040518163ffffffff1660e060020a02815260040160206040518083038186803b15801562000bc057600080fd5b505afa15801562000bd5573d6000803e3d6000fd5b505050506040513d602081101562000bec57600080fd5b5051600160a060020a031663eaf994b285858481811062000c0957fe5b905060200201358a8a85818110151562000c1f57fe5b90506020020135600160a060020a03168c6040518463ffffffff1660e060020a0281526004018084815260200183600160a060020a0316600160a060020a0316815260200182600160a060020a0316600160a060020a031681526020019350505050602060405180830381600087803b15801562000c9c57600080fd5b505af115801562000cb1573d6000803e3d6000fd5b505050506040513d602081101562000cc857600080fd5b50505b600101620009c2565b50600198975050505050505050565b600060208190529081526040902054600160a060020a031681565b600062000e848f8f8080601f016020809104026020016040519081016040528093929190818152602001838380828437600081840152601f19601f820116905080830192505050505050508e8e8080601f016020809104026020016040519081016040528093929190818152602001838380828437600081840152601f19601f820116905080830192505050505050508d8d8080601f016020809104026020016040519081016040528093929190818152602001838380828437600081840152601f19601f820116905080830192505050505050508c8c80806020026020016040519081016040528093929190818152602001838360200280828437600081840152601f19601f820116905080830192505050505050508b8b8080602002602001604051908101604052809392919081815260200183836020028082843760009201919091525050604080516020808f0282810182019093528e82529093508e92508d9182918501908490808284376000920191909152508c92508b915062000e979050565b9f9e505050505050505050505050505050565b835185516000911462000ea957600080fd5b835186511462000eb857600080fd5b855160001062000ec757600080fd5b600088888460405162000eda9062001746565b60408101829052606080825284519082015283518190602080830191608084019188019080838360005b8381101562000f1e57818101518382015260200162000f04565b50505050905090810190601f16801562000f4c5780820380516001836020036101000a031916815260200191505b50838103825285518152855160209182019187019080838360005b8381101562000f8157818101518382015260200162000f67565b50505050905090810190601f16801562000faf5780820380516001836020036101000a031916815260200191505b5095505050505050604051809103906000f08015801562000fd4573d6000803e3d6000fd5b509050600060405162000fe79062001754565b604051809103906000f08015801562001004573d6000803e3d6000fd5b50905060008b83836040516200101a9062001762565b600160a060020a03808416602080840191909152908316604083015260608083528551908301528451829160808301919087019080838360005b838110156200106e57818101518382015260200162001054565b50505050905090810190601f1680156200109c5780820380516001836020036101000a031916815260200191505b50945050505050604051809103906000f080158015620010c0573d6000803e3d6000fd5b5090506000805b8a51811015620012d5578a516000908c9083908110620010e357fe5b60209081029091010151600160a060020a031614156200110257600080fd5b60008a828151811015156200111357fe5b906020019060200201511115620011e75784600160a060020a03166340c10f198c838151811015156200114257fe5b906020019060200201518c848151811015156200115b57fe5b906020019060200201516040518363ffffffff1660e060020a0281526004018083600160a060020a0316600160a060020a0316815260200182815260200192505050602060405180830381600087803b158015620011b857600080fd5b505af1158015620011cd573d6000803e3d6000fd5b505050506040513d6020811015620011e457600080fd5b50505b60008982815181101515620011f857fe5b906020019060200201511115620012cc5783600160a060020a03166340c10f198c838151811015156200122757fe5b906020019060200201518b848151811015156200124057fe5b906020019060200201516040518363ffffffff1660e060020a0281526004018083600160a060020a0316600160a060020a0316815260200182815260200192505050602060405180830381600087803b1580156200129d57600080fd5b505af1158015620012b2573d6000803e3d6000fd5b505050506040513d6020811015620012c957600080fd5b50505b600101620010c7565b50600160a060020a0387161515620014ef57600154604080517f9ed93318000000000000000000000000000000000000000000000000000000008152600160a060020a03858116600483015291519190921691639ed933189160248083019260209291908290030181600087803b1580156200135057600080fd5b505af115801562001365573d6000803e3d6000fd5b505050506040513d60208110156200137c57600080fd5b5051604080517ff2fde38b000000000000000000000000000000000000000000000000000000008152600160a060020a03808416600483015291519293509084169163f2fde38b9160248082019260009290919082900301818387803b158015620013e657600080fd5b505af1158015620013fb573d6000803e3d6000fd5b5050505083600160a060020a031663f2fde38b826040518263ffffffff1660e060020a0281526004018082600160a060020a0316600160a060020a03168152602001915050600060405180830381600087803b1580156200145b57600080fd5b505af115801562001470573d6000803e3d6000fd5b5050505082600160a060020a031663f2fde38b826040518263ffffffff1660e060020a0281526004018082600160a060020a0316600160a060020a03168152602001915050600060405180830381600087803b158015620014d057600080fd5b505af1158015620014e5573d6000803e3d6000fd5b50505050620016ce565b50604080517ff2fde38b000000000000000000000000000000000000000000000000000000008152600160a060020a0380891660048301529151889284169163f2fde38b91602480830192600092919082900301818387803b1580156200155557600080fd5b505af11580156200156a573d6000803e3d6000fd5b5050505083600160a060020a031663f2fde38b826040518263ffffffff1660e060020a0281526004018082600160a060020a0316600160a060020a03168152602001915050600060405180830381600087803b158015620015ca57600080fd5b505af1158015620015df573d6000803e3d6000fd5b5050505082600160a060020a031663f2fde38b826040518263ffffffff1660e060020a0281526004018082600160a060020a0316600160a060020a03168152602001915050600060405180830381600087803b1580156200163f57600080fd5b505af115801562001654573d6000803e3d6000fd5b5050505086600160a060020a031663b9981364836040518263ffffffff1660e060020a0281526004018082600160a060020a0316600160a060020a03168152602001915050600060405180830381600087803b158015620016b457600080fd5b505af1158015620016c9573d6000803e3d6000fd5b505050505b600160a060020a03821660008181526020818152604091829020805473ffffffffffffffffffffffffffffffffffffffff191633179055815192835290517f244496352f5e67e59ce96b4a53ef9ea7cb88b7db33eb13dc5e771bd04385a60e9281900390910190a1509b9a5050505050505050505050565b610e71806200177183390190565b61096780620025e283390190565b6113598062002f498339019056fe60806040523480156200001157600080fd5b5060405162000e7138038062000e71833981018060405260608110156200003757600080fd5b8101908080516401000000008111156200005057600080fd5b820160208101848111156200006457600080fd5b81516401000000008111828201871017156200007f57600080fd5b505092919060200180516401000000008111156200009c57600080fd5b82016020810184811115620000b057600080fd5b8151640100000000811182820187101715620000cb57600080fd5b505060209091015160038054600160a060020a031916331790819055604051929450909250600160a060020a0316906000907f8be0079c531659141344cd1fd0a4f28419497f9722a3daafe3b4186f6b6457e0908290a38251620001379060049060208601906200015a565b5081516200014d9060059060208501906200015a565b5060065550620001ff9050565b828054600181600116156101000203166002900490600052602060002090601f016020900481019282601f106200019d57805160ff1916838001178555620001cd565b82800160010185558215620001cd579182015b82811115620001cd578251825591602001919060010190620001b0565b50620001db929150620001df565b5090565b620001fc91905b80821115620001db5760008155600101620001e6565b90565b610c62806200020f6000396000f3fe608060405234801561001057600080fd5b506004361061013e576000357c01000000000000000000000000000000000000000000000000000000009004806370a08231116100ca57806395d89b411161008e57806395d89b4114610373578063a457c2d71461037b578063a9059cbb146103a7578063dd62ed3e146103d3578063f2fde38b146104015761013e565b806370a08231146102ed578063715018a61461031357806379cc67901461031b5780638da5cb5b146103475780638f32d59b1461036b5761013e565b8063313ce56711610111578063313ce56714610250578063355274ea1461026e578063395093511461027657806340c10f19146102a257806342966c68146102ce5761013e565b806306fdde0314610143578063095ea7b3146101c057806318160ddd1461020057806323b872dd1461021a575b600080fd5b61014b610427565b6040805160208082528351818301528351919283929083019185019080838360005b8381101561018557818101518382015260200161016d565b50505050905090810190601f1680156101b25780820380516001836020036101000a031916815260200191505b509250505060405180910390f35b6101ec600480360360408110156101d657600080fd5b50600160a060020a0381351690602001356104b5565b604080519115158252519081900360200190f35b610208610521565b60408051918252519081900360200190f35b6101ec6004803603606081101561023057600080fd5b50600160a060020a03813581169160208101359091169060400135610527565b6102586105de565b6040805160ff9092168252519081900360200190f35b6102086105e3565b6101ec6004803603604081101561028c57600080fd5b50600160a060020a0381351690602001356105e9565b6101ec600480360360408110156102b857600080fd5b50600160a060020a038135169060200135610687565b6102eb600480360360208110156102e457600080fd5b50356106e0565b005b6102086004803603602081101561030357600080fd5b5035600160a060020a03166106ed565b6102eb610708565b6102eb6004803603604081101561033157600080fd5b50600160a060020a038135169060200135610772565b61034f610780565b60408051600160a060020a039092168252519081900360200190f35b6101ec61078f565b61014b6107a0565b6101ec6004803603604081101561039157600080fd5b50600160a060020a0381351690602001356107fb565b6101ec600480360360408110156103bd57600080fd5b50600160a060020a038135169060200135610846565b610208600480360360408110156103e957600080fd5b50600160a060020a0381358116916020013516610853565b6102eb6004803603602081101561041757600080fd5b5035600160a060020a031661087e565b6004805460408051602060026001851615610100026000190190941693909304601f810184900484028201840190925281815292918301828280156104ad5780601f10610482576101008083540402835291602001916104ad565b820191906000526020600020905b81548152906001019060200180831161049057829003601f168201915b505050505081565b6000600160a060020a03831615156104cc57600080fd5b336000818152600160209081526040808320600160a060020a0388168085529083529281902086905580518681529051929392600080516020610c17833981519152929181900390910190a350600192915050565b60025490565b600160a060020a038316600090815260016020908152604080832033845290915281205461055b908363ffffffff61089a16565b600160a060020a038516600090815260016020908152604080832033845290915290205561058a8484846108af565b600160a060020a038416600081815260016020908152604080832033808552908352928190205481519081529051929392600080516020610c17833981519152929181900390910190a35060019392505050565b601281565b60065481565b6000600160a060020a038316151561060057600080fd5b336000908152600160209081526040808320600160a060020a0387168452909152902054610634908363ffffffff61097c16565b336000818152600160209081526040808320600160a060020a038916808552908352928190208590558051948552519193600080516020610c17833981519152929081900390910190a350600192915050565b600061069161078f565b151561069c57600080fd5b600060065411156106cd576006546106c2836106b6610521565b9063ffffffff61097c16565b11156106cd57600080fd5b6106d78383610995565b50600192915050565b6106ea3382610a3f565b50565b600160a060020a031660009081526020819052604090205490565b61071061078f565b151561071b57600080fd5b600354604051600091600160a060020a0316907f8be0079c531659141344cd1fd0a4f28419497f9722a3daafe3b4186f6b6457e0908390a36003805473ffffffffffffffffffffffffffffffffffffffff19169055565b61077c8282610ae8565b5050565b600354600160a060020a031690565b600354600160a060020a0316331490565b6005805460408051602060026001851615610100026000190190941693909304601f810184900484028201840190925281815292918301828280156104ad5780601f10610482576101008083540402835291602001916104ad565b6000600160a060020a038316151561081257600080fd5b336000908152600160209081526040808320600160a060020a0387168452909152902054610634908363ffffffff61089a16565b60006106d73384846108af565b600160a060020a03918216600090815260016020908152604080832093909416825291909152205490565b61088661078f565b151561089157600080fd5b6106ea81610b98565b6000828211156108a957600080fd5b50900390565b600160a060020a03821615156108c457600080fd5b600160a060020a0383166000908152602081905260409020546108ed908263ffffffff61089a16565b600160a060020a038085166000908152602081905260408082209390935590841681522054610922908263ffffffff61097c16565b600160a060020a038084166000818152602081815260409182902094909455805185815290519193928716927fddf252ad1be2c89b69c2b068fc378daa952ba7f163c4a11628f55a4df523b3ef92918290030190a3505050565b60008282018381101561098e57600080fd5b9392505050565b600160a060020a03821615156109aa57600080fd5b6002546109bd908263ffffffff61097c16565b600255600160a060020a0382166000908152602081905260409020546109e9908263ffffffff61097c16565b600160a060020a0383166000818152602081815260408083209490945583518581529351929391927fddf252ad1be2c89b69c2b068fc378daa952ba7f163c4a11628f55a4df523b3ef9281900390910190a35050565b600160a060020a0382161515610a5457600080fd5b600254610a67908263ffffffff61089a16565b600255600160a060020a038216600090815260208190526040902054610a93908263ffffffff61089a16565b600160a060020a038316600081815260208181526040808320949094558351858152935191937fddf252ad1be2c89b69c2b068fc378daa952ba7f163c4a11628f55a4df523b3ef929081900390910190a35050565b600160a060020a0382166000908152600160209081526040808320338452909152902054610b1c908263ffffffff61089a16565b600160a060020a0383166000908152600160209081526040808320338452909152902055610b4a8282610a3f565b600160a060020a038216600081815260016020908152604080832033808552908352928190205481519081529051929392600080516020610c17833981519152929181900390910190a35050565b600160a060020a0381161515610bad57600080fd5b600354604051600160a060020a038084169216907f8be0079c531659141344cd1fd0a4f28419497f9722a3daafe3b4186f6b6457e090600090a36003805473ffffffffffffffffffffffffffffffffffffffff1916600160a060020a039290921691909117905556fe8c5be1e5ebec7d5bd14f71427d1e84f3dd0314c0f7b2291e5b200ac8c7c3b925a165627a7a7230582039abfb3b2801398c521d863578f343dd2a7268926493a03fd209ef190d612a5b002960806040526000805460a060020a60ff0219167412000000000000000000000000000000000000000017905534801561003757600080fd5b5060008054600160a060020a0319163317808255604051600160a060020a039190911691907f8be0079c531659141344cd1fd0a4f28419497f9722a3daafe3b4186f6b6457e0908290a36108d7806100906000396000f3fe608060405234801561001057600080fd5b50600436106100c6576000357c010000000000000000000000000000000000000000000000000000000090048063715018a61161008e578063715018a6146101955780638da5cb5b1461019f5780638f32d59b146101c3578063981b24d0146101cb5780639dc29fac146101e8578063f2fde38b14610214576100c6565b806318160ddd146100cb578063313ce567146100e557806340c10f19146101035780634ee2cd7e1461014357806370a082311461016f575b600080fd5b6100d361023a565b60408051918252519081900360200190f35b6100ed61024b565b6040805160ff9092168252519081900360200190f35b61012f6004803603604081101561011957600080fd5b50600160a060020a03813516906020013561026c565b604080519115158252519081900360200190f35b6100d36004803603604081101561015957600080fd5b50600160a060020a038135169060200135610335565b6100d36004803603602081101561018557600080fd5b5035600160a060020a03166103c7565b61019d6103db565b005b6101a7610445565b60408051600160a060020a039092168252519081900360200190f35b61012f610454565b6100d3600480360360208110156101e157600080fd5b5035610465565b61012f600480360360408110156101fe57600080fd5b50600160a060020a0381351690602001356104b9565b61019d6004803603602081101561022a57600080fd5b5035600160a060020a0316610570565b600061024543610465565b90505b90565b60005474010000000000000000000000000000000000000000900460ff1681565b6000610276610454565b151561028157600080fd5b600061028b61023a565b905082810181111561029c57600080fd5b60006102a7856103c7565b90508381018111156102b857600080fd5b6102c5600285840161058f565b600160a060020a03851660009081526001602052604090206102e99082860161058f565b604080518581529051600160a060020a038716917f0f6798a560793a54c3bcfe86a93cde1e73087d944c0ea20544137d4121396885919081900360200190a26001925050505b92915050565b600160a060020a03821660009081526001602052604081205415806103915750600160a060020a03831660009081526001602052604081208054849290811061037a57fe5b6000918252602090912001546001608060020a0316115b1561039e5750600061032f565b600160a060020a03831660009081526001602052604090206103c09083610697565b905061032f565b60006103d38243610335565b90505b919050565b6103e3610454565b15156103ee57600080fd5b60008054604051600160a060020a03909116907f8be0079c531659141344cd1fd0a4f28419497f9722a3daafe3b4186f6b6457e0908390a36000805473ffffffffffffffffffffffffffffffffffffffff19169055565b600054600160a060020a031690565b600054600160a060020a0316331490565b600254600090158061049a5750816002600081548110151561048357fe5b6000918252602090912001546001608060020a0316115b156104a7575060006103d6565b6104b2600283610697565b90506103d6565b60006104c3610454565b15156104ce57600080fd5b60006104d861023a565b90508260006104e6866103c7565b9050818110156104f4578091505b610501600283850361058f565b600160a060020a03861660009081526001602052604090206105259083830361058f565b604080518381529051600160a060020a038816917fcc16f5dbb4873280815c1ee09dbd06736cffcc184412cf7a71a0fdb75d397ca5919081900360200190a250600195945050505050565b610578610454565b151561058357600080fd5b61058c816107e7565b50565b6001608060020a03811681146105a457600080fd5b815415806105d8575081544390839060001981019081106105c157fe5b6000918252602090912001546001608060020a0316105b1561064c57815460009083906105f18260018301610864565b815481106105fb57fe5b600091825260209091200180546001608060020a03848116700100000000000000000000000000000000024382166fffffffffffffffffffffffffffffffff19909316929092171617905550610693565b81546000908390600019810190811061066157fe5b600091825260209091200180546001608060020a03808516700100000000000000000000000000000000029116179055505b5050565b815460009015156106aa5750600061032f565b8254839060001981019081106106bc57fe5b6000918252602090912001546001608060020a03168210610719578254839060001981019081106106e957fe5b60009182526020909120015470010000000000000000000000000000000090046001608060020a0316905061032f565b82600081548110151561072857fe5b6000918252602090912001546001608060020a031682101561074c5750600061032f565b8254600090600019015b818111156107a757845460028383016001010490859087908390811061077857fe5b6000918252602090912001546001608060020a03161161079a578092506107a1565b6001810391505b50610756565b84828154811015156107b557fe5b60009182526020909120015470010000000000000000000000000000000090046001608060020a031695945050505050565b600160a060020a03811615156107fc57600080fd5b60008054604051600160a060020a03808516939216917f8be0079c531659141344cd1fd0a4f28419497f9722a3daafe3b4186f6b6457e091a36000805473ffffffffffffffffffffffffffffffffffffffff1916600160a060020a0392909216919091179055565b8154818355818111156108885760008381526020902061088891810190830161088d565b505050565b61024891905b808211156108a75760008155600101610893565b509056fea165627a7a723058203bca0af92dfcfede9bd26af6f6a767b02b188e0c1c60a9df19141bf497b87ecc002960806040523480156200001157600080fd5b506040516200135938038062001359833981018060405260608110156200003757600080fd5b8101908080516401000000008111156200005057600080fd5b820160208101848111156200006457600080fd5b81516401000000008111828201871017156200007f57600080fd5b5050602082015160409283015160008054600160a060020a0319163317808255945193965091945092600160a060020a0316917f8be0079c531659141344cd1fd0a4f28419497f9722a3daafe3b4186f6b6457e0908290a38251620000ec90600190602086019062000120565b5060028054600160a060020a03938416600160a060020a0319918216179091556003805492909316911617905550620001c5565b828054600181600116156101000203166002900490600052602060002090601f016020900481019282601f106200016357805160ff191683800117855562000193565b8280016001018555821562000193579182015b828111156200019357825182559160200191906001019062000176565b50620001a1929150620001a5565b5090565b620001c291905b80821115620001a15760008155600101620001ac565b90565b61118480620001d56000396000f3fe6080604052600436106100df576000357c0100000000000000000000000000000000000000000000000000000000900480638f32d59b1161009c578063cb16d4a211610076578063cb16d4a2146104ae578063dab0efff146104e7578063e1758bd81461052a578063f2fde38b1461053f576100df565b80638f32d59b1461040d578063ab751f7114610422578063b756d5a214610465576100df565b80631386dc2d146101175780632bf16458146101a1578063715018a6146102e9578063890ac46c1461030057806389ae1c90146103c75780638da5cb5b146103f8575b60408051348152905133917ff32a9f77675fd5917534c7746608fd3e309eac68fbdcbf5925e24ca97a704396919081900360200190a2005b34801561012357600080fd5b5061012c610572565b6040805160208082528351818301528351919283929083019185019080838360005b8381101561016657818101518382015260200161014e565b50505050905090810190601f1680156101935780820380516001836020036101000a031916815260200191505b509250505060405180910390f35b3480156101ad57600080fd5b50610266600480360360608110156101c457600080fd5b600160a060020a0382351691908101906040810160208201356401000000008111156101ef57600080fd5b82018360208201111561020157600080fd5b8035906020019184600183028401116401000000008311171561022357600080fd5b91908080601f01602080910402602001604051908101604052809392919081815260200183838082843760009201919091525092955050913592506105ff915050565b604051808315151515815260200180602001828103825283818151815260200191508051906020019080838360005b838110156102ad578181015183820152602001610295565b50505050905090810190601f1680156102da5780820380516001836020036101000a031916815260200191505b50935050505060405180910390f35b3480156102f557600080fd5b506102fe610780565b005b34801561030c57600080fd5b506103b36004803603602081101561032357600080fd5b81019060208101813564010000000081111561033e57600080fd5b82018360208201111561035057600080fd5b8035906020019184600183028401116401000000008311171561037257600080fd5b91908080601f0160208091040260200160405190810160405280939291908181526020018383808284376000920191909152509295506107ea945050505050565b604080519115158252519081900360200190f35b3480156103d357600080fd5b506103dc6108a0565b60408051600160a060020a039092168252519081900360200190f35b34801561040457600080fd5b506103dc6108af565b34801561041957600080fd5b506103b36108be565b34801561042e57600080fd5b506103b36004803603606081101561044557600080fd5b50600160a060020a038135811691602081013590911690604001356108cf565b34801561047157600080fd5b506103b36004803603608081101561048857600080fd5b50600160a060020a0381358116916020810135821691604082013516906060013561094e565b3480156104ba57600080fd5b506103b3600480360360408110156104d157600080fd5b5080359060200135600160a060020a03166109d8565b3480156104f357600080fd5b506103b36004803603606081101561050a57600080fd5b50600160a060020a03813581169160208101359091169060400135610a6c565b34801561053657600080fd5b506103dc610af0565b34801561054b57600080fd5b506102fe6004803603602081101561056257600080fd5b5035600160a060020a0316610aff565b60018054604080516020600284861615610100026000190190941693909304601f810184900484028201840190925281815292918301828280156105f75780601f106105cc576101008083540402835291602001916105f7565b820191906000526020600020905b8154815290600101906020018083116105da57829003601f168201915b505050505081565b6000606061060b6108be565b151561061657600080fd5b84600160a060020a031683856040518082805190602001908083835b602083106106515780518252601f199092019160209182019101610632565b6001836020036101000a03801982511681845116808217855250505050505090500191505060006040518083038185875af1925050503d80600081146106b3576040519150601f19603f3d011682016040523d82523d6000602084013e6106b8565b606091505b50809250819350505084600160a060020a03167f534b52c783549f909f9e743120524d0b7154058e4a54cdc895c2c0b587a1c7e0858585604051808060200184815260200183151515158152602001828103825285818151815260200191508051906020019080838360005b8381101561073c578181015183820152602001610724565b50505050905090810190601f1680156107695780820380516001836020036101000a031916815260200191505b5094505050505060405180910390a2935093915050565b6107886108be565b151561079357600080fd5b60008054604051600160a060020a03909116907f8be0079c531659141344cd1fd0a4f28419497f9722a3daafe3b4186f6b6457e0908390a36000805473ffffffffffffffffffffffffffffffffffffffff19169055565b60006107f46108be565b15156107ff57600080fd5b7ff9deba4938ba20070ec5a45ddf59bccba49cf83124215228ec1232182ef0ba2b826040518080602001828103825283818151815260200191508051906020019080838360005b8381101561085e578181015183820152602001610846565b50505050905090810190601f16801561088b5780820380516001836020036101000a031916815260200191505b509250505060405180910390a1506001919050565b600354600160a060020a031681565b600054600160a060020a031690565b600054600160a060020a0316331490565b60006108d96108be565b15156108e457600080fd5b6108fe600160a060020a038516848463ffffffff610b1e16565b60408051600160a060020a038581168252602082018590528251908716927f3a48a4d6253b30fd10e57a347c1f9bcb0604946481fae0b2fdad6e74f2a9cbb3928290030190a25060019392505050565b60006109586108be565b151561096357600080fd5b61097e600160a060020a03861685858563ffffffff610dbf16565b60408051600160a060020a03868116825285811660208301528183018590529151918716917f179c15de44aa7ab84896301974328eb40b5b40fe01cfe0fee2924ea712c3e8439181900360600190a2506001949350505050565b60006109e26108be565b15156109ed57600080fd5b604051600160a060020a0383169084156108fc029085906000818181858888f19350505050158015610a23573d6000803e3d6000fd5b50604080518481529051600160a060020a038416917f22fca66666089f39bc900dd6605b489df4aae6260cc8ea8257594cfb8c84926c919081900360200190a250600192915050565b6000610a766108be565b1515610a8157600080fd5b610a9b600160a060020a038516848463ffffffff610fb716565b82600160a060020a031684600160a060020a03167f49dc2a60d2599a7b6932d78fb694c30dfc596fe4e0282b5d0fd184b52472c04d846040518082815260200191505060405180910390a35060019392505050565b600254600160a060020a031681565b610b076108be565b1515610b1257600080fd5b610b1b816110ae565b50565b610b3083600160a060020a031661112b565b1515610b3b57600080fd5b801580610bda5750604080517fdd62ed3e000000000000000000000000000000000000000000000000000000008152306004820152600160a060020a03848116602483015291519185169163dd62ed3e91604480820192602092909190829003018186803b158015610bac57600080fd5b505afa158015610bc0573d6000803e3d6000fd5b505050506040513d6020811015610bd657600080fd5b5051155b1515610be557600080fd5b604080518082018252601881527f617070726f766528616464726573732c75696e743235362900000000000000006020918201528151600160a060020a0385811660248301526044808301869052845180840390910181526064909201845291810180517bffffffffffffffffffffffffffffffffffffffffffffffffffffffff167f095ea7b3000000000000000000000000000000000000000000000000000000001781529251815160009460609489169392918291908083835b60208310610cc05780518252601f199092019160209182019101610ca1565b6001836020036101000a0380198251168184511680821785525050505050509050019150506000604051808303816000865af19150503d8060008114610d22576040519150601f19603f3d011682016040523d82523d6000602084013e610d27565b606091505b5091509150811515610d3857600080fd5b80511580610dad575080516020148015610dad575080601f815181101515610d5c57fe5b6020910101517f010000000000000000000000000000000000000000000000000000000000000090819004027fff000000000000000000000000000000000000000000000000000000000000001615155b1515610db857600080fd5b5050505050565b610dd184600160a060020a031661112b565b1515610ddc57600080fd5b6000606085600160a060020a03166060604051908101604052806025815260200161113460259139805160209182012060408051600160a060020a03808b166024830152891660448201526064808201899052825180830390910181526084909101825292830180517bffffffffffffffffffffffffffffffffffffffffffffffffffffffff167fffffffff00000000000000000000000000000000000000000000000000000000909316929092178252518251909182918083835b60208310610eb75780518252601f199092019160209182019101610e98565b6001836020036101000a0380198251168184511680821785525050505050509050019150506000604051808303816000865af19150503d8060008114610f19576040519150601f19603f3d011682016040523d82523d6000602084013e610f1e565b606091505b5091509150811515610f2f57600080fd5b80511580610fa4575080516020148015610fa4575080601f815181101515610f5357fe5b6020910101517f010000000000000000000000000000000000000000000000000000000000000090819004027fff000000000000000000000000000000000000000000000000000000000000001615155b1515610faf57600080fd5b505050505050565b610fc983600160a060020a031661112b565b1515610fd457600080fd5b604080518082018252601981527f7472616e7366657228616464726573732c75696e7432353629000000000000006020918201528151600160a060020a0385811660248301526044808301869052845180840390910181526064909201845291810180517bffffffffffffffffffffffffffffffffffffffffffffffffffffffff167fa9059cbb0000000000000000000000000000000000000000000000000000000017815292518151600094606094891693929182919080838360208310610cc05780518252601f199092019160209182019101610ca1565b600160a060020a03811615156110c357600080fd5b60008054604051600160a060020a03808516939216917f8be0079c531659141344cd1fd0a4f28419497f9722a3daafe3b4186f6b6457e091a36000805473ffffffffffffffffffffffffffffffffffffffff1916600160a060020a0392909216919091179055565b6000903b119056fe7472616e7366657246726f6d28616464726573732c616464726573732c75696e7432353629a165627a7a72305820ffe6ff331352287b8becfcffafa58510067ec2d2a7288b921d7c5e51542e8f190029a165627a7a7230582091ceec71275a9d9ef16398809ffaa4ccbb033523a78c3d9c06b51fab0b4567690029",
  "source": "pragma solidity ^0.5.4;\n\nimport \"./UniversalScheme.sol\";\nimport \"../controller/UController.sol\";\nimport \"../controller/Controller.sol\";\n\n\n/**\n * @title ControllerCreator for creating a single controller.\n */\n\ncontract ControllerCreator {\n\n    function create(Avatar _avatar) public returns(address) {\n        Controller controller = new Controller(_avatar);\n        controller.registerScheme(msg.sender, bytes32(0), bytes4(0x0000001f), address(_avatar));\n        controller.unregisterScheme(address(this), address(_avatar));\n        return address(controller);\n    }\n}\n\n/**\n * @title Genesis Scheme that creates organizations\n */\n\n\ncontract DaoCreator {\n\n    mapping(address=>address) public locks;\n\n    event NewOrg (address _avatar);\n    event InitialSchemesSet (address _avatar);\n\n    ControllerCreator private controllerCreator;\n\n    constructor(ControllerCreator _controllerCreator) public {\n        controllerCreator = _controllerCreator;\n    }\n\n    /**\n      * @dev addFounders add founders to the organization.\n      *      this function can be called only after forgeOrg and before setSchemes\n      * @param _avatar the organization avatar\n      * @param _founders An array with the addresses of the founders of the organization\n      * @param _foundersTokenAmount An array of amount of tokens that the founders\n      *  receive in the new organization\n      * @param _foundersReputationAmount An array of amount of reputation that the\n      *   founders receive in the new organization\n      * @return bool true or false\n      */\n    function addFounders (\n        Avatar _avatar,\n        address[] calldata _founders,\n        uint[] calldata _foundersTokenAmount,\n        uint[] calldata _foundersReputationAmount\n    )\n    external\n    returns(bool)\n    {\n        require(_founders.length == _foundersTokenAmount.length);\n        require(_founders.length == _foundersReputationAmount.length);\n        require(_founders.length > 0);\n        require(locks[address(_avatar)] == msg.sender);\n        // Mint token and reputation for founders:\n        for (uint256 i = 0; i < _founders.length; i++) {\n            require(_founders[i] != address(0));\n            if (_foundersTokenAmount[i] > 0) {\n                ControllerInterface(\n                _avatar.owner()).mintTokens(_foundersTokenAmount[i], _founders[i], address(_avatar));\n            }\n            if (_foundersReputationAmount[i] > 0) {\n                ControllerInterface(\n                _avatar.owner()).mintReputation(_foundersReputationAmount[i], _founders[i], address(_avatar));\n            }\n        }\n        return true;\n    }\n\n  /**\n    * @dev Create a new organization\n    * @param _orgName The name of the new organization\n    * @param _tokenName The name of the token associated with the organization\n    * @param _tokenSymbol The symbol of the token\n    * @param _founders An array with the addresses of the founders of the organization\n    * @param _foundersTokenAmount An array of amount of tokens that the founders\n    *  receive in the new organization\n    * @param _foundersReputationAmount An array of amount of reputation that the\n    *   founders receive in the new organization\n    * @param  _uController universal controller instance\n    *         if _uController address equal to zero the organization will use none universal controller.\n    * @param  _cap token cap - 0 for no cap.\n    * @return The address of the avatar of the controller\n    */\n    function forgeOrg (\n        string calldata _orgName,\n        string calldata _tokenName,\n        string calldata _tokenSymbol,\n        address[] calldata _founders,\n        uint[] calldata _foundersTokenAmount,\n        uint[] calldata _foundersReputationAmount,\n        UController _uController,\n        uint256 _cap\n    )\n    external\n    returns(address)\n    {\n        //The call for the private function is needed to bypass a deep stack issues\n        return _forgeOrg(\n            _orgName,\n            _tokenName,\n            _tokenSymbol,\n            _founders,\n            _foundersTokenAmount,\n            _foundersReputationAmount,\n            _uController,\n            _cap);\n    }\n\n     /**\n      * @dev Set initial schemes for the organization.\n      * @param _avatar organization avatar (returns from forgeOrg)\n      * @param _schemes the schemes to register for the organization\n      * @param _params the schemes's params\n      * @param _permissions the schemes permissions.\n      * @param _metaData dao meta data hash\n      */\n    function setSchemes (\n        Avatar _avatar,\n        address[] calldata _schemes,\n        bytes32[] calldata _params,\n        bytes4[] calldata _permissions,\n        string calldata _metaData\n    )\n        external\n    {\n        // this action can only be executed by the account that holds the lock\n        // for this controller\n        require(locks[address(_avatar)] == msg.sender);\n        // register initial schemes:\n        ControllerInterface controller = ControllerInterface(_avatar.owner());\n        for (uint256 i = 0; i < _schemes.length; i++) {\n            controller.registerScheme(_schemes[i], _params[i], _permissions[i], address(_avatar));\n        }\n        controller.metaData(_metaData, _avatar);\n        // Unregister self:\n        controller.unregisterScheme(address(this), address(_avatar));\n        // Remove lock:\n        delete locks[address(_avatar)];\n        emit InitialSchemesSet(address(_avatar));\n    }\n\n    /**\n     * @dev Create a new organization\n     * @param _orgName The name of the new organization\n     * @param _tokenName The name of the token associated with the organization\n     * @param _tokenSymbol The symbol of the token\n     * @param _founders An array with the addresses of the founders of the organization\n     * @param _foundersTokenAmount An array of amount of tokens that the founders\n     *  receive in the new organization\n     * @param _foundersReputationAmount An array of amount of reputation that the\n     *   founders receive in the new organization\n     * @param  _uController universal controller instance\n     *         if _uController address equal to zero the organization will use none universal controller.\n     * @param  _cap token cap - 0 for no cap.\n     * @return The address of the avatar of the controller\n     */\n    function _forgeOrg (\n        string memory _orgName,\n        string memory _tokenName,\n        string memory _tokenSymbol,\n        address[] memory _founders,\n        uint[] memory _foundersTokenAmount,\n        uint[] memory _foundersReputationAmount,\n        UController _uController,\n        uint256 _cap\n    ) private returns(address)\n    {\n        // Create Token, Reputation and Avatar:\n        require(_founders.length == _foundersTokenAmount.length);\n        require(_founders.length == _foundersReputationAmount.length);\n        require(_founders.length > 0);\n        DAOToken  nativeToken = new DAOToken(_tokenName, _tokenSymbol, _cap);\n        Reputation  nativeReputation = new Reputation();\n        Avatar  avatar = new Avatar(_orgName, nativeToken, nativeReputation);\n        ControllerInterface  controller;\n\n        // Mint token and reputation for founders:\n        for (uint256 i = 0; i < _founders.length; i++) {\n            require(_founders[i] != address(0));\n            if (_foundersTokenAmount[i] > 0) {\n                nativeToken.mint(_founders[i], _foundersTokenAmount[i]);\n            }\n            if (_foundersReputationAmount[i] > 0) {\n                nativeReputation.mint(_founders[i], _foundersReputationAmount[i]);\n            }\n        }\n\n        // Create Controller:\n        if (UController(0) == _uController) {\n            controller = ControllerInterface(controllerCreator.create(avatar));\n            avatar.transferOwnership(address(controller));\n            // Transfer ownership:\n            nativeToken.transferOwnership(address(controller));\n            nativeReputation.transferOwnership(address(controller));\n        } else {\n            controller = _uController;\n            avatar.transferOwnership(address(controller));\n            // Transfer ownership:\n            nativeToken.transferOwnership(address(controller));\n            nativeReputation.transferOwnership(address(controller));\n            _uController.newOrganization(avatar);\n        }\n\n        locks[address(avatar)] = msg.sender;\n\n        emit NewOrg (address(avatar));\n        return (address(avatar));\n    }\n}\n",
  "sourcePath": "/Users/oren/daostack/arc/contracts/universalSchemes/DaoCreator.sol",
  "compiler": {
    "name": "solc",
    "version": "0.5.4+commit.9549d8ff.Emscripten.clang"
  },
  "schemaVersion": "3.0.6",
  "updatedAt": "2019-05-02T12:00:21.278Z",
  "devdoc": {
    "methods": {
      "addFounders(address,address[],uint256[],uint256[])": {
        "details": "addFounders add founders to the organization.     this function can be called only after forgeOrg and before setSchemes",
        "params": {
          "_avatar": "the organization avatar",
          "_founders": "An array with the addresses of the founders of the organization",
          "_foundersReputationAmount": "An array of amount of reputation that the  founders receive in the new organization",
          "_foundersTokenAmount": "An array of amount of tokens that the founders receive in the new organization"
        },
        "return": "bool true or false"
      },
      "forgeOrg(string,string,string,address[],uint256[],uint256[],address,uint256)": {
        "details": "Create a new organization",
        "params": {
          "_cap": "token cap - 0 for no cap.",
          "_founders": "An array with the addresses of the founders of the organization",
          "_foundersReputationAmount": "An array of amount of reputation that the  founders receive in the new organization",
          "_foundersTokenAmount": "An array of amount of tokens that the founders receive in the new organization",
          "_orgName": "The name of the new organization",
          "_tokenName": "The name of the token associated with the organization",
          "_tokenSymbol": "The symbol of the token",
          "_uController": "universal controller instance        if _uController address equal to zero the organization will use none universal controller."
        },
        "return": "The address of the avatar of the controller"
      },
      "setSchemes(address,address[],bytes32[],bytes4[],string)": {
        "details": "Set initial schemes for the organization.",
        "params": {
          "_avatar": "organization avatar (returns from forgeOrg)",
          "_metaData": "dao meta data hash",
          "_params": "the schemes's params",
          "_permissions": "the schemes permissions.",
          "_schemes": "the schemes to register for the organization"
        }
      }
    },
    "title": "Genesis Scheme that creates organizations"
  },
  "userdoc": {
    "methods": {}
  }
}