{
  "contractName": "Locking4Reputation",
  "abi": [
    {
      "constant": true,
      "inputs": [],
      "name": "redeemEnableTime",
      "outputs": [
        {
          "name": "",
          "type": "uint256"
        }
      ],
      "payable": false,
      "stateMutability": "view",
      "type": "function"
    },
    {
      "constant": true,
      "inputs": [],
      "name": "lockingStartTime",
      "outputs": [
        {
          "name": "",
          "type": "uint256"
        }
      ],
      "payable": false,
      "stateMutability": "view",
      "type": "function"
    },
    {
      "constant": true,
      "inputs": [],
      "name": "totalLocked",
      "outputs": [
        {
          "name": "",
          "type": "uint256"
        }
      ],
      "payable": false,
      "stateMutability": "view",
      "type": "function"
    },
    {
      "constant": true,
      "inputs": [],
      "name": "avatar",
      "outputs": [
        {
          "name": "",
          "type": "address"
        }
      ],
      "payable": false,
      "stateMutability": "view",
      "type": "function"
    },
    {
      "constant": true,
      "inputs": [],
      "name": "getAgreementHash",
      "outputs": [
        {
          "name": "",
          "type": "bytes32"
        }
      ],
      "payable": false,
      "stateMutability": "view",
      "type": "function"
    },
    {
      "constant": true,
      "inputs": [
        {
          "name": "",
          "type": "address"
        }
      ],
      "name": "scores",
      "outputs": [
        {
          "name": "",
          "type": "uint256"
        }
      ],
      "payable": false,
      "stateMutability": "view",
      "type": "function"
    },
    {
      "constant": true,
      "inputs": [
        {
          "name": "",
          "type": "address"
        },
        {
          "name": "",
          "type": "bytes32"
        }
      ],
      "name": "lockers",
      "outputs": [
        {
          "name": "amount",
          "type": "uint256"
        },
        {
          "name": "releaseTime",
          "type": "uint256"
        }
      ],
      "payable": false,
      "stateMutability": "view",
      "type": "function"
    },
    {
      "constant": true,
      "inputs": [],
      "name": "lockingEndTime",
      "outputs": [
        {
          "name": "",
          "type": "uint256"
        }
      ],
      "payable": false,
      "stateMutability": "view",
      "type": "function"
    },
    {
      "constant": true,
      "inputs": [],
      "name": "reputationRewardLeft",
      "outputs": [
        {
          "name": "",
          "type": "uint256"
        }
      ],
      "payable": false,
      "stateMutability": "view",
      "type": "function"
    },
    {
      "constant": true,
      "inputs": [],
      "name": "maxLockingPeriod",
      "outputs": [
        {
          "name": "",
          "type": "uint256"
        }
      ],
      "payable": false,
      "stateMutability": "view",
      "type": "function"
    },
    {
      "constant": true,
      "inputs": [],
      "name": "totalScore",
      "outputs": [
        {
          "name": "",
          "type": "uint256"
        }
      ],
      "payable": false,
      "stateMutability": "view",
      "type": "function"
    },
    {
      "constant": true,
      "inputs": [],
      "name": "lockingsCounter",
      "outputs": [
        {
          "name": "",
          "type": "uint256"
        }
      ],
      "payable": false,
      "stateMutability": "view",
      "type": "function"
    },
    {
      "constant": true,
      "inputs": [],
      "name": "totalLockedLeft",
      "outputs": [
        {
          "name": "",
          "type": "uint256"
        }
      ],
      "payable": false,
      "stateMutability": "view",
      "type": "function"
    },
    {
      "constant": true,
      "inputs": [],
      "name": "reputationReward",
      "outputs": [
        {
          "name": "",
          "type": "uint256"
        }
      ],
      "payable": false,
      "stateMutability": "view",
      "type": "function"
    },
    {
      "anonymous": false,
      "inputs": [
        {
          "indexed": true,
          "name": "_beneficiary",
          "type": "address"
        },
        {
          "indexed": false,
          "name": "_amount",
          "type": "uint256"
        }
      ],
      "name": "Redeem",
      "type": "event"
    },
    {
      "anonymous": false,
      "inputs": [
        {
          "indexed": true,
          "name": "_lockingId",
          "type": "bytes32"
        },
        {
          "indexed": true,
          "name": "_beneficiary",
          "type": "address"
        },
        {
          "indexed": false,
          "name": "_amount",
          "type": "uint256"
        }
      ],
      "name": "Release",
      "type": "event"
    },
    {
      "anonymous": false,
      "inputs": [
        {
          "indexed": true,
          "name": "_locker",
          "type": "address"
        },
        {
          "indexed": true,
          "name": "_lockingId",
          "type": "bytes32"
        },
        {
          "indexed": false,
          "name": "_amount",
          "type": "uint256"
        },
        {
          "indexed": false,
          "name": "_period",
          "type": "uint256"
        }
      ],
      "name": "Lock",
      "type": "event"
    },
    {
      "constant": false,
      "inputs": [
        {
          "name": "_beneficiary",
          "type": "address"
        }
      ],
      "name": "redeem",
      "outputs": [
        {
          "name": "reputation",
          "type": "uint256"
        }
      ],
      "payable": false,
      "stateMutability": "nonpayable",
      "type": "function"
    }
  ],
  "bytecode": "0x608060405234801561001057600080fd5b50610693806100206000396000f3fe608060405234801561001057600080fd5b5060043610610112576000357c01000000000000000000000000000000000000000000000000000000009004806395a2251f116100b4578063c006719f11610083578063c006719f14610216578063c3201add1461021e578063c348a24b14610226578063ed1ff6d81461022e57610112565b806395a2251f146101d8578063a8c33017146101fe578063afe0e33c14610206578063bf0df4451461020e57610112565b80635aef7de6116100f05780635aef7de614610141578063696da9211461016557806376dd110f1461016d578063838057421461019357610112565b80633d1678f41461011757806355bfec88146101315780635689141214610139575b600080fd5b61011f610236565b60408051918252519081900360200190f35b61011f61023c565b61011f610242565b610149610248565b60408051600160a060020a039092168252519081900360200190f35b61011f610257565b61011f6004803603602081101561018357600080fd5b5035600160a060020a031661025d565b6101bf600480360360408110156101a957600080fd5b50600160a060020a03813516906020013561026f565b6040805192835260208301919091528051918290030190f35b61011f600480360360208110156101ee57600080fd5b5035600160a060020a0316610293565b61011f6105d0565b61011f6105d6565b61011f6105dc565b61011f6105e2565b61011f6105e8565b61011f6105ee565b61011f6105f4565b600d5481565b600c5481565b60045481565b600154600160a060020a031681565b60005490565b60036020526000908152604090205481565b60026020908152600092835260408084209091529082529020805460019091015482565b600d54600090421161030657604080517f08c379a000000000000000000000000000000000000000000000000000000000815260206004820152601660248201527f6e6f77203e2072656465656d456e61626c6554696d6500000000000000000000604482015290519081900360640190fd5b600160a060020a0382166000908152600360205260408120541161038b57604080517f08c379a000000000000000000000000000000000000000000000000000000000815260206004820152601360248201527f73636f72652073686f756c64206265203e203000000000000000000000000000604482015290519081900360640190fd5b600160a060020a03821660009081526003602052604081208054908290556008549091906103c090839063ffffffff6105fa16565b90506103d76006548261062e90919063ffffffff16565b6009549093506103ed908463ffffffff61065216565b600955600154604080517f8da5cb5b0000000000000000000000000000000000000000000000000000000081529051600160a060020a0390921691638da5cb5b91600480820192602092909190829003018186803b15801561044e57600080fd5b505afa158015610462573d6000803e3d6000fd5b505050506040513d602081101561047857600080fd5b5051600154604080517feaf994b200000000000000000000000000000000000000000000000000000000815260048101879052600160a060020a03888116602483015292831660448201529051919092169163eaf994b29160648083019260209291908290030181600087803b1580156104f157600080fd5b505af1158015610505573d6000803e3d6000fd5b505050506040513d602081101561051b57600080fd5b5051151561058a57604080517f08c379a000000000000000000000000000000000000000000000000000000000815260206004820152601e60248201527f6d696e742072657075746174696f6e2073686f756c6420737563636565640000604482015290519081900360640190fd5b604080518481529051600160a060020a038616917f222838db2794d11532d940e8dec38ae307ed0b63cd97c233322e221f998767a6919081900360200190a25050919050565b600a5481565b60095481565b600b5481565b60065481565b60075481565b60055481565b60085481565b600082151561060b57506000610628565b82820282848281151561061a57fe5b041461062557600080fd5b90505b92915050565b600080821161063c57600080fd5b6000828481151561064957fe5b04949350505050565b60008282111561066157600080fd5b5090039056fea165627a7a72305820189bd4005edb64dcaba4c46baf31ec2c05b19b558be1d72b12b51a3bba7563340029",
  "source": "pragma solidity ^0.5.4;\n\nimport \"../controller/ControllerInterface.sol\";\nimport \"./Agreement.sol\";\n\n/**\n * @title A locker contract\n */\n\ncontract Locking4Reputation is Agreement {\n    using SafeMath for uint256;\n\n    event Redeem(address indexed _beneficiary, uint256 _amount);\n    event Release(bytes32 indexed _lockingId, address indexed _beneficiary, uint256 _amount);\n    event Lock(address indexed _locker, bytes32 indexed _lockingId, uint256 _amount, uint256 _period);\n\n    struct Locker {\n        uint256 amount;\n        uint256 releaseTime;\n    }\n\n    Avatar public avatar;\n\n    // A mapping from lockers addresses their lock balances.\n    mapping(address => mapping(bytes32=>Locker)) public lockers;\n    // A mapping from lockers addresses to their scores.\n    mapping(address => uint) public scores;\n\n    uint256 public totalLocked;\n    uint256 public totalLockedLeft;\n    uint256 public totalScore;\n    uint256 public lockingsCounter; // Total number of lockings\n    uint256 public reputationReward;\n    uint256 public reputationRewardLeft;\n    uint256 public lockingEndTime;\n    uint256 public maxLockingPeriod;\n    uint256 public lockingStartTime;\n    uint256 public redeemEnableTime;\n\n    /**\n     * @dev redeem reputation function\n     * @param _beneficiary the beneficiary for the release\n     * @return uint256 reputation rewarded\n     */\n    function redeem(address _beneficiary) public returns(uint256 reputation) {\n        // solhint-disable-next-line not-rely-on-time\n        require(block.timestamp > redeemEnableTime, \"now > redeemEnableTime\");\n        require(scores[_beneficiary] > 0, \"score should be > 0\");\n        uint256 score = scores[_beneficiary];\n        scores[_beneficiary] = 0;\n        uint256 repRelation = score.mul(reputationReward);\n        reputation = repRelation.div(totalScore);\n\n        //check that the reputation is sum zero\n        reputationRewardLeft = reputationRewardLeft.sub(reputation);\n        require(\n        ControllerInterface(\n        avatar.owner())\n        .mintReputation(reputation, _beneficiary, address(avatar)), \"mint reputation should succeed\");\n\n        emit Redeem(_beneficiary, reputation);\n    }\n\n    /**\n     * @dev release function\n     * @param _beneficiary the beneficiary for the release\n     * @param _lockingId the locking id to release\n     * @return bool\n     */\n    function _release(address _beneficiary, bytes32 _lockingId) internal returns(uint256 amount) {\n        Locker storage locker = lockers[_beneficiary][_lockingId];\n        require(locker.amount > 0, \"amount should be > 0\");\n        amount = locker.amount;\n        locker.amount = 0;\n        // solhint-disable-next-line not-rely-on-time\n        require(block.timestamp > locker.releaseTime, \"check the lock period pass\");\n        totalLockedLeft = totalLockedLeft.sub(amount);\n\n        emit Release(_lockingId, _beneficiary, amount);\n    }\n\n    /**\n     * @dev lock function\n     * @param _amount the amount to lock\n     * @param _period the locking period\n     * @param _locker the locker\n     * @param _numerator price numerator\n     * @param _denominator price denominator\n     * @return lockingId\n     */\n    function _lock(\n        uint256 _amount,\n        uint256 _period,\n        address _locker,\n        uint256 _numerator,\n        uint256 _denominator,\n        bytes32 _agreementHash)\n        internal\n        onlyAgree(_agreementHash)\n        returns(bytes32 lockingId)\n        {\n        require(_amount > 0, \"locking amount should be > 0\");\n        require(_period <= maxLockingPeriod, \"locking period should be <= maxLockingPeriod\");\n        require(_period > 0, \"locking period should be > 0\");\n        // solhint-disable-next-line not-rely-on-time\n        require(now <= lockingEndTime, \"lock should be within the allowed locking period\");\n        // solhint-disable-next-line not-rely-on-time\n        require(now >= lockingStartTime, \"lock should start after lockingStartTime\");\n\n        lockingId = keccak256(abi.encodePacked(address(this), lockingsCounter));\n        lockingsCounter = lockingsCounter.add(1);\n\n        Locker storage locker = lockers[_locker][lockingId];\n        locker.amount = _amount;\n        // solhint-disable-next-line not-rely-on-time\n        locker.releaseTime = now + _period;\n        totalLocked = totalLocked.add(_amount);\n        totalLockedLeft = totalLockedLeft.add(_amount);\n        uint256 score = _period.mul(_amount).mul(_numerator).div(_denominator);\n        require(score > 0, \"score must me > 0\");\n        scores[_locker] = scores[_locker].add(score);\n        //verify that redeem will not overflow for this locker\n        require((scores[_locker] * reputationReward)/scores[_locker] == reputationReward,\n        \"score is too high\");\n        totalScore = totalScore.add(score);\n\n        emit Lock(_locker, lockingId, _amount, _period);\n    }\n\n    /**\n     * @dev _initialize\n     * @param _avatar the avatar to mint reputation from\n     * @param _reputationReward the total reputation this contract will reward\n     *        for eth/token locking\n     * @param _lockingStartTime the locking start time.\n     * @param _lockingEndTime the locking end time.\n     *        locking is disable after this time.\n     * @param _redeemEnableTime redeem enable time .\n     *        redeem reputation can be done after this time.\n     * @param _maxLockingPeriod maximum locking period allowed.\n     */\n    function _initialize(\n        Avatar _avatar,\n        uint256 _reputationReward,\n        uint256 _lockingStartTime,\n        uint256 _lockingEndTime,\n        uint256 _redeemEnableTime,\n        uint256 _maxLockingPeriod,\n        bytes32 _agreementHash )\n    internal\n    {\n        require(avatar == Avatar(0), \"can be called only one time\");\n        require(_avatar != Avatar(0), \"avatar cannot be zero\");\n        require(_lockingEndTime > _lockingStartTime, \"locking end time should be greater than locking start time\");\n        require(_redeemEnableTime >= _lockingEndTime, \"redeemEnableTime >= lockingEndTime\");\n\n        reputationReward = _reputationReward;\n        reputationRewardLeft = _reputationReward;\n        lockingEndTime = _lockingEndTime;\n        maxLockingPeriod = _maxLockingPeriod;\n        avatar = _avatar;\n        lockingStartTime = _lockingStartTime;\n        redeemEnableTime = _redeemEnableTime;\n        super.setAgreementHash(_agreementHash);\n    }\n\n}\n",
  "sourcePath": "/Users/oren/daostack/arc/contracts/schemes/Locking4Reputation.sol",
  "compiler": {
    "name": "solc",
    "version": "0.5.4+commit.9549d8ff.Emscripten.clang"
  },
  "schemaVersion": "3.0.6",
  "updatedAt": "2019-05-02T12:00:21.247Z",
  "devdoc": {
    "methods": {
      "getAgreementHash()": {
        "details": "getAgreementHash",
        "return": "bytes32 agreementHash"
      },
      "redeem(address)": {
        "details": "redeem reputation function",
        "params": {
          "_beneficiary": "the beneficiary for the release"
        },
        "return": "uint256 reputation rewarded"
      }
    },
    "title": "A locker contract"
  },
  "userdoc": {
    "methods": {}
  }
}