{
  "contractName": "AbsoluteVoteExecuteMock",
  "abi": [
    {
      "constant": true,
      "inputs": [],
      "name": "absoluteVote",
      "outputs": [
        {
          "name": "",
          "type": "address"
        }
      ],
      "payable": false,
      "stateMutability": "view",
      "type": "function"
    },
    {
      "constant": false,
      "inputs": [],
      "name": "renounceOwnership",
      "outputs": [],
      "payable": false,
      "stateMutability": "nonpayable",
      "type": "function"
    },
    {
      "constant": true,
      "inputs": [],
      "name": "owner",
      "outputs": [
        {
          "name": "",
          "type": "address"
        }
      ],
      "payable": false,
      "stateMutability": "view",
      "type": "function"
    },
    {
      "constant": true,
      "inputs": [],
      "name": "isOwner",
      "outputs": [
        {
          "name": "",
          "type": "bool"
        }
      ],
      "payable": false,
      "stateMutability": "view",
      "type": "function"
    },
    {
      "constant": true,
      "inputs": [],
      "name": "reputation",
      "outputs": [
        {
          "name": "",
          "type": "address"
        }
      ],
      "payable": false,
      "stateMutability": "view",
      "type": "function"
    },
    {
      "constant": true,
      "inputs": [
        {
          "name": "",
          "type": "bytes32"
        }
      ],
      "name": "proposalsBlockNumbers",
      "outputs": [
        {
          "name": "",
          "type": "uint256"
        }
      ],
      "payable": false,
      "stateMutability": "view",
      "type": "function"
    },
    {
      "constant": false,
      "inputs": [
        {
          "name": "newOwner",
          "type": "address"
        }
      ],
      "name": "transferOwnership",
      "outputs": [],
      "payable": false,
      "stateMutability": "nonpayable",
      "type": "function"
    },
    {
      "inputs": [
        {
          "name": "_reputation",
          "type": "address"
        },
        {
          "name": "_absoluteVote",
          "type": "address"
        }
      ],
      "payable": false,
      "stateMutability": "nonpayable",
      "type": "constructor"
    },
    {
      "anonymous": false,
      "inputs": [
        {
          "indexed": true,
          "name": "_proposalId",
          "type": "bytes32"
        },
        {
          "indexed": true,
          "name": "_organization",
          "type": "address"
        },
        {
          "indexed": false,
          "name": "_numOfChoices",
          "type": "uint256"
        },
        {
          "indexed": false,
          "name": "_proposer",
          "type": "address"
        },
        {
          "indexed": false,
          "name": "_paramsHash",
          "type": "bytes32"
        }
      ],
      "name": "NewProposal",
      "type": "event"
    },
    {
      "anonymous": false,
      "inputs": [
        {
          "indexed": true,
          "name": "previousOwner",
          "type": "address"
        },
        {
          "indexed": true,
          "name": "newOwner",
          "type": "address"
        }
      ],
      "name": "OwnershipTransferred",
      "type": "event"
    },
    {
      "anonymous": false,
      "inputs": [
        {
          "indexed": false,
          "name": "_msg",
          "type": "address"
        }
      ],
      "name": "LogAddress",
      "type": "event"
    },
    {
      "anonymous": false,
      "inputs": [
        {
          "indexed": false,
          "name": "_msg",
          "type": "int256"
        }
      ],
      "name": "LogInt",
      "type": "event"
    },
    {
      "anonymous": false,
      "inputs": [
        {
          "indexed": false,
          "name": "_msg",
          "type": "string"
        }
      ],
      "name": "LogString",
      "type": "event"
    },
    {
      "anonymous": false,
      "inputs": [
        {
          "indexed": false,
          "name": "_msg",
          "type": "uint256"
        }
      ],
      "name": "LogUint",
      "type": "event"
    },
    {
      "anonymous": false,
      "inputs": [
        {
          "indexed": false,
          "name": "_msg",
          "type": "bytes"
        }
      ],
      "name": "LogBytes",
      "type": "event"
    },
    {
      "anonymous": false,
      "inputs": [
        {
          "indexed": false,
          "name": "_msg",
          "type": "bytes32"
        }
      ],
      "name": "LogBytes32",
      "type": "event"
    },
    {
      "anonymous": false,
      "inputs": [
        {
          "indexed": false,
          "name": "_msg",
          "type": "bool"
        }
      ],
      "name": "LogBool",
      "type": "event"
    },
    {
      "constant": false,
      "inputs": [
        {
          "name": "_amount",
          "type": "uint256"
        },
        {
          "name": "_beneficiary",
          "type": "address"
        },
        {
          "name": "",
          "type": "bytes32"
        }
      ],
      "name": "mintReputation",
      "outputs": [
        {
          "name": "",
          "type": "bool"
        }
      ],
      "payable": false,
      "stateMutability": "nonpayable",
      "type": "function"
    },
    {
      "constant": false,
      "inputs": [
        {
          "name": "_amount",
          "type": "uint256"
        },
        {
          "name": "_beneficiary",
          "type": "address"
        },
        {
          "name": "",
          "type": "bytes32"
        }
      ],
      "name": "burnReputation",
      "outputs": [
        {
          "name": "",
          "type": "bool"
        }
      ],
      "payable": false,
      "stateMutability": "nonpayable",
      "type": "function"
    },
    {
      "constant": false,
      "inputs": [
        {
          "name": "_stakingToken",
          "type": "address"
        },
        {
          "name": "_beneficiary",
          "type": "address"
        },
        {
          "name": "_amount",
          "type": "uint256"
        },
        {
          "name": "",
          "type": "bytes32"
        }
      ],
      "name": "stakingTokenTransfer",
      "outputs": [
        {
          "name": "",
          "type": "bool"
        }
      ],
      "payable": false,
      "stateMutability": "nonpayable",
      "type": "function"
    },
    {
      "constant": false,
      "inputs": [
        {
          "name": "_proposalId",
          "type": "bytes32"
        },
        {
          "name": "_decision",
          "type": "int256"
        }
      ],
      "name": "executeProposal",
      "outputs": [
        {
          "name": "",
          "type": "bool"
        }
      ],
      "payable": false,
      "stateMutability": "nonpayable",
      "type": "function"
    },
    {
      "constant": false,
      "inputs": [
        {
          "name": "_numOfChoices",
          "type": "uint256"
        },
        {
          "name": "_paramsHash",
          "type": "bytes32"
        },
        {
          "name": "",
          "type": "address"
        },
        {
          "name": "_proposer",
          "type": "address"
        },
        {
          "name": "_organization",
          "type": "address"
        }
      ],
      "name": "propose",
      "outputs": [
        {
          "name": "",
          "type": "bytes32"
        }
      ],
      "payable": false,
      "stateMutability": "nonpayable",
      "type": "function"
    },
    {
      "constant": false,
      "inputs": [
        {
          "name": "_amount",
          "type": "uint256"
        },
        {
          "name": "_beneficiary",
          "type": "address"
        },
        {
          "name": "",
          "type": "bytes32"
        }
      ],
      "name": "burnReputationTest",
      "outputs": [
        {
          "name": "",
          "type": "bool"
        }
      ],
      "payable": false,
      "stateMutability": "nonpayable",
      "type": "function"
    },
    {
      "constant": false,
      "inputs": [
        {
          "name": "_proposalId",
          "type": "bytes32"
        }
      ],
      "name": "setProposal",
      "outputs": [
        {
          "name": "",
          "type": "bool"
        }
      ],
      "payable": false,
      "stateMutability": "nonpayable",
      "type": "function"
    },
    {
      "constant": true,
      "inputs": [
        {
          "name": "_proposalId",
          "type": "bytes32"
        }
      ],
      "name": "getTotalReputationSupply",
      "outputs": [
        {
          "name": "",
          "type": "uint256"
        }
      ],
      "payable": false,
      "stateMutability": "view",
      "type": "function"
    },
    {
      "constant": true,
      "inputs": [
        {
          "name": "_owner",
          "type": "address"
        },
        {
          "name": "_proposalId",
          "type": "bytes32"
        }
      ],
      "name": "reputationOf",
      "outputs": [
        {
          "name": "",
          "type": "uint256"
        }
      ],
      "payable": false,
      "stateMutability": "view",
      "type": "function"
    },
    {
      "constant": true,
      "inputs": [
        {
          "name": "_stakingToken",
          "type": "address"
        },
        {
          "name": "",
          "type": "bytes32"
        }
      ],
      "name": "balanceOfStakingToken",
      "outputs": [
        {
          "name": "",
          "type": "uint256"
        }
      ],
      "payable": false,
      "stateMutability": "view",
      "type": "function"
    }
  ],
  "bytecode": "0x608060405234801561001057600080fd5b50604051604080610c288339810180604052604081101561003057600080fd5b50805160209091015160008054600160a060020a0319163317808255604051600160a060020a03919091169190600080516020610c08833981519152908290a360018054600160a060020a03808516600160a060020a03199283161790925560028054928416929091169190911790556100b2816401000000006100b9810204565b5050610159565b6100ca6401000000006100ea810204565b15156100d557600080fd5b6100e7816401000000006100fb810204565b50565b600054600160a060020a0316331490565b600160a060020a038116151561011057600080fd5b60008054604051600160a060020a0380851693921691600080516020610c0883398151915291a360008054600160a060020a031916600160a060020a0392909216919091179055565b610aa0806101686000396000f3fe608060405234801561001057600080fd5b5060043610610128576000357c0100000000000000000000000000000000000000000000000000000000900480639d4c162d116100bf578063c52164c61161008e578063c52164c6146102f8578063d1c7565014610300578063d29b5d2f1461031d578063f2fde38b1461034f578063f81f8bf61461037557610128565b80639d4c162d1461024a578063abcc9cb91461026d578063b551c3731461029f578063bea75f28146102bc57610128565b8063715018a6116100fb578063715018a6146102045780638da5cb5b1461020e5780638f32d59b146102165780639588378e1461021e57610128565b80630905c9f91461012d5780634b6d4400146101835780636b8eb403146101a757806370a53748146101d3575b600080fd5b610171600480360360a081101561014357600080fd5b50803590602081013590600160a060020a0360408201358116916060810135821691608090910135166103a7565b60408051918252519081900360200190f35b61018b61046e565b60408051600160a060020a039092168252519081900360200190f35b610171600480360360408110156101bd57600080fd5b50600160a060020a03813516906020013561047d565b6101f0600480360360208110156101e957600080fd5b5035610513565b604080519115158252519081900360200190f35b61020c610527565b005b61018b610591565b6101f06105a0565b6101716004803603604081101561023457600080fd5b50600160a060020a0381351690602001356105b1565b6101f06004803603604081101561026057600080fd5b508035906020013561062c565b6101f06004803603606081101561028357600080fd5b50803590600160a060020a03602082013516906040013561069e565b610171600480360360208110156102b557600080fd5b5035610744565b6101f0600480360360808110156102d257600080fd5b50600160a060020a038135811691602081013590911690604081013590606001356107e9565b61018b6108af565b6101716004803603602081101561031657600080fd5b50356108be565b6101f06004803603606081101561033357600080fd5b50803590600160a060020a0360208201351690604001356108d0565b61020c6004803603602081101561036557600080fd5b5035600160a060020a0316610954565b6101f06004803603606081101561038b57600080fd5b50803590600160a060020a036020820135169060400135610973565b600254604080517f88737b5e0000000000000000000000000000000000000000000000000000000081526004810188905260248101879052600160a060020a03858116604483015284811660648301529151600093849316916388737b5e91608480830192602092919082900301818787803b15801561042657600080fd5b505af115801561043a573d6000803e3d6000fd5b505050506040513d602081101561045057600080fd5b50516000818152600360205260409020439055979650505050505050565b600254600160a060020a031681565b604080517f70a082310000000000000000000000000000000000000000000000000000000081523060048201529051600091600160a060020a038516916370a0823191602480820192602092909190829003018186803b1580156104e057600080fd5b505afa1580156104f4573d6000803e3d6000fd5b505050506040513d602081101561050a57600080fd5b50519392505050565b600090815260036020526040812043905590565b61052f6105a0565b151561053a57600080fd5b60008054604051600160a060020a03909116907f8be0079c531659141344cd1fd0a4f28419497f9722a3daafe3b4186f6b6457e0908390a36000805473ffffffffffffffffffffffffffffffffffffffff19169055565b600054600160a060020a031690565b600054600160a060020a0316331490565b60015460008281526003602090815260408083205481517f4ee2cd7e000000000000000000000000000000000000000000000000000000008152600160a060020a0388811660048301526024820192909252915193941692634ee2cd7e92604480840193919291829003018186803b1580156104e057600080fd5b6040805183815290516000917e9fd52f05c0ded31d6fb0ee580b923f85e99cf1a5a1da342f25e73c45829c83919081900360200190a16040805183815290517f1aa4309bfd99af8afa7454590e1bdaa5a9b3b63e5baa109ae9afa3ecd0c67f399181900360200190a150600192915050565b600154604080517f9dc29fac000000000000000000000000000000000000000000000000000000008152600160a060020a0385811660048301526024820187905291516000939290921691639dc29fac9160448082019260209290919082900301818787803b15801561071057600080fd5b505af1158015610724573d6000803e3d6000fd5b505050506040513d602081101561073a57600080fd5b5051949350505050565b60015460008281526003602090815260408083205481517f981b24d0000000000000000000000000000000000000000000000000000000008152600481019190915290519293600160a060020a03169263981b24d092602480840193919291829003018186803b1580156107b757600080fd5b505afa1580156107cb573d6000803e3d6000fd5b505050506040513d60208110156107e157600080fd5b505192915050565b60006107f36105a0565b15156107fe57600080fd5b84600160a060020a031663a9059cbb85856040518363ffffffff167c01000000000000000000000000000000000000000000000000000000000281526004018083600160a060020a0316600160a060020a0316815260200182815260200192505050602060405180830381600087803b15801561087a57600080fd5b505af115801561088e573d6000803e3d6000fd5b505050506040513d60208110156108a457600080fd5b505195945050505050565b600154600160a060020a031681565b60036020526000908152604090205481565b60006108da6105a0565b15156108e557600080fd5b600154604080517f40c10f19000000000000000000000000000000000000000000000000000000008152600160a060020a03868116600483015260248201889052915191909216916340c10f199160448083019260209291908290030181600087803b15801561071057600080fd5b61095c6105a0565b151561096757600080fd5b610970816109f7565b50565b600061097d6105a0565b151561098857600080fd5b600154604080517f9dc29fac000000000000000000000000000000000000000000000000000000008152600160a060020a0386811660048301526024820188905291519190921691639dc29fac9160448083019260209291908290030181600087803b15801561071057600080fd5b600160a060020a0381161515610a0c57600080fd5b60008054604051600160a060020a03808516939216917f8be0079c531659141344cd1fd0a4f28419497f9722a3daafe3b4186f6b6457e091a36000805473ffffffffffffffffffffffffffffffffffffffff1916600160a060020a039290921691909117905556fea165627a7a72305820bdbd839474a6428fcf7b08ca2f93847705be6cf5ff7dc840887548c0e0be84a700298be0079c531659141344cd1fd0a4f28419497f9722a3daafe3b4186f6b6457e0",
  "source": "pragma solidity ^0.5.4;\n\nimport \"../votingMachines/ProposalExecuteInterface.sol\";\nimport \"../votingMachines/VotingMachineCallbacksInterface.sol\";\nimport \"openzeppelin-solidity/contracts/ownership/Ownable.sol\";\nimport \"./Debug.sol\";\nimport \"../Reputation.sol\";\nimport \"../votingMachines/AbsoluteVote.sol\";\n\n\ncontract AbsoluteVoteExecuteMock is Debug, VotingMachineCallbacksInterface, ProposalExecuteInterface, Ownable {\n\n    Reputation public reputation;\n    AbsoluteVote public absoluteVote;\n    mapping (bytes32=>uint) public proposalsBlockNumbers;\n\n    event NewProposal(\n        bytes32 indexed _proposalId,\n        address indexed _organization,\n        uint256 _numOfChoices,\n        address _proposer,\n        bytes32 _paramsHash\n    );\n\n    /**\n     * @dev Constructor\n     */\n    constructor(Reputation _reputation, AbsoluteVote _absoluteVote) public {\n        reputation = _reputation;\n        absoluteVote = _absoluteVote;\n        transferOwnership(address(_absoluteVote));\n    }\n\n    function mintReputation(uint256 _amount, address _beneficiary, bytes32)\n    external\n    onlyOwner\n    returns(bool)\n    {\n        return reputation.mint(_beneficiary, _amount);\n    }\n\n    function burnReputation(uint256 _amount, address _beneficiary, bytes32)\n    external\n    onlyOwner\n    returns(bool)\n    {\n        return reputation.burn(_beneficiary, _amount);\n    }\n\n    function stakingTokenTransfer(IERC20 _stakingToken, address _beneficiary, uint256 _amount, bytes32)\n    external\n    onlyOwner\n    returns(bool)\n    {\n        return _stakingToken.transfer(_beneficiary, _amount);\n    }\n\n    function executeProposal(bytes32 _proposalId, int _decision) external returns(bool) {\n        emit LogBytes32(_proposalId);\n        emit LogInt(_decision);\n        return true;\n    }\n\n    function propose(uint256 _numOfChoices, bytes32 _paramsHash, address, address _proposer, address _organization)\n    external\n    returns\n    (bytes32)\n    {\n        bytes32 proposalId = absoluteVote.propose(_numOfChoices, _paramsHash, _proposer, _organization);\n        proposalsBlockNumbers[proposalId] = block.number;\n\n        return proposalId;\n    }\n\n    //this function is used only for testing purpose on this mock contract\n    function burnReputationTest(uint256 _amount, address _beneficiary, bytes32)\n    external\n    returns(bool)\n    {\n        return reputation.burn(_beneficiary, _amount);\n    }\n\n    function setProposal(bytes32 _proposalId) external returns(bool) {\n        proposalsBlockNumbers[_proposalId] = block.number;\n    }\n\n    function getTotalReputationSupply(bytes32 _proposalId) external view returns(uint256) {\n        return reputation.totalSupplyAt(proposalsBlockNumbers[_proposalId]);\n    }\n\n    function reputationOf(address _owner, bytes32 _proposalId) external view returns(uint256) {\n        return reputation.balanceOfAt(_owner, proposalsBlockNumbers[_proposalId]);\n    }\n\n    function balanceOfStakingToken(IERC20 _stakingToken, bytes32)\n    external\n    view\n    returns(uint256)\n    {\n        return _stakingToken.balanceOf(address(this));\n    }\n\n}\n",
  "sourcePath": "@daostack/infra/contracts/test/AbsoluteVoteExecuteMock.sol",
  "compiler": {
    "name": "solc",
    "version": "0.5.4+commit.9549d8ff.Emscripten.clang"
  },
  "schemaVersion": "3.0.9",
  "updatedAt": "2019-07-13T20:10:17.219Z",
  "devdoc": {
    "methods": {
      "constructor": {
        "details": "Constructor"
      },
      "isOwner()": {
        "return": "true if `msg.sender` is the owner of the contract."
      },
      "owner()": {
        "return": "the address of the owner."
      },
      "renounceOwnership()": {
        "details": "Allows the current owner to relinquish control of the contract."
      },
      "transferOwnership(address)": {
        "details": "Allows the current owner to transfer control of the contract to a newOwner.",
        "params": {
          "newOwner": "The address to transfer ownership to."
        }
      }
    }
  },
  "userdoc": {
    "methods": {
      "renounceOwnership()": {
        "notice": "Renouncing to ownership will leave the contract without an owner. It will not be possible to call the functions with the `onlyOwner` modifier anymore."
      }
    }
  }
}