{
  "contractName": "ExternalLocking4Reputation",
  "abi": [
    {
      "constant": true,
      "inputs": [],
      "name": "redeemEnableTime",
      "outputs": [
        {
          "name": "",
          "type": "uint256"
        }
      ],
      "payable": false,
      "stateMutability": "view",
      "type": "function"
    },
    {
      "constant": true,
      "inputs": [],
      "name": "lockingStartTime",
      "outputs": [
        {
          "name": "",
          "type": "uint256"
        }
      ],
      "payable": false,
      "stateMutability": "view",
      "type": "function"
    },
    {
      "constant": true,
      "inputs": [],
      "name": "totalLocked",
      "outputs": [
        {
          "name": "",
          "type": "uint256"
        }
      ],
      "payable": false,
      "stateMutability": "view",
      "type": "function"
    },
    {
      "constant": true,
      "inputs": [],
      "name": "avatar",
      "outputs": [
        {
          "name": "",
          "type": "address"
        }
      ],
      "payable": false,
      "stateMutability": "view",
      "type": "function"
    },
    {
      "constant": true,
      "inputs": [],
      "name": "getAgreementHash",
      "outputs": [
        {
          "name": "",
          "type": "bytes32"
        }
      ],
      "payable": false,
      "stateMutability": "view",
      "type": "function"
    },
    {
      "constant": true,
      "inputs": [
        {
          "name": "",
          "type": "address"
        }
      ],
      "name": "scores",
      "outputs": [
        {
          "name": "",
          "type": "uint256"
        }
      ],
      "payable": false,
      "stateMutability": "view",
      "type": "function"
    },
    {
      "constant": true,
      "inputs": [],
      "name": "externalLockingContract",
      "outputs": [
        {
          "name": "",
          "type": "address"
        }
      ],
      "payable": false,
      "stateMutability": "view",
      "type": "function"
    },
    {
      "constant": true,
      "inputs": [
        {
          "name": "",
          "type": "address"
        },
        {
          "name": "",
          "type": "bytes32"
        }
      ],
      "name": "lockers",
      "outputs": [
        {
          "name": "amount",
          "type": "uint256"
        },
        {
          "name": "releaseTime",
          "type": "uint256"
        }
      ],
      "payable": false,
      "stateMutability": "view",
      "type": "function"
    },
    {
      "constant": false,
      "inputs": [
        {
          "name": "_beneficiary",
          "type": "address"
        }
      ],
      "name": "redeem",
      "outputs": [
        {
          "name": "reputation",
          "type": "uint256"
        }
      ],
      "payable": false,
      "stateMutability": "nonpayable",
      "type": "function"
    },
    {
      "constant": true,
      "inputs": [],
      "name": "lockingEndTime",
      "outputs": [
        {
          "name": "",
          "type": "uint256"
        }
      ],
      "payable": false,
      "stateMutability": "view",
      "type": "function"
    },
    {
      "constant": true,
      "inputs": [],
      "name": "reputationRewardLeft",
      "outputs": [
        {
          "name": "",
          "type": "uint256"
        }
      ],
      "payable": false,
      "stateMutability": "view",
      "type": "function"
    },
    {
      "constant": true,
      "inputs": [],
      "name": "maxLockingPeriod",
      "outputs": [
        {
          "name": "",
          "type": "uint256"
        }
      ],
      "payable": false,
      "stateMutability": "view",
      "type": "function"
    },
    {
      "constant": true,
      "inputs": [],
      "name": "totalScore",
      "outputs": [
        {
          "name": "",
          "type": "uint256"
        }
      ],
      "payable": false,
      "stateMutability": "view",
      "type": "function"
    },
    {
      "constant": true,
      "inputs": [],
      "name": "lockingsCounter",
      "outputs": [
        {
          "name": "",
          "type": "uint256"
        }
      ],
      "payable": false,
      "stateMutability": "view",
      "type": "function"
    },
    {
      "constant": true,
      "inputs": [],
      "name": "totalLockedLeft",
      "outputs": [
        {
          "name": "",
          "type": "uint256"
        }
      ],
      "payable": false,
      "stateMutability": "view",
      "type": "function"
    },
    {
      "constant": true,
      "inputs": [
        {
          "name": "",
          "type": "address"
        }
      ],
      "name": "externalLockers",
      "outputs": [
        {
          "name": "",
          "type": "bool"
        }
      ],
      "payable": false,
      "stateMutability": "view",
      "type": "function"
    },
    {
      "constant": true,
      "inputs": [
        {
          "name": "",
          "type": "address"
        }
      ],
      "name": "registrar",
      "outputs": [
        {
          "name": "",
          "type": "bool"
        }
      ],
      "payable": false,
      "stateMutability": "view",
      "type": "function"
    },
    {
      "constant": true,
      "inputs": [],
      "name": "reputationReward",
      "outputs": [
        {
          "name": "",
          "type": "uint256"
        }
      ],
      "payable": false,
      "stateMutability": "view",
      "type": "function"
    },
    {
      "constant": true,
      "inputs": [],
      "name": "getBalanceFuncSignature",
      "outputs": [
        {
          "name": "",
          "type": "string"
        }
      ],
      "payable": false,
      "stateMutability": "view",
      "type": "function"
    },
    {
      "anonymous": false,
      "inputs": [
        {
          "indexed": true,
          "name": "_beneficiary",
          "type": "address"
        }
      ],
      "name": "Register",
      "type": "event"
    },
    {
      "anonymous": false,
      "inputs": [
        {
          "indexed": true,
          "name": "_beneficiary",
          "type": "address"
        },
        {
          "indexed": false,
          "name": "_amount",
          "type": "uint256"
        }
      ],
      "name": "Redeem",
      "type": "event"
    },
    {
      "anonymous": false,
      "inputs": [
        {
          "indexed": true,
          "name": "_lockingId",
          "type": "bytes32"
        },
        {
          "indexed": true,
          "name": "_beneficiary",
          "type": "address"
        },
        {
          "indexed": false,
          "name": "_amount",
          "type": "uint256"
        }
      ],
      "name": "Release",
      "type": "event"
    },
    {
      "anonymous": false,
      "inputs": [
        {
          "indexed": true,
          "name": "_locker",
          "type": "address"
        },
        {
          "indexed": true,
          "name": "_lockingId",
          "type": "bytes32"
        },
        {
          "indexed": false,
          "name": "_amount",
          "type": "uint256"
        },
        {
          "indexed": false,
          "name": "_period",
          "type": "uint256"
        }
      ],
      "name": "Lock",
      "type": "event"
    },
    {
      "constant": false,
      "inputs": [
        {
          "name": "_avatar",
          "type": "address"
        },
        {
          "name": "_reputationReward",
          "type": "uint256"
        },
        {
          "name": "_claimingStartTime",
          "type": "uint256"
        },
        {
          "name": "_claimingEndTime",
          "type": "uint256"
        },
        {
          "name": "_redeemEnableTime",
          "type": "uint256"
        },
        {
          "name": "_externalLockingContract",
          "type": "address"
        },
        {
          "name": "_getBalanceFuncSignature",
          "type": "string"
        },
        {
          "name": "_agreementHash",
          "type": "bytes32"
        }
      ],
      "name": "initialize",
      "outputs": [],
      "payable": false,
      "stateMutability": "nonpayable",
      "type": "function"
    },
    {
      "constant": false,
      "inputs": [
        {
          "name": "_beneficiary",
          "type": "address"
        },
        {
          "name": "_agreementHash",
          "type": "bytes32"
        }
      ],
      "name": "claim",
      "outputs": [
        {
          "name": "",
          "type": "bytes32"
        }
      ],
      "payable": false,
      "stateMutability": "nonpayable",
      "type": "function"
    },
    {
      "constant": false,
      "inputs": [
        {
          "name": "_agreementHash",
          "type": "bytes32"
        }
      ],
      "name": "register",
      "outputs": [],
      "payable": false,
      "stateMutability": "nonpayable",
      "type": "function"
    }
  ],
  "bytecode": "0x608060405234801561001057600080fd5b506115f9806100206000396000f3fe608060405234801561001057600080fd5b506004361061015f576000357c010000000000000000000000000000000000000000000000000000000090048063bf0df445116100d5578063dd9d2deb11610099578063dd9d2deb146102af578063e1fa8e84146102e9578063e397cb9e14610308578063ed1ff6d81461032e578063f0167cfa14610336578063f27a5505146103b35761015f565b8063bf0df44514610263578063c006719f1461026b578063c3201add14610273578063c348a24b1461027b578063c8622c24146102835761015f565b806376dd110f1161012757806376dd110f146101ba5780637f33ccac146101e057806383805742146101e857806395a2251f1461022d578063a8c3301714610253578063afe0e33c1461025b5761015f565b80633d1678f41461016457806355bfec881461017e57806356891412146101865780635aef7de61461018e578063696da921146101b2575b600080fd5b61016c610455565b60408051918252519081900360200190f35b61016c61045b565b61016c610461565b610196610467565b60408051600160a060020a039092168252519081900360200190f35b61016c610476565b61016c600480360360208110156101d057600080fd5b5035600160a060020a031661047d565b61019661048f565b610214600480360360408110156101fe57600080fd5b50600160a060020a03813516906020013561049e565b6040805192835260208301919091528051918290030190f35b61016c6004803603602081101561024357600080fd5b5035600160a060020a03166104c2565b61016c6107ba565b61016c6107c0565b61016c6107c6565b61016c6107cc565b61016c6107d2565b61016c6107d8565b61016c6004803603604081101561029957600080fd5b50600160a060020a0381351690602001356107de565b6102d5600480360360208110156102c557600080fd5b5035600160a060020a0316610b35565b604080519115158252519081900360200190f35b610306600480360360208110156102ff57600080fd5b5035610b4a565b005b6102d56004803603602081101561031e57600080fd5b5035600160a060020a0316610bd3565b61016c610be8565b61033e610bee565b6040805160208082528351818301528351919283929083019185019080838360005b83811015610378578181015183820152602001610360565b50505050905090810190601f1680156103a55780820380516001836020036101000a031916815260200191505b509250505060405180910390f35b61030660048036036101008110156103ca57600080fd5b600160a060020a03823581169260208101359260408201359260608301359260808101359260a08201359092169181019060e0810160c082013564010000000081111561041657600080fd5b82018360208201111561042857600080fd5b8035906020019184600183028401116401000000008311171561044a57600080fd5b919350915035610c7c565b600d5481565b600c5481565b60045481565b600154600160a060020a031681565b6000545b90565b60036020526000908152604090205481565b600e54600160a060020a031681565b60026020908152600092835260408084209091529082529020805460019091015482565b600d54600090421161051e576040805160e560020a62461bcd02815260206004820152601660248201527f6e6f77203e2072656465656d456e61626c6554696d6500000000000000000000604482015290519081900360640190fd5b600160a060020a0382166000908152600360205260408120541161058c576040805160e560020a62461bcd02815260206004820152601360248201527f73636f72652073686f756c64206265203e203000000000000000000000000000604482015290519081900360640190fd5b600160a060020a03821660009081526003602052604081208054908290556008549091906105c190839063ffffffff610d0d16565b90506105d860065482610d3f90919063ffffffff16565b6009549093506105ee908463ffffffff610d6316565b600955600154604080517f8da5cb5b0000000000000000000000000000000000000000000000000000000081529051600160a060020a0390921691638da5cb5b91600480820192602092909190829003018186803b15801561064f57600080fd5b505afa158015610663573d6000803e3d6000fd5b505050506040513d602081101561067957600080fd5b5051600154604080517feaf994b200000000000000000000000000000000000000000000000000000000815260048101879052600160a060020a03888116602483015292831660448201529051919092169163eaf994b29160648083019260209291908290030181600087803b1580156106f257600080fd5b505af1158015610706573d6000803e3d6000fd5b505050506040513d602081101561071c57600080fd5b50511515610774576040805160e560020a62461bcd02815260206004820152601e60248201527f6d696e742072657075746174696f6e2073686f756c6420737563636565640000604482015290519081900360640190fd5b604080518481529051600160a060020a038616917f222838db2794d11532d940e8dec38ae307ed0b63cd97c233322e221f998767a6919081900360200190a25050919050565b600a5481565b60095481565b600b5481565b60065481565b60075481565b60055481565b600154600090600160a060020a03161515610843576040805160e560020a62461bcd02815260206004820152601760248201527f73686f756c6420696e697469616c697a65206669727374000000000000000000604482015290519081900360640190fd5b6000600160a060020a038416151561085c5750336108d1565b600160a060020a03841660009081526011602052604090205460ff1615156108ce576040805160e560020a62461bcd02815260206004820152601e60248201527f62656e65666963696172792073686f756c642062652072656769737465720000604482015290519081900360640190fd5b50825b600160a060020a03811660009081526010602052604090205460ff161561092c5760405160e560020a62461bcd02815260040180806020018281038252603681526020018061153c6036913960400191505060405180910390fd5b600160a060020a03808216600081815260106020526040808220805460ff19166001908117909155600e5482516024808201969096528351808203909601865260440192839052600f80549496606096921694919390929091829184916002600019928216156101000292909201160480156109df5780601f106109bd5761010080835404028352918201916109df565b820191906000526020600020905b8154815290600101906020018083116109cb575b505060408051918290039091206020850180517bffffffffffffffffffffffffffffffffffffffffffffffffffffffff167fffffffff00000000000000000000000000000000000000000000000000000000909216919091178152905184519093508392508083835b60208310610a675780518252601f199092019160209182019101610a48565b6001836020036101000a0380198251168184511680821785525050505050509050019150506000604051808303816000865af19150503d8060008114610ac9576040519150601f19603f3d011682016040523d82523d6000602084013e610ace565b606091505b5091509150811515610b145760405160e560020a62461bcd02815260040180806020018281038252602881526020018061142e6028913960400191505060405180910390fd5b6020810151610b288160018681808b610d78565b9450505050505b92915050565b60106020526000908152604090205460ff1681565b60005481908114610b8f5760405160e560020a62461bcd0281526004018080602001828103825260288152602001806114e86028913960400191505060405180910390fd5b33600081815260116020526040808220805460ff19166001179055517feeda149c76076b34d4b9d8896c2f7efc0d33d1c7b53ea3c5db490d64613f603a9190a25050565b60116020526000908152604090205460ff1681565b60085481565b600f805460408051602060026001851615610100026000190190941693909304601f81018490048402820184019092528181529291830182828015610c745780601f10610c4957610100808354040283529160200191610c74565b820191906000526020600020905b815481529060010190602001808311610c5757829003601f168201915b505050505081565b868611610cbd5760405160e560020a62461bcd02815260040180806020018281038252603a815260200180611594603a913960400191505060405180910390fd5b600e805473ffffffffffffffffffffffffffffffffffffffff1916600160a060020a038616179055610cf1600f8484611395565b50610d02898989898960018761118a565b505050505050505050565b6000821515610d1e57506000610b2f565b828202828482811515610d2d57fe5b0414610d3857600080fd5b9392505050565b6000808211610d4d57600080fd5b60008284811515610d5a57fe5b04949350505050565b600082821115610d7257600080fd5b50900390565b6000805482908114610dbe5760405160e560020a62461bcd0281526004018080602001828103825260288152602001806114e86028913960400191505060405180910390fd5b60008811610e16576040805160e560020a62461bcd02815260206004820152601c60248201527f6c6f636b696e6720616d6f756e742073686f756c64206265203e203000000000604482015290519081900360640190fd5b600b54871115610e5a5760405160e560020a62461bcd02815260040180806020018281038252602c815260200180611510602c913960400191505060405180910390fd5b60008711610eb2576040805160e560020a62461bcd02815260206004820152601c60248201527f6c6f636b696e6720706572696f642073686f756c64206265203e203000000000604482015290519081900360640190fd5b600a54421115610ef65760405160e560020a62461bcd02815260040180806020018281038252603081526020018061147e6030913960400191505060405180910390fd5b600c54421015610f3a5760405160e560020a62461bcd0281526004018080602001828103825260288152602001806114566028913960400191505060405180910390fd5b600754604080516c010000000000000000000000003002602080830191909152603480830185905283518084039091018152605490920190925280519101209250610f8c90600163ffffffff61132616565b600755600160a060020a038616600090815260026020908152604080832085845290915290208881554288016001820155600454610fd0908a63ffffffff61132616565b600455600554610fe6908a63ffffffff61132616565b600555600061101b8661100f896110038d8f63ffffffff610d0d16565b9063ffffffff610d0d16565b9063ffffffff610d3f16565b905060008111611075576040805160e560020a62461bcd02815260206004820152601160248201527f73636f7265206d757374206d65203e2030000000000000000000000000000000604482015290519081900360640190fd5b600160a060020a03881660009081526003602052604090205461109e908263ffffffff61132616565b600160a060020a0389166000908152600360205260409020819055600854908181028115156110c957fe5b041461111f576040805160e560020a62461bcd02815260206004820152601160248201527f73636f726520697320746f6f2068696768000000000000000000000000000000604482015290519081900360640190fd5b600654611132908263ffffffff61132616565b600655604080518b8152602081018b905281518692600160a060020a038c16927fd173f98f4a2080eab40a0bff4d9a575753270cb2401c74efdec1feb0ba31b426929081900390910190a35050509695505050505050565b600154600160a060020a0316156111eb576040805160e560020a62461bcd02815260206004820152601b60248201527f63616e2062652063616c6c6564206f6e6c79206f6e652074696d650000000000604482015290519081900360640190fd5b600160a060020a038716151561124b576040805160e560020a62461bcd02815260206004820152601560248201527f6176617461722063616e6e6f74206265207a65726f0000000000000000000000604482015290519081900360640190fd5b84841161128c5760405160e560020a62461bcd02815260040180806020018281038252603a8152602001806114ae603a913960400191505060405180910390fd5b838310156112ce5760405160e560020a62461bcd0281526004018080602001828103825260228152602001806115726022913960400191505060405180910390fd5b60088690556009869055600a849055600b8290556001805473ffffffffffffffffffffffffffffffffffffffff1916600160a060020a038916179055600c859055600d83905561131d81611338565b50505050505050565b600082820183811015610d3857600080fd5b60005415611390576040805160e560020a62461bcd02815260206004820152601b60248201527f43616e206e6f74207365742061677265656d656e742074776963650000000000604482015290519081900360640190fd5b600055565b828054600181600116156101000203166002900490600052602060002090601f016020900481019282601f106113d65782800160ff19823516178555611403565b82800160010185558215611403579182015b828111156114035782358255916020019190600101906113e8565b5061140f929150611413565b5090565b61047a91905b8082111561140f576000815560010161141956fe63616c6c20746f2065787465726e616c20636f6e74726163742073686f756c6420737563636565646c6f636b2073686f756c64207374617274206166746572206c6f636b696e67537461727454696d656c6f636b2073686f756c642062652077697468696e2074686520616c6c6f776564206c6f636b696e6720706572696f646c6f636b696e6720656e642074696d652073686f756c642062652067726561746572207468616e206c6f636b696e672073746172742074696d6553656e646572206d7573742073656e64207468652072696768742061677265656d656e74486173686c6f636b696e6720706572696f642073686f756c64206265203c3d206d61784c6f636b696e67506572696f64636c61696d696e6720747769636520666f72207468652073616d652062656e6566696369617279206973206e6f7420616c6c6f77656472656465656d456e61626c6554696d65203e3d206c6f636b696e67456e6454696d655f636c61696d696e67456e6454696d652073686f756c642062652067726561746572207468616e205f636c61696d696e67537461727454696d65a165627a7a723058204b3915ab0aca85cadde5756e2dccac2eab5018f5feb43f92658bbc65c870e4b70029",
  "source": "pragma solidity ^0.5.4;\n\nimport \"./Locking4Reputation.sol\";\n\n/**\n * @title A scheme for external locking Tokens for reputation\n */\n\ncontract ExternalLocking4Reputation is Locking4Reputation {\n\n    event Register(address indexed _beneficiary);\n\n    address public externalLockingContract;\n    string public getBalanceFuncSignature;\n\n    // locker -> bool\n    mapping(address => bool) public externalLockers;\n    //      beneficiary -> bool\n    mapping(address     => bool) public registrar;\n\n    /**\n     * @dev initialize\n     * @param _avatar the avatar to mint reputation from\n     * @param _reputationReward the total reputation this contract will reward\n     *        for the token locking\n     * @param _claimingStartTime claiming starting period time.\n     * @param _claimingEndTime the claiming end time.\n     *        claiming is disable after this time.\n     * @param _redeemEnableTime redeem enable time .\n     *        redeem reputation can be done after this time.\n     * @param _externalLockingContract the contract which lock the token.\n     * @param _getBalanceFuncSignature get balance function signature\n     *        e.g \"lockedTokenBalances(address)\"\n     */\n    function initialize(\n        Avatar _avatar,\n        uint256 _reputationReward,\n        uint256 _claimingStartTime,\n        uint256 _claimingEndTime,\n        uint256 _redeemEnableTime,\n        address _externalLockingContract,\n        string calldata _getBalanceFuncSignature,\n        bytes32 _agreementHash)\n    external\n    {\n        require(_claimingEndTime > _claimingStartTime, \"_claimingEndTime should be greater than _claimingStartTime\");\n        externalLockingContract = _externalLockingContract;\n        getBalanceFuncSignature = _getBalanceFuncSignature;\n        super._initialize(\n        _avatar,\n        _reputationReward,\n        _claimingStartTime,\n        _claimingEndTime,\n        _redeemEnableTime,\n        1,\n        _agreementHash);\n    }\n\n    /**\n     * @dev claim function\n     * @param _beneficiary the beneficiary address to claim for\n     *        if _beneficiary == 0 the claim will be for the msg.sender.\n     * @return claimId\n     */\n    function claim(address _beneficiary, bytes32 _agreementHash) public returns(bytes32) {\n        require(avatar != Avatar(0), \"should initialize first\");\n        address beneficiary;\n        if (_beneficiary == address(0)) {\n            beneficiary = msg.sender;\n        } else {\n            require(registrar[_beneficiary], \"beneficiary should be register\");\n            beneficiary = _beneficiary;\n        }\n        require(externalLockers[beneficiary] == false, \"claiming twice for the same beneficiary is not allowed\");\n        externalLockers[beneficiary] = true;\n        (bool result, bytes memory returnValue) =\n        // solhint-disable-next-line avoid-call-value,avoid-low-level-calls\n        externalLockingContract.call(abi.encodeWithSignature(getBalanceFuncSignature, beneficiary));\n        require(result, \"call to external contract should succeed\");\n        uint256 lockedAmount;\n        // solhint-disable-next-line no-inline-assembly\n        assembly {\n            lockedAmount := mload(add(returnValue, 0x20))\n        }\n        return super._lock(lockedAmount, 1, beneficiary, 1, 1, _agreementHash);\n    }\n\n   /**\n    * @dev register function\n    *      register for external locking claim\n    */\n    function register(bytes32 _agreementHash) public onlyAgree(_agreementHash) {\n        registrar[msg.sender] = true;\n        emit Register(msg.sender);\n    }\n}\n",
  "sourcePath": "/Users/oren/daostack/arc/contracts/schemes/ExternalLocking4Reputation.sol",
  "compiler": {
    "name": "solc",
    "version": "0.5.4+commit.9549d8ff.Emscripten.clang"
  },
  "schemaVersion": "3.0.9",
  "updatedAt": "2019-07-13T20:10:17.123Z",
  "devdoc": {
    "methods": {
      "claim(address,bytes32)": {
        "details": "claim function",
        "params": {
          "_beneficiary": "the beneficiary address to claim for       if _beneficiary == 0 the claim will be for the msg.sender."
        },
        "return": "claimId"
      },
      "getAgreementHash()": {
        "details": "getAgreementHash",
        "return": "bytes32 agreementHash"
      },
      "initialize(address,uint256,uint256,uint256,uint256,address,string,bytes32)": {
        "details": "initialize",
        "params": {
          "_avatar": "the avatar to mint reputation from",
          "_claimingEndTime": "the claiming end time.       claiming is disable after this time.",
          "_claimingStartTime": "claiming starting period time.",
          "_externalLockingContract": "the contract which lock the token.",
          "_getBalanceFuncSignature": "get balance function signature       e.g \"lockedTokenBalances(address)\"",
          "_redeemEnableTime": "redeem enable time .       redeem reputation can be done after this time.",
          "_reputationReward": "the total reputation this contract will reward       for the token locking"
        }
      },
      "redeem(address)": {
        "details": "redeem reputation function",
        "params": {
          "_beneficiary": "the beneficiary for the release"
        },
        "return": "uint256 reputation rewarded"
      },
      "register(bytes32)": {
        "details": "register function     register for external locking claim"
      }
    },
    "title": "A scheme for external locking Tokens for reputation"
  },
  "userdoc": {
    "methods": {}
  }
}