{
  "contractName": "Forwarder",
  "abi": [
    {
      "constant": true,
      "inputs": [],
      "name": "avatar",
      "outputs": [
        {
          "name": "",
          "type": "address"
        }
      ],
      "payable": false,
      "stateMutability": "view",
      "type": "function"
    },
    {
      "constant": false,
      "inputs": [],
      "name": "renounceOwnership",
      "outputs": [],
      "payable": false,
      "stateMutability": "nonpayable",
      "type": "function"
    },
    {
      "constant": true,
      "inputs": [],
      "name": "owner",
      "outputs": [
        {
          "name": "",
          "type": "address"
        }
      ],
      "payable": false,
      "stateMutability": "view",
      "type": "function"
    },
    {
      "constant": true,
      "inputs": [],
      "name": "isOwner",
      "outputs": [
        {
          "name": "",
          "type": "bool"
        }
      ],
      "payable": false,
      "stateMutability": "view",
      "type": "function"
    },
    {
      "constant": true,
      "inputs": [],
      "name": "expirationTime",
      "outputs": [
        {
          "name": "",
          "type": "uint256"
        }
      ],
      "payable": false,
      "stateMutability": "view",
      "type": "function"
    },
    {
      "constant": false,
      "inputs": [
        {
          "name": "newOwner",
          "type": "address"
        }
      ],
      "name": "transferOwnership",
      "outputs": [],
      "payable": false,
      "stateMutability": "nonpayable",
      "type": "function"
    },
    {
      "payable": false,
      "stateMutability": "nonpayable",
      "type": "fallback"
    },
    {
      "anonymous": false,
      "inputs": [
        {
          "indexed": true,
          "name": "previousOwner",
          "type": "address"
        },
        {
          "indexed": true,
          "name": "newOwner",
          "type": "address"
        }
      ],
      "name": "OwnershipTransferred",
      "type": "event"
    },
    {
      "constant": false,
      "inputs": [
        {
          "name": "_avatar",
          "type": "address"
        },
        {
          "name": "_expirationTime",
          "type": "uint256"
        }
      ],
      "name": "initialize",
      "outputs": [],
      "payable": false,
      "stateMutability": "nonpayable",
      "type": "function"
    },
    {
      "constant": false,
      "inputs": [],
      "name": "unregisterSelf",
      "outputs": [
        {
          "name": "",
          "type": "bool"
        }
      ],
      "payable": false,
      "stateMutability": "nonpayable",
      "type": "function"
    }
  ],
  "bytecode": "0x6080604081905260008054600160a060020a0319163317808255600160a060020a0316917f8be0079c531659141344cd1fd0a4f28419497f9722a3daafe3b4186f6b6457e0908290a36106d5806100576000396000f3fe608060405234801561001057600080fd5b50600436106100a5576000357c0100000000000000000000000000000000000000000000000000000000900480638f32d59b116100785780638f32d59b14610266578063cd6dc6871461026e578063da284dcc1461029a578063f2fde38b146102b4576100a5565b80635aef7de6146102145780636bafaa5914610238578063715018a6146102545780638da5cb5b1461025e575b6100ad6102da565b15156100b857600080fd5b6002544210610111576040805160e560020a62461bcd02815260206004820152601460248201527f65787069726174696f6e54696d65203e206e6f77000000000000000000000000604482015290519081900360640190fd5b600154604080517f8da5cb5b0000000000000000000000000000000000000000000000000000000081529051600092600160a060020a031691638da5cb5b916004808301926020929190829003018186803b15801561016f57600080fd5b505afa158015610183573d6000803e3d6000fd5b505050506040513d602081101561019957600080fd5b5051604051600160a060020a03909116906000903690808383808284376040519201945060009350909150508083038183865af19150503d80600081146101fc576040519150601f19603f3d011682016040523d82523d6000602084013e610201565b606091505b5050905080151561021157600080fd5b50005b61021c6102eb565b60408051600160a060020a039092168252519081900360200190f35b6102406102fa565b604080519115158252519081900360200190f35b61025c610487565b005b61021c6104f1565b6102406102da565b61025c6004803603604081101561028457600080fd5b50600160a060020a038135169060200135610500565b6102a2610607565b60408051918252519081900360200190f35b61025c600480360360208110156102ca57600080fd5b5035600160a060020a031661060d565b600054600160a060020a0316331490565b600154600160a060020a031681565b60004260025411151515610358576040805160e560020a62461bcd02815260206004820152601560248201527f65787069726174696f6e54696d65203c3d206e6f770000000000000000000000604482015290519081900360640190fd5b600160009054906101000a9004600160a060020a0316600160a060020a0316638da5cb5b6040518163ffffffff167c010000000000000000000000000000000000000000000000000000000002815260040160206040518083038186803b1580156103c257600080fd5b505afa1580156103d6573d6000803e3d6000fd5b505050506040513d60208110156103ec57600080fd5b5051600154604080517f6c525b13000000000000000000000000000000000000000000000000000000008152600160a060020a03928316600482015290519190921691636c525b139160248083019260209291908290030181600087803b15801561045657600080fd5b505af115801561046a573d6000803e3d6000fd5b505050506040513d602081101561048057600080fd5b5051905090565b61048f6102da565b151561049a57600080fd5b60008054604051600160a060020a03909116907f8be0079c531659141344cd1fd0a4f28419497f9722a3daafe3b4186f6b6457e0908390a36000805473ffffffffffffffffffffffffffffffffffffffff19169055565b600054600160a060020a031690565b6105086102da565b151561051357600080fd5b600154600160a060020a031615610574576040805160e560020a62461bcd02815260206004820152601b60248201527f63616e2062652063616c6c6564206f6e6c79206f6e652074696d650000000000604482015290519081900360640190fd5b600160a060020a03821615156105d4576040805160e560020a62461bcd02815260206004820152601560248201527f6176617461722063616e6e6f74206265207a65726f0000000000000000000000604482015290519081900360640190fd5b6001805473ffffffffffffffffffffffffffffffffffffffff1916600160a060020a039390931692909217909155600255565b60025481565b6106156102da565b151561062057600080fd5b6106298161062c565b50565b600160a060020a038116151561064157600080fd5b60008054604051600160a060020a03808516939216917f8be0079c531659141344cd1fd0a4f28419497f9722a3daafe3b4186f6b6457e091a36000805473ffffffffffffffffffffffffffffffffffffffff1916600160a060020a039290921691909117905556fea165627a7a7230582017047655fc1552fb196fff513e823ec8f97dedb59cadd578dae523dda068f8970029",
  "source": "pragma solidity ^0.5.4;\n\nimport \"../controller/ControllerInterface.sol\";\nimport \"openzeppelin-solidity/contracts/ownership/Ownable.sol\";\n\n/**\n * @title A scheme to forward a call to a dao.\n *        The scheme can unregister itself when its expirationTime reached.\n */\n\n\ncontract Forwarder is Ownable {\n\n    Avatar public avatar;\n    uint256 public expirationTime;\n\n    /**\n     * @dev forwardCall forward a call to the dao controller\n     */\n    // solhint-disable-next-line no-complex-fallback,payable-fallback\n    function () external onlyOwner {\n        // solhint-disable-next-line not-rely-on-time\n        require(expirationTime > now, \"expirationTime > now\");\n        // solhint-disable-next-line avoid-low-level-calls\n        (bool result,) = avatar.owner().call(msg.data);\n        require(result);\n    }\n\n    /**\n     * @dev initialize\n     * @param _avatar the avatar of the dao to forward the call to\n     * @param _expirationTime the expirationTime to forwardCall\n     */\n    function initialize(Avatar _avatar, uint256 _expirationTime) external onlyOwner {\n        require(avatar == Avatar(0), \"can be called only one time\");\n        require(_avatar != Avatar(0), \"avatar cannot be zero\");\n        avatar = _avatar;\n        expirationTime = _expirationTime;\n    }\n\n    /**\n     * @dev unregisterSelf function\n     * @return bool\n     */\n    function unregisterSelf() public returns(bool) {\n       // solhint-disable-next-line not-rely-on-time\n        require(expirationTime <= now, \"expirationTime <= now\");\n        return ControllerInterface(avatar.owner()).unregisterSelf(address(avatar));\n    }\n}\n",
  "sourcePath": "/Users/oren/daostack/arc/contracts/schemes/Forwarder.sol",
  "compiler": {
    "name": "solc",
    "version": "0.5.4+commit.9549d8ff.Emscripten.clang"
  },
  "schemaVersion": "3.0.9",
  "updatedAt": "2019-07-13T20:10:17.127Z",
  "devdoc": {
    "methods": {
      "initialize(address,uint256)": {
        "details": "initialize",
        "params": {
          "_avatar": "the avatar of the dao to forward the call to",
          "_expirationTime": "the expirationTime to forwardCall"
        }
      },
      "isOwner()": {
        "return": "true if `msg.sender` is the owner of the contract."
      },
      "owner()": {
        "return": "the address of the owner."
      },
      "renounceOwnership()": {
        "details": "Allows the current owner to relinquish control of the contract."
      },
      "transferOwnership(address)": {
        "details": "Allows the current owner to transfer control of the contract to a newOwner.",
        "params": {
          "newOwner": "The address to transfer ownership to."
        }
      },
      "unregisterSelf()": {
        "details": "unregisterSelf function",
        "return": "bool"
      }
    },
    "title": "A scheme to forward a call to a dao.       The scheme can unregister itself when its expirationTime reached."
  },
  "userdoc": {
    "methods": {
      "renounceOwnership()": {
        "notice": "Renouncing to ownership will leave the contract without an owner. It will not be possible to call the functions with the `onlyOwner` modifier anymore."
      }
    }
  }
}