{
  "contractName": "GenericScheme",
  "abi": [
    {
      "constant": true,
      "inputs": [
        {
          "name": "",
          "type": "bytes32"
        }
      ],
      "name": "parameters",
      "outputs": [
        {
          "name": "intVote",
          "type": "address"
        },
        {
          "name": "voteParams",
          "type": "bytes32"
        },
        {
          "name": "contractToCall",
          "type": "address"
        }
      ],
      "payable": false,
      "stateMutability": "view",
      "type": "function"
    },
    {
      "constant": true,
      "inputs": [
        {
          "name": "",
          "type": "address"
        },
        {
          "name": "",
          "type": "bytes32"
        }
      ],
      "name": "organizationsProposals",
      "outputs": [
        {
          "name": "callData",
          "type": "bytes"
        },
        {
          "name": "value",
          "type": "uint256"
        },
        {
          "name": "exist",
          "type": "bool"
        },
        {
          "name": "passed",
          "type": "bool"
        }
      ],
      "payable": false,
      "stateMutability": "view",
      "type": "function"
    },
    {
      "constant": true,
      "inputs": [
        {
          "name": "",
          "type": "address"
        },
        {
          "name": "",
          "type": "bytes32"
        }
      ],
      "name": "proposalsInfo",
      "outputs": [
        {
          "name": "blockNumber",
          "type": "uint256"
        },
        {
          "name": "avatar",
          "type": "address"
        }
      ],
      "payable": false,
      "stateMutability": "view",
      "type": "function"
    },
    {
      "constant": true,
      "inputs": [
        {
          "name": "_stakingToken",
          "type": "address"
        },
        {
          "name": "_proposalId",
          "type": "bytes32"
        }
      ],
      "name": "balanceOfStakingToken",
      "outputs": [
        {
          "name": "",
          "type": "uint256"
        }
      ],
      "payable": false,
      "stateMutability": "view",
      "type": "function"
    },
    {
      "constant": true,
      "inputs": [
        {
          "name": "_owner",
          "type": "address"
        },
        {
          "name": "_proposalId",
          "type": "bytes32"
        }
      ],
      "name": "reputationOf",
      "outputs": [
        {
          "name": "",
          "type": "uint256"
        }
      ],
      "payable": false,
      "stateMutability": "view",
      "type": "function"
    },
    {
      "constant": true,
      "inputs": [
        {
          "name": "_proposalId",
          "type": "bytes32"
        }
      ],
      "name": "getTotalReputationSupply",
      "outputs": [
        {
          "name": "",
          "type": "uint256"
        }
      ],
      "payable": false,
      "stateMutability": "view",
      "type": "function"
    },
    {
      "constant": false,
      "inputs": [
        {
          "name": "_stakingToken",
          "type": "address"
        },
        {
          "name": "_beneficiary",
          "type": "address"
        },
        {
          "name": "_amount",
          "type": "uint256"
        },
        {
          "name": "_proposalId",
          "type": "bytes32"
        }
      ],
      "name": "stakingTokenTransfer",
      "outputs": [
        {
          "name": "",
          "type": "bool"
        }
      ],
      "payable": false,
      "stateMutability": "nonpayable",
      "type": "function"
    },
    {
      "constant": false,
      "inputs": [
        {
          "name": "_amount",
          "type": "uint256"
        },
        {
          "name": "_beneficiary",
          "type": "address"
        },
        {
          "name": "_proposalId",
          "type": "bytes32"
        }
      ],
      "name": "mintReputation",
      "outputs": [
        {
          "name": "",
          "type": "bool"
        }
      ],
      "payable": false,
      "stateMutability": "nonpayable",
      "type": "function"
    },
    {
      "constant": false,
      "inputs": [
        {
          "name": "_amount",
          "type": "uint256"
        },
        {
          "name": "_beneficiary",
          "type": "address"
        },
        {
          "name": "_proposalId",
          "type": "bytes32"
        }
      ],
      "name": "burnReputation",
      "outputs": [
        {
          "name": "",
          "type": "bool"
        }
      ],
      "payable": false,
      "stateMutability": "nonpayable",
      "type": "function"
    },
    {
      "anonymous": false,
      "inputs": [
        {
          "indexed": true,
          "name": "_avatar",
          "type": "address"
        },
        {
          "indexed": true,
          "name": "_proposalId",
          "type": "bytes32"
        },
        {
          "indexed": false,
          "name": "_callData",
          "type": "bytes"
        },
        {
          "indexed": false,
          "name": "_value",
          "type": "uint256"
        },
        {
          "indexed": false,
          "name": "_descriptionHash",
          "type": "string"
        }
      ],
      "name": "NewCallProposal",
      "type": "event"
    },
    {
      "anonymous": false,
      "inputs": [
        {
          "indexed": true,
          "name": "_avatar",
          "type": "address"
        },
        {
          "indexed": true,
          "name": "_proposalId",
          "type": "bytes32"
        },
        {
          "indexed": false,
          "name": "_genericCallReturnValue",
          "type": "bytes"
        }
      ],
      "name": "ProposalExecuted",
      "type": "event"
    },
    {
      "anonymous": false,
      "inputs": [
        {
          "indexed": true,
          "name": "_avatar",
          "type": "address"
        },
        {
          "indexed": true,
          "name": "_proposalId",
          "type": "bytes32"
        },
        {
          "indexed": false,
          "name": "_param",
          "type": "int256"
        }
      ],
      "name": "ProposalExecutedByVotingMachine",
      "type": "event"
    },
    {
      "anonymous": false,
      "inputs": [
        {
          "indexed": true,
          "name": "_avatar",
          "type": "address"
        },
        {
          "indexed": true,
          "name": "_proposalId",
          "type": "bytes32"
        }
      ],
      "name": "ProposalDeleted",
      "type": "event"
    },
    {
      "constant": false,
      "inputs": [
        {
          "name": "_proposalId",
          "type": "bytes32"
        },
        {
          "name": "_decision",
          "type": "int256"
        }
      ],
      "name": "executeProposal",
      "outputs": [
        {
          "name": "",
          "type": "bool"
        }
      ],
      "payable": false,
      "stateMutability": "nonpayable",
      "type": "function"
    },
    {
      "constant": false,
      "inputs": [
        {
          "name": "_avatar",
          "type": "address"
        },
        {
          "name": "_proposalId",
          "type": "bytes32"
        }
      ],
      "name": "execute",
      "outputs": [],
      "payable": false,
      "stateMutability": "nonpayable",
      "type": "function"
    },
    {
      "constant": false,
      "inputs": [
        {
          "name": "_voteParams",
          "type": "bytes32"
        },
        {
          "name": "_intVote",
          "type": "address"
        },
        {
          "name": "_contractToCall",
          "type": "address"
        }
      ],
      "name": "setParameters",
      "outputs": [
        {
          "name": "",
          "type": "bytes32"
        }
      ],
      "payable": false,
      "stateMutability": "nonpayable",
      "type": "function"
    },
    {
      "constant": true,
      "inputs": [
        {
          "name": "_voteParams",
          "type": "bytes32"
        },
        {
          "name": "_intVote",
          "type": "address"
        },
        {
          "name": "_contractToCall",
          "type": "address"
        }
      ],
      "name": "getParametersHash",
      "outputs": [
        {
          "name": "",
          "type": "bytes32"
        }
      ],
      "payable": false,
      "stateMutability": "pure",
      "type": "function"
    },
    {
      "constant": false,
      "inputs": [
        {
          "name": "_avatar",
          "type": "address"
        },
        {
          "name": "_callData",
          "type": "bytes"
        },
        {
          "name": "_value",
          "type": "uint256"
        },
        {
          "name": "_descriptionHash",
          "type": "string"
        }
      ],
      "name": "proposeCall",
      "outputs": [
        {
          "name": "",
          "type": "bytes32"
        }
      ],
      "payable": false,
      "stateMutability": "nonpayable",
      "type": "function"
    },
    {
      "constant": true,
      "inputs": [
        {
          "name": "_avatar",
          "type": "address"
        }
      ],
      "name": "getContractToCall",
      "outputs": [
        {
          "name": "",
          "type": "address"
        }
      ],
      "payable": false,
      "stateMutability": "view",
      "type": "function"
    }
  ],
  "bytecode": "0x608060405234801561001057600080fd5b50611ddd806100206000396000f3fe608060405234801561001057600080fd5b50600436106100f95760003560e060020a9004806388b266671161009b578063b551c3731161006a578063b551c37314610512578063bea75f281461052f578063d29b5d2f1461056b578063f81f8bf61461059d576100f9565b806388b266671461043f5780639588378e146104815780639d4c162d146104ad5780639edd8c74146104e4576100f9565b806335a05133116100d757806335a051331461035e57806348ffbfeb1461039257806360bdbb3f146103c65780636b8eb40314610413576100f9565b806302506804146100fe57806306e3a9781461014657806320160d7e14610207575b600080fd5b61011b6004803603602081101561011457600080fd5b50356105cf565b60408051600160a060020a039485168152602081019390935292168183015290519081900360600190f35b6101726004803603604081101561015c57600080fd5b50600160a060020a0381351690602001356105fc565b60405180806020018581526020018415151515815260200183151515158152602001828103825286818151815260200191508051906020019080838360005b838110156101c95781810151838201526020016101b1565b50505050905090810190601f1680156101f65780820380516001836020036101000a031916815260200191505b509550505050505060405180910390f35b61034c6004803603608081101561021d57600080fd5b600160a060020a03823516919081019060408101602082013564010000000081111561024857600080fd5b82018360208201111561025a57600080fd5b8035906020019184600183028401116401000000008311171561027c57600080fd5b91908080601f016020809104026020016040519081016040528093929190818152602001838380828437600092019190915250929584359590949093506040810192506020013590506401000000008111156102d757600080fd5b8201836020820111156102e957600080fd5b8035906020019184600183028401116401000000008311171561030b57600080fd5b91908080601f0160208091040260200160405190810160405280939291908181526020018383808284376000920191909152509295506106bb945050505050565b60408051918252519081900360200190f35b61034c6004803603606081101561037457600080fd5b50803590600160a060020a03602082013581169160400135166109c9565b61034c600480360360608110156103a857600080fd5b50803590600160a060020a0360208201358116916040013516610a1a565b6103f2600480360360408110156103dc57600080fd5b50600160a060020a038135169060200135610a82565b60408051928352600160a060020a0390911660208301528051918290030190f35b61034c6004803603604081101561042957600080fd5b50600160a060020a038135169060200135610aac565b6104656004803603602081101561045557600080fd5b5035600160a060020a0316610b71565b60408051600160a060020a039092168252519081900360200190f35b61034c6004803603604081101561049757600080fd5b50600160a060020a038135169060200135610ba5565b6104d0600480360360408110156104c357600080fd5b5080359060200135610cd1565b604080519115158252519081900360200190f35b610510600480360360408110156104fa57600080fd5b50600160a060020a038135169060200135610f25565b005b61034c6004803603602081101561052857600080fd5b50356113b4565b6104d06004803603608081101561054557600080fd5b50600160a060020a0381358116916020810135909116906040810135906060013561150a565b6104d06004803603606081101561058157600080fd5b50803590600160a060020a0360208201351690604001356116c8565b6104d0600480360360608110156105b357600080fd5b50803590600160a060020a03602082013516906040013561187d565b6002602081905260009182526040909120805460018201549190920154600160a060020a03928316921683565b600160208181526000938452604080852082529284529282902080548351600293821615610100026000190190911692909204601f810185900485028301850190935282825292909183918301828280156106985780601f1061066d57610100808354040283529160200191610698565b820191906000526020600020905b81548152906001019060200180831161067b57829003601f168201915b50505050600183015460029093015491929160ff80821692506101009091041684565b60006106c5611c52565b600260006106d2886119fa565b81526020808201929092526040908101600090812082516060810184528154600160a060020a03908116808352600184015483880181905260029485015483168488015286517f88737b5e00000000000000000000000000000000000000000000000000000000815260048101959095526024850152336044850152908c16606484015293519095509293919284926388737b5e926084808201939182900301818787803b15801561078357600080fd5b505af1158015610797573d6000803e3d6000fd5b505050506040513d60208110156107ad57600080fd5b50516040805160808101825289815260208181018a90526001828401819052600060608401819052600160a060020a038e1681529082528381208582528252929092208151805194955091939092610809928492910190611c72565b506020828101516001838101919091556040808501516002909401805460609687015160ff199091169515159590951761ff001916610100951515959095029490941790935582518084018452438152600160a060020a038d81168285018181528a51831660009081528087528781208a8252875287812094518555905193909401805473ffffffffffffffffffffffffffffffffffffffff19169390921692909217905583518084018c90528581528c51958101959095528b51869591947f36418f82d814fb021ca04ebdc2c4a3cd69f719851f597c489bca2ed245e8c8ad948e948e948e949093849390840192608085019291890191908190849084905b83811015610921578181015183820152602001610909565b50505050905090810190601f16801561094e5780820380516001836020036101000a031916815260200191505b50838103825284518152845160209182019186019080838360005b83811015610981578181015183820152602001610969565b50505050905090810190601f1680156109ae5780820380516001836020036101000a031916815260200191505b509550505050505060405180910390a3979650505050505050565b6040805160208082018690526c01000000000000000000000000600160a060020a03808716820284860152851602605483015282516048818403018152606890920190925280519101209392505050565b600080610a288585856109c9565b60008181526002602081905260409091206001810197909755865473ffffffffffffffffffffffffffffffffffffffff19908116600160a060020a0397881617885596018054909616939094169290921790935550919050565b600060208181529281526040808220909352908152208054600190910154600160a060020a031682565b33600090815260208181526040808320848452909152812060010154600160a060020a0316801515610ae2576000915050610b6b565b83600160a060020a03166370a08231826040518263ffffffff1660e060020a0281526004018082600160a060020a0316600160a060020a0316815260200191505060206040518083038186803b158015610b3b57600080fd5b505afa158015610b4f573d6000803e3d6000fd5b505050506040513d6020811015610b6557600080fd5b50519150505b92915050565b600060026000610b80846119fa565b8152602081019190915260400160002060020154600160a060020a031690505b919050565b6000610baf611cf0565b503360009081526020818152604080832085845282529182902082518084019093528054835260010154600160a060020a03169082018190521515610bf8576000915050610b6b565b8060200151600160a060020a03166389ae1c906040518163ffffffff1660e060020a02815260040160206040518083038186803b158015610c3857600080fd5b505afa158015610c4c573d6000803e3d6000fd5b505050506040513d6020811015610c6257600080fd5b50518151604080517f4ee2cd7e000000000000000000000000000000000000000000000000000000008152600160a060020a038881166004830152602482019390935290519190921691634ee2cd7e916044808301926020929190829003018186803b158015610b3b57600080fd5b336000908152602081815260408083208584529091528120600101548390600160a060020a03161515610d3c576040805160e560020a62461bcd0281526020600482015260126024820152600080516020611d6c833981519152604482015290519081900360640190fd5b336000908152602081815260408083208784528252808320600190810154600160a060020a0316808552908352818420888552909252909120600281015460ff161515610dd3576040805160e560020a62461bcd02815260206004820152601760248201527f6d7573742062652061206c6976652070726f706f73616c000000000000000000604482015290519081900360640190fd5b6002810154610100900460ff1615610e35576040805160e560020a62461bcd02815260206004820152601460248201527f63616e6e6f742065786563757465207477696365000000000000000000000000604482015290519081900360640190fd5b8460011415610e5e5760028101805461ff001916610100179055610e598287610f25565b610ed9565b600160a060020a0382166000908152600160209081526040808320898452909152812090610e8c8282611d07565b506000600182018190556002909101805461ffff191690556040518791600160a060020a038516917f6bc0cb9e9967b59a69ace442598e1df4368d38661bd5c0800fbcbc9fe855fbbe9190a35b6040805186815290518791600160a060020a038516917f25d4c89430c1f10c60c292556941e3e624ec1ec04972a5da46cee1b352429cbe9181900360200190a350600195945050505050565b610f2d611c52565b60026000610f3a856119fa565b81526020808201929092526040908101600090812082516060810184528154600160a060020a0390811682526001808401548388015260029384015482168387015290891684528552838320878452909452919020908101549192509060ff161515610ff0576040805160e560020a62461bcd02815260206004820152601760248201527f6d7573742062652061206c6976652070726f706f73616c000000000000000000604482015290519081900360640190fd5b6002810154610100900460ff16151561103d5760405160e560020a62461bcd028152600401808060200182810382526026815260200180611d8c6026913960400191505060405180910390fd5b60028101805460ff19169055604080517f8da5cb5b00000000000000000000000000000000000000000000000000000000815290516060916000918291600160a060020a03891691638da5cb5b91600480820192602092909190829003018186803b1580156110ab57600080fd5b505afa1580156110bf573d6000803e3d6000fd5b505050506040513d60208110156110d557600080fd5b505160408681015160018781015492517fd1b7089a000000000000000000000000000000000000000000000000000000008152600160a060020a03808416600483019081528d82166044840152606483018690526080602484019081528b5460029581161561010002600019011694909404608484018190529697509087169563d1b7089a958b948f94919392909160a40190869080156111b75780601f1061118c576101008083540402835291602001916111b7565b820191906000526020600020905b81548152906001019060200180831161119a57829003601f168201915b505095505050505050600060405180830381600087803b1580156111da57600080fd5b505af11580156111ee573d6000803e3d6000fd5b505050506040513d6000823e601f3d908101601f19168201604090815281101561121757600080fd5b81516020830180519193928301929164010000000081111561123857600080fd5b8201602081018481111561124b57600080fd5b815164010000000081118282018710171561126557600080fd5b50909750939550508415925061139b91505057600160a060020a03871660009081526001602090815260408083208984529091528120906112a68282611d07565b506000600182018190556002909101805461ffff191690556040518791600160a060020a038a16917f6bc0cb9e9967b59a69ace442598e1df4368d38661bd5c0800fbcbc9fe855fbbe9190a38587600160a060020a03167f1c57c986b085f821f3126bc24b5aba57ed92fe545788a34925528295cef24015856040518080602001828103825283818151815260200191508051906020019080838360005b8381101561135c578181015183820152602001611344565b50505050905090810190601f1680156113895780820380516001836020036101000a031916815260200191505b509250505060405180910390a36113ab565b60028401805460ff191660011790555b50505050505050565b60006113be611cf0565b503360009081526020818152604080832085845282529182902082518084019093528054835260010154600160a060020a03169082018190521515611407576000915050610ba0565b8060200151600160a060020a03166389ae1c906040518163ffffffff1660e060020a02815260040160206040518083038186803b15801561144757600080fd5b505afa15801561145b573d6000803e3d6000fd5b505050506040513d602081101561147157600080fd5b50518151604080517f981b24d0000000000000000000000000000000000000000000000000000000008152600481019290925251600160a060020a039092169163981b24d091602480820192602092909190829003018186803b1580156114d757600080fd5b505afa1580156114eb573d6000803e3d6000fd5b505050506040513d602081101561150157600080fd5b50519392505050565b336000908152602081815260408083208484529091528120600101548290600160a060020a03161515611575576040805160e560020a62461bcd0281526020600482015260126024820152600080516020611d6c833981519152604482015290519081900360640190fd5b33600090815260208181526040808320868452909152902060010154600160a060020a03168015156115ab5760009250506116bf565b80600160a060020a0316638da5cb5b6040518163ffffffff1660e060020a02815260040160206040518083038186803b1580156115e757600080fd5b505afa1580156115fb573d6000803e3d6000fd5b505050506040513d602081101561161157600080fd5b5051604080517fb9a04cdd000000000000000000000000000000000000000000000000000000008152600160a060020a038a8116600483015289811660248301526044820189905284811660648301529151919092169163b9a04cdd9160848083019260209291908290030181600087803b15801561168f57600080fd5b505af11580156116a3573d6000803e3d6000fd5b505050506040513d60208110156116b957600080fd5b50519250505b50949350505050565b336000908152602081815260408083208484529091528120600101548290600160a060020a03161515611733576040805160e560020a62461bcd0281526020600482015260126024820152600080516020611d6c833981519152604482015290519081900360640190fd5b33600090815260208181526040808320868452909152902060010154600160a060020a0316801515611769576000925050611875565b80600160a060020a0316638da5cb5b6040518163ffffffff1660e060020a02815260040160206040518083038186803b1580156117a557600080fd5b505afa1580156117b9573d6000803e3d6000fd5b505050506040513d60208110156117cf57600080fd5b5051604080517feaf994b200000000000000000000000000000000000000000000000000000000815260048101899052600160a060020a03888116602483015284811660448301529151919092169163eaf994b29160648083019260209291908290030181600087803b15801561184557600080fd5b505af1158015611859573d6000803e3d6000fd5b505050506040513d602081101561186f57600080fd5b50519250505b509392505050565b336000908152602081815260408083208484529091528120600101548290600160a060020a031615156118e8576040805160e560020a62461bcd0281526020600482015260126024820152600080516020611d6c833981519152604482015290519081900360640190fd5b33600090815260208181526040808320868452909152902060010154600160a060020a031680151561191e576000925050611875565b80600160a060020a0316638da5cb5b6040518163ffffffff1660e060020a02815260040160206040518083038186803b15801561195a57600080fd5b505afa15801561196e573d6000803e3d6000fd5b505050506040513d602081101561198457600080fd5b5051604080517f6e94d27800000000000000000000000000000000000000000000000000000000815260048101899052600160a060020a038881166024830152848116604483015291519190921691636e94d2789160648083019260209291908290030181600087803b15801561184557600080fd5b600081600160a060020a0316638da5cb5b6040518163ffffffff1660e060020a02815260040160206040518083038186803b158015611a3857600080fd5b505afa158015611a4c573d6000803e3d6000fd5b505050506040513d6020811015611a6257600080fd5b5051604080517f9be2faed000000000000000000000000000000000000000000000000000000008152306004820152600160a060020a03858116602483015291519190921691639be2faed916044808301926020929190829003018186803b158015611acd57600080fd5b505afa158015611ae1573d6000803e3d6000fd5b505050506040513d6020811015611af757600080fd5b50511515611b4f576040805160e560020a62461bcd02815260206004820152601860248201527f736368656d65206973206e6f7420726567697374657265640000000000000000604482015290519081900360640190fd5b81600160a060020a0316638da5cb5b6040518163ffffffff1660e060020a02815260040160206040518083038186803b158015611b8b57600080fd5b505afa158015611b9f573d6000803e3d6000fd5b505050506040513d6020811015611bb557600080fd5b5051604080517f1c4d5608000000000000000000000000000000000000000000000000000000008152306004820152600160a060020a03858116602483015291519190921691631c4d5608916044808301926020929190829003018186803b158015611c2057600080fd5b505afa158015611c34573d6000803e3d6000fd5b505050506040513d6020811015611c4a57600080fd5b505192915050565b604080516060810182526000808252602082018190529181019190915290565b828054600181600116156101000203166002900490600052602060002090601f016020900481019282601f10611cb357805160ff1916838001178555611ce0565b82800160010185558215611ce0579182015b82811115611ce0578251825591602001919060010190611cc5565b50611cec929150611d4e565b5090565b604080518082019091526000808252602082015290565b50805460018160011615610100020316600290046000825580601f10611d2d5750611d4b565b601f016020900490600052602060002090810190611d4b9190611d4e565b50565b611d6891905b80821115611cec5760008155600101611d54565b9056fe6f6e6c7920566f74696e674d616368696e65000000000000000000000000000070726f706f73616c206d7573742070617373656420627920766f74696e67206d616368696e65a165627a7a72305820c0e2de84cb1a0e0fd3de9d5371c1974ba87dd6e6defe53a1b1cb10dc76d291650029",
  "source": "pragma solidity ^0.5.4;\n\nimport \"@daostack/infra/contracts/votingMachines/IntVoteInterface.sol\";\nimport \"@daostack/infra/contracts/votingMachines/VotingMachineCallbacksInterface.sol\";\nimport \"./UniversalScheme.sol\";\nimport \"../votingMachines/VotingMachineCallbacks.sol\";\n\n\n/**\n * @title GenericScheme.\n * @dev  A scheme for proposing and executing calls to an arbitrary function\n * on a specific contract on behalf of the organization avatar.\n */\ncontract GenericScheme is UniversalScheme, VotingMachineCallbacks, ProposalExecuteInterface {\n    event NewCallProposal(\n        address indexed _avatar,\n        bytes32 indexed _proposalId,\n        bytes   _callData,\n        uint256 _value,\n        string  _descriptionHash\n    );\n\n    event ProposalExecuted(\n        address indexed _avatar,\n        bytes32 indexed _proposalId,\n        bytes _genericCallReturnValue\n    );\n\n    event ProposalExecutedByVotingMachine(\n        address indexed _avatar,\n        bytes32 indexed _proposalId,\n        int256 _param\n    );\n\n    event ProposalDeleted(address indexed _avatar, bytes32 indexed _proposalId);\n\n    // Details of a voting proposal:\n    struct CallProposal {\n        bytes callData;\n        uint256 value;\n        bool exist;\n        bool passed;\n    }\n\n    // A mapping from the organization (Avatar) address to the saved data of the organization:\n    mapping(address=>mapping(bytes32=>CallProposal)) public organizationsProposals;\n\n    struct Parameters {\n        IntVoteInterface intVote;\n        bytes32 voteParams;\n        address contractToCall;\n    }\n\n    // A mapping from hashes to parameters (use to store a particular configuration on the controller)\n    mapping(bytes32=>Parameters) public parameters;\n\n    /**\n    * @dev execution of proposals, can only be called by the voting machine in which the vote is held.\n    * @param _proposalId the ID of the voting in the voting machine\n    * @param _decision a parameter of the voting result, 1 yes and 2 is no.\n    * @return bool success\n    */\n    function executeProposal(bytes32 _proposalId, int256 _decision)\n    external\n    onlyVotingMachine(_proposalId)\n    returns(bool) {\n        Avatar avatar = proposalsInfo[msg.sender][_proposalId].avatar;\n        CallProposal storage proposal = organizationsProposals[address(avatar)][_proposalId];\n        require(proposal.exist, \"must be a live proposal\");\n        require(proposal.passed == false, \"cannot execute twice\");\n\n        if (_decision == 1) {\n            proposal.passed = true;\n            execute(avatar, _proposalId);\n        } else {\n            delete organizationsProposals[address(avatar)][_proposalId];\n            emit ProposalDeleted(address(avatar), _proposalId);\n        }\n\n        emit ProposalExecutedByVotingMachine(address(avatar), _proposalId, _decision);\n        return true;\n    }\n\n    /**\n    * @dev execution of proposals after it has been decided by the voting machine\n    * @param _proposalId the ID of the voting in the voting machine\n    */\n    function execute(Avatar _avatar, bytes32 _proposalId) public {\n        Parameters memory params = parameters[getParametersFromController(_avatar)];\n        CallProposal storage proposal = organizationsProposals[address(_avatar)][_proposalId];\n        require(proposal.exist, \"must be a live proposal\");\n        require(proposal.passed, \"proposal must passed by voting machine\");\n        proposal.exist = false;\n        bytes memory genericCallReturnValue;\n        bool success;\n        ControllerInterface controller = ControllerInterface(_avatar.owner());\n        (success, genericCallReturnValue) =\n        controller.genericCall(params.contractToCall, proposal.callData, _avatar, proposal.value);\n        if (success) {\n            delete organizationsProposals[address(_avatar)][_proposalId];\n            emit ProposalDeleted(address(_avatar), _proposalId);\n            emit ProposalExecuted(address(_avatar), _proposalId, genericCallReturnValue);\n        } else {\n            proposal.exist = true;\n        }\n    }\n\n    /**\n    * @dev Hash the parameters, save them if necessary, and return the hash value\n    * @param _voteParams -  voting parameters\n    * @param _intVote  - voting machine contract.\n    * @return bytes32 -the parameters hash\n    */\n    function setParameters(\n        bytes32 _voteParams,\n        IntVoteInterface _intVote,\n        address _contractToCall\n    ) public returns(bytes32)\n    {\n        bytes32 paramsHash = getParametersHash(_voteParams, _intVote, _contractToCall);\n        parameters[paramsHash].voteParams = _voteParams;\n        parameters[paramsHash].intVote = _intVote;\n        parameters[paramsHash].contractToCall = _contractToCall;\n        return paramsHash;\n    }\n\n    /**\n    * @dev Hash the parameters, and return the hash value\n    * @param _voteParams -  voting parameters\n    * @param _intVote  - voting machine contract.\n    * @return bytes32 -the parameters hash\n    */\n    function getParametersHash(\n        bytes32 _voteParams,\n        IntVoteInterface _intVote,\n        address _contractToCall\n    ) public pure returns(bytes32)\n    {\n        return keccak256(abi.encodePacked(_voteParams, _intVote, _contractToCall));\n    }\n\n    /**\n    * @dev propose to call on behalf of the _avatar\n    *      The function trigger NewCallProposal event\n    * @param _avatar avatar of the organization\n    * @param _callData - The abi encode data for the call\n    * @param _value value(ETH) to transfer with the call\n    * @param _descriptionHash proposal description hash\n    * @return an id which represents the proposal\n    */\n    function proposeCall(Avatar _avatar, bytes memory _callData, uint256 _value, string memory _descriptionHash)\n    public\n    returns(bytes32)\n    {\n        Parameters memory params = parameters[getParametersFromController(_avatar)];\n        IntVoteInterface intVote = params.intVote;\n\n        bytes32 proposalId = intVote.propose(2, params.voteParams, msg.sender, address(_avatar));\n\n        organizationsProposals[address(_avatar)][proposalId] = CallProposal({\n            callData: _callData,\n            value: _value,\n            exist: true,\n            passed: false\n        });\n        proposalsInfo[address(params.intVote)][proposalId] = ProposalInfo({\n            blockNumber:block.number,\n            avatar:_avatar\n        });\n        emit NewCallProposal(address(_avatar), proposalId, _callData, _value, _descriptionHash);\n        return proposalId;\n    }\n\n    /**\n    * @dev getContractToCall return the contract this scheme is calling\n    * @param _avatar address of the organization's avatar\n    * @return address the address of the contract this scheme is calling to\n    * on behalf of the avatar\n    */\n    function getContractToCall(Avatar _avatar) public view returns(address) {\n        return parameters[getParametersFromController(_avatar)].contractToCall;\n    }\n\n}\n",
  "sourcePath": "/Users/oren/daostack/arc/contracts/universalSchemes/GenericScheme.sol",
  "compiler": {
    "name": "solc",
    "version": "0.5.4+commit.9549d8ff.Emscripten.clang"
  },
  "schemaVersion": "3.0.9",
  "updatedAt": "2019-07-13T20:10:17.176Z",
  "devdoc": {
    "details": "A scheme for proposing and executing calls to an arbitrary function on a specific contract on behalf of the organization avatar.",
    "methods": {
      "execute(address,bytes32)": {
        "details": "execution of proposals after it has been decided by the voting machine",
        "params": {
          "_proposalId": "the ID of the voting in the voting machine"
        }
      },
      "executeProposal(bytes32,int256)": {
        "details": "execution of proposals, can only be called by the voting machine in which the vote is held.",
        "params": {
          "_decision": "a parameter of the voting result, 1 yes and 2 is no.",
          "_proposalId": "the ID of the voting in the voting machine"
        },
        "return": "bool success"
      },
      "getContractToCall(address)": {
        "details": "getContractToCall return the contract this scheme is calling",
        "params": {
          "_avatar": "address of the organization's avatar"
        },
        "return": "address the address of the contract this scheme is calling to on behalf of the avatar"
      },
      "getParametersHash(bytes32,address,address)": {
        "details": "Hash the parameters, and return the hash value",
        "params": {
          "_intVote": "- voting machine contract.",
          "_voteParams": "-  voting parameters"
        },
        "return": "bytes32 -the parameters hash"
      },
      "proposeCall(address,bytes,uint256,string)": {
        "details": "propose to call on behalf of the _avatar     The function trigger NewCallProposal event",
        "params": {
          "_avatar": "avatar of the organization",
          "_callData": "- The abi encode data for the call",
          "_descriptionHash": "proposal description hash",
          "_value": "value(ETH) to transfer with the call"
        },
        "return": "an id which represents the proposal"
      },
      "setParameters(bytes32,address,address)": {
        "details": "Hash the parameters, save them if necessary, and return the hash value",
        "params": {
          "_intVote": "- voting machine contract.",
          "_voteParams": "-  voting parameters"
        },
        "return": "bytes32 -the parameters hash"
      }
    },
    "title": "GenericScheme."
  },
  "userdoc": {
    "methods": {}
  }
}