{
  "contractName": "GenesisProtocol",
  "abi": [
    {
      "constant": true,
      "inputs": [
        {
          "name": "",
          "type": "bytes32"
        }
      ],
      "name": "parameters",
      "outputs": [
        {
          "name": "queuedVoteRequiredPercentage",
          "type": "uint256"
        },
        {
          "name": "queuedVotePeriodLimit",
          "type": "uint256"
        },
        {
          "name": "boostedVotePeriodLimit",
          "type": "uint256"
        },
        {
          "name": "preBoostedVotePeriodLimit",
          "type": "uint256"
        },
        {
          "name": "thresholdConst",
          "type": "uint256"
        },
        {
          "name": "limitExponentValue",
          "type": "uint256"
        },
        {
          "name": "quietEndingPeriod",
          "type": "uint256"
        },
        {
          "name": "proposingRepReward",
          "type": "uint256"
        },
        {
          "name": "votersReputationLossRatio",
          "type": "uint256"
        },
        {
          "name": "minimumDaoBounty",
          "type": "uint256"
        },
        {
          "name": "daoBountyConst",
          "type": "uint256"
        },
        {
          "name": "activationTime",
          "type": "uint256"
        },
        {
          "name": "voteOnBehalf",
          "type": "address"
        }
      ],
      "payable": false,
      "stateMutability": "view",
      "type": "function"
    },
    {
      "constant": true,
      "inputs": [
        {
          "name": "_params",
          "type": "uint256[11]"
        },
        {
          "name": "_voteOnBehalf",
          "type": "address"
        }
      ],
      "name": "getParametersHash",
      "outputs": [
        {
          "name": "",
          "type": "bytes32"
        }
      ],
      "payable": false,
      "stateMutability": "pure",
      "type": "function"
    },
    {
      "constant": true,
      "inputs": [],
      "name": "NO",
      "outputs": [
        {
          "name": "",
          "type": "uint256"
        }
      ],
      "payable": false,
      "stateMutability": "view",
      "type": "function"
    },
    {
      "constant": true,
      "inputs": [],
      "name": "proposalsCnt",
      "outputs": [
        {
          "name": "",
          "type": "uint256"
        }
      ],
      "payable": false,
      "stateMutability": "view",
      "type": "function"
    },
    {
      "constant": true,
      "inputs": [
        {
          "name": "_paramsHash",
          "type": "bytes32"
        },
        {
          "name": "_organizationId",
          "type": "bytes32"
        }
      ],
      "name": "threshold",
      "outputs": [
        {
          "name": "",
          "type": "uint256"
        }
      ],
      "payable": false,
      "stateMutability": "view",
      "type": "function"
    },
    {
      "constant": true,
      "inputs": [],
      "name": "DELEGATION_HASH_EIP712",
      "outputs": [
        {
          "name": "",
          "type": "bytes32"
        }
      ],
      "payable": false,
      "stateMutability": "view",
      "type": "function"
    },
    {
      "constant": true,
      "inputs": [
        {
          "name": "",
          "type": "bytes32"
        }
      ],
      "name": "proposals",
      "outputs": [
        {
          "name": "organizationId",
          "type": "bytes32"
        },
        {
          "name": "callbacks",
          "type": "address"
        },
        {
          "name": "state",
          "type": "uint8"
        },
        {
          "name": "winningVote",
          "type": "uint256"
        },
        {
          "name": "proposer",
          "type": "address"
        },
        {
          "name": "currentBoostedVotePeriodLimit",
          "type": "uint256"
        },
        {
          "name": "paramsHash",
          "type": "bytes32"
        },
        {
          "name": "daoBountyRemain",
          "type": "uint256"
        },
        {
          "name": "daoBounty",
          "type": "uint256"
        },
        {
          "name": "totalStakes",
          "type": "uint256"
        },
        {
          "name": "confidenceThreshold",
          "type": "uint256"
        },
        {
          "name": "secondsFromTimeOutTillExecuteBoosted",
          "type": "uint256"
        },
        {
          "name": "daoRedeemItsWinnings",
          "type": "bool"
        }
      ],
      "payable": false,
      "stateMutability": "view",
      "type": "function"
    },
    {
      "constant": true,
      "inputs": [
        {
          "name": "_proposalId",
          "type": "bytes32"
        }
      ],
      "name": "calcExecuteCallBounty",
      "outputs": [
        {
          "name": "",
          "type": "uint256"
        }
      ],
      "payable": false,
      "stateMutability": "view",
      "type": "function"
    },
    {
      "constant": false,
      "inputs": [
        {
          "name": "_proposalId",
          "type": "bytes32"
        },
        {
          "name": "_beneficiary",
          "type": "address"
        }
      ],
      "name": "redeemDaoBounty",
      "outputs": [
        {
          "name": "redeemedAmount",
          "type": "uint256"
        },
        {
          "name": "potentialAmount",
          "type": "uint256"
        }
      ],
      "payable": false,
      "stateMutability": "nonpayable",
      "type": "function"
    },
    {
      "constant": true,
      "inputs": [],
      "name": "stakingToken",
      "outputs": [
        {
          "name": "",
          "type": "address"
        }
      ],
      "payable": false,
      "stateMutability": "view",
      "type": "function"
    },
    {
      "constant": true,
      "inputs": [
        {
          "name": "_proposalId",
          "type": "bytes32"
        }
      ],
      "name": "shouldBoost",
      "outputs": [
        {
          "name": "",
          "type": "bool"
        }
      ],
      "payable": false,
      "stateMutability": "view",
      "type": "function"
    },
    {
      "constant": false,
      "inputs": [
        {
          "name": "",
          "type": "uint256"
        },
        {
          "name": "_paramsHash",
          "type": "bytes32"
        },
        {
          "name": "_proposer",
          "type": "address"
        },
        {
          "name": "_organization",
          "type": "address"
        }
      ],
      "name": "propose",
      "outputs": [
        {
          "name": "",
          "type": "bytes32"
        }
      ],
      "payable": false,
      "stateMutability": "nonpayable",
      "type": "function"
    },
    {
      "constant": false,
      "inputs": [
        {
          "name": "_params",
          "type": "uint256[11]"
        },
        {
          "name": "_voteOnBehalf",
          "type": "address"
        }
      ],
      "name": "setParameters",
      "outputs": [
        {
          "name": "",
          "type": "bytes32"
        }
      ],
      "payable": false,
      "stateMutability": "nonpayable",
      "type": "function"
    },
    {
      "constant": true,
      "inputs": [],
      "name": "NUM_OF_CHOICES",
      "outputs": [
        {
          "name": "",
          "type": "uint256"
        }
      ],
      "payable": false,
      "stateMutability": "view",
      "type": "function"
    },
    {
      "constant": true,
      "inputs": [
        {
          "name": "",
          "type": "address"
        }
      ],
      "name": "stakesNonce",
      "outputs": [
        {
          "name": "",
          "type": "uint256"
        }
      ],
      "payable": false,
      "stateMutability": "view",
      "type": "function"
    },
    {
      "constant": true,
      "inputs": [],
      "name": "YES",
      "outputs": [
        {
          "name": "",
          "type": "uint256"
        }
      ],
      "payable": false,
      "stateMutability": "view",
      "type": "function"
    },
    {
      "constant": true,
      "inputs": [
        {
          "name": "",
          "type": "bytes32"
        }
      ],
      "name": "organizations",
      "outputs": [
        {
          "name": "",
          "type": "address"
        }
      ],
      "payable": false,
      "stateMutability": "view",
      "type": "function"
    },
    {
      "constant": true,
      "inputs": [
        {
          "name": "",
          "type": "bytes32"
        }
      ],
      "name": "averagesDownstakesOfBoosted",
      "outputs": [
        {
          "name": "",
          "type": "uint256"
        }
      ],
      "payable": false,
      "stateMutability": "view",
      "type": "function"
    },
    {
      "constant": false,
      "inputs": [
        {
          "name": "_proposalId",
          "type": "bytes32"
        }
      ],
      "name": "executeBoosted",
      "outputs": [
        {
          "name": "expirationCallBounty",
          "type": "uint256"
        }
      ],
      "payable": false,
      "stateMutability": "nonpayable",
      "type": "function"
    },
    {
      "constant": false,
      "inputs": [
        {
          "name": "_proposalId",
          "type": "bytes32"
        },
        {
          "name": "_beneficiary",
          "type": "address"
        }
      ],
      "name": "redeem",
      "outputs": [
        {
          "name": "rewards",
          "type": "uint256[3]"
        }
      ],
      "payable": false,
      "stateMutability": "nonpayable",
      "type": "function"
    },
    {
      "constant": true,
      "inputs": [
        {
          "name": "",
          "type": "bytes32"
        }
      ],
      "name": "orgBoostedProposalsCnt",
      "outputs": [
        {
          "name": "",
          "type": "uint256"
        }
      ],
      "payable": false,
      "stateMutability": "view",
      "type": "function"
    },
    {
      "inputs": [
        {
          "name": "_stakingToken",
          "type": "address"
        }
      ],
      "payable": false,
      "stateMutability": "nonpayable",
      "type": "constructor"
    },
    {
      "anonymous": false,
      "inputs": [
        {
          "indexed": true,
          "name": "_proposalId",
          "type": "bytes32"
        },
        {
          "indexed": true,
          "name": "_organization",
          "type": "address"
        },
        {
          "indexed": true,
          "name": "_staker",
          "type": "address"
        },
        {
          "indexed": false,
          "name": "_vote",
          "type": "uint256"
        },
        {
          "indexed": false,
          "name": "_amount",
          "type": "uint256"
        }
      ],
      "name": "Stake",
      "type": "event"
    },
    {
      "anonymous": false,
      "inputs": [
        {
          "indexed": true,
          "name": "_proposalId",
          "type": "bytes32"
        },
        {
          "indexed": true,
          "name": "_organization",
          "type": "address"
        },
        {
          "indexed": true,
          "name": "_beneficiary",
          "type": "address"
        },
        {
          "indexed": false,
          "name": "_amount",
          "type": "uint256"
        }
      ],
      "name": "Redeem",
      "type": "event"
    },
    {
      "anonymous": false,
      "inputs": [
        {
          "indexed": true,
          "name": "_proposalId",
          "type": "bytes32"
        },
        {
          "indexed": true,
          "name": "_organization",
          "type": "address"
        },
        {
          "indexed": true,
          "name": "_beneficiary",
          "type": "address"
        },
        {
          "indexed": false,
          "name": "_amount",
          "type": "uint256"
        }
      ],
      "name": "RedeemDaoBounty",
      "type": "event"
    },
    {
      "anonymous": false,
      "inputs": [
        {
          "indexed": true,
          "name": "_proposalId",
          "type": "bytes32"
        },
        {
          "indexed": true,
          "name": "_organization",
          "type": "address"
        },
        {
          "indexed": true,
          "name": "_beneficiary",
          "type": "address"
        },
        {
          "indexed": false,
          "name": "_amount",
          "type": "uint256"
        }
      ],
      "name": "RedeemReputation",
      "type": "event"
    },
    {
      "anonymous": false,
      "inputs": [
        {
          "indexed": true,
          "name": "_proposalId",
          "type": "bytes32"
        },
        {
          "indexed": false,
          "name": "_proposalState",
          "type": "uint8"
        }
      ],
      "name": "StateChange",
      "type": "event"
    },
    {
      "anonymous": false,
      "inputs": [
        {
          "indexed": true,
          "name": "_proposalId",
          "type": "bytes32"
        },
        {
          "indexed": false,
          "name": "_executionState",
          "type": "uint8"
        }
      ],
      "name": "GPExecuteProposal",
      "type": "event"
    },
    {
      "anonymous": false,
      "inputs": [
        {
          "indexed": true,
          "name": "_proposalId",
          "type": "bytes32"
        },
        {
          "indexed": true,
          "name": "_beneficiary",
          "type": "address"
        },
        {
          "indexed": false,
          "name": "_amount",
          "type": "uint256"
        }
      ],
      "name": "ExpirationCallBounty",
      "type": "event"
    },
    {
      "anonymous": false,
      "inputs": [
        {
          "indexed": true,
          "name": "_proposalId",
          "type": "bytes32"
        },
        {
          "indexed": false,
          "name": "_confidenceThreshold",
          "type": "uint256"
        }
      ],
      "name": "ConfidenceLevelChange",
      "type": "event"
    },
    {
      "anonymous": false,
      "inputs": [
        {
          "indexed": true,
          "name": "_proposalId",
          "type": "bytes32"
        },
        {
          "indexed": true,
          "name": "_organization",
          "type": "address"
        },
        {
          "indexed": false,
          "name": "_numOfChoices",
          "type": "uint256"
        },
        {
          "indexed": false,
          "name": "_proposer",
          "type": "address"
        },
        {
          "indexed": false,
          "name": "_paramsHash",
          "type": "bytes32"
        }
      ],
      "name": "NewProposal",
      "type": "event"
    },
    {
      "anonymous": false,
      "inputs": [
        {
          "indexed": true,
          "name": "_proposalId",
          "type": "bytes32"
        },
        {
          "indexed": true,
          "name": "_organization",
          "type": "address"
        },
        {
          "indexed": false,
          "name": "_decision",
          "type": "uint256"
        },
        {
          "indexed": false,
          "name": "_totalReputation",
          "type": "uint256"
        }
      ],
      "name": "ExecuteProposal",
      "type": "event"
    },
    {
      "anonymous": false,
      "inputs": [
        {
          "indexed": true,
          "name": "_proposalId",
          "type": "bytes32"
        },
        {
          "indexed": true,
          "name": "_organization",
          "type": "address"
        },
        {
          "indexed": true,
          "name": "_voter",
          "type": "address"
        },
        {
          "indexed": false,
          "name": "_vote",
          "type": "uint256"
        },
        {
          "indexed": false,
          "name": "_reputation",
          "type": "uint256"
        }
      ],
      "name": "VoteProposal",
      "type": "event"
    },
    {
      "anonymous": false,
      "inputs": [
        {
          "indexed": true,
          "name": "_proposalId",
          "type": "bytes32"
        },
        {
          "indexed": true,
          "name": "_organization",
          "type": "address"
        }
      ],
      "name": "CancelProposal",
      "type": "event"
    },
    {
      "anonymous": false,
      "inputs": [
        {
          "indexed": true,
          "name": "_proposalId",
          "type": "bytes32"
        },
        {
          "indexed": true,
          "name": "_organization",
          "type": "address"
        },
        {
          "indexed": true,
          "name": "_voter",
          "type": "address"
        }
      ],
      "name": "CancelVoting",
      "type": "event"
    },
    {
      "constant": false,
      "inputs": [
        {
          "name": "_proposalId",
          "type": "bytes32"
        },
        {
          "name": "_vote",
          "type": "uint256"
        },
        {
          "name": "_amount",
          "type": "uint256"
        }
      ],
      "name": "stake",
      "outputs": [
        {
          "name": "",
          "type": "bool"
        }
      ],
      "payable": false,
      "stateMutability": "nonpayable",
      "type": "function"
    },
    {
      "constant": false,
      "inputs": [
        {
          "name": "_proposalId",
          "type": "bytes32"
        },
        {
          "name": "_vote",
          "type": "uint256"
        },
        {
          "name": "_amount",
          "type": "uint256"
        },
        {
          "name": "_nonce",
          "type": "uint256"
        },
        {
          "name": "_signatureType",
          "type": "uint256"
        },
        {
          "name": "_signature",
          "type": "bytes"
        }
      ],
      "name": "stakeWithSignature",
      "outputs": [
        {
          "name": "",
          "type": "bool"
        }
      ],
      "payable": false,
      "stateMutability": "nonpayable",
      "type": "function"
    },
    {
      "constant": false,
      "inputs": [
        {
          "name": "_proposalId",
          "type": "bytes32"
        },
        {
          "name": "_vote",
          "type": "uint256"
        },
        {
          "name": "_amount",
          "type": "uint256"
        },
        {
          "name": "_voter",
          "type": "address"
        }
      ],
      "name": "vote",
      "outputs": [
        {
          "name": "",
          "type": "bool"
        }
      ],
      "payable": false,
      "stateMutability": "nonpayable",
      "type": "function"
    },
    {
      "constant": false,
      "inputs": [
        {
          "name": "_proposalId",
          "type": "bytes32"
        }
      ],
      "name": "cancelVote",
      "outputs": [],
      "payable": false,
      "stateMutability": "nonpayable",
      "type": "function"
    },
    {
      "constant": false,
      "inputs": [
        {
          "name": "_proposalId",
          "type": "bytes32"
        }
      ],
      "name": "execute",
      "outputs": [
        {
          "name": "",
          "type": "bool"
        }
      ],
      "payable": false,
      "stateMutability": "nonpayable",
      "type": "function"
    },
    {
      "constant": true,
      "inputs": [
        {
          "name": "",
          "type": "bytes32"
        }
      ],
      "name": "getNumberOfChoices",
      "outputs": [
        {
          "name": "",
          "type": "uint256"
        }
      ],
      "payable": false,
      "stateMutability": "view",
      "type": "function"
    },
    {
      "constant": true,
      "inputs": [
        {
          "name": "_proposalId",
          "type": "bytes32"
        }
      ],
      "name": "getProposalTimes",
      "outputs": [
        {
          "name": "times",
          "type": "uint256[3]"
        }
      ],
      "payable": false,
      "stateMutability": "view",
      "type": "function"
    },
    {
      "constant": true,
      "inputs": [
        {
          "name": "_proposalId",
          "type": "bytes32"
        },
        {
          "name": "_voter",
          "type": "address"
        }
      ],
      "name": "voteInfo",
      "outputs": [
        {
          "name": "",
          "type": "uint256"
        },
        {
          "name": "",
          "type": "uint256"
        }
      ],
      "payable": false,
      "stateMutability": "view",
      "type": "function"
    },
    {
      "constant": true,
      "inputs": [
        {
          "name": "_proposalId",
          "type": "bytes32"
        },
        {
          "name": "_choice",
          "type": "uint256"
        }
      ],
      "name": "voteStatus",
      "outputs": [
        {
          "name": "",
          "type": "uint256"
        }
      ],
      "payable": false,
      "stateMutability": "view",
      "type": "function"
    },
    {
      "constant": true,
      "inputs": [
        {
          "name": "_proposalId",
          "type": "bytes32"
        }
      ],
      "name": "isVotable",
      "outputs": [
        {
          "name": "",
          "type": "bool"
        }
      ],
      "payable": false,
      "stateMutability": "view",
      "type": "function"
    },
    {
      "constant": true,
      "inputs": [
        {
          "name": "_proposalId",
          "type": "bytes32"
        }
      ],
      "name": "proposalStatus",
      "outputs": [
        {
          "name": "",
          "type": "uint256"
        },
        {
          "name": "",
          "type": "uint256"
        },
        {
          "name": "",
          "type": "uint256"
        },
        {
          "name": "",
          "type": "uint256"
        }
      ],
      "payable": false,
      "stateMutability": "view",
      "type": "function"
    },
    {
      "constant": true,
      "inputs": [
        {
          "name": "_proposalId",
          "type": "bytes32"
        }
      ],
      "name": "getProposalOrganization",
      "outputs": [
        {
          "name": "",
          "type": "bytes32"
        }
      ],
      "payable": false,
      "stateMutability": "view",
      "type": "function"
    },
    {
      "constant": true,
      "inputs": [
        {
          "name": "_proposalId",
          "type": "bytes32"
        },
        {
          "name": "_staker",
          "type": "address"
        }
      ],
      "name": "getStaker",
      "outputs": [
        {
          "name": "",
          "type": "uint256"
        },
        {
          "name": "",
          "type": "uint256"
        }
      ],
      "payable": false,
      "stateMutability": "view",
      "type": "function"
    },
    {
      "constant": true,
      "inputs": [
        {
          "name": "_proposalId",
          "type": "bytes32"
        },
        {
          "name": "_vote",
          "type": "uint256"
        }
      ],
      "name": "voteStake",
      "outputs": [
        {
          "name": "",
          "type": "uint256"
        }
      ],
      "payable": false,
      "stateMutability": "view",
      "type": "function"
    },
    {
      "constant": true,
      "inputs": [
        {
          "name": "_proposalId",
          "type": "bytes32"
        }
      ],
      "name": "winningVote",
      "outputs": [
        {
          "name": "",
          "type": "uint256"
        }
      ],
      "payable": false,
      "stateMutability": "view",
      "type": "function"
    },
    {
      "constant": true,
      "inputs": [
        {
          "name": "_proposalId",
          "type": "bytes32"
        }
      ],
      "name": "state",
      "outputs": [
        {
          "name": "",
          "type": "uint8"
        }
      ],
      "payable": false,
      "stateMutability": "view",
      "type": "function"
    },
    {
      "constant": true,
      "inputs": [],
      "name": "isAbstainAllow",
      "outputs": [
        {
          "name": "",
          "type": "bool"
        }
      ],
      "payable": false,
      "stateMutability": "pure",
      "type": "function"
    },
    {
      "constant": true,
      "inputs": [],
      "name": "getAllowedRangeOfChoices",
      "outputs": [
        {
          "name": "min",
          "type": "uint256"
        },
        {
          "name": "max",
          "type": "uint256"
        }
      ],
      "payable": false,
      "stateMutability": "pure",
      "type": "function"
    },
    {
      "constant": true,
      "inputs": [
        {
          "name": "_proposalId",
          "type": "bytes32"
        }
      ],
      "name": "score",
      "outputs": [
        {
          "name": "",
          "type": "uint256"
        }
      ],
      "payable": false,
      "stateMutability": "view",
      "type": "function"
    }
  ],
  "bytecode": "0x60806040523480156200001157600080fd5b506040516020806200454b833981018060405260208110156200003357600080fd5b5051806200006373543ff227f64aa17ea132bf9886cab5db55dcaddf64010000000062004392620000b982021704565b15620000955760068054600160a060020a03191673543ff227f64aa17ea132bf9886cab5db55dcaddf179055620000b1565b60068054600160a060020a031916600160a060020a0383161790555b5050620000c1565b6000903b1190565b61447a80620000d16000396000f3fe608060405234801561001057600080fd5b5060043610610265576000357c01000000000000000000000000000000000000000000000000000000009004806372f702f311610158578063b4512913116100d5578063c8f526e811610099578063c8f526e8146108a4578063cc3bf9e9146108f9578063e5af18c514610925578063e751f27114610942578063fb6c0cbb1461095f57610265565b8063b45129131461080d578063ba51b14e14610830578063bb5a05ed1461084d578063beda80151461086a578063c08351061461088757610265565b80639525c0cc1161011c5780639525c0cc146107a35780639bc5689d14610364578063a003651d146107c2578063a05ea6e4146107df578063b2449d651461080557610265565b806372f702f3146106b957806379a1c1f6146106dd57806380f5e0a11461072057806388737b5e1461073d5780638894c41b1461077757610265565b806332ed5b12116101e65780635142bc1e116101aa5780635142bc1e1461061957806351d997b21461062157806361d585da146106295780636359036b1461066a578063707437681461069657610265565b806332ed5b121461046a578063359afa49146105185780633c13381814610550578063404748731461056d578063488c65fc1461058a57610265565b80631702ef0c1161022d5780631702ef0c146103dd57806321b4b3dc146103fa5780632d598e58146104025780632daedd521461042557806330ca0a531461046257610265565b8063025068041461026a57806307b4e1e3146102f55780630d48344214610364578063119ce91b1461036c57806316db5172146103b1575b600080fd5b6102876004803603602081101561028057600080fd5b503561097c565b604080519d8e5260208e019c909c528c8c019a909a5260608c019890985260808b019690965260a08a019490945260c089019290925260e0880152610100870152610120860152610140850152610160840152600160a060020a031661018083015251908190036101a00190f35b610352600480360361018081101561030c57600080fd5b81019080806101600190600b806020026040519081016040528092919082600b60200280828437600092019190915250919450505035600160a060020a031690506109ec565b60408051918252519081900360200190f35b610352610b09565b6103986004803603604081101561038257600080fd5b5080359060200135600160a060020a0316610b0e565b6040805192835260208301919091528051918290030190f35b610398600480360360408110156103c757600080fd5b5080359060200135600160a060020a0316610b71565b610352600480360360208110156103f357600080fd5b5035610ba2565b610352610bb4565b6103526004803603604081101561041857600080fd5b5080359060200135610bba565b61044e6004803603606081101561043b57600080fd5b5080359060208101359060400135610c07565b604080519115158252519081900360200190f35b610352610c1d565b6104876004803603602081101561048057600080fd5b5035610cfd565b604080518e8152600160a060020a038e1660208201529081018c60068111156104ac57fe5b60ff168152602081019b909b5250600160a060020a039098166040808b019190915260608a0197909752608089019590955260a088019390935260c087019190915260e08601526101008501526101208401529015156101408301525190819003610160019350915050f35b61044e6004803603608081101561052e57600080fd5b5080359060208101359060408101359060600135600160a060020a0316610d6b565b6103526004803603602081101561056657600080fd5b5035610e89565b6103526004803603602081101561058357600080fd5b5035610e9e565b61044e600480360360c08110156105a057600080fd5b8135916020810135916040820135916060810135916080820135919081019060c0810160a08201356401000000008111156105da57600080fd5b8201836020820111156105ec57600080fd5b8035906020019184600183028401116401000000008311171561060e57600080fd5b509092509050610f0e565b6103986111fb565b61044e611203565b6106466004803603602081101561063f57600080fd5b5035611209565b6040518082600681111561065657fe5b60ff16815260200191505060405180910390f35b6103986004803603604081101561068057600080fd5b5080359060200135600160a060020a0316611229565b610352600480360360408110156106ac57600080fd5b50803590602001356114d8565b6106c16114f9565b60408051600160a060020a039092168252519081900360200190f35b6106fa600480360360208110156106f357600080fd5b5035611508565b604080519485526020850193909352838301919091526060830152519081900360800190f35b61044e6004803603602081101561073657600080fd5b503561154b565b6103526004803603608081101561075357600080fd5b50803590602081013590600160a060020a0360408201358116916060013516611688565b610352600480360361018081101561078e57600080fd5b50600160a060020a0361016082013516611a9a565b6107c0600480360360208110156107b957600080fd5b5035611ee0565b005b610352600480360360208110156107d857600080fd5b5035611ef9565b610352600480360360208110156107f557600080fd5b5035600160a060020a0316611eff565b610352611f11565b6103526004803603604081101561082357600080fd5b5080359060200135611f16565b6106c16004803603602081101561084657600080fd5b5035611f37565b6103526004803603602081101561086357600080fd5b5035611f52565b6103526004803603602081101561088057600080fd5b5035611f64565b61044e6004803603602081101561089d57600080fd5b50356121d5565b6108c1600480360360208110156108ba57600080fd5b50356121e0565b6040518082606080838360005b838110156108e65781810151838201526020016108ce565b5050505090500191505060405180910390f35b6108c16004803603604081101561090f57600080fd5b5080359060200135600160a060020a031661222f565b6103526004803603602081101561093b57600080fd5b50356129fc565b61044e6004803603602081101561095857600080fd5b5035612a07565b6103526004803603602081101561097557600080fd5b5035612a2e565b600060208190529081526040902080546001820154600283015460038401546004850154600586015460068701546007880154600889015460098a0154600a8b0154600b8c0154600c909c01549a9b999a98999798969795969495939492939192909190600160a060020a03168d565b60008281602002015183600160200201518460026020020151856003602002015186600460200201518760056020020151886006602002015189600760200201518a600860200201518b600960200201518c600a6020020151604051602001808c81526020018b81526020018a81526020018981526020018881526020018781526020018681526020018581526020018481526020018381526020018281526020019b50505050505050505050505060405160208183030381529060405280519060200120826040516020018083815260200182600160a060020a0316600160a060020a03166c01000000000000000000000000028152601401925050506040516020818303038152906040528051906020012090505b92915050565b600281565b600080610b19614204565b5050506000918252600160208181526040808520600160a060020a039490941685526011909301815292829020825160608101845281548082529282015494810185905260029091015460ff16151592019190915291565b6000918252600160208181526040808520600160a060020a0394909416855260139093019052912080549101549091565b60009081526001602052604090205490565b60055481565b6000818152600260209081526040808320548584529183905282206005810154821115610be957806005015491505b6004810154610bfe908363ffffffff612a4016565b95945050505050565b6000610c1584848433612a89565b949350505050565b604080517f616464726573732047656e6573697350726f746f636f6c4164647265737300006020808301919091527f627974657333322050726f706f73616c49640000000000000000000000000000603e8301527f75696e7432353620566f7465000000000000000000000000000000000000000060508301527f75696e7432353620416d6f756e74546f5374616b650000000000000000000000605c8301527f75696e74323536204e6f6e63650000000000000000000000000000000000000060718301528251605e818403018152607e909201909252805191012081565b600160208190526000918252604090912080549181015460028201546003830154600484015460058501546006860154600787015460088801546009890154600a8a0154600e909a0154600160a060020a03808b169b60ff60a060020a909c048c169b99909116989091168d565b600084610d7781612ee3565b1515610d8257600080fd5b6000868152600160205260409020610d98614228565b5060058082015460009081526020818152604080832081516101a0810183528154815260018201549381019390935260028101549183019190915260038101546060830152600481015460808301529283015460a0820152600683015460c0820152600783015460e082015260088301546101008201526009830154610120820152600a830154610140820152600b830154610160820152600c90920154600160a060020a0316610180830181905215610e6d57610180820151600160a060020a03163314610e6657600080fd5b5084610e70565b50335b610e7c89828a8a612f56565b9998505050505050505050565b60009081526001602052604090206002015490565b6000818152600160205260408120600a01546105dc908290610ec790839063ffffffff6135ff16565b600085815260016020818152604080842092845260129092019052902054909150610c1590600a840290610f0290849063ffffffff61361516565b9063ffffffff61364016565b60008084600214156110715750604080517f616464726573732047656e6573697350726f746f636f6c4164647265737300006020808301919091527f627974657333322050726f706f73616c49640000000000000000000000000000603e8301527f75696e7432353620566f7465000000000000000000000000000000000000000060508301527f75696e7432353620416d6f756e74546f5374616b650000000000000000000000605c8301527f75696e74323536204e6f6e63650000000000000000000000000000000000000060718301528251605e818403018152607e830184528051908201206c010000000000000000000000003002609e84015260b283018c905260d283018b905260f283018a90526101128084018a90528451808503909101815261013284018552805190830120610152840191909152610172808401919091528351808403909101815261019290920190925280519101206110ce565b604080516c010000000000000000000000003002602080830191909152603482018c9052605482018b9052607482018a905260948083018a90528351808403909101815260b490920190925280519101206110cb90613664565b90505b600061111885858080601f016020809104026020016040519081016040528093929190818152602001838380828437600092019190915250869392505063ffffffff6136b5169050565b9050600160a060020a038116151561117a576040805160e560020a62461bcd02815260206004820152601a60248201527f7374616b657220616464726573732063616e6e6f742062652030000000000000604482015290519081900360640190fd5b600160a060020a038116600090815260076020526040902054871461119e57600080fd5b600160a060020a0381166000908152600760205260409020546111c890600163ffffffff61378b16565b600160a060020a0382166000908152600760205260409020556111ed8a8a8a84612a89565b9a9950505050505050505050565b600160029091565b60005b90565b6000908152600160208190526040909120015460a060020a900460ff1690565b600082815260016020526040812081906002600182015460a060020a900460ff16600681111561125557fe5b1461125f57600080fd5b6002808201546000908152601283016020908152604080832054600160a060020a0389168452601386019092528220928301549092911080156112a6575060028301548154145b80156112b6575060018360020154145b80156112c157508115155b156112df578183600701548260020154028115156112db57fe5b0493505b831580159061138d57506001830154600654604080517f6b8eb403000000000000000000000000000000000000000000000000000000008152600160a060020a039283166004820152602481018b9052905187939290921691636b8eb40391604480820192602092909190829003018186803b15801561135e57600080fd5b505afa158015611372573d6000803e3d6000fd5b505050506040513d602081101561138857600080fd5b505110155b156114ce576000600282015560068301546113ae908563ffffffff61379d16565b60068085019190915560018401549054604080517fbea75f28000000000000000000000000000000000000000000000000000000008152600160a060020a039283166004820152898316602482015260448101889052606481018b90529051919092169163bea75f289160848083019260209291908290030181600087803b15801561143957600080fd5b505af115801561144d573d6000803e3d6000fd5b505050506040513d602081101561146357600080fd5b5051151561147057600080fd5b825460009081526003602090815260409182902054825187815292519697508796600160a060020a03808b16949216928b927fb4a37163ec93e05e09b62e52f7f2ea8cfde431802edede7dfebe53d2ad969dbb929081900390910190a45b5050509250929050565b60009182526001602090815260408084209284526012909201905290205490565b600654600160a060020a031681565b6000908152600160208181526040808420838552601081018352818520546002808752838720549587526012909201909352818520549085529320549093919291565b600061155561429a565b60008381526001602081815260409283902083516101c0810185528154815292810154600160a060020a03811692840192909252919283019060a060020a900460ff1660068111156115a357fe5b60068111156115ae57fe5b815260028201546020820152600380830154600160a060020a0316604080840191909152600484015460608085019190915260058501546080850152600685015460a0850152600785015460c0850152600885015460e08501526009850154610100850152600a8501546101208501528151908101918290526101409093019291600b85019182845b815481526020019060010190808311611637575050509183525050600e919091015460ff16151560209091015260c0810151815191925061167791610bba565b611680846137b2565b119392505050565b6000838152602081905260408120600b015442116116f0576040805160e560020a62461bcd02815260206004820152600e60248201527f6e6f742061637469766520796574000000000000000000000000000000000000604482015290519081900360640190fd5b6000848152602081905260409020546032111561170c57600080fd5b600554604080516c010000000000000000000000003002602080830191909152603480830185905283518084039091018152605490920190925280519101209061175d90600163ffffffff61378b16565b60055561176861429a565b336020828101829052604080516c0100000000000000000000000093840281840152600160a060020a03888116909402603482015281516028818303018152604890910182528051908301208452600381850181905261018085015142905260008a815280845282812060029081015460a08801528a86166080880152606087015260c086018b905285518152925290205416151561187a57600160a060020a03841615156118435780516000908152600360205260409020805473ffffffffffffffffffffffffffffffffffffffff19163317905561187a565b80516000908152600360205260409020805473ffffffffffffffffffffffffffffffffffffffff1916600160a060020a0386161790555b8051600090815260046020908152604080832054898452918390528220600a01546118b191606491610f029163ffffffff61361516565b6000888152602081905260409020600901549091506118d790829063ffffffff61380716565b60e08301526000838152600160208181526040928390208551815590850151918101805473ffffffffffffffffffffffffffffffffffffffff1916600160a060020a03909316929092178083559285015185939192909160a060020a60ff02191660a060020a83600681111561194957fe5b02179055506060820151600282015560808201516003808301805473ffffffffffffffffffffffffffffffffffffffff1916600160a060020a039093169290921790915560a0830151600483015560c0830151600583015560e08301516006830155610100830151600783015561012083015160088301556101408301516009830155610160830151600a8301556101808301516119ec91600b8401919061431b565b506101a09190910151600e909101805460ff191691151591909117905560e0820151600084815260016020908152604080832060028085526012909101835281842094909455855183526003825291829020548251938452600160a060020a038a8116928501929092528383018b9052915191169185917f75b4ff136cc5de5957574c797de3334eb1c141271922b825eb071e0487ba2c5c916060908290030190a350909695505050505050565b60006064833511801590611ab057506032833510155b1515611af05760405160e560020a62461bcd0281526004018080602001828103825260298152602001806143f36029913960400191505060405180910390fd5b613e80608084013511801590611b0b57506103e86080840135115b1515611b61576040805160e560020a62461bcd02815260206004820152601e60248201527f31303030203c207468726573686f6c64436f6e7374203c3d2031363030300000604482015290519081900360640190fd5b606460e08401351115611bbe576040805160e560020a62461bcd02815260206004820181905260248201527f766f7465727352657075746174696f6e4c6f7373526174696f203c3d20313030604482015290519081900360640190fd5b60a083013560408401351015611c085760405160e560020a62461bcd02815260040180806020018281038252602b8152602001806143c8602b913960400191505060405180910390fd5b600061010084013511611c65576040805160e560020a62461bcd02815260206004820152601e60248201527f6d696e696d756d44616f426f756e74792073686f756c64206265203e20300000604482015290519081900360640190fd5b600061012084013511611cc2576040805160e560020a62461bcd02815260206004820152601c60248201527f64616f426f756e7479436f6e73742073686f756c64206265203e203000000000604482015290519081900360640190fd5b6000611cf884600b806020026040519081016040528092919082600b602002808284376000920191909152508691506109ec9050565b905060ac60026107d05b613e80811015611d4c57608087013581108015611d26575060028102608088013511155b15611d3e578183811515611d3657fe5b049250611d4c565b600190910190600202611d02565b50604080516101a0810182528735815260208089013590820152878201359181019190915260608088013590820152608080820190611dad908901357affffffffffffffffffffffffffffffffffffffffffffffffffffff166103e8613817565b815260208101849052604001876005602090810291909101358252018760066020908102919091013582520187600760209081029190910135825201876008602090810291909101358252018760096020908102919091013582520187600a602090810291909101358252600160a060020a03978816918101919091526000858152808252604090819020835181559183015160018301558201516002820155606082015160038201556080820151600482015560a0820151600582015560c0820151600682015560e0820151600782015561010082015160088201556101208201516009820155610140820151600a820155610160820151600b82015561018090910151600c909101805473ffffffffffffffffffffffffffffffffffffffff19169190961617909455509392505050565b80611eea81612ee3565b1515611ef557600080fd5b5050565b50600290565b60076020526000908152604090205481565b600181565b6000918252600160209081526040808420928452600f909201905290205490565b600360205260009081526040902054600160a060020a031681565b60046020526000908152604090205481565b60008181526001602052604081206005600182015460a060020a900460ff166006811115611f8e57fe5b1480611fb357506006600182015460a060020a900460ff166006811115611fb157fe5b145b1515611ff35760405160e560020a62461bcd02815260040180806020018281038252603381526020018061441c6033913960400191505060405180910390fd5b611ffc8361384e565b1515612052576040805160e560020a62461bcd02815260206004820152601760248201527f70726f706f73616c206e65656420746f20657870697265000000000000000000604482015290519081900360640190fd5b61207e612071600b83016001015460048401549063ffffffff61378b16565b429063ffffffff61379d16565b600a82015561208c83610e9e565b60088201549092506120a4908363ffffffff61379d16565b6008820155600654604080517fa9059cbb000000000000000000000000000000000000000000000000000000008152336004820152602481018590529051600160a060020a039092169163a9059cbb916044808201926020929091908290030181600087803b15801561211657600080fd5b505af115801561212a573d6000803e3d6000fd5b505050506040513d602081101561214057600080fd5b50511515612198576040805160e560020a62461bcd02815260206004820152601d60248201527f7472616e7366657220746f206d73672e73656e646572206661696c6564000000604482015290519081900360640190fd5b604080518381529051339185917f7468017f6ff596af88244327e88fe691ac48cc1db88b033d11c335f2c7ccdd039181900360200190a350919050565b6000610b0382612ee3565b6121e8614359565b60008281526001602052604090819020815160608101909252600b0160038282826020028201915b8154815260200190600101908083116122105750505050509050919050565b612237614359565b60008381526001602052604090206002600182015460a060020a900460ff16600681111561226157fe5b1480612285575060018082015460a060020a900460ff16600681111561228357fe5b145b15156122c55760405160e560020a62461bcd02815260040180806020018281038252602d81526020018061439b602d913960400191505060405180910390fd5b6122cd614228565b5060058082015460009081526020818152604080832081516101a081018352815481526001820154818501526002808301548285015260038301546060830152600483015460808301529582015460a0820152600682015460c0820152600782015460e082015260088201546101008201526009820154610120820152600a820154610140820152600b820154610160820152600c90910154600160a060020a0390811661018083015288168452601386018352818420948601548452601286019092528220549092916123d96123a389610e9e565b6001600090815260128801602052604080822054600283529120546123cd9163ffffffff61378b16565b9063ffffffff61379d16565b90506000836001015411156124aa5760018086015460a060020a900460ff16600681111561240357fe5b141561241557600183015486526124a2565b6002850154835414156124a25782546001141561247e57808560070154101561247957600061245186600701548361379d90919063ffffffff16565b90508261246b82866001015461361590919063ffffffff16565b81151561247457fe5b048752505b6124a2565b60018301548290612495908363ffffffff61361516565b81151561249e57fe5b0486525b600060018401555b600e85015460ff161580156124da57508454600090815260036020526040902054600160a060020a038881169116145b80156124ff575060018086015460a060020a900460ff1660068111156124fc57fe5b14155b801561250f575060028560020154145b15612562576007850154612550906123cd84612531838663ffffffff61361516565b81151561253a57fe5b048960005b60200201519063ffffffff61378b16565b8652600e8501805460ff191660011790555b600160a060020a038716600090815260118601602052604090206001810154158015906125935750600281015460ff165b156126da5760018087015460a060020a900460ff1660068111156125b357fe5b14156125eb5760646125d7866101000151836001015461361590919063ffffffff16565b8115156125e057fe5b0460208801526126d2565b8054600287015414156126d2576000600187600201541415612620575060026000908152601087016020526040902054612635565b50600160009081526010870160205260409020545b606461264f8761010001518361361590919063ffffffff16565b81151561265857fe5b6002890154600090815260108a01602052604090205460018501549290910492506126cb9161268d908463ffffffff61361516565b81151561269657fe5b0460646126b5896101000151866001015461361590919063ffffffff16565b8115156126be57fe5b049063ffffffff61378b16565b6020890152505b600060018201555b6003860154600160a060020a0389811691161480156126fd575060018660020154145b801561271557506003860154600160a060020a031615155b156127445760e0850151604088015260038601805473ffffffffffffffffffffffffffffffffffffffff191690555b8651156128af578651600887015461275b9161379d565b60088701556006548751604080517fa9059cbb000000000000000000000000000000000000000000000000000000008152600160a060020a038c8116600483015260248201939093529051919092169163a9059cbb9160448083019260209291908290030181600087803b1580156127d257600080fd5b505af11580156127e6573d6000803e3d6000fd5b505050506040513d60208110156127fc57600080fd5b50511515612854576040805160e560020a62461bcd02815260206004820152601e60248201527f7472616e7366657220746f2062656e6566696369617279206661696c65640000604482015290519081900360640190fd5b855460009081526003602090815260409182902054895183519081529251600160a060020a038c8116949216928d927f6d26871c9f457d104b2122485f659f126f7a0cf6938cf20482c03f49794a2fbf929081900390910190a45b60408701516128c09088600161253f565b156129f0576001860154600160a060020a031663d29b5d2f6128eb89600260200201518a600161253f565b8a8c6040518463ffffffff167c01000000000000000000000000000000000000000000000000000000000281526004018084815260200183600160a060020a0316600160a060020a031681526020018281526020019350505050602060405180830381600087803b15801561295f57600080fd5b505af1158015612973573d6000803e3d6000fd5b505050506040513d602081101561298957600080fd5b50508554600090815260036020526040902054600160a060020a03808a1691168a7f7419b736daacf66d5c1645948c956fca2b83be1e2e02d486d65713f289d683b86129de8b600260200201518c600161253f565b60408051918252519081900360200190a45b50505050505092915050565b6000610b03826137b2565b600081612a1381612ee3565b1515612a1e57600080fd5b612a278361384e565b9392505050565b60026020526000908152604090205481565b60008282650100000000005b8115610bfe578160011660011415612a6b57612a688184614170565b90505b6002909104908115612a8457612a818384614170565b92505b612a4c565b600060028411158015612a9c5750600084115b1515612af2576040805160e560020a62461bcd02815260206004820152601060248201527f77726f6e6720766f74652076616c756500000000000000000000000000000000604482015290519081900360640190fd5b60008311612b4a576040805160e560020a62461bcd02815260206004820152601b60248201527f7374616b696e6720616d6f756e742073686f756c64206265203e300000000000604482015290519081900360640190fd5b612b538561384e565b15612b6057506001610c15565b60008581526001602052604090206004600182015460a060020a900460ff166006811115612b8a57fe5b14158015612bb257506003600182015460a060020a900460ff166006811115612baf57fe5b14155b15612bc1576000915050610c15565b600160a060020a0383166000908152601382016020526040812060018101549091108015612bf0575080548614155b15612c0057600092505050610c15565b600654604080517f23b872dd000000000000000000000000000000000000000000000000000000008152600160a060020a038781166004830152306024830152604482018990529151889392909216916323b872dd916064808201926020929091908290030181600087803b158015612c7857600080fd5b505af1158015612c8c573d6000803e3d6000fd5b505050506040513d6020811015612ca257600080fd5b50511515612cfa576040805160e560020a62461bcd02815260206004820152601960248201527f6661696c207472616e736665722066726f6d207374616b657200000000000000604482015290519081900360640190fd5b6008830154612d0f908263ffffffff61378b16565b60088401556001820154612d29908263ffffffff61378b16565b600183018190557001000000000000000000000000000000001015612d98576040805160e560020a62461bcd02815260206004820152601a60248201527f7374616b696e6720616d6f756e7420697320746f6f2068696768000000000000604482015290519081900360640190fd5b6006830154612dbf907001000000000000000000000000000000009063ffffffff61379d16565b60088401541115612e1a576040805160e560020a62461bcd02815260206004820152601860248201527f746f74616c207374616b657320697320746f6f20686967680000000000000000604482015290519081900360640190fd5b6001871415612e3e576002820154612e38908263ffffffff61378b16565b60028301555b8682556000878152601284016020526040902054612e6390829063ffffffff61378b16565b60008881526012850160209081526040808320939093558554825260038152908290205482518a81529182018990528251600160a060020a03808a16949216928c927fd0239d7d4acf51def4507fa173be466927de5d75d8b10d840cd6994d6e10231092918290030190a4612ed78861384e565b98975050505050505050565b60008181526001602081905260408220015460a060020a900460ff166004816006811115612f0d57fe5b1480612f2457506005816006811115612f2257fe5b145b80612f3a57506006816006811115612f3857fe5b145b80612a2757506003816006811115612f4e57fe5b149392505050565b600060028311158015612f695750600083115b1515612fbf576040805160e560020a62461bcd02815260206004820152600e60248201527f30203c205f766f7465203c3d2032000000000000000000000000000000000000604482015290519081900360640190fd5b612fc88561384e565b15612fd557506001610c15565b612fdd614228565b506000858152600160208181526040808420600580820154865285845282862083516101a0810185528154815281870154818701526002820154818601526003820154606082015260048083015460808301529282015460a0820152600682015460c0820152600782015460e082015260088201546101008201526009820154610120820152600a820154610140820152600b820154610160820152600c90910154600160a060020a039081166101808301528c88528686529583015484517f9588378e0000000000000000000000000000000000000000000000000000000081528c881693810193909352602483018d905293519096929592949390921692639588378e92604480840193829003018186803b1580156130fd57600080fd5b505afa158015613111573d6000803e3d6000fd5b505050506040513d602081101561312757600080fd5b5051905060008111613183576040805160e560020a62461bcd02815260206004820152601b60248201527f5f766f746572206d75737420686176652072657075746174696f6e0000000000604482015290519081900360640190fd5b848110156131db576040805160e560020a62461bcd02815260206004820152601260248201527f72657075746174696f6e203e3d205f7265700000000000000000000000000000604482015290519081900360640190fd5b848015156131e65750805b600160a060020a038816600090815260118401602052604090206001015415613216576000945050505050610c15565b6000878152600f8401602052604090205461323890829063ffffffff61378b16565b6000888152600f850160205260408082208390556002860154825281205490899052108061329057506002808401546000908152600f8501602052604080822054928252902054148015613290575060018360020154145b156133b3576005600184015460a060020a900460ff1660068111156132b157fe5b1480156132d1575060c0840151604085015103600b840160010154420310155b806132f557506006600184015460a060020a900460ff1660068111156132f357fe5b145b156133ab576006600184015460a060020a900460ff16600681111561331657fe5b146133a45760c0840151600484015560018301805460a060020a60ff0219167406000000000000000000000000000000000000000017908190556040518a917f21aca7f0285ccddeca2935074d3e36b5ab8fea0327f84cbbf12cf1b6d1a749f99160a060020a90910460ff16908082600681111561339057fe5b60ff16815260200191505060405180910390a25b42600c8401555b600283018790555b60408051606081018252888152602081018390529081016004600186015460a060020a900460ff1660068111156133e657fe5b148061340b57506003600186015460a060020a900460ff16600681111561340957fe5b145b15159052600160a060020a0389166000908152601185016020908152604091829020835181559083015160018201559101516002909101805460ff19169115159190911790556004600184015460a060020a900460ff16600681111561346d57fe5b148061349257506003600184015460a060020a900460ff16600681111561349057fe5b145b1561359a5760008781526010840160205260409020546134b990829063ffffffff61378b16565b60008881526010850160205260408120919091556101008501516064906134e6908463ffffffff61361516565b8115156134ef57fe5b6001860154604080517ff81f8bf60000000000000000000000000000000000000000000000000000000081529390920460048401819052600160a060020a038d81166024860152604485018f9052925190945091169163f81f8bf69160648083019260209291908290030181600087803b15801561356c57600080fd5b505af1158015613580573d6000803e3d6000fd5b505050506040513d602081101561359657600080fd5b5050505b82546000908152600360209081526040918290205482518a81529182018490528251600160a060020a03808d16949216928d927f066c061a3792cb3eb64a441a928655fcbafb4a54b49725fe9cd2951df5e7189e92918290030190a4610e7c8961384e565b600081831061360e5781612a27565b5090919050565b600082151561362657506000610b03565b82820282848281151561363557fe5b0414612a2757600080fd5b600080821161364e57600080fd5b6000828481151561365b57fe5b04949350505050565b604080517f19457468657265756d205369676e6564204d6573736167653a0a333200000000602080830191909152603c8083019490945282518083039094018452605c909101909152815191012090565b600080600080845160411415156136d25760009350505050610b03565b50505060208201516040830151606084015160001a601b60ff821610156136f757601b015b8060ff16601b1415801561370f57508060ff16601c14155b156137205760009350505050610b03565b6040805160008152602080820180845289905260ff8416828401526060820186905260808201859052915160019260a0808401939192601f1981019281900390910190855afa158015613777573d6000803e3d6000fd5b505050602060405103519350505050610b03565b600082820183811015612a2757600080fd5b6000828211156137ac57600080fd5b50900390565b60008181526001602081815260408084206002855260128101909252808420549284528320549091612a27917affffffffffffffffffffffffffffffffffffffffffffffffffffff169063ffffffff61381716565b60008183101561360e5781612a27565b6000612a277affffffffffffffffffffffffffffffffffffffffffffffffffffff80851665010000000000908102918516026141e7565b60008161385a81612ee3565b151561386557600080fd5b600083815260016020526040902061387b614228565b506005808201546000908152602081815260409182902082516101a0810184528154815260018201549281019290925260028101549282019290925260038201546060820152600482015460808201529181015460a0830152600681015460c0830152600781015460e083015260088101546101008301526009810154610120830152600a810154610140830152600b810154610160830152600c0154600160a060020a031661018082015261392f61429a565b604080516101c081018252845481526001850154600160a060020a0381166020830152909185919083019060a060020a900460ff16600681111561396f57fe5b600681111561397a57fe5b815260028201546020820152600380830154600160a060020a0316604080840191909152600484015460608085019190915260058501546080850152600685015460a0850152600785015460c0850152600885015460e08501526009850154610100850152600a8501546101208501528151908101918290526101409093019291600b85019182845b815481526020019060010190808311613a03575050509183525050600e919091015460ff1615156020918201526001850154604080517fb551c373000000000000000000000000000000000000000000000000000000008152600481018b90529051939450600093600160a060020a039092169263b551c37392602480840193829003018186803b158015613a9757600080fd5b505afa158015613aab573d6000803e3d6000fd5b505050506040513d6020811015613ac157600080fd5b5051835160028601546000908152600f87016020526040812054929350606484049091029181908190841015613b71576003600189015460a060020a900460ff166006811115613b0d57fe5b1415613b1c5760019250613b4c565b6004600189015460a060020a900460ff166006811115613b3857fe5b1415613b475760039250613b4c565b600592505b6001880180546002919060a060020a60ff02191660a060020a835b0217905550613dfc565b6003600189015460a060020a900460ff166006811115613b8d57fe5b1415613c26576020870151600b890154420310613bcb5760018801805460a060020a60ff02191660a060020a17905560028089018190559250613c26565b613bdd88600501548960000154610bba565b905080613be98c6137b2565b1115613c265760018801805460a060020a60ff0219167404000000000000000000000000000000000000000017905542600d890155600988018190555b6004600189015460a060020a900460ff166006811115613c4257fe5b1415613dfc57613c5a88600501548960000154610bba565b6060880151909150600b890160020154420310613d595780613c7b8c6137b2565b1115613d355787546000908152600260205260409020546110001115613d30576001888101805460a060020a60ff0219167405000000000000000000000000000000000000000017905542600c8a01558854600090815260026020818152604080842080549095019094558b54835260048152838320548282528484205492845260128d01909152929091205491935090839003811515613d1857fe5b89546000908152600460205260409020919005830190555b613d54565b6001880180546003919060a060020a60ff02191660a060020a83613b67565b613dfc565b6000613d648c6137b2565b60098a0154909150613d7c908363ffffffff6135ff16565b8111613db05760018901805460a060020a60ff02191674030000000000000000000000000000000000000000179055613dfa565b8089600901541115613dfa57600989018290556040805183815290518d917fad767d61af51c7895fa3cc0497dde01afb610c74e55ee4d8a71fa5e3ee136d54919081900360200190a25b505b6005600189015460a060020a900460ff166006811115613e1857fe5b1480613e3d57506006600189015460a060020a900460ff166006811115613e3b57fe5b145b15613e81576004880154600c890154420310613e815760018801805460a060020a60ff02191674020000000000000000000000000000000000000000179055600492505b6000836005811115613e8f57fe5b146140ca576004836005811115613ea257fe5b1480613eb957506005836005811115613eb757fe5b145b15613f78578551600090815260026020526040902054613ee090600163ffffffff61379d16565b865160009081526002602052604080822092909255875181522054801515613f18578854600090815260046020526040812055613f76565b88546000908152600460209081526040808320546002845260128d01909252909120549093508190613f57906123cd866001850163ffffffff61361516565b811515613f6057fe5b8a54600090815260046020526040902091900490555b505b87546000908152600360209081526040918290205460028b015483519081529182018890528251600160a060020a03909116928e927f37471b9c9d295ffb1309ad070b8964700bfb7b555e8e8292d0b6cbc7dba35d10929081900390910190a38a7f46a713b994c752c68fbefa9048bec9a0010cc7d933ad95a3c3dbb25931a167e7846040518082600581111561400b57fe5b60ff16815260200191505060405180910390a260018801546002890154604080517f9d4c162d000000000000000000000000000000000000000000000000000000008152600481018f9052602481019290925251600160a060020a0390921691639d4c162d916044808201926020929091908290030181600087803b15801561409357600080fd5b505af11580156140a7573d6000803e3d6000fd5b505050506040513d60208110156140bd57600080fd5b5050600688015460078901555b600188015460a060020a900460ff1660068111156140e457fe5b866040015160068111156140f457fe5b14614151578a7f21aca7f0285ccddeca2935074d3e36b5ab8fea0327f84cbbf12cf1b6d1a749f98960010160149054906101000a900460ff166040518082600681111561413d57fe5b60ff16815260200191505060405180910390a25b600083600581111561415f57fe5b14159b9a5050505050505050505050565b600082820282848281151561418157fe5b04146141d7576040805160e560020a62461bcd02815260206004820152601560248201527f5265616c4d617468206d756c206f766572666c6f770000000000000000000000604482015290519081900360640190fd5b6501000000000090049392505050565b6000816501000000000084028115156141fc57fe5b049392505050565b60606040519081016040528060008152602001600081526020016000151581525090565b6101a0604051908101604052806000815260200160008152602001600081526020016000815260200160008152602001600081526020016000815260200160008152602001600081526020016000815260200160008152602001600081526020016000600160a060020a031681525090565b604080516102008101825260008082526020820181905290918201908152602001600081526020016000600160a060020a031681526020016000815260200160008019168152602001600081526020016000815260200160008152602001600081526020016000815260200161430e614359565b8152600060209091015290565b8260038101928215614349579160200282015b8281111561434957825182559160200191906001019061432e565b50614355929150614378565b5090565b6060604051908101604052806003906020820280388339509192915050565b61120691905b80821115614355576000815560010161437e565b6000903b119056fe50726f706f73616c2073686f756c64206265204578656375746564206f722045787069726564496e5175657565626f6f73746564566f7465506572696f644c696d6974203e3d207175696574456e64696e67506572696f643530203c3d20717565756564566f7465526571756972656450657263656e74616765203c3d2031303070726f706f73616c20737461746520696e206e6f7420426f6f73746564206e6f72205175696574456e64696e67506572696f64a165627a7a72305820b245ca9a6f2d7b8aabb67d17c023f7cb514e1c60360315fc0729c044b776d3be0029",
  "source": "pragma solidity ^0.5.4;\n\nimport \"openzeppelin-solidity/contracts/cryptography/ECDSA.sol\";\nimport \"./GenesisProtocolLogic.sol\";\n\n\n/**\n * @title GenesisProtocol implementation -an organization's voting machine scheme.\n */\ncontract GenesisProtocol is IntVoteInterface, GenesisProtocolLogic {\n    using ECDSA for bytes32;\n\n    // Digest describing the data the user signs according EIP 712.\n    // Needs to match what is passed to Metamask.\n    bytes32 public constant DELEGATION_HASH_EIP712 =\n    keccak256(abi.encodePacked(\n    \"address GenesisProtocolAddress\",\n    \"bytes32 ProposalId\",\n    \"uint256 Vote\",\n    \"uint256 AmountToStake\",\n    \"uint256 Nonce\"\n    ));\n\n    mapping(address=>uint256) public stakesNonce; //stakes Nonce\n\n    /**\n     * @dev Constructor\n     */\n    constructor(IERC20 _stakingToken)\n    public\n    // solhint-disable-next-line no-empty-blocks\n    GenesisProtocolLogic(_stakingToken) {\n    }\n\n    /**\n     * @dev staking function\n     * @param _proposalId id of the proposal\n     * @param _vote  NO(2) or YES(1).\n     * @param _amount the betting amount\n     * @return bool true - the proposal has been executed\n     *              false - otherwise.\n     */\n    function stake(bytes32 _proposalId, uint256 _vote, uint256 _amount) external returns(bool) {\n        return _stake(_proposalId, _vote, _amount, msg.sender);\n    }\n\n    /**\n     * @dev stakeWithSignature function\n     * @param _proposalId id of the proposal\n     * @param _vote  NO(2) or YES(1).\n     * @param _amount the betting amount\n     * @param _nonce nonce value ,it is part of the signature to ensure that\n              a signature can be received only once.\n     * @param _signatureType signature type\n              1 - for web3.eth.sign\n              2 - for eth_signTypedData according to EIP #712.\n     * @param _signature  - signed data by the staker\n     * @return bool true - the proposal has been executed\n     *              false - otherwise.\n     */\n    function stakeWithSignature(\n        bytes32 _proposalId,\n        uint256 _vote,\n        uint256 _amount,\n        uint256 _nonce,\n        uint256 _signatureType,\n        bytes calldata _signature\n        )\n        external\n        returns(bool)\n        {\n        // Recreate the digest the user signed\n        bytes32 delegationDigest;\n        if (_signatureType == 2) {\n            delegationDigest = keccak256(\n                abi.encodePacked(\n                    DELEGATION_HASH_EIP712, keccak256(\n                        abi.encodePacked(\n                        address(this),\n                        _proposalId,\n                        _vote,\n                        _amount,\n                        _nonce)\n                    )\n                )\n            );\n        } else {\n            delegationDigest = keccak256(\n                        abi.encodePacked(\n                        address(this),\n                        _proposalId,\n                        _vote,\n                        _amount,\n                        _nonce)\n                    ).toEthSignedMessageHash();\n        }\n        address staker = delegationDigest.recover(_signature);\n        //a garbage staker address due to wrong signature will revert due to lack of approval and funds.\n        require(staker != address(0), \"staker address cannot be 0\");\n        require(stakesNonce[staker] == _nonce);\n        stakesNonce[staker] = stakesNonce[staker].add(1);\n        return _stake(_proposalId, _vote, _amount, staker);\n    }\n\n    /**\n     * @dev voting function\n     * @param _proposalId id of the proposal\n     * @param _vote NO(2) or YES(1).\n     * @param _amount the reputation amount to vote with . if _amount == 0 it will use all voter reputation.\n     * @param _voter voter address\n     * @return bool true - the proposal has been executed\n     *              false - otherwise.\n     */\n    function vote(bytes32 _proposalId, uint256 _vote, uint256 _amount, address _voter)\n    external\n    votable(_proposalId)\n    returns(bool) {\n        Proposal storage proposal = proposals[_proposalId];\n        Parameters memory params = parameters[proposal.paramsHash];\n        address voter;\n        if (params.voteOnBehalf != address(0)) {\n            require(msg.sender == params.voteOnBehalf);\n            voter = _voter;\n        } else {\n            voter = msg.sender;\n        }\n        return internalVote(_proposalId, voter, _vote, _amount);\n    }\n\n  /**\n   * @dev Cancel the vote of the msg.sender.\n   * cancel vote is not allow in genesisProtocol so this function doing nothing.\n   * This function is here in order to comply to the IntVoteInterface .\n   */\n    function cancelVote(bytes32 _proposalId) external votable(_proposalId) {\n       //this is not allowed\n        return;\n    }\n\n    /**\n      * @dev execute check if the proposal has been decided, and if so, execute the proposal\n      * @param _proposalId the id of the proposal\n      * @return bool true - the proposal has been executed\n      *              false - otherwise.\n     */\n    function execute(bytes32 _proposalId) external votable(_proposalId) returns(bool) {\n        return _execute(_proposalId);\n    }\n\n  /**\n    * @dev getNumberOfChoices returns the number of choices possible in this proposal\n    * @return uint256 that contains number of choices\n    */\n    function getNumberOfChoices(bytes32) external view returns(uint256) {\n        return NUM_OF_CHOICES;\n    }\n\n    /**\n      * @dev getProposalTimes returns proposals times variables.\n      * @param _proposalId id of the proposal\n      * @return proposals times array\n      */\n    function getProposalTimes(bytes32 _proposalId) external view returns(uint[3] memory times) {\n        return proposals[_proposalId].times;\n    }\n\n    /**\n     * @dev voteInfo returns the vote and the amount of reputation of the user committed to this proposal\n     * @param _proposalId the ID of the proposal\n     * @param _voter the address of the voter\n     * @return uint256 vote - the voters vote\n     *        uint256 reputation - amount of reputation committed by _voter to _proposalId\n     */\n    function voteInfo(bytes32 _proposalId, address _voter) external view returns(uint, uint) {\n        Voter memory voter = proposals[_proposalId].voters[_voter];\n        return (voter.vote, voter.reputation);\n    }\n\n    /**\n    * @dev voteStatus returns the reputation voted for a proposal for a specific voting choice.\n    * @param _proposalId the ID of the proposal\n    * @param _choice the index in the\n    * @return voted reputation for the given choice\n    */\n    function voteStatus(bytes32 _proposalId, uint256 _choice) external view returns(uint256) {\n        return proposals[_proposalId].votes[_choice];\n    }\n\n    /**\n    * @dev isVotable check if the proposal is votable\n    * @param _proposalId the ID of the proposal\n    * @return bool true or false\n    */\n    function isVotable(bytes32 _proposalId) external view returns(bool) {\n        return _isVotable(_proposalId);\n    }\n\n    /**\n    * @dev proposalStatus return the total votes and stakes for a given proposal\n    * @param _proposalId the ID of the proposal\n    * @return uint256 preBoostedVotes YES\n    * @return uint256 preBoostedVotes NO\n    * @return uint256 total stakes YES\n    * @return uint256 total stakes NO\n    */\n    function proposalStatus(bytes32 _proposalId) external view returns(uint256, uint256, uint256, uint256) {\n        return (\n                proposals[_proposalId].preBoostedVotes[YES],\n                proposals[_proposalId].preBoostedVotes[NO],\n                proposals[_proposalId].stakes[YES],\n                proposals[_proposalId].stakes[NO]\n        );\n    }\n\n  /**\n    * @dev getProposalOrganization return the organizationId for a given proposal\n    * @param _proposalId the ID of the proposal\n    * @return bytes32 organization identifier\n    */\n    function getProposalOrganization(bytes32 _proposalId) external view returns(bytes32) {\n        return (proposals[_proposalId].organizationId);\n    }\n\n    /**\n      * @dev getStaker return the vote and stake amount for a given proposal and staker\n      * @param _proposalId the ID of the proposal\n      * @param _staker staker address\n      * @return uint256 vote\n      * @return uint256 amount\n    */\n    function getStaker(bytes32 _proposalId, address _staker) external view returns(uint256, uint256) {\n        return (proposals[_proposalId].stakers[_staker].vote, proposals[_proposalId].stakers[_staker].amount);\n    }\n\n    /**\n      * @dev voteStake return the amount stakes for a given proposal and vote\n      * @param _proposalId the ID of the proposal\n      * @param _vote vote number\n      * @return uint256 stake amount\n    */\n    function voteStake(bytes32 _proposalId, uint256 _vote) external view returns(uint256) {\n        return proposals[_proposalId].stakes[_vote];\n    }\n\n  /**\n    * @dev voteStake return the winningVote for a given proposal\n    * @param _proposalId the ID of the proposal\n    * @return uint256 winningVote\n    */\n    function winningVote(bytes32 _proposalId) external view returns(uint256) {\n        return proposals[_proposalId].winningVote;\n    }\n\n    /**\n      * @dev voteStake return the state for a given proposal\n      * @param _proposalId the ID of the proposal\n      * @return ProposalState proposal state\n    */\n    function state(bytes32 _proposalId) external view returns(ProposalState) {\n        return proposals[_proposalId].state;\n    }\n\n   /**\n    * @dev isAbstainAllow returns if the voting machine allow abstain (0)\n    * @return bool true or false\n    */\n    function isAbstainAllow() external pure returns(bool) {\n        return false;\n    }\n\n    /**\n     * @dev getAllowedRangeOfChoices returns the allowed range of choices for a voting machine.\n     * @return min - minimum number of choices\n               max - maximum number of choices\n     */\n    function getAllowedRangeOfChoices() external pure returns(uint256 min, uint256 max) {\n        return (YES, NO);\n    }\n\n    /**\n     * @dev score return the proposal score\n     * @param _proposalId the ID of the proposal\n     * @return uint256 proposal score.\n     */\n    function score(bytes32 _proposalId) public view returns(uint256) {\n        return  _score(_proposalId);\n    }\n}\n",
  "sourcePath": "@daostack/infra/contracts/votingMachines/GenesisProtocol.sol",
  "compiler": {
    "name": "solc",
    "version": "0.5.4+commit.9549d8ff.Emscripten.clang"
  },
  "schemaVersion": "3.0.9",
  "updatedAt": "2019-07-13T20:10:17.230Z",
  "devdoc": {
    "methods": {
      "calcExecuteCallBounty(bytes32)": {
        "details": "calcExecuteCallBounty calculate the execute boosted call bounty",
        "params": {
          "_proposalId": "the ID of the proposal"
        },
        "return": "uint256 executeCallBounty"
      },
      "cancelVote(bytes32)": {
        "details": "Cancel the vote of the msg.sender. cancel vote is not allow in genesisProtocol so this function doing nothing. This function is here in order to comply to the IntVoteInterface ."
      },
      "constructor": {
        "details": "Constructor"
      },
      "execute(bytes32)": {
        "details": "execute check if the proposal has been decided, and if so, execute the proposal",
        "params": {
          "_proposalId": "the id of the proposal"
        },
        "return": "bool true - the proposal has been executed             false - otherwise."
      },
      "executeBoosted(bytes32)": {
        "details": "executeBoosted try to execute a boosted or QuietEndingPeriod proposal if it is expired it rewards the msg.sender with P % of the proposal's upstakes upon a successful call to this function. P = t/150, where t is the number of seconds passed since the the proposal's timeout. P is capped by 10%.",
        "params": {
          "_proposalId": "the id of the proposal"
        },
        "return": "uint256 expirationCallBounty the bounty amount for the expiration call"
      },
      "getAllowedRangeOfChoices()": {
        "details": "getAllowedRangeOfChoices returns the allowed range of choices for a voting machine.",
        "return": "min - minimum number of choices max - maximum number of choices"
      },
      "getNumberOfChoices(bytes32)": {
        "details": "getNumberOfChoices returns the number of choices possible in this proposal",
        "return": "uint256 that contains number of choices"
      },
      "getParametersHash(uint256[11],address)": {
        "details": "hashParameters returns a hash of the given parameters"
      },
      "getProposalOrganization(bytes32)": {
        "details": "getProposalOrganization return the organizationId for a given proposal",
        "params": {
          "_proposalId": "the ID of the proposal"
        },
        "return": "bytes32 organization identifier"
      },
      "getProposalTimes(bytes32)": {
        "details": "getProposalTimes returns proposals times variables.",
        "params": {
          "_proposalId": "id of the proposal"
        },
        "return": "proposals times array"
      },
      "getStaker(bytes32,address)": {
        "details": "getStaker return the vote and stake amount for a given proposal and staker",
        "params": {
          "_proposalId": "the ID of the proposal",
          "_staker": "staker address"
        },
        "return": "uint256 voteuint256 amount"
      },
      "isAbstainAllow()": {
        "details": "isAbstainAllow returns if the voting machine allow abstain (0)",
        "return": "bool true or false"
      },
      "isVotable(bytes32)": {
        "details": "isVotable check if the proposal is votable",
        "params": {
          "_proposalId": "the ID of the proposal"
        },
        "return": "bool true or false"
      },
      "proposalStatus(bytes32)": {
        "details": "proposalStatus return the total votes and stakes for a given proposal",
        "params": {
          "_proposalId": "the ID of the proposal"
        },
        "return": "uint256 preBoostedVotes YESuint256 preBoostedVotes NOuint256 total stakes YESuint256 total stakes NO"
      },
      "propose(uint256,bytes32,address,address)": {
        "details": "register a new proposal with the given parameters. Every proposal has a unique ID which is being generated by calculating keccak256 of a incremented counter.",
        "params": {
          "_organization": "address",
          "_paramsHash": "parameters hash",
          "_proposer": "address"
        }
      },
      "redeem(bytes32,address)": {
        "details": "redeem a reward for a successful stake, vote or proposing. The function use a beneficiary address as a parameter (and not msg.sender) to enable users to redeem on behalf of someone else.",
        "params": {
          "_beneficiary": "- the beneficiary address",
          "_proposalId": "the ID of the proposal"
        },
        "return": "rewards -          [0] stakerTokenReward          [1] voterReputationReward          [2] proposerReputationReward"
      },
      "redeemDaoBounty(bytes32,address)": {
        "details": "redeemDaoBounty a reward for a successful stake. The function use a beneficiary address as a parameter (and not msg.sender) to enable users to redeem on behalf of someone else.",
        "params": {
          "_beneficiary": "- the beneficiary address",
          "_proposalId": "the ID of the proposal"
        },
        "return": "redeemedAmount - redeem token amountpotentialAmount - potential redeem token amount(if there is enough tokens bounty at the organization )"
      },
      "score(bytes32)": {
        "details": "score return the proposal score",
        "params": {
          "_proposalId": "the ID of the proposal"
        },
        "return": "uint256 proposal score."
      },
      "setParameters(uint256[11],address)": {
        "details": "hash the parameters, save them if necessary, and return the hash value",
        "params": {
          "_params": "a parameters array   _params[0] - _queuedVoteRequiredPercentage,   _params[1] - _queuedVotePeriodLimit, //the time limit for a proposal to be in an absolute voting mode.   _params[2] - _boostedVotePeriodLimit, //the time limit for a proposal to be in an relative voting mode.   _params[3] - _preBoostedVotePeriodLimit, //the time limit for a proposal to be in an preparation                 state (stable) before boosted.   _params[4] -_thresholdConst   _params[5] -_quietEndingPeriod   _params[6] -_proposingRepReward   _params[7] -_votersReputationLossRatio   _params[8] -_minimumDaoBounty   _params[9] -_daoBountyConst   _params[10] -_activationTime",
          "_voteOnBehalf": "- authorized to vote on behalf of others."
        }
      },
      "shouldBoost(bytes32)": {
        "details": "shouldBoost check if a proposal should be shifted to boosted phase.",
        "params": {
          "_proposalId": "the ID of the proposal"
        },
        "return": "bool true or false."
      },
      "stake(bytes32,uint256,uint256)": {
        "details": "staking function",
        "params": {
          "_amount": "the betting amount",
          "_proposalId": "id of the proposal",
          "_vote": "NO(2) or YES(1)."
        },
        "return": "bool true - the proposal has been executed             false - otherwise."
      },
      "stakeWithSignature(bytes32,uint256,uint256,uint256,uint256,bytes)": {
        "details": "stakeWithSignature function",
        "params": {
          "_amount": "the betting amount",
          "_nonce": "nonce value ,it is part of the signature to ensure that a signature can be received only once.",
          "_proposalId": "id of the proposal",
          "_signature": "- signed data by the staker",
          "_signatureType": "signature type 1 - for web3.eth.sign 2 - for eth_signTypedData according to EIP #712.",
          "_vote": "NO(2) or YES(1)."
        },
        "return": "bool true - the proposal has been executed             false - otherwise."
      },
      "state(bytes32)": {
        "details": "voteStake return the state for a given proposal",
        "params": {
          "_proposalId": "the ID of the proposal"
        },
        "return": "ProposalState proposal state"
      },
      "threshold(bytes32,bytes32)": {
        "details": "threshold return the organization's score threshold which required by a proposal to shift to boosted state. This threshold is dynamically set and it depend on the number of boosted proposal.",
        "params": {
          "_organizationId": "the organization identifier",
          "_paramsHash": "the organization parameters hash"
        },
        "return": "uint256 organization's score threshold as real number."
      },
      "vote(bytes32,uint256,uint256,address)": {
        "details": "voting function",
        "params": {
          "_amount": "the reputation amount to vote with . if _amount == 0 it will use all voter reputation.",
          "_proposalId": "id of the proposal",
          "_vote": "NO(2) or YES(1).",
          "_voter": "voter address"
        },
        "return": "bool true - the proposal has been executed             false - otherwise."
      },
      "voteInfo(bytes32,address)": {
        "details": "voteInfo returns the vote and the amount of reputation of the user committed to this proposal",
        "params": {
          "_proposalId": "the ID of the proposal",
          "_voter": "the address of the voter"
        },
        "return": "uint256 vote - the voters vote       uint256 reputation - amount of reputation committed by _voter to _proposalId"
      },
      "voteStake(bytes32,uint256)": {
        "details": "voteStake return the amount stakes for a given proposal and vote",
        "params": {
          "_proposalId": "the ID of the proposal",
          "_vote": "vote number"
        },
        "return": "uint256 stake amount"
      },
      "voteStatus(bytes32,uint256)": {
        "details": "voteStatus returns the reputation voted for a proposal for a specific voting choice.",
        "params": {
          "_choice": "the index in the",
          "_proposalId": "the ID of the proposal"
        },
        "return": "voted reputation for the given choice"
      },
      "winningVote(bytes32)": {
        "details": "voteStake return the winningVote for a given proposal",
        "params": {
          "_proposalId": "the ID of the proposal"
        },
        "return": "uint256 winningVote"
      }
    },
    "title": "GenesisProtocol implementation -an organization's voting machine scheme."
  },
  "userdoc": {
    "methods": {}
  }
}