{
  "contractName": "GenesisProtocolCallbacksMock",
  "abi": [
    {
      "constant": false,
      "inputs": [],
      "name": "renounceOwnership",
      "outputs": [],
      "payable": false,
      "stateMutability": "nonpayable",
      "type": "function"
    },
    {
      "constant": true,
      "inputs": [],
      "name": "stakingToken",
      "outputs": [
        {
          "name": "",
          "type": "address"
        }
      ],
      "payable": false,
      "stateMutability": "view",
      "type": "function"
    },
    {
      "constant": true,
      "inputs": [],
      "name": "genesisProtocol",
      "outputs": [
        {
          "name": "",
          "type": "address"
        }
      ],
      "payable": false,
      "stateMutability": "view",
      "type": "function"
    },
    {
      "constant": true,
      "inputs": [],
      "name": "owner",
      "outputs": [
        {
          "name": "",
          "type": "address"
        }
      ],
      "payable": false,
      "stateMutability": "view",
      "type": "function"
    },
    {
      "constant": true,
      "inputs": [],
      "name": "isOwner",
      "outputs": [
        {
          "name": "",
          "type": "bool"
        }
      ],
      "payable": false,
      "stateMutability": "view",
      "type": "function"
    },
    {
      "constant": true,
      "inputs": [],
      "name": "reputation",
      "outputs": [
        {
          "name": "",
          "type": "address"
        }
      ],
      "payable": false,
      "stateMutability": "view",
      "type": "function"
    },
    {
      "constant": true,
      "inputs": [
        {
          "name": "",
          "type": "bytes32"
        }
      ],
      "name": "proposalsBlockNumbers",
      "outputs": [
        {
          "name": "",
          "type": "uint256"
        }
      ],
      "payable": false,
      "stateMutability": "view",
      "type": "function"
    },
    {
      "constant": false,
      "inputs": [
        {
          "name": "newOwner",
          "type": "address"
        }
      ],
      "name": "transferOwnership",
      "outputs": [],
      "payable": false,
      "stateMutability": "nonpayable",
      "type": "function"
    },
    {
      "inputs": [
        {
          "name": "_reputation",
          "type": "address"
        },
        {
          "name": "_stakingToken",
          "type": "address"
        },
        {
          "name": "_genesisProtocol",
          "type": "address"
        }
      ],
      "payable": false,
      "stateMutability": "nonpayable",
      "type": "constructor"
    },
    {
      "anonymous": false,
      "inputs": [
        {
          "indexed": true,
          "name": "_proposalId",
          "type": "bytes32"
        },
        {
          "indexed": true,
          "name": "_organization",
          "type": "address"
        },
        {
          "indexed": false,
          "name": "_numOfChoices",
          "type": "uint256"
        },
        {
          "indexed": false,
          "name": "_proposer",
          "type": "address"
        },
        {
          "indexed": false,
          "name": "_paramsHash",
          "type": "bytes32"
        }
      ],
      "name": "NewProposal",
      "type": "event"
    },
    {
      "anonymous": false,
      "inputs": [
        {
          "indexed": true,
          "name": "previousOwner",
          "type": "address"
        },
        {
          "indexed": true,
          "name": "newOwner",
          "type": "address"
        }
      ],
      "name": "OwnershipTransferred",
      "type": "event"
    },
    {
      "anonymous": false,
      "inputs": [
        {
          "indexed": false,
          "name": "_msg",
          "type": "address"
        }
      ],
      "name": "LogAddress",
      "type": "event"
    },
    {
      "anonymous": false,
      "inputs": [
        {
          "indexed": false,
          "name": "_msg",
          "type": "int256"
        }
      ],
      "name": "LogInt",
      "type": "event"
    },
    {
      "anonymous": false,
      "inputs": [
        {
          "indexed": false,
          "name": "_msg",
          "type": "string"
        }
      ],
      "name": "LogString",
      "type": "event"
    },
    {
      "anonymous": false,
      "inputs": [
        {
          "indexed": false,
          "name": "_msg",
          "type": "uint256"
        }
      ],
      "name": "LogUint",
      "type": "event"
    },
    {
      "anonymous": false,
      "inputs": [
        {
          "indexed": false,
          "name": "_msg",
          "type": "bytes"
        }
      ],
      "name": "LogBytes",
      "type": "event"
    },
    {
      "anonymous": false,
      "inputs": [
        {
          "indexed": false,
          "name": "_msg",
          "type": "bytes32"
        }
      ],
      "name": "LogBytes32",
      "type": "event"
    },
    {
      "anonymous": false,
      "inputs": [
        {
          "indexed": false,
          "name": "_msg",
          "type": "bool"
        }
      ],
      "name": "LogBool",
      "type": "event"
    },
    {
      "constant": false,
      "inputs": [
        {
          "name": "_amount",
          "type": "uint256"
        },
        {
          "name": "_beneficiary",
          "type": "address"
        },
        {
          "name": "",
          "type": "bytes32"
        }
      ],
      "name": "mintReputation",
      "outputs": [
        {
          "name": "",
          "type": "bool"
        }
      ],
      "payable": false,
      "stateMutability": "nonpayable",
      "type": "function"
    },
    {
      "constant": false,
      "inputs": [
        {
          "name": "_amount",
          "type": "uint256"
        },
        {
          "name": "_beneficiary",
          "type": "address"
        },
        {
          "name": "",
          "type": "bytes32"
        }
      ],
      "name": "burnReputation",
      "outputs": [
        {
          "name": "",
          "type": "bool"
        }
      ],
      "payable": false,
      "stateMutability": "nonpayable",
      "type": "function"
    },
    {
      "constant": false,
      "inputs": [
        {
          "name": "_stakingToken",
          "type": "address"
        },
        {
          "name": "_beneficiary",
          "type": "address"
        },
        {
          "name": "_amount",
          "type": "uint256"
        },
        {
          "name": "",
          "type": "bytes32"
        }
      ],
      "name": "stakingTokenTransfer",
      "outputs": [
        {
          "name": "",
          "type": "bool"
        }
      ],
      "payable": false,
      "stateMutability": "nonpayable",
      "type": "function"
    },
    {
      "constant": false,
      "inputs": [
        {
          "name": "_params",
          "type": "uint256[11]"
        },
        {
          "name": "_voteOnBehalf",
          "type": "address"
        }
      ],
      "name": "setParameters",
      "outputs": [
        {
          "name": "",
          "type": "bytes32"
        }
      ],
      "payable": false,
      "stateMutability": "nonpayable",
      "type": "function"
    },
    {
      "constant": false,
      "inputs": [
        {
          "name": "_proposalId",
          "type": "bytes32"
        },
        {
          "name": "_decision",
          "type": "int256"
        }
      ],
      "name": "executeProposal",
      "outputs": [
        {
          "name": "",
          "type": "bool"
        }
      ],
      "payable": false,
      "stateMutability": "nonpayable",
      "type": "function"
    },
    {
      "constant": false,
      "inputs": [
        {
          "name": "_numOfChoices",
          "type": "uint256"
        },
        {
          "name": "_paramsHash",
          "type": "bytes32"
        },
        {
          "name": "",
          "type": "address"
        },
        {
          "name": "_proposer",
          "type": "address"
        },
        {
          "name": "_organization",
          "type": "address"
        }
      ],
      "name": "propose",
      "outputs": [
        {
          "name": "",
          "type": "bytes32"
        }
      ],
      "payable": false,
      "stateMutability": "nonpayable",
      "type": "function"
    },
    {
      "constant": false,
      "inputs": [
        {
          "name": "_amount",
          "type": "uint256"
        },
        {
          "name": "_beneficiary",
          "type": "address"
        },
        {
          "name": "",
          "type": "bytes32"
        }
      ],
      "name": "burnReputationTest",
      "outputs": [
        {
          "name": "",
          "type": "bool"
        }
      ],
      "payable": false,
      "stateMutability": "nonpayable",
      "type": "function"
    },
    {
      "constant": false,
      "inputs": [
        {
          "name": "_proposalId",
          "type": "bytes32"
        }
      ],
      "name": "setProposal",
      "outputs": [
        {
          "name": "",
          "type": "bool"
        }
      ],
      "payable": false,
      "stateMutability": "nonpayable",
      "type": "function"
    },
    {
      "constant": true,
      "inputs": [
        {
          "name": "_proposalId",
          "type": "bytes32"
        }
      ],
      "name": "getTotalReputationSupply",
      "outputs": [
        {
          "name": "",
          "type": "uint256"
        }
      ],
      "payable": false,
      "stateMutability": "view",
      "type": "function"
    },
    {
      "constant": true,
      "inputs": [
        {
          "name": "_stakingToken",
          "type": "address"
        },
        {
          "name": "",
          "type": "bytes32"
        }
      ],
      "name": "balanceOfStakingToken",
      "outputs": [
        {
          "name": "",
          "type": "uint256"
        }
      ],
      "payable": false,
      "stateMutability": "view",
      "type": "function"
    },
    {
      "constant": true,
      "inputs": [
        {
          "name": "_owner",
          "type": "address"
        },
        {
          "name": "_proposalId",
          "type": "bytes32"
        }
      ],
      "name": "reputationOf",
      "outputs": [
        {
          "name": "",
          "type": "uint256"
        }
      ],
      "payable": false,
      "stateMutability": "view",
      "type": "function"
    }
  ],
  "bytecode": "0x608060405234801561001057600080fd5b50604051606080610d908339810180604052606081101561003057600080fd5b508051602082015160409283015160008054600160a060020a03191633178082559451939492939192600160a060020a031691600080516020610d70833981519152908290a360018054600160a060020a03808616600160a060020a0319928316179092556002805485841690831617905560038054848416921691909117908190556100c691166401000000006100ce810204565b50505061016e565b6100df6401000000006100ff810204565b15156100ea57600080fd5b6100fc81640100000000610110810204565b50565b600054600160a060020a0316331490565b600160a060020a038116151561012557600080fd5b60008054604051600160a060020a0380851693921691600080516020610d7083398151915291a360008054600160a060020a031916600160a060020a0392909216919091179055565b610bf38061017d6000396000f3fe608060405234801561001057600080fd5b506004361061013e576000357c0100000000000000000000000000000000000000000000000000000000900480639588378e116100ca578063c52164c61161008e578063c52164c614610342578063d1c756501461034a578063d29b5d2f14610367578063f2fde38b14610399578063f81f8bf6146103bf5761013e565b80639588378e146102685780639d4c162d14610294578063abcc9cb9146102b7578063b551c373146102e9578063bea75f28146103065761013e565b806372f702f31161011157806372f702f3146102005780637581d62f146102245780638894c41b1461022c5780638da5cb5b146102585780638f32d59b146102605761013e565b80630905c9f9146101435780636b8eb4031461019957806370a53748146101c5578063715018a6146101f6575b600080fd5b610187600480360360a081101561015957600080fd5b50803590602081013590600160a060020a0360408201358116916060810135821691608090910135166103f1565b60408051918252519081900360200190f35b610187600480360360408110156101af57600080fd5b50600160a060020a038135169060200135610507565b6101e2600480360360208110156101db57600080fd5b503561059d565b604080519115158252519081900360200190f35b6101fe6105b1565b005b61020861061b565b60408051600160a060020a039092168252519081900360200190f35b61020861062a565b610187600480360361018081101561024357600080fd5b50600160a060020a0361016082013516610639565b6102086106e6565b6101e26106f5565b6101876004803603604081101561027e57600080fd5b50600160a060020a038135169060200135610706565b6101e2600480360360408110156102aa57600080fd5b5080359060200135610785565b6101e2600480360360608110156102cd57600080fd5b50803590600160a060020a0360208201351690604001356107f7565b610187600480360360208110156102ff57600080fd5b503561089d565b6101e26004803603608081101561031c57600080fd5b50600160a060020a0381358116916020810135909116906040810135906060013561093c565b610208610a02565b6101876004803603602081101561036057600080fd5b5035610a11565b6101e26004803603606081101561037d57600080fd5b50803590600160a060020a036020820135169060400135610a23565b6101fe600480360360208110156103af57600080fd5b5035600160a060020a0316610aa7565b6101e2600480360360608110156103d557600080fd5b50803590600160a060020a036020820135169060400135610ac6565b600354604080517f88737b5e0000000000000000000000000000000000000000000000000000000081526004810188905260248101879052600160a060020a03858116604483015284811660648301529151600093849316916388737b5e91608480830192602092919082900301818787803b15801561047057600080fd5b505af1158015610484573d6000803e3d6000fd5b505050506040513d602081101561049a57600080fd5b505160408051898152600160a060020a03871660208201528082018990529051919250309183917f75b4ff136cc5de5957574c797de3334eb1c141271922b825eb071e0487ba2c5c919081900360600190a360008181526004602052604090204390559695505050505050565b604080517f70a082310000000000000000000000000000000000000000000000000000000081523060048201529051600091600160a060020a038516916370a0823191602480820192602092909190829003018186803b15801561056a57600080fd5b505afa15801561057e573d6000803e3d6000fd5b505050506040513d602081101561059457600080fd5b50519392505050565b600090815260046020526040812043905590565b6105b96106f5565b15156105c457600080fd5b60008054604051600160a060020a03909116907f8be0079c531659141344cd1fd0a4f28419497f9722a3daafe3b4186f6b6457e0908390a36000805473ffffffffffffffffffffffffffffffffffffffff19169055565b600254600160a060020a031681565b600354600160a060020a031681565b6003546040517f8894c41b000000000000000000000000000000000000000000000000000000008152600091600160a060020a031690638894c41b9085908590600401808361016080828437600081840152601f19601f82011690508083019250505082600160a060020a0316600160a060020a0316815260200192505050602060405180830381600087803b1580156106d257600080fd5b505af115801561057e573d6000803e3d6000fd5b600054600160a060020a031690565b600054600160a060020a0316331490565b60015460008281526004602081815260408084205481517f4ee2cd7e000000000000000000000000000000000000000000000000000000008152600160a060020a03898116958201959095526024810191909152905193949290921692634ee2cd7e926044808201939291829003018186803b15801561056a57600080fd5b6040805183815290516000917e9fd52f05c0ded31d6fb0ee580b923f85e99cf1a5a1da342f25e73c45829c83919081900360200190a16040805183815290517f1aa4309bfd99af8afa7454590e1bdaa5a9b3b63e5baa109ae9afa3ecd0c67f399181900360200190a150600192915050565b600154604080517f9dc29fac000000000000000000000000000000000000000000000000000000008152600160a060020a0385811660048301526024820187905291516000939290921691639dc29fac9160448082019260209290919082900301818787803b15801561086957600080fd5b505af115801561087d573d6000803e3d6000fd5b505050506040513d602081101561089357600080fd5b5051949350505050565b60015460008281526004602081815260408084205481517f981b24d000000000000000000000000000000000000000000000000000000000815293840152519293600160a060020a03169263981b24d0926024808201939291829003018186803b15801561090a57600080fd5b505afa15801561091e573d6000803e3d6000fd5b505050506040513d602081101561093457600080fd5b505192915050565b60006109466106f5565b151561095157600080fd5b84600160a060020a031663a9059cbb85856040518363ffffffff167c01000000000000000000000000000000000000000000000000000000000281526004018083600160a060020a0316600160a060020a0316815260200182815260200192505050602060405180830381600087803b1580156109cd57600080fd5b505af11580156109e1573d6000803e3d6000fd5b505050506040513d60208110156109f757600080fd5b505195945050505050565b600154600160a060020a031681565b60046020526000908152604090205481565b6000610a2d6106f5565b1515610a3857600080fd5b600154604080517f40c10f19000000000000000000000000000000000000000000000000000000008152600160a060020a03868116600483015260248201889052915191909216916340c10f199160448083019260209291908290030181600087803b15801561086957600080fd5b610aaf6106f5565b1515610aba57600080fd5b610ac381610b4a565b50565b6000610ad06106f5565b1515610adb57600080fd5b600154604080517f9dc29fac000000000000000000000000000000000000000000000000000000008152600160a060020a0386811660048301526024820188905291519190921691639dc29fac9160448083019260209291908290030181600087803b15801561086957600080fd5b600160a060020a0381161515610b5f57600080fd5b60008054604051600160a060020a03808516939216917f8be0079c531659141344cd1fd0a4f28419497f9722a3daafe3b4186f6b6457e091a36000805473ffffffffffffffffffffffffffffffffffffffff1916600160a060020a039290921691909117905556fea165627a7a72305820ed7619aba35f5b9c03344cd2e02db8f3a074297b3279b1f89e93bbc7b8a1112400298be0079c531659141344cd1fd0a4f28419497f9722a3daafe3b4186f6b6457e0",
  "source": "pragma solidity ^0.5.4;\n\nimport \"../votingMachines/VotingMachineCallbacksInterface.sol\";\nimport \"../votingMachines/ProposalExecuteInterface.sol\";\nimport \"../votingMachines/GenesisProtocol.sol\";\nimport \"../Reputation.sol\";\nimport \"openzeppelin-solidity/contracts/ownership/Ownable.sol\";\nimport \"./Debug.sol\";\n\n\ncontract GenesisProtocolCallbacksMock is Debug, VotingMachineCallbacksInterface, ProposalExecuteInterface, Ownable {\n\n    Reputation public reputation;\n    IERC20 public stakingToken;\n    GenesisProtocol public genesisProtocol;\n    mapping (bytes32=>uint) public proposalsBlockNumbers;\n\n    event NewProposal(\n        bytes32 indexed _proposalId,\n        address indexed _organization,\n        uint256 _numOfChoices,\n        address _proposer,\n        bytes32 _paramsHash\n    );\n\n    /**\n     * @dev Constructor\n     */\n    constructor(Reputation _reputation, IERC20 _stakingToken, GenesisProtocol _genesisProtocol) public {\n        reputation = _reputation;\n        stakingToken = _stakingToken;\n        genesisProtocol = _genesisProtocol;\n        transferOwnership(address(genesisProtocol));\n    }\n\n    function mintReputation(uint256 _amount, address _beneficiary, bytes32)\n    external\n    onlyOwner\n    returns(bool)\n    {\n        return reputation.mint(_beneficiary, _amount);\n    }\n\n    function burnReputation(uint256 _amount, address _beneficiary, bytes32)\n    external\n    onlyOwner\n    returns(bool)\n    {\n        return reputation.burn(_beneficiary, _amount);\n    }\n\n    function stakingTokenTransfer(IERC20 _stakingToken, address _beneficiary, uint256 _amount, bytes32)\n    external\n    onlyOwner\n    returns(bool)\n    {\n        return _stakingToken.transfer(_beneficiary, _amount);\n    }\n\n    function setParameters(uint[11] calldata _params, address _voteOnBehalf) external returns(bytes32) {\n        return genesisProtocol.setParameters(_params, _voteOnBehalf);\n    }\n\n    function executeProposal(bytes32 _proposalId, int _decision) external returns(bool) {\n        emit LogBytes32(_proposalId);\n        emit LogInt(_decision);\n        return true;\n    }\n\n    function propose(uint256 _numOfChoices, bytes32 _paramsHash, address, address _proposer, address _organization)\n    external\n    returns\n    (bytes32)\n    {\n        bytes32 proposalId = genesisProtocol.propose(_numOfChoices, _paramsHash, _proposer, _organization);\n        emit NewProposal(proposalId, address(this), _numOfChoices, _proposer, _paramsHash);\n        proposalsBlockNumbers[proposalId] = block.number;\n\n        return proposalId;\n    }\n\n    //this function is used only for testing purpose on this mock contract\n    function burnReputationTest(uint256 _amount, address _beneficiary, bytes32)\n    external\n    returns(bool)\n    {\n        return reputation.burn(_beneficiary, _amount);\n    }\n\n    function setProposal(bytes32 _proposalId) external returns(bool) {\n        proposalsBlockNumbers[_proposalId] = block.number;\n    }\n\n    function getTotalReputationSupply(bytes32 _proposalId) external view returns(uint256) {\n        return reputation.totalSupplyAt(proposalsBlockNumbers[_proposalId]);\n    }\n\n    function balanceOfStakingToken(IERC20 _stakingToken, bytes32)\n    external\n    view\n    returns(uint256)\n    {\n        return _stakingToken.balanceOf(address(this));\n    }\n\n    function reputationOf(address _owner, bytes32 _proposalId) external view returns(uint256) {\n        return reputation.balanceOfAt(_owner, proposalsBlockNumbers[_proposalId]);\n    }\n\n}\n",
  "sourcePath": "@daostack/infra/contracts/test/GenesisProtocolCallbacksMock.sol",
  "compiler": {
    "name": "solc",
    "version": "0.5.4+commit.9549d8ff.Emscripten.clang"
  },
  "schemaVersion": "3.0.9",
  "updatedAt": "2019-07-13T20:10:17.221Z",
  "devdoc": {
    "methods": {
      "constructor": {
        "details": "Constructor"
      },
      "isOwner()": {
        "return": "true if `msg.sender` is the owner of the contract."
      },
      "owner()": {
        "return": "the address of the owner."
      },
      "renounceOwnership()": {
        "details": "Allows the current owner to relinquish control of the contract."
      },
      "transferOwnership(address)": {
        "details": "Allows the current owner to transfer control of the contract to a newOwner.",
        "params": {
          "newOwner": "The address to transfer ownership to."
        }
      }
    }
  },
  "userdoc": {
    "methods": {
      "renounceOwnership()": {
        "notice": "Renouncing to ownership will leave the contract without an owner. It will not be possible to call the functions with the `onlyOwner` modifier anymore."
      }
    }
  }
}