{
  "contractName": "PolkaCurve",
  "abi": [
    {
      "constant": true,
      "inputs": [],
      "name": "SUM_OF_SQRTS",
      "outputs": [
        {
          "name": "",
          "type": "uint256"
        }
      ],
      "payable": false,
      "stateMutability": "view",
      "type": "function"
    },
    {
      "constant": true,
      "inputs": [],
      "name": "TOTAL_REPUTATION",
      "outputs": [
        {
          "name": "",
          "type": "uint256"
        }
      ],
      "payable": false,
      "stateMutability": "view",
      "type": "function"
    },
    {
      "constant": true,
      "inputs": [
        {
          "name": "_value",
          "type": "uint256"
        }
      ],
      "name": "calc",
      "outputs": [
        {
          "name": "sqrt",
          "type": "uint256"
        }
      ],
      "payable": false,
      "stateMutability": "pure",
      "type": "function"
    }
  ],
  "bytecode": "0x608060405234801561001057600080fd5b50610125806100206000396000f3fe6080604052348015600f57600080fd5b50600436106058577c0100000000000000000000000000000000000000000000000000000000600035046338c9027a8114605d5780633f4f781c14608957806344cac10314608f575b600080fd5b607760048036036020811015607157600080fd5b50356095565b60408051918252519081900360200190f35b607760eb565b607760f2565b670de0b6b3a7640000810280600260018201045b8281101560d157809250600281828481151560c057fe5b040181151560ca57fe5b04905060a9565b621a3722620c3500840204633b9aca000292505050919050565b621a372281565b620c35008156fea165627a7a7230582005d7bc9faf3700c6d2d491fa9f6cee35444752bf31ae34682ae2198031835e0f0029",
  "source": "pragma solidity ^0.5.4;\n\nimport \"../schemes/CurveInterface.sol\";\n\n/**\n * @title A Curve contract which implement the function of square root.\n * the result is normalized for the total reputation allocated. \n*/\n\ncontract PolkaCurve is CurveInterface {\n\n    uint256 public constant TOTAL_REPUTATION = 800000;\n    uint256 public constant SUM_OF_SQRTS = 1718050;\n\n    function calc(uint256 _value) external pure returns (uint256 sqrt) {\n        uint value = _value * 1 ether;\n        uint z = (value + 1) / 2;\n        sqrt = value;\n        while (z < sqrt) {\n            sqrt = z;\n            z = (value / z + z) / 2;\n        }\n        sqrt = ((sqrt*TOTAL_REPUTATION)/SUM_OF_SQRTS) * 1000000000;\n    }\n}\n",
  "sourcePath": "/Users/oren/daostack/arc/contracts/test/PolkaCurve.sol",
  "compiler": {
    "name": "solc",
    "version": "0.5.4+commit.9549d8ff.Emscripten.clang"
  },
  "schemaVersion": "3.0.9",
  "updatedAt": "2019-07-13T20:10:17.143Z",
  "devdoc": {
    "methods": {},
    "title": "A Curve contract which implement the function of square root. the result is normalized for the total reputation allocated. "
  },
  "userdoc": {
    "methods": {}
  }
}