{
  "contractName": "PriceOracleMock",
  "abi": [
    {
      "constant": true,
      "inputs": [
        {
          "name": "",
          "type": "address"
        }
      ],
      "name": "tokenPrices",
      "outputs": [
        {
          "name": "numerator",
          "type": "uint256"
        },
        {
          "name": "denominator",
          "type": "uint256"
        }
      ],
      "payable": false,
      "stateMutability": "view",
      "type": "function"
    },
    {
      "constant": false,
      "inputs": [],
      "name": "renounceOwnership",
      "outputs": [],
      "payable": false,
      "stateMutability": "nonpayable",
      "type": "function"
    },
    {
      "constant": true,
      "inputs": [],
      "name": "owner",
      "outputs": [
        {
          "name": "",
          "type": "address"
        }
      ],
      "payable": false,
      "stateMutability": "view",
      "type": "function"
    },
    {
      "constant": true,
      "inputs": [],
      "name": "isOwner",
      "outputs": [
        {
          "name": "",
          "type": "bool"
        }
      ],
      "payable": false,
      "stateMutability": "view",
      "type": "function"
    },
    {
      "constant": false,
      "inputs": [
        {
          "name": "newOwner",
          "type": "address"
        }
      ],
      "name": "transferOwnership",
      "outputs": [],
      "payable": false,
      "stateMutability": "nonpayable",
      "type": "function"
    },
    {
      "anonymous": false,
      "inputs": [
        {
          "indexed": true,
          "name": "previousOwner",
          "type": "address"
        },
        {
          "indexed": true,
          "name": "newOwner",
          "type": "address"
        }
      ],
      "name": "OwnershipTransferred",
      "type": "event"
    },
    {
      "constant": true,
      "inputs": [
        {
          "name": "token",
          "type": "address"
        }
      ],
      "name": "getPrice",
      "outputs": [
        {
          "name": "",
          "type": "uint256"
        },
        {
          "name": "",
          "type": "uint256"
        }
      ],
      "payable": false,
      "stateMutability": "view",
      "type": "function"
    },
    {
      "constant": false,
      "inputs": [
        {
          "name": "token",
          "type": "address"
        },
        {
          "name": "numerator",
          "type": "uint256"
        },
        {
          "name": "denominator",
          "type": "uint256"
        }
      ],
      "name": "setTokenPrice",
      "outputs": [],
      "payable": false,
      "stateMutability": "nonpayable",
      "type": "function"
    }
  ],
  "bytecode": "0x6080604081905260008054600160a060020a0319163317808255600160a060020a0316917f8be0079c531659141344cd1fd0a4f28419497f9722a3daafe3b4186f6b6457e0908290a36103b1806100576000396000f3fe608060405234801561001057600080fd5b506004361061009a576000357c0100000000000000000000000000000000000000000000000000000000900480638da5cb5b116100785780638da5cb5b1461010e5780638f32d59b14610132578063eb1c03161461014e578063f2fde38b146101805761009a565b8063204120bc1461009f57806341976e09146100de578063715018a614610104575b600080fd5b6100c5600480360360208110156100b557600080fd5b5035600160a060020a03166101a6565b6040805192835260208301919091528051918290030190f35b6100c5600480360360208110156100f457600080fd5b5035600160a060020a03166101bf565b61010c610200565b005b61011661026a565b60408051600160a060020a039092168252519081900360200190f35b61013a610279565b604080519115158252519081900360200190f35b61010c6004803603606081101561016457600080fd5b50600160a060020a03813516906020810135906040013561028a565b61010c6004803603602081101561019657600080fd5b5035600160a060020a03166102d2565b6001602081905260009182526040909120805491015482565b6000806101ca61036e565b505050600160a060020a031660009081526001602081815260409283902083518085019094528054808552920154920182905291565b610208610279565b151561021357600080fd5b60008054604051600160a060020a03909116907f8be0079c531659141344cd1fd0a4f28419497f9722a3daafe3b4186f6b6457e0908390a36000805473ffffffffffffffffffffffffffffffffffffffff19169055565b600054600160a060020a031690565b600054600160a060020a0316331490565b610292610279565b151561029d57600080fd5b6040805180820182529283526020808401928352600160a060020a039094166000908152600194859052209151825551910155565b6102da610279565b15156102e557600080fd5b6102ee816102f1565b50565b600160a060020a038116151561030657600080fd5b60008054604051600160a060020a03808516939216917f8be0079c531659141344cd1fd0a4f28419497f9722a3daafe3b4186f6b6457e091a36000805473ffffffffffffffffffffffffffffffffffffffff1916600160a060020a0392909216919091179055565b60408051808201909152600080825260208201529056fea165627a7a72305820a15b07949a8268e292a801ae8a3c9b357683d15a20655e3f067d5d7e3bee15370029",
  "source": "pragma solidity ^0.5.4;\n\nimport \"../schemes/PriceOracleInterface.sol\";\nimport \"openzeppelin-solidity/contracts/ownership/Ownable.sol\";\n\n\ncontract PriceOracleMock is PriceOracleInterface, Ownable {\n\n    struct Price {\n        uint256 numerator;\n        uint256 denominator;\n    }\n\n    // user => amount\n    mapping (address => Price) public tokenPrices;\n\n    function getPrice(address token) public view returns (uint, uint) {\n        Price memory price = tokenPrices[token];\n        return (price.numerator, price.denominator);\n    }\n\n    function setTokenPrice(address token, uint256 numerator, uint256 denominator) public onlyOwner {\n        tokenPrices[token] = Price(numerator, denominator);\n    }\n}\n",
  "sourcePath": "/Users/oren/daostack/arc/contracts/test/PriceOracleMock.sol",
  "compiler": {
    "name": "solc",
    "version": "0.5.4+commit.9549d8ff.Emscripten.clang"
  },
  "schemaVersion": "3.0.9",
  "updatedAt": "2019-07-13T20:10:17.144Z",
  "devdoc": {
    "methods": {
      "isOwner()": {
        "return": "true if `msg.sender` is the owner of the contract."
      },
      "owner()": {
        "return": "the address of the owner."
      },
      "renounceOwnership()": {
        "details": "Allows the current owner to relinquish control of the contract."
      },
      "transferOwnership(address)": {
        "details": "Allows the current owner to transfer control of the contract to a newOwner.",
        "params": {
          "newOwner": "The address to transfer ownership to."
        }
      }
    }
  },
  "userdoc": {
    "methods": {
      "renounceOwnership()": {
        "notice": "Renouncing to ownership will leave the contract without an owner. It will not be possible to call the functions with the `onlyOwner` modifier anymore."
      }
    }
  }
}