{
  "contractName": "SafeERC20Mock",
  "abi": [
    {
      "constant": true,
      "inputs": [],
      "name": "token",
      "outputs": [
        {
          "name": "",
          "type": "address"
        }
      ],
      "payable": false,
      "stateMutability": "view",
      "type": "function"
    },
    {
      "inputs": [
        {
          "name": "_token",
          "type": "address"
        }
      ],
      "payable": false,
      "stateMutability": "nonpayable",
      "type": "constructor"
    },
    {
      "constant": false,
      "inputs": [
        {
          "name": "_to",
          "type": "address"
        },
        {
          "name": "_value",
          "type": "uint256"
        }
      ],
      "name": "transfer",
      "outputs": [
        {
          "name": "",
          "type": "bool"
        }
      ],
      "payable": false,
      "stateMutability": "nonpayable",
      "type": "function"
    },
    {
      "constant": false,
      "inputs": [
        {
          "name": "_to",
          "type": "address"
        },
        {
          "name": "_value",
          "type": "uint256"
        }
      ],
      "name": "transferWithFix",
      "outputs": [
        {
          "name": "",
          "type": "bool"
        }
      ],
      "payable": false,
      "stateMutability": "nonpayable",
      "type": "function"
    },
    {
      "constant": false,
      "inputs": [
        {
          "name": "_from",
          "type": "address"
        },
        {
          "name": "_to",
          "type": "address"
        },
        {
          "name": "_value",
          "type": "uint256"
        }
      ],
      "name": "transferFromWithFix",
      "outputs": [
        {
          "name": "",
          "type": "bool"
        }
      ],
      "payable": false,
      "stateMutability": "nonpayable",
      "type": "function"
    },
    {
      "constant": false,
      "inputs": [
        {
          "name": "_spender",
          "type": "address"
        },
        {
          "name": "_value",
          "type": "uint256"
        }
      ],
      "name": "approveWithFix",
      "outputs": [
        {
          "name": "",
          "type": "bool"
        }
      ],
      "payable": false,
      "stateMutability": "nonpayable",
      "type": "function"
    }
  ],
  "bytecode": "0x608060405234801561001057600080fd5b506040516020806108d98339810180604052602081101561003057600080fd5b505160008054600160a060020a03909216600160a060020a0319909216919091179055610877806100626000396000f3fe608060405234801561001057600080fd5b5060043610610073577c010000000000000000000000000000000000000000000000000000000060003504633a4ac55d81146100785780638a076ab2146100b8578063a9059cbb146100e4578063ac6e0f9014610110578063fc0c546a14610146575b600080fd5b6100a46004803603604081101561008e57600080fd5b50600160a060020a03813516906020013561016a565b604080519115158252519081900360200190f35b6100a4600480360360408110156100ce57600080fd5b50600160a060020a038135169060200135610192565b6100a4600480360360408110156100fa57600080fd5b50600160a060020a0381351690602001356101b0565b6100a46004803603606081101561012657600080fd5b50600160a060020a03813581169160208101359091169060400135610256565b61014e61027f565b60408051600160a060020a039092168252519081900360200190f35b6000805461018890600160a060020a0316848463ffffffff61028e16565b5060015b92915050565b6000805461018890600160a060020a0316848463ffffffff61052f16565b60008054604080517fa9059cbb000000000000000000000000000000000000000000000000000000008152600160a060020a038681166004830152602482018690529151919092169163a9059cbb91604480830192602092919082900301818787803b15801561021f57600080fd5b505af1158015610233573d6000803e3d6000fd5b505050506040513d602081101561024957600080fd5b5051151561018c57600080fd5b6000805461027590600160a060020a031685858563ffffffff61062616565b5060019392505050565b600054600160a060020a031681565b6102a083600160a060020a031661081e565b15156102ab57600080fd5b80158061034a5750604080517fdd62ed3e000000000000000000000000000000000000000000000000000000008152306004820152600160a060020a03848116602483015291519185169163dd62ed3e91604480820192602092909190829003018186803b15801561031c57600080fd5b505afa158015610330573d6000803e3d6000fd5b505050506040513d602081101561034657600080fd5b5051155b151561035557600080fd5b604080518082018252601881527f617070726f766528616464726573732c75696e743235362900000000000000006020918201528151600160a060020a0385811660248301526044808301869052845180840390910181526064909201845291810180517bffffffffffffffffffffffffffffffffffffffffffffffffffffffff167f095ea7b3000000000000000000000000000000000000000000000000000000001781529251815160009460609489169392918291908083835b602083106104305780518252601f199092019160209182019101610411565b6001836020036101000a0380198251168184511680821785525050505050509050019150506000604051808303816000865af19150503d8060008114610492576040519150601f19603f3d011682016040523d82523d6000602084013e610497565b606091505b50915091508115156104a857600080fd5b8051158061051d57508051602014801561051d575080601f8151811015156104cc57fe5b6020910101517f010000000000000000000000000000000000000000000000000000000000000090819004027fff000000000000000000000000000000000000000000000000000000000000001615155b151561052857600080fd5b5050505050565b61054183600160a060020a031661081e565b151561054c57600080fd5b604080518082018252601981527f7472616e7366657228616464726573732c75696e7432353629000000000000006020918201528151600160a060020a0385811660248301526044808301869052845180840390910181526064909201845291810180517bffffffffffffffffffffffffffffffffffffffffffffffffffffffff167fa9059cbb00000000000000000000000000000000000000000000000000000000178152925181516000946060948916939291829190808383602083106104305780518252601f199092019160209182019101610411565b61063884600160a060020a031661081e565b151561064357600080fd5b6000606085600160a060020a03166060604051908101604052806025815260200161082760259139805160209182012060408051600160a060020a03808b166024830152891660448201526064808201899052825180830390910181526084909101825292830180517bffffffffffffffffffffffffffffffffffffffffffffffffffffffff167fffffffff00000000000000000000000000000000000000000000000000000000909316929092178252518251909182918083835b6020831061071e5780518252601f1990920191602091820191016106ff565b6001836020036101000a0380198251168184511680821785525050505050509050019150506000604051808303816000865af19150503d8060008114610780576040519150601f19603f3d011682016040523d82523d6000602084013e610785565b606091505b509150915081151561079657600080fd5b8051158061080b57508051602014801561080b575080601f8151811015156107ba57fe5b6020910101517f010000000000000000000000000000000000000000000000000000000000000090819004027fff000000000000000000000000000000000000000000000000000000000000001615155b151561081657600080fd5b505050505050565b6000903b119056fe7472616e7366657246726f6d28616464726573732c616464726573732c75696e7432353629a165627a7a72305820b2940b3a5441b0e9651623385c936f07a70f87d4cd825fc74b02dd353c8f03bb0029",
  "source": "pragma solidity ^0.5.4;\n\nimport \"./BadERC20.sol\";\nimport \"openzeppelin-solidity/contracts/token/ERC20/IERC20.sol\";\nimport \"../libs/SafeERC20.sol\";\n\n\ncontract SafeERC20Mock {\n    using SafeERC20 for address;\n\n    address public token;\n\n    constructor(IERC20 _token) public {\n        token = address(_token);\n    }\n\n    function transfer(address _to, uint256 _value) public returns(bool) {\n        require(IERC20(token).transfer(_to, _value));\n    }\n\n    function transferWithFix(address _to, uint256 _value) public returns(bool) {\n        token.safeTransfer(_to, _value);\n        return true;\n    }\n\n    function transferFromWithFix(address _from, address _to, uint256 _value) public returns(bool) {\n        token.safeTransferFrom(_from, _to, _value);\n        return true;\n    }\n\n    function approveWithFix(address _spender, uint256 _value) public returns(bool) {\n        token.safeApprove(_spender, _value);\n        return true;\n    }\n\n}\n",
  "sourcePath": "/Users/oren/daostack/arc/contracts/test/SafeERC20Mock.sol",
  "compiler": {
    "name": "solc",
    "version": "0.5.4+commit.9549d8ff.Emscripten.clang"
  },
  "schemaVersion": "3.0.9",
  "updatedAt": "2019-07-13T20:10:17.145Z",
  "devdoc": {
    "methods": {}
  },
  "userdoc": {
    "methods": {}
  }
}