{
  "contractName": "Avatar",
  "abi": [
    {
      "constant": true,
      "inputs": [],
      "name": "orgName",
      "outputs": [
        {
          "internalType": "string",
          "name": "",
          "type": "string"
        }
      ],
      "payable": false,
      "stateMutability": "view",
      "type": "function"
    },
    {
      "constant": false,
      "inputs": [],
      "name": "renounceOwnership",
      "outputs": [],
      "payable": false,
      "stateMutability": "nonpayable",
      "type": "function"
    },
    {
      "constant": true,
      "inputs": [],
      "name": "nativeReputation",
      "outputs": [
        {
          "internalType": "contract Reputation",
          "name": "",
          "type": "address"
        }
      ],
      "payable": false,
      "stateMutability": "view",
      "type": "function"
    },
    {
      "constant": true,
      "inputs": [],
      "name": "owner",
      "outputs": [
        {
          "internalType": "address",
          "name": "",
          "type": "address"
        }
      ],
      "payable": false,
      "stateMutability": "view",
      "type": "function"
    },
    {
      "constant": true,
      "inputs": [],
      "name": "isOwner",
      "outputs": [
        {
          "internalType": "bool",
          "name": "",
          "type": "bool"
        }
      ],
      "payable": false,
      "stateMutability": "view",
      "type": "function"
    },
    {
      "constant": true,
      "inputs": [],
      "name": "nativeToken",
      "outputs": [
        {
          "internalType": "contract DAOToken",
          "name": "",
          "type": "address"
        }
      ],
      "payable": false,
      "stateMutability": "view",
      "type": "function"
    },
    {
      "constant": false,
      "inputs": [
        {
          "internalType": "address",
          "name": "newOwner",
          "type": "address"
        }
      ],
      "name": "transferOwnership",
      "outputs": [],
      "payable": false,
      "stateMutability": "nonpayable",
      "type": "function"
    },
    {
      "inputs": [
        {
          "internalType": "string",
          "name": "_orgName",
          "type": "string"
        },
        {
          "internalType": "contract DAOToken",
          "name": "_nativeToken",
          "type": "address"
        },
        {
          "internalType": "contract Reputation",
          "name": "_nativeReputation",
          "type": "address"
        }
      ],
      "payable": false,
      "stateMutability": "nonpayable",
      "type": "constructor"
    },
    {
      "payable": true,
      "stateMutability": "payable",
      "type": "fallback"
    },
    {
      "anonymous": false,
      "inputs": [
        {
          "indexed": true,
          "internalType": "address",
          "name": "_contract",
          "type": "address"
        },
        {
          "indexed": false,
          "internalType": "bytes",
          "name": "_data",
          "type": "bytes"
        },
        {
          "indexed": false,
          "internalType": "uint256",
          "name": "_value",
          "type": "uint256"
        },
        {
          "indexed": false,
          "internalType": "bool",
          "name": "_success",
          "type": "bool"
        }
      ],
      "name": "GenericCall",
      "type": "event"
    },
    {
      "anonymous": false,
      "inputs": [
        {
          "indexed": false,
          "internalType": "uint256",
          "name": "_amountInWei",
          "type": "uint256"
        },
        {
          "indexed": true,
          "internalType": "address",
          "name": "_to",
          "type": "address"
        }
      ],
      "name": "SendEther",
      "type": "event"
    },
    {
      "anonymous": false,
      "inputs": [
        {
          "indexed": true,
          "internalType": "address",
          "name": "_externalToken",
          "type": "address"
        },
        {
          "indexed": true,
          "internalType": "address",
          "name": "_to",
          "type": "address"
        },
        {
          "indexed": false,
          "internalType": "uint256",
          "name": "_value",
          "type": "uint256"
        }
      ],
      "name": "ExternalTokenTransfer",
      "type": "event"
    },
    {
      "anonymous": false,
      "inputs": [
        {
          "indexed": true,
          "internalType": "address",
          "name": "_externalToken",
          "type": "address"
        },
        {
          "indexed": false,
          "internalType": "address",
          "name": "_from",
          "type": "address"
        },
        {
          "indexed": false,
          "internalType": "address",
          "name": "_to",
          "type": "address"
        },
        {
          "indexed": false,
          "internalType": "uint256",
          "name": "_value",
          "type": "uint256"
        }
      ],
      "name": "ExternalTokenTransferFrom",
      "type": "event"
    },
    {
      "anonymous": false,
      "inputs": [
        {
          "indexed": true,
          "internalType": "address",
          "name": "_externalToken",
          "type": "address"
        },
        {
          "indexed": false,
          "internalType": "address",
          "name": "_spender",
          "type": "address"
        },
        {
          "indexed": false,
          "internalType": "uint256",
          "name": "_value",
          "type": "uint256"
        }
      ],
      "name": "ExternalTokenApproval",
      "type": "event"
    },
    {
      "anonymous": false,
      "inputs": [
        {
          "indexed": true,
          "internalType": "address",
          "name": "_sender",
          "type": "address"
        },
        {
          "indexed": false,
          "internalType": "uint256",
          "name": "_value",
          "type": "uint256"
        }
      ],
      "name": "ReceiveEther",
      "type": "event"
    },
    {
      "anonymous": false,
      "inputs": [
        {
          "indexed": false,
          "internalType": "string",
          "name": "_metaData",
          "type": "string"
        }
      ],
      "name": "MetaData",
      "type": "event"
    },
    {
      "anonymous": false,
      "inputs": [
        {
          "indexed": true,
          "internalType": "address",
          "name": "previousOwner",
          "type": "address"
        },
        {
          "indexed": true,
          "internalType": "address",
          "name": "newOwner",
          "type": "address"
        }
      ],
      "name": "OwnershipTransferred",
      "type": "event"
    },
    {
      "constant": false,
      "inputs": [
        {
          "internalType": "address",
          "name": "_contract",
          "type": "address"
        },
        {
          "internalType": "bytes",
          "name": "_data",
          "type": "bytes"
        },
        {
          "internalType": "uint256",
          "name": "_value",
          "type": "uint256"
        }
      ],
      "name": "genericCall",
      "outputs": [
        {
          "internalType": "bool",
          "name": "success",
          "type": "bool"
        },
        {
          "internalType": "bytes",
          "name": "returnValue",
          "type": "bytes"
        }
      ],
      "payable": false,
      "stateMutability": "nonpayable",
      "type": "function"
    },
    {
      "constant": false,
      "inputs": [
        {
          "internalType": "uint256",
          "name": "_amountInWei",
          "type": "uint256"
        },
        {
          "internalType": "address payable",
          "name": "_to",
          "type": "address"
        }
      ],
      "name": "sendEther",
      "outputs": [
        {
          "internalType": "bool",
          "name": "",
          "type": "bool"
        }
      ],
      "payable": false,
      "stateMutability": "nonpayable",
      "type": "function"
    },
    {
      "constant": false,
      "inputs": [
        {
          "internalType": "contract IERC20",
          "name": "_externalToken",
          "type": "address"
        },
        {
          "internalType": "address",
          "name": "_to",
          "type": "address"
        },
        {
          "internalType": "uint256",
          "name": "_value",
          "type": "uint256"
        }
      ],
      "name": "externalTokenTransfer",
      "outputs": [
        {
          "internalType": "bool",
          "name": "",
          "type": "bool"
        }
      ],
      "payable": false,
      "stateMutability": "nonpayable",
      "type": "function"
    },
    {
      "constant": false,
      "inputs": [
        {
          "internalType": "contract IERC20",
          "name": "_externalToken",
          "type": "address"
        },
        {
          "internalType": "address",
          "name": "_from",
          "type": "address"
        },
        {
          "internalType": "address",
          "name": "_to",
          "type": "address"
        },
        {
          "internalType": "uint256",
          "name": "_value",
          "type": "uint256"
        }
      ],
      "name": "externalTokenTransferFrom",
      "outputs": [
        {
          "internalType": "bool",
          "name": "",
          "type": "bool"
        }
      ],
      "payable": false,
      "stateMutability": "nonpayable",
      "type": "function"
    },
    {
      "constant": false,
      "inputs": [
        {
          "internalType": "contract IERC20",
          "name": "_externalToken",
          "type": "address"
        },
        {
          "internalType": "address",
          "name": "_spender",
          "type": "address"
        },
        {
          "internalType": "uint256",
          "name": "_value",
          "type": "uint256"
        }
      ],
      "name": "externalTokenApproval",
      "outputs": [
        {
          "internalType": "bool",
          "name": "",
          "type": "bool"
        }
      ],
      "payable": false,
      "stateMutability": "nonpayable",
      "type": "function"
    },
    {
      "constant": false,
      "inputs": [
        {
          "internalType": "string",
          "name": "_metaData",
          "type": "string"
        }
      ],
      "name": "metaData",
      "outputs": [
        {
          "internalType": "bool",
          "name": "",
          "type": "bool"
        }
      ],
      "payable": false,
      "stateMutability": "nonpayable",
      "type": "function"
    }
  ],
  "bytecode": "0x60806040523480156200001157600080fd5b506040516200147338038062001473833981810160405260608110156200003757600080fd5b81019080805160405193929190846401000000008211156200005857600080fd5b9083019060208201858111156200006e57600080fd5b82516401000000008111828201881017156200008957600080fd5b82525081516020918201929091019080838360005b83811015620000b85781810151838201526020016200009e565b50505050905090810190601f168015620000e65780820380516001836020036101000a031916815260200191505b5060408181526020830151920151600080546001600160a01b03191633178082559395509093506001600160a01b039290921691907f8be0079c531659141344cd1fd0a4f28419497f9722a3daafe3b4186f6b6457e0908290a382516200015590600190602086019062000189565b50600280546001600160a01b039384166001600160a01b03199182161790915560038054929093169116179055506200022e565b828054600181600116156101000203166002900490600052602060002090601f016020900481019282601f10620001cc57805160ff1916838001178555620001fc565b82800160010185558215620001fc579182015b82811115620001fc578251825591602001919060010190620001df565b506200020a9291506200020e565b5090565b6200022b91905b808211156200020a576000815560010162000215565b90565b611235806200023e6000396000f3fe6080604052600436106100c25760003560e01c80638f32d59b1161007f578063cb16d4a211610059578063cb16d4a214610491578063dab0efff146104ca578063e1758bd81461050d578063f2fde38b14610522576100c2565b80638f32d59b146103f0578063ab751f7114610405578063b756d5a214610448576100c2565b80631386dc2d146100fa5780632bf1645814610184578063715018a6146102cc578063890ac46c146102e357806389ae1c90146103aa5780638da5cb5b146103db575b60408051348152905133917ff32a9f77675fd5917534c7746608fd3e309eac68fbdcbf5925e24ca97a704396919081900360200190a2005b34801561010657600080fd5b5061010f610555565b6040805160208082528351818301528351919283929083019185019080838360005b83811015610149578181015183820152602001610131565b50505050905090810190601f1680156101765780820380516001836020036101000a031916815260200191505b509250505060405180910390f35b34801561019057600080fd5b50610249600480360360608110156101a757600080fd5b6001600160a01b0382351691908101906040810160208201356401000000008111156101d257600080fd5b8201836020820111156101e457600080fd5b8035906020019184600183028401116401000000008311171561020657600080fd5b91908080601f01602080910402602001604051908101604052809392919081815260200183838082843760009201919091525092955050913592506105e2915050565b604051808315151515815260200180602001828103825283818151815260200191508051906020019080838360005b83811015610290578181015183820152602001610278565b50505050905090810190601f1680156102bd5780820380516001836020036101000a031916815260200191505b50935050505060405180910390f35b3480156102d857600080fd5b506102e1610797565b005b3480156102ef57600080fd5b506103966004803603602081101561030657600080fd5b81019060208101813564010000000081111561032157600080fd5b82018360208201111561033357600080fd5b8035906020019184600183028401116401000000008311171561035557600080fd5b91908080601f016020809104026020016040519081016040528093929190818152602001838380828437600092019190915250929550610828945050505050565b604080519115158252519081900360200190f35b3480156103b657600080fd5b506103bf610912565b604080516001600160a01b039092168252519081900360200190f35b3480156103e757600080fd5b506103bf610921565b3480156103fc57600080fd5b50610396610930565b34801561041157600080fd5b506103966004803603606081101561042857600080fd5b506001600160a01b03813581169160208101359091169060400135610941565b34801561045457600080fd5b506103966004803603608081101561046b57600080fd5b506001600160a01b038135811691602081013582169160408201351690606001356109f4565b34801561049d57600080fd5b50610396600480360360408110156104b457600080fd5b50803590602001356001600160a01b0316610ab2565b3480156104d657600080fd5b50610396600480360360608110156104ed57600080fd5b506001600160a01b03813581169160208101359091169060400135610b7a565b34801561051957600080fd5b506103bf610c32565b34801561052e57600080fd5b506102e16004803603602081101561054557600080fd5b50356001600160a01b0316610c41565b60018054604080516020600284861615610100026000190190941693909304601f810184900484028201840190925281815292918301828280156105da5780601f106105af576101008083540402835291602001916105da565b820191906000526020600020905b8154815290600101906020018083116105bd57829003601f168201915b505050505081565b600060606105ee610930565b61062d576040805162461bcd60e51b815260206004820181905260248201526000805160206111e1833981519152604482015290519081900360640190fd5b846001600160a01b031683856040518082805190602001908083835b602083106106685780518252601f199092019160209182019101610649565b6001836020036101000a03801982511681845116808217855250505050505090500191505060006040518083038185875af1925050503d80600081146106ca576040519150601f19603f3d011682016040523d82523d6000602084013e6106cf565b606091505b508092508193505050846001600160a01b03167f534b52c783549f909f9e743120524d0b7154058e4a54cdc895c2c0b587a1c7e0858585604051808060200184815260200183151515158152602001828103825285818151815260200191508051906020019080838360005b8381101561075357818101518382015260200161073b565b50505050905090810190601f1680156107805780820380516001836020036101000a031916815260200191505b5094505050505060405180910390a2935093915050565b61079f610930565b6107de576040805162461bcd60e51b815260206004820181905260248201526000805160206111e1833981519152604482015290519081900360640190fd5b600080546040516001600160a01b03909116907f8be0079c531659141344cd1fd0a4f28419497f9722a3daafe3b4186f6b6457e0908390a3600080546001600160a01b0319169055565b6000610832610930565b610871576040805162461bcd60e51b815260206004820181905260248201526000805160206111e1833981519152604482015290519081900360640190fd5b7ff9deba4938ba20070ec5a45ddf59bccba49cf83124215228ec1232182ef0ba2b826040518080602001828103825283818151815260200191508051906020019080838360005b838110156108d05781810151838201526020016108b8565b50505050905090810190601f1680156108fd5780820380516001836020036101000a031916815260200191505b509250505060405180910390a1506001919050565b6003546001600160a01b031681565b6000546001600160a01b031690565b6000546001600160a01b0316331490565b600061094b610930565b61098a576040805162461bcd60e51b815260206004820181905260248201526000805160206111e1833981519152604482015290519081900360640190fd5b6109a46001600160a01b038516848463ffffffff610c9416565b604080516001600160a01b038581168252602082018590528251908716927f3a48a4d6253b30fd10e57a347c1f9bcb0604946481fae0b2fdad6e74f2a9cbb3928290030190a25060019392505050565b60006109fe610930565b610a3d576040805162461bcd60e51b815260206004820181905260248201526000805160206111e1833981519152604482015290519081900360640190fd5b610a586001600160a01b03861685858563ffffffff610ea516565b604080516001600160a01b03868116825285811660208301528183018590529151918716917f179c15de44aa7ab84896301974328eb40b5b40fe01cfe0fee2924ea712c3e8439181900360600190a2506001949350505050565b6000610abc610930565b610afb576040805162461bcd60e51b815260206004820181905260248201526000805160206111e1833981519152604482015290519081900360640190fd5b6040516001600160a01b0383169084156108fc029085906000818181858888f19350505050158015610b31573d6000803e3d6000fd5b506040805184815290516001600160a01b038416917f22fca66666089f39bc900dd6605b489df4aae6260cc8ea8257594cfb8c84926c919081900360200190a250600192915050565b6000610b84610930565b610bc3576040805162461bcd60e51b815260206004820181905260248201526000805160206111e1833981519152604482015290519081900360640190fd5b610bdd6001600160a01b038516848463ffffffff61102816565b826001600160a01b0316846001600160a01b03167f49dc2a60d2599a7b6932d78fb694c30dfc596fe4e0282b5d0fd184b52472c04d846040518082815260200191505060405180910390a35060019392505050565b6002546001600160a01b031681565b610c49610930565b610c88576040805162461bcd60e51b815260206004820181905260248201526000805160206111e1833981519152604482015290519081900360640190fd5b610c91816110ef565b50565b610ca6836001600160a01b031661118f565b610caf57600080fd5b801580610d35575060408051636eb1769f60e11b81523060048201526001600160a01b03848116602483015291519185169163dd62ed3e91604480820192602092909190829003018186803b158015610d0757600080fd5b505afa158015610d1b573d6000803e3d6000fd5b505050506040513d6020811015610d3157600080fd5b5051155b610d3e57600080fd5b604080518082018252601881527f617070726f766528616464726573732c75696e7432353629000000000000000060209182015281516001600160a01b0385811660248301526044808301869052845180840390910181526064909201845291810180516001600160e01b031663095ea7b360e01b1781529251815160009460609489169392918291908083835b60208310610deb5780518252601f199092019160209182019101610dcc565b6001836020036101000a0380198251168184511680821785525050505050509050019150506000604051808303816000865af19150503d8060008114610e4d576040519150601f19603f3d011682016040523d82523d6000602084013e610e52565b606091505b509150915081610e6157600080fd5b80511580610e95575080516020148015610e95575080601f81518110610e8357fe5b01602001516001600160f81b03191615155b610e9e57600080fd5b5050505050565b610eb7846001600160a01b031661118f565b610ec057600080fd5b60006060856001600160a01b0316604051806060016040528060258152602001611196602591398051602091820120604080516001600160a01b03808b166024830152891660448201526064808201899052825180830390910181526084909101825292830180516001600160e01b03166001600160e01b0319909316929092178252518251909182918083835b60208310610f6d5780518252601f199092019160209182019101610f4e565b6001836020036101000a0380198251168184511680821785525050505050509050019150506000604051808303816000865af19150503d8060008114610fcf576040519150601f19603f3d011682016040523d82523d6000602084013e610fd4565b606091505b509150915081610fe357600080fd5b80511580611017575080516020148015611017575080601f8151811061100557fe5b01602001516001600160f81b03191615155b61102057600080fd5b505050505050565b61103a836001600160a01b031661118f565b61104357600080fd5b604080518082018252601981527f7472616e7366657228616464726573732c75696e74323536290000000000000060209182015281516001600160a01b0385811660248301526044808301869052845180840390910181526064909201845291810180516001600160e01b031663a9059cbb60e01b17815292518151600094606094891693929182919080838360208310610deb5780518252601f199092019160209182019101610dcc565b6001600160a01b0381166111345760405162461bcd60e51b81526004018080602001828103825260268152602001806111bb6026913960400191505060405180910390fd5b600080546040516001600160a01b03808516939216917f8be0079c531659141344cd1fd0a4f28419497f9722a3daafe3b4186f6b6457e091a3600080546001600160a01b0319166001600160a01b0392909216919091179055565b3b15159056fe7472616e7366657246726f6d28616464726573732c616464726573732c75696e74323536294f776e61626c653a206e6577206f776e657220697320746865207a65726f20616464726573734f776e61626c653a2063616c6c6572206973206e6f7420746865206f776e6572a265627a7a72315820c009a71ce255c674f0fe112f82046c542df4b6a63723fd4e4415a1b141eb950464736f6c634300050b0032",
  "source": "pragma solidity ^0.5.11;\n\nimport \"@daostack/infra/contracts/Reputation.sol\";\nimport \"./DAOToken.sol\";\nimport \"openzeppelin-solidity/contracts/ownership/Ownable.sol\";\nimport \"openzeppelin-solidity/contracts/token/ERC20/IERC20.sol\";\nimport \"../libs/SafeERC20.sol\";\n\n\n/**\n * @title An Avatar holds tokens, reputation and ether for a controller\n */\ncontract Avatar is Ownable {\n    using SafeERC20 for address;\n\n    string public orgName;\n    DAOToken public nativeToken;\n    Reputation public nativeReputation;\n\n    event GenericCall(address indexed _contract, bytes _data, uint _value, bool _success);\n    event SendEther(uint256 _amountInWei, address indexed _to);\n    event ExternalTokenTransfer(address indexed _externalToken, address indexed _to, uint256 _value);\n    event ExternalTokenTransferFrom(address indexed _externalToken, address _from, address _to, uint256 _value);\n    event ExternalTokenApproval(address indexed _externalToken, address _spender, uint256 _value);\n    event ReceiveEther(address indexed _sender, uint256 _value);\n    event MetaData(string _metaData);\n\n    /**\n    * @dev the constructor takes organization name, native token and reputation system\n    and creates an avatar for a controller\n    */\n    constructor(string memory _orgName, DAOToken _nativeToken, Reputation _nativeReputation) public {\n        orgName = _orgName;\n        nativeToken = _nativeToken;\n        nativeReputation = _nativeReputation;\n    }\n\n    /**\n    * @dev enables an avatar to receive ethers\n    */\n    function() external payable {\n        emit ReceiveEther(msg.sender, msg.value);\n    }\n\n    /**\n    * @dev perform a generic call to an arbitrary contract\n    * @param _contract  the contract's address to call\n    * @param _data ABI-encoded contract call to call `_contract` address.\n    * @param _value value (ETH) to transfer with the transaction\n    * @return bool    success or fail\n    *         bytes - the return bytes of the called contract's function.\n    */\n    function genericCall(address _contract, bytes memory _data, uint256 _value)\n    public\n    onlyOwner\n    returns(bool success, bytes memory returnValue) {\n      // solhint-disable-next-line avoid-call-value\n        (success, returnValue) = _contract.call.value(_value)(_data);\n        emit GenericCall(_contract, _data, _value, success);\n    }\n\n    /**\n    * @dev send ethers from the avatar's wallet\n    * @param _amountInWei amount to send in Wei units\n    * @param _to send the ethers to this address\n    * @return bool which represents success\n    */\n    function sendEther(uint256 _amountInWei, address payable _to) public onlyOwner returns(bool) {\n        _to.transfer(_amountInWei);\n        emit SendEther(_amountInWei, _to);\n        return true;\n    }\n\n    /**\n    * @dev external token transfer\n    * @param _externalToken the token contract\n    * @param _to the destination address\n    * @param _value the amount of tokens to transfer\n    * @return bool which represents success\n    */\n    function externalTokenTransfer(IERC20 _externalToken, address _to, uint256 _value)\n    public onlyOwner returns(bool)\n    {\n        address(_externalToken).safeTransfer(_to, _value);\n        emit ExternalTokenTransfer(address(_externalToken), _to, _value);\n        return true;\n    }\n\n    /**\n    * @dev external token transfer from a specific account\n    * @param _externalToken the token contract\n    * @param _from the account to spend token from\n    * @param _to the destination address\n    * @param _value the amount of tokens to transfer\n    * @return bool which represents success\n    */\n    function externalTokenTransferFrom(\n        IERC20 _externalToken,\n        address _from,\n        address _to,\n        uint256 _value\n    )\n    public onlyOwner returns(bool)\n    {\n        address(_externalToken).safeTransferFrom(_from, _to, _value);\n        emit ExternalTokenTransferFrom(address(_externalToken), _from, _to, _value);\n        return true;\n    }\n\n    /**\n    * @dev externalTokenApproval approve the spender address to spend a specified amount of tokens\n    *      on behalf of msg.sender.\n    * @param _externalToken the address of the Token Contract\n    * @param _spender address\n    * @param _value the amount of ether (in Wei) which the approval is referring to.\n    * @return bool which represents a success\n    */\n    function externalTokenApproval(IERC20 _externalToken, address _spender, uint256 _value)\n    public onlyOwner returns(bool)\n    {\n        address(_externalToken).safeApprove(_spender, _value);\n        emit ExternalTokenApproval(address(_externalToken), _spender, _value);\n        return true;\n    }\n\n    /**\n    * @dev metaData emits an event with a string, should contain the hash of some meta data.\n    * @param _metaData a string representing a hash of the meta data\n    * @return bool which represents a success\n    */\n    function metaData(string memory _metaData) public onlyOwner returns(bool) {\n        emit MetaData(_metaData);\n        return true;\n    }\n\n\n}\n",
  "sourcePath": "/Users/oren/daostack/arc/contracts/controller/Avatar.sol",
  "compiler": {
    "name": "solc",
    "version": "0.5.11+commit.c082d0b4.Emscripten.clang"
  },
  "schemaVersion": "3.0.14",
  "updatedAt": "2019-09-22T09:06:20.958Z",
  "devdoc": {
    "methods": {
      "constructor": {
        "details": "the constructor takes organization name, native token and reputation system and creates an avatar for a controller"
      },
      "externalTokenApproval(address,address,uint256)": {
        "details": "externalTokenApproval approve the spender address to spend a specified amount of tokens     on behalf of msg.sender.",
        "params": {
          "_externalToken": "the address of the Token Contract",
          "_spender": "address",
          "_value": "the amount of ether (in Wei) which the approval is referring to."
        },
        "return": "bool which represents a success"
      },
      "externalTokenTransfer(address,address,uint256)": {
        "details": "external token transfer",
        "params": {
          "_externalToken": "the token contract",
          "_to": "the destination address",
          "_value": "the amount of tokens to transfer"
        },
        "return": "bool which represents success"
      },
      "externalTokenTransferFrom(address,address,address,uint256)": {
        "details": "external token transfer from a specific account",
        "params": {
          "_externalToken": "the token contract",
          "_from": "the account to spend token from",
          "_to": "the destination address",
          "_value": "the amount of tokens to transfer"
        },
        "return": "bool which represents success"
      },
      "genericCall(address,bytes,uint256)": {
        "details": "perform a generic call to an arbitrary contract",
        "params": {
          "_contract": "the contract's address to call",
          "_data": "ABI-encoded contract call to call `_contract` address.",
          "_value": "value (ETH) to transfer with the transaction"
        },
        "return": "bool    success or fail        bytes - the return bytes of the called contract's function."
      },
      "isOwner()": {
        "details": "Returns true if the caller is the current owner."
      },
      "metaData(string)": {
        "details": "metaData emits an event with a string, should contain the hash of some meta data.",
        "params": {
          "_metaData": "a string representing a hash of the meta data"
        },
        "return": "bool which represents a success"
      },
      "owner()": {
        "details": "Returns the address of the current owner."
      },
      "renounceOwnership()": {
        "details": "Leaves the contract without owner. It will not be possible to call `onlyOwner` functions anymore. Can only be called by the current owner.     * > Note: Renouncing ownership will leave the contract without an owner, thereby removing any functionality that is only available to the owner."
      },
      "sendEther(uint256,address)": {
        "details": "send ethers from the avatar's wallet",
        "params": {
          "_amountInWei": "amount to send in Wei units",
          "_to": "send the ethers to this address"
        },
        "return": "bool which represents success"
      },
      "transferOwnership(address)": {
        "details": "Transfers ownership of the contract to a new account (`newOwner`). Can only be called by the current owner."
      }
    },
    "title": "An Avatar holds tokens, reputation and ether for a controller"
  },
  "userdoc": {
    "methods": {}
  }
}