{
  "contractName": "ContinuousLocking4Reputation",
  "abi": [
    {
      "constant": true,
      "inputs": [],
      "name": "repRewardConstB",
      "outputs": [
        {
          "internalType": "uint256",
          "name": "",
          "type": "uint256"
        }
      ],
      "payable": false,
      "stateMutability": "view",
      "type": "function"
    },
    {
      "constant": true,
      "inputs": [],
      "name": "redeemEnableTime",
      "outputs": [
        {
          "internalType": "uint256",
          "name": "",
          "type": "uint256"
        }
      ],
      "payable": false,
      "stateMutability": "view",
      "type": "function"
    },
    {
      "constant": true,
      "inputs": [],
      "name": "repRewardConstA",
      "outputs": [
        {
          "internalType": "uint256",
          "name": "",
          "type": "uint256"
        }
      ],
      "payable": false,
      "stateMutability": "view",
      "type": "function"
    },
    {
      "constant": true,
      "inputs": [],
      "name": "avatar",
      "outputs": [
        {
          "internalType": "contract Avatar",
          "name": "",
          "type": "address"
        }
      ],
      "payable": false,
      "stateMutability": "view",
      "type": "function"
    },
    {
      "constant": true,
      "inputs": [],
      "name": "maxLockingBatches",
      "outputs": [
        {
          "internalType": "uint256",
          "name": "",
          "type": "uint256"
        }
      ],
      "payable": false,
      "stateMutability": "view",
      "type": "function"
    },
    {
      "constant": true,
      "inputs": [],
      "name": "MAX_LOCKING_BATCHES_HARDCAP",
      "outputs": [
        {
          "internalType": "uint256",
          "name": "",
          "type": "uint256"
        }
      ],
      "payable": false,
      "stateMutability": "view",
      "type": "function"
    },
    {
      "constant": true,
      "inputs": [],
      "name": "getAgreementHash",
      "outputs": [
        {
          "internalType": "bytes32",
          "name": "",
          "type": "bytes32"
        }
      ],
      "payable": false,
      "stateMutability": "view",
      "type": "function"
    },
    {
      "constant": true,
      "inputs": [],
      "name": "batchTime",
      "outputs": [
        {
          "internalType": "uint256",
          "name": "",
          "type": "uint256"
        }
      ],
      "payable": false,
      "stateMutability": "view",
      "type": "function"
    },
    {
      "constant": true,
      "inputs": [],
      "name": "batchesIndexCap",
      "outputs": [
        {
          "internalType": "uint256",
          "name": "",
          "type": "uint256"
        }
      ],
      "payable": false,
      "stateMutability": "view",
      "type": "function"
    },
    {
      "constant": true,
      "inputs": [],
      "name": "startTime",
      "outputs": [
        {
          "internalType": "uint256",
          "name": "",
          "type": "uint256"
        }
      ],
      "payable": false,
      "stateMutability": "view",
      "type": "function"
    },
    {
      "constant": true,
      "inputs": [],
      "name": "lockCounter",
      "outputs": [
        {
          "internalType": "uint256",
          "name": "",
          "type": "uint256"
        }
      ],
      "payable": false,
      "stateMutability": "view",
      "type": "function"
    },
    {
      "constant": true,
      "inputs": [
        {
          "internalType": "address",
          "name": "",
          "type": "address"
        },
        {
          "internalType": "uint256",
          "name": "",
          "type": "uint256"
        }
      ],
      "name": "lockers",
      "outputs": [
        {
          "internalType": "uint256",
          "name": "amount",
          "type": "uint256"
        },
        {
          "internalType": "uint256",
          "name": "lockingTime",
          "type": "uint256"
        },
        {
          "internalType": "uint256",
          "name": "period",
          "type": "uint256"
        }
      ],
      "payable": false,
      "stateMutability": "view",
      "type": "function"
    },
    {
      "constant": true,
      "inputs": [],
      "name": "reputationRewardLeft",
      "outputs": [
        {
          "internalType": "uint256",
          "name": "",
          "type": "uint256"
        }
      ],
      "payable": false,
      "stateMutability": "view",
      "type": "function"
    },
    {
      "constant": true,
      "inputs": [
        {
          "internalType": "uint256",
          "name": "",
          "type": "uint256"
        }
      ],
      "name": "batches",
      "outputs": [
        {
          "internalType": "uint256",
          "name": "totalScore",
          "type": "uint256"
        }
      ],
      "payable": false,
      "stateMutability": "view",
      "type": "function"
    },
    {
      "constant": true,
      "inputs": [],
      "name": "totalLockedLeft",
      "outputs": [
        {
          "internalType": "uint256",
          "name": "",
          "type": "uint256"
        }
      ],
      "payable": false,
      "stateMutability": "view",
      "type": "function"
    },
    {
      "constant": true,
      "inputs": [],
      "name": "token",
      "outputs": [
        {
          "internalType": "contract IERC20",
          "name": "",
          "type": "address"
        }
      ],
      "payable": false,
      "stateMutability": "view",
      "type": "function"
    },
    {
      "anonymous": false,
      "inputs": [
        {
          "indexed": true,
          "internalType": "uint256",
          "name": "_lockingId",
          "type": "uint256"
        },
        {
          "indexed": true,
          "internalType": "address",
          "name": "_beneficiary",
          "type": "address"
        },
        {
          "indexed": false,
          "internalType": "uint256",
          "name": "_amount",
          "type": "uint256"
        },
        {
          "indexed": false,
          "internalType": "uint256",
          "name": "_batchIndex",
          "type": "uint256"
        }
      ],
      "name": "Redeem",
      "type": "event"
    },
    {
      "anonymous": false,
      "inputs": [
        {
          "indexed": true,
          "internalType": "uint256",
          "name": "_lockingId",
          "type": "uint256"
        },
        {
          "indexed": true,
          "internalType": "address",
          "name": "_beneficiary",
          "type": "address"
        },
        {
          "indexed": false,
          "internalType": "uint256",
          "name": "_amount",
          "type": "uint256"
        }
      ],
      "name": "Release",
      "type": "event"
    },
    {
      "anonymous": false,
      "inputs": [
        {
          "indexed": true,
          "internalType": "address",
          "name": "_locker",
          "type": "address"
        },
        {
          "indexed": true,
          "internalType": "uint256",
          "name": "_lockingId",
          "type": "uint256"
        },
        {
          "indexed": false,
          "internalType": "uint256",
          "name": "_amount",
          "type": "uint256"
        },
        {
          "indexed": false,
          "internalType": "uint256",
          "name": "_period",
          "type": "uint256"
        }
      ],
      "name": "LockToken",
      "type": "event"
    },
    {
      "anonymous": false,
      "inputs": [
        {
          "indexed": true,
          "internalType": "address",
          "name": "_locker",
          "type": "address"
        },
        {
          "indexed": true,
          "internalType": "uint256",
          "name": "_lockingId",
          "type": "uint256"
        },
        {
          "indexed": false,
          "internalType": "uint256",
          "name": "_extendPeriod",
          "type": "uint256"
        }
      ],
      "name": "ExtendLocking",
      "type": "event"
    },
    {
      "constant": false,
      "inputs": [
        {
          "internalType": "contract Avatar",
          "name": "_avatar",
          "type": "address"
        },
        {
          "internalType": "uint256",
          "name": "_reputationReward",
          "type": "uint256"
        },
        {
          "internalType": "uint256",
          "name": "_startTime",
          "type": "uint256"
        },
        {
          "internalType": "uint256",
          "name": "_batchTime",
          "type": "uint256"
        },
        {
          "internalType": "uint256",
          "name": "_redeemEnableTime",
          "type": "uint256"
        },
        {
          "internalType": "uint256",
          "name": "_maxLockingBatches",
          "type": "uint256"
        },
        {
          "internalType": "uint256",
          "name": "_repRewardConstA",
          "type": "uint256"
        },
        {
          "internalType": "uint256",
          "name": "_repRewardConstB",
          "type": "uint256"
        },
        {
          "internalType": "uint256",
          "name": "_batchesIndexCap",
          "type": "uint256"
        },
        {
          "internalType": "contract IERC20",
          "name": "_token",
          "type": "address"
        },
        {
          "internalType": "bytes32",
          "name": "_agreementHash",
          "type": "bytes32"
        }
      ],
      "name": "initialize",
      "outputs": [],
      "payable": false,
      "stateMutability": "nonpayable",
      "type": "function"
    },
    {
      "constant": false,
      "inputs": [
        {
          "internalType": "address",
          "name": "_beneficiary",
          "type": "address"
        },
        {
          "internalType": "uint256",
          "name": "_lockingId",
          "type": "uint256"
        }
      ],
      "name": "redeem",
      "outputs": [
        {
          "internalType": "uint256",
          "name": "reputation",
          "type": "uint256"
        }
      ],
      "payable": false,
      "stateMutability": "nonpayable",
      "type": "function"
    },
    {
      "constant": false,
      "inputs": [
        {
          "internalType": "uint256",
          "name": "_amount",
          "type": "uint256"
        },
        {
          "internalType": "uint256",
          "name": "_period",
          "type": "uint256"
        },
        {
          "internalType": "uint256",
          "name": "_batchIndexToLockIn",
          "type": "uint256"
        },
        {
          "internalType": "bytes32",
          "name": "_agreementHash",
          "type": "bytes32"
        }
      ],
      "name": "lock",
      "outputs": [
        {
          "internalType": "uint256",
          "name": "lockingId",
          "type": "uint256"
        }
      ],
      "payable": false,
      "stateMutability": "nonpayable",
      "type": "function"
    },
    {
      "constant": false,
      "inputs": [
        {
          "internalType": "uint256",
          "name": "_extendPeriod",
          "type": "uint256"
        },
        {
          "internalType": "uint256",
          "name": "_batchIndexToLockIn",
          "type": "uint256"
        },
        {
          "internalType": "uint256",
          "name": "_lockingId",
          "type": "uint256"
        },
        {
          "internalType": "bytes32",
          "name": "_agreementHash",
          "type": "bytes32"
        }
      ],
      "name": "extendLocking",
      "outputs": [],
      "payable": false,
      "stateMutability": "nonpayable",
      "type": "function"
    },
    {
      "constant": false,
      "inputs": [
        {
          "internalType": "address",
          "name": "_beneficiary",
          "type": "address"
        },
        {
          "internalType": "uint256",
          "name": "_lockingId",
          "type": "uint256"
        }
      ],
      "name": "release",
      "outputs": [
        {
          "internalType": "uint256",
          "name": "amount",
          "type": "uint256"
        }
      ],
      "payable": false,
      "stateMutability": "nonpayable",
      "type": "function"
    },
    {
      "constant": true,
      "inputs": [
        {
          "internalType": "uint256",
          "name": "_batchIndex",
          "type": "uint256"
        }
      ],
      "name": "getRepRewardPerBatch",
      "outputs": [
        {
          "internalType": "uint256",
          "name": "repReward",
          "type": "uint256"
        }
      ],
      "payable": false,
      "stateMutability": "view",
      "type": "function"
    },
    {
      "constant": true,
      "inputs": [
        {
          "internalType": "uint256",
          "name": "_batchIndex",
          "type": "uint256"
        },
        {
          "internalType": "uint256",
          "name": "_lockingId",
          "type": "uint256"
        }
      ],
      "name": "getLockingIdScore",
      "outputs": [
        {
          "internalType": "uint256",
          "name": "",
          "type": "uint256"
        }
      ],
      "payable": false,
      "stateMutability": "view",
      "type": "function"
    }
  ],
  "bytecode": "0x608060405234801561001057600080fd5b50611a0a806100206000396000f3fe608060405234801561001057600080fd5b506004361061014d5760003560e01c80636e57307b116100c3578063afe0e33c1161007c578063afe0e33c146102f7578063b32c4d8d146102ff578063c348a24b1461031c578063ef5a3e4a14610324578063f6a7400114610347578063fc0c546a146103b15761014d565b80636e57307b14610235578063746c0a601461026657806378e979251461026e5780637b3e46f8146102765780638db564c2146102a5578063a6e1a54c146102ad5761014d565b8063591451f711610115578063591451f7146101e95780635aef7de6146101f15780635b42f48b146102155780635eff3f291461021d578063696da921146102255780636c9d43b61461022d5761014d565b8063029489a9146101525780630357371d1461018157806303840c6c146101ad5780631e9a6950146101b55780633d1678f4146101e1575b600080fd5b61016f6004803603602081101561016857600080fd5b50356103b9565b60408051918252519081900360200190f35b61016f6004803603604081101561019757600080fd5b506001600160a01b0381351690602001356103ec565b61016f610547565b61016f600480360360408110156101cb57600080fd5b506001600160a01b03813516906020013561054d565b61016f6108d5565b61016f6108db565b6101f96108e1565b604080516001600160a01b039092168252519081900360200190f35b61016f6108f0565b61016f6108f6565b61016f6108fb565b61016f610901565b6102646004803603608081101561024b57600080fd5b5080359060208101359060408101359060600135610907565b005b61016f610be7565b61016f610bed565b61016f6004803603608081101561028c57600080fd5b5080359060208101359060408101359060600135610bf3565b61016f610ef8565b6102d9600480360360408110156102c357600080fd5b506001600160a01b038135169060200135610efe565b60408051938452602084019290925282820152519081900360600190f35b61016f610f26565b61016f6004803603602081101561031557600080fd5b5035610f2c565b61016f610f3e565b61016f6004803603604081101561033a57600080fd5b5080359060200135610f44565b610264600480360361016081101561035e57600080fd5b506001600160a01b03813581169160208101359160408201359160608101359160808201359160a08101359160c08201359160e08101359161010082013591610120810135909116906101400135610f65565b6101f961123a565b6000600e5482116103e7576103e4600c546103df84600d5461124990919063ffffffff16565b61129a565b90505b919050565b6001600160a01b038216600090815260016020908152604080832084845290915281208054610462576040805162461bcd60e51b815260206004820152601860248201527f6e6f20616d6f756e74206c65667420746f20756e6c6f636b0000000000000000604482015290519081900360640190fd5b80546000825560085460028301546001840154929450020142116104cd576040805162461bcd60e51b815260206004820152601e60248201527f6c6f636b696e6720706572696f64206973207374696c6c206163746976650000604482015290519081900360640190fd5b600b546104e0908363ffffffff6112fe16565b600b55600954610500906001600160a01b0316858463ffffffff61135b16565b6040805183815290516001600160a01b0386169185917fe332e9963bc980fb82ccd3e7e181d76bddde349eec46b4ba393f3444529cd17f9181900360200190a35092915050565b600d5481565b6000600654421161059e576040805162461bcd60e51b81526020600482015260166024820152756e6f77203e2072656465656d456e61626c6554696d6560501b604482015290519081900360640190fd5b6001600160a01b0383166000908152600160208181526040808420868552909152822060085460055492820154919392909103816105d857fe5b04905060006008546005544203816105ec57fe5b049050600061060a84600201548401836114dd90919063ffffffff16565b90505b80831015610702576000838152600260209081526040808320898452600181019092529091205480156106f55760008881526001830160205260408120819055610656866103b9565b9050600061066c610666846114f5565b8361129a565b905060006106868261068187600001546114f5565b61150a565b90506106988a8263ffffffff61152316565b99508b6001600160a01b03168b7facf9103edd7d12d169ab5037ce643ee56e59d5986362a9e903d86f2544fefcaa6106cf8461157d565b604080516001600160d81b03929092168252602082018d90528051918290030190a35050505b505060019092019161060d565b61070b8561157d565b6001600160d81b031694506000851161076b576040805162461bcd60e51b815260206004820152601960248201527f72657075746174696f6e20746f2072656465656d206973203000000000000000604482015290519081900360640190fd5b60045461077e908663ffffffff6112fe16565b600490815560035460408051638da5cb5b60e01b815290516001600160a01b0390921692638da5cb5b928282019260209290829003018186803b1580156107c457600080fd5b505afa1580156107d8573d6000803e3d6000fd5b505050506040513d60208110156107ee57600080fd5b50516003546040805163757cca5960e11b8152600481018990526001600160a01b038b8116602483015292831660448201529051919092169163eaf994b29160648083019260209291908290030181600087803b15801561084e57600080fd5b505af1158015610862573d6000803e3d6000fd5b505050506040513d602081101561087857600080fd5b50516108cb576040805162461bcd60e51b815260206004820152601e60248201527f6d696e742072657075746174696f6e2073686f756c6420737563636565640000604482015290519081900360640190fd5b5050505092915050565b60065481565b600c5481565b6003546001600160a01b031681565b60075481565b601881565b60005490565b60085481565b8060005481146109485760405162461bcd60e51b81526004018080602001828103825260288152602001806118bc6028913960400191505060405180910390fd5b336000908152600160208181526040808420878552909152909120908101546109b8576040805162461bcd60e51b815260206004820152601960248201527f5f6c6f636b696e67496420646f6573206e6f7420657869737400000000000000604482015290519081900360640190fd5b60006109e88660085460055460085486600201540286600101540103816109db57fe5b049063ffffffff6112fe16565b60075490915087820190811115610a305760405162461bcd60e51b815260040180806020018281038252602a815260200180611832602a913960400191505060405180910390fd5b60008811610a85576040805162461bcd60e51b815260206004820152601960248201527f5f657874656e64506572696f64206d757374206265203e203000000000000000604482015290519081900360640190fd5b600e548188011115610ac85760405162461bcd60e51b81526004018080602001828103825260288152602001806119406028913960400191505060405180910390fd5b6000600854600554420381610ad957fe5b049050878114610b28576040805162461bcd60e51b81526020600482015260156024820152746c6f636b696e67206973206e6f742061637469766560581b604482015290519081900360640190fd5b60005b82811015610b9a57818101600090815260026020908152604080832088548c855260018201909352922054825484870390920291610b809190610b74908463ffffffff61152316565b9063ffffffff6112fe16565b825560008a81526001928301602052604090205501610b2b565b506002840180548a019055604080518a81529051889133917fbf1612e584a5355572c05134f25811613efa611499c6597f74d7dde53adc104c9181900360200190a3505050505050505050565b600e5481565b60055481565b6000816000548114610c365760405162461bcd60e51b81526004018080602001828103825260288152602001806118bc6028913960400191505060405180910390fd5b60008611610c83576040805162461bcd60e51b815260206004820152601560248201527405f616d6f756e742073686f756c64206265203e203605c1b604482015290519081900360640190fd5b600554421015610cc45760405162461bcd60e51b815260040180806020018281038252603381526020018061185c6033913960400191505060405180910390fd5b600754851115610d055760405162461bcd60e51b81526004018080602001828103825260228152602001806118e46022913960400191505060405180910390fd5b60008511610d50576040805162461bcd60e51b815260206004820152601360248201527205f706572696f64206d757374206265203e203606c1b604482015290519081900360640190fd5b600e548585011115610d935760405162461bcd60e51b81526004018080602001828103825260388152602001806117b16038913960400191505060405180910390fd5b600a54610da790600163ffffffff61152316565b600a81905533600081815260016020818152604080842086855290915290912089815560028101899055429181019190915560095492945091610df7916001600160a01b0390911690308a611587565b6000600854600554420381610e0857fe5b049050858114610e495760405162461bcd60e51b81526004018080602001828103825260448152602001806119926044913960600191505060405180910390fd5b60005b87811015610e975781810160009081526002602052604090208054828a038b0290610e7d908263ffffffff61152316565b825560008781526001928301602052604090205501610e4c565b50600b54610eab908963ffffffff61152316565b600b5560408051898152602081018990528151869233927fe24d345c42b1d6b6d4bdaf4acbd768c1dfdfb0242ff6df221c68ce443b8c2d0d929081900390910190a3505050949350505050565b600a5481565b6001602081815260009384526040808520909152918352912080549181015460029091015483565b60045481565b60026020526000908152604090205481565b600b5481565b60009182526002602090815260408084209284526001909201905290205490565b6003546001600160a01b031615610fc3576040805162461bcd60e51b815260206004820152601b60248201527f63616e2062652063616c6c6564206f6e6c79206f6e652074696d650000000000604482015290519081900360640190fd5b6001600160a01b038b16611016576040805162461bcd60e51b81526020600482015260156024820152746176617461722063616e6e6f74206265207a65726f60581b604482015290519081900360640190fd5b600f881161106b576040805162461bcd60e51b815260206004820152601860248201527f626174636854696d652073686f756c64206265203e2031350000000000000000604482015290519081900360640190fd5b60188611156110ab5760405162461bcd60e51b815260040180806020018281038252603a815260200180611906603a913960400191505060405180910390fd5b8789018710156110ec5760405162461bcd60e51b815260040180806020018281038252602a815260200180611968602a913960400191505060405180910390fd5b606483111561112c5760405162461bcd60e51b81526004018080602001828103825260288152602001806117e96028913960400191505060405180910390fd5b600980546001600160a01b038085166001600160a01b03199283161790925560038054928e1692909116919091179055600589905560048a90556006879055600786905560088890556103e884106111b55760405162461bcd60e51b81526004018080602001828103825260218152602001806118116021913960400191505060405180910390fd5b89600c54106111f55760405162461bcd60e51b815260040180806020018281038252602d81526020018061188f602d913960400191505060405180910390fd5b6111fe856114f5565b600c5561121c6001600160d81b0385166103e863ffffffff61170a16565b600d55600e83905561122d8161172b565b5050505050505050505050565b6009546001600160a01b031681565b60008282600160281b5b81156112915781600116600114156112725761126f818461129a565b90505b60019190911c90811561128c57611289838461129a565b92505b611253565b95945050505050565b6000828202828482816112a957fe5b04146112f4576040805162461bcd60e51b81526020600482015260156024820152745265616c4d617468206d756c206f766572666c6f7760581b604482015290519081900360640190fd5b60281c9392505050565b600082821115611355576040805162461bcd60e51b815260206004820152601e60248201527f536166654d6174683a207375627472616374696f6e206f766572666c6f770000604482015290519081900360640190fd5b50900390565b61136d836001600160a01b0316611785565b61137657600080fd5b604080518082018252601981527f7472616e7366657228616464726573732c75696e74323536290000000000000060209182015281516001600160a01b0385811660248301526044808301869052845180840390910181526064909201845291810180516001600160e01b031663a9059cbb60e01b1781529251815160009460609489169392918291908083835b602083106114235780518252601f199092019160209182019101611404565b6001836020036101000a0380198251168184511680821785525050505050509050019150506000604051808303816000865af19150503d8060008114611485576040519150601f19603f3d011682016040523d82523d6000602084013e61148a565b606091505b50915091508161149957600080fd5b805115806114cd5750805160201480156114cd575080601f815181106114bb57fe5b01602001516001600160f81b03191615155b6114d657600080fd5b5050505050565b60008183106114ec57816114ee565b825b9392505050565b6001600160d81b038116600160281b02919050565b600081600160281b84028161151b57fe5b049392505050565b6000828201838110156114ee576040805162461bcd60e51b815260206004820152601b60248201527f536166654d6174683a206164646974696f6e206f766572666c6f770000000000604482015290519081900360640190fd5b600160281b900490565b611599846001600160a01b0316611785565b6115a257600080fd5b60006060856001600160a01b031660405180606001604052806025815260200161178c602591398051602091820120604080516001600160a01b03808b166024830152891660448201526064808201899052825180830390910181526084909101825292830180516001600160e01b03166001600160e01b0319909316929092178252518251909182918083835b6020831061164f5780518252601f199092019160209182019101611630565b6001836020036101000a0380198251168184511680821785525050505050509050019150506000604051808303816000865af19150503d80600081146116b1576040519150601f19603f3d011682016040523d82523d6000602084013e6116b6565b606091505b5091509150816116c557600080fd5b805115806116f95750805160201480156116f9575080601f815181106116e757fe5b01602001516001600160f81b03191615155b61170257600080fd5b505050505050565b60006114ee6001600160d81b03808516600160281b9081029185160261150a565b60005415611780576040805162461bcd60e51b815260206004820152601b60248201527f43616e206e6f74207365742061677265656d656e742074776963650000000000604482015290519081900360640190fd5b600055565b3b15159056fe7472616e7366657246726f6d28616464726573732c616464726573732c75696e74323536295f6261746368496e646578546f4c6f636b496e202b205f706572696f6420657863656564206d617820616c6c6f77656420626174636865735f62617463686573496e646578436170203e20424154434845535f494e4445585f484152444341505f726570526577617264436f6e7374422073686f756c64206265203c20313030306c6f636b696e6720706572696f64206578636565647320746865206d6178696d756d20616c6c6f7765646c6f636b696e67206973206e6f7420656e61626c656420796574202869742073746172747320617420737461727454696d6529726570526577617264436f6e7374412073686f756c64206265203c205f72657075746174696f6e52657761726453656e646572206d7573742073656e64207468652072696768742061677265656d656e74486173685f706572696f642065786365656420746865206d6178696d756d20616c6c6f7765646d61784c6f636b696e67426174636865732073686f756c64206265203c3d204d41585f4c4f434b494e475f424154434845535f484152444341505f657874656e64506572696f6420657863656564206d617820616c6c6f77656420626174636865735f72656465656d456e61626c6554696d65203e3d205f737461727454696d652b5f626174636854696d655f6261746368496e646578546f4c6f636b496e206d75737420626520746865206f6e6520636f72726573706f6e64696e6720746f207468652063757272656e74206f6e65a265627a7a72315820589b86cca2171c02ab152c1cd5cfc714d645e7c2a3714b91800e362c0aae599664736f6c634300050b0032",
  "source": "pragma solidity ^0.5.11;\n\nimport \"openzeppelin-solidity/contracts/math/SafeMath.sol\";\nimport \"openzeppelin-solidity/contracts/math/Math.sol\";\nimport \"../controller/ControllerInterface.sol\";\nimport \"../libs/SafeERC20.sol\";\nimport \"./Agreement.sol\";\nimport { RealMath } from \"@daostack/infra/contracts/libs/RealMath.sol\";\n\n/**\n * @title A scheme for continuous locking ERC20 Token for reputation\n */\n\ncontract ContinuousLocking4Reputation is Agreement {\n    using SafeMath for uint256;\n    using SafeERC20 for address;\n    using RealMath for uint216;\n    using RealMath for uint256;\n    using Math for uint256;\n\n    event Redeem(uint256 indexed _lockingId, address indexed _beneficiary, uint256 _amount, uint256 _batchIndex);\n    event Release(uint256 indexed _lockingId, address indexed _beneficiary, uint256 _amount);\n    event LockToken(address indexed _locker, uint256 indexed _lockingId, uint256 _amount, uint256 _period);\n    event ExtendLocking(address indexed _locker, uint256 indexed _lockingId, uint256 _extendPeriod);\n\n    struct Batch {\n        uint256 totalScore;\n        // A mapping from lockingId to its score\n        mapping(uint256=>uint) scores;\n    }\n\n    struct Lock {\n        uint256 amount;\n        uint256 lockingTime;\n        uint256 period;\n    }\n\n    // A mapping from lockers addresses to their locks\n    mapping(address => mapping(uint256=>Lock)) public lockers;\n    // A mapping from batch index to batch\n    mapping(uint256 => Batch) public batches;\n\n    Avatar public avatar;\n    uint256 public reputationRewardLeft; // the amount of reputation that is still left to distribute\n    uint256 public startTime; // the time (in secs since epoch) that locking can start (is enable)\n    uint256 public redeemEnableTime;\n    uint256 public maxLockingBatches;\n    uint256 public batchTime; // the length of a batch, in seconds\n    IERC20 public token; // the token to be locked\n    uint256 public lockCounter; // Total number of locks\n    uint256 public totalLockedLeft; // the amount of reputation  that is still left to distribute\n    uint256 public repRewardConstA;\n    uint256 public repRewardConstB;\n    uint256 public batchesIndexCap;\n\n    uint256 constant private REAL_FBITS = 40;\n    /**\n     * What's the first non-fractional bit\n     */\n\n    uint256 constant private REAL_ONE = uint256(1) << REAL_FBITS;\n    uint256 constant private BATCHES_INDEX_HARDCAP = 100;\n    uint256 constant public MAX_LOCKING_BATCHES_HARDCAP = 24;\n\n    /**\n     * @dev initialize\n     * @param _avatar the avatar to mint reputation from\n     * @param _reputationReward the total amount of reputation that can be minted by this contract\n     * @param _startTime locking period start time, in seconds since epoch\n     * @param _redeemEnableTime redeem enable time\n     * @param _batchTime batch time (in seconds)\n     * @param _redeemEnableTime redeem enable time, in seconds since epoch\n     *        redeem reputation can be done after this time.\n     * @param _maxLockingBatches - maximum number of locking batches that a user can lock (or extend) her tokens for\n     * @param _repRewardConstA - the total amount of reputation allocation per batch is calculated by :\n     *   _repRewardConstA * ((_repRewardConstB/1000) ** batchIndex)\n     * @param _repRewardConstB - the total amount of reputation allocation per batch is calculated by :\n     *   _repRewardConstA * ((_repRewardConstB/1000) ** batchIndex). _repRewardConstB must be < 1000\n     * @param _batchesIndexCap the length of the locking period (in batches).\n     *        This value capped by BATCHES_HARDCAP .\n     * @param _token the locking token\n     * @param _agreementHash is a hash of agreement required to be added to the TX by participants\n     */\n    function initialize(\n        Avatar _avatar,\n        uint256 _reputationReward,\n        uint256 _startTime,\n        uint256 _batchTime,\n        uint256 _redeemEnableTime,\n        uint256 _maxLockingBatches,\n        uint256 _repRewardConstA,\n        uint256 _repRewardConstB,\n        uint256 _batchesIndexCap,\n        IERC20 _token,\n        bytes32 _agreementHash )\n    external\n    {\n        require(avatar == Avatar(0), \"can be called only one time\");\n        require(_avatar != Avatar(0), \"avatar cannot be zero\");\n        // _batchTime should be greater than block interval\n        require(_batchTime > 15, \"batchTime should be > 15\");\n        require(_maxLockingBatches <= MAX_LOCKING_BATCHES_HARDCAP,\n        \"maxLockingBatches should be <= MAX_LOCKING_BATCHES_HARDCAP\");\n        require(_redeemEnableTime >= _startTime+_batchTime,\n        \"_redeemEnableTime >= _startTime+_batchTime\");\n        require(_batchesIndexCap <= BATCHES_INDEX_HARDCAP, \"_batchesIndexCap > BATCHES_INDEX_HARDCAP\");\n        token = _token;\n        avatar = _avatar;\n        startTime = _startTime;\n        reputationRewardLeft = _reputationReward;\n        redeemEnableTime = _redeemEnableTime;\n        maxLockingBatches = _maxLockingBatches;\n        batchTime = _batchTime;\n        require(_repRewardConstB < 1000, \"_repRewardConstB should be < 1000\");\n        require(repRewardConstA < _reputationReward, \"repRewardConstA should be < _reputationReward\");\n        repRewardConstA = toReal(uint216(_repRewardConstA));\n        repRewardConstB = uint216(_repRewardConstB).fraction(uint216(1000));\n        batchesIndexCap = _batchesIndexCap;\n        super.setAgreementHash(_agreementHash);\n    }\n\n    /**\n     * @dev redeem reputation function\n     * @param _beneficiary the beneficiary to redeem.\n     * @param _lockingId the lockingId to redeem from.\n     * @return uint256 reputation rewarded\n     */\n    function redeem(address _beneficiary, uint256 _lockingId) public returns(uint256 reputation) {\n        // solhint-disable-next-line not-rely-on-time\n        require(now > redeemEnableTime, \"now > redeemEnableTime\");\n        Lock storage locker = lockers[_beneficiary][_lockingId];\n        uint256 batchIndexToRedeemFrom = (locker.lockingTime - startTime) / batchTime;\n        // solhint-disable-next-line not-rely-on-time\n        uint256 currentBatch = (now - startTime) / batchTime;\n        uint256 lastBatchIndexToRedeem =  currentBatch.min(batchIndexToRedeemFrom + locker.period);\n        for (batchIndexToRedeemFrom; batchIndexToRedeemFrom < lastBatchIndexToRedeem; batchIndexToRedeemFrom++) {\n            Batch storage locking = batches[batchIndexToRedeemFrom];\n            uint256 score = locking.scores[_lockingId];\n            if (score > 0) {\n                locking.scores[_lockingId] = 0;\n                uint256 batchReputationReward = getRepRewardPerBatch(batchIndexToRedeemFrom);\n                uint256 repRelation = mul(toReal(uint216(score)), batchReputationReward);\n                uint256 redeemForBatch = div(repRelation, toReal(uint216(locking.totalScore)));\n                reputation = reputation.add(redeemForBatch);\n                emit Redeem(_lockingId, _beneficiary, uint256(fromReal(redeemForBatch)), batchIndexToRedeemFrom);\n            }\n        }\n        reputation = uint256(fromReal(reputation));\n        require(reputation > 0, \"reputation to redeem is 0\");\n        // check that the reputation is sum zero\n        reputationRewardLeft = reputationRewardLeft.sub(reputation);\n        require(\n        ControllerInterface(avatar.owner())\n        .mintReputation(reputation, _beneficiary, address(avatar)), \"mint reputation should succeed\");\n    }\n\n    /**\n     * @dev lock function\n     * @param _amount the amount of token to lock\n     * @param _period the number of batches that the tokens will be locked for\n     * @param _batchIndexToLockIn the batch index in which the locking period starts.\n     * Must be the currently active batch.\n     * @return lockingId\n     */\n    function lock(uint256 _amount, uint256 _period, uint256 _batchIndexToLockIn, bytes32 _agreementHash)\n    public\n    onlyAgree(_agreementHash)\n    returns(uint256 lockingId)\n    {\n        require(_amount > 0, \"_amount should be > 0\");\n        // solhint-disable-next-line not-rely-on-time\n        require(now >= startTime, \"locking is not enabled yet (it starts at startTime)\");\n        require(_period <= maxLockingBatches, \"_period exceed the maximum allowed\");\n        require(_period > 0, \"_period must be > 0\");\n        require((_batchIndexToLockIn + _period) <= batchesIndexCap,\n        \"_batchIndexToLockIn + _period exceed max allowed batches\");\n        lockCounter = lockCounter.add(1);\n        lockingId = lockCounter;\n\n        Lock storage locker = lockers[msg.sender][lockingId];\n        locker.amount = _amount;\n        locker.period = _period;\n        // solhint-disable-next-line not-rely-on-time\n        locker.lockingTime = now;\n\n        address(token).safeTransferFrom(msg.sender, address(this), _amount);\n        // solhint-disable-next-line not-rely-on-time\n        uint256 batchIndexToLockIn = (now - startTime) / batchTime;\n        require(batchIndexToLockIn == _batchIndexToLockIn,\n        \"_batchIndexToLockIn must be the one corresponding to the current one\");\n        //fill in the next batches scores.\n        for (uint256 p = 0; p < _period; p++) {\n            Batch storage batch = batches[batchIndexToLockIn + p];\n            uint256 score = (_period - p) * _amount;\n            batch.totalScore = batch.totalScore.add(score);\n            batch.scores[lockingId] = score;\n        }\n\n        totalLockedLeft = totalLockedLeft.add(_amount);\n        emit LockToken(msg.sender, lockingId, _amount, _period);\n    }\n\n    /**\n     * @dev extendLocking function\n     * @param _extendPeriod the period to extend the locking. in batchTime.\n     * @param _batchIndexToLockIn index of the batch in which to start locking.\n     * @param _lockingId the locking id to extend\n     */\n    function extendLocking(\n        uint256 _extendPeriod,\n        uint256 _batchIndexToLockIn,\n        uint256 _lockingId,\n        bytes32 _agreementHash)\n    public\n    onlyAgree(_agreementHash)\n    {\n        Lock storage locker = lockers[msg.sender][_lockingId];\n        require(locker.lockingTime != 0, \"_lockingId does not exist\");\n        // remainBatchs is the number of future batches that are part of the currently active lock\n        uint256 remainBatches =\n        ((locker.lockingTime + (locker.period*batchTime) - startTime)/batchTime).sub(_batchIndexToLockIn);\n        uint256 batchesCountFromCurrent = remainBatches + _extendPeriod;\n        require(batchesCountFromCurrent <= maxLockingBatches, \"locking period exceeds the maximum allowed\");\n        require(_extendPeriod > 0, \"_extendPeriod must be > 0\");\n        require((_batchIndexToLockIn + batchesCountFromCurrent) <= batchesIndexCap,\n        \"_extendPeriod exceed max allowed batches\");\n        // solhint-disable-next-line not-rely-on-time\n        uint256 batchIndexToLockIn = (now - startTime) / batchTime;\n        require(batchIndexToLockIn == _batchIndexToLockIn, \"locking is not active\");\n        //fill in the next batch scores.\n        for (uint256 p = 0; p < batchesCountFromCurrent; p++) {\n            Batch storage batch = batches[batchIndexToLockIn + p];\n            uint256 score = (batchesCountFromCurrent - p) * locker.amount;\n            batch.totalScore = batch.totalScore.add(score).sub(batch.scores[_lockingId]);\n            batch.scores[_lockingId] = score;\n        }\n        locker.period = locker.period + _extendPeriod;\n        emit ExtendLocking(msg.sender, _lockingId, _extendPeriod);\n    }\n\n    /**\n     * @dev release function\n     * @param _beneficiary the beneficiary for the release\n     * @param _lockingId the locking id to release\n     * @return bool\n     */\n    function release(address _beneficiary, uint256 _lockingId) public returns(uint256 amount) {\n        Lock storage locker = lockers[_beneficiary][_lockingId];\n        require(locker.amount > 0, \"no amount left to unlock\");\n        amount = locker.amount;\n        locker.amount = 0;\n        // solhint-disable-next-line not-rely-on-time\n        require(block.timestamp > locker.lockingTime + (locker.period*batchTime),\n        \"locking period is still active\");\n        totalLockedLeft = totalLockedLeft.sub(amount);\n        address(token).safeTransfer(_beneficiary, amount);\n        emit Release(_lockingId, _beneficiary, amount);\n    }\n\n    /**\n     * @dev getRepRewardPerBatch function\n     * the calculation is done the following formula:\n     * RepReward =  repRewardConstA * (repRewardConstB**_batchIndex)\n     * @param _batchIndex the index of the batch to calc rep reward of\n     * @return repReward\n     */\n    function getRepRewardPerBatch(uint256  _batchIndex) public view returns(uint256 repReward) {\n        if (_batchIndex <= batchesIndexCap) {\n            repReward = mul(repRewardConstA, repRewardConstB.pow(_batchIndex));\n        }\n    }\n\n    /**\n     * @dev getLockingIdScore function\n     * return score of lockingId at specific bach index\n     * @param _batchIndex batch index\n     * @param _lockingId lockingId\n     * @return score\n     */\n    function getLockingIdScore(uint256  _batchIndex, uint256 _lockingId) public view returns(uint256) {\n        return batches[_batchIndex].scores[_lockingId];\n    }\n\n    /**\n     * Multiply one real by another. Truncates overflows.\n     */\n    function mul(uint256 realA, uint256 realB) private pure returns (uint256) {\n        // When multiplying fixed point in x.y and z.w formats we get (x+z).(y+w) format.\n        // So we just have to clip off the extra REAL_FBITS fractional bits.\n        uint256 res = realA * realB;\n        require(res/realA == realB, \"RealMath mul overflow\");\n        return (res >> REAL_FBITS);\n    }\n\n    /**\n     * Convert an integer to a real. Preserves sign.\n     */\n    function toReal(uint216 ipart) private pure returns (uint256) {\n        return uint256(ipart) * REAL_ONE;\n    }\n\n    /**\n     * Convert a real to an integer. Preserves sign.\n     */\n    function fromReal(uint256 _realValue) private pure returns (uint216) {\n        return uint216(_realValue / REAL_ONE);\n    }\n\n    /**\n     * Divide one real by another real. Truncates overflows.\n     */\n    function div(uint256 realNumerator, uint256 realDenominator) private pure returns (uint256) {\n        // We use the reverse of the multiplication trick: convert numerator from\n        // x.y to (x+z).(y+w) fixed point, then divide by denom in z.w fixed point.\n        return uint256((uint256(realNumerator) * REAL_ONE) / uint256(realDenominator));\n    }\n\n}\n",
  "sourcePath": "/Users/oren/daostack/arc/contracts/schemes/ContinuousLockingToken4Reputation.sol",
  "compiler": {
    "name": "solc",
    "version": "0.5.11+commit.c082d0b4.Emscripten.clang"
  },
  "schemaVersion": "3.0.14",
  "updatedAt": "2019-09-22T09:06:21.022Z",
  "devdoc": {
    "methods": {
      "extendLocking(uint256,uint256,uint256,bytes32)": {
        "details": "extendLocking function",
        "params": {
          "_batchIndexToLockIn": "index of the batch in which to start locking.",
          "_extendPeriod": "the period to extend the locking. in batchTime.",
          "_lockingId": "the locking id to extend"
        }
      },
      "getAgreementHash()": {
        "details": "getAgreementHash",
        "return": "bytes32 agreementHash"
      },
      "getLockingIdScore(uint256,uint256)": {
        "details": "getLockingIdScore function return score of lockingId at specific bach index",
        "params": {
          "_batchIndex": "batch index",
          "_lockingId": "lockingId"
        },
        "return": "score"
      },
      "getRepRewardPerBatch(uint256)": {
        "details": "getRepRewardPerBatch function the calculation is done the following formula: RepReward =  repRewardConstA * (repRewardConstB**_batchIndex)",
        "params": {
          "_batchIndex": "the index of the batch to calc rep reward of"
        },
        "return": "repReward"
      },
      "initialize(address,uint256,uint256,uint256,uint256,uint256,uint256,uint256,uint256,address,bytes32)": {
        "details": "initialize",
        "params": {
          "_agreementHash": "is a hash of agreement required to be added to the TX by participants",
          "_avatar": "the avatar to mint reputation from",
          "_batchTime": "batch time (in seconds)",
          "_batchesIndexCap": "the length of the locking period (in batches).       This value capped by BATCHES_HARDCAP .",
          "_maxLockingBatches": "- maximum number of locking batches that a user can lock (or extend) her tokens for",
          "_redeemEnableTime": "redeem enable time, in seconds since epoch       redeem reputation can be done after this time.",
          "_repRewardConstA": "- the total amount of reputation allocation per batch is calculated by :  _repRewardConstA * ((_repRewardConstB/1000) ** batchIndex)",
          "_repRewardConstB": "- the total amount of reputation allocation per batch is calculated by :  _repRewardConstA * ((_repRewardConstB/1000) ** batchIndex). _repRewardConstB must be < 1000",
          "_reputationReward": "the total amount of reputation that can be minted by this contract",
          "_startTime": "locking period start time, in seconds since epoch",
          "_token": "the locking token"
        }
      },
      "lock(uint256,uint256,uint256,bytes32)": {
        "details": "lock function",
        "params": {
          "_amount": "the amount of token to lock",
          "_batchIndexToLockIn": "the batch index in which the locking period starts. Must be the currently active batch.",
          "_period": "the number of batches that the tokens will be locked for"
        },
        "return": "lockingId"
      },
      "redeem(address,uint256)": {
        "details": "redeem reputation function",
        "params": {
          "_beneficiary": "the beneficiary to redeem.",
          "_lockingId": "the lockingId to redeem from."
        },
        "return": "uint256 reputation rewarded"
      },
      "release(address,uint256)": {
        "details": "release function",
        "params": {
          "_beneficiary": "the beneficiary for the release",
          "_lockingId": "the locking id to release"
        },
        "return": "bool"
      }
    },
    "title": "A scheme for continuous locking ERC20 Token for reputation"
  },
  "userdoc": {
    "methods": {}
  }
}