{
  "contractName": "DaoCreator",
  "abi": [
    {
      "constant": true,
      "inputs": [
        {
          "internalType": "address",
          "name": "",
          "type": "address"
        }
      ],
      "name": "locks",
      "outputs": [
        {
          "internalType": "address",
          "name": "",
          "type": "address"
        }
      ],
      "payable": false,
      "stateMutability": "view",
      "type": "function"
    },
    {
      "inputs": [
        {
          "internalType": "contract ControllerCreator",
          "name": "_controllerCreator",
          "type": "address"
        }
      ],
      "payable": false,
      "stateMutability": "nonpayable",
      "type": "constructor"
    },
    {
      "anonymous": false,
      "inputs": [
        {
          "indexed": false,
          "internalType": "address",
          "name": "_avatar",
          "type": "address"
        }
      ],
      "name": "NewOrg",
      "type": "event"
    },
    {
      "anonymous": false,
      "inputs": [
        {
          "indexed": false,
          "internalType": "address",
          "name": "_avatar",
          "type": "address"
        }
      ],
      "name": "InitialSchemesSet",
      "type": "event"
    },
    {
      "constant": false,
      "inputs": [
        {
          "internalType": "contract Avatar",
          "name": "_avatar",
          "type": "address"
        },
        {
          "internalType": "address[]",
          "name": "_founders",
          "type": "address[]"
        },
        {
          "internalType": "uint256[]",
          "name": "_foundersTokenAmount",
          "type": "uint256[]"
        },
        {
          "internalType": "uint256[]",
          "name": "_foundersReputationAmount",
          "type": "uint256[]"
        }
      ],
      "name": "addFounders",
      "outputs": [
        {
          "internalType": "bool",
          "name": "",
          "type": "bool"
        }
      ],
      "payable": false,
      "stateMutability": "nonpayable",
      "type": "function"
    },
    {
      "constant": false,
      "inputs": [
        {
          "internalType": "string",
          "name": "_orgName",
          "type": "string"
        },
        {
          "internalType": "string",
          "name": "_tokenName",
          "type": "string"
        },
        {
          "internalType": "string",
          "name": "_tokenSymbol",
          "type": "string"
        },
        {
          "internalType": "address[]",
          "name": "_founders",
          "type": "address[]"
        },
        {
          "internalType": "uint256[]",
          "name": "_foundersTokenAmount",
          "type": "uint256[]"
        },
        {
          "internalType": "uint256[]",
          "name": "_foundersReputationAmount",
          "type": "uint256[]"
        },
        {
          "internalType": "contract UController",
          "name": "_uController",
          "type": "address"
        },
        {
          "internalType": "uint256",
          "name": "_cap",
          "type": "uint256"
        }
      ],
      "name": "forgeOrg",
      "outputs": [
        {
          "internalType": "address",
          "name": "",
          "type": "address"
        }
      ],
      "payable": false,
      "stateMutability": "nonpayable",
      "type": "function"
    },
    {
      "constant": false,
      "inputs": [
        {
          "internalType": "contract Avatar",
          "name": "_avatar",
          "type": "address"
        },
        {
          "internalType": "address[]",
          "name": "_schemes",
          "type": "address[]"
        },
        {
          "internalType": "bytes32[]",
          "name": "_params",
          "type": "bytes32[]"
        },
        {
          "internalType": "bytes4[]",
          "name": "_permissions",
          "type": "bytes4[]"
        },
        {
          "internalType": "string",
          "name": "_metaData",
          "type": "string"
        }
      ],
      "name": "setSchemes",
      "outputs": [],
      "payable": false,
      "stateMutability": "nonpayable",
      "type": "function"
    }
  ],
  "bytecode": "0x608060405234801561001057600080fd5b506040516146fa3803806146fa8339818101604052602081101561003357600080fd5b5051600180546001600160a01b0319166001600160a01b03909216919091179055614697806100636000396000f3fe60806040523480156200001157600080fd5b5060043610620000525760003560e01c8063064bf3861462000057578063571084bd14620001d65780635de9a1371462000314578063ff720f0f1462000359575b600080fd5b620001d4600480360360a08110156200006f57600080fd5b6001600160a01b038235169190810190604081016020820135600160201b8111156200009a57600080fd5b820183602082011115620000ad57600080fd5b803590602001918460208302840111600160201b83111715620000cf57600080fd5b919390929091602081019035600160201b811115620000ed57600080fd5b8201836020820111156200010057600080fd5b803590602001918460208302840111600160201b831117156200012257600080fd5b919390929091602081019035600160201b8111156200014057600080fd5b8201836020820111156200015357600080fd5b803590602001918460208302840111600160201b831117156200017557600080fd5b919390929091602081019035600160201b8111156200019357600080fd5b820183602082011115620001a657600080fd5b803590602001918460018302840111600160201b83111715620001c857600080fd5b5090925090506200057c565b005b6200030060048036036080811015620001ee57600080fd5b6001600160a01b038235169190810190604081016020820135600160201b8111156200021957600080fd5b8201836020820111156200022c57600080fd5b803590602001918460208302840111600160201b831117156200024e57600080fd5b919390929091602081019035600160201b8111156200026c57600080fd5b8201836020820111156200027f57600080fd5b803590602001918460208302840111600160201b83111715620002a157600080fd5b919390929091602081019035600160201b811115620002bf57600080fd5b820183602082011115620002d257600080fd5b803590602001918460208302840111600160201b83111715620002f457600080fd5b509092509050620008c9565b604080519115158252519081900360200190f35b6200033d600480360360208110156200032c57600080fd5b50356001600160a01b031662000c29565b604080516001600160a01b039092168252519081900360200190f35b6200033d60048036036101008110156200037257600080fd5b810190602081018135600160201b8111156200038d57600080fd5b820183602082011115620003a057600080fd5b803590602001918460018302840111600160201b83111715620003c257600080fd5b919390929091602081019035600160201b811115620003e057600080fd5b820183602082011115620003f357600080fd5b803590602001918460018302840111600160201b831117156200041557600080fd5b919390929091602081019035600160201b8111156200043357600080fd5b8201836020820111156200044657600080fd5b803590602001918460018302840111600160201b831117156200046857600080fd5b919390929091602081019035600160201b8111156200048657600080fd5b8201836020820111156200049957600080fd5b803590602001918460208302840111600160201b83111715620004bb57600080fd5b919390929091602081019035600160201b811115620004d957600080fd5b820183602082011115620004ec57600080fd5b803590602001918460208302840111600160201b831117156200050e57600080fd5b919390929091602081019035600160201b8111156200052c57600080fd5b8201836020820111156200053f57600080fd5b803590602001918460208302840111600160201b831117156200056157600080fd5b91935091506001600160a01b03813516906020013562000c44565b6001600160a01b03898116600090815260208190526040902054163314620005a357600080fd5b6000896001600160a01b0316638da5cb5b6040518163ffffffff1660e01b815260040160206040518083038186803b158015620005df57600080fd5b505afa158015620005f4573d6000803e3d6000fd5b505050506040513d60208110156200060b57600080fd5b5051905060005b888110156200073557816001600160a01b031663e869d45f8b8b848181106200063757fe5b905060200201356001600160a01b03168a8a858181106200065457fe5b905060200201358989868181106200066857fe5b905060200201356001600160e01b0319168f6040518563ffffffff1660e01b815260040180856001600160a01b03166001600160a01b03168152602001848152602001836001600160e01b0319166001600160e01b0319168152602001826001600160a01b03166001600160a01b03168152602001945050505050602060405180830381600087803b158015620006fe57600080fd5b505af115801562000713573d6000803e3d6000fd5b505050506040513d60208110156200072a57600080fd5b505060010162000612565b506040805163c9b62eb160e01b81526001600160a01b038c81166024830152600482019283526044820185905283169163c9b62eb191869186918f91908190606401858580828437600081840152601f19601f820116905080830192505050945050505050602060405180830381600087803b158015620007b557600080fd5b505af1158015620007ca573d6000803e3d6000fd5b505050506040513d6020811015620007e157600080fd5b50506040805163039de01d60e01b81523060048201526001600160a01b038c8116602483015291519183169163039de01d916044808201926020929091908290030181600087803b1580156200083657600080fd5b505af11580156200084b573d6000803e3d6000fd5b505050506040513d60208110156200086257600080fd5b50506001600160a01b038a166000818152602081815260409182902080546001600160a01b0319169055815192835290517f9007c9042f12be953f7dbe3909f56c3f088e9fe294dbebbef4a67afa63462b6a9281900390910190a150505050505050505050565b6000858414620008d857600080fd5b858214620008e557600080fd5b85620008f057600080fd5b6001600160a01b038881166000908152602081905260409020541633146200091757600080fd5b60005b8681101562000c1a5760008888838181106200093257fe5b905060200201356001600160a01b03166001600160a01b031614156200095757600080fd5b60008686838181106200096657fe5b90506020020135111562000ab457886001600160a01b0316638da5cb5b6040518163ffffffff1660e01b815260040160206040518083038186803b158015620009ae57600080fd5b505afa158015620009c3573d6000803e3d6000fd5b505050506040513d6020811015620009da57600080fd5b50516001600160a01b0316636407e432878784818110620009f757fe5b905060200201358a8a8581811062000a0b57fe5b905060200201356001600160a01b03168c6040518463ffffffff1660e01b815260040180848152602001836001600160a01b03166001600160a01b03168152602001826001600160a01b03166001600160a01b031681526020019350505050602060405180830381600087803b15801562000a8557600080fd5b505af115801562000a9a573d6000803e3d6000fd5b505050506040513d602081101562000ab157600080fd5b50505b600084848381811062000ac357fe5b90506020020135111562000c1157886001600160a01b0316638da5cb5b6040518163ffffffff1660e01b815260040160206040518083038186803b15801562000b0b57600080fd5b505afa15801562000b20573d6000803e3d6000fd5b505050506040513d602081101562000b3757600080fd5b50516001600160a01b031663eaf994b285858481811062000b5457fe5b905060200201358a8a8581811062000b6857fe5b905060200201356001600160a01b03168c6040518463ffffffff1660e01b815260040180848152602001836001600160a01b03166001600160a01b03168152602001826001600160a01b03166001600160a01b031681526020019350505050602060405180830381600087803b15801562000be257600080fd5b505af115801562000bf7573d6000803e3d6000fd5b505050506040513d602081101562000c0e57600080fd5b50505b6001016200091a565b50600198975050505050505050565b6000602081905290815260409020546001600160a01b031681565b600062000dca8f8f8080601f016020809104026020016040519081016040528093929190818152602001838380828437600081840152601f19601f820116905080830192505050505050508e8e8080601f016020809104026020016040519081016040528093929190818152602001838380828437600081840152601f19601f820116905080830192505050505050508d8d8080601f016020809104026020016040519081016040528093929190818152602001838380828437600081840152601f19601f820116905080830192505050505050508c8c80806020026020016040519081016040528093929190818152602001838360200280828437600081840152601f19601f820116905080830192505050505050508b8b8080602002602001604051908101604052809392919081815260200183836020028082843760009201919091525050604080516020808f0282810182019093528e82529093508e92508d9182918501908490808284376000920191909152508c92508b915062000ddd9050565b9f9e505050505050505050505050505050565b6000845186511462000dee57600080fd5b835186511462000dfd57600080fd5b600086511162000e0c57600080fd5b600088888460405162000e1f9062001608565b60408101829052606080825284519082015283518190602080830191608084019188019080838360005b8381101562000e6357818101518382015260200162000e49565b50505050905090810190601f16801562000e915780820380516001836020036101000a031916815260200191505b50838103825285518152855160209182019187019080838360005b8381101562000ec657818101518382015260200162000eac565b50505050905090810190601f16801562000ef45780820380516001836020036101000a031916815260200191505b5095505050505050604051809103906000f08015801562000f19573d6000803e3d6000fd5b509050600060405162000f2c9062001616565b604051809103906000f08015801562000f49573d6000803e3d6000fd5b50905060008b838360405162000f5f9062001624565b6001600160a01b03808416602080840191909152908316604083015260608083528551908301528451829160808301919087019080838360005b8381101562000fb357818101518382015260200162000f99565b50505050905090810190601f16801562000fe15780820380516001836020036101000a031916815260200191505b50945050505050604051809103906000f08015801562001005573d6000803e3d6000fd5b5090506000805b8a51811015620012005760006001600160a01b03168b82815181106200102e57fe5b60200260200101516001600160a01b031614156200104b57600080fd5b60008a82815181106200105a57fe5b602002602001015111156200112157846001600160a01b03166340c10f198c83815181106200108557fe5b60200260200101518c84815181106200109a57fe5b60200260200101516040518363ffffffff1660e01b815260040180836001600160a01b03166001600160a01b0316815260200182815260200192505050602060405180830381600087803b158015620010f257600080fd5b505af115801562001107573d6000803e3d6000fd5b505050506040513d60208110156200111e57600080fd5b50505b60008982815181106200113057fe5b60200260200101511115620011f757836001600160a01b03166340c10f198c83815181106200115b57fe5b60200260200101518b84815181106200117057fe5b60200260200101516040518363ffffffff1660e01b815260040180836001600160a01b03166001600160a01b0316815260200182815260200192505050602060405180830381600087803b158015620011c857600080fd5b505af1158015620011dd573d6000803e3d6000fd5b505050506040513d6020811015620011f457600080fd5b50505b6001016200100c565b506001600160a01b038716620013e057600154604080516313db266360e31b81526001600160a01b03858116600483015291519190921691639ed933189160248083019260209291908290030181600087803b1580156200126057600080fd5b505af115801562001275573d6000803e3d6000fd5b505050506040513d60208110156200128c57600080fd5b50516040805163f2fde38b60e01b81526001600160a01b03808416600483015291519293509084169163f2fde38b9160248082019260009290919082900301818387803b158015620012dd57600080fd5b505af1158015620012f2573d6000803e3d6000fd5b50505050836001600160a01b031663f2fde38b826040518263ffffffff1660e01b815260040180826001600160a01b03166001600160a01b03168152602001915050600060405180830381600087803b1580156200134f57600080fd5b505af115801562001364573d6000803e3d6000fd5b50505050826001600160a01b031663f2fde38b826040518263ffffffff1660e01b815260040180826001600160a01b03166001600160a01b03168152602001915050600060405180830381600087803b158015620013c157600080fd5b505af1158015620013d6573d6000803e3d6000fd5b505050506200159d565b506040805163f2fde38b60e01b81526001600160a01b0380891660048301529151889284169163f2fde38b91602480830192600092919082900301818387803b1580156200142d57600080fd5b505af115801562001442573d6000803e3d6000fd5b50505050836001600160a01b031663f2fde38b826040518263ffffffff1660e01b815260040180826001600160a01b03166001600160a01b03168152602001915050600060405180830381600087803b1580156200149f57600080fd5b505af1158015620014b4573d6000803e3d6000fd5b50505050826001600160a01b031663f2fde38b826040518263ffffffff1660e01b815260040180826001600160a01b03166001600160a01b03168152602001915050600060405180830381600087803b1580156200151157600080fd5b505af115801562001526573d6000803e3d6000fd5b50505050866001600160a01b031663b9981364836040518263ffffffff1660e01b815260040180826001600160a01b03166001600160a01b03168152602001915050600060405180830381600087803b1580156200158357600080fd5b505af115801562001598573d6000803e3d6000fd5b505050505b6001600160a01b0382166000818152602081815260409182902080546001600160a01b03191633179055815192835290517f244496352f5e67e59ce96b4a53ef9ea7cb88b7db33eb13dc5e771bd04385a60e9281900390910190a1509b9a5050505050505050505050565b611190806200163383390190565b610a2d80620027c383390190565b61147380620031f08339019056fe60806040523480156200001157600080fd5b506040516200119038038062001190833981810160405260608110156200003757600080fd5b81019080805160405193929190846401000000008211156200005857600080fd5b9083019060208201858111156200006e57600080fd5b82516401000000008111828201881017156200008957600080fd5b82525081516020918201929091019080838360005b83811015620000b85781810151838201526020016200009e565b50505050905090810190601f168015620000e65780820380516001836020036101000a031916815260200191505b50604052602001805160405193929190846401000000008211156200010a57600080fd5b9083019060208201858111156200012057600080fd5b82516401000000008111828201881017156200013b57600080fd5b82525081516020918201929091019080838360005b838110156200016a57818101518382015260200162000150565b50505050905090810190601f168015620001985780820380516001836020036101000a031916815260200191505b50604081905260209190910151600380546001600160a01b0319163317908190559093506001600160a01b031691506000907f8be0079c531659141344cd1fd0a4f28419497f9722a3daafe3b4186f6b6457e0908290a382516200020490600490602086019062000227565b5081516200021a90600590602085019062000227565b5060065550620002cc9050565b828054600181600116156101000203166002900490600052602060002090601f016020900481019282601f106200026a57805160ff19168380011785556200029a565b828001600101855582156200029a579182015b828111156200029a5782518255916020019190600101906200027d565b50620002a8929150620002ac565b5090565b620002c991905b80821115620002a85760008155600101620002b3565b90565b610eb480620002dc6000396000f3fe608060405234801561001057600080fd5b50600436106101215760003560e01c806370a08231116100ad57806395d89b411161007157806395d89b4114610356578063a457c2d71461035e578063a9059cbb1461038a578063dd62ed3e146103b6578063f2fde38b146103e457610121565b806370a08231146102d0578063715018a6146102f657806379cc6790146102fe5780638da5cb5b1461032a5780638f32d59b1461034e57610121565b8063313ce567116100f4578063313ce56714610233578063355274ea14610251578063395093511461025957806340c10f191461028557806342966c68146102b157610121565b806306fdde0314610126578063095ea7b3146101a357806318160ddd146101e357806323b872dd146101fd575b600080fd5b61012e61040a565b6040805160208082528351818301528351919283929083019185019080838360005b83811015610168578181015183820152602001610150565b50505050905090810190601f1680156101955780820380516001836020036101000a031916815260200191505b509250505060405180910390f35b6101cf600480360360408110156101b957600080fd5b506001600160a01b038135169060200135610498565b604080519115158252519081900360200190f35b6101eb6104ae565b60408051918252519081900360200190f35b6101cf6004803603606081101561021357600080fd5b506001600160a01b038135811691602081013590911690604001356104b4565b61023b61050b565b6040805160ff9092168252519081900360200190f35b6101eb610510565b6101cf6004803603604081101561026f57600080fd5b506001600160a01b038135169060200135610516565b6101cf6004803603604081101561029b57600080fd5b506001600160a01b038135169060200135610552565b6102ce600480360360208110156102c757600080fd5b50356105e5565b005b6101eb600480360360208110156102e657600080fd5b50356001600160a01b03166105f2565b6102ce61060d565b6102ce6004803603604081101561031457600080fd5b506001600160a01b0381351690602001356106b0565b6103326106be565b604080516001600160a01b039092168252519081900360200190f35b6101cf6106cd565b61012e6106de565b6101cf6004803603604081101561037457600080fd5b506001600160a01b038135169060200135610739565b6101cf600480360360408110156103a057600080fd5b506001600160a01b038135169060200135610775565b6101eb600480360360408110156103cc57600080fd5b506001600160a01b0381358116916020013516610782565b6102ce600480360360208110156103fa57600080fd5b50356001600160a01b03166107ad565b6004805460408051602060026001851615610100026000190190941693909304601f810184900484028201840190925281815292918301828280156104905780601f1061046557610100808354040283529160200191610490565b820191906000526020600020905b81548152906001019060200180831161047357829003601f168201915b505050505081565b60006104a533848461080f565b50600192915050565b60025490565b60006104c18484846108fb565b6001600160a01b0384166000908152600160209081526040808320338085529252909120546105019186916104fc908663ffffffff610a3d16565b61080f565b5060019392505050565b601281565b60065481565b3360008181526001602090815260408083206001600160a01b038716845290915281205490916104a59185906104fc908663ffffffff610a9a16565b600061055c6106cd565b6105ad576040805162461bcd60e51b815260206004820181905260248201527f4f776e61626c653a2063616c6c6572206973206e6f7420746865206f776e6572604482015290519081900360640190fd5b600654156105db576006546105d0836105c46104ae565b9063ffffffff610a9a16565b11156105db57600080fd5b6104a58383610afb565b6105ef3382610beb565b50565b6001600160a01b031660009081526020819052604090205490565b6106156106cd565b610666576040805162461bcd60e51b815260206004820181905260248201527f4f776e61626c653a2063616c6c6572206973206e6f7420746865206f776e6572604482015290519081900360640190fd5b6003546040516000916001600160a01b0316907f8be0079c531659141344cd1fd0a4f28419497f9722a3daafe3b4186f6b6457e0908390a3600380546001600160a01b0319169055565b6106ba8282610cc4565b5050565b6003546001600160a01b031690565b6003546001600160a01b0316331490565b6005805460408051602060026001851615610100026000190190941693909304601f810184900484028201840190925281815292918301828280156104905780601f1061046557610100808354040283529160200191610490565b3360008181526001602090815260408083206001600160a01b038716845290915281205490916104a59185906104fc908663ffffffff610a3d16565b60006104a53384846108fb565b6001600160a01b03918216600090815260016020908152604080832093909416825291909152205490565b6107b56106cd565b610806576040805162461bcd60e51b815260206004820181905260248201527f4f776e61626c653a2063616c6c6572206973206e6f7420746865206f776e6572604482015290519081900360640190fd5b6105ef81610d09565b6001600160a01b0383166108545760405162461bcd60e51b8152600401808060200182810382526024815260200180610e5c6024913960400191505060405180910390fd5b6001600160a01b0382166108995760405162461bcd60e51b8152600401808060200182810382526022815260200180610df46022913960400191505060405180910390fd5b6001600160a01b03808416600081815260016020908152604080832094871680845294825291829020859055815185815291517f8c5be1e5ebec7d5bd14f71427d1e84f3dd0314c0f7b2291e5b200ac8c7c3b9259281900390910190a3505050565b6001600160a01b0383166109405760405162461bcd60e51b8152600401808060200182810382526025815260200180610e376025913960400191505060405180910390fd5b6001600160a01b0382166109855760405162461bcd60e51b8152600401808060200182810382526023815260200180610dab6023913960400191505060405180910390fd5b6001600160a01b0383166000908152602081905260409020546109ae908263ffffffff610a3d16565b6001600160a01b0380851660009081526020819052604080822093909355908416815220546109e3908263ffffffff610a9a16565b6001600160a01b038084166000818152602081815260409182902094909455805185815290519193928716927fddf252ad1be2c89b69c2b068fc378daa952ba7f163c4a11628f55a4df523b3ef92918290030190a3505050565b600082821115610a94576040805162461bcd60e51b815260206004820152601e60248201527f536166654d6174683a207375627472616374696f6e206f766572666c6f770000604482015290519081900360640190fd5b50900390565b600082820183811015610af4576040805162461bcd60e51b815260206004820152601b60248201527f536166654d6174683a206164646974696f6e206f766572666c6f770000000000604482015290519081900360640190fd5b9392505050565b6001600160a01b038216610b56576040805162461bcd60e51b815260206004820152601f60248201527f45524332303a206d696e7420746f20746865207a65726f206164647265737300604482015290519081900360640190fd5b600254610b69908263ffffffff610a9a16565b6002556001600160a01b038216600090815260208190526040902054610b95908263ffffffff610a9a16565b6001600160a01b0383166000818152602081815260408083209490945583518581529351929391927fddf252ad1be2c89b69c2b068fc378daa952ba7f163c4a11628f55a4df523b3ef9281900390910190a35050565b6001600160a01b038216610c305760405162461bcd60e51b8152600401808060200182810382526021815260200180610e166021913960400191505060405180910390fd5b600254610c43908263ffffffff610a3d16565b6002556001600160a01b038216600090815260208190526040902054610c6f908263ffffffff610a3d16565b6001600160a01b038316600081815260208181526040808320949094558351858152935191937fddf252ad1be2c89b69c2b068fc378daa952ba7f163c4a11628f55a4df523b3ef929081900390910190a35050565b610cce8282610beb565b6001600160a01b0382166000908152600160209081526040808320338085529252909120546106ba9184916104fc908563ffffffff610a3d16565b6001600160a01b038116610d4e5760405162461bcd60e51b8152600401808060200182810382526026815260200180610dce6026913960400191505060405180910390fd5b6003546040516001600160a01b038084169216907f8be0079c531659141344cd1fd0a4f28419497f9722a3daafe3b4186f6b6457e090600090a3600380546001600160a01b0319166001600160a01b039290921691909117905556fe45524332303a207472616e7366657220746f20746865207a65726f20616464726573734f776e61626c653a206e6577206f776e657220697320746865207a65726f206164647265737345524332303a20617070726f766520746f20746865207a65726f206164647265737345524332303a206275726e2066726f6d20746865207a65726f206164647265737345524332303a207472616e736665722066726f6d20746865207a65726f206164647265737345524332303a20617070726f76652066726f6d20746865207a65726f2061646472657373a265627a7a72315820a37ce188f1e26a7c6ceec1002bd4f97fd56e400f1a35fae4bbb2687c688d22a464736f6c634300050b003260806040526000805460ff60a01b19167412000000000000000000000000000000000000000017905534801561003457600080fd5b50600080546001600160a01b03191633178082556040516001600160a01b039190911691907f8be0079c531659141344cd1fd0a4f28419497f9722a3daafe3b4186f6b6457e0908290a36109a08061008d6000396000f3fe608060405234801561001057600080fd5b50600436106100a95760003560e01c8063715018a611610071578063715018a6146101785780638da5cb5b146101825780638f32d59b146101a6578063981b24d0146101ae5780639dc29fac146101cb578063f2fde38b146101f7576100a9565b806318160ddd146100ae578063313ce567146100c857806340c10f19146100e65780634ee2cd7e1461012657806370a0823114610152575b600080fd5b6100b661021d565b60408051918252519081900360200190f35b6100d061022e565b6040805160ff9092168252519081900360200190f35b610112600480360360408110156100fc57600080fd5b506001600160a01b03813516906020013561023e565b604080519115158252519081900360200190f35b6100b66004803603604081101561013c57600080fd5b506001600160a01b03813516906020013561033b565b6100b66004803603602081101561016857600080fd5b50356001600160a01b03166103cb565b6101806103df565b005b61018a610470565b604080516001600160a01b039092168252519081900360200190f35b61011261047f565b6100b6600480360360208110156101c457600080fd5b5035610490565b610112600480360360408110156101e157600080fd5b506001600160a01b0381351690602001356104e2565b6101806004803603602081101561020d57600080fd5b50356001600160a01b03166105cd565b600061022843610490565b90505b90565b600054600160a01b900460ff1681565b600061024861047f565b610287576040805162461bcd60e51b8152602060048201819052602482015260008051602061094c833981519152604482015290519081900360640190fd5b600061029161021d565b90508083820110156102a257600080fd5b60006102ad856103cb565b90508084820110156102be57600080fd5b6102cb6002858401610620565b6001600160a01b03851660009081526001602052604090206102ef90828601610620565b6040805185815290516001600160a01b038716917f0f6798a560793a54c3bcfe86a93cde1e73087d944c0ea20544137d4121396885919081900360200190a26001925050505b92915050565b6001600160a01b038216600090815260016020526040812054158061039557506001600160a01b0383166000908152600160205260408120805484929061037e57fe5b6000918252602090912001546001600160801b0316115b156103a257506000610335565b6001600160a01b03831660009081526001602052604090206103c4908361070e565b9050610335565b60006103d7824361033b565b90505b919050565b6103e761047f565b610426576040805162461bcd60e51b8152602060048201819052602482015260008051602061094c833981519152604482015290519081900360640190fd5b600080546040516001600160a01b03909116907f8be0079c531659141344cd1fd0a4f28419497f9722a3daafe3b4186f6b6457e0908390a3600080546001600160a01b0319169055565b6000546001600160a01b031690565b6000546001600160a01b0316331490565b60025460009015806104c357508160026000815481106104ac57fe5b6000918252602090912001546001600160801b0316115b156104d0575060006103da565b6104db60028361070e565b90506103da565b60006104ec61047f565b61052b576040805162461bcd60e51b8152602060048201819052602482015260008051602061094c833981519152604482015290519081900360640190fd5b600061053561021d565b9050826000610543866103cb565b905081811015610551578091505b61055e6002838503610620565b6001600160a01b038616600090815260016020526040902061058290838303610620565b6040805183815290516001600160a01b038816917fcc16f5dbb4873280815c1ee09dbd06736cffcc184412cf7a71a0fdb75d397ca5919081900360200190a250600195945050505050565b6105d561047f565b610614576040805162461bcd60e51b8152602060048201819052602482015260008051602061094c833981519152604482015290519081900360640190fd5b61061d8161083e565b50565b80816001600160801b03161461063557600080fd5b815415806106695750815443908390600019810190811061065257fe5b6000918252602090912001546001600160801b0316105b156106d0578154600090839061068282600183016108de565b8154811061068c57fe5b600091825260209091200180546001600160801b03848116600160801b024382166fffffffffffffffffffffffffffffffff1990931692909217161790555061070a565b8154600090839060001981019081106106e557fe5b600091825260209091200180546001600160801b03808516600160801b029116179055505b5050565b815460009061071f57506000610335565b82548390600019810190811061073157fe5b6000918252602090912001546001600160801b031682106107815782548390600019810190811061075e57fe5b600091825260209091200154600160801b90046001600160801b03169050610335565b8260008154811061078e57fe5b6000918252602090912001546001600160801b03168210156107b257506000610335565b8254600090600019015b8181111561080d5760006002600183850101049050848682815481106107de57fe5b6000918252602090912001546001600160801b03161161080057809250610807565b6001810391505b506107bc565b84828154811061081957fe5b600091825260209091200154600160801b90046001600160801b031695945050505050565b6001600160a01b0381166108835760405162461bcd60e51b81526004018080602001828103825260268152602001806109266026913960400191505060405180910390fd5b600080546040516001600160a01b03808516939216917f8be0079c531659141344cd1fd0a4f28419497f9722a3daafe3b4186f6b6457e091a3600080546001600160a01b0319166001600160a01b0392909216919091179055565b81548183558181111561090257600083815260209020610902918101908301610907565b505050565b61022b91905b80821115610921576000815560010161090d565b509056fe4f776e61626c653a206e6577206f776e657220697320746865207a65726f20616464726573734f776e61626c653a2063616c6c6572206973206e6f7420746865206f776e6572a265627a7a72315820af3c2ce81b3a126e72cf71d658a125ae03fec4cb405da7f1dc8512f1c3aa181b64736f6c634300050b003260806040523480156200001157600080fd5b506040516200147338038062001473833981810160405260608110156200003757600080fd5b81019080805160405193929190846401000000008211156200005857600080fd5b9083019060208201858111156200006e57600080fd5b82516401000000008111828201881017156200008957600080fd5b82525081516020918201929091019080838360005b83811015620000b85781810151838201526020016200009e565b50505050905090810190601f168015620000e65780820380516001836020036101000a031916815260200191505b5060408181526020830151920151600080546001600160a01b03191633178082559395509093506001600160a01b039290921691907f8be0079c531659141344cd1fd0a4f28419497f9722a3daafe3b4186f6b6457e0908290a382516200015590600190602086019062000189565b50600280546001600160a01b039384166001600160a01b03199182161790915560038054929093169116179055506200022e565b828054600181600116156101000203166002900490600052602060002090601f016020900481019282601f10620001cc57805160ff1916838001178555620001fc565b82800160010185558215620001fc579182015b82811115620001fc578251825591602001919060010190620001df565b506200020a9291506200020e565b5090565b6200022b91905b808211156200020a576000815560010162000215565b90565b611235806200023e6000396000f3fe6080604052600436106100c25760003560e01c80638f32d59b1161007f578063cb16d4a211610059578063cb16d4a214610491578063dab0efff146104ca578063e1758bd81461050d578063f2fde38b14610522576100c2565b80638f32d59b146103f0578063ab751f7114610405578063b756d5a214610448576100c2565b80631386dc2d146100fa5780632bf1645814610184578063715018a6146102cc578063890ac46c146102e357806389ae1c90146103aa5780638da5cb5b146103db575b60408051348152905133917ff32a9f77675fd5917534c7746608fd3e309eac68fbdcbf5925e24ca97a704396919081900360200190a2005b34801561010657600080fd5b5061010f610555565b6040805160208082528351818301528351919283929083019185019080838360005b83811015610149578181015183820152602001610131565b50505050905090810190601f1680156101765780820380516001836020036101000a031916815260200191505b509250505060405180910390f35b34801561019057600080fd5b50610249600480360360608110156101a757600080fd5b6001600160a01b0382351691908101906040810160208201356401000000008111156101d257600080fd5b8201836020820111156101e457600080fd5b8035906020019184600183028401116401000000008311171561020657600080fd5b91908080601f01602080910402602001604051908101604052809392919081815260200183838082843760009201919091525092955050913592506105e2915050565b604051808315151515815260200180602001828103825283818151815260200191508051906020019080838360005b83811015610290578181015183820152602001610278565b50505050905090810190601f1680156102bd5780820380516001836020036101000a031916815260200191505b50935050505060405180910390f35b3480156102d857600080fd5b506102e1610797565b005b3480156102ef57600080fd5b506103966004803603602081101561030657600080fd5b81019060208101813564010000000081111561032157600080fd5b82018360208201111561033357600080fd5b8035906020019184600183028401116401000000008311171561035557600080fd5b91908080601f016020809104026020016040519081016040528093929190818152602001838380828437600092019190915250929550610828945050505050565b604080519115158252519081900360200190f35b3480156103b657600080fd5b506103bf610912565b604080516001600160a01b039092168252519081900360200190f35b3480156103e757600080fd5b506103bf610921565b3480156103fc57600080fd5b50610396610930565b34801561041157600080fd5b506103966004803603606081101561042857600080fd5b506001600160a01b03813581169160208101359091169060400135610941565b34801561045457600080fd5b506103966004803603608081101561046b57600080fd5b506001600160a01b038135811691602081013582169160408201351690606001356109f4565b34801561049d57600080fd5b50610396600480360360408110156104b457600080fd5b50803590602001356001600160a01b0316610ab2565b3480156104d657600080fd5b50610396600480360360608110156104ed57600080fd5b506001600160a01b03813581169160208101359091169060400135610b7a565b34801561051957600080fd5b506103bf610c32565b34801561052e57600080fd5b506102e16004803603602081101561054557600080fd5b50356001600160a01b0316610c41565b60018054604080516020600284861615610100026000190190941693909304601f810184900484028201840190925281815292918301828280156105da5780601f106105af576101008083540402835291602001916105da565b820191906000526020600020905b8154815290600101906020018083116105bd57829003601f168201915b505050505081565b600060606105ee610930565b61062d576040805162461bcd60e51b815260206004820181905260248201526000805160206111e1833981519152604482015290519081900360640190fd5b846001600160a01b031683856040518082805190602001908083835b602083106106685780518252601f199092019160209182019101610649565b6001836020036101000a03801982511681845116808217855250505050505090500191505060006040518083038185875af1925050503d80600081146106ca576040519150601f19603f3d011682016040523d82523d6000602084013e6106cf565b606091505b508092508193505050846001600160a01b03167f534b52c783549f909f9e743120524d0b7154058e4a54cdc895c2c0b587a1c7e0858585604051808060200184815260200183151515158152602001828103825285818151815260200191508051906020019080838360005b8381101561075357818101518382015260200161073b565b50505050905090810190601f1680156107805780820380516001836020036101000a031916815260200191505b5094505050505060405180910390a2935093915050565b61079f610930565b6107de576040805162461bcd60e51b815260206004820181905260248201526000805160206111e1833981519152604482015290519081900360640190fd5b600080546040516001600160a01b03909116907f8be0079c531659141344cd1fd0a4f28419497f9722a3daafe3b4186f6b6457e0908390a3600080546001600160a01b0319169055565b6000610832610930565b610871576040805162461bcd60e51b815260206004820181905260248201526000805160206111e1833981519152604482015290519081900360640190fd5b7ff9deba4938ba20070ec5a45ddf59bccba49cf83124215228ec1232182ef0ba2b826040518080602001828103825283818151815260200191508051906020019080838360005b838110156108d05781810151838201526020016108b8565b50505050905090810190601f1680156108fd5780820380516001836020036101000a031916815260200191505b509250505060405180910390a1506001919050565b6003546001600160a01b031681565b6000546001600160a01b031690565b6000546001600160a01b0316331490565b600061094b610930565b61098a576040805162461bcd60e51b815260206004820181905260248201526000805160206111e1833981519152604482015290519081900360640190fd5b6109a46001600160a01b038516848463ffffffff610c9416565b604080516001600160a01b038581168252602082018590528251908716927f3a48a4d6253b30fd10e57a347c1f9bcb0604946481fae0b2fdad6e74f2a9cbb3928290030190a25060019392505050565b60006109fe610930565b610a3d576040805162461bcd60e51b815260206004820181905260248201526000805160206111e1833981519152604482015290519081900360640190fd5b610a586001600160a01b03861685858563ffffffff610ea516565b604080516001600160a01b03868116825285811660208301528183018590529151918716917f179c15de44aa7ab84896301974328eb40b5b40fe01cfe0fee2924ea712c3e8439181900360600190a2506001949350505050565b6000610abc610930565b610afb576040805162461bcd60e51b815260206004820181905260248201526000805160206111e1833981519152604482015290519081900360640190fd5b6040516001600160a01b0383169084156108fc029085906000818181858888f19350505050158015610b31573d6000803e3d6000fd5b506040805184815290516001600160a01b038416917f22fca66666089f39bc900dd6605b489df4aae6260cc8ea8257594cfb8c84926c919081900360200190a250600192915050565b6000610b84610930565b610bc3576040805162461bcd60e51b815260206004820181905260248201526000805160206111e1833981519152604482015290519081900360640190fd5b610bdd6001600160a01b038516848463ffffffff61102816565b826001600160a01b0316846001600160a01b03167f49dc2a60d2599a7b6932d78fb694c30dfc596fe4e0282b5d0fd184b52472c04d846040518082815260200191505060405180910390a35060019392505050565b6002546001600160a01b031681565b610c49610930565b610c88576040805162461bcd60e51b815260206004820181905260248201526000805160206111e1833981519152604482015290519081900360640190fd5b610c91816110ef565b50565b610ca6836001600160a01b031661118f565b610caf57600080fd5b801580610d35575060408051636eb1769f60e11b81523060048201526001600160a01b03848116602483015291519185169163dd62ed3e91604480820192602092909190829003018186803b158015610d0757600080fd5b505afa158015610d1b573d6000803e3d6000fd5b505050506040513d6020811015610d3157600080fd5b5051155b610d3e57600080fd5b604080518082018252601881527f617070726f766528616464726573732c75696e7432353629000000000000000060209182015281516001600160a01b0385811660248301526044808301869052845180840390910181526064909201845291810180516001600160e01b031663095ea7b360e01b1781529251815160009460609489169392918291908083835b60208310610deb5780518252601f199092019160209182019101610dcc565b6001836020036101000a0380198251168184511680821785525050505050509050019150506000604051808303816000865af19150503d8060008114610e4d576040519150601f19603f3d011682016040523d82523d6000602084013e610e52565b606091505b509150915081610e6157600080fd5b80511580610e95575080516020148015610e95575080601f81518110610e8357fe5b01602001516001600160f81b03191615155b610e9e57600080fd5b5050505050565b610eb7846001600160a01b031661118f565b610ec057600080fd5b60006060856001600160a01b0316604051806060016040528060258152602001611196602591398051602091820120604080516001600160a01b03808b166024830152891660448201526064808201899052825180830390910181526084909101825292830180516001600160e01b03166001600160e01b0319909316929092178252518251909182918083835b60208310610f6d5780518252601f199092019160209182019101610f4e565b6001836020036101000a0380198251168184511680821785525050505050509050019150506000604051808303816000865af19150503d8060008114610fcf576040519150601f19603f3d011682016040523d82523d6000602084013e610fd4565b606091505b509150915081610fe357600080fd5b80511580611017575080516020148015611017575080601f8151811061100557fe5b01602001516001600160f81b03191615155b61102057600080fd5b505050505050565b61103a836001600160a01b031661118f565b61104357600080fd5b604080518082018252601981527f7472616e7366657228616464726573732c75696e74323536290000000000000060209182015281516001600160a01b0385811660248301526044808301869052845180840390910181526064909201845291810180516001600160e01b031663a9059cbb60e01b17815292518151600094606094891693929182919080838360208310610deb5780518252601f199092019160209182019101610dcc565b6001600160a01b0381166111345760405162461bcd60e51b81526004018080602001828103825260268152602001806111bb6026913960400191505060405180910390fd5b600080546040516001600160a01b03808516939216917f8be0079c531659141344cd1fd0a4f28419497f9722a3daafe3b4186f6b6457e091a3600080546001600160a01b0319166001600160a01b0392909216919091179055565b3b15159056fe7472616e7366657246726f6d28616464726573732c616464726573732c75696e74323536294f776e61626c653a206e6577206f776e657220697320746865207a65726f20616464726573734f776e61626c653a2063616c6c6572206973206e6f7420746865206f776e6572a265627a7a72315820c009a71ce255c674f0fe112f82046c542df4b6a63723fd4e4415a1b141eb950464736f6c634300050b0032a265627a7a72315820db08b3c70b9a859b197de2f4da7d9cd8ace5624e6622836b36f2f65abf2355b664736f6c634300050b0032",
  "source": "pragma solidity ^0.5.11;\n\nimport \"./UniversalScheme.sol\";\nimport \"../controller/UController.sol\";\nimport \"../controller/Controller.sol\";\n\n\n/**\n * @title ControllerCreator for creating a single controller.\n */\n\ncontract ControllerCreator {\n\n    function create(Avatar _avatar) public returns(address) {\n        Controller controller = new Controller(_avatar);\n        controller.registerScheme(msg.sender, bytes32(0), bytes4(0x0000001f), address(_avatar));\n        controller.unregisterScheme(address(this), address(_avatar));\n        return address(controller);\n    }\n}\n\n/**\n * @title Genesis Scheme that creates organizations\n */\n\n\ncontract DaoCreator {\n\n    mapping(address=>address) public locks;\n\n    event NewOrg (address _avatar);\n    event InitialSchemesSet (address _avatar);\n\n    ControllerCreator private controllerCreator;\n\n    constructor(ControllerCreator _controllerCreator) public {\n        controllerCreator = _controllerCreator;\n    }\n\n    /**\n      * @dev addFounders add founders to the organization.\n      *      this function can be called only after forgeOrg and before setSchemes\n      * @param _avatar the organization avatar\n      * @param _founders An array with the addresses of the founders of the organization\n      * @param _foundersTokenAmount An array of amount of tokens that the founders\n      *  receive in the new organization\n      * @param _foundersReputationAmount An array of amount of reputation that the\n      *   founders receive in the new organization\n      * @return bool true or false\n      */\n    function addFounders (\n        Avatar _avatar,\n        address[] calldata _founders,\n        uint[] calldata _foundersTokenAmount,\n        uint[] calldata _foundersReputationAmount\n    )\n    external\n    returns(bool)\n    {\n        require(_founders.length == _foundersTokenAmount.length);\n        require(_founders.length == _foundersReputationAmount.length);\n        require(_founders.length > 0);\n        require(locks[address(_avatar)] == msg.sender);\n        // Mint token and reputation for founders:\n        for (uint256 i = 0; i < _founders.length; i++) {\n            require(_founders[i] != address(0));\n            if (_foundersTokenAmount[i] > 0) {\n                ControllerInterface(\n                _avatar.owner()).mintTokens(_foundersTokenAmount[i], _founders[i], address(_avatar));\n            }\n            if (_foundersReputationAmount[i] > 0) {\n                ControllerInterface(\n                _avatar.owner()).mintReputation(_foundersReputationAmount[i], _founders[i], address(_avatar));\n            }\n        }\n        return true;\n    }\n\n  /**\n    * @dev Create a new organization\n    * @param _orgName The name of the new organization\n    * @param _tokenName The name of the token associated with the organization\n    * @param _tokenSymbol The symbol of the token\n    * @param _founders An array with the addresses of the founders of the organization\n    * @param _foundersTokenAmount An array of amount of tokens that the founders\n    *  receive in the new organization\n    * @param _foundersReputationAmount An array of amount of reputation that the\n    *   founders receive in the new organization\n    * @param  _uController universal controller instance\n    *         if _uController address equal to zero the organization will use none universal controller.\n    * @param  _cap token cap - 0 for no cap.\n    * @return The address of the avatar of the controller\n    */\n    function forgeOrg (\n        string calldata _orgName,\n        string calldata _tokenName,\n        string calldata _tokenSymbol,\n        address[] calldata _founders,\n        uint[] calldata _foundersTokenAmount,\n        uint[] calldata _foundersReputationAmount,\n        UController _uController,\n        uint256 _cap\n    )\n    external\n    returns(address)\n    {\n        //The call for the private function is needed to bypass a deep stack issues\n        return _forgeOrg(\n            _orgName,\n            _tokenName,\n            _tokenSymbol,\n            _founders,\n            _foundersTokenAmount,\n            _foundersReputationAmount,\n            _uController,\n            _cap);\n    }\n\n     /**\n      * @dev Set initial schemes for the organization.\n      * @param _avatar organization avatar (returns from forgeOrg)\n      * @param _schemes the schemes to register for the organization\n      * @param _params the schemes's params\n      * @param _permissions the schemes permissions.\n      * @param _metaData dao meta data hash\n      */\n    function setSchemes (\n        Avatar _avatar,\n        address[] calldata _schemes,\n        bytes32[] calldata _params,\n        bytes4[] calldata _permissions,\n        string calldata _metaData\n    )\n        external\n    {\n        // this action can only be executed by the account that holds the lock\n        // for this controller\n        require(locks[address(_avatar)] == msg.sender);\n        // register initial schemes:\n        ControllerInterface controller = ControllerInterface(_avatar.owner());\n        for (uint256 i = 0; i < _schemes.length; i++) {\n            controller.registerScheme(_schemes[i], _params[i], _permissions[i], address(_avatar));\n        }\n        controller.metaData(_metaData, _avatar);\n        // Unregister self:\n        controller.unregisterScheme(address(this), address(_avatar));\n        // Remove lock:\n        delete locks[address(_avatar)];\n        emit InitialSchemesSet(address(_avatar));\n    }\n\n    /**\n     * @dev Create a new organization\n     * @param _orgName The name of the new organization\n     * @param _tokenName The name of the token associated with the organization\n     * @param _tokenSymbol The symbol of the token\n     * @param _founders An array with the addresses of the founders of the organization\n     * @param _foundersTokenAmount An array of amount of tokens that the founders\n     *  receive in the new organization\n     * @param _foundersReputationAmount An array of amount of reputation that the\n     *   founders receive in the new organization\n     * @param  _uController universal controller instance\n     *         if _uController address equal to zero the organization will use none universal controller.\n     * @param  _cap token cap - 0 for no cap.\n     * @return The address of the avatar of the controller\n     */\n    function _forgeOrg (\n        string memory _orgName,\n        string memory _tokenName,\n        string memory _tokenSymbol,\n        address[] memory _founders,\n        uint[] memory _foundersTokenAmount,\n        uint[] memory _foundersReputationAmount,\n        UController _uController,\n        uint256 _cap\n    ) private returns(address)\n    {\n        // Create Token, Reputation and Avatar:\n        require(_founders.length == _foundersTokenAmount.length);\n        require(_founders.length == _foundersReputationAmount.length);\n        require(_founders.length > 0);\n        DAOToken  nativeToken = new DAOToken(_tokenName, _tokenSymbol, _cap);\n        Reputation  nativeReputation = new Reputation();\n        Avatar  avatar = new Avatar(_orgName, nativeToken, nativeReputation);\n        ControllerInterface  controller;\n\n        // Mint token and reputation for founders:\n        for (uint256 i = 0; i < _founders.length; i++) {\n            require(_founders[i] != address(0));\n            if (_foundersTokenAmount[i] > 0) {\n                nativeToken.mint(_founders[i], _foundersTokenAmount[i]);\n            }\n            if (_foundersReputationAmount[i] > 0) {\n                nativeReputation.mint(_founders[i], _foundersReputationAmount[i]);\n            }\n        }\n\n        // Create Controller:\n        if (UController(0) == _uController) {\n            controller = ControllerInterface(controllerCreator.create(avatar));\n            avatar.transferOwnership(address(controller));\n            // Transfer ownership:\n            nativeToken.transferOwnership(address(controller));\n            nativeReputation.transferOwnership(address(controller));\n        } else {\n            controller = _uController;\n            avatar.transferOwnership(address(controller));\n            // Transfer ownership:\n            nativeToken.transferOwnership(address(controller));\n            nativeReputation.transferOwnership(address(controller));\n            _uController.newOrganization(avatar);\n        }\n\n        locks[address(avatar)] = msg.sender;\n\n        emit NewOrg (address(avatar));\n        return (address(avatar));\n    }\n}\n",
  "sourcePath": "/Users/oren/daostack/arc/contracts/universalSchemes/DaoCreator.sol",
  "compiler": {
    "name": "solc",
    "version": "0.5.11+commit.c082d0b4.Emscripten.clang"
  },
  "schemaVersion": "3.0.14",
  "updatedAt": "2019-09-22T09:06:21.100Z",
  "devdoc": {
    "methods": {
      "addFounders(address,address[],uint256[],uint256[])": {
        "details": "addFounders add founders to the organization.     this function can be called only after forgeOrg and before setSchemes",
        "params": {
          "_avatar": "the organization avatar",
          "_founders": "An array with the addresses of the founders of the organization",
          "_foundersReputationAmount": "An array of amount of reputation that the  founders receive in the new organization",
          "_foundersTokenAmount": "An array of amount of tokens that the founders receive in the new organization"
        },
        "return": "bool true or false"
      },
      "forgeOrg(string,string,string,address[],uint256[],uint256[],address,uint256)": {
        "details": "Create a new organization",
        "params": {
          "_cap": "token cap - 0 for no cap.",
          "_founders": "An array with the addresses of the founders of the organization",
          "_foundersReputationAmount": "An array of amount of reputation that the  founders receive in the new organization",
          "_foundersTokenAmount": "An array of amount of tokens that the founders receive in the new organization",
          "_orgName": "The name of the new organization",
          "_tokenName": "The name of the token associated with the organization",
          "_tokenSymbol": "The symbol of the token",
          "_uController": "universal controller instance        if _uController address equal to zero the organization will use none universal controller."
        },
        "return": "The address of the avatar of the controller"
      },
      "setSchemes(address,address[],bytes32[],bytes4[],string)": {
        "details": "Set initial schemes for the organization.",
        "params": {
          "_avatar": "organization avatar (returns from forgeOrg)",
          "_metaData": "dao meta data hash",
          "_params": "the schemes's params",
          "_permissions": "the schemes permissions.",
          "_schemes": "the schemes to register for the organization"
        }
      }
    },
    "title": "Genesis Scheme that creates organizations"
  },
  "userdoc": {
    "methods": {}
  }
}